{
	"contracts/crowdsale/crowdsale.sol": {
		"Crowdsale": {
			"abi": [
				{
					"inputs": [
						{
							"internalType": "uint256",
							"name": "initialSupply",
							"type": "uint256"
						}
					],
					"stateMutability": "nonpayable",
					"type": "constructor"
				},
				{
					"inputs": [],
					"name": "rate",
					"outputs": [
						{
							"internalType": "uint256",
							"name": "",
							"type": "uint256"
						}
					],
					"stateMutability": "view",
					"type": "function"
				},
				{
					"inputs": [],
					"name": "token",
					"outputs": [
						{
							"internalType": "contract Token",
							"name": "",
							"type": "address"
						}
					],
					"stateMutability": "view",
					"type": "function"
				},
				{
					"stateMutability": "payable",
					"type": "receive"
				}
			],
			"devdoc": {
				"kind": "dev",
				"methods": {},
				"version": 1
			},
			"evm": {
				"assembly": "    /* \"contracts/crowdsale/crowdsale.sol\":85:568  contract Crowdsale {... */\n  mstore(0x40, 0x80)\n    /* \"contracts/crowdsale/crowdsale.sol\":130:133  200 */\n  0xc8\n    /* \"contracts/crowdsale/crowdsale.sol\":111:133  uint public rate = 200 */\n  0x00\n  sstore\n    /* \"contracts/crowdsale/crowdsale.sol\":167:252  constructor(uint256 initialSupply){... */\n  callvalue\n  dup1\n  iszero\n  tag_1\n  jumpi\n  0x00\n  dup1\n  revert\ntag_1:\n  pop\n  mload(0x40)\n  sub(codesize, bytecodeSize)\n  dup1\n  bytecodeSize\n  dup4\n  codecopy\n  dup2\n  dup2\n  add\n  0x40\n  mstore\n  dup2\n  add\n  swap1\n  tag_2\n  swap2\n  swap1\n  tag_3\n  jump\t// in\ntag_2:\n    /* \"contracts/crowdsale/crowdsale.sol\":230:243  initialSupply */\n  dup1\n    /* \"contracts/crowdsale/crowdsale.sol\":220:244  new Token(initialSupply) */\n  mload(0x40)\n  tag_6\n  swap1\n  tag_7\n  jump\t// in\ntag_6:\n  tag_8\n  swap2\n  swap1\n  tag_9\n  jump\t// in\ntag_8:\n  mload(0x40)\n  dup1\n  swap2\n  sub\n  swap1\n  0x00\n  create\n  dup1\n  iszero\n  dup1\n  iszero\n  tag_10\n  jumpi\n  returndatasize\n  0x00\n  dup1\n  returndatacopy\n  revert(0x00, returndatasize)\ntag_10:\n  pop\n    /* \"contracts/crowdsale/crowdsale.sol\":212:217  token */\n  0x01\n  0x00\n    /* \"contracts/crowdsale/crowdsale.sol\":212:244  token = new Token(initialSupply) */\n  0x0100\n  exp\n  dup2\n  sload\n  dup2\n  0xffffffffffffffffffffffffffffffffffffffff\n  mul\n  not\n  and\n  swap1\n  dup4\n  0xffffffffffffffffffffffffffffffffffffffff\n  and\n  mul\n  or\n  swap1\n  sstore\n  pop\n    /* \"contracts/crowdsale/crowdsale.sol\":167:252  constructor(uint256 initialSupply){... */\n  pop\n    /* \"contracts/crowdsale/crowdsale.sol\":85:568  contract Crowdsale {... */\n  jump(tag_11)\ntag_7:\n  dataSize(sub_1)\n  dup1\n  dataOffset(sub_1)\n  dup4\n  codecopy\n  add\n  swap1\n  jump\t// out\n    /* \"#utility.yul\":88:205   */\ntag_13:\n    /* \"#utility.yul\":197:198   */\n  0x00\n    /* \"#utility.yul\":194:195   */\n  dup1\n    /* \"#utility.yul\":187:199   */\n  revert\n    /* \"#utility.yul\":334:411   */\ntag_15:\n    /* \"#utility.yul\":371:378   */\n  0x00\n    /* \"#utility.yul\":400:405   */\n  dup2\n    /* \"#utility.yul\":389:405   */\n  swap1\n  pop\n    /* \"#utility.yul\":334:411   */\n  swap2\n  swap1\n  pop\n  jump\t// out\n    /* \"#utility.yul\":417:539   */\ntag_16:\n    /* \"#utility.yul\":490:514   */\n  tag_25\n    /* \"#utility.yul\":508:513   */\n  dup2\n    /* \"#utility.yul\":490:514   */\n  tag_15\n  jump\t// in\ntag_25:\n    /* \"#utility.yul\":483:488   */\n  dup2\n    /* \"#utility.yul\":480:515   */\n  eq\n    /* \"#utility.yul\":470:533   */\n  tag_26\n  jumpi\n    /* \"#utility.yul\":529:530   */\n  0x00\n    /* \"#utility.yul\":526:527   */\n  dup1\n    /* \"#utility.yul\":519:531   */\n  revert\n    /* \"#utility.yul\":470:533   */\ntag_26:\n    /* \"#utility.yul\":417:539   */\n  pop\n  jump\t// out\n    /* \"#utility.yul\":545:688   */\ntag_17:\n    /* \"#utility.yul\":602:607   */\n  0x00\n    /* \"#utility.yul\":633:639   */\n  dup2\n    /* \"#utility.yul\":627:640   */\n  mload\n    /* \"#utility.yul\":618:640   */\n  swap1\n  pop\n    /* \"#utility.yul\":649:682   */\n  tag_28\n    /* \"#utility.yul\":676:681   */\n  dup2\n    /* \"#utility.yul\":649:682   */\n  tag_16\n  jump\t// in\ntag_28:\n    /* \"#utility.yul\":545:688   */\n  swap3\n  swap2\n  pop\n  pop\n  jump\t// out\n    /* \"#utility.yul\":694:1045   */\ntag_3:\n    /* \"#utility.yul\":764:770   */\n  0x00\n    /* \"#utility.yul\":813:815   */\n  0x20\n    /* \"#utility.yul\":801:810   */\n  dup3\n    /* \"#utility.yul\":792:799   */\n  dup5\n    /* \"#utility.yul\":788:811   */\n  sub\n    /* \"#utility.yul\":784:816   */\n  slt\n    /* \"#utility.yul\":781:900   */\n  iszero\n  tag_30\n  jumpi\n    /* \"#utility.yul\":819:898   */\n  tag_31\n  tag_13\n  jump\t// in\ntag_31:\n    /* \"#utility.yul\":781:900   */\ntag_30:\n    /* \"#utility.yul\":939:940   */\n  0x00\n    /* \"#utility.yul\":964:1028   */\n  tag_32\n    /* \"#utility.yul\":1020:1027   */\n  dup5\n    /* \"#utility.yul\":1011:1017   */\n  dup3\n    /* \"#utility.yul\":1000:1009   */\n  dup6\n    /* \"#utility.yul\":996:1018   */\n  add\n    /* \"#utility.yul\":964:1028   */\n  tag_17\n  jump\t// in\ntag_32:\n    /* \"#utility.yul\":954:1028   */\n  swap2\n  pop\n    /* \"#utility.yul\":910:1038   */\n  pop\n    /* \"#utility.yul\":694:1045   */\n  swap3\n  swap2\n  pop\n  pop\n  jump\t// out\n    /* \"#utility.yul\":1051:1169   */\ntag_18:\n    /* \"#utility.yul\":1138:1162   */\n  tag_34\n    /* \"#utility.yul\":1156:1161   */\n  dup2\n    /* \"#utility.yul\":1138:1162   */\n  tag_15\n  jump\t// in\ntag_34:\n    /* \"#utility.yul\":1133:1136   */\n  dup3\n    /* \"#utility.yul\":1126:1163   */\n  mstore\n    /* \"#utility.yul\":1051:1169   */\n  pop\n  pop\n  jump\t// out\n    /* \"#utility.yul\":1175:1397   */\ntag_9:\n    /* \"#utility.yul\":1268:1272   */\n  0x00\n    /* \"#utility.yul\":1306:1308   */\n  0x20\n    /* \"#utility.yul\":1295:1304   */\n  dup3\n    /* \"#utility.yul\":1291:1309   */\n  add\n    /* \"#utility.yul\":1283:1309   */\n  swap1\n  pop\n    /* \"#utility.yul\":1319:1390   */\n  tag_36\n    /* \"#utility.yul\":1387:1388   */\n  0x00\n    /* \"#utility.yul\":1376:1385   */\n  dup4\n    /* \"#utility.yul\":1372:1389   */\n  add\n    /* \"#utility.yul\":1363:1369   */\n  dup5\n    /* \"#utility.yul\":1319:1390   */\n  tag_18\n  jump\t// in\ntag_36:\n    /* \"#utility.yul\":1175:1397   */\n  swap3\n  swap2\n  pop\n  pop\n  jump\t// out\n    /* \"contracts/crowdsale/crowdsale.sol\":85:568  contract Crowdsale {... */\ntag_11:\n  dataSize(sub_0)\n  dup1\n  dataOffset(sub_0)\n  0x00\n  codecopy\n  0x00\n  return\nstop\n\nsub_0: assembly {\n        /* \"contracts/crowdsale/crowdsale.sol\":85:568  contract Crowdsale {... */\n      mstore(0x40, 0x80)\n      jumpi(tag_1, lt(calldatasize, 0x04))\n      shr(0xe0, calldataload(0x00))\n      dup1\n      0x2c4e722e\n      eq\n      tag_3\n      jumpi\n      dup1\n      0xfc0c546a\n      eq\n      tag_4\n      jumpi\n      jump(tag_2)\n    tag_1:\n      jumpi(tag_2, calldatasize)\n        /* \"contracts/crowdsale/crowdsale.sol\":317:326  0.1 ether */\n      0x016345785d8a0000\n        /* \"contracts/crowdsale/crowdsale.sol\":305:314  msg.value */\n      callvalue\n        /* \"contracts/crowdsale/crowdsale.sol\":305:326  msg.value > 0.1 ether */\n      gt\n        /* \"contracts/crowdsale/crowdsale.sol\":297:365  require(msg.value > 0.1 ether, \"You can't send less than 0.1 ether\") */\n      tag_7\n      jumpi\n      mload(0x40)\n      0x08c379a000000000000000000000000000000000000000000000000000000000\n      dup2\n      mstore\n      0x04\n      add\n      tag_8\n      swap1\n      tag_9\n      jump\t// in\n    tag_8:\n      mload(0x40)\n      dup1\n      swap2\n      sub\n      swap1\n      revert\n    tag_7:\n        /* \"contracts/crowdsale/crowdsale.sol\":376:397  distribute(msg.value) */\n      tag_10\n        /* \"contracts/crowdsale/crowdsale.sol\":387:396  msg.value */\n      callvalue\n        /* \"contracts/crowdsale/crowdsale.sol\":376:386  distribute */\n      tag_11\n        /* \"contracts/crowdsale/crowdsale.sol\":376:397  distribute(msg.value) */\n      jump\t// in\n    tag_10:\n        /* \"contracts/crowdsale/crowdsale.sol\":85:568  contract Crowdsale {... */\n      stop\n    tag_2:\n      0x00\n      dup1\n      revert\n        /* \"contracts/crowdsale/crowdsale.sol\":111:133  uint public rate = 200 */\n    tag_3:\n      callvalue\n      dup1\n      iszero\n      tag_12\n      jumpi\n      0x00\n      dup1\n      revert\n    tag_12:\n      pop\n      tag_13\n      tag_14\n      jump\t// in\n    tag_13:\n      mload(0x40)\n      tag_15\n      swap2\n      swap1\n      tag_16\n      jump\t// in\n    tag_15:\n      mload(0x40)\n      dup1\n      swap2\n      sub\n      swap1\n      return\n        /* \"contracts/crowdsale/crowdsale.sol\":140:158  Token public token */\n    tag_4:\n      callvalue\n      dup1\n      iszero\n      tag_17\n      jumpi\n      0x00\n      dup1\n      revert\n    tag_17:\n      pop\n      tag_18\n      tag_19\n      jump\t// in\n    tag_18:\n      mload(0x40)\n      tag_20\n      swap2\n      swap1\n      tag_21\n      jump\t// in\n    tag_20:\n      mload(0x40)\n      dup1\n      swap2\n      sub\n      swap1\n      return\n        /* \"contracts/crowdsale/crowdsale.sol\":413:565  function distribute(uint256 amount) internal{... */\n    tag_11:\n        /* \"contracts/crowdsale/crowdsale.sol\":470:490  uint256 tokensToSent */\n      0x00\n        /* \"contracts/crowdsale/crowdsale.sol\":502:506  rate */\n      dup1\n      sload\n        /* \"contracts/crowdsale/crowdsale.sol\":493:499  amount */\n      dup3\n        /* \"contracts/crowdsale/crowdsale.sol\":493:506  amount * rate */\n      tag_23\n      swap2\n      swap1\n      tag_24\n      jump\t// in\n    tag_23:\n        /* \"contracts/crowdsale/crowdsale.sol\":470:506  uint256 tokensToSent = amount * rate */\n      swap1\n      pop\n        /* \"contracts/crowdsale/crowdsale.sol\":517:522  token */\n      0x01\n      0x00\n      swap1\n      sload\n      swap1\n      0x0100\n      exp\n      swap1\n      div\n      0xffffffffffffffffffffffffffffffffffffffff\n      and\n        /* \"contracts/crowdsale/crowdsale.sol\":517:531  token.transfer */\n      0xffffffffffffffffffffffffffffffffffffffff\n      and\n      0xa9059cbb\n        /* \"contracts/crowdsale/crowdsale.sol\":532:542  msg.sender */\n      caller\n        /* \"contracts/crowdsale/crowdsale.sol\":544:556  tokensToSent */\n      dup4\n        /* \"contracts/crowdsale/crowdsale.sol\":517:557  token.transfer(msg.sender, tokensToSent) */\n      mload(0x40)\n      dup4\n      0xffffffff\n      and\n      0xe0\n      shl\n      dup2\n      mstore\n      0x04\n      add\n      tag_25\n      swap3\n      swap2\n      swap1\n      tag_26\n      jump\t// in\n    tag_25:\n      0x20\n      mload(0x40)\n      dup1\n      dup4\n      sub\n      dup2\n      0x00\n      dup8\n      gas\n      call\n      iszero\n      dup1\n      iszero\n      tag_28\n      jumpi\n      returndatasize\n      0x00\n      dup1\n      returndatacopy\n      revert(0x00, returndatasize)\n    tag_28:\n      pop\n      pop\n      pop\n      pop\n      mload(0x40)\n      returndatasize\n      not(0x1f)\n      0x1f\n      dup3\n      add\n      and\n      dup3\n      add\n      dup1\n      0x40\n      mstore\n      pop\n      dup2\n      add\n      swap1\n      tag_29\n      swap2\n      swap1\n      tag_30\n      jump\t// in\n    tag_29:\n      pop\n        /* \"contracts/crowdsale/crowdsale.sol\":457:565  {... */\n      pop\n        /* \"contracts/crowdsale/crowdsale.sol\":413:565  function distribute(uint256 amount) internal{... */\n      pop\n      jump\t// out\n        /* \"contracts/crowdsale/crowdsale.sol\":111:133  uint public rate = 200 */\n    tag_14:\n      sload(0x00)\n      dup2\n      jump\t// out\n        /* \"contracts/crowdsale/crowdsale.sol\":140:158  Token public token */\n    tag_19:\n      0x01\n      0x00\n      swap1\n      sload\n      swap1\n      0x0100\n      exp\n      swap1\n      div\n      0xffffffffffffffffffffffffffffffffffffffff\n      and\n      dup2\n      jump\t// out\n        /* \"#utility.yul\":7:176   */\n    tag_31:\n        /* \"#utility.yul\":91:102   */\n      0x00\n        /* \"#utility.yul\":125:131   */\n      dup3\n        /* \"#utility.yul\":120:123   */\n      dup3\n        /* \"#utility.yul\":113:132   */\n      mstore\n        /* \"#utility.yul\":165:169   */\n      0x20\n        /* \"#utility.yul\":160:163   */\n      dup3\n        /* \"#utility.yul\":156:170   */\n      add\n        /* \"#utility.yul\":141:170   */\n      swap1\n      pop\n        /* \"#utility.yul\":7:176   */\n      swap3\n      swap2\n      pop\n      pop\n      jump\t// out\n        /* \"#utility.yul\":182:403   */\n    tag_32:\n        /* \"#utility.yul\":322:356   */\n      0x596f752063616e27742073656e64206c657373207468616e20302e3120657468\n        /* \"#utility.yul\":318:319   */\n      0x00\n        /* \"#utility.yul\":310:316   */\n      dup3\n        /* \"#utility.yul\":306:320   */\n      add\n        /* \"#utility.yul\":299:357   */\n      mstore\n        /* \"#utility.yul\":391:395   */\n      0x6572000000000000000000000000000000000000000000000000000000000000\n        /* \"#utility.yul\":386:388   */\n      0x20\n        /* \"#utility.yul\":378:384   */\n      dup3\n        /* \"#utility.yul\":374:389   */\n      add\n        /* \"#utility.yul\":367:396   */\n      mstore\n        /* \"#utility.yul\":182:403   */\n      pop\n      jump\t// out\n        /* \"#utility.yul\":409:775   */\n    tag_33:\n        /* \"#utility.yul\":551:554   */\n      0x00\n        /* \"#utility.yul\":572:639   */\n      tag_55\n        /* \"#utility.yul\":636:638   */\n      0x22\n        /* \"#utility.yul\":631:634   */\n      dup4\n        /* \"#utility.yul\":572:639   */\n      tag_31\n      jump\t// in\n    tag_55:\n        /* \"#utility.yul\":565:639   */\n      swap2\n      pop\n        /* \"#utility.yul\":648:741   */\n      tag_56\n        /* \"#utility.yul\":737:740   */\n      dup3\n        /* \"#utility.yul\":648:741   */\n      tag_32\n      jump\t// in\n    tag_56:\n        /* \"#utility.yul\":766:768   */\n      0x40\n        /* \"#utility.yul\":761:764   */\n      dup3\n        /* \"#utility.yul\":757:769   */\n      add\n        /* \"#utility.yul\":750:769   */\n      swap1\n      pop\n        /* \"#utility.yul\":409:775   */\n      swap2\n      swap1\n      pop\n      jump\t// out\n        /* \"#utility.yul\":781:1200   */\n    tag_9:\n        /* \"#utility.yul\":947:951   */\n      0x00\n        /* \"#utility.yul\":985:987   */\n      0x20\n        /* \"#utility.yul\":974:983   */\n      dup3\n        /* \"#utility.yul\":970:988   */\n      add\n        /* \"#utility.yul\":962:988   */\n      swap1\n      pop\n        /* \"#utility.yul\":1034:1043   */\n      dup2\n        /* \"#utility.yul\":1028:1032   */\n      dup2\n        /* \"#utility.yul\":1024:1044   */\n      sub\n        /* \"#utility.yul\":1020:1021   */\n      0x00\n        /* \"#utility.yul\":1009:1018   */\n      dup4\n        /* \"#utility.yul\":1005:1022   */\n      add\n        /* \"#utility.yul\":998:1045   */\n      mstore\n        /* \"#utility.yul\":1062:1193   */\n      tag_58\n        /* \"#utility.yul\":1188:1192   */\n      dup2\n        /* \"#utility.yul\":1062:1193   */\n      tag_33\n      jump\t// in\n    tag_58:\n        /* \"#utility.yul\":1054:1193   */\n      swap1\n      pop\n        /* \"#utility.yul\":781:1200   */\n      swap2\n      swap1\n      pop\n      jump\t// out\n        /* \"#utility.yul\":1206:1283   */\n    tag_34:\n        /* \"#utility.yul\":1243:1250   */\n      0x00\n        /* \"#utility.yul\":1272:1277   */\n      dup2\n        /* \"#utility.yul\":1261:1277   */\n      swap1\n      pop\n        /* \"#utility.yul\":1206:1283   */\n      swap2\n      swap1\n      pop\n      jump\t// out\n        /* \"#utility.yul\":1289:1407   */\n    tag_35:\n        /* \"#utility.yul\":1376:1400   */\n      tag_61\n        /* \"#utility.yul\":1394:1399   */\n      dup2\n        /* \"#utility.yul\":1376:1400   */\n      tag_34\n      jump\t// in\n    tag_61:\n        /* \"#utility.yul\":1371:1374   */\n      dup3\n        /* \"#utility.yul\":1364:1401   */\n      mstore\n        /* \"#utility.yul\":1289:1407   */\n      pop\n      pop\n      jump\t// out\n        /* \"#utility.yul\":1413:1635   */\n    tag_16:\n        /* \"#utility.yul\":1506:1510   */\n      0x00\n        /* \"#utility.yul\":1544:1546   */\n      0x20\n        /* \"#utility.yul\":1533:1542   */\n      dup3\n        /* \"#utility.yul\":1529:1547   */\n      add\n        /* \"#utility.yul\":1521:1547   */\n      swap1\n      pop\n        /* \"#utility.yul\":1557:1628   */\n      tag_63\n        /* \"#utility.yul\":1625:1626   */\n      0x00\n        /* \"#utility.yul\":1614:1623   */\n      dup4\n        /* \"#utility.yul\":1610:1627   */\n      add\n        /* \"#utility.yul\":1601:1607   */\n      dup5\n        /* \"#utility.yul\":1557:1628   */\n      tag_35\n      jump\t// in\n    tag_63:\n        /* \"#utility.yul\":1413:1635   */\n      swap3\n      swap2\n      pop\n      pop\n      jump\t// out\n        /* \"#utility.yul\":1641:1767   */\n    tag_36:\n        /* \"#utility.yul\":1678:1685   */\n      0x00\n        /* \"#utility.yul\":1718:1760   */\n      0xffffffffffffffffffffffffffffffffffffffff\n        /* \"#utility.yul\":1711:1716   */\n      dup3\n        /* \"#utility.yul\":1707:1761   */\n      and\n        /* \"#utility.yul\":1696:1761   */\n      swap1\n      pop\n        /* \"#utility.yul\":1641:1767   */\n      swap2\n      swap1\n      pop\n      jump\t// out\n        /* \"#utility.yul\":1773:1833   */\n    tag_37:\n        /* \"#utility.yul\":1801:1804   */\n      0x00\n        /* \"#utility.yul\":1822:1827   */\n      dup2\n        /* \"#utility.yul\":1815:1827   */\n      swap1\n      pop\n        /* \"#utility.yul\":1773:1833   */\n      swap2\n      swap1\n      pop\n      jump\t// out\n        /* \"#utility.yul\":1839:1981   */\n    tag_38:\n        /* \"#utility.yul\":1889:1898   */\n      0x00\n        /* \"#utility.yul\":1922:1975   */\n      tag_67\n        /* \"#utility.yul\":1940:1974   */\n      tag_68\n        /* \"#utility.yul\":1949:1973   */\n      tag_69\n        /* \"#utility.yul\":1967:1972   */\n      dup5\n        /* \"#utility.yul\":1949:1973   */\n      tag_36\n      jump\t// in\n    tag_69:\n        /* \"#utility.yul\":1940:1974   */\n      tag_37\n      jump\t// in\n    tag_68:\n        /* \"#utility.yul\":1922:1975   */\n      tag_36\n      jump\t// in\n    tag_67:\n        /* \"#utility.yul\":1909:1975   */\n      swap1\n      pop\n        /* \"#utility.yul\":1839:1981   */\n      swap2\n      swap1\n      pop\n      jump\t// out\n        /* \"#utility.yul\":1987:2113   */\n    tag_39:\n        /* \"#utility.yul\":2037:2046   */\n      0x00\n        /* \"#utility.yul\":2070:2107   */\n      tag_71\n        /* \"#utility.yul\":2101:2106   */\n      dup3\n        /* \"#utility.yul\":2070:2107   */\n      tag_38\n      jump\t// in\n    tag_71:\n        /* \"#utility.yul\":2057:2107   */\n      swap1\n      pop\n        /* \"#utility.yul\":1987:2113   */\n      swap2\n      swap1\n      pop\n      jump\t// out\n        /* \"#utility.yul\":2119:2257   */\n    tag_40:\n        /* \"#utility.yul\":2181:2190   */\n      0x00\n        /* \"#utility.yul\":2214:2251   */\n      tag_73\n        /* \"#utility.yul\":2245:2250   */\n      dup3\n        /* \"#utility.yul\":2214:2251   */\n      tag_39\n      jump\t// in\n    tag_73:\n        /* \"#utility.yul\":2201:2251   */\n      swap1\n      pop\n        /* \"#utility.yul\":2119:2257   */\n      swap2\n      swap1\n      pop\n      jump\t// out\n        /* \"#utility.yul\":2263:2418   */\n    tag_41:\n        /* \"#utility.yul\":2362:2411   */\n      tag_75\n        /* \"#utility.yul\":2405:2410   */\n      dup2\n        /* \"#utility.yul\":2362:2411   */\n      tag_40\n      jump\t// in\n    tag_75:\n        /* \"#utility.yul\":2357:2360   */\n      dup3\n        /* \"#utility.yul\":2350:2412   */\n      mstore\n        /* \"#utility.yul\":2263:2418   */\n      pop\n      pop\n      jump\t// out\n        /* \"#utility.yul\":2424:2670   */\n    tag_21:\n        /* \"#utility.yul\":2529:2533   */\n      0x00\n        /* \"#utility.yul\":2567:2569   */\n      0x20\n        /* \"#utility.yul\":2556:2565   */\n      dup3\n        /* \"#utility.yul\":2552:2570   */\n      add\n        /* \"#utility.yul\":2544:2570   */\n      swap1\n      pop\n        /* \"#utility.yul\":2580:2663   */\n      tag_77\n        /* \"#utility.yul\":2660:2661   */\n      0x00\n        /* \"#utility.yul\":2649:2658   */\n      dup4\n        /* \"#utility.yul\":2645:2662   */\n      add\n        /* \"#utility.yul\":2636:2642   */\n      dup5\n        /* \"#utility.yul\":2580:2663   */\n      tag_41\n      jump\t// in\n    tag_77:\n        /* \"#utility.yul\":2424:2670   */\n      swap3\n      swap2\n      pop\n      pop\n      jump\t// out\n        /* \"#utility.yul\":2676:2856   */\n    tag_42:\n        /* \"#utility.yul\":2724:2801   */\n      0x4e487b7100000000000000000000000000000000000000000000000000000000\n        /* \"#utility.yul\":2721:2722   */\n      0x00\n        /* \"#utility.yul\":2714:2802   */\n      mstore\n        /* \"#utility.yul\":2821:2825   */\n      0x11\n        /* \"#utility.yul\":2818:2819   */\n      0x04\n        /* \"#utility.yul\":2811:2826   */\n      mstore\n        /* \"#utility.yul\":2845:2849   */\n      0x24\n        /* \"#utility.yul\":2842:2843   */\n      0x00\n        /* \"#utility.yul\":2835:2850   */\n      revert\n        /* \"#utility.yul\":2862:3210   */\n    tag_24:\n        /* \"#utility.yul\":2902:2909   */\n      0x00\n        /* \"#utility.yul\":2925:2945   */\n      tag_80\n        /* \"#utility.yul\":2943:2944   */\n      dup3\n        /* \"#utility.yul\":2925:2945   */\n      tag_34\n      jump\t// in\n    tag_80:\n        /* \"#utility.yul\":2920:2945   */\n      swap2\n      pop\n        /* \"#utility.yul\":2959:2979   */\n      tag_81\n        /* \"#utility.yul\":2977:2978   */\n      dup4\n        /* \"#utility.yul\":2959:2979   */\n      tag_34\n      jump\t// in\n    tag_81:\n        /* \"#utility.yul\":2954:2979   */\n      swap3\n      pop\n        /* \"#utility.yul\":3147:3148   */\n      dup2\n        /* \"#utility.yul\":3079:3145   */\n      0xffffffffffffffffffffffffffffffffffffffffffffffffffffffffffffffff\n        /* \"#utility.yul\":3075:3149   */\n      div\n        /* \"#utility.yul\":3072:3073   */\n      dup4\n        /* \"#utility.yul\":3069:3150   */\n      gt\n        /* \"#utility.yul\":3064:3065   */\n      dup3\n        /* \"#utility.yul\":3057:3066   */\n      iszero\n        /* \"#utility.yul\":3050:3067   */\n      iszero\n        /* \"#utility.yul\":3046:3151   */\n      and\n        /* \"#utility.yul\":3043:3174   */\n      iszero\n      tag_82\n      jumpi\n        /* \"#utility.yul\":3154:3172   */\n      tag_83\n      tag_42\n      jump\t// in\n    tag_83:\n        /* \"#utility.yul\":3043:3174   */\n    tag_82:\n        /* \"#utility.yul\":3202:3203   */\n      dup3\n        /* \"#utility.yul\":3199:3200   */\n      dup3\n        /* \"#utility.yul\":3195:3204   */\n      mul\n        /* \"#utility.yul\":3184:3204   */\n      swap1\n      pop\n        /* \"#utility.yul\":2862:3210   */\n      swap3\n      swap2\n      pop\n      pop\n      jump\t// out\n        /* \"#utility.yul\":3216:3312   */\n    tag_43:\n        /* \"#utility.yul\":3253:3260   */\n      0x00\n        /* \"#utility.yul\":3282:3306   */\n      tag_85\n        /* \"#utility.yul\":3300:3305   */\n      dup3\n        /* \"#utility.yul\":3282:3306   */\n      tag_36\n      jump\t// in\n    tag_85:\n        /* \"#utility.yul\":3271:3306   */\n      swap1\n      pop\n        /* \"#utility.yul\":3216:3312   */\n      swap2\n      swap1\n      pop\n      jump\t// out\n        /* \"#utility.yul\":3318:3436   */\n    tag_44:\n        /* \"#utility.yul\":3405:3429   */\n      tag_87\n        /* \"#utility.yul\":3423:3428   */\n      dup2\n        /* \"#utility.yul\":3405:3429   */\n      tag_43\n      jump\t// in\n    tag_87:\n        /* \"#utility.yul\":3400:3403   */\n      dup3\n        /* \"#utility.yul\":3393:3430   */\n      mstore\n        /* \"#utility.yul\":3318:3436   */\n      pop\n      pop\n      jump\t// out\n        /* \"#utility.yul\":3442:3774   */\n    tag_26:\n        /* \"#utility.yul\":3563:3567   */\n      0x00\n        /* \"#utility.yul\":3601:3603   */\n      0x40\n        /* \"#utility.yul\":3590:3599   */\n      dup3\n        /* \"#utility.yul\":3586:3604   */\n      add\n        /* \"#utility.yul\":3578:3604   */\n      swap1\n      pop\n        /* \"#utility.yul\":3614:3685   */\n      tag_89\n        /* \"#utility.yul\":3682:3683   */\n      0x00\n        /* \"#utility.yul\":3671:3680   */\n      dup4\n        /* \"#utility.yul\":3667:3684   */\n      add\n        /* \"#utility.yul\":3658:3664   */\n      dup6\n        /* \"#utility.yul\":3614:3685   */\n      tag_44\n      jump\t// in\n    tag_89:\n        /* \"#utility.yul\":3695:3767   */\n      tag_90\n        /* \"#utility.yul\":3763:3765   */\n      0x20\n        /* \"#utility.yul\":3752:3761   */\n      dup4\n        /* \"#utility.yul\":3748:3766   */\n      add\n        /* \"#utility.yul\":3739:3745   */\n      dup5\n        /* \"#utility.yul\":3695:3767   */\n      tag_35\n      jump\t// in\n    tag_90:\n        /* \"#utility.yul\":3442:3774   */\n      swap4\n      swap3\n      pop\n      pop\n      pop\n      jump\t// out\n        /* \"#utility.yul\":3861:3978   */\n    tag_46:\n        /* \"#utility.yul\":3970:3971   */\n      0x00\n        /* \"#utility.yul\":3967:3968   */\n      dup1\n        /* \"#utility.yul\":3960:3972   */\n      revert\n        /* \"#utility.yul\":4107:4197   */\n    tag_48:\n        /* \"#utility.yul\":4141:4148   */\n      0x00\n        /* \"#utility.yul\":4184:4189   */\n      dup2\n        /* \"#utility.yul\":4177:4190   */\n      iszero\n        /* \"#utility.yul\":4170:4191   */\n      iszero\n        /* \"#utility.yul\":4159:4191   */\n      swap1\n      pop\n        /* \"#utility.yul\":4107:4197   */\n      swap2\n      swap1\n      pop\n      jump\t// out\n        /* \"#utility.yul\":4203:4319   */\n    tag_49:\n        /* \"#utility.yul\":4273:4294   */\n      tag_96\n        /* \"#utility.yul\":4288:4293   */\n      dup2\n        /* \"#utility.yul\":4273:4294   */\n      tag_48\n      jump\t// in\n    tag_96:\n        /* \"#utility.yul\":4266:4271   */\n      dup2\n        /* \"#utility.yul\":4263:4295   */\n      eq\n        /* \"#utility.yul\":4253:4313   */\n      tag_97\n      jumpi\n        /* \"#utility.yul\":4309:4310   */\n      0x00\n        /* \"#utility.yul\":4306:4307   */\n      dup1\n        /* \"#utility.yul\":4299:4311   */\n      revert\n        /* \"#utility.yul\":4253:4313   */\n    tag_97:\n        /* \"#utility.yul\":4203:4319   */\n      pop\n      jump\t// out\n        /* \"#utility.yul\":4325:4462   */\n    tag_50:\n        /* \"#utility.yul\":4379:4384   */\n      0x00\n        /* \"#utility.yul\":4410:4416   */\n      dup2\n        /* \"#utility.yul\":4404:4417   */\n      mload\n        /* \"#utility.yul\":4395:4417   */\n      swap1\n      pop\n        /* \"#utility.yul\":4426:4456   */\n      tag_99\n        /* \"#utility.yul\":4450:4455   */\n      dup2\n        /* \"#utility.yul\":4426:4456   */\n      tag_49\n      jump\t// in\n    tag_99:\n        /* \"#utility.yul\":4325:4462   */\n      swap3\n      swap2\n      pop\n      pop\n      jump\t// out\n        /* \"#utility.yul\":4468:4813   */\n    tag_30:\n        /* \"#utility.yul\":4535:4541   */\n      0x00\n        /* \"#utility.yul\":4584:4586   */\n      0x20\n        /* \"#utility.yul\":4572:4581   */\n      dup3\n        /* \"#utility.yul\":4563:4570   */\n      dup5\n        /* \"#utility.yul\":4559:4582   */\n      sub\n        /* \"#utility.yul\":4555:4587   */\n      slt\n        /* \"#utility.yul\":4552:4671   */\n      iszero\n      tag_101\n      jumpi\n        /* \"#utility.yul\":4590:4669   */\n      tag_102\n      tag_46\n      jump\t// in\n    tag_102:\n        /* \"#utility.yul\":4552:4671   */\n    tag_101:\n        /* \"#utility.yul\":4710:4711   */\n      0x00\n        /* \"#utility.yul\":4735:4796   */\n      tag_103\n        /* \"#utility.yul\":4788:4795   */\n      dup5\n        /* \"#utility.yul\":4779:4785   */\n      dup3\n        /* \"#utility.yul\":4768:4777   */\n      dup6\n        /* \"#utility.yul\":4764:4786   */\n      add\n        /* \"#utility.yul\":4735:4796   */\n      tag_50\n      jump\t// in\n    tag_103:\n        /* \"#utility.yul\":4725:4796   */\n      swap2\n      pop\n        /* \"#utility.yul\":4681:4806   */\n      pop\n        /* \"#utility.yul\":4468:4813   */\n      swap3\n      swap2\n      pop\n      pop\n      jump\t// out\n\n    auxdata: 0xa264697066735822122014505a26a0a975fb9fc0102b239c04262fbd7ef613bc6a0955b53a9e39a36b7364736f6c634300080d0033\n}\n\nsub_1: assembly {\n        /* \"contracts/crowdsale/token.sol\":172:313  contract Token is ERC20{... */\n      mstore(0x40, 0x80)\n        /* \"contracts/crowdsale/token.sol\":204:310  constructor(uint256 initialSupply) ERC20(\"ALEX\", \"ALX\"){... */\n      callvalue\n      dup1\n      iszero\n      tag_1\n      jumpi\n      0x00\n      dup1\n      revert\n    tag_1:\n      pop\n      mload(0x40)\n      sub(codesize, bytecodeSize)\n      dup1\n      bytecodeSize\n      dup4\n      codecopy\n      dup2\n      dup2\n      add\n      0x40\n      mstore\n      dup2\n      add\n      swap1\n      tag_2\n      swap2\n      swap1\n      tag_3\n      jump\t// in\n    tag_2:\n        /* \"https://github.com/OpenZeppelin/openzeppelin-contracts/blob/master/contracts/token/ERC20/ERC20.sol\":1980:2093  constructor(string memory name_, string memory symbol_) {... */\n      mload(0x40)\n      dup1\n      0x40\n      add\n      0x40\n      mstore\n      dup1\n      0x04\n      dup2\n      mstore\n      0x20\n      add\n      0x414c455800000000000000000000000000000000000000000000000000000000\n      dup2\n      mstore\n      pop\n      mload(0x40)\n      dup1\n      0x40\n      add\n      0x40\n      mstore\n      dup1\n      0x03\n      dup2\n      mstore\n      0x20\n      add\n      0x414c580000000000000000000000000000000000000000000000000000000000\n      dup2\n      mstore\n      pop\n        /* \"https://github.com/OpenZeppelin/openzeppelin-contracts/blob/master/contracts/token/ERC20/ERC20.sol\":2054:2059  name_ */\n      dup2\n        /* \"https://github.com/OpenZeppelin/openzeppelin-contracts/blob/master/contracts/token/ERC20/ERC20.sol\":2046:2051  _name */\n      0x03\n        /* \"https://github.com/OpenZeppelin/openzeppelin-contracts/blob/master/contracts/token/ERC20/ERC20.sol\":2046:2059  _name = name_ */\n      swap1\n      dup1\n      mload\n      swap1\n      0x20\n      add\n      swap1\n      tag_7\n      swap3\n      swap2\n      swap1\n      tag_8\n      jump\t// in\n    tag_7:\n      pop\n        /* \"https://github.com/OpenZeppelin/openzeppelin-contracts/blob/master/contracts/token/ERC20/ERC20.sol\":2079:2086  symbol_ */\n      dup1\n        /* \"https://github.com/OpenZeppelin/openzeppelin-contracts/blob/master/contracts/token/ERC20/ERC20.sol\":2069:2076  _symbol */\n      0x04\n        /* \"https://github.com/OpenZeppelin/openzeppelin-contracts/blob/master/contracts/token/ERC20/ERC20.sol\":2069:2086  _symbol = symbol_ */\n      swap1\n      dup1\n      mload\n      swap1\n      0x20\n      add\n      swap1\n      tag_9\n      swap3\n      swap2\n      swap1\n      tag_8\n      jump\t// in\n    tag_9:\n      pop\n        /* \"https://github.com/OpenZeppelin/openzeppelin-contracts/blob/master/contracts/token/ERC20/ERC20.sol\":1980:2093  constructor(string memory name_, string memory symbol_) {... */\n      pop\n      pop\n        /* \"contracts/crowdsale/token.sol\":270:302  _mint(msg.sender, initialSupply) */\n      tag_11\n        /* \"contracts/crowdsale/token.sol\":276:286  msg.sender */\n      caller\n        /* \"contracts/crowdsale/token.sol\":288:301  initialSupply */\n      dup3\n        /* \"contracts/crowdsale/token.sol\":270:275  _mint */\n      shl(0x20, tag_12)\n        /* \"contracts/crowdsale/token.sol\":270:302  _mint(msg.sender, initialSupply) */\n      0x20\n      shr\n      jump\t// in\n    tag_11:\n        /* \"contracts/crowdsale/token.sol\":204:310  constructor(uint256 initialSupply) ERC20(\"ALEX\", \"ALX\"){... */\n      pop\n        /* \"contracts/crowdsale/token.sol\":172:313  contract Token is ERC20{... */\n      jump(tag_13)\n        /* \"https://github.com/OpenZeppelin/openzeppelin-contracts/blob/master/contracts/token/ERC20/ERC20.sol\":8520:9055  function _mint(address account, uint256 amount) internal virtual {... */\n    tag_12:\n        /* \"https://github.com/OpenZeppelin/openzeppelin-contracts/blob/master/contracts/token/ERC20/ERC20.sol\":8622:8623  0 */\n      0x00\n        /* \"https://github.com/OpenZeppelin/openzeppelin-contracts/blob/master/contracts/token/ERC20/ERC20.sol\":8603:8624  account != address(0) */\n      0xffffffffffffffffffffffffffffffffffffffff\n      and\n        /* \"https://github.com/OpenZeppelin/openzeppelin-contracts/blob/master/contracts/token/ERC20/ERC20.sol\":8603:8610  account */\n      dup3\n        /* \"https://github.com/OpenZeppelin/openzeppelin-contracts/blob/master/contracts/token/ERC20/ERC20.sol\":8603:8624  account != address(0) */\n      0xffffffffffffffffffffffffffffffffffffffff\n      and\n      sub\n        /* \"https://github.com/OpenZeppelin/openzeppelin-contracts/blob/master/contracts/token/ERC20/ERC20.sol\":8595:8660  require(account != address(0), \"ERC20: mint to the zero address\") */\n      tag_15\n      jumpi\n      mload(0x40)\n      0x08c379a000000000000000000000000000000000000000000000000000000000\n      dup2\n      mstore\n      0x04\n      add\n      tag_16\n      swap1\n      tag_17\n      jump\t// in\n    tag_16:\n      mload(0x40)\n      dup1\n      swap2\n      sub\n      swap1\n      revert\n    tag_15:\n        /* \"https://github.com/OpenZeppelin/openzeppelin-contracts/blob/master/contracts/token/ERC20/ERC20.sol\":8671:8720  _beforeTokenTransfer(address(0), account, amount) */\n      tag_18\n        /* \"https://github.com/OpenZeppelin/openzeppelin-contracts/blob/master/contracts/token/ERC20/ERC20.sol\":8700:8701  0 */\n      0x00\n        /* \"https://github.com/OpenZeppelin/openzeppelin-contracts/blob/master/contracts/token/ERC20/ERC20.sol\":8704:8711  account */\n      dup4\n        /* \"https://github.com/OpenZeppelin/openzeppelin-contracts/blob/master/contracts/token/ERC20/ERC20.sol\":8713:8719  amount */\n      dup4\n        /* \"https://github.com/OpenZeppelin/openzeppelin-contracts/blob/master/contracts/token/ERC20/ERC20.sol\":8671:8691  _beforeTokenTransfer */\n      shl(0x20, tag_19)\n        /* \"https://github.com/OpenZeppelin/openzeppelin-contracts/blob/master/contracts/token/ERC20/ERC20.sol\":8671:8720  _beforeTokenTransfer(address(0), account, amount) */\n      0x20\n      shr\n      jump\t// in\n    tag_18:\n        /* \"https://github.com/OpenZeppelin/openzeppelin-contracts/blob/master/contracts/token/ERC20/ERC20.sol\":8747:8753  amount */\n      dup1\n        /* \"https://github.com/OpenZeppelin/openzeppelin-contracts/blob/master/contracts/token/ERC20/ERC20.sol\":8731:8743  _totalSupply */\n      0x02\n      0x00\n        /* \"https://github.com/OpenZeppelin/openzeppelin-contracts/blob/master/contracts/token/ERC20/ERC20.sol\":8731:8753  _totalSupply += amount */\n      dup3\n      dup3\n      sload\n      tag_20\n      swap2\n      swap1\n      tag_21\n      jump\t// in\n    tag_20:\n      swap3\n      pop\n      pop\n      dup2\n      swap1\n      sstore\n      pop\n        /* \"https://github.com/OpenZeppelin/openzeppelin-contracts/blob/master/contracts/token/ERC20/ERC20.sol\":8921:8927  amount */\n      dup1\n        /* \"https://github.com/OpenZeppelin/openzeppelin-contracts/blob/master/contracts/token/ERC20/ERC20.sol\":8899:8908  _balances */\n      0x00\n        /* \"https://github.com/OpenZeppelin/openzeppelin-contracts/blob/master/contracts/token/ERC20/ERC20.sol\":8899:8917  _balances[account] */\n      dup1\n        /* \"https://github.com/OpenZeppelin/openzeppelin-contracts/blob/master/contracts/token/ERC20/ERC20.sol\":8909:8916  account */\n      dup5\n        /* \"https://github.com/OpenZeppelin/openzeppelin-contracts/blob/master/contracts/token/ERC20/ERC20.sol\":8899:8917  _balances[account] */\n      0xffffffffffffffffffffffffffffffffffffffff\n      and\n      0xffffffffffffffffffffffffffffffffffffffff\n      and\n      dup2\n      mstore\n      0x20\n      add\n      swap1\n      dup2\n      mstore\n      0x20\n      add\n      0x00\n      keccak256\n      0x00\n        /* \"https://github.com/OpenZeppelin/openzeppelin-contracts/blob/master/contracts/token/ERC20/ERC20.sol\":8899:8927  _balances[account] += amount */\n      dup3\n      dup3\n      sload\n      add\n      swap3\n      pop\n      pop\n      dup2\n      swap1\n      sstore\n      pop\n        /* \"https://github.com/OpenZeppelin/openzeppelin-contracts/blob/master/contracts/token/ERC20/ERC20.sol\":8973:8980  account */\n      dup2\n        /* \"https://github.com/OpenZeppelin/openzeppelin-contracts/blob/master/contracts/token/ERC20/ERC20.sol\":8952:8989  Transfer(address(0), account, amount) */\n      0xffffffffffffffffffffffffffffffffffffffff\n      and\n        /* \"https://github.com/OpenZeppelin/openzeppelin-contracts/blob/master/contracts/token/ERC20/ERC20.sol\":8969:8970  0 */\n      0x00\n        /* \"https://github.com/OpenZeppelin/openzeppelin-contracts/blob/master/contracts/token/ERC20/ERC20.sol\":8952:8989  Transfer(address(0), account, amount) */\n      0xffffffffffffffffffffffffffffffffffffffff\n      and\n      0xddf252ad1be2c89b69c2b068fc378daa952ba7f163c4a11628f55a4df523b3ef\n        /* \"https://github.com/OpenZeppelin/openzeppelin-contracts/blob/master/contracts/token/ERC20/ERC20.sol\":8982:8988  amount */\n      dup4\n        /* \"https://github.com/OpenZeppelin/openzeppelin-contracts/blob/master/contracts/token/ERC20/ERC20.sol\":8952:8989  Transfer(address(0), account, amount) */\n      mload(0x40)\n      tag_22\n      swap2\n      swap1\n      tag_23\n      jump\t// in\n    tag_22:\n      mload(0x40)\n      dup1\n      swap2\n      sub\n      swap1\n      log3\n        /* \"https://github.com/OpenZeppelin/openzeppelin-contracts/blob/master/contracts/token/ERC20/ERC20.sol\":9000:9048  _afterTokenTransfer(address(0), account, amount) */\n      tag_24\n        /* \"https://github.com/OpenZeppelin/openzeppelin-contracts/blob/master/contracts/token/ERC20/ERC20.sol\":9028:9029  0 */\n      0x00\n        /* \"https://github.com/OpenZeppelin/openzeppelin-contracts/blob/master/contracts/token/ERC20/ERC20.sol\":9032:9039  account */\n      dup4\n        /* \"https://github.com/OpenZeppelin/openzeppelin-contracts/blob/master/contracts/token/ERC20/ERC20.sol\":9041:9047  amount */\n      dup4\n        /* \"https://github.com/OpenZeppelin/openzeppelin-contracts/blob/master/contracts/token/ERC20/ERC20.sol\":9000:9019  _afterTokenTransfer */\n      shl(0x20, tag_25)\n        /* \"https://github.com/OpenZeppelin/openzeppelin-contracts/blob/master/contracts/token/ERC20/ERC20.sol\":9000:9048  _afterTokenTransfer(address(0), account, amount) */\n      0x20\n      shr\n      jump\t// in\n    tag_24:\n        /* \"https://github.com/OpenZeppelin/openzeppelin-contracts/blob/master/contracts/token/ERC20/ERC20.sol\":8520:9055  function _mint(address account, uint256 amount) internal virtual {... */\n      pop\n      pop\n      jump\t// out\n        /* \"https://github.com/OpenZeppelin/openzeppelin-contracts/blob/master/contracts/token/ERC20/ERC20.sol\":12073:12164  function _beforeTokenTransfer(address from, address to, uint256 amount) internal virtual {} */\n    tag_19:\n      pop\n      pop\n      pop\n      jump\t// out\n        /* \"https://github.com/OpenZeppelin/openzeppelin-contracts/blob/master/contracts/token/ERC20/ERC20.sol\":12752:12842  function _afterTokenTransfer(address from, address to, uint256 amount) internal virtual {} */\n    tag_25:\n      pop\n      pop\n      pop\n      jump\t// out\n        /* \"contracts/crowdsale/token.sol\":172:313  contract Token is ERC20{... */\n    tag_8:\n      dup3\n      dup1\n      sload\n      tag_28\n      swap1\n      tag_29\n      jump\t// in\n    tag_28:\n      swap1\n      0x00\n      mstore\n      keccak256(0x00, 0x20)\n      swap1\n      0x1f\n      add\n      0x20\n      swap1\n      div\n      dup2\n      add\n      swap3\n      dup3\n      tag_31\n      jumpi\n      0x00\n      dup6\n      sstore\n      jump(tag_30)\n    tag_31:\n      dup3\n      0x1f\n      lt\n      tag_32\n      jumpi\n      dup1\n      mload\n      not(0xff)\n      and\n      dup4\n      dup1\n      add\n      or\n      dup6\n      sstore\n      jump(tag_30)\n    tag_32:\n      dup3\n      dup1\n      add\n      0x01\n      add\n      dup6\n      sstore\n      dup3\n      iszero\n      tag_30\n      jumpi\n      swap2\n      dup3\n      add\n    tag_33:\n      dup3\n      dup2\n      gt\n      iszero\n      tag_34\n      jumpi\n      dup3\n      mload\n      dup3\n      sstore\n      swap2\n      0x20\n      add\n      swap2\n      swap1\n      0x01\n      add\n      swap1\n      jump(tag_33)\n    tag_34:\n    tag_30:\n      pop\n      swap1\n      pop\n      tag_35\n      swap2\n      swap1\n      tag_36\n      jump\t// in\n    tag_35:\n      pop\n      swap1\n      jump\t// out\n    tag_36:\n    tag_37:\n      dup1\n      dup3\n      gt\n      iszero\n      tag_38\n      jumpi\n      0x00\n      dup2\n      0x00\n      swap1\n      sstore\n      pop\n      0x01\n      add\n      jump(tag_37)\n    tag_38:\n      pop\n      swap1\n      jump\t// out\n        /* \"#utility.yul\":88:205   */\n    tag_40:\n        /* \"#utility.yul\":197:198   */\n      0x00\n        /* \"#utility.yul\":194:195   */\n      dup1\n        /* \"#utility.yul\":187:199   */\n      revert\n        /* \"#utility.yul\":334:411   */\n    tag_42:\n        /* \"#utility.yul\":371:378   */\n      0x00\n        /* \"#utility.yul\":400:405   */\n      dup2\n        /* \"#utility.yul\":389:405   */\n      swap1\n      pop\n        /* \"#utility.yul\":334:411   */\n      swap2\n      swap1\n      pop\n      jump\t// out\n        /* \"#utility.yul\":417:539   */\n    tag_43:\n        /* \"#utility.yul\":490:514   */\n      tag_57\n        /* \"#utility.yul\":508:513   */\n      dup2\n        /* \"#utility.yul\":490:514   */\n      tag_42\n      jump\t// in\n    tag_57:\n        /* \"#utility.yul\":483:488   */\n      dup2\n        /* \"#utility.yul\":480:515   */\n      eq\n        /* \"#utility.yul\":470:533   */\n      tag_58\n      jumpi\n        /* \"#utility.yul\":529:530   */\n      0x00\n        /* \"#utility.yul\":526:527   */\n      dup1\n        /* \"#utility.yul\":519:531   */\n      revert\n        /* \"#utility.yul\":470:533   */\n    tag_58:\n        /* \"#utility.yul\":417:539   */\n      pop\n      jump\t// out\n        /* \"#utility.yul\":545:688   */\n    tag_44:\n        /* \"#utility.yul\":602:607   */\n      0x00\n        /* \"#utility.yul\":633:639   */\n      dup2\n        /* \"#utility.yul\":627:640   */\n      mload\n        /* \"#utility.yul\":618:640   */\n      swap1\n      pop\n        /* \"#utility.yul\":649:682   */\n      tag_60\n        /* \"#utility.yul\":676:681   */\n      dup2\n        /* \"#utility.yul\":649:682   */\n      tag_43\n      jump\t// in\n    tag_60:\n        /* \"#utility.yul\":545:688   */\n      swap3\n      swap2\n      pop\n      pop\n      jump\t// out\n        /* \"#utility.yul\":694:1045   */\n    tag_3:\n        /* \"#utility.yul\":764:770   */\n      0x00\n        /* \"#utility.yul\":813:815   */\n      0x20\n        /* \"#utility.yul\":801:810   */\n      dup3\n        /* \"#utility.yul\":792:799   */\n      dup5\n        /* \"#utility.yul\":788:811   */\n      sub\n        /* \"#utility.yul\":784:816   */\n      slt\n        /* \"#utility.yul\":781:900   */\n      iszero\n      tag_62\n      jumpi\n        /* \"#utility.yul\":819:898   */\n      tag_63\n      tag_40\n      jump\t// in\n    tag_63:\n        /* \"#utility.yul\":781:900   */\n    tag_62:\n        /* \"#utility.yul\":939:940   */\n      0x00\n        /* \"#utility.yul\":964:1028   */\n      tag_64\n        /* \"#utility.yul\":1020:1027   */\n      dup5\n        /* \"#utility.yul\":1011:1017   */\n      dup3\n        /* \"#utility.yul\":1000:1009   */\n      dup6\n        /* \"#utility.yul\":996:1018   */\n      add\n        /* \"#utility.yul\":964:1028   */\n      tag_44\n      jump\t// in\n    tag_64:\n        /* \"#utility.yul\":954:1028   */\n      swap2\n      pop\n        /* \"#utility.yul\":910:1038   */\n      pop\n        /* \"#utility.yul\":694:1045   */\n      swap3\n      swap2\n      pop\n      pop\n      jump\t// out\n        /* \"#utility.yul\":1051:1220   */\n    tag_45:\n        /* \"#utility.yul\":1135:1146   */\n      0x00\n        /* \"#utility.yul\":1169:1175   */\n      dup3\n        /* \"#utility.yul\":1164:1167   */\n      dup3\n        /* \"#utility.yul\":1157:1176   */\n      mstore\n        /* \"#utility.yul\":1209:1213   */\n      0x20\n        /* \"#utility.yul\":1204:1207   */\n      dup3\n        /* \"#utility.yul\":1200:1214   */\n      add\n        /* \"#utility.yul\":1185:1214   */\n      swap1\n      pop\n        /* \"#utility.yul\":1051:1220   */\n      swap3\n      swap2\n      pop\n      pop\n      jump\t// out\n        /* \"#utility.yul\":1226:1407   */\n    tag_46:\n        /* \"#utility.yul\":1366:1399   */\n      0x45524332303a206d696e7420746f20746865207a65726f206164647265737300\n        /* \"#utility.yul\":1362:1363   */\n      0x00\n        /* \"#utility.yul\":1354:1360   */\n      dup3\n        /* \"#utility.yul\":1350:1364   */\n      add\n        /* \"#utility.yul\":1343:1400   */\n      mstore\n        /* \"#utility.yul\":1226:1407   */\n      pop\n      jump\t// out\n        /* \"#utility.yul\":1413:1779   */\n    tag_47:\n        /* \"#utility.yul\":1555:1558   */\n      0x00\n        /* \"#utility.yul\":1576:1643   */\n      tag_68\n        /* \"#utility.yul\":1640:1642   */\n      0x1f\n        /* \"#utility.yul\":1635:1638   */\n      dup4\n        /* \"#utility.yul\":1576:1643   */\n      tag_45\n      jump\t// in\n    tag_68:\n        /* \"#utility.yul\":1569:1643   */\n      swap2\n      pop\n        /* \"#utility.yul\":1652:1745   */\n      tag_69\n        /* \"#utility.yul\":1741:1744   */\n      dup3\n        /* \"#utility.yul\":1652:1745   */\n      tag_46\n      jump\t// in\n    tag_69:\n        /* \"#utility.yul\":1770:1772   */\n      0x20\n        /* \"#utility.yul\":1765:1768   */\n      dup3\n        /* \"#utility.yul\":1761:1773   */\n      add\n        /* \"#utility.yul\":1754:1773   */\n      swap1\n      pop\n        /* \"#utility.yul\":1413:1779   */\n      swap2\n      swap1\n      pop\n      jump\t// out\n        /* \"#utility.yul\":1785:2204   */\n    tag_17:\n        /* \"#utility.yul\":1951:1955   */\n      0x00\n        /* \"#utility.yul\":1989:1991   */\n      0x20\n        /* \"#utility.yul\":1978:1987   */\n      dup3\n        /* \"#utility.yul\":1974:1992   */\n      add\n        /* \"#utility.yul\":1966:1992   */\n      swap1\n      pop\n        /* \"#utility.yul\":2038:2047   */\n      dup2\n        /* \"#utility.yul\":2032:2036   */\n      dup2\n        /* \"#utility.yul\":2028:2048   */\n      sub\n        /* \"#utility.yul\":2024:2025   */\n      0x00\n        /* \"#utility.yul\":2013:2022   */\n      dup4\n        /* \"#utility.yul\":2009:2026   */\n      add\n        /* \"#utility.yul\":2002:2049   */\n      mstore\n        /* \"#utility.yul\":2066:2197   */\n      tag_71\n        /* \"#utility.yul\":2192:2196   */\n      dup2\n        /* \"#utility.yul\":2066:2197   */\n      tag_47\n      jump\t// in\n    tag_71:\n        /* \"#utility.yul\":2058:2197   */\n      swap1\n      pop\n        /* \"#utility.yul\":1785:2204   */\n      swap2\n      swap1\n      pop\n      jump\t// out\n        /* \"#utility.yul\":2210:2390   */\n    tag_48:\n        /* \"#utility.yul\":2258:2335   */\n      0x4e487b7100000000000000000000000000000000000000000000000000000000\n        /* \"#utility.yul\":2255:2256   */\n      0x00\n        /* \"#utility.yul\":2248:2336   */\n      mstore\n        /* \"#utility.yul\":2355:2359   */\n      0x11\n        /* \"#utility.yul\":2352:2353   */\n      0x04\n        /* \"#utility.yul\":2345:2360   */\n      mstore\n        /* \"#utility.yul\":2379:2383   */\n      0x24\n        /* \"#utility.yul\":2376:2377   */\n      0x00\n        /* \"#utility.yul\":2369:2384   */\n      revert\n        /* \"#utility.yul\":2396:2701   */\n    tag_21:\n        /* \"#utility.yul\":2436:2439   */\n      0x00\n        /* \"#utility.yul\":2455:2475   */\n      tag_74\n        /* \"#utility.yul\":2473:2474   */\n      dup3\n        /* \"#utility.yul\":2455:2475   */\n      tag_42\n      jump\t// in\n    tag_74:\n        /* \"#utility.yul\":2450:2475   */\n      swap2\n      pop\n        /* \"#utility.yul\":2489:2509   */\n      tag_75\n        /* \"#utility.yul\":2507:2508   */\n      dup4\n        /* \"#utility.yul\":2489:2509   */\n      tag_42\n      jump\t// in\n    tag_75:\n        /* \"#utility.yul\":2484:2509   */\n      swap3\n      pop\n        /* \"#utility.yul\":2643:2644   */\n      dup3\n        /* \"#utility.yul\":2575:2641   */\n      0xffffffffffffffffffffffffffffffffffffffffffffffffffffffffffffffff\n        /* \"#utility.yul\":2571:2645   */\n      sub\n        /* \"#utility.yul\":2568:2569   */\n      dup3\n        /* \"#utility.yul\":2565:2646   */\n      gt\n        /* \"#utility.yul\":2562:2669   */\n      iszero\n      tag_76\n      jumpi\n        /* \"#utility.yul\":2649:2667   */\n      tag_77\n      tag_48\n      jump\t// in\n    tag_77:\n        /* \"#utility.yul\":2562:2669   */\n    tag_76:\n        /* \"#utility.yul\":2693:2694   */\n      dup3\n        /* \"#utility.yul\":2690:2691   */\n      dup3\n        /* \"#utility.yul\":2686:2695   */\n      add\n        /* \"#utility.yul\":2679:2695   */\n      swap1\n      pop\n        /* \"#utility.yul\":2396:2701   */\n      swap3\n      swap2\n      pop\n      pop\n      jump\t// out\n        /* \"#utility.yul\":2707:2825   */\n    tag_49:\n        /* \"#utility.yul\":2794:2818   */\n      tag_79\n        /* \"#utility.yul\":2812:2817   */\n      dup2\n        /* \"#utility.yul\":2794:2818   */\n      tag_42\n      jump\t// in\n    tag_79:\n        /* \"#utility.yul\":2789:2792   */\n      dup3\n        /* \"#utility.yul\":2782:2819   */\n      mstore\n        /* \"#utility.yul\":2707:2825   */\n      pop\n      pop\n      jump\t// out\n        /* \"#utility.yul\":2831:3053   */\n    tag_23:\n        /* \"#utility.yul\":2924:2928   */\n      0x00\n        /* \"#utility.yul\":2962:2964   */\n      0x20\n        /* \"#utility.yul\":2951:2960   */\n      dup3\n        /* \"#utility.yul\":2947:2965   */\n      add\n        /* \"#utility.yul\":2939:2965   */\n      swap1\n      pop\n        /* \"#utility.yul\":2975:3046   */\n      tag_81\n        /* \"#utility.yul\":3043:3044   */\n      0x00\n        /* \"#utility.yul\":3032:3041   */\n      dup4\n        /* \"#utility.yul\":3028:3045   */\n      add\n        /* \"#utility.yul\":3019:3025   */\n      dup5\n        /* \"#utility.yul\":2975:3046   */\n      tag_49\n      jump\t// in\n    tag_81:\n        /* \"#utility.yul\":2831:3053   */\n      swap3\n      swap2\n      pop\n      pop\n      jump\t// out\n        /* \"#utility.yul\":3059:3239   */\n    tag_50:\n        /* \"#utility.yul\":3107:3184   */\n      0x4e487b7100000000000000000000000000000000000000000000000000000000\n        /* \"#utility.yul\":3104:3105   */\n      0x00\n        /* \"#utility.yul\":3097:3185   */\n      mstore\n        /* \"#utility.yul\":3204:3208   */\n      0x22\n        /* \"#utility.yul\":3201:3202   */\n      0x04\n        /* \"#utility.yul\":3194:3209   */\n      mstore\n        /* \"#utility.yul\":3228:3232   */\n      0x24\n        /* \"#utility.yul\":3225:3226   */\n      0x00\n        /* \"#utility.yul\":3218:3233   */\n      revert\n        /* \"#utility.yul\":3245:3565   */\n    tag_29:\n        /* \"#utility.yul\":3289:3295   */\n      0x00\n        /* \"#utility.yul\":3326:3327   */\n      0x02\n        /* \"#utility.yul\":3320:3324   */\n      dup3\n        /* \"#utility.yul\":3316:3328   */\n      div\n        /* \"#utility.yul\":3306:3328   */\n      swap1\n      pop\n        /* \"#utility.yul\":3373:3374   */\n      0x01\n        /* \"#utility.yul\":3367:3371   */\n      dup3\n        /* \"#utility.yul\":3363:3375   */\n      and\n        /* \"#utility.yul\":3394:3412   */\n      dup1\n        /* \"#utility.yul\":3384:3465   */\n      tag_84\n      jumpi\n        /* \"#utility.yul\":3450:3454   */\n      0x7f\n        /* \"#utility.yul\":3442:3448   */\n      dup3\n        /* \"#utility.yul\":3438:3455   */\n      and\n        /* \"#utility.yul\":3428:3455   */\n      swap2\n      pop\n        /* \"#utility.yul\":3384:3465   */\n    tag_84:\n        /* \"#utility.yul\":3512:3514   */\n      0x20\n        /* \"#utility.yul\":3504:3510   */\n      dup3\n        /* \"#utility.yul\":3501:3515   */\n      lt\n        /* \"#utility.yul\":3481:3499   */\n      dup2\n        /* \"#utility.yul\":3478:3516   */\n      sub\n        /* \"#utility.yul\":3475:3559   */\n      tag_85\n      jumpi\n        /* \"#utility.yul\":3531:3549   */\n      tag_86\n      tag_50\n      jump\t// in\n    tag_86:\n        /* \"#utility.yul\":3475:3559   */\n    tag_85:\n        /* \"#utility.yul\":3296:3565   */\n      pop\n        /* \"#utility.yul\":3245:3565   */\n      swap2\n      swap1\n      pop\n      jump\t// out\n        /* \"contracts/crowdsale/token.sol\":172:313  contract Token is ERC20{... */\n    tag_13:\n      dataSize(sub_0)\n      dup1\n      dataOffset(sub_0)\n      0x00\n      codecopy\n      0x00\n      return\n    stop\n\n    sub_0: assembly {\n            /* \"contracts/crowdsale/token.sol\":172:313  contract Token is ERC20{... */\n          mstore(0x40, 0x80)\n          callvalue\n          dup1\n          iszero\n          tag_1\n          jumpi\n          0x00\n          dup1\n          revert\n        tag_1:\n          pop\n          jumpi(tag_2, lt(calldatasize, 0x04))\n          shr(0xe0, calldataload(0x00))\n          dup1\n          0x39509351\n          gt\n          tag_14\n          jumpi\n          dup1\n          0x39509351\n          eq\n          tag_8\n          jumpi\n          dup1\n          0x70a08231\n          eq\n          tag_9\n          jumpi\n          dup1\n          0x95d89b41\n          eq\n          tag_10\n          jumpi\n          dup1\n          0xa457c2d7\n          eq\n          tag_11\n          jumpi\n          dup1\n          0xa9059cbb\n          eq\n          tag_12\n          jumpi\n          dup1\n          0xdd62ed3e\n          eq\n          tag_13\n          jumpi\n          jump(tag_2)\n        tag_14:\n          dup1\n          0x06fdde03\n          eq\n          tag_3\n          jumpi\n          dup1\n          0x095ea7b3\n          eq\n          tag_4\n          jumpi\n          dup1\n          0x18160ddd\n          eq\n          tag_5\n          jumpi\n          dup1\n          0x23b872dd\n          eq\n          tag_6\n          jumpi\n          dup1\n          0x313ce567\n          eq\n          tag_7\n          jumpi\n        tag_2:\n          0x00\n          dup1\n          revert\n            /* \"https://github.com/OpenZeppelin/openzeppelin-contracts/blob/master/contracts/token/ERC20/ERC20.sol\":2158:2256  function name() public view virtual override returns (string memory) {... */\n        tag_3:\n          tag_15\n          tag_16\n          jump\t// in\n        tag_15:\n          mload(0x40)\n          tag_17\n          swap2\n          swap1\n          tag_18\n          jump\t// in\n        tag_17:\n          mload(0x40)\n          dup1\n          swap2\n          sub\n          swap1\n          return\n            /* \"https://github.com/OpenZeppelin/openzeppelin-contracts/blob/master/contracts/token/ERC20/ERC20.sol\":4444:4641  function approve(address spender, uint256 amount) public virtual override returns (bool) {... */\n        tag_4:\n          tag_19\n          0x04\n          dup1\n          calldatasize\n          sub\n          dup2\n          add\n          swap1\n          tag_20\n          swap2\n          swap1\n          tag_21\n          jump\t// in\n        tag_20:\n          tag_22\n          jump\t// in\n        tag_19:\n          mload(0x40)\n          tag_23\n          swap2\n          swap1\n          tag_24\n          jump\t// in\n        tag_23:\n          mload(0x40)\n          dup1\n          swap2\n          sub\n          swap1\n          return\n            /* \"https://github.com/OpenZeppelin/openzeppelin-contracts/blob/master/contracts/token/ERC20/ERC20.sol\":3255:3361  function totalSupply() public view virtual override returns (uint256) {... */\n        tag_5:\n          tag_25\n          tag_26\n          jump\t// in\n        tag_25:\n          mload(0x40)\n          tag_27\n          swap2\n          swap1\n          tag_28\n          jump\t// in\n        tag_27:\n          mload(0x40)\n          dup1\n          swap2\n          sub\n          swap1\n          return\n            /* \"https://github.com/OpenZeppelin/openzeppelin-contracts/blob/master/contracts/token/ERC20/ERC20.sol\":5203:5459  function transferFrom(address from, address to, uint256 amount) public virtual override returns (bool) {... */\n        tag_6:\n          tag_29\n          0x04\n          dup1\n          calldatasize\n          sub\n          dup2\n          add\n          swap1\n          tag_30\n          swap2\n          swap1\n          tag_31\n          jump\t// in\n        tag_30:\n          tag_32\n          jump\t// in\n        tag_29:\n          mload(0x40)\n          tag_33\n          swap2\n          swap1\n          tag_24\n          jump\t// in\n        tag_33:\n          mload(0x40)\n          dup1\n          swap2\n          sub\n          swap1\n          return\n            /* \"https://github.com/OpenZeppelin/openzeppelin-contracts/blob/master/contracts/token/ERC20/ERC20.sol\":3104:3195  function decimals() public view virtual override returns (uint8) {... */\n        tag_7:\n          tag_34\n          tag_35\n          jump\t// in\n        tag_34:\n          mload(0x40)\n          tag_36\n          swap2\n          swap1\n          tag_37\n          jump\t// in\n        tag_36:\n          mload(0x40)\n          dup1\n          swap2\n          sub\n          swap1\n          return\n            /* \"https://github.com/OpenZeppelin/openzeppelin-contracts/blob/master/contracts/token/ERC20/ERC20.sol\":5854:6088  function increaseAllowance(address spender, uint256 addedValue) public virtual returns (bool) {... */\n        tag_8:\n          tag_38\n          0x04\n          dup1\n          calldatasize\n          sub\n          dup2\n          add\n          swap1\n          tag_39\n          swap2\n          swap1\n          tag_21\n          jump\t// in\n        tag_39:\n          tag_40\n          jump\t// in\n        tag_38:\n          mload(0x40)\n          tag_41\n          swap2\n          swap1\n          tag_24\n          jump\t// in\n        tag_41:\n          mload(0x40)\n          dup1\n          swap2\n          sub\n          swap1\n          return\n            /* \"https://github.com/OpenZeppelin/openzeppelin-contracts/blob/master/contracts/token/ERC20/ERC20.sol\":3419:3544  function balanceOf(address account) public view virtual override returns (uint256) {... */\n        tag_9:\n          tag_42\n          0x04\n          dup1\n          calldatasize\n          sub\n          dup2\n          add\n          swap1\n          tag_43\n          swap2\n          swap1\n          tag_44\n          jump\t// in\n        tag_43:\n          tag_45\n          jump\t// in\n        tag_42:\n          mload(0x40)\n          tag_46\n          swap2\n          swap1\n          tag_28\n          jump\t// in\n        tag_46:\n          mload(0x40)\n          dup1\n          swap2\n          sub\n          swap1\n          return\n            /* \"https://github.com/OpenZeppelin/openzeppelin-contracts/blob/master/contracts/token/ERC20/ERC20.sol\":2369:2471  function symbol() public view virtual override returns (string memory) {... */\n        tag_10:\n          tag_47\n          tag_48\n          jump\t// in\n        tag_47:\n          mload(0x40)\n          tag_49\n          swap2\n          swap1\n          tag_18\n          jump\t// in\n        tag_49:\n          mload(0x40)\n          dup1\n          swap2\n          sub\n          swap1\n          return\n            /* \"https://github.com/OpenZeppelin/openzeppelin-contracts/blob/master/contracts/token/ERC20/ERC20.sol\":6575:7002  function decreaseAllowance(address spender, uint256 subtractedValue) public virtual returns (bool) {... */\n        tag_11:\n          tag_50\n          0x04\n          dup1\n          calldatasize\n          sub\n          dup2\n          add\n          swap1\n          tag_51\n          swap2\n          swap1\n          tag_21\n          jump\t// in\n        tag_51:\n          tag_52\n          jump\t// in\n        tag_50:\n          mload(0x40)\n          tag_53\n          swap2\n          swap1\n          tag_24\n          jump\t// in\n        tag_53:\n          mload(0x40)\n          dup1\n          swap2\n          sub\n          swap1\n          return\n            /* \"https://github.com/OpenZeppelin/openzeppelin-contracts/blob/master/contracts/token/ERC20/ERC20.sol\":3740:3929  function transfer(address to, uint256 amount) public virtual override returns (bool) {... */\n        tag_12:\n          tag_54\n          0x04\n          dup1\n          calldatasize\n          sub\n          dup2\n          add\n          swap1\n          tag_55\n          swap2\n          swap1\n          tag_21\n          jump\t// in\n        tag_55:\n          tag_56\n          jump\t// in\n        tag_54:\n          mload(0x40)\n          tag_57\n          swap2\n          swap1\n          tag_24\n          jump\t// in\n        tag_57:\n          mload(0x40)\n          dup1\n          swap2\n          sub\n          swap1\n          return\n            /* \"https://github.com/OpenZeppelin/openzeppelin-contracts/blob/master/contracts/token/ERC20/ERC20.sol\":3987:4136  function allowance(address owner, address spender) public view virtual override returns (uint256) {... */\n        tag_13:\n          tag_58\n          0x04\n          dup1\n          calldatasize\n          sub\n          dup2\n          add\n          swap1\n          tag_59\n          swap2\n          swap1\n          tag_60\n          jump\t// in\n        tag_59:\n          tag_61\n          jump\t// in\n        tag_58:\n          mload(0x40)\n          tag_62\n          swap2\n          swap1\n          tag_28\n          jump\t// in\n        tag_62:\n          mload(0x40)\n          dup1\n          swap2\n          sub\n          swap1\n          return\n            /* \"https://github.com/OpenZeppelin/openzeppelin-contracts/blob/master/contracts/token/ERC20/ERC20.sol\":2158:2256  function name() public view virtual override returns (string memory) {... */\n        tag_16:\n            /* \"https://github.com/OpenZeppelin/openzeppelin-contracts/blob/master/contracts/token/ERC20/ERC20.sol\":2212:2225  string memory */\n          0x60\n            /* \"https://github.com/OpenZeppelin/openzeppelin-contracts/blob/master/contracts/token/ERC20/ERC20.sol\":2244:2249  _name */\n          0x03\n            /* \"https://github.com/OpenZeppelin/openzeppelin-contracts/blob/master/contracts/token/ERC20/ERC20.sol\":2237:2249  return _name */\n          dup1\n          sload\n          tag_64\n          swap1\n          tag_65\n          jump\t// in\n        tag_64:\n          dup1\n          0x1f\n          add\n          0x20\n          dup1\n          swap2\n          div\n          mul\n          0x20\n          add\n          mload(0x40)\n          swap1\n          dup2\n          add\n          0x40\n          mstore\n          dup1\n          swap3\n          swap2\n          swap1\n          dup2\n          dup2\n          mstore\n          0x20\n          add\n          dup3\n          dup1\n          sload\n          tag_66\n          swap1\n          tag_65\n          jump\t// in\n        tag_66:\n          dup1\n          iszero\n          tag_67\n          jumpi\n          dup1\n          0x1f\n          lt\n          tag_68\n          jumpi\n          0x0100\n          dup1\n          dup4\n          sload\n          div\n          mul\n          dup4\n          mstore\n          swap2\n          0x20\n          add\n          swap2\n          jump(tag_67)\n        tag_68:\n          dup3\n          add\n          swap2\n          swap1\n          0x00\n          mstore\n          keccak256(0x00, 0x20)\n          swap1\n        tag_69:\n          dup2\n          sload\n          dup2\n          mstore\n          swap1\n          0x01\n          add\n          swap1\n          0x20\n          add\n          dup1\n          dup4\n          gt\n          tag_69\n          jumpi\n          dup3\n          swap1\n          sub\n          0x1f\n          and\n          dup3\n          add\n          swap2\n        tag_67:\n          pop\n          pop\n          pop\n          pop\n          pop\n          swap1\n          pop\n            /* \"https://github.com/OpenZeppelin/openzeppelin-contracts/blob/master/contracts/token/ERC20/ERC20.sol\":2158:2256  function name() public view virtual override returns (string memory) {... */\n          swap1\n          jump\t// out\n            /* \"https://github.com/OpenZeppelin/openzeppelin-contracts/blob/master/contracts/token/ERC20/ERC20.sol\":4444:4641  function approve(address spender, uint256 amount) public virtual override returns (bool) {... */\n        tag_22:\n            /* \"https://github.com/OpenZeppelin/openzeppelin-contracts/blob/master/contracts/token/ERC20/ERC20.sol\":4527:4531  bool */\n          0x00\n            /* \"https://github.com/OpenZeppelin/openzeppelin-contracts/blob/master/contracts/token/ERC20/ERC20.sol\":4543:4556  address owner */\n          dup1\n            /* \"https://github.com/OpenZeppelin/openzeppelin-contracts/blob/master/contracts/token/ERC20/ERC20.sol\":4559:4571  _msgSender() */\n          tag_71\n            /* \"https://github.com/OpenZeppelin/openzeppelin-contracts/blob/master/contracts/token/ERC20/ERC20.sol\":4559:4569  _msgSender */\n          tag_72\n            /* \"https://github.com/OpenZeppelin/openzeppelin-contracts/blob/master/contracts/token/ERC20/ERC20.sol\":4559:4571  _msgSender() */\n          jump\t// in\n        tag_71:\n            /* \"https://github.com/OpenZeppelin/openzeppelin-contracts/blob/master/contracts/token/ERC20/ERC20.sol\":4543:4571  address owner = _msgSender() */\n          swap1\n          pop\n            /* \"https://github.com/OpenZeppelin/openzeppelin-contracts/blob/master/contracts/token/ERC20/ERC20.sol\":4581:4613  _approve(owner, spender, amount) */\n          tag_73\n            /* \"https://github.com/OpenZeppelin/openzeppelin-contracts/blob/master/contracts/token/ERC20/ERC20.sol\":4590:4595  owner */\n          dup2\n            /* \"https://github.com/OpenZeppelin/openzeppelin-contracts/blob/master/contracts/token/ERC20/ERC20.sol\":4597:4604  spender */\n          dup6\n            /* \"https://github.com/OpenZeppelin/openzeppelin-contracts/blob/master/contracts/token/ERC20/ERC20.sol\":4606:4612  amount */\n          dup6\n            /* \"https://github.com/OpenZeppelin/openzeppelin-contracts/blob/master/contracts/token/ERC20/ERC20.sol\":4581:4589  _approve */\n          tag_74\n            /* \"https://github.com/OpenZeppelin/openzeppelin-contracts/blob/master/contracts/token/ERC20/ERC20.sol\":4581:4613  _approve(owner, spender, amount) */\n          jump\t// in\n        tag_73:\n            /* \"https://github.com/OpenZeppelin/openzeppelin-contracts/blob/master/contracts/token/ERC20/ERC20.sol\":4630:4634  true */\n          0x01\n            /* \"https://github.com/OpenZeppelin/openzeppelin-contracts/blob/master/contracts/token/ERC20/ERC20.sol\":4623:4634  return true */\n          swap2\n          pop\n          pop\n            /* \"https://github.com/OpenZeppelin/openzeppelin-contracts/blob/master/contracts/token/ERC20/ERC20.sol\":4444:4641  function approve(address spender, uint256 amount) public virtual override returns (bool) {... */\n          swap3\n          swap2\n          pop\n          pop\n          jump\t// out\n            /* \"https://github.com/OpenZeppelin/openzeppelin-contracts/blob/master/contracts/token/ERC20/ERC20.sol\":3255:3361  function totalSupply() public view virtual override returns (uint256) {... */\n        tag_26:\n            /* \"https://github.com/OpenZeppelin/openzeppelin-contracts/blob/master/contracts/token/ERC20/ERC20.sol\":3316:3323  uint256 */\n          0x00\n            /* \"https://github.com/OpenZeppelin/openzeppelin-contracts/blob/master/contracts/token/ERC20/ERC20.sol\":3342:3354  _totalSupply */\n          sload(0x02)\n            /* \"https://github.com/OpenZeppelin/openzeppelin-contracts/blob/master/contracts/token/ERC20/ERC20.sol\":3335:3354  return _totalSupply */\n          swap1\n          pop\n            /* \"https://github.com/OpenZeppelin/openzeppelin-contracts/blob/master/contracts/token/ERC20/ERC20.sol\":3255:3361  function totalSupply() public view virtual override returns (uint256) {... */\n          swap1\n          jump\t// out\n            /* \"https://github.com/OpenZeppelin/openzeppelin-contracts/blob/master/contracts/token/ERC20/ERC20.sol\":5203:5459  function transferFrom(address from, address to, uint256 amount) public virtual override returns (bool) {... */\n        tag_32:\n            /* \"https://github.com/OpenZeppelin/openzeppelin-contracts/blob/master/contracts/token/ERC20/ERC20.sol\":5300:5304  bool */\n          0x00\n            /* \"https://github.com/OpenZeppelin/openzeppelin-contracts/blob/master/contracts/token/ERC20/ERC20.sol\":5316:5331  address spender */\n          dup1\n            /* \"https://github.com/OpenZeppelin/openzeppelin-contracts/blob/master/contracts/token/ERC20/ERC20.sol\":5334:5346  _msgSender() */\n          tag_77\n            /* \"https://github.com/OpenZeppelin/openzeppelin-contracts/blob/master/contracts/token/ERC20/ERC20.sol\":5334:5344  _msgSender */\n          tag_72\n            /* \"https://github.com/OpenZeppelin/openzeppelin-contracts/blob/master/contracts/token/ERC20/ERC20.sol\":5334:5346  _msgSender() */\n          jump\t// in\n        tag_77:\n            /* \"https://github.com/OpenZeppelin/openzeppelin-contracts/blob/master/contracts/token/ERC20/ERC20.sol\":5316:5346  address spender = _msgSender() */\n          swap1\n          pop\n            /* \"https://github.com/OpenZeppelin/openzeppelin-contracts/blob/master/contracts/token/ERC20/ERC20.sol\":5356:5394  _spendAllowance(from, spender, amount) */\n          tag_78\n            /* \"https://github.com/OpenZeppelin/openzeppelin-contracts/blob/master/contracts/token/ERC20/ERC20.sol\":5372:5376  from */\n          dup6\n            /* \"https://github.com/OpenZeppelin/openzeppelin-contracts/blob/master/contracts/token/ERC20/ERC20.sol\":5378:5385  spender */\n          dup3\n            /* \"https://github.com/OpenZeppelin/openzeppelin-contracts/blob/master/contracts/token/ERC20/ERC20.sol\":5387:5393  amount */\n          dup6\n            /* \"https://github.com/OpenZeppelin/openzeppelin-contracts/blob/master/contracts/token/ERC20/ERC20.sol\":5356:5371  _spendAllowance */\n          tag_79\n            /* \"https://github.com/OpenZeppelin/openzeppelin-contracts/blob/master/contracts/token/ERC20/ERC20.sol\":5356:5394  _spendAllowance(from, spender, amount) */\n          jump\t// in\n        tag_78:\n            /* \"https://github.com/OpenZeppelin/openzeppelin-contracts/blob/master/contracts/token/ERC20/ERC20.sol\":5404:5431  _transfer(from, to, amount) */\n          tag_80\n            /* \"https://github.com/OpenZeppelin/openzeppelin-contracts/blob/master/contracts/token/ERC20/ERC20.sol\":5414:5418  from */\n          dup6\n            /* \"https://github.com/OpenZeppelin/openzeppelin-contracts/blob/master/contracts/token/ERC20/ERC20.sol\":5420:5422  to */\n          dup6\n            /* \"https://github.com/OpenZeppelin/openzeppelin-contracts/blob/master/contracts/token/ERC20/ERC20.sol\":5424:5430  amount */\n          dup6\n            /* \"https://github.com/OpenZeppelin/openzeppelin-contracts/blob/master/contracts/token/ERC20/ERC20.sol\":5404:5413  _transfer */\n          tag_81\n            /* \"https://github.com/OpenZeppelin/openzeppelin-contracts/blob/master/contracts/token/ERC20/ERC20.sol\":5404:5431  _transfer(from, to, amount) */\n          jump\t// in\n        tag_80:\n            /* \"https://github.com/OpenZeppelin/openzeppelin-contracts/blob/master/contracts/token/ERC20/ERC20.sol\":5448:5452  true */\n          0x01\n            /* \"https://github.com/OpenZeppelin/openzeppelin-contracts/blob/master/contracts/token/ERC20/ERC20.sol\":5441:5452  return true */\n          swap2\n          pop\n          pop\n            /* \"https://github.com/OpenZeppelin/openzeppelin-contracts/blob/master/contracts/token/ERC20/ERC20.sol\":5203:5459  function transferFrom(address from, address to, uint256 amount) public virtual override returns (bool) {... */\n          swap4\n          swap3\n          pop\n          pop\n          pop\n          jump\t// out\n            /* \"https://github.com/OpenZeppelin/openzeppelin-contracts/blob/master/contracts/token/ERC20/ERC20.sol\":3104:3195  function decimals() public view virtual override returns (uint8) {... */\n        tag_35:\n            /* \"https://github.com/OpenZeppelin/openzeppelin-contracts/blob/master/contracts/token/ERC20/ERC20.sol\":3162:3167  uint8 */\n          0x00\n            /* \"https://github.com/OpenZeppelin/openzeppelin-contracts/blob/master/contracts/token/ERC20/ERC20.sol\":3186:3188  18 */\n          0x12\n            /* \"https://github.com/OpenZeppelin/openzeppelin-contracts/blob/master/contracts/token/ERC20/ERC20.sol\":3179:3188  return 18 */\n          swap1\n          pop\n            /* \"https://github.com/OpenZeppelin/openzeppelin-contracts/blob/master/contracts/token/ERC20/ERC20.sol\":3104:3195  function decimals() public view virtual override returns (uint8) {... */\n          swap1\n          jump\t// out\n            /* \"https://github.com/OpenZeppelin/openzeppelin-contracts/blob/master/contracts/token/ERC20/ERC20.sol\":5854:6088  function increaseAllowance(address spender, uint256 addedValue) public virtual returns (bool) {... */\n        tag_40:\n            /* \"https://github.com/OpenZeppelin/openzeppelin-contracts/blob/master/contracts/token/ERC20/ERC20.sol\":5942:5946  bool */\n          0x00\n            /* \"https://github.com/OpenZeppelin/openzeppelin-contracts/blob/master/contracts/token/ERC20/ERC20.sol\":5958:5971  address owner */\n          dup1\n            /* \"https://github.com/OpenZeppelin/openzeppelin-contracts/blob/master/contracts/token/ERC20/ERC20.sol\":5974:5986  _msgSender() */\n          tag_84\n            /* \"https://github.com/OpenZeppelin/openzeppelin-contracts/blob/master/contracts/token/ERC20/ERC20.sol\":5974:5984  _msgSender */\n          tag_72\n            /* \"https://github.com/OpenZeppelin/openzeppelin-contracts/blob/master/contracts/token/ERC20/ERC20.sol\":5974:5986  _msgSender() */\n          jump\t// in\n        tag_84:\n            /* \"https://github.com/OpenZeppelin/openzeppelin-contracts/blob/master/contracts/token/ERC20/ERC20.sol\":5958:5986  address owner = _msgSender() */\n          swap1\n          pop\n            /* \"https://github.com/OpenZeppelin/openzeppelin-contracts/blob/master/contracts/token/ERC20/ERC20.sol\":5996:6060  _approve(owner, spender, allowance(owner, spender) + addedValue) */\n          tag_85\n            /* \"https://github.com/OpenZeppelin/openzeppelin-contracts/blob/master/contracts/token/ERC20/ERC20.sol\":6005:6010  owner */\n          dup2\n            /* \"https://github.com/OpenZeppelin/openzeppelin-contracts/blob/master/contracts/token/ERC20/ERC20.sol\":6012:6019  spender */\n          dup6\n            /* \"https://github.com/OpenZeppelin/openzeppelin-contracts/blob/master/contracts/token/ERC20/ERC20.sol\":6049:6059  addedValue */\n          dup6\n            /* \"https://github.com/OpenZeppelin/openzeppelin-contracts/blob/master/contracts/token/ERC20/ERC20.sol\":6021:6046  allowance(owner, spender) */\n          tag_86\n            /* \"https://github.com/OpenZeppelin/openzeppelin-contracts/blob/master/contracts/token/ERC20/ERC20.sol\":6031:6036  owner */\n          dup6\n            /* \"https://github.com/OpenZeppelin/openzeppelin-contracts/blob/master/contracts/token/ERC20/ERC20.sol\":6038:6045  spender */\n          dup10\n            /* \"https://github.com/OpenZeppelin/openzeppelin-contracts/blob/master/contracts/token/ERC20/ERC20.sol\":6021:6030  allowance */\n          tag_61\n            /* \"https://github.com/OpenZeppelin/openzeppelin-contracts/blob/master/contracts/token/ERC20/ERC20.sol\":6021:6046  allowance(owner, spender) */\n          jump\t// in\n        tag_86:\n            /* \"https://github.com/OpenZeppelin/openzeppelin-contracts/blob/master/contracts/token/ERC20/ERC20.sol\":6021:6059  allowance(owner, spender) + addedValue */\n          tag_87\n          swap2\n          swap1\n          tag_88\n          jump\t// in\n        tag_87:\n            /* \"https://github.com/OpenZeppelin/openzeppelin-contracts/blob/master/contracts/token/ERC20/ERC20.sol\":5996:6004  _approve */\n          tag_74\n            /* \"https://github.com/OpenZeppelin/openzeppelin-contracts/blob/master/contracts/token/ERC20/ERC20.sol\":5996:6060  _approve(owner, spender, allowance(owner, spender) + addedValue) */\n          jump\t// in\n        tag_85:\n            /* \"https://github.com/OpenZeppelin/openzeppelin-contracts/blob/master/contracts/token/ERC20/ERC20.sol\":6077:6081  true */\n          0x01\n            /* \"https://github.com/OpenZeppelin/openzeppelin-contracts/blob/master/contracts/token/ERC20/ERC20.sol\":6070:6081  return true */\n          swap2\n          pop\n          pop\n            /* \"https://github.com/OpenZeppelin/openzeppelin-contracts/blob/master/contracts/token/ERC20/ERC20.sol\":5854:6088  function increaseAllowance(address spender, uint256 addedValue) public virtual returns (bool) {... */\n          swap3\n          swap2\n          pop\n          pop\n          jump\t// out\n            /* \"https://github.com/OpenZeppelin/openzeppelin-contracts/blob/master/contracts/token/ERC20/ERC20.sol\":3419:3544  function balanceOf(address account) public view virtual override returns (uint256) {... */\n        tag_45:\n            /* \"https://github.com/OpenZeppelin/openzeppelin-contracts/blob/master/contracts/token/ERC20/ERC20.sol\":3493:3500  uint256 */\n          0x00\n            /* \"https://github.com/OpenZeppelin/openzeppelin-contracts/blob/master/contracts/token/ERC20/ERC20.sol\":3519:3528  _balances */\n          dup1\n            /* \"https://github.com/OpenZeppelin/openzeppelin-contracts/blob/master/contracts/token/ERC20/ERC20.sol\":3519:3537  _balances[account] */\n          0x00\n            /* \"https://github.com/OpenZeppelin/openzeppelin-contracts/blob/master/contracts/token/ERC20/ERC20.sol\":3529:3536  account */\n          dup4\n            /* \"https://github.com/OpenZeppelin/openzeppelin-contracts/blob/master/contracts/token/ERC20/ERC20.sol\":3519:3537  _balances[account] */\n          0xffffffffffffffffffffffffffffffffffffffff\n          and\n          0xffffffffffffffffffffffffffffffffffffffff\n          and\n          dup2\n          mstore\n          0x20\n          add\n          swap1\n          dup2\n          mstore\n          0x20\n          add\n          0x00\n          keccak256\n          sload\n            /* \"https://github.com/OpenZeppelin/openzeppelin-contracts/blob/master/contracts/token/ERC20/ERC20.sol\":3512:3537  return _balances[account] */\n          swap1\n          pop\n            /* \"https://github.com/OpenZeppelin/openzeppelin-contracts/blob/master/contracts/token/ERC20/ERC20.sol\":3419:3544  function balanceOf(address account) public view virtual override returns (uint256) {... */\n          swap2\n          swap1\n          pop\n          jump\t// out\n            /* \"https://github.com/OpenZeppelin/openzeppelin-contracts/blob/master/contracts/token/ERC20/ERC20.sol\":2369:2471  function symbol() public view virtual override returns (string memory) {... */\n        tag_48:\n            /* \"https://github.com/OpenZeppelin/openzeppelin-contracts/blob/master/contracts/token/ERC20/ERC20.sol\":2425:2438  string memory */\n          0x60\n            /* \"https://github.com/OpenZeppelin/openzeppelin-contracts/blob/master/contracts/token/ERC20/ERC20.sol\":2457:2464  _symbol */\n          0x04\n            /* \"https://github.com/OpenZeppelin/openzeppelin-contracts/blob/master/contracts/token/ERC20/ERC20.sol\":2450:2464  return _symbol */\n          dup1\n          sload\n          tag_91\n          swap1\n          tag_65\n          jump\t// in\n        tag_91:\n          dup1\n          0x1f\n          add\n          0x20\n          dup1\n          swap2\n          div\n          mul\n          0x20\n          add\n          mload(0x40)\n          swap1\n          dup2\n          add\n          0x40\n          mstore\n          dup1\n          swap3\n          swap2\n          swap1\n          dup2\n          dup2\n          mstore\n          0x20\n          add\n          dup3\n          dup1\n          sload\n          tag_92\n          swap1\n          tag_65\n          jump\t// in\n        tag_92:\n          dup1\n          iszero\n          tag_93\n          jumpi\n          dup1\n          0x1f\n          lt\n          tag_94\n          jumpi\n          0x0100\n          dup1\n          dup4\n          sload\n          div\n          mul\n          dup4\n          mstore\n          swap2\n          0x20\n          add\n          swap2\n          jump(tag_93)\n        tag_94:\n          dup3\n          add\n          swap2\n          swap1\n          0x00\n          mstore\n          keccak256(0x00, 0x20)\n          swap1\n        tag_95:\n          dup2\n          sload\n          dup2\n          mstore\n          swap1\n          0x01\n          add\n          swap1\n          0x20\n          add\n          dup1\n          dup4\n          gt\n          tag_95\n          jumpi\n          dup3\n          swap1\n          sub\n          0x1f\n          and\n          dup3\n          add\n          swap2\n        tag_93:\n          pop\n          pop\n          pop\n          pop\n          pop\n          swap1\n          pop\n            /* \"https://github.com/OpenZeppelin/openzeppelin-contracts/blob/master/contracts/token/ERC20/ERC20.sol\":2369:2471  function symbol() public view virtual override returns (string memory) {... */\n          swap1\n          jump\t// out\n            /* \"https://github.com/OpenZeppelin/openzeppelin-contracts/blob/master/contracts/token/ERC20/ERC20.sol\":6575:7002  function decreaseAllowance(address spender, uint256 subtractedValue) public virtual returns (bool) {... */\n        tag_52:\n            /* \"https://github.com/OpenZeppelin/openzeppelin-contracts/blob/master/contracts/token/ERC20/ERC20.sol\":6668:6672  bool */\n          0x00\n            /* \"https://github.com/OpenZeppelin/openzeppelin-contracts/blob/master/contracts/token/ERC20/ERC20.sol\":6684:6697  address owner */\n          dup1\n            /* \"https://github.com/OpenZeppelin/openzeppelin-contracts/blob/master/contracts/token/ERC20/ERC20.sol\":6700:6712  _msgSender() */\n          tag_97\n            /* \"https://github.com/OpenZeppelin/openzeppelin-contracts/blob/master/contracts/token/ERC20/ERC20.sol\":6700:6710  _msgSender */\n          tag_72\n            /* \"https://github.com/OpenZeppelin/openzeppelin-contracts/blob/master/contracts/token/ERC20/ERC20.sol\":6700:6712  _msgSender() */\n          jump\t// in\n        tag_97:\n            /* \"https://github.com/OpenZeppelin/openzeppelin-contracts/blob/master/contracts/token/ERC20/ERC20.sol\":6684:6712  address owner = _msgSender() */\n          swap1\n          pop\n            /* \"https://github.com/OpenZeppelin/openzeppelin-contracts/blob/master/contracts/token/ERC20/ERC20.sol\":6722:6746  uint256 currentAllowance */\n          0x00\n            /* \"https://github.com/OpenZeppelin/openzeppelin-contracts/blob/master/contracts/token/ERC20/ERC20.sol\":6749:6774  allowance(owner, spender) */\n          tag_98\n            /* \"https://github.com/OpenZeppelin/openzeppelin-contracts/blob/master/contracts/token/ERC20/ERC20.sol\":6759:6764  owner */\n          dup3\n            /* \"https://github.com/OpenZeppelin/openzeppelin-contracts/blob/master/contracts/token/ERC20/ERC20.sol\":6766:6773  spender */\n          dup7\n            /* \"https://github.com/OpenZeppelin/openzeppelin-contracts/blob/master/contracts/token/ERC20/ERC20.sol\":6749:6758  allowance */\n          tag_61\n            /* \"https://github.com/OpenZeppelin/openzeppelin-contracts/blob/master/contracts/token/ERC20/ERC20.sol\":6749:6774  allowance(owner, spender) */\n          jump\t// in\n        tag_98:\n            /* \"https://github.com/OpenZeppelin/openzeppelin-contracts/blob/master/contracts/token/ERC20/ERC20.sol\":6722:6774  uint256 currentAllowance = allowance(owner, spender) */\n          swap1\n          pop\n            /* \"https://github.com/OpenZeppelin/openzeppelin-contracts/blob/master/contracts/token/ERC20/ERC20.sol\":6812:6827  subtractedValue */\n          dup4\n            /* \"https://github.com/OpenZeppelin/openzeppelin-contracts/blob/master/contracts/token/ERC20/ERC20.sol\":6792:6808  currentAllowance */\n          dup2\n            /* \"https://github.com/OpenZeppelin/openzeppelin-contracts/blob/master/contracts/token/ERC20/ERC20.sol\":6792:6827  currentAllowance >= subtractedValue */\n          lt\n          iszero\n            /* \"https://github.com/OpenZeppelin/openzeppelin-contracts/blob/master/contracts/token/ERC20/ERC20.sol\":6784:6869  require(currentAllowance >= subtractedValue, \"ERC20: decreased allowance below zero\") */\n          tag_99\n          jumpi\n          mload(0x40)\n          0x08c379a000000000000000000000000000000000000000000000000000000000\n          dup2\n          mstore\n          0x04\n          add\n          tag_100\n          swap1\n          tag_101\n          jump\t// in\n        tag_100:\n          mload(0x40)\n          dup1\n          swap2\n          sub\n          swap1\n          revert\n        tag_99:\n            /* \"https://github.com/OpenZeppelin/openzeppelin-contracts/blob/master/contracts/token/ERC20/ERC20.sol\":6903:6963  _approve(owner, spender, currentAllowance - subtractedValue) */\n          tag_102\n            /* \"https://github.com/OpenZeppelin/openzeppelin-contracts/blob/master/contracts/token/ERC20/ERC20.sol\":6912:6917  owner */\n          dup3\n            /* \"https://github.com/OpenZeppelin/openzeppelin-contracts/blob/master/contracts/token/ERC20/ERC20.sol\":6919:6926  spender */\n          dup7\n            /* \"https://github.com/OpenZeppelin/openzeppelin-contracts/blob/master/contracts/token/ERC20/ERC20.sol\":6947:6962  subtractedValue */\n          dup7\n            /* \"https://github.com/OpenZeppelin/openzeppelin-contracts/blob/master/contracts/token/ERC20/ERC20.sol\":6928:6944  currentAllowance */\n          dup5\n            /* \"https://github.com/OpenZeppelin/openzeppelin-contracts/blob/master/contracts/token/ERC20/ERC20.sol\":6928:6962  currentAllowance - subtractedValue */\n          sub\n            /* \"https://github.com/OpenZeppelin/openzeppelin-contracts/blob/master/contracts/token/ERC20/ERC20.sol\":6903:6911  _approve */\n          tag_74\n            /* \"https://github.com/OpenZeppelin/openzeppelin-contracts/blob/master/contracts/token/ERC20/ERC20.sol\":6903:6963  _approve(owner, spender, currentAllowance - subtractedValue) */\n          jump\t// in\n        tag_102:\n            /* \"https://github.com/OpenZeppelin/openzeppelin-contracts/blob/master/contracts/token/ERC20/ERC20.sol\":6991:6995  true */\n          0x01\n            /* \"https://github.com/OpenZeppelin/openzeppelin-contracts/blob/master/contracts/token/ERC20/ERC20.sol\":6984:6995  return true */\n          swap3\n          pop\n          pop\n          pop\n            /* \"https://github.com/OpenZeppelin/openzeppelin-contracts/blob/master/contracts/token/ERC20/ERC20.sol\":6575:7002  function decreaseAllowance(address spender, uint256 subtractedValue) public virtual returns (bool) {... */\n          swap3\n          swap2\n          pop\n          pop\n          jump\t// out\n            /* \"https://github.com/OpenZeppelin/openzeppelin-contracts/blob/master/contracts/token/ERC20/ERC20.sol\":3740:3929  function transfer(address to, uint256 amount) public virtual override returns (bool) {... */\n        tag_56:\n            /* \"https://github.com/OpenZeppelin/openzeppelin-contracts/blob/master/contracts/token/ERC20/ERC20.sol\":3819:3823  bool */\n          0x00\n            /* \"https://github.com/OpenZeppelin/openzeppelin-contracts/blob/master/contracts/token/ERC20/ERC20.sol\":3835:3848  address owner */\n          dup1\n            /* \"https://github.com/OpenZeppelin/openzeppelin-contracts/blob/master/contracts/token/ERC20/ERC20.sol\":3851:3863  _msgSender() */\n          tag_104\n            /* \"https://github.com/OpenZeppelin/openzeppelin-contracts/blob/master/contracts/token/ERC20/ERC20.sol\":3851:3861  _msgSender */\n          tag_72\n            /* \"https://github.com/OpenZeppelin/openzeppelin-contracts/blob/master/contracts/token/ERC20/ERC20.sol\":3851:3863  _msgSender() */\n          jump\t// in\n        tag_104:\n            /* \"https://github.com/OpenZeppelin/openzeppelin-contracts/blob/master/contracts/token/ERC20/ERC20.sol\":3835:3863  address owner = _msgSender() */\n          swap1\n          pop\n            /* \"https://github.com/OpenZeppelin/openzeppelin-contracts/blob/master/contracts/token/ERC20/ERC20.sol\":3873:3901  _transfer(owner, to, amount) */\n          tag_105\n            /* \"https://github.com/OpenZeppelin/openzeppelin-contracts/blob/master/contracts/token/ERC20/ERC20.sol\":3883:3888  owner */\n          dup2\n            /* \"https://github.com/OpenZeppelin/openzeppelin-contracts/blob/master/contracts/token/ERC20/ERC20.sol\":3890:3892  to */\n          dup6\n            /* \"https://github.com/OpenZeppelin/openzeppelin-contracts/blob/master/contracts/token/ERC20/ERC20.sol\":3894:3900  amount */\n          dup6\n            /* \"https://github.com/OpenZeppelin/openzeppelin-contracts/blob/master/contracts/token/ERC20/ERC20.sol\":3873:3882  _transfer */\n          tag_81\n            /* \"https://github.com/OpenZeppelin/openzeppelin-contracts/blob/master/contracts/token/ERC20/ERC20.sol\":3873:3901  _transfer(owner, to, amount) */\n          jump\t// in\n        tag_105:\n            /* \"https://github.com/OpenZeppelin/openzeppelin-contracts/blob/master/contracts/token/ERC20/ERC20.sol\":3918:3922  true */\n          0x01\n            /* \"https://github.com/OpenZeppelin/openzeppelin-contracts/blob/master/contracts/token/ERC20/ERC20.sol\":3911:3922  return true */\n          swap2\n          pop\n          pop\n            /* \"https://github.com/OpenZeppelin/openzeppelin-contracts/blob/master/contracts/token/ERC20/ERC20.sol\":3740:3929  function transfer(address to, uint256 amount) public virtual override returns (bool) {... */\n          swap3\n          swap2\n          pop\n          pop\n          jump\t// out\n            /* \"https://github.com/OpenZeppelin/openzeppelin-contracts/blob/master/contracts/token/ERC20/ERC20.sol\":3987:4136  function allowance(address owner, address spender) public view virtual override returns (uint256) {... */\n        tag_61:\n            /* \"https://github.com/OpenZeppelin/openzeppelin-contracts/blob/master/contracts/token/ERC20/ERC20.sol\":4076:4083  uint256 */\n          0x00\n            /* \"https://github.com/OpenZeppelin/openzeppelin-contracts/blob/master/contracts/token/ERC20/ERC20.sol\":4102:4113  _allowances */\n          0x01\n            /* \"https://github.com/OpenZeppelin/openzeppelin-contracts/blob/master/contracts/token/ERC20/ERC20.sol\":4102:4120  _allowances[owner] */\n          0x00\n            /* \"https://github.com/OpenZeppelin/openzeppelin-contracts/blob/master/contracts/token/ERC20/ERC20.sol\":4114:4119  owner */\n          dup5\n            /* \"https://github.com/OpenZeppelin/openzeppelin-contracts/blob/master/contracts/token/ERC20/ERC20.sol\":4102:4120  _allowances[owner] */\n          0xffffffffffffffffffffffffffffffffffffffff\n          and\n          0xffffffffffffffffffffffffffffffffffffffff\n          and\n          dup2\n          mstore\n          0x20\n          add\n          swap1\n          dup2\n          mstore\n          0x20\n          add\n          0x00\n          keccak256\n            /* \"https://github.com/OpenZeppelin/openzeppelin-contracts/blob/master/contracts/token/ERC20/ERC20.sol\":4102:4129  _allowances[owner][spender] */\n          0x00\n            /* \"https://github.com/OpenZeppelin/openzeppelin-contracts/blob/master/contracts/token/ERC20/ERC20.sol\":4121:4128  spender */\n          dup4\n            /* \"https://github.com/OpenZeppelin/openzeppelin-contracts/blob/master/contracts/token/ERC20/ERC20.sol\":4102:4129  _allowances[owner][spender] */\n          0xffffffffffffffffffffffffffffffffffffffff\n          and\n          0xffffffffffffffffffffffffffffffffffffffff\n          and\n          dup2\n          mstore\n          0x20\n          add\n          swap1\n          dup2\n          mstore\n          0x20\n          add\n          0x00\n          keccak256\n          sload\n            /* \"https://github.com/OpenZeppelin/openzeppelin-contracts/blob/master/contracts/token/ERC20/ERC20.sol\":4095:4129  return _allowances[owner][spender] */\n          swap1\n          pop\n            /* \"https://github.com/OpenZeppelin/openzeppelin-contracts/blob/master/contracts/token/ERC20/ERC20.sol\":3987:4136  function allowance(address owner, address spender) public view virtual override returns (uint256) {... */\n          swap3\n          swap2\n          pop\n          pop\n          jump\t// out\n            /* \"https://github.com/OpenZeppelin/openzeppelin-contracts/blob/master/contracts/utils/Context.sol\":640:736  function _msgSender() internal view virtual returns (address) {... */\n        tag_72:\n            /* \"https://github.com/OpenZeppelin/openzeppelin-contracts/blob/master/contracts/utils/Context.sol\":693:700  address */\n          0x00\n            /* \"https://github.com/OpenZeppelin/openzeppelin-contracts/blob/master/contracts/utils/Context.sol\":719:729  msg.sender */\n          caller\n            /* \"https://github.com/OpenZeppelin/openzeppelin-contracts/blob/master/contracts/utils/Context.sol\":712:729  return msg.sender */\n          swap1\n          pop\n            /* \"https://github.com/OpenZeppelin/openzeppelin-contracts/blob/master/contracts/utils/Context.sol\":640:736  function _msgSender() internal view virtual returns (address) {... */\n          swap1\n          jump\t// out\n            /* \"https://github.com/OpenZeppelin/openzeppelin-contracts/blob/master/contracts/token/ERC20/ERC20.sol\":10457:10797  function _approve(address owner, address spender, uint256 amount) internal virtual {... */\n        tag_74:\n            /* \"https://github.com/OpenZeppelin/openzeppelin-contracts/blob/master/contracts/token/ERC20/ERC20.sol\":10575:10576  0 */\n          0x00\n            /* \"https://github.com/OpenZeppelin/openzeppelin-contracts/blob/master/contracts/token/ERC20/ERC20.sol\":10558:10577  owner != address(0) */\n          0xffffffffffffffffffffffffffffffffffffffff\n          and\n            /* \"https://github.com/OpenZeppelin/openzeppelin-contracts/blob/master/contracts/token/ERC20/ERC20.sol\":10558:10563  owner */\n          dup4\n            /* \"https://github.com/OpenZeppelin/openzeppelin-contracts/blob/master/contracts/token/ERC20/ERC20.sol\":10558:10577  owner != address(0) */\n          0xffffffffffffffffffffffffffffffffffffffff\n          and\n          sub\n            /* \"https://github.com/OpenZeppelin/openzeppelin-contracts/blob/master/contracts/token/ERC20/ERC20.sol\":10550:10618  require(owner != address(0), \"ERC20: approve from the zero address\") */\n          tag_109\n          jumpi\n          mload(0x40)\n          0x08c379a000000000000000000000000000000000000000000000000000000000\n          dup2\n          mstore\n          0x04\n          add\n          tag_110\n          swap1\n          tag_111\n          jump\t// in\n        tag_110:\n          mload(0x40)\n          dup1\n          swap2\n          sub\n          swap1\n          revert\n        tag_109:\n            /* \"https://github.com/OpenZeppelin/openzeppelin-contracts/blob/master/contracts/token/ERC20/ERC20.sol\":10655:10656  0 */\n          0x00\n            /* \"https://github.com/OpenZeppelin/openzeppelin-contracts/blob/master/contracts/token/ERC20/ERC20.sol\":10636:10657  spender != address(0) */\n          0xffffffffffffffffffffffffffffffffffffffff\n          and\n            /* \"https://github.com/OpenZeppelin/openzeppelin-contracts/blob/master/contracts/token/ERC20/ERC20.sol\":10636:10643  spender */\n          dup3\n            /* \"https://github.com/OpenZeppelin/openzeppelin-contracts/blob/master/contracts/token/ERC20/ERC20.sol\":10636:10657  spender != address(0) */\n          0xffffffffffffffffffffffffffffffffffffffff\n          and\n          sub\n            /* \"https://github.com/OpenZeppelin/openzeppelin-contracts/blob/master/contracts/token/ERC20/ERC20.sol\":10628:10696  require(spender != address(0), \"ERC20: approve to the zero address\") */\n          tag_112\n          jumpi\n          mload(0x40)\n          0x08c379a000000000000000000000000000000000000000000000000000000000\n          dup2\n          mstore\n          0x04\n          add\n          tag_113\n          swap1\n          tag_114\n          jump\t// in\n        tag_113:\n          mload(0x40)\n          dup1\n          swap2\n          sub\n          swap1\n          revert\n        tag_112:\n            /* \"https://github.com/OpenZeppelin/openzeppelin-contracts/blob/master/contracts/token/ERC20/ERC20.sol\":10737:10743  amount */\n          dup1\n            /* \"https://github.com/OpenZeppelin/openzeppelin-contracts/blob/master/contracts/token/ERC20/ERC20.sol\":10707:10718  _allowances */\n          0x01\n            /* \"https://github.com/OpenZeppelin/openzeppelin-contracts/blob/master/contracts/token/ERC20/ERC20.sol\":10707:10725  _allowances[owner] */\n          0x00\n            /* \"https://github.com/OpenZeppelin/openzeppelin-contracts/blob/master/contracts/token/ERC20/ERC20.sol\":10719:10724  owner */\n          dup6\n            /* \"https://github.com/OpenZeppelin/openzeppelin-contracts/blob/master/contracts/token/ERC20/ERC20.sol\":10707:10725  _allowances[owner] */\n          0xffffffffffffffffffffffffffffffffffffffff\n          and\n          0xffffffffffffffffffffffffffffffffffffffff\n          and\n          dup2\n          mstore\n          0x20\n          add\n          swap1\n          dup2\n          mstore\n          0x20\n          add\n          0x00\n          keccak256\n            /* \"https://github.com/OpenZeppelin/openzeppelin-contracts/blob/master/contracts/token/ERC20/ERC20.sol\":10707:10734  _allowances[owner][spender] */\n          0x00\n            /* \"https://github.com/OpenZeppelin/openzeppelin-contracts/blob/master/contracts/token/ERC20/ERC20.sol\":10726:10733  spender */\n          dup5\n            /* \"https://github.com/OpenZeppelin/openzeppelin-contracts/blob/master/contracts/token/ERC20/ERC20.sol\":10707:10734  _allowances[owner][spender] */\n          0xffffffffffffffffffffffffffffffffffffffff\n          and\n          0xffffffffffffffffffffffffffffffffffffffff\n          and\n          dup2\n          mstore\n          0x20\n          add\n          swap1\n          dup2\n          mstore\n          0x20\n          add\n          0x00\n          keccak256\n            /* \"https://github.com/OpenZeppelin/openzeppelin-contracts/blob/master/contracts/token/ERC20/ERC20.sol\":10707:10743  _allowances[owner][spender] = amount */\n          dup2\n          swap1\n          sstore\n          pop\n            /* \"https://github.com/OpenZeppelin/openzeppelin-contracts/blob/master/contracts/token/ERC20/ERC20.sol\":10774:10781  spender */\n          dup2\n            /* \"https://github.com/OpenZeppelin/openzeppelin-contracts/blob/master/contracts/token/ERC20/ERC20.sol\":10758:10790  Approval(owner, spender, amount) */\n          0xffffffffffffffffffffffffffffffffffffffff\n          and\n            /* \"https://github.com/OpenZeppelin/openzeppelin-contracts/blob/master/contracts/token/ERC20/ERC20.sol\":10767:10772  owner */\n          dup4\n            /* \"https://github.com/OpenZeppelin/openzeppelin-contracts/blob/master/contracts/token/ERC20/ERC20.sol\":10758:10790  Approval(owner, spender, amount) */\n          0xffffffffffffffffffffffffffffffffffffffff\n          and\n          0x8c5be1e5ebec7d5bd14f71427d1e84f3dd0314c0f7b2291e5b200ac8c7c3b925\n            /* \"https://github.com/OpenZeppelin/openzeppelin-contracts/blob/master/contracts/token/ERC20/ERC20.sol\":10783:10789  amount */\n          dup4\n            /* \"https://github.com/OpenZeppelin/openzeppelin-contracts/blob/master/contracts/token/ERC20/ERC20.sol\":10758:10790  Approval(owner, spender, amount) */\n          mload(0x40)\n          tag_115\n          swap2\n          swap1\n          tag_28\n          jump\t// in\n        tag_115:\n          mload(0x40)\n          dup1\n          swap2\n          sub\n          swap1\n          log3\n            /* \"https://github.com/OpenZeppelin/openzeppelin-contracts/blob/master/contracts/token/ERC20/ERC20.sol\":10457:10797  function _approve(address owner, address spender, uint256 amount) internal virtual {... */\n          pop\n          pop\n          pop\n          jump\t// out\n            /* \"https://github.com/OpenZeppelin/openzeppelin-contracts/blob/master/contracts/token/ERC20/ERC20.sol\":11078:11489  function _spendAllowance(address owner, address spender, uint256 amount) internal virtual {... */\n        tag_79:\n            /* \"https://github.com/OpenZeppelin/openzeppelin-contracts/blob/master/contracts/token/ERC20/ERC20.sol\":11178:11202  uint256 currentAllowance */\n          0x00\n            /* \"https://github.com/OpenZeppelin/openzeppelin-contracts/blob/master/contracts/token/ERC20/ERC20.sol\":11205:11230  allowance(owner, spender) */\n          tag_117\n            /* \"https://github.com/OpenZeppelin/openzeppelin-contracts/blob/master/contracts/token/ERC20/ERC20.sol\":11215:11220  owner */\n          dup5\n            /* \"https://github.com/OpenZeppelin/openzeppelin-contracts/blob/master/contracts/token/ERC20/ERC20.sol\":11222:11229  spender */\n          dup5\n            /* \"https://github.com/OpenZeppelin/openzeppelin-contracts/blob/master/contracts/token/ERC20/ERC20.sol\":11205:11214  allowance */\n          tag_61\n            /* \"https://github.com/OpenZeppelin/openzeppelin-contracts/blob/master/contracts/token/ERC20/ERC20.sol\":11205:11230  allowance(owner, spender) */\n          jump\t// in\n        tag_117:\n            /* \"https://github.com/OpenZeppelin/openzeppelin-contracts/blob/master/contracts/token/ERC20/ERC20.sol\":11178:11230  uint256 currentAllowance = allowance(owner, spender) */\n          swap1\n          pop\n            /* \"https://github.com/OpenZeppelin/openzeppelin-contracts/blob/master/contracts/token/ERC20/ERC20.sol\":11264:11281  type(uint256).max */\n          0xffffffffffffffffffffffffffffffffffffffffffffffffffffffffffffffff\n            /* \"https://github.com/OpenZeppelin/openzeppelin-contracts/blob/master/contracts/token/ERC20/ERC20.sol\":11244:11260  currentAllowance */\n          dup2\n            /* \"https://github.com/OpenZeppelin/openzeppelin-contracts/blob/master/contracts/token/ERC20/ERC20.sol\":11244:11281  currentAllowance != type(uint256).max */\n          eq\n            /* \"https://github.com/OpenZeppelin/openzeppelin-contracts/blob/master/contracts/token/ERC20/ERC20.sol\":11240:11483  if (currentAllowance != type(uint256).max) {... */\n          tag_118\n          jumpi\n            /* \"https://github.com/OpenZeppelin/openzeppelin-contracts/blob/master/contracts/token/ERC20/ERC20.sol\":11325:11331  amount */\n          dup2\n            /* \"https://github.com/OpenZeppelin/openzeppelin-contracts/blob/master/contracts/token/ERC20/ERC20.sol\":11305:11321  currentAllowance */\n          dup2\n            /* \"https://github.com/OpenZeppelin/openzeppelin-contracts/blob/master/contracts/token/ERC20/ERC20.sol\":11305:11331  currentAllowance >= amount */\n          lt\n          iszero\n            /* \"https://github.com/OpenZeppelin/openzeppelin-contracts/blob/master/contracts/token/ERC20/ERC20.sol\":11297:11365  require(currentAllowance >= amount, \"ERC20: insufficient allowance\") */\n          tag_119\n          jumpi\n          mload(0x40)\n          0x08c379a000000000000000000000000000000000000000000000000000000000\n          dup2\n          mstore\n          0x04\n          add\n          tag_120\n          swap1\n          tag_121\n          jump\t// in\n        tag_120:\n          mload(0x40)\n          dup1\n          swap2\n          sub\n          swap1\n          revert\n        tag_119:\n            /* \"https://github.com/OpenZeppelin/openzeppelin-contracts/blob/master/contracts/token/ERC20/ERC20.sol\":11407:11458  _approve(owner, spender, currentAllowance - amount) */\n          tag_122\n            /* \"https://github.com/OpenZeppelin/openzeppelin-contracts/blob/master/contracts/token/ERC20/ERC20.sol\":11416:11421  owner */\n          dup5\n            /* \"https://github.com/OpenZeppelin/openzeppelin-contracts/blob/master/contracts/token/ERC20/ERC20.sol\":11423:11430  spender */\n          dup5\n            /* \"https://github.com/OpenZeppelin/openzeppelin-contracts/blob/master/contracts/token/ERC20/ERC20.sol\":11451:11457  amount */\n          dup5\n            /* \"https://github.com/OpenZeppelin/openzeppelin-contracts/blob/master/contracts/token/ERC20/ERC20.sol\":11432:11448  currentAllowance */\n          dup5\n            /* \"https://github.com/OpenZeppelin/openzeppelin-contracts/blob/master/contracts/token/ERC20/ERC20.sol\":11432:11457  currentAllowance - amount */\n          sub\n            /* \"https://github.com/OpenZeppelin/openzeppelin-contracts/blob/master/contracts/token/ERC20/ERC20.sol\":11407:11415  _approve */\n          tag_74\n            /* \"https://github.com/OpenZeppelin/openzeppelin-contracts/blob/master/contracts/token/ERC20/ERC20.sol\":11407:11458  _approve(owner, spender, currentAllowance - amount) */\n          jump\t// in\n        tag_122:\n            /* \"https://github.com/OpenZeppelin/openzeppelin-contracts/blob/master/contracts/token/ERC20/ERC20.sol\":11240:11483  if (currentAllowance != type(uint256).max) {... */\n        tag_118:\n            /* \"https://github.com/OpenZeppelin/openzeppelin-contracts/blob/master/contracts/token/ERC20/ERC20.sol\":11168:11489  {... */\n          pop\n            /* \"https://github.com/OpenZeppelin/openzeppelin-contracts/blob/master/contracts/token/ERC20/ERC20.sol\":11078:11489  function _spendAllowance(address owner, address spender, uint256 amount) internal virtual {... */\n          pop\n          pop\n          pop\n          jump\t// out\n            /* \"https://github.com/OpenZeppelin/openzeppelin-contracts/blob/master/contracts/token/ERC20/ERC20.sol\":7456:8244  function _transfer(address from, address to, uint256 amount) internal virtual {... */\n        tag_81:\n            /* \"https://github.com/OpenZeppelin/openzeppelin-contracts/blob/master/contracts/token/ERC20/ERC20.sol\":7568:7569  0 */\n          0x00\n            /* \"https://github.com/OpenZeppelin/openzeppelin-contracts/blob/master/contracts/token/ERC20/ERC20.sol\":7552:7570  from != address(0) */\n          0xffffffffffffffffffffffffffffffffffffffff\n          and\n            /* \"https://github.com/OpenZeppelin/openzeppelin-contracts/blob/master/contracts/token/ERC20/ERC20.sol\":7552:7556  from */\n          dup4\n            /* \"https://github.com/OpenZeppelin/openzeppelin-contracts/blob/master/contracts/token/ERC20/ERC20.sol\":7552:7570  from != address(0) */\n          0xffffffffffffffffffffffffffffffffffffffff\n          and\n          sub\n            /* \"https://github.com/OpenZeppelin/openzeppelin-contracts/blob/master/contracts/token/ERC20/ERC20.sol\":7544:7612  require(from != address(0), \"ERC20: transfer from the zero address\") */\n          tag_124\n          jumpi\n          mload(0x40)\n          0x08c379a000000000000000000000000000000000000000000000000000000000\n          dup2\n          mstore\n          0x04\n          add\n          tag_125\n          swap1\n          tag_126\n          jump\t// in\n        tag_125:\n          mload(0x40)\n          dup1\n          swap2\n          sub\n          swap1\n          revert\n        tag_124:\n            /* \"https://github.com/OpenZeppelin/openzeppelin-contracts/blob/master/contracts/token/ERC20/ERC20.sol\":7644:7645  0 */\n          0x00\n            /* \"https://github.com/OpenZeppelin/openzeppelin-contracts/blob/master/contracts/token/ERC20/ERC20.sol\":7630:7646  to != address(0) */\n          0xffffffffffffffffffffffffffffffffffffffff\n          and\n            /* \"https://github.com/OpenZeppelin/openzeppelin-contracts/blob/master/contracts/token/ERC20/ERC20.sol\":7630:7632  to */\n          dup3\n            /* \"https://github.com/OpenZeppelin/openzeppelin-contracts/blob/master/contracts/token/ERC20/ERC20.sol\":7630:7646  to != address(0) */\n          0xffffffffffffffffffffffffffffffffffffffff\n          and\n          sub\n            /* \"https://github.com/OpenZeppelin/openzeppelin-contracts/blob/master/contracts/token/ERC20/ERC20.sol\":7622:7686  require(to != address(0), \"ERC20: transfer to the zero address\") */\n          tag_127\n          jumpi\n          mload(0x40)\n          0x08c379a000000000000000000000000000000000000000000000000000000000\n          dup2\n          mstore\n          0x04\n          add\n          tag_128\n          swap1\n          tag_129\n          jump\t// in\n        tag_128:\n          mload(0x40)\n          dup1\n          swap2\n          sub\n          swap1\n          revert\n        tag_127:\n            /* \"https://github.com/OpenZeppelin/openzeppelin-contracts/blob/master/contracts/token/ERC20/ERC20.sol\":7697:7735  _beforeTokenTransfer(from, to, amount) */\n          tag_130\n            /* \"https://github.com/OpenZeppelin/openzeppelin-contracts/blob/master/contracts/token/ERC20/ERC20.sol\":7718:7722  from */\n          dup4\n            /* \"https://github.com/OpenZeppelin/openzeppelin-contracts/blob/master/contracts/token/ERC20/ERC20.sol\":7724:7726  to */\n          dup4\n            /* \"https://github.com/OpenZeppelin/openzeppelin-contracts/blob/master/contracts/token/ERC20/ERC20.sol\":7728:7734  amount */\n          dup4\n            /* \"https://github.com/OpenZeppelin/openzeppelin-contracts/blob/master/contracts/token/ERC20/ERC20.sol\":7697:7717  _beforeTokenTransfer */\n          tag_131\n            /* \"https://github.com/OpenZeppelin/openzeppelin-contracts/blob/master/contracts/token/ERC20/ERC20.sol\":7697:7735  _beforeTokenTransfer(from, to, amount) */\n          jump\t// in\n        tag_130:\n            /* \"https://github.com/OpenZeppelin/openzeppelin-contracts/blob/master/contracts/token/ERC20/ERC20.sol\":7746:7765  uint256 fromBalance */\n          0x00\n            /* \"https://github.com/OpenZeppelin/openzeppelin-contracts/blob/master/contracts/token/ERC20/ERC20.sol\":7768:7777  _balances */\n          dup1\n            /* \"https://github.com/OpenZeppelin/openzeppelin-contracts/blob/master/contracts/token/ERC20/ERC20.sol\":7768:7783  _balances[from] */\n          0x00\n            /* \"https://github.com/OpenZeppelin/openzeppelin-contracts/blob/master/contracts/token/ERC20/ERC20.sol\":7778:7782  from */\n          dup6\n            /* \"https://github.com/OpenZeppelin/openzeppelin-contracts/blob/master/contracts/token/ERC20/ERC20.sol\":7768:7783  _balances[from] */\n          0xffffffffffffffffffffffffffffffffffffffff\n          and\n          0xffffffffffffffffffffffffffffffffffffffff\n          and\n          dup2\n          mstore\n          0x20\n          add\n          swap1\n          dup2\n          mstore\n          0x20\n          add\n          0x00\n          keccak256\n          sload\n            /* \"https://github.com/OpenZeppelin/openzeppelin-contracts/blob/master/contracts/token/ERC20/ERC20.sol\":7746:7783  uint256 fromBalance = _balances[from] */\n          swap1\n          pop\n            /* \"https://github.com/OpenZeppelin/openzeppelin-contracts/blob/master/contracts/token/ERC20/ERC20.sol\":7816:7822  amount */\n          dup2\n            /* \"https://github.com/OpenZeppelin/openzeppelin-contracts/blob/master/contracts/token/ERC20/ERC20.sol\":7801:7812  fromBalance */\n          dup2\n            /* \"https://github.com/OpenZeppelin/openzeppelin-contracts/blob/master/contracts/token/ERC20/ERC20.sol\":7801:7822  fromBalance >= amount */\n          lt\n          iszero\n            /* \"https://github.com/OpenZeppelin/openzeppelin-contracts/blob/master/contracts/token/ERC20/ERC20.sol\":7793:7865  require(fromBalance >= amount, \"ERC20: transfer amount exceeds balance\") */\n          tag_132\n          jumpi\n          mload(0x40)\n          0x08c379a000000000000000000000000000000000000000000000000000000000\n          dup2\n          mstore\n          0x04\n          add\n          tag_133\n          swap1\n          tag_134\n          jump\t// in\n        tag_133:\n          mload(0x40)\n          dup1\n          swap2\n          sub\n          swap1\n          revert\n        tag_132:\n            /* \"https://github.com/OpenZeppelin/openzeppelin-contracts/blob/master/contracts/token/ERC20/ERC20.sol\":7931:7937  amount */\n          dup2\n            /* \"https://github.com/OpenZeppelin/openzeppelin-contracts/blob/master/contracts/token/ERC20/ERC20.sol\":7917:7928  fromBalance */\n          dup2\n            /* \"https://github.com/OpenZeppelin/openzeppelin-contracts/blob/master/contracts/token/ERC20/ERC20.sol\":7917:7937  fromBalance - amount */\n          sub\n            /* \"https://github.com/OpenZeppelin/openzeppelin-contracts/blob/master/contracts/token/ERC20/ERC20.sol\":7899:7908  _balances */\n          0x00\n            /* \"https://github.com/OpenZeppelin/openzeppelin-contracts/blob/master/contracts/token/ERC20/ERC20.sol\":7899:7914  _balances[from] */\n          dup1\n            /* \"https://github.com/OpenZeppelin/openzeppelin-contracts/blob/master/contracts/token/ERC20/ERC20.sol\":7909:7913  from */\n          dup7\n            /* \"https://github.com/OpenZeppelin/openzeppelin-contracts/blob/master/contracts/token/ERC20/ERC20.sol\":7899:7914  _balances[from] */\n          0xffffffffffffffffffffffffffffffffffffffff\n          and\n          0xffffffffffffffffffffffffffffffffffffffff\n          and\n          dup2\n          mstore\n          0x20\n          add\n          swap1\n          dup2\n          mstore\n          0x20\n          add\n          0x00\n          keccak256\n            /* \"https://github.com/OpenZeppelin/openzeppelin-contracts/blob/master/contracts/token/ERC20/ERC20.sol\":7899:7937  _balances[from] = fromBalance - amount */\n          dup2\n          swap1\n          sstore\n          pop\n            /* \"https://github.com/OpenZeppelin/openzeppelin-contracts/blob/master/contracts/token/ERC20/ERC20.sol\":8131:8137  amount */\n          dup2\n            /* \"https://github.com/OpenZeppelin/openzeppelin-contracts/blob/master/contracts/token/ERC20/ERC20.sol\":8114:8123  _balances */\n          0x00\n            /* \"https://github.com/OpenZeppelin/openzeppelin-contracts/blob/master/contracts/token/ERC20/ERC20.sol\":8114:8127  _balances[to] */\n          dup1\n            /* \"https://github.com/OpenZeppelin/openzeppelin-contracts/blob/master/contracts/token/ERC20/ERC20.sol\":8124:8126  to */\n          dup6\n            /* \"https://github.com/OpenZeppelin/openzeppelin-contracts/blob/master/contracts/token/ERC20/ERC20.sol\":8114:8127  _balances[to] */\n          0xffffffffffffffffffffffffffffffffffffffff\n          and\n          0xffffffffffffffffffffffffffffffffffffffff\n          and\n          dup2\n          mstore\n          0x20\n          add\n          swap1\n          dup2\n          mstore\n          0x20\n          add\n          0x00\n          keccak256\n          0x00\n            /* \"https://github.com/OpenZeppelin/openzeppelin-contracts/blob/master/contracts/token/ERC20/ERC20.sol\":8114:8137  _balances[to] += amount */\n          dup3\n          dup3\n          sload\n          add\n          swap3\n          pop\n          pop\n          dup2\n          swap1\n          sstore\n          pop\n            /* \"https://github.com/OpenZeppelin/openzeppelin-contracts/blob/master/contracts/token/ERC20/ERC20.sol\":8178:8180  to */\n          dup3\n            /* \"https://github.com/OpenZeppelin/openzeppelin-contracts/blob/master/contracts/token/ERC20/ERC20.sol\":8163:8189  Transfer(from, to, amount) */\n          0xffffffffffffffffffffffffffffffffffffffff\n          and\n            /* \"https://github.com/OpenZeppelin/openzeppelin-contracts/blob/master/contracts/token/ERC20/ERC20.sol\":8172:8176  from */\n          dup5\n            /* \"https://github.com/OpenZeppelin/openzeppelin-contracts/blob/master/contracts/token/ERC20/ERC20.sol\":8163:8189  Transfer(from, to, amount) */\n          0xffffffffffffffffffffffffffffffffffffffff\n          and\n          0xddf252ad1be2c89b69c2b068fc378daa952ba7f163c4a11628f55a4df523b3ef\n            /* \"https://github.com/OpenZeppelin/openzeppelin-contracts/blob/master/contracts/token/ERC20/ERC20.sol\":8182:8188  amount */\n          dup5\n            /* \"https://github.com/OpenZeppelin/openzeppelin-contracts/blob/master/contracts/token/ERC20/ERC20.sol\":8163:8189  Transfer(from, to, amount) */\n          mload(0x40)\n          tag_135\n          swap2\n          swap1\n          tag_28\n          jump\t// in\n        tag_135:\n          mload(0x40)\n          dup1\n          swap2\n          sub\n          swap1\n          log3\n            /* \"https://github.com/OpenZeppelin/openzeppelin-contracts/blob/master/contracts/token/ERC20/ERC20.sol\":8200:8237  _afterTokenTransfer(from, to, amount) */\n          tag_136\n            /* \"https://github.com/OpenZeppelin/openzeppelin-contracts/blob/master/contracts/token/ERC20/ERC20.sol\":8220:8224  from */\n          dup5\n            /* \"https://github.com/OpenZeppelin/openzeppelin-contracts/blob/master/contracts/token/ERC20/ERC20.sol\":8226:8228  to */\n          dup5\n            /* \"https://github.com/OpenZeppelin/openzeppelin-contracts/blob/master/contracts/token/ERC20/ERC20.sol\":8230:8236  amount */\n          dup5\n            /* \"https://github.com/OpenZeppelin/openzeppelin-contracts/blob/master/contracts/token/ERC20/ERC20.sol\":8200:8219  _afterTokenTransfer */\n          tag_137\n            /* \"https://github.com/OpenZeppelin/openzeppelin-contracts/blob/master/contracts/token/ERC20/ERC20.sol\":8200:8237  _afterTokenTransfer(from, to, amount) */\n          jump\t// in\n        tag_136:\n            /* \"https://github.com/OpenZeppelin/openzeppelin-contracts/blob/master/contracts/token/ERC20/ERC20.sol\":7534:8244  {... */\n          pop\n            /* \"https://github.com/OpenZeppelin/openzeppelin-contracts/blob/master/contracts/token/ERC20/ERC20.sol\":7456:8244  function _transfer(address from, address to, uint256 amount) internal virtual {... */\n          pop\n          pop\n          pop\n          jump\t// out\n            /* \"https://github.com/OpenZeppelin/openzeppelin-contracts/blob/master/contracts/token/ERC20/ERC20.sol\":12073:12164  function _beforeTokenTransfer(address from, address to, uint256 amount) internal virtual {} */\n        tag_131:\n          pop\n          pop\n          pop\n          jump\t// out\n            /* \"https://github.com/OpenZeppelin/openzeppelin-contracts/blob/master/contracts/token/ERC20/ERC20.sol\":12752:12842  function _afterTokenTransfer(address from, address to, uint256 amount) internal virtual {} */\n        tag_137:\n          pop\n          pop\n          pop\n          jump\t// out\n            /* \"#utility.yul\":7:106   */\n        tag_140:\n            /* \"#utility.yul\":59:65   */\n          0x00\n            /* \"#utility.yul\":93:98   */\n          dup2\n            /* \"#utility.yul\":87:99   */\n          mload\n            /* \"#utility.yul\":77:99   */\n          swap1\n          pop\n            /* \"#utility.yul\":7:106   */\n          swap2\n          swap1\n          pop\n          jump\t// out\n            /* \"#utility.yul\":112:281   */\n        tag_141:\n            /* \"#utility.yul\":196:207   */\n          0x00\n            /* \"#utility.yul\":230:236   */\n          dup3\n            /* \"#utility.yul\":225:228   */\n          dup3\n            /* \"#utility.yul\":218:237   */\n          mstore\n            /* \"#utility.yul\":270:274   */\n          0x20\n            /* \"#utility.yul\":265:268   */\n          dup3\n            /* \"#utility.yul\":261:275   */\n          add\n            /* \"#utility.yul\":246:275   */\n          swap1\n          pop\n            /* \"#utility.yul\":112:281   */\n          swap3\n          swap2\n          pop\n          pop\n          jump\t// out\n            /* \"#utility.yul\":287:594   */\n        tag_142:\n            /* \"#utility.yul\":355:356   */\n          0x00\n            /* \"#utility.yul\":365:478   */\n        tag_180:\n            /* \"#utility.yul\":379:385   */\n          dup4\n            /* \"#utility.yul\":376:377   */\n          dup2\n            /* \"#utility.yul\":373:386   */\n          lt\n            /* \"#utility.yul\":365:478   */\n          iszero\n          tag_182\n          jumpi\n            /* \"#utility.yul\":464:465   */\n          dup1\n            /* \"#utility.yul\":459:462   */\n          dup3\n            /* \"#utility.yul\":455:466   */\n          add\n            /* \"#utility.yul\":449:467   */\n          mload\n            /* \"#utility.yul\":445:446   */\n          dup2\n            /* \"#utility.yul\":440:443   */\n          dup5\n            /* \"#utility.yul\":436:447   */\n          add\n            /* \"#utility.yul\":429:468   */\n          mstore\n            /* \"#utility.yul\":401:403   */\n          0x20\n            /* \"#utility.yul\":398:399   */\n          dup2\n            /* \"#utility.yul\":394:404   */\n          add\n            /* \"#utility.yul\":389:404   */\n          swap1\n          pop\n            /* \"#utility.yul\":365:478   */\n          jump(tag_180)\n        tag_182:\n            /* \"#utility.yul\":496:502   */\n          dup4\n            /* \"#utility.yul\":493:494   */\n          dup2\n            /* \"#utility.yul\":490:503   */\n          gt\n            /* \"#utility.yul\":487:588   */\n          iszero\n          tag_183\n          jumpi\n            /* \"#utility.yul\":576:577   */\n          0x00\n            /* \"#utility.yul\":567:573   */\n          dup5\n            /* \"#utility.yul\":562:565   */\n          dup5\n            /* \"#utility.yul\":558:574   */\n          add\n            /* \"#utility.yul\":551:578   */\n          mstore\n            /* \"#utility.yul\":487:588   */\n        tag_183:\n            /* \"#utility.yul\":336:594   */\n          pop\n            /* \"#utility.yul\":287:594   */\n          pop\n          pop\n          pop\n          jump\t// out\n            /* \"#utility.yul\":600:702   */\n        tag_143:\n            /* \"#utility.yul\":641:647   */\n          0x00\n            /* \"#utility.yul\":692:694   */\n          0x1f\n            /* \"#utility.yul\":688:695   */\n          not\n            /* \"#utility.yul\":683:685   */\n          0x1f\n            /* \"#utility.yul\":676:681   */\n          dup4\n            /* \"#utility.yul\":672:686   */\n          add\n            /* \"#utility.yul\":668:696   */\n          and\n            /* \"#utility.yul\":658:696   */\n          swap1\n          pop\n            /* \"#utility.yul\":600:702   */\n          swap2\n          swap1\n          pop\n          jump\t// out\n            /* \"#utility.yul\":708:1072   */\n        tag_144:\n            /* \"#utility.yul\":796:799   */\n          0x00\n            /* \"#utility.yul\":824:863   */\n          tag_186\n            /* \"#utility.yul\":857:862   */\n          dup3\n            /* \"#utility.yul\":824:863   */\n          tag_140\n          jump\t// in\n        tag_186:\n            /* \"#utility.yul\":879:950   */\n          tag_187\n            /* \"#utility.yul\":943:949   */\n          dup2\n            /* \"#utility.yul\":938:941   */\n          dup6\n            /* \"#utility.yul\":879:950   */\n          tag_141\n          jump\t// in\n        tag_187:\n            /* \"#utility.yul\":872:950   */\n          swap4\n          pop\n            /* \"#utility.yul\":959:1011   */\n          tag_188\n            /* \"#utility.yul\":1004:1010   */\n          dup2\n            /* \"#utility.yul\":999:1002   */\n          dup6\n            /* \"#utility.yul\":992:996   */\n          0x20\n            /* \"#utility.yul\":985:990   */\n          dup7\n            /* \"#utility.yul\":981:997   */\n          add\n            /* \"#utility.yul\":959:1011   */\n          tag_142\n          jump\t// in\n        tag_188:\n            /* \"#utility.yul\":1036:1065   */\n          tag_189\n            /* \"#utility.yul\":1058:1064   */\n          dup2\n            /* \"#utility.yul\":1036:1065   */\n          tag_143\n          jump\t// in\n        tag_189:\n            /* \"#utility.yul\":1031:1034   */\n          dup5\n            /* \"#utility.yul\":1027:1066   */\n          add\n            /* \"#utility.yul\":1020:1066   */\n          swap2\n          pop\n            /* \"#utility.yul\":800:1072   */\n          pop\n            /* \"#utility.yul\":708:1072   */\n          swap3\n          swap2\n          pop\n          pop\n          jump\t// out\n            /* \"#utility.yul\":1078:1391   */\n        tag_18:\n            /* \"#utility.yul\":1191:1195   */\n          0x00\n            /* \"#utility.yul\":1229:1231   */\n          0x20\n            /* \"#utility.yul\":1218:1227   */\n          dup3\n            /* \"#utility.yul\":1214:1232   */\n          add\n            /* \"#utility.yul\":1206:1232   */\n          swap1\n          pop\n            /* \"#utility.yul\":1278:1287   */\n          dup2\n            /* \"#utility.yul\":1272:1276   */\n          dup2\n            /* \"#utility.yul\":1268:1288   */\n          sub\n            /* \"#utility.yul\":1264:1265   */\n          0x00\n            /* \"#utility.yul\":1253:1262   */\n          dup4\n            /* \"#utility.yul\":1249:1266   */\n          add\n            /* \"#utility.yul\":1242:1289   */\n          mstore\n            /* \"#utility.yul\":1306:1384   */\n          tag_191\n            /* \"#utility.yul\":1379:1383   */\n          dup2\n            /* \"#utility.yul\":1370:1376   */\n          dup5\n            /* \"#utility.yul\":1306:1384   */\n          tag_144\n          jump\t// in\n        tag_191:\n            /* \"#utility.yul\":1298:1384   */\n          swap1\n          pop\n            /* \"#utility.yul\":1078:1391   */\n          swap3\n          swap2\n          pop\n          pop\n          jump\t// out\n            /* \"#utility.yul\":1478:1595   */\n        tag_146:\n            /* \"#utility.yul\":1587:1588   */\n          0x00\n            /* \"#utility.yul\":1584:1585   */\n          dup1\n            /* \"#utility.yul\":1577:1589   */\n          revert\n            /* \"#utility.yul\":1724:1850   */\n        tag_148:\n            /* \"#utility.yul\":1761:1768   */\n          0x00\n            /* \"#utility.yul\":1801:1843   */\n          0xffffffffffffffffffffffffffffffffffffffff\n            /* \"#utility.yul\":1794:1799   */\n          dup3\n            /* \"#utility.yul\":1790:1844   */\n          and\n            /* \"#utility.yul\":1779:1844   */\n          swap1\n          pop\n            /* \"#utility.yul\":1724:1850   */\n          swap2\n          swap1\n          pop\n          jump\t// out\n            /* \"#utility.yul\":1856:1952   */\n        tag_149:\n            /* \"#utility.yul\":1893:1900   */\n          0x00\n            /* \"#utility.yul\":1922:1946   */\n          tag_197\n            /* \"#utility.yul\":1940:1945   */\n          dup3\n            /* \"#utility.yul\":1922:1946   */\n          tag_148\n          jump\t// in\n        tag_197:\n            /* \"#utility.yul\":1911:1946   */\n          swap1\n          pop\n            /* \"#utility.yul\":1856:1952   */\n          swap2\n          swap1\n          pop\n          jump\t// out\n            /* \"#utility.yul\":1958:2080   */\n        tag_150:\n            /* \"#utility.yul\":2031:2055   */\n          tag_199\n            /* \"#utility.yul\":2049:2054   */\n          dup2\n            /* \"#utility.yul\":2031:2055   */\n          tag_149\n          jump\t// in\n        tag_199:\n            /* \"#utility.yul\":2024:2029   */\n          dup2\n            /* \"#utility.yul\":2021:2056   */\n          eq\n            /* \"#utility.yul\":2011:2074   */\n          tag_200\n          jumpi\n            /* \"#utility.yul\":2070:2071   */\n          0x00\n            /* \"#utility.yul\":2067:2068   */\n          dup1\n            /* \"#utility.yul\":2060:2072   */\n          revert\n            /* \"#utility.yul\":2011:2074   */\n        tag_200:\n            /* \"#utility.yul\":1958:2080   */\n          pop\n          jump\t// out\n            /* \"#utility.yul\":2086:2225   */\n        tag_151:\n            /* \"#utility.yul\":2132:2137   */\n          0x00\n            /* \"#utility.yul\":2170:2176   */\n          dup2\n            /* \"#utility.yul\":2157:2177   */\n          calldataload\n            /* \"#utility.yul\":2148:2177   */\n          swap1\n          pop\n            /* \"#utility.yul\":2186:2219   */\n          tag_202\n            /* \"#utility.yul\":2213:2218   */\n          dup2\n            /* \"#utility.yul\":2186:2219   */\n          tag_150\n          jump\t// in\n        tag_202:\n            /* \"#utility.yul\":2086:2225   */\n          swap3\n          swap2\n          pop\n          pop\n          jump\t// out\n            /* \"#utility.yul\":2231:2308   */\n        tag_152:\n            /* \"#utility.yul\":2268:2275   */\n          0x00\n            /* \"#utility.yul\":2297:2302   */\n          dup2\n            /* \"#utility.yul\":2286:2302   */\n          swap1\n          pop\n            /* \"#utility.yul\":2231:2308   */\n          swap2\n          swap1\n          pop\n          jump\t// out\n            /* \"#utility.yul\":2314:2436   */\n        tag_153:\n            /* \"#utility.yul\":2387:2411   */\n          tag_205\n            /* \"#utility.yul\":2405:2410   */\n          dup2\n            /* \"#utility.yul\":2387:2411   */\n          tag_152\n          jump\t// in\n        tag_205:\n            /* \"#utility.yul\":2380:2385   */\n          dup2\n            /* \"#utility.yul\":2377:2412   */\n          eq\n            /* \"#utility.yul\":2367:2430   */\n          tag_206\n          jumpi\n            /* \"#utility.yul\":2426:2427   */\n          0x00\n            /* \"#utility.yul\":2423:2424   */\n          dup1\n            /* \"#utility.yul\":2416:2428   */\n          revert\n            /* \"#utility.yul\":2367:2430   */\n        tag_206:\n            /* \"#utility.yul\":2314:2436   */\n          pop\n          jump\t// out\n            /* \"#utility.yul\":2442:2581   */\n        tag_154:\n            /* \"#utility.yul\":2488:2493   */\n          0x00\n            /* \"#utility.yul\":2526:2532   */\n          dup2\n            /* \"#utility.yul\":2513:2533   */\n          calldataload\n            /* \"#utility.yul\":2504:2533   */\n          swap1\n          pop\n            /* \"#utility.yul\":2542:2575   */\n          tag_208\n            /* \"#utility.yul\":2569:2574   */\n          dup2\n            /* \"#utility.yul\":2542:2575   */\n          tag_153\n          jump\t// in\n        tag_208:\n            /* \"#utility.yul\":2442:2581   */\n          swap3\n          swap2\n          pop\n          pop\n          jump\t// out\n            /* \"#utility.yul\":2587:3061   */\n        tag_21:\n            /* \"#utility.yul\":2655:2661   */\n          0x00\n            /* \"#utility.yul\":2663:2669   */\n          dup1\n            /* \"#utility.yul\":2712:2714   */\n          0x40\n            /* \"#utility.yul\":2700:2709   */\n          dup4\n            /* \"#utility.yul\":2691:2698   */\n          dup6\n            /* \"#utility.yul\":2687:2710   */\n          sub\n            /* \"#utility.yul\":2683:2715   */\n          slt\n            /* \"#utility.yul\":2680:2799   */\n          iszero\n          tag_210\n          jumpi\n            /* \"#utility.yul\":2718:2797   */\n          tag_211\n          tag_146\n          jump\t// in\n        tag_211:\n            /* \"#utility.yul\":2680:2799   */\n        tag_210:\n            /* \"#utility.yul\":2838:2839   */\n          0x00\n            /* \"#utility.yul\":2863:2916   */\n          tag_212\n            /* \"#utility.yul\":2908:2915   */\n          dup6\n            /* \"#utility.yul\":2899:2905   */\n          dup3\n            /* \"#utility.yul\":2888:2897   */\n          dup7\n            /* \"#utility.yul\":2884:2906   */\n          add\n            /* \"#utility.yul\":2863:2916   */\n          tag_151\n          jump\t// in\n        tag_212:\n            /* \"#utility.yul\":2853:2916   */\n          swap3\n          pop\n            /* \"#utility.yul\":2809:2926   */\n          pop\n            /* \"#utility.yul\":2965:2967   */\n          0x20\n            /* \"#utility.yul\":2991:3044   */\n          tag_213\n            /* \"#utility.yul\":3036:3043   */\n          dup6\n            /* \"#utility.yul\":3027:3033   */\n          dup3\n            /* \"#utility.yul\":3016:3025   */\n          dup7\n            /* \"#utility.yul\":3012:3034   */\n          add\n            /* \"#utility.yul\":2991:3044   */\n          tag_154\n          jump\t// in\n        tag_213:\n            /* \"#utility.yul\":2981:3044   */\n          swap2\n          pop\n            /* \"#utility.yul\":2936:3054   */\n          pop\n            /* \"#utility.yul\":2587:3061   */\n          swap3\n          pop\n          swap3\n          swap1\n          pop\n          jump\t// out\n            /* \"#utility.yul\":3067:3157   */\n        tag_155:\n            /* \"#utility.yul\":3101:3108   */\n          0x00\n            /* \"#utility.yul\":3144:3149   */\n          dup2\n            /* \"#utility.yul\":3137:3150   */\n          iszero\n            /* \"#utility.yul\":3130:3151   */\n          iszero\n            /* \"#utility.yul\":3119:3151   */\n          swap1\n          pop\n            /* \"#utility.yul\":3067:3157   */\n          swap2\n          swap1\n          pop\n          jump\t// out\n            /* \"#utility.yul\":3163:3272   */\n        tag_156:\n            /* \"#utility.yul\":3244:3265   */\n          tag_216\n            /* \"#utility.yul\":3259:3264   */\n          dup2\n            /* \"#utility.yul\":3244:3265   */\n          tag_155\n          jump\t// in\n        tag_216:\n            /* \"#utility.yul\":3239:3242   */\n          dup3\n            /* \"#utility.yul\":3232:3266   */\n          mstore\n            /* \"#utility.yul\":3163:3272   */\n          pop\n          pop\n          jump\t// out\n            /* \"#utility.yul\":3278:3488   */\n        tag_24:\n            /* \"#utility.yul\":3365:3369   */\n          0x00\n            /* \"#utility.yul\":3403:3405   */\n          0x20\n            /* \"#utility.yul\":3392:3401   */\n          dup3\n            /* \"#utility.yul\":3388:3406   */\n          add\n            /* \"#utility.yul\":3380:3406   */\n          swap1\n          pop\n            /* \"#utility.yul\":3416:3481   */\n          tag_218\n            /* \"#utility.yul\":3478:3479   */\n          0x00\n            /* \"#utility.yul\":3467:3476   */\n          dup4\n            /* \"#utility.yul\":3463:3480   */\n          add\n            /* \"#utility.yul\":3454:3460   */\n          dup5\n            /* \"#utility.yul\":3416:3481   */\n          tag_156\n          jump\t// in\n        tag_218:\n            /* \"#utility.yul\":3278:3488   */\n          swap3\n          swap2\n          pop\n          pop\n          jump\t// out\n            /* \"#utility.yul\":3494:3612   */\n        tag_157:\n            /* \"#utility.yul\":3581:3605   */\n          tag_220\n            /* \"#utility.yul\":3599:3604   */\n          dup2\n            /* \"#utility.yul\":3581:3605   */\n          tag_152\n          jump\t// in\n        tag_220:\n            /* \"#utility.yul\":3576:3579   */\n          dup3\n            /* \"#utility.yul\":3569:3606   */\n          mstore\n            /* \"#utility.yul\":3494:3612   */\n          pop\n          pop\n          jump\t// out\n            /* \"#utility.yul\":3618:3840   */\n        tag_28:\n            /* \"#utility.yul\":3711:3715   */\n          0x00\n            /* \"#utility.yul\":3749:3751   */\n          0x20\n            /* \"#utility.yul\":3738:3747   */\n          dup3\n            /* \"#utility.yul\":3734:3752   */\n          add\n            /* \"#utility.yul\":3726:3752   */\n          swap1\n          pop\n            /* \"#utility.yul\":3762:3833   */\n          tag_222\n            /* \"#utility.yul\":3830:3831   */\n          0x00\n            /* \"#utility.yul\":3819:3828   */\n          dup4\n            /* \"#utility.yul\":3815:3832   */\n          add\n            /* \"#utility.yul\":3806:3812   */\n          dup5\n            /* \"#utility.yul\":3762:3833   */\n          tag_157\n          jump\t// in\n        tag_222:\n            /* \"#utility.yul\":3618:3840   */\n          swap3\n          swap2\n          pop\n          pop\n          jump\t// out\n            /* \"#utility.yul\":3846:4465   */\n        tag_31:\n            /* \"#utility.yul\":3923:3929   */\n          0x00\n            /* \"#utility.yul\":3931:3937   */\n          dup1\n            /* \"#utility.yul\":3939:3945   */\n          0x00\n            /* \"#utility.yul\":3988:3990   */\n          0x60\n            /* \"#utility.yul\":3976:3985   */\n          dup5\n            /* \"#utility.yul\":3967:3974   */\n          dup7\n            /* \"#utility.yul\":3963:3986   */\n          sub\n            /* \"#utility.yul\":3959:3991   */\n          slt\n            /* \"#utility.yul\":3956:4075   */\n          iszero\n          tag_224\n          jumpi\n            /* \"#utility.yul\":3994:4073   */\n          tag_225\n          tag_146\n          jump\t// in\n        tag_225:\n            /* \"#utility.yul\":3956:4075   */\n        tag_224:\n            /* \"#utility.yul\":4114:4115   */\n          0x00\n            /* \"#utility.yul\":4139:4192   */\n          tag_226\n            /* \"#utility.yul\":4184:4191   */\n          dup7\n            /* \"#utility.yul\":4175:4181   */\n          dup3\n            /* \"#utility.yul\":4164:4173   */\n          dup8\n            /* \"#utility.yul\":4160:4182   */\n          add\n            /* \"#utility.yul\":4139:4192   */\n          tag_151\n          jump\t// in\n        tag_226:\n            /* \"#utility.yul\":4129:4192   */\n          swap4\n          pop\n            /* \"#utility.yul\":4085:4202   */\n          pop\n            /* \"#utility.yul\":4241:4243   */\n          0x20\n            /* \"#utility.yul\":4267:4320   */\n          tag_227\n            /* \"#utility.yul\":4312:4319   */\n          dup7\n            /* \"#utility.yul\":4303:4309   */\n          dup3\n            /* \"#utility.yul\":4292:4301   */\n          dup8\n            /* \"#utility.yul\":4288:4310   */\n          add\n            /* \"#utility.yul\":4267:4320   */\n          tag_151\n          jump\t// in\n        tag_227:\n            /* \"#utility.yul\":4257:4320   */\n          swap3\n          pop\n            /* \"#utility.yul\":4212:4330   */\n          pop\n            /* \"#utility.yul\":4369:4371   */\n          0x40\n            /* \"#utility.yul\":4395:4448   */\n          tag_228\n            /* \"#utility.yul\":4440:4447   */\n          dup7\n            /* \"#utility.yul\":4431:4437   */\n          dup3\n            /* \"#utility.yul\":4420:4429   */\n          dup8\n            /* \"#utility.yul\":4416:4438   */\n          add\n            /* \"#utility.yul\":4395:4448   */\n          tag_154\n          jump\t// in\n        tag_228:\n            /* \"#utility.yul\":4385:4448   */\n          swap2\n          pop\n            /* \"#utility.yul\":4340:4458   */\n          pop\n            /* \"#utility.yul\":3846:4465   */\n          swap3\n          pop\n          swap3\n          pop\n          swap3\n          jump\t// out\n            /* \"#utility.yul\":4471:4557   */\n        tag_158:\n            /* \"#utility.yul\":4506:4513   */\n          0x00\n            /* \"#utility.yul\":4546:4550   */\n          0xff\n            /* \"#utility.yul\":4539:4544   */\n          dup3\n            /* \"#utility.yul\":4535:4551   */\n          and\n            /* \"#utility.yul\":4524:4551   */\n          swap1\n          pop\n            /* \"#utility.yul\":4471:4557   */\n          swap2\n          swap1\n          pop\n          jump\t// out\n            /* \"#utility.yul\":4563:4675   */\n        tag_159:\n            /* \"#utility.yul\":4646:4668   */\n          tag_231\n            /* \"#utility.yul\":4662:4667   */\n          dup2\n            /* \"#utility.yul\":4646:4668   */\n          tag_158\n          jump\t// in\n        tag_231:\n            /* \"#utility.yul\":4641:4644   */\n          dup3\n            /* \"#utility.yul\":4634:4669   */\n          mstore\n            /* \"#utility.yul\":4563:4675   */\n          pop\n          pop\n          jump\t// out\n            /* \"#utility.yul\":4681:4895   */\n        tag_37:\n            /* \"#utility.yul\":4770:4774   */\n          0x00\n            /* \"#utility.yul\":4808:4810   */\n          0x20\n            /* \"#utility.yul\":4797:4806   */\n          dup3\n            /* \"#utility.yul\":4793:4811   */\n          add\n            /* \"#utility.yul\":4785:4811   */\n          swap1\n          pop\n            /* \"#utility.yul\":4821:4888   */\n          tag_233\n            /* \"#utility.yul\":4885:4886   */\n          0x00\n            /* \"#utility.yul\":4874:4883   */\n          dup4\n            /* \"#utility.yul\":4870:4887   */\n          add\n            /* \"#utility.yul\":4861:4867   */\n          dup5\n            /* \"#utility.yul\":4821:4888   */\n          tag_159\n          jump\t// in\n        tag_233:\n            /* \"#utility.yul\":4681:4895   */\n          swap3\n          swap2\n          pop\n          pop\n          jump\t// out\n            /* \"#utility.yul\":4901:5230   */\n        tag_44:\n            /* \"#utility.yul\":4960:4966   */\n          0x00\n            /* \"#utility.yul\":5009:5011   */\n          0x20\n            /* \"#utility.yul\":4997:5006   */\n          dup3\n            /* \"#utility.yul\":4988:4995   */\n          dup5\n            /* \"#utility.yul\":4984:5007   */\n          sub\n            /* \"#utility.yul\":4980:5012   */\n          slt\n            /* \"#utility.yul\":4977:5096   */\n          iszero\n          tag_235\n          jumpi\n            /* \"#utility.yul\":5015:5094   */\n          tag_236\n          tag_146\n          jump\t// in\n        tag_236:\n            /* \"#utility.yul\":4977:5096   */\n        tag_235:\n            /* \"#utility.yul\":5135:5136   */\n          0x00\n            /* \"#utility.yul\":5160:5213   */\n          tag_237\n            /* \"#utility.yul\":5205:5212   */\n          dup5\n            /* \"#utility.yul\":5196:5202   */\n          dup3\n            /* \"#utility.yul\":5185:5194   */\n          dup6\n            /* \"#utility.yul\":5181:5203   */\n          add\n            /* \"#utility.yul\":5160:5213   */\n          tag_151\n          jump\t// in\n        tag_237:\n            /* \"#utility.yul\":5150:5213   */\n          swap2\n          pop\n            /* \"#utility.yul\":5106:5223   */\n          pop\n            /* \"#utility.yul\":4901:5230   */\n          swap3\n          swap2\n          pop\n          pop\n          jump\t// out\n            /* \"#utility.yul\":5236:5710   */\n        tag_60:\n            /* \"#utility.yul\":5304:5310   */\n          0x00\n            /* \"#utility.yul\":5312:5318   */\n          dup1\n            /* \"#utility.yul\":5361:5363   */\n          0x40\n            /* \"#utility.yul\":5349:5358   */\n          dup4\n            /* \"#utility.yul\":5340:5347   */\n          dup6\n            /* \"#utility.yul\":5336:5359   */\n          sub\n            /* \"#utility.yul\":5332:5364   */\n          slt\n            /* \"#utility.yul\":5329:5448   */\n          iszero\n          tag_239\n          jumpi\n            /* \"#utility.yul\":5367:5446   */\n          tag_240\n          tag_146\n          jump\t// in\n        tag_240:\n            /* \"#utility.yul\":5329:5448   */\n        tag_239:\n            /* \"#utility.yul\":5487:5488   */\n          0x00\n            /* \"#utility.yul\":5512:5565   */\n          tag_241\n            /* \"#utility.yul\":5557:5564   */\n          dup6\n            /* \"#utility.yul\":5548:5554   */\n          dup3\n            /* \"#utility.yul\":5537:5546   */\n          dup7\n            /* \"#utility.yul\":5533:5555   */\n          add\n            /* \"#utility.yul\":5512:5565   */\n          tag_151\n          jump\t// in\n        tag_241:\n            /* \"#utility.yul\":5502:5565   */\n          swap3\n          pop\n            /* \"#utility.yul\":5458:5575   */\n          pop\n            /* \"#utility.yul\":5614:5616   */\n          0x20\n            /* \"#utility.yul\":5640:5693   */\n          tag_242\n            /* \"#utility.yul\":5685:5692   */\n          dup6\n            /* \"#utility.yul\":5676:5682   */\n          dup3\n            /* \"#utility.yul\":5665:5674   */\n          dup7\n            /* \"#utility.yul\":5661:5683   */\n          add\n            /* \"#utility.yul\":5640:5693   */\n          tag_151\n          jump\t// in\n        tag_242:\n            /* \"#utility.yul\":5630:5693   */\n          swap2\n          pop\n            /* \"#utility.yul\":5585:5703   */\n          pop\n            /* \"#utility.yul\":5236:5710   */\n          swap3\n          pop\n          swap3\n          swap1\n          pop\n          jump\t// out\n            /* \"#utility.yul\":5716:5896   */\n        tag_160:\n            /* \"#utility.yul\":5764:5841   */\n          0x4e487b7100000000000000000000000000000000000000000000000000000000\n            /* \"#utility.yul\":5761:5762   */\n          0x00\n            /* \"#utility.yul\":5754:5842   */\n          mstore\n            /* \"#utility.yul\":5861:5865   */\n          0x22\n            /* \"#utility.yul\":5858:5859   */\n          0x04\n            /* \"#utility.yul\":5851:5866   */\n          mstore\n            /* \"#utility.yul\":5885:5889   */\n          0x24\n            /* \"#utility.yul\":5882:5883   */\n          0x00\n            /* \"#utility.yul\":5875:5890   */\n          revert\n            /* \"#utility.yul\":5902:6222   */\n        tag_65:\n            /* \"#utility.yul\":5946:5952   */\n          0x00\n            /* \"#utility.yul\":5983:5984   */\n          0x02\n            /* \"#utility.yul\":5977:5981   */\n          dup3\n            /* \"#utility.yul\":5973:5985   */\n          div\n            /* \"#utility.yul\":5963:5985   */\n          swap1\n          pop\n            /* \"#utility.yul\":6030:6031   */\n          0x01\n            /* \"#utility.yul\":6024:6028   */\n          dup3\n            /* \"#utility.yul\":6020:6032   */\n          and\n            /* \"#utility.yul\":6051:6069   */\n          dup1\n            /* \"#utility.yul\":6041:6122   */\n          tag_245\n          jumpi\n            /* \"#utility.yul\":6107:6111   */\n          0x7f\n            /* \"#utility.yul\":6099:6105   */\n          dup3\n            /* \"#utility.yul\":6095:6112   */\n          and\n            /* \"#utility.yul\":6085:6112   */\n          swap2\n          pop\n            /* \"#utility.yul\":6041:6122   */\n        tag_245:\n            /* \"#utility.yul\":6169:6171   */\n          0x20\n            /* \"#utility.yul\":6161:6167   */\n          dup3\n            /* \"#utility.yul\":6158:6172   */\n          lt\n            /* \"#utility.yul\":6138:6156   */\n          dup2\n            /* \"#utility.yul\":6135:6173   */\n          sub\n            /* \"#utility.yul\":6132:6216   */\n          tag_246\n          jumpi\n            /* \"#utility.yul\":6188:6206   */\n          tag_247\n          tag_160\n          jump\t// in\n        tag_247:\n            /* \"#utility.yul\":6132:6216   */\n        tag_246:\n            /* \"#utility.yul\":5953:6222   */\n          pop\n            /* \"#utility.yul\":5902:6222   */\n          swap2\n          swap1\n          pop\n          jump\t// out\n            /* \"#utility.yul\":6228:6408   */\n        tag_161:\n            /* \"#utility.yul\":6276:6353   */\n          0x4e487b7100000000000000000000000000000000000000000000000000000000\n            /* \"#utility.yul\":6273:6274   */\n          0x00\n            /* \"#utility.yul\":6266:6354   */\n          mstore\n            /* \"#utility.yul\":6373:6377   */\n          0x11\n            /* \"#utility.yul\":6370:6371   */\n          0x04\n            /* \"#utility.yul\":6363:6378   */\n          mstore\n            /* \"#utility.yul\":6397:6401   */\n          0x24\n            /* \"#utility.yul\":6394:6395   */\n          0x00\n            /* \"#utility.yul\":6387:6402   */\n          revert\n            /* \"#utility.yul\":6414:6719   */\n        tag_88:\n            /* \"#utility.yul\":6454:6457   */\n          0x00\n            /* \"#utility.yul\":6473:6493   */\n          tag_250\n            /* \"#utility.yul\":6491:6492   */\n          dup3\n            /* \"#utility.yul\":6473:6493   */\n          tag_152\n          jump\t// in\n        tag_250:\n            /* \"#utility.yul\":6468:6493   */\n          swap2\n          pop\n            /* \"#utility.yul\":6507:6527   */\n          tag_251\n            /* \"#utility.yul\":6525:6526   */\n          dup4\n            /* \"#utility.yul\":6507:6527   */\n          tag_152\n          jump\t// in\n        tag_251:\n            /* \"#utility.yul\":6502:6527   */\n          swap3\n          pop\n            /* \"#utility.yul\":6661:6662   */\n          dup3\n            /* \"#utility.yul\":6593:6659   */\n          0xffffffffffffffffffffffffffffffffffffffffffffffffffffffffffffffff\n            /* \"#utility.yul\":6589:6663   */\n          sub\n            /* \"#utility.yul\":6586:6587   */\n          dup3\n            /* \"#utility.yul\":6583:6664   */\n          gt\n            /* \"#utility.yul\":6580:6687   */\n          iszero\n          tag_252\n          jumpi\n            /* \"#utility.yul\":6667:6685   */\n          tag_253\n          tag_161\n          jump\t// in\n        tag_253:\n            /* \"#utility.yul\":6580:6687   */\n        tag_252:\n            /* \"#utility.yul\":6711:6712   */\n          dup3\n            /* \"#utility.yul\":6708:6709   */\n          dup3\n            /* \"#utility.yul\":6704:6713   */\n          add\n            /* \"#utility.yul\":6697:6713   */\n          swap1\n          pop\n            /* \"#utility.yul\":6414:6719   */\n          swap3\n          swap2\n          pop\n          pop\n          jump\t// out\n            /* \"#utility.yul\":6725:6949   */\n        tag_162:\n            /* \"#utility.yul\":6865:6899   */\n          0x45524332303a2064656372656173656420616c6c6f77616e63652062656c6f77\n            /* \"#utility.yul\":6861:6862   */\n          0x00\n            /* \"#utility.yul\":6853:6859   */\n          dup3\n            /* \"#utility.yul\":6849:6863   */\n          add\n            /* \"#utility.yul\":6842:6900   */\n          mstore\n            /* \"#utility.yul\":6934:6941   */\n          0x207a65726f000000000000000000000000000000000000000000000000000000\n            /* \"#utility.yul\":6929:6931   */\n          0x20\n            /* \"#utility.yul\":6921:6927   */\n          dup3\n            /* \"#utility.yul\":6917:6932   */\n          add\n            /* \"#utility.yul\":6910:6942   */\n          mstore\n            /* \"#utility.yul\":6725:6949   */\n          pop\n          jump\t// out\n            /* \"#utility.yul\":6955:7321   */\n        tag_163:\n            /* \"#utility.yul\":7097:7100   */\n          0x00\n            /* \"#utility.yul\":7118:7185   */\n          tag_256\n            /* \"#utility.yul\":7182:7184   */\n          0x25\n            /* \"#utility.yul\":7177:7180   */\n          dup4\n            /* \"#utility.yul\":7118:7185   */\n          tag_141\n          jump\t// in\n        tag_256:\n            /* \"#utility.yul\":7111:7185   */\n          swap2\n          pop\n            /* \"#utility.yul\":7194:7287   */\n          tag_257\n            /* \"#utility.yul\":7283:7286   */\n          dup3\n            /* \"#utility.yul\":7194:7287   */\n          tag_162\n          jump\t// in\n        tag_257:\n            /* \"#utility.yul\":7312:7314   */\n          0x40\n            /* \"#utility.yul\":7307:7310   */\n          dup3\n            /* \"#utility.yul\":7303:7315   */\n          add\n            /* \"#utility.yul\":7296:7315   */\n          swap1\n          pop\n            /* \"#utility.yul\":6955:7321   */\n          swap2\n          swap1\n          pop\n          jump\t// out\n            /* \"#utility.yul\":7327:7746   */\n        tag_101:\n            /* \"#utility.yul\":7493:7497   */\n          0x00\n            /* \"#utility.yul\":7531:7533   */\n          0x20\n            /* \"#utility.yul\":7520:7529   */\n          dup3\n            /* \"#utility.yul\":7516:7534   */\n          add\n            /* \"#utility.yul\":7508:7534   */\n          swap1\n          pop\n            /* \"#utility.yul\":7580:7589   */\n          dup2\n            /* \"#utility.yul\":7574:7578   */\n          dup2\n            /* \"#utility.yul\":7570:7590   */\n          sub\n            /* \"#utility.yul\":7566:7567   */\n          0x00\n            /* \"#utility.yul\":7555:7564   */\n          dup4\n            /* \"#utility.yul\":7551:7568   */\n          add\n            /* \"#utility.yul\":7544:7591   */\n          mstore\n            /* \"#utility.yul\":7608:7739   */\n          tag_259\n            /* \"#utility.yul\":7734:7738   */\n          dup2\n            /* \"#utility.yul\":7608:7739   */\n          tag_163\n          jump\t// in\n        tag_259:\n            /* \"#utility.yul\":7600:7739   */\n          swap1\n          pop\n            /* \"#utility.yul\":7327:7746   */\n          swap2\n          swap1\n          pop\n          jump\t// out\n            /* \"#utility.yul\":7752:7975   */\n        tag_164:\n            /* \"#utility.yul\":7892:7926   */\n          0x45524332303a20617070726f76652066726f6d20746865207a65726f20616464\n            /* \"#utility.yul\":7888:7889   */\n          0x00\n            /* \"#utility.yul\":7880:7886   */\n          dup3\n            /* \"#utility.yul\":7876:7890   */\n          add\n            /* \"#utility.yul\":7869:7927   */\n          mstore\n            /* \"#utility.yul\":7961:7967   */\n          0x7265737300000000000000000000000000000000000000000000000000000000\n            /* \"#utility.yul\":7956:7958   */\n          0x20\n            /* \"#utility.yul\":7948:7954   */\n          dup3\n            /* \"#utility.yul\":7944:7959   */\n          add\n            /* \"#utility.yul\":7937:7968   */\n          mstore\n            /* \"#utility.yul\":7752:7975   */\n          pop\n          jump\t// out\n            /* \"#utility.yul\":7981:8347   */\n        tag_165:\n            /* \"#utility.yul\":8123:8126   */\n          0x00\n            /* \"#utility.yul\":8144:8211   */\n          tag_262\n            /* \"#utility.yul\":8208:8210   */\n          0x24\n            /* \"#utility.yul\":8203:8206   */\n          dup4\n            /* \"#utility.yul\":8144:8211   */\n          tag_141\n          jump\t// in\n        tag_262:\n            /* \"#utility.yul\":8137:8211   */\n          swap2\n          pop\n            /* \"#utility.yul\":8220:8313   */\n          tag_263\n            /* \"#utility.yul\":8309:8312   */\n          dup3\n            /* \"#utility.yul\":8220:8313   */\n          tag_164\n          jump\t// in\n        tag_263:\n            /* \"#utility.yul\":8338:8340   */\n          0x40\n            /* \"#utility.yul\":8333:8336   */\n          dup3\n            /* \"#utility.yul\":8329:8341   */\n          add\n            /* \"#utility.yul\":8322:8341   */\n          swap1\n          pop\n            /* \"#utility.yul\":7981:8347   */\n          swap2\n          swap1\n          pop\n          jump\t// out\n            /* \"#utility.yul\":8353:8772   */\n        tag_111:\n            /* \"#utility.yul\":8519:8523   */\n          0x00\n            /* \"#utility.yul\":8557:8559   */\n          0x20\n            /* \"#utility.yul\":8546:8555   */\n          dup3\n            /* \"#utility.yul\":8542:8560   */\n          add\n            /* \"#utility.yul\":8534:8560   */\n          swap1\n          pop\n            /* \"#utility.yul\":8606:8615   */\n          dup2\n            /* \"#utility.yul\":8600:8604   */\n          dup2\n            /* \"#utility.yul\":8596:8616   */\n          sub\n            /* \"#utility.yul\":8592:8593   */\n          0x00\n            /* \"#utility.yul\":8581:8590   */\n          dup4\n            /* \"#utility.yul\":8577:8594   */\n          add\n            /* \"#utility.yul\":8570:8617   */\n          mstore\n            /* \"#utility.yul\":8634:8765   */\n          tag_265\n            /* \"#utility.yul\":8760:8764   */\n          dup2\n            /* \"#utility.yul\":8634:8765   */\n          tag_165\n          jump\t// in\n        tag_265:\n            /* \"#utility.yul\":8626:8765   */\n          swap1\n          pop\n            /* \"#utility.yul\":8353:8772   */\n          swap2\n          swap1\n          pop\n          jump\t// out\n            /* \"#utility.yul\":8778:8999   */\n        tag_166:\n            /* \"#utility.yul\":8918:8952   */\n          0x45524332303a20617070726f766520746f20746865207a65726f206164647265\n            /* \"#utility.yul\":8914:8915   */\n          0x00\n            /* \"#utility.yul\":8906:8912   */\n          dup3\n            /* \"#utility.yul\":8902:8916   */\n          add\n            /* \"#utility.yul\":8895:8953   */\n          mstore\n            /* \"#utility.yul\":8987:8991   */\n          0x7373000000000000000000000000000000000000000000000000000000000000\n            /* \"#utility.yul\":8982:8984   */\n          0x20\n            /* \"#utility.yul\":8974:8980   */\n          dup3\n            /* \"#utility.yul\":8970:8985   */\n          add\n            /* \"#utility.yul\":8963:8992   */\n          mstore\n            /* \"#utility.yul\":8778:8999   */\n          pop\n          jump\t// out\n            /* \"#utility.yul\":9005:9371   */\n        tag_167:\n            /* \"#utility.yul\":9147:9150   */\n          0x00\n            /* \"#utility.yul\":9168:9235   */\n          tag_268\n            /* \"#utility.yul\":9232:9234   */\n          0x22\n            /* \"#utility.yul\":9227:9230   */\n          dup4\n            /* \"#utility.yul\":9168:9235   */\n          tag_141\n          jump\t// in\n        tag_268:\n            /* \"#utility.yul\":9161:9235   */\n          swap2\n          pop\n            /* \"#utility.yul\":9244:9337   */\n          tag_269\n            /* \"#utility.yul\":9333:9336   */\n          dup3\n            /* \"#utility.yul\":9244:9337   */\n          tag_166\n          jump\t// in\n        tag_269:\n            /* \"#utility.yul\":9362:9364   */\n          0x40\n            /* \"#utility.yul\":9357:9360   */\n          dup3\n            /* \"#utility.yul\":9353:9365   */\n          add\n            /* \"#utility.yul\":9346:9365   */\n          swap1\n          pop\n            /* \"#utility.yul\":9005:9371   */\n          swap2\n          swap1\n          pop\n          jump\t// out\n            /* \"#utility.yul\":9377:9796   */\n        tag_114:\n            /* \"#utility.yul\":9543:9547   */\n          0x00\n            /* \"#utility.yul\":9581:9583   */\n          0x20\n            /* \"#utility.yul\":9570:9579   */\n          dup3\n            /* \"#utility.yul\":9566:9584   */\n          add\n            /* \"#utility.yul\":9558:9584   */\n          swap1\n          pop\n            /* \"#utility.yul\":9630:9639   */\n          dup2\n            /* \"#utility.yul\":9624:9628   */\n          dup2\n            /* \"#utility.yul\":9620:9640   */\n          sub\n            /* \"#utility.yul\":9616:9617   */\n          0x00\n            /* \"#utility.yul\":9605:9614   */\n          dup4\n            /* \"#utility.yul\":9601:9618   */\n          add\n            /* \"#utility.yul\":9594:9641   */\n          mstore\n            /* \"#utility.yul\":9658:9789   */\n          tag_271\n            /* \"#utility.yul\":9784:9788   */\n          dup2\n            /* \"#utility.yul\":9658:9789   */\n          tag_167\n          jump\t// in\n        tag_271:\n            /* \"#utility.yul\":9650:9789   */\n          swap1\n          pop\n            /* \"#utility.yul\":9377:9796   */\n          swap2\n          swap1\n          pop\n          jump\t// out\n            /* \"#utility.yul\":9802:9981   */\n        tag_168:\n            /* \"#utility.yul\":9942:9973   */\n          0x45524332303a20696e73756666696369656e7420616c6c6f77616e6365000000\n            /* \"#utility.yul\":9938:9939   */\n          0x00\n            /* \"#utility.yul\":9930:9936   */\n          dup3\n            /* \"#utility.yul\":9926:9940   */\n          add\n            /* \"#utility.yul\":9919:9974   */\n          mstore\n            /* \"#utility.yul\":9802:9981   */\n          pop\n          jump\t// out\n            /* \"#utility.yul\":9987:10353   */\n        tag_169:\n            /* \"#utility.yul\":10129:10132   */\n          0x00\n            /* \"#utility.yul\":10150:10217   */\n          tag_274\n            /* \"#utility.yul\":10214:10216   */\n          0x1d\n            /* \"#utility.yul\":10209:10212   */\n          dup4\n            /* \"#utility.yul\":10150:10217   */\n          tag_141\n          jump\t// in\n        tag_274:\n            /* \"#utility.yul\":10143:10217   */\n          swap2\n          pop\n            /* \"#utility.yul\":10226:10319   */\n          tag_275\n            /* \"#utility.yul\":10315:10318   */\n          dup3\n            /* \"#utility.yul\":10226:10319   */\n          tag_168\n          jump\t// in\n        tag_275:\n            /* \"#utility.yul\":10344:10346   */\n          0x20\n            /* \"#utility.yul\":10339:10342   */\n          dup3\n            /* \"#utility.yul\":10335:10347   */\n          add\n            /* \"#utility.yul\":10328:10347   */\n          swap1\n          pop\n            /* \"#utility.yul\":9987:10353   */\n          swap2\n          swap1\n          pop\n          jump\t// out\n            /* \"#utility.yul\":10359:10778   */\n        tag_121:\n            /* \"#utility.yul\":10525:10529   */\n          0x00\n            /* \"#utility.yul\":10563:10565   */\n          0x20\n            /* \"#utility.yul\":10552:10561   */\n          dup3\n            /* \"#utility.yul\":10548:10566   */\n          add\n            /* \"#utility.yul\":10540:10566   */\n          swap1\n          pop\n            /* \"#utility.yul\":10612:10621   */\n          dup2\n            /* \"#utility.yul\":10606:10610   */\n          dup2\n            /* \"#utility.yul\":10602:10622   */\n          sub\n            /* \"#utility.yul\":10598:10599   */\n          0x00\n            /* \"#utility.yul\":10587:10596   */\n          dup4\n            /* \"#utility.yul\":10583:10600   */\n          add\n            /* \"#utility.yul\":10576:10623   */\n          mstore\n            /* \"#utility.yul\":10640:10771   */\n          tag_277\n            /* \"#utility.yul\":10766:10770   */\n          dup2\n            /* \"#utility.yul\":10640:10771   */\n          tag_169\n          jump\t// in\n        tag_277:\n            /* \"#utility.yul\":10632:10771   */\n          swap1\n          pop\n            /* \"#utility.yul\":10359:10778   */\n          swap2\n          swap1\n          pop\n          jump\t// out\n            /* \"#utility.yul\":10784:11008   */\n        tag_170:\n            /* \"#utility.yul\":10924:10958   */\n          0x45524332303a207472616e736665722066726f6d20746865207a65726f206164\n            /* \"#utility.yul\":10920:10921   */\n          0x00\n            /* \"#utility.yul\":10912:10918   */\n          dup3\n            /* \"#utility.yul\":10908:10922   */\n          add\n            /* \"#utility.yul\":10901:10959   */\n          mstore\n            /* \"#utility.yul\":10993:11000   */\n          0x6472657373000000000000000000000000000000000000000000000000000000\n            /* \"#utility.yul\":10988:10990   */\n          0x20\n            /* \"#utility.yul\":10980:10986   */\n          dup3\n            /* \"#utility.yul\":10976:10991   */\n          add\n            /* \"#utility.yul\":10969:11001   */\n          mstore\n            /* \"#utility.yul\":10784:11008   */\n          pop\n          jump\t// out\n            /* \"#utility.yul\":11014:11380   */\n        tag_171:\n            /* \"#utility.yul\":11156:11159   */\n          0x00\n            /* \"#utility.yul\":11177:11244   */\n          tag_280\n            /* \"#utility.yul\":11241:11243   */\n          0x25\n            /* \"#utility.yul\":11236:11239   */\n          dup4\n            /* \"#utility.yul\":11177:11244   */\n          tag_141\n          jump\t// in\n        tag_280:\n            /* \"#utility.yul\":11170:11244   */\n          swap2\n          pop\n            /* \"#utility.yul\":11253:11346   */\n          tag_281\n            /* \"#utility.yul\":11342:11345   */\n          dup3\n            /* \"#utility.yul\":11253:11346   */\n          tag_170\n          jump\t// in\n        tag_281:\n            /* \"#utility.yul\":11371:11373   */\n          0x40\n            /* \"#utility.yul\":11366:11369   */\n          dup3\n            /* \"#utility.yul\":11362:11374   */\n          add\n            /* \"#utility.yul\":11355:11374   */\n          swap1\n          pop\n            /* \"#utility.yul\":11014:11380   */\n          swap2\n          swap1\n          pop\n          jump\t// out\n            /* \"#utility.yul\":11386:11805   */\n        tag_126:\n            /* \"#utility.yul\":11552:11556   */\n          0x00\n            /* \"#utility.yul\":11590:11592   */\n          0x20\n            /* \"#utility.yul\":11579:11588   */\n          dup3\n            /* \"#utility.yul\":11575:11593   */\n          add\n            /* \"#utility.yul\":11567:11593   */\n          swap1\n          pop\n            /* \"#utility.yul\":11639:11648   */\n          dup2\n            /* \"#utility.yul\":11633:11637   */\n          dup2\n            /* \"#utility.yul\":11629:11649   */\n          sub\n            /* \"#utility.yul\":11625:11626   */\n          0x00\n            /* \"#utility.yul\":11614:11623   */\n          dup4\n            /* \"#utility.yul\":11610:11627   */\n          add\n            /* \"#utility.yul\":11603:11650   */\n          mstore\n            /* \"#utility.yul\":11667:11798   */\n          tag_283\n            /* \"#utility.yul\":11793:11797   */\n          dup2\n            /* \"#utility.yul\":11667:11798   */\n          tag_171\n          jump\t// in\n        tag_283:\n            /* \"#utility.yul\":11659:11798   */\n          swap1\n          pop\n            /* \"#utility.yul\":11386:11805   */\n          swap2\n          swap1\n          pop\n          jump\t// out\n            /* \"#utility.yul\":11811:12033   */\n        tag_172:\n            /* \"#utility.yul\":11951:11985   */\n          0x45524332303a207472616e7366657220746f20746865207a65726f2061646472\n            /* \"#utility.yul\":11947:11948   */\n          0x00\n            /* \"#utility.yul\":11939:11945   */\n          dup3\n            /* \"#utility.yul\":11935:11949   */\n          add\n            /* \"#utility.yul\":11928:11986   */\n          mstore\n            /* \"#utility.yul\":12020:12025   */\n          0x6573730000000000000000000000000000000000000000000000000000000000\n            /* \"#utility.yul\":12015:12017   */\n          0x20\n            /* \"#utility.yul\":12007:12013   */\n          dup3\n            /* \"#utility.yul\":12003:12018   */\n          add\n            /* \"#utility.yul\":11996:12026   */\n          mstore\n            /* \"#utility.yul\":11811:12033   */\n          pop\n          jump\t// out\n            /* \"#utility.yul\":12039:12405   */\n        tag_173:\n            /* \"#utility.yul\":12181:12184   */\n          0x00\n            /* \"#utility.yul\":12202:12269   */\n          tag_286\n            /* \"#utility.yul\":12266:12268   */\n          0x23\n            /* \"#utility.yul\":12261:12264   */\n          dup4\n            /* \"#utility.yul\":12202:12269   */\n          tag_141\n          jump\t// in\n        tag_286:\n            /* \"#utility.yul\":12195:12269   */\n          swap2\n          pop\n            /* \"#utility.yul\":12278:12371   */\n          tag_287\n            /* \"#utility.yul\":12367:12370   */\n          dup3\n            /* \"#utility.yul\":12278:12371   */\n          tag_172\n          jump\t// in\n        tag_287:\n            /* \"#utility.yul\":12396:12398   */\n          0x40\n            /* \"#utility.yul\":12391:12394   */\n          dup3\n            /* \"#utility.yul\":12387:12399   */\n          add\n            /* \"#utility.yul\":12380:12399   */\n          swap1\n          pop\n            /* \"#utility.yul\":12039:12405   */\n          swap2\n          swap1\n          pop\n          jump\t// out\n            /* \"#utility.yul\":12411:12830   */\n        tag_129:\n            /* \"#utility.yul\":12577:12581   */\n          0x00\n            /* \"#utility.yul\":12615:12617   */\n          0x20\n            /* \"#utility.yul\":12604:12613   */\n          dup3\n            /* \"#utility.yul\":12600:12618   */\n          add\n            /* \"#utility.yul\":12592:12618   */\n          swap1\n          pop\n            /* \"#utility.yul\":12664:12673   */\n          dup2\n            /* \"#utility.yul\":12658:12662   */\n          dup2\n            /* \"#utility.yul\":12654:12674   */\n          sub\n            /* \"#utility.yul\":12650:12651   */\n          0x00\n            /* \"#utility.yul\":12639:12648   */\n          dup4\n            /* \"#utility.yul\":12635:12652   */\n          add\n            /* \"#utility.yul\":12628:12675   */\n          mstore\n            /* \"#utility.yul\":12692:12823   */\n          tag_289\n            /* \"#utility.yul\":12818:12822   */\n          dup2\n            /* \"#utility.yul\":12692:12823   */\n          tag_173\n          jump\t// in\n        tag_289:\n            /* \"#utility.yul\":12684:12823   */\n          swap1\n          pop\n            /* \"#utility.yul\":12411:12830   */\n          swap2\n          swap1\n          pop\n          jump\t// out\n            /* \"#utility.yul\":12836:13061   */\n        tag_174:\n            /* \"#utility.yul\":12976:13010   */\n          0x45524332303a207472616e7366657220616d6f756e7420657863656564732062\n            /* \"#utility.yul\":12972:12973   */\n          0x00\n            /* \"#utility.yul\":12964:12970   */\n          dup3\n            /* \"#utility.yul\":12960:12974   */\n          add\n            /* \"#utility.yul\":12953:13011   */\n          mstore\n            /* \"#utility.yul\":13045:13053   */\n          0x616c616e63650000000000000000000000000000000000000000000000000000\n            /* \"#utility.yul\":13040:13042   */\n          0x20\n            /* \"#utility.yul\":13032:13038   */\n          dup3\n            /* \"#utility.yul\":13028:13043   */\n          add\n            /* \"#utility.yul\":13021:13054   */\n          mstore\n            /* \"#utility.yul\":12836:13061   */\n          pop\n          jump\t// out\n            /* \"#utility.yul\":13067:13433   */\n        tag_175:\n            /* \"#utility.yul\":13209:13212   */\n          0x00\n            /* \"#utility.yul\":13230:13297   */\n          tag_292\n            /* \"#utility.yul\":13294:13296   */\n          0x26\n            /* \"#utility.yul\":13289:13292   */\n          dup4\n            /* \"#utility.yul\":13230:13297   */\n          tag_141\n          jump\t// in\n        tag_292:\n            /* \"#utility.yul\":13223:13297   */\n          swap2\n          pop\n            /* \"#utility.yul\":13306:13399   */\n          tag_293\n            /* \"#utility.yul\":13395:13398   */\n          dup3\n            /* \"#utility.yul\":13306:13399   */\n          tag_174\n          jump\t// in\n        tag_293:\n            /* \"#utility.yul\":13424:13426   */\n          0x40\n            /* \"#utility.yul\":13419:13422   */\n          dup3\n            /* \"#utility.yul\":13415:13427   */\n          add\n            /* \"#utility.yul\":13408:13427   */\n          swap1\n          pop\n            /* \"#utility.yul\":13067:13433   */\n          swap2\n          swap1\n          pop\n          jump\t// out\n            /* \"#utility.yul\":13439:13858   */\n        tag_134:\n            /* \"#utility.yul\":13605:13609   */\n          0x00\n            /* \"#utility.yul\":13643:13645   */\n          0x20\n            /* \"#utility.yul\":13632:13641   */\n          dup3\n            /* \"#utility.yul\":13628:13646   */\n          add\n            /* \"#utility.yul\":13620:13646   */\n          swap1\n          pop\n            /* \"#utility.yul\":13692:13701   */\n          dup2\n            /* \"#utility.yul\":13686:13690   */\n          dup2\n            /* \"#utility.yul\":13682:13702   */\n          sub\n            /* \"#utility.yul\":13678:13679   */\n          0x00\n            /* \"#utility.yul\":13667:13676   */\n          dup4\n            /* \"#utility.yul\":13663:13680   */\n          add\n            /* \"#utility.yul\":13656:13703   */\n          mstore\n            /* \"#utility.yul\":13720:13851   */\n          tag_295\n            /* \"#utility.yul\":13846:13850   */\n          dup2\n            /* \"#utility.yul\":13720:13851   */\n          tag_175\n          jump\t// in\n        tag_295:\n            /* \"#utility.yul\":13712:13851   */\n          swap1\n          pop\n            /* \"#utility.yul\":13439:13858   */\n          swap2\n          swap1\n          pop\n          jump\t// out\n\n        auxdata: 0xa264697066735822122040dad8a7e6f39b16eb1de9c6f0de0dd28d0bcec26e00341cc354884487ba7f7f64736f6c634300080d0033\n    }\n}\n",
				"bytecode": {
					"linkReferences": {},
					"object": "608060405260c860005534801561001557600080fd5b50604051611d9b380380611d9b833981810160405281019061003791906100f9565b80604051610044906100b1565b61004e9190610135565b604051809103906000f08015801561006a573d6000803e3d6000fd5b50600160006101000a81548173ffffffffffffffffffffffffffffffffffffffff021916908373ffffffffffffffffffffffffffffffffffffffff16021790555050610150565b6117948061060783390190565b600080fd5b6000819050919050565b6100d6816100c3565b81146100e157600080fd5b50565b6000815190506100f3816100cd565b92915050565b60006020828403121561010f5761010e6100be565b5b600061011d848285016100e4565b91505092915050565b61012f816100c3565b82525050565b600060208201905061014a6000830184610126565b92915050565b6104a88061015f6000396000f3fe60806040526004361061002d5760003560e01c80632c4e722e1461008c578063fc0c546a146100b757610087565b366100875767016345785d8a0000341161007c576040517f08c379a000000000000000000000000000000000000000000000000000000000815260040161007390610247565b60405180910390fd5b610085346100e2565b005b600080fd5b34801561009857600080fd5b506100a1610198565b6040516100ae9190610280565b60405180910390f35b3480156100c357600080fd5b506100cc61019e565b6040516100d9919061031a565b60405180910390f35b60008054826100f19190610364565b9050600160009054906101000a900473ffffffffffffffffffffffffffffffffffffffff1673ffffffffffffffffffffffffffffffffffffffff1663a9059cbb33836040518363ffffffff1660e01b81526004016101509291906103df565b6020604051808303816000875af115801561016f573d6000803e3d6000fd5b505050506040513d601f19601f820116820180604052508101906101939190610445565b505050565b60005481565b600160009054906101000a900473ffffffffffffffffffffffffffffffffffffffff1681565b600082825260208201905092915050565b7f596f752063616e27742073656e64206c657373207468616e20302e312065746860008201527f6572000000000000000000000000000000000000000000000000000000000000602082015250565b60006102316022836101c4565b915061023c826101d5565b604082019050919050565b6000602082019050818103600083015261026081610224565b9050919050565b6000819050919050565b61027a81610267565b82525050565b60006020820190506102956000830184610271565b92915050565b600073ffffffffffffffffffffffffffffffffffffffff82169050919050565b6000819050919050565b60006102e06102db6102d68461029b565b6102bb565b61029b565b9050919050565b60006102f2826102c5565b9050919050565b6000610304826102e7565b9050919050565b610314816102f9565b82525050565b600060208201905061032f600083018461030b565b92915050565b7f4e487b7100000000000000000000000000000000000000000000000000000000600052601160045260246000fd5b600061036f82610267565b915061037a83610267565b9250817fffffffffffffffffffffffffffffffffffffffffffffffffffffffffffffffff04831182151516156103b3576103b2610335565b5b828202905092915050565b60006103c98261029b565b9050919050565b6103d9816103be565b82525050565b60006040820190506103f460008301856103d0565b6104016020830184610271565b9392505050565b600080fd5b60008115159050919050565b6104228161040d565b811461042d57600080fd5b50565b60008151905061043f81610419565b92915050565b60006020828403121561045b5761045a610408565b5b600061046984828501610430565b9150509291505056fea264697066735822122014505a26a0a975fb9fc0102b239c04262fbd7ef613bc6a0955b53a9e39a36b7364736f6c634300080d003360806040523480156200001157600080fd5b506040516200179438038062001794833981810160405281019062000037919062000357565b6040518060400160405280600481526020017f414c4558000000000000000000000000000000000000000000000000000000008152506040518060400160405280600381526020017f414c5800000000000000000000000000000000000000000000000000000000008152508160039080519060200190620000bb92919062000267565b508060049080519060200190620000d492919062000267565b505050620000e93382620000f060201b60201c565b506200052a565b600073ffffffffffffffffffffffffffffffffffffffff168273ffffffffffffffffffffffffffffffffffffffff160362000162576040517f08c379a00000000000000000000000000000000000000000000000000000000081526004016200015990620003ea565b60405180910390fd5b62000176600083836200025d60201b60201c565b80600260008282546200018a91906200043b565b92505081905550806000808473ffffffffffffffffffffffffffffffffffffffff1673ffffffffffffffffffffffffffffffffffffffff168152602001908152602001600020600082825401925050819055508173ffffffffffffffffffffffffffffffffffffffff16600073ffffffffffffffffffffffffffffffffffffffff167fddf252ad1be2c89b69c2b068fc378daa952ba7f163c4a11628f55a4df523b3ef836040516200023d9190620004a9565b60405180910390a362000259600083836200026260201b60201c565b5050565b505050565b505050565b8280546200027590620004f5565b90600052602060002090601f016020900481019282620002995760008555620002e5565b82601f10620002b457805160ff1916838001178555620002e5565b82800160010185558215620002e5579182015b82811115620002e4578251825591602001919060010190620002c7565b5b509050620002f49190620002f8565b5090565b5b8082111562000313576000816000905550600101620002f9565b5090565b600080fd5b6000819050919050565b62000331816200031c565b81146200033d57600080fd5b50565b600081519050620003518162000326565b92915050565b60006020828403121562000370576200036f62000317565b5b6000620003808482850162000340565b91505092915050565b600082825260208201905092915050565b7f45524332303a206d696e7420746f20746865207a65726f206164647265737300600082015250565b6000620003d2601f8362000389565b9150620003df826200039a565b602082019050919050565b600060208201905081810360008301526200040581620003c3565b9050919050565b7f4e487b7100000000000000000000000000000000000000000000000000000000600052601160045260246000fd5b600062000448826200031c565b915062000455836200031c565b9250827fffffffffffffffffffffffffffffffffffffffffffffffffffffffffffffffff038211156200048d576200048c6200040c565b5b828201905092915050565b620004a3816200031c565b82525050565b6000602082019050620004c0600083018462000498565b92915050565b7f4e487b7100000000000000000000000000000000000000000000000000000000600052602260045260246000fd5b600060028204905060018216806200050e57607f821691505b602082108103620005245762000523620004c6565b5b50919050565b61125a806200053a6000396000f3fe608060405234801561001057600080fd5b50600436106100a95760003560e01c80633950935111610071578063395093511461016857806370a082311461019857806395d89b41146101c8578063a457c2d7146101e6578063a9059cbb14610216578063dd62ed3e14610246576100a9565b806306fdde03146100ae578063095ea7b3146100cc57806318160ddd146100fc57806323b872dd1461011a578063313ce5671461014a575b600080fd5b6100b6610276565b6040516100c39190610b15565b60405180910390f35b6100e660048036038101906100e19190610bd0565b610308565b6040516100f39190610c2b565b60405180910390f35b61010461032b565b6040516101119190610c55565b60405180910390f35b610134600480360381019061012f9190610c70565b610335565b6040516101419190610c2b565b60405180910390f35b610152610364565b60405161015f9190610cdf565b60405180910390f35b610182600480360381019061017d9190610bd0565b61036d565b60405161018f9190610c2b565b60405180910390f35b6101b260048036038101906101ad9190610cfa565b6103a4565b6040516101bf9190610c55565b60405180910390f35b6101d06103ec565b6040516101dd9190610b15565b60405180910390f35b61020060048036038101906101fb9190610bd0565b61047e565b60405161020d9190610c2b565b60405180910390f35b610230600480360381019061022b9190610bd0565b6104f5565b60405161023d9190610c2b565b60405180910390f35b610260600480360381019061025b9190610d27565b610518565b60405161026d9190610c55565b60405180910390f35b60606003805461028590610d96565b80601f01602080910402602001604051908101604052809291908181526020018280546102b190610d96565b80156102fe5780601f106102d3576101008083540402835291602001916102fe565b820191906000526020600020905b8154815290600101906020018083116102e157829003601f168201915b5050505050905090565b60008061031361059f565b90506103208185856105a7565b600191505092915050565b6000600254905090565b60008061034061059f565b905061034d858285610770565b6103588585856107fc565b60019150509392505050565b60006012905090565b60008061037861059f565b905061039981858561038a8589610518565b6103949190610df6565b6105a7565b600191505092915050565b60008060008373ffffffffffffffffffffffffffffffffffffffff1673ffffffffffffffffffffffffffffffffffffffff168152602001908152602001600020549050919050565b6060600480546103fb90610d96565b80601f016020809104026020016040519081016040528092919081815260200182805461042790610d96565b80156104745780601f1061044957610100808354040283529160200191610474565b820191906000526020600020905b81548152906001019060200180831161045757829003601f168201915b5050505050905090565b60008061048961059f565b905060006104978286610518565b9050838110156104dc576040517f08c379a00000000000000000000000000000000000000000000000000000000081526004016104d390610ebe565b60405180910390fd5b6104e982868684036105a7565b60019250505092915050565b60008061050061059f565b905061050d8185856107fc565b600191505092915050565b6000600160008473ffffffffffffffffffffffffffffffffffffffff1673ffffffffffffffffffffffffffffffffffffffff16815260200190815260200160002060008373ffffffffffffffffffffffffffffffffffffffff1673ffffffffffffffffffffffffffffffffffffffff16815260200190815260200160002054905092915050565b600033905090565b600073ffffffffffffffffffffffffffffffffffffffff168373ffffffffffffffffffffffffffffffffffffffff1603610616576040517f08c379a000000000000000000000000000000000000000000000000000000000815260040161060d90610f50565b60405180910390fd5b600073ffffffffffffffffffffffffffffffffffffffff168273ffffffffffffffffffffffffffffffffffffffff1603610685576040517f08c379a000000000000000000000000000000000000000000000000000000000815260040161067c90610fe2565b60405180910390fd5b80600160008573ffffffffffffffffffffffffffffffffffffffff1673ffffffffffffffffffffffffffffffffffffffff16815260200190815260200160002060008473ffffffffffffffffffffffffffffffffffffffff1673ffffffffffffffffffffffffffffffffffffffff168152602001908152602001600020819055508173ffffffffffffffffffffffffffffffffffffffff168373ffffffffffffffffffffffffffffffffffffffff167f8c5be1e5ebec7d5bd14f71427d1e84f3dd0314c0f7b2291e5b200ac8c7c3b925836040516107639190610c55565b60405180910390a3505050565b600061077c8484610518565b90507fffffffffffffffffffffffffffffffffffffffffffffffffffffffffffffffff81146107f657818110156107e8576040517f08c379a00000000000000000000000000000000000000000000000000000000081526004016107df9061104e565b60405180910390fd5b6107f584848484036105a7565b5b50505050565b600073ffffffffffffffffffffffffffffffffffffffff168373ffffffffffffffffffffffffffffffffffffffff160361086b576040517f08c379a0000000000000000000000000000000000000000000000000000000008152600401610862906110e0565b60405180910390fd5b600073ffffffffffffffffffffffffffffffffffffffff168273ffffffffffffffffffffffffffffffffffffffff16036108da576040517f08c379a00000000000000000000000000000000000000000000000000000000081526004016108d190611172565b60405180910390fd5b6108e5838383610a72565b60008060008573ffffffffffffffffffffffffffffffffffffffff1673ffffffffffffffffffffffffffffffffffffffff1681526020019081526020016000205490508181101561096b576040517f08c379a000000000000000000000000000000000000000000000000000000000815260040161096290611204565b60405180910390fd5b8181036000808673ffffffffffffffffffffffffffffffffffffffff1673ffffffffffffffffffffffffffffffffffffffff16815260200190815260200160002081905550816000808573ffffffffffffffffffffffffffffffffffffffff1673ffffffffffffffffffffffffffffffffffffffff168152602001908152602001600020600082825401925050819055508273ffffffffffffffffffffffffffffffffffffffff168473ffffffffffffffffffffffffffffffffffffffff167fddf252ad1be2c89b69c2b068fc378daa952ba7f163c4a11628f55a4df523b3ef84604051610a599190610c55565b60405180910390a3610a6c848484610a77565b50505050565b505050565b505050565b600081519050919050565b600082825260208201905092915050565b60005b83811015610ab6578082015181840152602081019050610a9b565b83811115610ac5576000848401525b50505050565b6000601f19601f8301169050919050565b6000610ae782610a7c565b610af18185610a87565b9350610b01818560208601610a98565b610b0a81610acb565b840191505092915050565b60006020820190508181036000830152610b2f8184610adc565b905092915050565b600080fd5b600073ffffffffffffffffffffffffffffffffffffffff82169050919050565b6000610b6782610b3c565b9050919050565b610b7781610b5c565b8114610b8257600080fd5b50565b600081359050610b9481610b6e565b92915050565b6000819050919050565b610bad81610b9a565b8114610bb857600080fd5b50565b600081359050610bca81610ba4565b92915050565b60008060408385031215610be757610be6610b37565b5b6000610bf585828601610b85565b9250506020610c0685828601610bbb565b9150509250929050565b60008115159050919050565b610c2581610c10565b82525050565b6000602082019050610c406000830184610c1c565b92915050565b610c4f81610b9a565b82525050565b6000602082019050610c6a6000830184610c46565b92915050565b600080600060608486031215610c8957610c88610b37565b5b6000610c9786828701610b85565b9350506020610ca886828701610b85565b9250506040610cb986828701610bbb565b9150509250925092565b600060ff82169050919050565b610cd981610cc3565b82525050565b6000602082019050610cf46000830184610cd0565b92915050565b600060208284031215610d1057610d0f610b37565b5b6000610d1e84828501610b85565b91505092915050565b60008060408385031215610d3e57610d3d610b37565b5b6000610d4c85828601610b85565b9250506020610d5d85828601610b85565b9150509250929050565b7f4e487b7100000000000000000000000000000000000000000000000000000000600052602260045260246000fd5b60006002820490506001821680610dae57607f821691505b602082108103610dc157610dc0610d67565b5b50919050565b7f4e487b7100000000000000000000000000000000000000000000000000000000600052601160045260246000fd5b6000610e0182610b9a565b9150610e0c83610b9a565b9250827fffffffffffffffffffffffffffffffffffffffffffffffffffffffffffffffff03821115610e4157610e40610dc7565b5b828201905092915050565b7f45524332303a2064656372656173656420616c6c6f77616e63652062656c6f7760008201527f207a65726f000000000000000000000000000000000000000000000000000000602082015250565b6000610ea8602583610a87565b9150610eb382610e4c565b604082019050919050565b60006020820190508181036000830152610ed781610e9b565b9050919050565b7f45524332303a20617070726f76652066726f6d20746865207a65726f2061646460008201527f7265737300000000000000000000000000000000000000000000000000000000602082015250565b6000610f3a602483610a87565b9150610f4582610ede565b604082019050919050565b60006020820190508181036000830152610f6981610f2d565b9050919050565b7f45524332303a20617070726f766520746f20746865207a65726f20616464726560008201527f7373000000000000000000000000000000000000000000000000000000000000602082015250565b6000610fcc602283610a87565b9150610fd782610f70565b604082019050919050565b60006020820190508181036000830152610ffb81610fbf565b9050919050565b7f45524332303a20696e73756666696369656e7420616c6c6f77616e6365000000600082015250565b6000611038601d83610a87565b915061104382611002565b602082019050919050565b600060208201905081810360008301526110678161102b565b9050919050565b7f45524332303a207472616e736665722066726f6d20746865207a65726f20616460008201527f6472657373000000000000000000000000000000000000000000000000000000602082015250565b60006110ca602583610a87565b91506110d58261106e565b604082019050919050565b600060208201905081810360008301526110f9816110bd565b9050919050565b7f45524332303a207472616e7366657220746f20746865207a65726f206164647260008201527f6573730000000000000000000000000000000000000000000000000000000000602082015250565b600061115c602383610a87565b915061116782611100565b604082019050919050565b6000602082019050818103600083015261118b8161114f565b9050919050565b7f45524332303a207472616e7366657220616d6f756e742065786365656473206260008201527f616c616e63650000000000000000000000000000000000000000000000000000602082015250565b60006111ee602683610a87565b91506111f982611192565b604082019050919050565b6000602082019050818103600083015261121d816111e1565b905091905056fea264697066735822122040dad8a7e6f39b16eb1de9c6f0de0dd28d0bcec26e00341cc354884487ba7f7f64736f6c634300080d0033",
					"opcodes": "PUSH1 0x80 PUSH1 0x40 MSTORE PUSH1 0xC8 PUSH1 0x0 SSTORE CALLVALUE DUP1 ISZERO PUSH2 0x15 JUMPI PUSH1 0x0 DUP1 REVERT JUMPDEST POP PUSH1 0x40 MLOAD PUSH2 0x1D9B CODESIZE SUB DUP1 PUSH2 0x1D9B DUP4 CODECOPY DUP2 DUP2 ADD PUSH1 0x40 MSTORE DUP2 ADD SWAP1 PUSH2 0x37 SWAP2 SWAP1 PUSH2 0xF9 JUMP JUMPDEST DUP1 PUSH1 0x40 MLOAD PUSH2 0x44 SWAP1 PUSH2 0xB1 JUMP JUMPDEST PUSH2 0x4E SWAP2 SWAP1 PUSH2 0x135 JUMP JUMPDEST PUSH1 0x40 MLOAD DUP1 SWAP2 SUB SWAP1 PUSH1 0x0 CREATE DUP1 ISZERO DUP1 ISZERO PUSH2 0x6A JUMPI RETURNDATASIZE PUSH1 0x0 DUP1 RETURNDATACOPY RETURNDATASIZE PUSH1 0x0 REVERT JUMPDEST POP PUSH1 0x1 PUSH1 0x0 PUSH2 0x100 EXP DUP2 SLOAD DUP2 PUSH20 0xFFFFFFFFFFFFFFFFFFFFFFFFFFFFFFFFFFFFFFFF MUL NOT AND SWAP1 DUP4 PUSH20 0xFFFFFFFFFFFFFFFFFFFFFFFFFFFFFFFFFFFFFFFF AND MUL OR SWAP1 SSTORE POP POP PUSH2 0x150 JUMP JUMPDEST PUSH2 0x1794 DUP1 PUSH2 0x607 DUP4 CODECOPY ADD SWAP1 JUMP JUMPDEST PUSH1 0x0 DUP1 REVERT JUMPDEST PUSH1 0x0 DUP2 SWAP1 POP SWAP2 SWAP1 POP JUMP JUMPDEST PUSH2 0xD6 DUP2 PUSH2 0xC3 JUMP JUMPDEST DUP2 EQ PUSH2 0xE1 JUMPI PUSH1 0x0 DUP1 REVERT JUMPDEST POP JUMP JUMPDEST PUSH1 0x0 DUP2 MLOAD SWAP1 POP PUSH2 0xF3 DUP2 PUSH2 0xCD JUMP JUMPDEST SWAP3 SWAP2 POP POP JUMP JUMPDEST PUSH1 0x0 PUSH1 0x20 DUP3 DUP5 SUB SLT ISZERO PUSH2 0x10F JUMPI PUSH2 0x10E PUSH2 0xBE JUMP JUMPDEST JUMPDEST PUSH1 0x0 PUSH2 0x11D DUP5 DUP3 DUP6 ADD PUSH2 0xE4 JUMP JUMPDEST SWAP2 POP POP SWAP3 SWAP2 POP POP JUMP JUMPDEST PUSH2 0x12F DUP2 PUSH2 0xC3 JUMP JUMPDEST DUP3 MSTORE POP POP JUMP JUMPDEST PUSH1 0x0 PUSH1 0x20 DUP3 ADD SWAP1 POP PUSH2 0x14A PUSH1 0x0 DUP4 ADD DUP5 PUSH2 0x126 JUMP JUMPDEST SWAP3 SWAP2 POP POP JUMP JUMPDEST PUSH2 0x4A8 DUP1 PUSH2 0x15F PUSH1 0x0 CODECOPY PUSH1 0x0 RETURN INVALID PUSH1 0x80 PUSH1 0x40 MSTORE PUSH1 0x4 CALLDATASIZE LT PUSH2 0x2D JUMPI PUSH1 0x0 CALLDATALOAD PUSH1 0xE0 SHR DUP1 PUSH4 0x2C4E722E EQ PUSH2 0x8C JUMPI DUP1 PUSH4 0xFC0C546A EQ PUSH2 0xB7 JUMPI PUSH2 0x87 JUMP JUMPDEST CALLDATASIZE PUSH2 0x87 JUMPI PUSH8 0x16345785D8A0000 CALLVALUE GT PUSH2 0x7C JUMPI PUSH1 0x40 MLOAD PUSH32 0x8C379A000000000000000000000000000000000000000000000000000000000 DUP2 MSTORE PUSH1 0x4 ADD PUSH2 0x73 SWAP1 PUSH2 0x247 JUMP JUMPDEST PUSH1 0x40 MLOAD DUP1 SWAP2 SUB SWAP1 REVERT JUMPDEST PUSH2 0x85 CALLVALUE PUSH2 0xE2 JUMP JUMPDEST STOP JUMPDEST PUSH1 0x0 DUP1 REVERT JUMPDEST CALLVALUE DUP1 ISZERO PUSH2 0x98 JUMPI PUSH1 0x0 DUP1 REVERT JUMPDEST POP PUSH2 0xA1 PUSH2 0x198 JUMP JUMPDEST PUSH1 0x40 MLOAD PUSH2 0xAE SWAP2 SWAP1 PUSH2 0x280 JUMP JUMPDEST PUSH1 0x40 MLOAD DUP1 SWAP2 SUB SWAP1 RETURN JUMPDEST CALLVALUE DUP1 ISZERO PUSH2 0xC3 JUMPI PUSH1 0x0 DUP1 REVERT JUMPDEST POP PUSH2 0xCC PUSH2 0x19E JUMP JUMPDEST PUSH1 0x40 MLOAD PUSH2 0xD9 SWAP2 SWAP1 PUSH2 0x31A JUMP JUMPDEST PUSH1 0x40 MLOAD DUP1 SWAP2 SUB SWAP1 RETURN JUMPDEST PUSH1 0x0 DUP1 SLOAD DUP3 PUSH2 0xF1 SWAP2 SWAP1 PUSH2 0x364 JUMP JUMPDEST SWAP1 POP PUSH1 0x1 PUSH1 0x0 SWAP1 SLOAD SWAP1 PUSH2 0x100 EXP SWAP1 DIV PUSH20 0xFFFFFFFFFFFFFFFFFFFFFFFFFFFFFFFFFFFFFFFF AND PUSH20 0xFFFFFFFFFFFFFFFFFFFFFFFFFFFFFFFFFFFFFFFF AND PUSH4 0xA9059CBB CALLER DUP4 PUSH1 0x40 MLOAD DUP4 PUSH4 0xFFFFFFFF AND PUSH1 0xE0 SHL DUP2 MSTORE PUSH1 0x4 ADD PUSH2 0x150 SWAP3 SWAP2 SWAP1 PUSH2 0x3DF JUMP JUMPDEST PUSH1 0x20 PUSH1 0x40 MLOAD DUP1 DUP4 SUB DUP2 PUSH1 0x0 DUP8 GAS CALL ISZERO DUP1 ISZERO PUSH2 0x16F JUMPI RETURNDATASIZE PUSH1 0x0 DUP1 RETURNDATACOPY RETURNDATASIZE PUSH1 0x0 REVERT JUMPDEST POP POP POP POP PUSH1 0x40 MLOAD RETURNDATASIZE PUSH1 0x1F NOT PUSH1 0x1F DUP3 ADD AND DUP3 ADD DUP1 PUSH1 0x40 MSTORE POP DUP2 ADD SWAP1 PUSH2 0x193 SWAP2 SWAP1 PUSH2 0x445 JUMP JUMPDEST POP POP POP JUMP JUMPDEST PUSH1 0x0 SLOAD DUP2 JUMP JUMPDEST PUSH1 0x1 PUSH1 0x0 SWAP1 SLOAD SWAP1 PUSH2 0x100 EXP SWAP1 DIV PUSH20 0xFFFFFFFFFFFFFFFFFFFFFFFFFFFFFFFFFFFFFFFF AND DUP2 JUMP JUMPDEST PUSH1 0x0 DUP3 DUP3 MSTORE PUSH1 0x20 DUP3 ADD SWAP1 POP SWAP3 SWAP2 POP POP JUMP JUMPDEST PUSH32 0x596F752063616E27742073656E64206C657373207468616E20302E3120657468 PUSH1 0x0 DUP3 ADD MSTORE PUSH32 0x6572000000000000000000000000000000000000000000000000000000000000 PUSH1 0x20 DUP3 ADD MSTORE POP JUMP JUMPDEST PUSH1 0x0 PUSH2 0x231 PUSH1 0x22 DUP4 PUSH2 0x1C4 JUMP JUMPDEST SWAP2 POP PUSH2 0x23C DUP3 PUSH2 0x1D5 JUMP JUMPDEST PUSH1 0x40 DUP3 ADD SWAP1 POP SWAP2 SWAP1 POP JUMP JUMPDEST PUSH1 0x0 PUSH1 0x20 DUP3 ADD SWAP1 POP DUP2 DUP2 SUB PUSH1 0x0 DUP4 ADD MSTORE PUSH2 0x260 DUP2 PUSH2 0x224 JUMP JUMPDEST SWAP1 POP SWAP2 SWAP1 POP JUMP JUMPDEST PUSH1 0x0 DUP2 SWAP1 POP SWAP2 SWAP1 POP JUMP JUMPDEST PUSH2 0x27A DUP2 PUSH2 0x267 JUMP JUMPDEST DUP3 MSTORE POP POP JUMP JUMPDEST PUSH1 0x0 PUSH1 0x20 DUP3 ADD SWAP1 POP PUSH2 0x295 PUSH1 0x0 DUP4 ADD DUP5 PUSH2 0x271 JUMP JUMPDEST SWAP3 SWAP2 POP POP JUMP JUMPDEST PUSH1 0x0 PUSH20 0xFFFFFFFFFFFFFFFFFFFFFFFFFFFFFFFFFFFFFFFF DUP3 AND SWAP1 POP SWAP2 SWAP1 POP JUMP JUMPDEST PUSH1 0x0 DUP2 SWAP1 POP SWAP2 SWAP1 POP JUMP JUMPDEST PUSH1 0x0 PUSH2 0x2E0 PUSH2 0x2DB PUSH2 0x2D6 DUP5 PUSH2 0x29B JUMP JUMPDEST PUSH2 0x2BB JUMP JUMPDEST PUSH2 0x29B JUMP JUMPDEST SWAP1 POP SWAP2 SWAP1 POP JUMP JUMPDEST PUSH1 0x0 PUSH2 0x2F2 DUP3 PUSH2 0x2C5 JUMP JUMPDEST SWAP1 POP SWAP2 SWAP1 POP JUMP JUMPDEST PUSH1 0x0 PUSH2 0x304 DUP3 PUSH2 0x2E7 JUMP JUMPDEST SWAP1 POP SWAP2 SWAP1 POP JUMP JUMPDEST PUSH2 0x314 DUP2 PUSH2 0x2F9 JUMP JUMPDEST DUP3 MSTORE POP POP JUMP JUMPDEST PUSH1 0x0 PUSH1 0x20 DUP3 ADD SWAP1 POP PUSH2 0x32F PUSH1 0x0 DUP4 ADD DUP5 PUSH2 0x30B JUMP JUMPDEST SWAP3 SWAP2 POP POP JUMP JUMPDEST PUSH32 0x4E487B7100000000000000000000000000000000000000000000000000000000 PUSH1 0x0 MSTORE PUSH1 0x11 PUSH1 0x4 MSTORE PUSH1 0x24 PUSH1 0x0 REVERT JUMPDEST PUSH1 0x0 PUSH2 0x36F DUP3 PUSH2 0x267 JUMP JUMPDEST SWAP2 POP PUSH2 0x37A DUP4 PUSH2 0x267 JUMP JUMPDEST SWAP3 POP DUP2 PUSH32 0xFFFFFFFFFFFFFFFFFFFFFFFFFFFFFFFFFFFFFFFFFFFFFFFFFFFFFFFFFFFFFFFF DIV DUP4 GT DUP3 ISZERO ISZERO AND ISZERO PUSH2 0x3B3 JUMPI PUSH2 0x3B2 PUSH2 0x335 JUMP JUMPDEST JUMPDEST DUP3 DUP3 MUL SWAP1 POP SWAP3 SWAP2 POP POP JUMP JUMPDEST PUSH1 0x0 PUSH2 0x3C9 DUP3 PUSH2 0x29B JUMP JUMPDEST SWAP1 POP SWAP2 SWAP1 POP JUMP JUMPDEST PUSH2 0x3D9 DUP2 PUSH2 0x3BE JUMP JUMPDEST DUP3 MSTORE POP POP JUMP JUMPDEST PUSH1 0x0 PUSH1 0x40 DUP3 ADD SWAP1 POP PUSH2 0x3F4 PUSH1 0x0 DUP4 ADD DUP6 PUSH2 0x3D0 JUMP JUMPDEST PUSH2 0x401 PUSH1 0x20 DUP4 ADD DUP5 PUSH2 0x271 JUMP JUMPDEST SWAP4 SWAP3 POP POP POP JUMP JUMPDEST PUSH1 0x0 DUP1 REVERT JUMPDEST PUSH1 0x0 DUP2 ISZERO ISZERO SWAP1 POP SWAP2 SWAP1 POP JUMP JUMPDEST PUSH2 0x422 DUP2 PUSH2 0x40D JUMP JUMPDEST DUP2 EQ PUSH2 0x42D JUMPI PUSH1 0x0 DUP1 REVERT JUMPDEST POP JUMP JUMPDEST PUSH1 0x0 DUP2 MLOAD SWAP1 POP PUSH2 0x43F DUP2 PUSH2 0x419 JUMP JUMPDEST SWAP3 SWAP2 POP POP JUMP JUMPDEST PUSH1 0x0 PUSH1 0x20 DUP3 DUP5 SUB SLT ISZERO PUSH2 0x45B JUMPI PUSH2 0x45A PUSH2 0x408 JUMP JUMPDEST JUMPDEST PUSH1 0x0 PUSH2 0x469 DUP5 DUP3 DUP6 ADD PUSH2 0x430 JUMP JUMPDEST SWAP2 POP POP SWAP3 SWAP2 POP POP JUMP INVALID LOG2 PUSH5 0x6970667358 0x22 SLT KECCAK256 EQ POP GAS 0x26 LOG0 0xA9 PUSH22 0xFB9FC0102B239C04262FBD7EF613BC6A0955B53A9E39 LOG3 PUSH12 0x7364736F6C634300080D0033 PUSH1 0x80 PUSH1 0x40 MSTORE CALLVALUE DUP1 ISZERO PUSH3 0x11 JUMPI PUSH1 0x0 DUP1 REVERT JUMPDEST POP PUSH1 0x40 MLOAD PUSH3 0x1794 CODESIZE SUB DUP1 PUSH3 0x1794 DUP4 CODECOPY DUP2 DUP2 ADD PUSH1 0x40 MSTORE DUP2 ADD SWAP1 PUSH3 0x37 SWAP2 SWAP1 PUSH3 0x357 JUMP JUMPDEST PUSH1 0x40 MLOAD DUP1 PUSH1 0x40 ADD PUSH1 0x40 MSTORE DUP1 PUSH1 0x4 DUP2 MSTORE PUSH1 0x20 ADD PUSH32 0x414C455800000000000000000000000000000000000000000000000000000000 DUP2 MSTORE POP PUSH1 0x40 MLOAD DUP1 PUSH1 0x40 ADD PUSH1 0x40 MSTORE DUP1 PUSH1 0x3 DUP2 MSTORE PUSH1 0x20 ADD PUSH32 0x414C580000000000000000000000000000000000000000000000000000000000 DUP2 MSTORE POP DUP2 PUSH1 0x3 SWAP1 DUP1 MLOAD SWAP1 PUSH1 0x20 ADD SWAP1 PUSH3 0xBB SWAP3 SWAP2 SWAP1 PUSH3 0x267 JUMP JUMPDEST POP DUP1 PUSH1 0x4 SWAP1 DUP1 MLOAD SWAP1 PUSH1 0x20 ADD SWAP1 PUSH3 0xD4 SWAP3 SWAP2 SWAP1 PUSH3 0x267 JUMP JUMPDEST POP POP POP PUSH3 0xE9 CALLER DUP3 PUSH3 0xF0 PUSH1 0x20 SHL PUSH1 0x20 SHR JUMP JUMPDEST POP PUSH3 0x52A JUMP JUMPDEST PUSH1 0x0 PUSH20 0xFFFFFFFFFFFFFFFFFFFFFFFFFFFFFFFFFFFFFFFF AND DUP3 PUSH20 0xFFFFFFFFFFFFFFFFFFFFFFFFFFFFFFFFFFFFFFFF AND SUB PUSH3 0x162 JUMPI PUSH1 0x40 MLOAD PUSH32 0x8C379A000000000000000000000000000000000000000000000000000000000 DUP2 MSTORE PUSH1 0x4 ADD PUSH3 0x159 SWAP1 PUSH3 0x3EA JUMP JUMPDEST PUSH1 0x40 MLOAD DUP1 SWAP2 SUB SWAP1 REVERT JUMPDEST PUSH3 0x176 PUSH1 0x0 DUP4 DUP4 PUSH3 0x25D PUSH1 0x20 SHL PUSH1 0x20 SHR JUMP JUMPDEST DUP1 PUSH1 0x2 PUSH1 0x0 DUP3 DUP3 SLOAD PUSH3 0x18A SWAP2 SWAP1 PUSH3 0x43B JUMP JUMPDEST SWAP3 POP POP DUP2 SWAP1 SSTORE POP DUP1 PUSH1 0x0 DUP1 DUP5 PUSH20 0xFFFFFFFFFFFFFFFFFFFFFFFFFFFFFFFFFFFFFFFF AND PUSH20 0xFFFFFFFFFFFFFFFFFFFFFFFFFFFFFFFFFFFFFFFF AND DUP2 MSTORE PUSH1 0x20 ADD SWAP1 DUP2 MSTORE PUSH1 0x20 ADD PUSH1 0x0 KECCAK256 PUSH1 0x0 DUP3 DUP3 SLOAD ADD SWAP3 POP POP DUP2 SWAP1 SSTORE POP DUP2 PUSH20 0xFFFFFFFFFFFFFFFFFFFFFFFFFFFFFFFFFFFFFFFF AND PUSH1 0x0 PUSH20 0xFFFFFFFFFFFFFFFFFFFFFFFFFFFFFFFFFFFFFFFF AND PUSH32 0xDDF252AD1BE2C89B69C2B068FC378DAA952BA7F163C4A11628F55A4DF523B3EF DUP4 PUSH1 0x40 MLOAD PUSH3 0x23D SWAP2 SWAP1 PUSH3 0x4A9 JUMP JUMPDEST PUSH1 0x40 MLOAD DUP1 SWAP2 SUB SWAP1 LOG3 PUSH3 0x259 PUSH1 0x0 DUP4 DUP4 PUSH3 0x262 PUSH1 0x20 SHL PUSH1 0x20 SHR JUMP JUMPDEST POP POP JUMP JUMPDEST POP POP POP JUMP JUMPDEST POP POP POP JUMP JUMPDEST DUP3 DUP1 SLOAD PUSH3 0x275 SWAP1 PUSH3 0x4F5 JUMP JUMPDEST SWAP1 PUSH1 0x0 MSTORE PUSH1 0x20 PUSH1 0x0 KECCAK256 SWAP1 PUSH1 0x1F ADD PUSH1 0x20 SWAP1 DIV DUP2 ADD SWAP3 DUP3 PUSH3 0x299 JUMPI PUSH1 0x0 DUP6 SSTORE PUSH3 0x2E5 JUMP JUMPDEST DUP3 PUSH1 0x1F LT PUSH3 0x2B4 JUMPI DUP1 MLOAD PUSH1 0xFF NOT AND DUP4 DUP1 ADD OR DUP6 SSTORE PUSH3 0x2E5 JUMP JUMPDEST DUP3 DUP1 ADD PUSH1 0x1 ADD DUP6 SSTORE DUP3 ISZERO PUSH3 0x2E5 JUMPI SWAP2 DUP3 ADD JUMPDEST DUP3 DUP2 GT ISZERO PUSH3 0x2E4 JUMPI DUP3 MLOAD DUP3 SSTORE SWAP2 PUSH1 0x20 ADD SWAP2 SWAP1 PUSH1 0x1 ADD SWAP1 PUSH3 0x2C7 JUMP JUMPDEST JUMPDEST POP SWAP1 POP PUSH3 0x2F4 SWAP2 SWAP1 PUSH3 0x2F8 JUMP JUMPDEST POP SWAP1 JUMP JUMPDEST JUMPDEST DUP1 DUP3 GT ISZERO PUSH3 0x313 JUMPI PUSH1 0x0 DUP2 PUSH1 0x0 SWAP1 SSTORE POP PUSH1 0x1 ADD PUSH3 0x2F9 JUMP JUMPDEST POP SWAP1 JUMP JUMPDEST PUSH1 0x0 DUP1 REVERT JUMPDEST PUSH1 0x0 DUP2 SWAP1 POP SWAP2 SWAP1 POP JUMP JUMPDEST PUSH3 0x331 DUP2 PUSH3 0x31C JUMP JUMPDEST DUP2 EQ PUSH3 0x33D JUMPI PUSH1 0x0 DUP1 REVERT JUMPDEST POP JUMP JUMPDEST PUSH1 0x0 DUP2 MLOAD SWAP1 POP PUSH3 0x351 DUP2 PUSH3 0x326 JUMP JUMPDEST SWAP3 SWAP2 POP POP JUMP JUMPDEST PUSH1 0x0 PUSH1 0x20 DUP3 DUP5 SUB SLT ISZERO PUSH3 0x370 JUMPI PUSH3 0x36F PUSH3 0x317 JUMP JUMPDEST JUMPDEST PUSH1 0x0 PUSH3 0x380 DUP5 DUP3 DUP6 ADD PUSH3 0x340 JUMP JUMPDEST SWAP2 POP POP SWAP3 SWAP2 POP POP JUMP JUMPDEST PUSH1 0x0 DUP3 DUP3 MSTORE PUSH1 0x20 DUP3 ADD SWAP1 POP SWAP3 SWAP2 POP POP JUMP JUMPDEST PUSH32 0x45524332303A206D696E7420746F20746865207A65726F206164647265737300 PUSH1 0x0 DUP3 ADD MSTORE POP JUMP JUMPDEST PUSH1 0x0 PUSH3 0x3D2 PUSH1 0x1F DUP4 PUSH3 0x389 JUMP JUMPDEST SWAP2 POP PUSH3 0x3DF DUP3 PUSH3 0x39A JUMP JUMPDEST PUSH1 0x20 DUP3 ADD SWAP1 POP SWAP2 SWAP1 POP JUMP JUMPDEST PUSH1 0x0 PUSH1 0x20 DUP3 ADD SWAP1 POP DUP2 DUP2 SUB PUSH1 0x0 DUP4 ADD MSTORE PUSH3 0x405 DUP2 PUSH3 0x3C3 JUMP JUMPDEST SWAP1 POP SWAP2 SWAP1 POP JUMP JUMPDEST PUSH32 0x4E487B7100000000000000000000000000000000000000000000000000000000 PUSH1 0x0 MSTORE PUSH1 0x11 PUSH1 0x4 MSTORE PUSH1 0x24 PUSH1 0x0 REVERT JUMPDEST PUSH1 0x0 PUSH3 0x448 DUP3 PUSH3 0x31C JUMP JUMPDEST SWAP2 POP PUSH3 0x455 DUP4 PUSH3 0x31C JUMP JUMPDEST SWAP3 POP DUP3 PUSH32 0xFFFFFFFFFFFFFFFFFFFFFFFFFFFFFFFFFFFFFFFFFFFFFFFFFFFFFFFFFFFFFFFF SUB DUP3 GT ISZERO PUSH3 0x48D JUMPI PUSH3 0x48C PUSH3 0x40C JUMP JUMPDEST JUMPDEST DUP3 DUP3 ADD SWAP1 POP SWAP3 SWAP2 POP POP JUMP JUMPDEST PUSH3 0x4A3 DUP2 PUSH3 0x31C JUMP JUMPDEST DUP3 MSTORE POP POP JUMP JUMPDEST PUSH1 0x0 PUSH1 0x20 DUP3 ADD SWAP1 POP PUSH3 0x4C0 PUSH1 0x0 DUP4 ADD DUP5 PUSH3 0x498 JUMP JUMPDEST SWAP3 SWAP2 POP POP JUMP JUMPDEST PUSH32 0x4E487B7100000000000000000000000000000000000000000000000000000000 PUSH1 0x0 MSTORE PUSH1 0x22 PUSH1 0x4 MSTORE PUSH1 0x24 PUSH1 0x0 REVERT JUMPDEST PUSH1 0x0 PUSH1 0x2 DUP3 DIV SWAP1 POP PUSH1 0x1 DUP3 AND DUP1 PUSH3 0x50E JUMPI PUSH1 0x7F DUP3 AND SWAP2 POP JUMPDEST PUSH1 0x20 DUP3 LT DUP2 SUB PUSH3 0x524 JUMPI PUSH3 0x523 PUSH3 0x4C6 JUMP JUMPDEST JUMPDEST POP SWAP2 SWAP1 POP JUMP JUMPDEST PUSH2 0x125A DUP1 PUSH3 0x53A PUSH1 0x0 CODECOPY PUSH1 0x0 RETURN INVALID PUSH1 0x80 PUSH1 0x40 MSTORE CALLVALUE DUP1 ISZERO PUSH2 0x10 JUMPI PUSH1 0x0 DUP1 REVERT JUMPDEST POP PUSH1 0x4 CALLDATASIZE LT PUSH2 0xA9 JUMPI PUSH1 0x0 CALLDATALOAD PUSH1 0xE0 SHR DUP1 PUSH4 0x39509351 GT PUSH2 0x71 JUMPI DUP1 PUSH4 0x39509351 EQ PUSH2 0x168 JUMPI DUP1 PUSH4 0x70A08231 EQ PUSH2 0x198 JUMPI DUP1 PUSH4 0x95D89B41 EQ PUSH2 0x1C8 JUMPI DUP1 PUSH4 0xA457C2D7 EQ PUSH2 0x1E6 JUMPI DUP1 PUSH4 0xA9059CBB EQ PUSH2 0x216 JUMPI DUP1 PUSH4 0xDD62ED3E EQ PUSH2 0x246 JUMPI PUSH2 0xA9 JUMP JUMPDEST DUP1 PUSH4 0x6FDDE03 EQ PUSH2 0xAE JUMPI DUP1 PUSH4 0x95EA7B3 EQ PUSH2 0xCC JUMPI DUP1 PUSH4 0x18160DDD EQ PUSH2 0xFC JUMPI DUP1 PUSH4 0x23B872DD EQ PUSH2 0x11A JUMPI DUP1 PUSH4 0x313CE567 EQ PUSH2 0x14A JUMPI JUMPDEST PUSH1 0x0 DUP1 REVERT JUMPDEST PUSH2 0xB6 PUSH2 0x276 JUMP JUMPDEST PUSH1 0x40 MLOAD PUSH2 0xC3 SWAP2 SWAP1 PUSH2 0xB15 JUMP JUMPDEST PUSH1 0x40 MLOAD DUP1 SWAP2 SUB SWAP1 RETURN JUMPDEST PUSH2 0xE6 PUSH1 0x4 DUP1 CALLDATASIZE SUB DUP2 ADD SWAP1 PUSH2 0xE1 SWAP2 SWAP1 PUSH2 0xBD0 JUMP JUMPDEST PUSH2 0x308 JUMP JUMPDEST PUSH1 0x40 MLOAD PUSH2 0xF3 SWAP2 SWAP1 PUSH2 0xC2B JUMP JUMPDEST PUSH1 0x40 MLOAD DUP1 SWAP2 SUB SWAP1 RETURN JUMPDEST PUSH2 0x104 PUSH2 0x32B JUMP JUMPDEST PUSH1 0x40 MLOAD PUSH2 0x111 SWAP2 SWAP1 PUSH2 0xC55 JUMP JUMPDEST PUSH1 0x40 MLOAD DUP1 SWAP2 SUB SWAP1 RETURN JUMPDEST PUSH2 0x134 PUSH1 0x4 DUP1 CALLDATASIZE SUB DUP2 ADD SWAP1 PUSH2 0x12F SWAP2 SWAP1 PUSH2 0xC70 JUMP JUMPDEST PUSH2 0x335 JUMP JUMPDEST PUSH1 0x40 MLOAD PUSH2 0x141 SWAP2 SWAP1 PUSH2 0xC2B JUMP JUMPDEST PUSH1 0x40 MLOAD DUP1 SWAP2 SUB SWAP1 RETURN JUMPDEST PUSH2 0x152 PUSH2 0x364 JUMP JUMPDEST PUSH1 0x40 MLOAD PUSH2 0x15F SWAP2 SWAP1 PUSH2 0xCDF JUMP JUMPDEST PUSH1 0x40 MLOAD DUP1 SWAP2 SUB SWAP1 RETURN JUMPDEST PUSH2 0x182 PUSH1 0x4 DUP1 CALLDATASIZE SUB DUP2 ADD SWAP1 PUSH2 0x17D SWAP2 SWAP1 PUSH2 0xBD0 JUMP JUMPDEST PUSH2 0x36D JUMP JUMPDEST PUSH1 0x40 MLOAD PUSH2 0x18F SWAP2 SWAP1 PUSH2 0xC2B JUMP JUMPDEST PUSH1 0x40 MLOAD DUP1 SWAP2 SUB SWAP1 RETURN JUMPDEST PUSH2 0x1B2 PUSH1 0x4 DUP1 CALLDATASIZE SUB DUP2 ADD SWAP1 PUSH2 0x1AD SWAP2 SWAP1 PUSH2 0xCFA JUMP JUMPDEST PUSH2 0x3A4 JUMP JUMPDEST PUSH1 0x40 MLOAD PUSH2 0x1BF SWAP2 SWAP1 PUSH2 0xC55 JUMP JUMPDEST PUSH1 0x40 MLOAD DUP1 SWAP2 SUB SWAP1 RETURN JUMPDEST PUSH2 0x1D0 PUSH2 0x3EC JUMP JUMPDEST PUSH1 0x40 MLOAD PUSH2 0x1DD SWAP2 SWAP1 PUSH2 0xB15 JUMP JUMPDEST PUSH1 0x40 MLOAD DUP1 SWAP2 SUB SWAP1 RETURN JUMPDEST PUSH2 0x200 PUSH1 0x4 DUP1 CALLDATASIZE SUB DUP2 ADD SWAP1 PUSH2 0x1FB SWAP2 SWAP1 PUSH2 0xBD0 JUMP JUMPDEST PUSH2 0x47E JUMP JUMPDEST PUSH1 0x40 MLOAD PUSH2 0x20D SWAP2 SWAP1 PUSH2 0xC2B JUMP JUMPDEST PUSH1 0x40 MLOAD DUP1 SWAP2 SUB SWAP1 RETURN JUMPDEST PUSH2 0x230 PUSH1 0x4 DUP1 CALLDATASIZE SUB DUP2 ADD SWAP1 PUSH2 0x22B SWAP2 SWAP1 PUSH2 0xBD0 JUMP JUMPDEST PUSH2 0x4F5 JUMP JUMPDEST PUSH1 0x40 MLOAD PUSH2 0x23D SWAP2 SWAP1 PUSH2 0xC2B JUMP JUMPDEST PUSH1 0x40 MLOAD DUP1 SWAP2 SUB SWAP1 RETURN JUMPDEST PUSH2 0x260 PUSH1 0x4 DUP1 CALLDATASIZE SUB DUP2 ADD SWAP1 PUSH2 0x25B SWAP2 SWAP1 PUSH2 0xD27 JUMP JUMPDEST PUSH2 0x518 JUMP JUMPDEST PUSH1 0x40 MLOAD PUSH2 0x26D SWAP2 SWAP1 PUSH2 0xC55 JUMP JUMPDEST PUSH1 0x40 MLOAD DUP1 SWAP2 SUB SWAP1 RETURN JUMPDEST PUSH1 0x60 PUSH1 0x3 DUP1 SLOAD PUSH2 0x285 SWAP1 PUSH2 0xD96 JUMP JUMPDEST DUP1 PUSH1 0x1F ADD PUSH1 0x20 DUP1 SWAP2 DIV MUL PUSH1 0x20 ADD PUSH1 0x40 MLOAD SWAP1 DUP2 ADD PUSH1 0x40 MSTORE DUP1 SWAP3 SWAP2 SWAP1 DUP2 DUP2 MSTORE PUSH1 0x20 ADD DUP3 DUP1 SLOAD PUSH2 0x2B1 SWAP1 PUSH2 0xD96 JUMP JUMPDEST DUP1 ISZERO PUSH2 0x2FE JUMPI DUP1 PUSH1 0x1F LT PUSH2 0x2D3 JUMPI PUSH2 0x100 DUP1 DUP4 SLOAD DIV MUL DUP4 MSTORE SWAP2 PUSH1 0x20 ADD SWAP2 PUSH2 0x2FE JUMP JUMPDEST DUP3 ADD SWAP2 SWAP1 PUSH1 0x0 MSTORE PUSH1 0x20 PUSH1 0x0 KECCAK256 SWAP1 JUMPDEST DUP2 SLOAD DUP2 MSTORE SWAP1 PUSH1 0x1 ADD SWAP1 PUSH1 0x20 ADD DUP1 DUP4 GT PUSH2 0x2E1 JUMPI DUP3 SWAP1 SUB PUSH1 0x1F AND DUP3 ADD SWAP2 JUMPDEST POP POP POP POP POP SWAP1 POP SWAP1 JUMP JUMPDEST PUSH1 0x0 DUP1 PUSH2 0x313 PUSH2 0x59F JUMP JUMPDEST SWAP1 POP PUSH2 0x320 DUP2 DUP6 DUP6 PUSH2 0x5A7 JUMP JUMPDEST PUSH1 0x1 SWAP2 POP POP SWAP3 SWAP2 POP POP JUMP JUMPDEST PUSH1 0x0 PUSH1 0x2 SLOAD SWAP1 POP SWAP1 JUMP JUMPDEST PUSH1 0x0 DUP1 PUSH2 0x340 PUSH2 0x59F JUMP JUMPDEST SWAP1 POP PUSH2 0x34D DUP6 DUP3 DUP6 PUSH2 0x770 JUMP JUMPDEST PUSH2 0x358 DUP6 DUP6 DUP6 PUSH2 0x7FC JUMP JUMPDEST PUSH1 0x1 SWAP2 POP POP SWAP4 SWAP3 POP POP POP JUMP JUMPDEST PUSH1 0x0 PUSH1 0x12 SWAP1 POP SWAP1 JUMP JUMPDEST PUSH1 0x0 DUP1 PUSH2 0x378 PUSH2 0x59F JUMP JUMPDEST SWAP1 POP PUSH2 0x399 DUP2 DUP6 DUP6 PUSH2 0x38A DUP6 DUP10 PUSH2 0x518 JUMP JUMPDEST PUSH2 0x394 SWAP2 SWAP1 PUSH2 0xDF6 JUMP JUMPDEST PUSH2 0x5A7 JUMP JUMPDEST PUSH1 0x1 SWAP2 POP POP SWAP3 SWAP2 POP POP JUMP JUMPDEST PUSH1 0x0 DUP1 PUSH1 0x0 DUP4 PUSH20 0xFFFFFFFFFFFFFFFFFFFFFFFFFFFFFFFFFFFFFFFF AND PUSH20 0xFFFFFFFFFFFFFFFFFFFFFFFFFFFFFFFFFFFFFFFF AND DUP2 MSTORE PUSH1 0x20 ADD SWAP1 DUP2 MSTORE PUSH1 0x20 ADD PUSH1 0x0 KECCAK256 SLOAD SWAP1 POP SWAP2 SWAP1 POP JUMP JUMPDEST PUSH1 0x60 PUSH1 0x4 DUP1 SLOAD PUSH2 0x3FB SWAP1 PUSH2 0xD96 JUMP JUMPDEST DUP1 PUSH1 0x1F ADD PUSH1 0x20 DUP1 SWAP2 DIV MUL PUSH1 0x20 ADD PUSH1 0x40 MLOAD SWAP1 DUP2 ADD PUSH1 0x40 MSTORE DUP1 SWAP3 SWAP2 SWAP1 DUP2 DUP2 MSTORE PUSH1 0x20 ADD DUP3 DUP1 SLOAD PUSH2 0x427 SWAP1 PUSH2 0xD96 JUMP JUMPDEST DUP1 ISZERO PUSH2 0x474 JUMPI DUP1 PUSH1 0x1F LT PUSH2 0x449 JUMPI PUSH2 0x100 DUP1 DUP4 SLOAD DIV MUL DUP4 MSTORE SWAP2 PUSH1 0x20 ADD SWAP2 PUSH2 0x474 JUMP JUMPDEST DUP3 ADD SWAP2 SWAP1 PUSH1 0x0 MSTORE PUSH1 0x20 PUSH1 0x0 KECCAK256 SWAP1 JUMPDEST DUP2 SLOAD DUP2 MSTORE SWAP1 PUSH1 0x1 ADD SWAP1 PUSH1 0x20 ADD DUP1 DUP4 GT PUSH2 0x457 JUMPI DUP3 SWAP1 SUB PUSH1 0x1F AND DUP3 ADD SWAP2 JUMPDEST POP POP POP POP POP SWAP1 POP SWAP1 JUMP JUMPDEST PUSH1 0x0 DUP1 PUSH2 0x489 PUSH2 0x59F JUMP JUMPDEST SWAP1 POP PUSH1 0x0 PUSH2 0x497 DUP3 DUP7 PUSH2 0x518 JUMP JUMPDEST SWAP1 POP DUP4 DUP2 LT ISZERO PUSH2 0x4DC JUMPI PUSH1 0x40 MLOAD PUSH32 0x8C379A000000000000000000000000000000000000000000000000000000000 DUP2 MSTORE PUSH1 0x4 ADD PUSH2 0x4D3 SWAP1 PUSH2 0xEBE JUMP JUMPDEST PUSH1 0x40 MLOAD DUP1 SWAP2 SUB SWAP1 REVERT JUMPDEST PUSH2 0x4E9 DUP3 DUP7 DUP7 DUP5 SUB PUSH2 0x5A7 JUMP JUMPDEST PUSH1 0x1 SWAP3 POP POP POP SWAP3 SWAP2 POP POP JUMP JUMPDEST PUSH1 0x0 DUP1 PUSH2 0x500 PUSH2 0x59F JUMP JUMPDEST SWAP1 POP PUSH2 0x50D DUP2 DUP6 DUP6 PUSH2 0x7FC JUMP JUMPDEST PUSH1 0x1 SWAP2 POP POP SWAP3 SWAP2 POP POP JUMP JUMPDEST PUSH1 0x0 PUSH1 0x1 PUSH1 0x0 DUP5 PUSH20 0xFFFFFFFFFFFFFFFFFFFFFFFFFFFFFFFFFFFFFFFF AND PUSH20 0xFFFFFFFFFFFFFFFFFFFFFFFFFFFFFFFFFFFFFFFF AND DUP2 MSTORE PUSH1 0x20 ADD SWAP1 DUP2 MSTORE PUSH1 0x20 ADD PUSH1 0x0 KECCAK256 PUSH1 0x0 DUP4 PUSH20 0xFFFFFFFFFFFFFFFFFFFFFFFFFFFFFFFFFFFFFFFF AND PUSH20 0xFFFFFFFFFFFFFFFFFFFFFFFFFFFFFFFFFFFFFFFF AND DUP2 MSTORE PUSH1 0x20 ADD SWAP1 DUP2 MSTORE PUSH1 0x20 ADD PUSH1 0x0 KECCAK256 SLOAD SWAP1 POP SWAP3 SWAP2 POP POP JUMP JUMPDEST PUSH1 0x0 CALLER SWAP1 POP SWAP1 JUMP JUMPDEST PUSH1 0x0 PUSH20 0xFFFFFFFFFFFFFFFFFFFFFFFFFFFFFFFFFFFFFFFF AND DUP4 PUSH20 0xFFFFFFFFFFFFFFFFFFFFFFFFFFFFFFFFFFFFFFFF AND SUB PUSH2 0x616 JUMPI PUSH1 0x40 MLOAD PUSH32 0x8C379A000000000000000000000000000000000000000000000000000000000 DUP2 MSTORE PUSH1 0x4 ADD PUSH2 0x60D SWAP1 PUSH2 0xF50 JUMP JUMPDEST PUSH1 0x40 MLOAD DUP1 SWAP2 SUB SWAP1 REVERT JUMPDEST PUSH1 0x0 PUSH20 0xFFFFFFFFFFFFFFFFFFFFFFFFFFFFFFFFFFFFFFFF AND DUP3 PUSH20 0xFFFFFFFFFFFFFFFFFFFFFFFFFFFFFFFFFFFFFFFF AND SUB PUSH2 0x685 JUMPI PUSH1 0x40 MLOAD PUSH32 0x8C379A000000000000000000000000000000000000000000000000000000000 DUP2 MSTORE PUSH1 0x4 ADD PUSH2 0x67C SWAP1 PUSH2 0xFE2 JUMP JUMPDEST PUSH1 0x40 MLOAD DUP1 SWAP2 SUB SWAP1 REVERT JUMPDEST DUP1 PUSH1 0x1 PUSH1 0x0 DUP6 PUSH20 0xFFFFFFFFFFFFFFFFFFFFFFFFFFFFFFFFFFFFFFFF AND PUSH20 0xFFFFFFFFFFFFFFFFFFFFFFFFFFFFFFFFFFFFFFFF AND DUP2 MSTORE PUSH1 0x20 ADD SWAP1 DUP2 MSTORE PUSH1 0x20 ADD PUSH1 0x0 KECCAK256 PUSH1 0x0 DUP5 PUSH20 0xFFFFFFFFFFFFFFFFFFFFFFFFFFFFFFFFFFFFFFFF AND PUSH20 0xFFFFFFFFFFFFFFFFFFFFFFFFFFFFFFFFFFFFFFFF AND DUP2 MSTORE PUSH1 0x20 ADD SWAP1 DUP2 MSTORE PUSH1 0x20 ADD PUSH1 0x0 KECCAK256 DUP2 SWAP1 SSTORE POP DUP2 PUSH20 0xFFFFFFFFFFFFFFFFFFFFFFFFFFFFFFFFFFFFFFFF AND DUP4 PUSH20 0xFFFFFFFFFFFFFFFFFFFFFFFFFFFFFFFFFFFFFFFF AND PUSH32 0x8C5BE1E5EBEC7D5BD14F71427D1E84F3DD0314C0F7B2291E5B200AC8C7C3B925 DUP4 PUSH1 0x40 MLOAD PUSH2 0x763 SWAP2 SWAP1 PUSH2 0xC55 JUMP JUMPDEST PUSH1 0x40 MLOAD DUP1 SWAP2 SUB SWAP1 LOG3 POP POP POP JUMP JUMPDEST PUSH1 0x0 PUSH2 0x77C DUP5 DUP5 PUSH2 0x518 JUMP JUMPDEST SWAP1 POP PUSH32 0xFFFFFFFFFFFFFFFFFFFFFFFFFFFFFFFFFFFFFFFFFFFFFFFFFFFFFFFFFFFFFFFF DUP2 EQ PUSH2 0x7F6 JUMPI DUP2 DUP2 LT ISZERO PUSH2 0x7E8 JUMPI PUSH1 0x40 MLOAD PUSH32 0x8C379A000000000000000000000000000000000000000000000000000000000 DUP2 MSTORE PUSH1 0x4 ADD PUSH2 0x7DF SWAP1 PUSH2 0x104E JUMP JUMPDEST PUSH1 0x40 MLOAD DUP1 SWAP2 SUB SWAP1 REVERT JUMPDEST PUSH2 0x7F5 DUP5 DUP5 DUP5 DUP5 SUB PUSH2 0x5A7 JUMP JUMPDEST JUMPDEST POP POP POP POP JUMP JUMPDEST PUSH1 0x0 PUSH20 0xFFFFFFFFFFFFFFFFFFFFFFFFFFFFFFFFFFFFFFFF AND DUP4 PUSH20 0xFFFFFFFFFFFFFFFFFFFFFFFFFFFFFFFFFFFFFFFF AND SUB PUSH2 0x86B JUMPI PUSH1 0x40 MLOAD PUSH32 0x8C379A000000000000000000000000000000000000000000000000000000000 DUP2 MSTORE PUSH1 0x4 ADD PUSH2 0x862 SWAP1 PUSH2 0x10E0 JUMP JUMPDEST PUSH1 0x40 MLOAD DUP1 SWAP2 SUB SWAP1 REVERT JUMPDEST PUSH1 0x0 PUSH20 0xFFFFFFFFFFFFFFFFFFFFFFFFFFFFFFFFFFFFFFFF AND DUP3 PUSH20 0xFFFFFFFFFFFFFFFFFFFFFFFFFFFFFFFFFFFFFFFF AND SUB PUSH2 0x8DA JUMPI PUSH1 0x40 MLOAD PUSH32 0x8C379A000000000000000000000000000000000000000000000000000000000 DUP2 MSTORE PUSH1 0x4 ADD PUSH2 0x8D1 SWAP1 PUSH2 0x1172 JUMP JUMPDEST PUSH1 0x40 MLOAD DUP1 SWAP2 SUB SWAP1 REVERT JUMPDEST PUSH2 0x8E5 DUP4 DUP4 DUP4 PUSH2 0xA72 JUMP JUMPDEST PUSH1 0x0 DUP1 PUSH1 0x0 DUP6 PUSH20 0xFFFFFFFFFFFFFFFFFFFFFFFFFFFFFFFFFFFFFFFF AND PUSH20 0xFFFFFFFFFFFFFFFFFFFFFFFFFFFFFFFFFFFFFFFF AND DUP2 MSTORE PUSH1 0x20 ADD SWAP1 DUP2 MSTORE PUSH1 0x20 ADD PUSH1 0x0 KECCAK256 SLOAD SWAP1 POP DUP2 DUP2 LT ISZERO PUSH2 0x96B JUMPI PUSH1 0x40 MLOAD PUSH32 0x8C379A000000000000000000000000000000000000000000000000000000000 DUP2 MSTORE PUSH1 0x4 ADD PUSH2 0x962 SWAP1 PUSH2 0x1204 JUMP JUMPDEST PUSH1 0x40 MLOAD DUP1 SWAP2 SUB SWAP1 REVERT JUMPDEST DUP2 DUP2 SUB PUSH1 0x0 DUP1 DUP7 PUSH20 0xFFFFFFFFFFFFFFFFFFFFFFFFFFFFFFFFFFFFFFFF AND PUSH20 0xFFFFFFFFFFFFFFFFFFFFFFFFFFFFFFFFFFFFFFFF AND DUP2 MSTORE PUSH1 0x20 ADD SWAP1 DUP2 MSTORE PUSH1 0x20 ADD PUSH1 0x0 KECCAK256 DUP2 SWAP1 SSTORE POP DUP2 PUSH1 0x0 DUP1 DUP6 PUSH20 0xFFFFFFFFFFFFFFFFFFFFFFFFFFFFFFFFFFFFFFFF AND PUSH20 0xFFFFFFFFFFFFFFFFFFFFFFFFFFFFFFFFFFFFFFFF AND DUP2 MSTORE PUSH1 0x20 ADD SWAP1 DUP2 MSTORE PUSH1 0x20 ADD PUSH1 0x0 KECCAK256 PUSH1 0x0 DUP3 DUP3 SLOAD ADD SWAP3 POP POP DUP2 SWAP1 SSTORE POP DUP3 PUSH20 0xFFFFFFFFFFFFFFFFFFFFFFFFFFFFFFFFFFFFFFFF AND DUP5 PUSH20 0xFFFFFFFFFFFFFFFFFFFFFFFFFFFFFFFFFFFFFFFF AND PUSH32 0xDDF252AD1BE2C89B69C2B068FC378DAA952BA7F163C4A11628F55A4DF523B3EF DUP5 PUSH1 0x40 MLOAD PUSH2 0xA59 SWAP2 SWAP1 PUSH2 0xC55 JUMP JUMPDEST PUSH1 0x40 MLOAD DUP1 SWAP2 SUB SWAP1 LOG3 PUSH2 0xA6C DUP5 DUP5 DUP5 PUSH2 0xA77 JUMP JUMPDEST POP POP POP POP JUMP JUMPDEST POP POP POP JUMP JUMPDEST POP POP POP JUMP JUMPDEST PUSH1 0x0 DUP2 MLOAD SWAP1 POP SWAP2 SWAP1 POP JUMP JUMPDEST PUSH1 0x0 DUP3 DUP3 MSTORE PUSH1 0x20 DUP3 ADD SWAP1 POP SWAP3 SWAP2 POP POP JUMP JUMPDEST PUSH1 0x0 JUMPDEST DUP4 DUP2 LT ISZERO PUSH2 0xAB6 JUMPI DUP1 DUP3 ADD MLOAD DUP2 DUP5 ADD MSTORE PUSH1 0x20 DUP2 ADD SWAP1 POP PUSH2 0xA9B JUMP JUMPDEST DUP4 DUP2 GT ISZERO PUSH2 0xAC5 JUMPI PUSH1 0x0 DUP5 DUP5 ADD MSTORE JUMPDEST POP POP POP POP JUMP JUMPDEST PUSH1 0x0 PUSH1 0x1F NOT PUSH1 0x1F DUP4 ADD AND SWAP1 POP SWAP2 SWAP1 POP JUMP JUMPDEST PUSH1 0x0 PUSH2 0xAE7 DUP3 PUSH2 0xA7C JUMP JUMPDEST PUSH2 0xAF1 DUP2 DUP6 PUSH2 0xA87 JUMP JUMPDEST SWAP4 POP PUSH2 0xB01 DUP2 DUP6 PUSH1 0x20 DUP7 ADD PUSH2 0xA98 JUMP JUMPDEST PUSH2 0xB0A DUP2 PUSH2 0xACB JUMP JUMPDEST DUP5 ADD SWAP2 POP POP SWAP3 SWAP2 POP POP JUMP JUMPDEST PUSH1 0x0 PUSH1 0x20 DUP3 ADD SWAP1 POP DUP2 DUP2 SUB PUSH1 0x0 DUP4 ADD MSTORE PUSH2 0xB2F DUP2 DUP5 PUSH2 0xADC JUMP JUMPDEST SWAP1 POP SWAP3 SWAP2 POP POP JUMP JUMPDEST PUSH1 0x0 DUP1 REVERT JUMPDEST PUSH1 0x0 PUSH20 0xFFFFFFFFFFFFFFFFFFFFFFFFFFFFFFFFFFFFFFFF DUP3 AND SWAP1 POP SWAP2 SWAP1 POP JUMP JUMPDEST PUSH1 0x0 PUSH2 0xB67 DUP3 PUSH2 0xB3C JUMP JUMPDEST SWAP1 POP SWAP2 SWAP1 POP JUMP JUMPDEST PUSH2 0xB77 DUP2 PUSH2 0xB5C JUMP JUMPDEST DUP2 EQ PUSH2 0xB82 JUMPI PUSH1 0x0 DUP1 REVERT JUMPDEST POP JUMP JUMPDEST PUSH1 0x0 DUP2 CALLDATALOAD SWAP1 POP PUSH2 0xB94 DUP2 PUSH2 0xB6E JUMP JUMPDEST SWAP3 SWAP2 POP POP JUMP JUMPDEST PUSH1 0x0 DUP2 SWAP1 POP SWAP2 SWAP1 POP JUMP JUMPDEST PUSH2 0xBAD DUP2 PUSH2 0xB9A JUMP JUMPDEST DUP2 EQ PUSH2 0xBB8 JUMPI PUSH1 0x0 DUP1 REVERT JUMPDEST POP JUMP JUMPDEST PUSH1 0x0 DUP2 CALLDATALOAD SWAP1 POP PUSH2 0xBCA DUP2 PUSH2 0xBA4 JUMP JUMPDEST SWAP3 SWAP2 POP POP JUMP JUMPDEST PUSH1 0x0 DUP1 PUSH1 0x40 DUP4 DUP6 SUB SLT ISZERO PUSH2 0xBE7 JUMPI PUSH2 0xBE6 PUSH2 0xB37 JUMP JUMPDEST JUMPDEST PUSH1 0x0 PUSH2 0xBF5 DUP6 DUP3 DUP7 ADD PUSH2 0xB85 JUMP JUMPDEST SWAP3 POP POP PUSH1 0x20 PUSH2 0xC06 DUP6 DUP3 DUP7 ADD PUSH2 0xBBB JUMP JUMPDEST SWAP2 POP POP SWAP3 POP SWAP3 SWAP1 POP JUMP JUMPDEST PUSH1 0x0 DUP2 ISZERO ISZERO SWAP1 POP SWAP2 SWAP1 POP JUMP JUMPDEST PUSH2 0xC25 DUP2 PUSH2 0xC10 JUMP JUMPDEST DUP3 MSTORE POP POP JUMP JUMPDEST PUSH1 0x0 PUSH1 0x20 DUP3 ADD SWAP1 POP PUSH2 0xC40 PUSH1 0x0 DUP4 ADD DUP5 PUSH2 0xC1C JUMP JUMPDEST SWAP3 SWAP2 POP POP JUMP JUMPDEST PUSH2 0xC4F DUP2 PUSH2 0xB9A JUMP JUMPDEST DUP3 MSTORE POP POP JUMP JUMPDEST PUSH1 0x0 PUSH1 0x20 DUP3 ADD SWAP1 POP PUSH2 0xC6A PUSH1 0x0 DUP4 ADD DUP5 PUSH2 0xC46 JUMP JUMPDEST SWAP3 SWAP2 POP POP JUMP JUMPDEST PUSH1 0x0 DUP1 PUSH1 0x0 PUSH1 0x60 DUP5 DUP7 SUB SLT ISZERO PUSH2 0xC89 JUMPI PUSH2 0xC88 PUSH2 0xB37 JUMP JUMPDEST JUMPDEST PUSH1 0x0 PUSH2 0xC97 DUP7 DUP3 DUP8 ADD PUSH2 0xB85 JUMP JUMPDEST SWAP4 POP POP PUSH1 0x20 PUSH2 0xCA8 DUP7 DUP3 DUP8 ADD PUSH2 0xB85 JUMP JUMPDEST SWAP3 POP POP PUSH1 0x40 PUSH2 0xCB9 DUP7 DUP3 DUP8 ADD PUSH2 0xBBB JUMP JUMPDEST SWAP2 POP POP SWAP3 POP SWAP3 POP SWAP3 JUMP JUMPDEST PUSH1 0x0 PUSH1 0xFF DUP3 AND SWAP1 POP SWAP2 SWAP1 POP JUMP JUMPDEST PUSH2 0xCD9 DUP2 PUSH2 0xCC3 JUMP JUMPDEST DUP3 MSTORE POP POP JUMP JUMPDEST PUSH1 0x0 PUSH1 0x20 DUP3 ADD SWAP1 POP PUSH2 0xCF4 PUSH1 0x0 DUP4 ADD DUP5 PUSH2 0xCD0 JUMP JUMPDEST SWAP3 SWAP2 POP POP JUMP JUMPDEST PUSH1 0x0 PUSH1 0x20 DUP3 DUP5 SUB SLT ISZERO PUSH2 0xD10 JUMPI PUSH2 0xD0F PUSH2 0xB37 JUMP JUMPDEST JUMPDEST PUSH1 0x0 PUSH2 0xD1E DUP5 DUP3 DUP6 ADD PUSH2 0xB85 JUMP JUMPDEST SWAP2 POP POP SWAP3 SWAP2 POP POP JUMP JUMPDEST PUSH1 0x0 DUP1 PUSH1 0x40 DUP4 DUP6 SUB SLT ISZERO PUSH2 0xD3E JUMPI PUSH2 0xD3D PUSH2 0xB37 JUMP JUMPDEST JUMPDEST PUSH1 0x0 PUSH2 0xD4C DUP6 DUP3 DUP7 ADD PUSH2 0xB85 JUMP JUMPDEST SWAP3 POP POP PUSH1 0x20 PUSH2 0xD5D DUP6 DUP3 DUP7 ADD PUSH2 0xB85 JUMP JUMPDEST SWAP2 POP POP SWAP3 POP SWAP3 SWAP1 POP JUMP JUMPDEST PUSH32 0x4E487B7100000000000000000000000000000000000000000000000000000000 PUSH1 0x0 MSTORE PUSH1 0x22 PUSH1 0x4 MSTORE PUSH1 0x24 PUSH1 0x0 REVERT JUMPDEST PUSH1 0x0 PUSH1 0x2 DUP3 DIV SWAP1 POP PUSH1 0x1 DUP3 AND DUP1 PUSH2 0xDAE JUMPI PUSH1 0x7F DUP3 AND SWAP2 POP JUMPDEST PUSH1 0x20 DUP3 LT DUP2 SUB PUSH2 0xDC1 JUMPI PUSH2 0xDC0 PUSH2 0xD67 JUMP JUMPDEST JUMPDEST POP SWAP2 SWAP1 POP JUMP JUMPDEST PUSH32 0x4E487B7100000000000000000000000000000000000000000000000000000000 PUSH1 0x0 MSTORE PUSH1 0x11 PUSH1 0x4 MSTORE PUSH1 0x24 PUSH1 0x0 REVERT JUMPDEST PUSH1 0x0 PUSH2 0xE01 DUP3 PUSH2 0xB9A JUMP JUMPDEST SWAP2 POP PUSH2 0xE0C DUP4 PUSH2 0xB9A JUMP JUMPDEST SWAP3 POP DUP3 PUSH32 0xFFFFFFFFFFFFFFFFFFFFFFFFFFFFFFFFFFFFFFFFFFFFFFFFFFFFFFFFFFFFFFFF SUB DUP3 GT ISZERO PUSH2 0xE41 JUMPI PUSH2 0xE40 PUSH2 0xDC7 JUMP JUMPDEST JUMPDEST DUP3 DUP3 ADD SWAP1 POP SWAP3 SWAP2 POP POP JUMP JUMPDEST PUSH32 0x45524332303A2064656372656173656420616C6C6F77616E63652062656C6F77 PUSH1 0x0 DUP3 ADD MSTORE PUSH32 0x207A65726F000000000000000000000000000000000000000000000000000000 PUSH1 0x20 DUP3 ADD MSTORE POP JUMP JUMPDEST PUSH1 0x0 PUSH2 0xEA8 PUSH1 0x25 DUP4 PUSH2 0xA87 JUMP JUMPDEST SWAP2 POP PUSH2 0xEB3 DUP3 PUSH2 0xE4C JUMP JUMPDEST PUSH1 0x40 DUP3 ADD SWAP1 POP SWAP2 SWAP1 POP JUMP JUMPDEST PUSH1 0x0 PUSH1 0x20 DUP3 ADD SWAP1 POP DUP2 DUP2 SUB PUSH1 0x0 DUP4 ADD MSTORE PUSH2 0xED7 DUP2 PUSH2 0xE9B JUMP JUMPDEST SWAP1 POP SWAP2 SWAP1 POP JUMP JUMPDEST PUSH32 0x45524332303A20617070726F76652066726F6D20746865207A65726F20616464 PUSH1 0x0 DUP3 ADD MSTORE PUSH32 0x7265737300000000000000000000000000000000000000000000000000000000 PUSH1 0x20 DUP3 ADD MSTORE POP JUMP JUMPDEST PUSH1 0x0 PUSH2 0xF3A PUSH1 0x24 DUP4 PUSH2 0xA87 JUMP JUMPDEST SWAP2 POP PUSH2 0xF45 DUP3 PUSH2 0xEDE JUMP JUMPDEST PUSH1 0x40 DUP3 ADD SWAP1 POP SWAP2 SWAP1 POP JUMP JUMPDEST PUSH1 0x0 PUSH1 0x20 DUP3 ADD SWAP1 POP DUP2 DUP2 SUB PUSH1 0x0 DUP4 ADD MSTORE PUSH2 0xF69 DUP2 PUSH2 0xF2D JUMP JUMPDEST SWAP1 POP SWAP2 SWAP1 POP JUMP JUMPDEST PUSH32 0x45524332303A20617070726F766520746F20746865207A65726F206164647265 PUSH1 0x0 DUP3 ADD MSTORE PUSH32 0x7373000000000000000000000000000000000000000000000000000000000000 PUSH1 0x20 DUP3 ADD MSTORE POP JUMP JUMPDEST PUSH1 0x0 PUSH2 0xFCC PUSH1 0x22 DUP4 PUSH2 0xA87 JUMP JUMPDEST SWAP2 POP PUSH2 0xFD7 DUP3 PUSH2 0xF70 JUMP JUMPDEST PUSH1 0x40 DUP3 ADD SWAP1 POP SWAP2 SWAP1 POP JUMP JUMPDEST PUSH1 0x0 PUSH1 0x20 DUP3 ADD SWAP1 POP DUP2 DUP2 SUB PUSH1 0x0 DUP4 ADD MSTORE PUSH2 0xFFB DUP2 PUSH2 0xFBF JUMP JUMPDEST SWAP1 POP SWAP2 SWAP1 POP JUMP JUMPDEST PUSH32 0x45524332303A20696E73756666696369656E7420616C6C6F77616E6365000000 PUSH1 0x0 DUP3 ADD MSTORE POP JUMP JUMPDEST PUSH1 0x0 PUSH2 0x1038 PUSH1 0x1D DUP4 PUSH2 0xA87 JUMP JUMPDEST SWAP2 POP PUSH2 0x1043 DUP3 PUSH2 0x1002 JUMP JUMPDEST PUSH1 0x20 DUP3 ADD SWAP1 POP SWAP2 SWAP1 POP JUMP JUMPDEST PUSH1 0x0 PUSH1 0x20 DUP3 ADD SWAP1 POP DUP2 DUP2 SUB PUSH1 0x0 DUP4 ADD MSTORE PUSH2 0x1067 DUP2 PUSH2 0x102B JUMP JUMPDEST SWAP1 POP SWAP2 SWAP1 POP JUMP JUMPDEST PUSH32 0x45524332303A207472616E736665722066726F6D20746865207A65726F206164 PUSH1 0x0 DUP3 ADD MSTORE PUSH32 0x6472657373000000000000000000000000000000000000000000000000000000 PUSH1 0x20 DUP3 ADD MSTORE POP JUMP JUMPDEST PUSH1 0x0 PUSH2 0x10CA PUSH1 0x25 DUP4 PUSH2 0xA87 JUMP JUMPDEST SWAP2 POP PUSH2 0x10D5 DUP3 PUSH2 0x106E JUMP JUMPDEST PUSH1 0x40 DUP3 ADD SWAP1 POP SWAP2 SWAP1 POP JUMP JUMPDEST PUSH1 0x0 PUSH1 0x20 DUP3 ADD SWAP1 POP DUP2 DUP2 SUB PUSH1 0x0 DUP4 ADD MSTORE PUSH2 0x10F9 DUP2 PUSH2 0x10BD JUMP JUMPDEST SWAP1 POP SWAP2 SWAP1 POP JUMP JUMPDEST PUSH32 0x45524332303A207472616E7366657220746F20746865207A65726F2061646472 PUSH1 0x0 DUP3 ADD MSTORE PUSH32 0x6573730000000000000000000000000000000000000000000000000000000000 PUSH1 0x20 DUP3 ADD MSTORE POP JUMP JUMPDEST PUSH1 0x0 PUSH2 0x115C PUSH1 0x23 DUP4 PUSH2 0xA87 JUMP JUMPDEST SWAP2 POP PUSH2 0x1167 DUP3 PUSH2 0x1100 JUMP JUMPDEST PUSH1 0x40 DUP3 ADD SWAP1 POP SWAP2 SWAP1 POP JUMP JUMPDEST PUSH1 0x0 PUSH1 0x20 DUP3 ADD SWAP1 POP DUP2 DUP2 SUB PUSH1 0x0 DUP4 ADD MSTORE PUSH2 0x118B DUP2 PUSH2 0x114F JUMP JUMPDEST SWAP1 POP SWAP2 SWAP1 POP JUMP JUMPDEST PUSH32 0x45524332303A207472616E7366657220616D6F756E7420657863656564732062 PUSH1 0x0 DUP3 ADD MSTORE PUSH32 0x616C616E63650000000000000000000000000000000000000000000000000000 PUSH1 0x20 DUP3 ADD MSTORE POP JUMP JUMPDEST PUSH1 0x0 PUSH2 0x11EE PUSH1 0x26 DUP4 PUSH2 0xA87 JUMP JUMPDEST SWAP2 POP PUSH2 0x11F9 DUP3 PUSH2 0x1192 JUMP JUMPDEST PUSH1 0x40 DUP3 ADD SWAP1 POP SWAP2 SWAP1 POP JUMP JUMPDEST PUSH1 0x0 PUSH1 0x20 DUP3 ADD SWAP1 POP DUP2 DUP2 SUB PUSH1 0x0 DUP4 ADD MSTORE PUSH2 0x121D DUP2 PUSH2 0x11E1 JUMP JUMPDEST SWAP1 POP SWAP2 SWAP1 POP JUMP INVALID LOG2 PUSH5 0x6970667358 0x22 SLT KECCAK256 BLOCKHASH 0xDA 0xD8 0xA7 0xE6 RETURN SWAP12 AND 0xEB SAR 0xE9 0xC6 CREATE 0xDE 0xD 0xD2 DUP14 SIGNEXTEND 0xCE 0xC2 PUSH15 0x341CC354884487BA7F7F64736F6C PUSH4 0x4300080D STOP CALLER "
				},
				"gasEstimates": {
					"creation": {
						"codeDepositCost": "238400",
						"executionCost": "infinite",
						"totalCost": "infinite"
					},
					"external": {
						"rate()": "2407",
						"token()": "infinite"
					},
					"internal": {
						"distribute(uint256)": "infinite"
					}
				},
				"methodIdentifiers": {
					"rate()": "2c4e722e",
					"token()": "fc0c546a"
				}
			},
			"storageLayout": {
				"storage": [
					{
						"astId": 5,
						"contract": "contracts/crowdsale/crowdsale.sol:Crowdsale",
						"label": "rate",
						"offset": 0,
						"slot": "0",
						"type": "t_uint256"
					},
					{
						"astId": 8,
						"contract": "contracts/crowdsale/crowdsale.sol:Crowdsale",
						"label": "token",
						"offset": 0,
						"slot": "1",
						"type": "t_contract(Token)82"
					}
				],
				"types": {
					"t_contract(Token)82": {
						"encoding": "inplace",
						"label": "contract Token",
						"numberOfBytes": "20"
					},
					"t_uint256": {
						"encoding": "inplace",
						"label": "uint256",
						"numberOfBytes": "32"
					}
				}
			},
			"userdoc": {
				"kind": "user",
				"methods": {},
				"version": 1
			}
		}
	}
}