{
	"contracts/decentralize-bank/bank.sol": {
		"Bank": {
			"abi": [
				{
					"inputs": [
						{
							"internalType": "address",
							"name": "_address",
							"type": "address"
						}
					],
					"name": "balanceOf",
					"outputs": [
						{
							"internalType": "uint256",
							"name": "",
							"type": "uint256"
						}
					],
					"stateMutability": "view",
					"type": "function"
				},
				{
					"inputs": [
						{
							"internalType": "uint256",
							"name": "_amout",
							"type": "uint256"
						}
					],
					"name": "deposit",
					"outputs": [],
					"stateMutability": "nonpayable",
					"type": "function"
				},
				{
					"inputs": [
						{
							"internalType": "address",
							"name": "_recipient",
							"type": "address"
						},
						{
							"internalType": "uint256",
							"name": "_amount",
							"type": "uint256"
						}
					],
					"name": "transfer",
					"outputs": [],
					"stateMutability": "nonpayable",
					"type": "function"
				}
			],
			"devdoc": {
				"kind": "dev",
				"methods": {},
				"version": 1
			},
			"evm": {
				"assembly": "    /* \"contracts/decentralize-bank/bank.sol\":60:865  contract Bank {... */\n  mstore(0x40, 0x80)\n  callvalue\n  dup1\n  iszero\n  tag_1\n  jumpi\n  0x00\n  dup1\n  revert\ntag_1:\n  pop\n  dataSize(sub_0)\n  dup1\n  dataOffset(sub_0)\n  0x00\n  codecopy\n  0x00\n  return\nstop\n\nsub_0: assembly {\n        /* \"contracts/decentralize-bank/bank.sol\":60:865  contract Bank {... */\n      mstore(0x40, 0x80)\n      callvalue\n      dup1\n      iszero\n      tag_1\n      jumpi\n      0x00\n      dup1\n      revert\n    tag_1:\n      pop\n      jumpi(tag_2, lt(calldatasize, 0x04))\n      shr(0xe0, calldataload(0x00))\n      dup1\n      0x70a08231\n      eq\n      tag_3\n      jumpi\n      dup1\n      0xa9059cbb\n      eq\n      tag_4\n      jumpi\n      dup1\n      0xb6b55f25\n      eq\n      tag_5\n      jumpi\n    tag_2:\n      0x00\n      dup1\n      revert\n        /* \"contracts/decentralize-bank/bank.sol\":742:862  function balanceOf(address _address) public view returns(uint256){... */\n    tag_3:\n      tag_6\n      0x04\n      dup1\n      calldatasize\n      sub\n      dup2\n      add\n      swap1\n      tag_7\n      swap2\n      swap1\n      tag_8\n      jump\t// in\n    tag_7:\n      tag_9\n      jump\t// in\n    tag_6:\n      mload(0x40)\n      tag_10\n      swap2\n      swap1\n      tag_11\n      jump\t// in\n    tag_10:\n      mload(0x40)\n      dup1\n      swap2\n      sub\n      swap1\n      return\n        /* \"contracts/decentralize-bank/bank.sol\":237:734  function transfer(address _recipient, uint256 _amount) public {... */\n    tag_4:\n      tag_12\n      0x04\n      dup1\n      calldatasize\n      sub\n      dup2\n      add\n      swap1\n      tag_13\n      swap2\n      swap1\n      tag_14\n      jump\t// in\n    tag_13:\n      tag_15\n      jump\t// in\n    tag_12:\n      stop\n        /* \"contracts/decentralize-bank/bank.sol\":129:229  function deposit(uint256 _amout) public {... */\n    tag_5:\n      tag_16\n      0x04\n      dup1\n      calldatasize\n      sub\n      dup2\n      add\n      swap1\n      tag_17\n      swap2\n      swap1\n      tag_18\n      jump\t// in\n    tag_17:\n      tag_19\n      jump\t// in\n    tag_16:\n      stop\n        /* \"contracts/decentralize-bank/bank.sol\":742:862  function balanceOf(address _address) public view returns(uint256){... */\n    tag_9:\n        /* \"contracts/decentralize-bank/bank.sol\":799:806  uint256 */\n      0x00\n        /* \"contracts/decentralize-bank/bank.sol\":835:844  _balances */\n      dup1\n        /* \"contracts/decentralize-bank/bank.sol\":835:854  _balances[_address] */\n      0x00\n        /* \"contracts/decentralize-bank/bank.sol\":845:853  _address */\n      dup4\n        /* \"contracts/decentralize-bank/bank.sol\":835:854  _balances[_address] */\n      0xffffffffffffffffffffffffffffffffffffffff\n      and\n      0xffffffffffffffffffffffffffffffffffffffff\n      and\n      dup2\n      mstore\n      0x20\n      add\n      swap1\n      dup2\n      mstore\n      0x20\n      add\n      0x00\n      keccak256\n      sload\n        /* \"contracts/decentralize-bank/bank.sol\":828:854  return _balances[_address] */\n      swap1\n      pop\n        /* \"contracts/decentralize-bank/bank.sol\":742:862  function balanceOf(address _address) public view returns(uint256){... */\n      swap2\n      swap1\n      pop\n      jump\t// out\n        /* \"contracts/decentralize-bank/bank.sol\":237:734  function transfer(address _recipient, uint256 _amount) public {... */\n    tag_15:\n        /* \"contracts/decentralize-bank/bank.sol\":330:331  0 */\n      0x00\n        /* \"contracts/decentralize-bank/bank.sol\":320:327  _amount */\n      dup2\n        /* \"contracts/decentralize-bank/bank.sol\":320:331  _amount > 0 */\n      gt\n        /* \"contracts/decentralize-bank/bank.sol\":312:378  require(_amount > 0, \"You need to enter a value of money to send\") */\n      tag_22\n      jumpi\n      mload(0x40)\n      0x08c379a000000000000000000000000000000000000000000000000000000000\n      dup2\n      mstore\n      0x04\n      add\n      tag_23\n      swap1\n      tag_24\n      jump\t// in\n    tag_23:\n      mload(0x40)\n      dup1\n      swap2\n      sub\n      swap1\n      revert\n    tag_22:\n        /* \"contracts/decentralize-bank/bank.sol\":419:420  0 */\n      0x00\n        /* \"contracts/decentralize-bank/bank.sol\":397:421  _recipient != address(0) */\n      0xffffffffffffffffffffffffffffffffffffffff\n      and\n        /* \"contracts/decentralize-bank/bank.sol\":397:407  _recipient */\n      dup3\n        /* \"contracts/decentralize-bank/bank.sol\":397:421  _recipient != address(0) */\n      0xffffffffffffffffffffffffffffffffffffffff\n      and\n      sub\n        /* \"contracts/decentralize-bank/bank.sol\":389:465  require(_recipient != address(0), \"You cannot transfer to the address zero\") */\n      tag_25\n      jumpi\n      mload(0x40)\n      0x08c379a000000000000000000000000000000000000000000000000000000000\n      dup2\n      mstore\n      0x04\n      add\n      tag_26\n      swap1\n      tag_27\n      jump\t// in\n    tag_26:\n      mload(0x40)\n      dup1\n      swap2\n      sub\n      swap1\n      revert\n    tag_25:\n        /* \"contracts/decentralize-bank/bank.sol\":498:508  msg.sender */\n      caller\n        /* \"contracts/decentralize-bank/bank.sol\":484:508  _recipient != msg.sender */\n      0xffffffffffffffffffffffffffffffffffffffff\n      and\n        /* \"contracts/decentralize-bank/bank.sol\":484:494  _recipient */\n      dup3\n        /* \"contracts/decentralize-bank/bank.sol\":484:508  _recipient != msg.sender */\n      0xffffffffffffffffffffffffffffffffffffffff\n      and\n      sub\n        /* \"contracts/decentralize-bank/bank.sol\":476:554  require(_recipient != msg.sender, \"You cannot send money to your own address\") */\n      tag_28\n      jumpi\n      mload(0x40)\n      0x08c379a000000000000000000000000000000000000000000000000000000000\n      dup2\n      mstore\n      0x04\n      add\n      tag_29\n      swap1\n      tag_30\n      jump\t// in\n    tag_29:\n      mload(0x40)\n      dup1\n      swap2\n      sub\n      swap1\n      revert\n    tag_28:\n        /* \"contracts/decentralize-bank/bank.sol\":598:605  _amount */\n      dup1\n        /* \"contracts/decentralize-bank/bank.sol\":573:582  _balances */\n      0x00\n        /* \"contracts/decentralize-bank/bank.sol\":573:594  _balances[msg.sender] */\n      dup1\n        /* \"contracts/decentralize-bank/bank.sol\":583:593  msg.sender */\n      caller\n        /* \"contracts/decentralize-bank/bank.sol\":573:594  _balances[msg.sender] */\n      0xffffffffffffffffffffffffffffffffffffffff\n      and\n      0xffffffffffffffffffffffffffffffffffffffff\n      and\n      dup2\n      mstore\n      0x20\n      add\n      swap1\n      dup2\n      mstore\n      0x20\n      add\n      0x00\n      keccak256\n      sload\n        /* \"contracts/decentralize-bank/bank.sol\":573:605  _balances[msg.sender] >= _amount */\n      lt\n      iszero\n        /* \"contracts/decentralize-bank/bank.sol\":565:638  require(_balances[msg.sender] >= _amount, \"You do not have enough money\") */\n      tag_31\n      jumpi\n      mload(0x40)\n      0x08c379a000000000000000000000000000000000000000000000000000000000\n      dup2\n      mstore\n      0x04\n      add\n      tag_32\n      swap1\n      tag_33\n      jump\t// in\n    tag_32:\n      mload(0x40)\n      dup1\n      swap2\n      sub\n      swap1\n      revert\n    tag_31:\n        /* \"contracts/decentralize-bank/bank.sol\":676:683  _amount */\n      dup1\n        /* \"contracts/decentralize-bank/bank.sol\":651:660  _balances */\n      0x00\n        /* \"contracts/decentralize-bank/bank.sol\":651:672  _balances[msg.sender] */\n      dup1\n        /* \"contracts/decentralize-bank/bank.sol\":661:671  msg.sender */\n      caller\n        /* \"contracts/decentralize-bank/bank.sol\":651:672  _balances[msg.sender] */\n      0xffffffffffffffffffffffffffffffffffffffff\n      and\n      0xffffffffffffffffffffffffffffffffffffffff\n      and\n      dup2\n      mstore\n      0x20\n      add\n      swap1\n      dup2\n      mstore\n      0x20\n      add\n      0x00\n      keccak256\n      0x00\n        /* \"contracts/decentralize-bank/bank.sol\":651:683  _balances[msg.sender] -= _amount */\n      dup3\n      dup3\n      sload\n      tag_34\n      swap2\n      swap1\n      tag_35\n      jump\t// in\n    tag_34:\n      swap3\n      pop\n      pop\n      dup2\n      swap1\n      sstore\n      pop\n        /* \"contracts/decentralize-bank/bank.sol\":719:726  _amount */\n      dup1\n        /* \"contracts/decentralize-bank/bank.sol\":694:703  _balances */\n      0x00\n        /* \"contracts/decentralize-bank/bank.sol\":694:715  _balances[_recipient] */\n      dup1\n        /* \"contracts/decentralize-bank/bank.sol\":704:714  _recipient */\n      dup5\n        /* \"contracts/decentralize-bank/bank.sol\":694:715  _balances[_recipient] */\n      0xffffffffffffffffffffffffffffffffffffffff\n      and\n      0xffffffffffffffffffffffffffffffffffffffff\n      and\n      dup2\n      mstore\n      0x20\n      add\n      swap1\n      dup2\n      mstore\n      0x20\n      add\n      0x00\n      keccak256\n      0x00\n        /* \"contracts/decentralize-bank/bank.sol\":694:726  _balances[_recipient] += _amount */\n      dup3\n      dup3\n      sload\n      tag_36\n      swap2\n      swap1\n      tag_37\n      jump\t// in\n    tag_36:\n      swap3\n      pop\n      pop\n      dup2\n      swap1\n      sstore\n      pop\n        /* \"contracts/decentralize-bank/bank.sol\":237:734  function transfer(address _recipient, uint256 _amount) public {... */\n      pop\n      pop\n      jump\t// out\n        /* \"contracts/decentralize-bank/bank.sol\":129:229  function deposit(uint256 _amout) public {... */\n    tag_19:\n        /* \"contracts/decentralize-bank/bank.sol\":215:221  _amout */\n      dup1\n        /* \"contracts/decentralize-bank/bank.sol\":190:199  _balances */\n      0x00\n        /* \"contracts/decentralize-bank/bank.sol\":190:211  _balances[msg.sender] */\n      dup1\n        /* \"contracts/decentralize-bank/bank.sol\":200:210  msg.sender */\n      caller\n        /* \"contracts/decentralize-bank/bank.sol\":190:211  _balances[msg.sender] */\n      0xffffffffffffffffffffffffffffffffffffffff\n      and\n      0xffffffffffffffffffffffffffffffffffffffff\n      and\n      dup2\n      mstore\n      0x20\n      add\n      swap1\n      dup2\n      mstore\n      0x20\n      add\n      0x00\n      keccak256\n      0x00\n        /* \"contracts/decentralize-bank/bank.sol\":190:221  _balances[msg.sender] += _amout */\n      dup3\n      dup3\n      sload\n      tag_39\n      swap2\n      swap1\n      tag_37\n      jump\t// in\n    tag_39:\n      swap3\n      pop\n      pop\n      dup2\n      swap1\n      sstore\n      pop\n        /* \"contracts/decentralize-bank/bank.sol\":129:229  function deposit(uint256 _amout) public {... */\n      pop\n      jump\t// out\n        /* \"#utility.yul\":88:205   */\n    tag_41:\n        /* \"#utility.yul\":197:198   */\n      0x00\n        /* \"#utility.yul\":194:195   */\n      dup1\n        /* \"#utility.yul\":187:199   */\n      revert\n        /* \"#utility.yul\":334:460   */\n    tag_43:\n        /* \"#utility.yul\":371:378   */\n      0x00\n        /* \"#utility.yul\":411:453   */\n      0xffffffffffffffffffffffffffffffffffffffff\n        /* \"#utility.yul\":404:409   */\n      dup3\n        /* \"#utility.yul\":400:454   */\n      and\n        /* \"#utility.yul\":389:454   */\n      swap1\n      pop\n        /* \"#utility.yul\":334:460   */\n      swap2\n      swap1\n      pop\n      jump\t// out\n        /* \"#utility.yul\":466:562   */\n    tag_44:\n        /* \"#utility.yul\":503:510   */\n      0x00\n        /* \"#utility.yul\":532:556   */\n      tag_67\n        /* \"#utility.yul\":550:555   */\n      dup3\n        /* \"#utility.yul\":532:556   */\n      tag_43\n      jump\t// in\n    tag_67:\n        /* \"#utility.yul\":521:556   */\n      swap1\n      pop\n        /* \"#utility.yul\":466:562   */\n      swap2\n      swap1\n      pop\n      jump\t// out\n        /* \"#utility.yul\":568:690   */\n    tag_45:\n        /* \"#utility.yul\":641:665   */\n      tag_69\n        /* \"#utility.yul\":659:664   */\n      dup2\n        /* \"#utility.yul\":641:665   */\n      tag_44\n      jump\t// in\n    tag_69:\n        /* \"#utility.yul\":634:639   */\n      dup2\n        /* \"#utility.yul\":631:666   */\n      eq\n        /* \"#utility.yul\":621:684   */\n      tag_70\n      jumpi\n        /* \"#utility.yul\":680:681   */\n      0x00\n        /* \"#utility.yul\":677:678   */\n      dup1\n        /* \"#utility.yul\":670:682   */\n      revert\n        /* \"#utility.yul\":621:684   */\n    tag_70:\n        /* \"#utility.yul\":568:690   */\n      pop\n      jump\t// out\n        /* \"#utility.yul\":696:835   */\n    tag_46:\n        /* \"#utility.yul\":742:747   */\n      0x00\n        /* \"#utility.yul\":780:786   */\n      dup2\n        /* \"#utility.yul\":767:787   */\n      calldataload\n        /* \"#utility.yul\":758:787   */\n      swap1\n      pop\n        /* \"#utility.yul\":796:829   */\n      tag_72\n        /* \"#utility.yul\":823:828   */\n      dup2\n        /* \"#utility.yul\":796:829   */\n      tag_45\n      jump\t// in\n    tag_72:\n        /* \"#utility.yul\":696:835   */\n      swap3\n      swap2\n      pop\n      pop\n      jump\t// out\n        /* \"#utility.yul\":841:1170   */\n    tag_8:\n        /* \"#utility.yul\":900:906   */\n      0x00\n        /* \"#utility.yul\":949:951   */\n      0x20\n        /* \"#utility.yul\":937:946   */\n      dup3\n        /* \"#utility.yul\":928:935   */\n      dup5\n        /* \"#utility.yul\":924:947   */\n      sub\n        /* \"#utility.yul\":920:952   */\n      slt\n        /* \"#utility.yul\":917:1036   */\n      iszero\n      tag_74\n      jumpi\n        /* \"#utility.yul\":955:1034   */\n      tag_75\n      tag_41\n      jump\t// in\n    tag_75:\n        /* \"#utility.yul\":917:1036   */\n    tag_74:\n        /* \"#utility.yul\":1075:1076   */\n      0x00\n        /* \"#utility.yul\":1100:1153   */\n      tag_76\n        /* \"#utility.yul\":1145:1152   */\n      dup5\n        /* \"#utility.yul\":1136:1142   */\n      dup3\n        /* \"#utility.yul\":1125:1134   */\n      dup6\n        /* \"#utility.yul\":1121:1143   */\n      add\n        /* \"#utility.yul\":1100:1153   */\n      tag_46\n      jump\t// in\n    tag_76:\n        /* \"#utility.yul\":1090:1153   */\n      swap2\n      pop\n        /* \"#utility.yul\":1046:1163   */\n      pop\n        /* \"#utility.yul\":841:1170   */\n      swap3\n      swap2\n      pop\n      pop\n      jump\t// out\n        /* \"#utility.yul\":1176:1253   */\n    tag_47:\n        /* \"#utility.yul\":1213:1220   */\n      0x00\n        /* \"#utility.yul\":1242:1247   */\n      dup2\n        /* \"#utility.yul\":1231:1247   */\n      swap1\n      pop\n        /* \"#utility.yul\":1176:1253   */\n      swap2\n      swap1\n      pop\n      jump\t// out\n        /* \"#utility.yul\":1259:1377   */\n    tag_48:\n        /* \"#utility.yul\":1346:1370   */\n      tag_79\n        /* \"#utility.yul\":1364:1369   */\n      dup2\n        /* \"#utility.yul\":1346:1370   */\n      tag_47\n      jump\t// in\n    tag_79:\n        /* \"#utility.yul\":1341:1344   */\n      dup3\n        /* \"#utility.yul\":1334:1371   */\n      mstore\n        /* \"#utility.yul\":1259:1377   */\n      pop\n      pop\n      jump\t// out\n        /* \"#utility.yul\":1383:1605   */\n    tag_11:\n        /* \"#utility.yul\":1476:1480   */\n      0x00\n        /* \"#utility.yul\":1514:1516   */\n      0x20\n        /* \"#utility.yul\":1503:1512   */\n      dup3\n        /* \"#utility.yul\":1499:1517   */\n      add\n        /* \"#utility.yul\":1491:1517   */\n      swap1\n      pop\n        /* \"#utility.yul\":1527:1598   */\n      tag_81\n        /* \"#utility.yul\":1595:1596   */\n      0x00\n        /* \"#utility.yul\":1584:1593   */\n      dup4\n        /* \"#utility.yul\":1580:1597   */\n      add\n        /* \"#utility.yul\":1571:1577   */\n      dup5\n        /* \"#utility.yul\":1527:1598   */\n      tag_48\n      jump\t// in\n    tag_81:\n        /* \"#utility.yul\":1383:1605   */\n      swap3\n      swap2\n      pop\n      pop\n      jump\t// out\n        /* \"#utility.yul\":1611:1733   */\n    tag_49:\n        /* \"#utility.yul\":1684:1708   */\n      tag_83\n        /* \"#utility.yul\":1702:1707   */\n      dup2\n        /* \"#utility.yul\":1684:1708   */\n      tag_47\n      jump\t// in\n    tag_83:\n        /* \"#utility.yul\":1677:1682   */\n      dup2\n        /* \"#utility.yul\":1674:1709   */\n      eq\n        /* \"#utility.yul\":1664:1727   */\n      tag_84\n      jumpi\n        /* \"#utility.yul\":1723:1724   */\n      0x00\n        /* \"#utility.yul\":1720:1721   */\n      dup1\n        /* \"#utility.yul\":1713:1725   */\n      revert\n        /* \"#utility.yul\":1664:1727   */\n    tag_84:\n        /* \"#utility.yul\":1611:1733   */\n      pop\n      jump\t// out\n        /* \"#utility.yul\":1739:1878   */\n    tag_50:\n        /* \"#utility.yul\":1785:1790   */\n      0x00\n        /* \"#utility.yul\":1823:1829   */\n      dup2\n        /* \"#utility.yul\":1810:1830   */\n      calldataload\n        /* \"#utility.yul\":1801:1830   */\n      swap1\n      pop\n        /* \"#utility.yul\":1839:1872   */\n      tag_86\n        /* \"#utility.yul\":1866:1871   */\n      dup2\n        /* \"#utility.yul\":1839:1872   */\n      tag_49\n      jump\t// in\n    tag_86:\n        /* \"#utility.yul\":1739:1878   */\n      swap3\n      swap2\n      pop\n      pop\n      jump\t// out\n        /* \"#utility.yul\":1884:2358   */\n    tag_14:\n        /* \"#utility.yul\":1952:1958   */\n      0x00\n        /* \"#utility.yul\":1960:1966   */\n      dup1\n        /* \"#utility.yul\":2009:2011   */\n      0x40\n        /* \"#utility.yul\":1997:2006   */\n      dup4\n        /* \"#utility.yul\":1988:1995   */\n      dup6\n        /* \"#utility.yul\":1984:2007   */\n      sub\n        /* \"#utility.yul\":1980:2012   */\n      slt\n        /* \"#utility.yul\":1977:2096   */\n      iszero\n      tag_88\n      jumpi\n        /* \"#utility.yul\":2015:2094   */\n      tag_89\n      tag_41\n      jump\t// in\n    tag_89:\n        /* \"#utility.yul\":1977:2096   */\n    tag_88:\n        /* \"#utility.yul\":2135:2136   */\n      0x00\n        /* \"#utility.yul\":2160:2213   */\n      tag_90\n        /* \"#utility.yul\":2205:2212   */\n      dup6\n        /* \"#utility.yul\":2196:2202   */\n      dup3\n        /* \"#utility.yul\":2185:2194   */\n      dup7\n        /* \"#utility.yul\":2181:2203   */\n      add\n        /* \"#utility.yul\":2160:2213   */\n      tag_46\n      jump\t// in\n    tag_90:\n        /* \"#utility.yul\":2150:2213   */\n      swap3\n      pop\n        /* \"#utility.yul\":2106:2223   */\n      pop\n        /* \"#utility.yul\":2262:2264   */\n      0x20\n        /* \"#utility.yul\":2288:2341   */\n      tag_91\n        /* \"#utility.yul\":2333:2340   */\n      dup6\n        /* \"#utility.yul\":2324:2330   */\n      dup3\n        /* \"#utility.yul\":2313:2322   */\n      dup7\n        /* \"#utility.yul\":2309:2331   */\n      add\n        /* \"#utility.yul\":2288:2341   */\n      tag_50\n      jump\t// in\n    tag_91:\n        /* \"#utility.yul\":2278:2341   */\n      swap2\n      pop\n        /* \"#utility.yul\":2233:2351   */\n      pop\n        /* \"#utility.yul\":1884:2358   */\n      swap3\n      pop\n      swap3\n      swap1\n      pop\n      jump\t// out\n        /* \"#utility.yul\":2364:2693   */\n    tag_18:\n        /* \"#utility.yul\":2423:2429   */\n      0x00\n        /* \"#utility.yul\":2472:2474   */\n      0x20\n        /* \"#utility.yul\":2460:2469   */\n      dup3\n        /* \"#utility.yul\":2451:2458   */\n      dup5\n        /* \"#utility.yul\":2447:2470   */\n      sub\n        /* \"#utility.yul\":2443:2475   */\n      slt\n        /* \"#utility.yul\":2440:2559   */\n      iszero\n      tag_93\n      jumpi\n        /* \"#utility.yul\":2478:2557   */\n      tag_94\n      tag_41\n      jump\t// in\n    tag_94:\n        /* \"#utility.yul\":2440:2559   */\n    tag_93:\n        /* \"#utility.yul\":2598:2599   */\n      0x00\n        /* \"#utility.yul\":2623:2676   */\n      tag_95\n        /* \"#utility.yul\":2668:2675   */\n      dup5\n        /* \"#utility.yul\":2659:2665   */\n      dup3\n        /* \"#utility.yul\":2648:2657   */\n      dup6\n        /* \"#utility.yul\":2644:2666   */\n      add\n        /* \"#utility.yul\":2623:2676   */\n      tag_50\n      jump\t// in\n    tag_95:\n        /* \"#utility.yul\":2613:2676   */\n      swap2\n      pop\n        /* \"#utility.yul\":2569:2686   */\n      pop\n        /* \"#utility.yul\":2364:2693   */\n      swap3\n      swap2\n      pop\n      pop\n      jump\t// out\n        /* \"#utility.yul\":2699:2868   */\n    tag_51:\n        /* \"#utility.yul\":2783:2794   */\n      0x00\n        /* \"#utility.yul\":2817:2823   */\n      dup3\n        /* \"#utility.yul\":2812:2815   */\n      dup3\n        /* \"#utility.yul\":2805:2824   */\n      mstore\n        /* \"#utility.yul\":2857:2861   */\n      0x20\n        /* \"#utility.yul\":2852:2855   */\n      dup3\n        /* \"#utility.yul\":2848:2862   */\n      add\n        /* \"#utility.yul\":2833:2862   */\n      swap1\n      pop\n        /* \"#utility.yul\":2699:2868   */\n      swap3\n      swap2\n      pop\n      pop\n      jump\t// out\n        /* \"#utility.yul\":2874:3103   */\n    tag_52:\n        /* \"#utility.yul\":3014:3048   */\n      0x596f75206e65656420746f20656e74657220612076616c7565206f66206d6f6e\n        /* \"#utility.yul\":3010:3011   */\n      0x00\n        /* \"#utility.yul\":3002:3008   */\n      dup3\n        /* \"#utility.yul\":2998:3012   */\n      add\n        /* \"#utility.yul\":2991:3049   */\n      mstore\n        /* \"#utility.yul\":3083:3095   */\n      0x657920746f2073656e6400000000000000000000000000000000000000000000\n        /* \"#utility.yul\":3078:3080   */\n      0x20\n        /* \"#utility.yul\":3070:3076   */\n      dup3\n        /* \"#utility.yul\":3066:3081   */\n      add\n        /* \"#utility.yul\":3059:3096   */\n      mstore\n        /* \"#utility.yul\":2874:3103   */\n      pop\n      jump\t// out\n        /* \"#utility.yul\":3109:3475   */\n    tag_53:\n        /* \"#utility.yul\":3251:3254   */\n      0x00\n        /* \"#utility.yul\":3272:3339   */\n      tag_99\n        /* \"#utility.yul\":3336:3338   */\n      0x2a\n        /* \"#utility.yul\":3331:3334   */\n      dup4\n        /* \"#utility.yul\":3272:3339   */\n      tag_51\n      jump\t// in\n    tag_99:\n        /* \"#utility.yul\":3265:3339   */\n      swap2\n      pop\n        /* \"#utility.yul\":3348:3441   */\n      tag_100\n        /* \"#utility.yul\":3437:3440   */\n      dup3\n        /* \"#utility.yul\":3348:3441   */\n      tag_52\n      jump\t// in\n    tag_100:\n        /* \"#utility.yul\":3466:3468   */\n      0x40\n        /* \"#utility.yul\":3461:3464   */\n      dup3\n        /* \"#utility.yul\":3457:3469   */\n      add\n        /* \"#utility.yul\":3450:3469   */\n      swap1\n      pop\n        /* \"#utility.yul\":3109:3475   */\n      swap2\n      swap1\n      pop\n      jump\t// out\n        /* \"#utility.yul\":3481:3900   */\n    tag_24:\n        /* \"#utility.yul\":3647:3651   */\n      0x00\n        /* \"#utility.yul\":3685:3687   */\n      0x20\n        /* \"#utility.yul\":3674:3683   */\n      dup3\n        /* \"#utility.yul\":3670:3688   */\n      add\n        /* \"#utility.yul\":3662:3688   */\n      swap1\n      pop\n        /* \"#utility.yul\":3734:3743   */\n      dup2\n        /* \"#utility.yul\":3728:3732   */\n      dup2\n        /* \"#utility.yul\":3724:3744   */\n      sub\n        /* \"#utility.yul\":3720:3721   */\n      0x00\n        /* \"#utility.yul\":3709:3718   */\n      dup4\n        /* \"#utility.yul\":3705:3722   */\n      add\n        /* \"#utility.yul\":3698:3745   */\n      mstore\n        /* \"#utility.yul\":3762:3893   */\n      tag_102\n        /* \"#utility.yul\":3888:3892   */\n      dup2\n        /* \"#utility.yul\":3762:3893   */\n      tag_53\n      jump\t// in\n    tag_102:\n        /* \"#utility.yul\":3754:3893   */\n      swap1\n      pop\n        /* \"#utility.yul\":3481:3900   */\n      swap2\n      swap1\n      pop\n      jump\t// out\n        /* \"#utility.yul\":3906:4132   */\n    tag_54:\n        /* \"#utility.yul\":4046:4080   */\n      0x596f752063616e6e6f74207472616e7366657220746f20746865206164647265\n        /* \"#utility.yul\":4042:4043   */\n      0x00\n        /* \"#utility.yul\":4034:4040   */\n      dup3\n        /* \"#utility.yul\":4030:4044   */\n      add\n        /* \"#utility.yul\":4023:4081   */\n      mstore\n        /* \"#utility.yul\":4115:4124   */\n      0x7373207a65726f00000000000000000000000000000000000000000000000000\n        /* \"#utility.yul\":4110:4112   */\n      0x20\n        /* \"#utility.yul\":4102:4108   */\n      dup3\n        /* \"#utility.yul\":4098:4113   */\n      add\n        /* \"#utility.yul\":4091:4125   */\n      mstore\n        /* \"#utility.yul\":3906:4132   */\n      pop\n      jump\t// out\n        /* \"#utility.yul\":4138:4504   */\n    tag_55:\n        /* \"#utility.yul\":4280:4283   */\n      0x00\n        /* \"#utility.yul\":4301:4368   */\n      tag_105\n        /* \"#utility.yul\":4365:4367   */\n      0x27\n        /* \"#utility.yul\":4360:4363   */\n      dup4\n        /* \"#utility.yul\":4301:4368   */\n      tag_51\n      jump\t// in\n    tag_105:\n        /* \"#utility.yul\":4294:4368   */\n      swap2\n      pop\n        /* \"#utility.yul\":4377:4470   */\n      tag_106\n        /* \"#utility.yul\":4466:4469   */\n      dup3\n        /* \"#utility.yul\":4377:4470   */\n      tag_54\n      jump\t// in\n    tag_106:\n        /* \"#utility.yul\":4495:4497   */\n      0x40\n        /* \"#utility.yul\":4490:4493   */\n      dup3\n        /* \"#utility.yul\":4486:4498   */\n      add\n        /* \"#utility.yul\":4479:4498   */\n      swap1\n      pop\n        /* \"#utility.yul\":4138:4504   */\n      swap2\n      swap1\n      pop\n      jump\t// out\n        /* \"#utility.yul\":4510:4929   */\n    tag_27:\n        /* \"#utility.yul\":4676:4680   */\n      0x00\n        /* \"#utility.yul\":4714:4716   */\n      0x20\n        /* \"#utility.yul\":4703:4712   */\n      dup3\n        /* \"#utility.yul\":4699:4717   */\n      add\n        /* \"#utility.yul\":4691:4717   */\n      swap1\n      pop\n        /* \"#utility.yul\":4763:4772   */\n      dup2\n        /* \"#utility.yul\":4757:4761   */\n      dup2\n        /* \"#utility.yul\":4753:4773   */\n      sub\n        /* \"#utility.yul\":4749:4750   */\n      0x00\n        /* \"#utility.yul\":4738:4747   */\n      dup4\n        /* \"#utility.yul\":4734:4751   */\n      add\n        /* \"#utility.yul\":4727:4774   */\n      mstore\n        /* \"#utility.yul\":4791:4922   */\n      tag_108\n        /* \"#utility.yul\":4917:4921   */\n      dup2\n        /* \"#utility.yul\":4791:4922   */\n      tag_55\n      jump\t// in\n    tag_108:\n        /* \"#utility.yul\":4783:4922   */\n      swap1\n      pop\n        /* \"#utility.yul\":4510:4929   */\n      swap2\n      swap1\n      pop\n      jump\t// out\n        /* \"#utility.yul\":4935:5163   */\n    tag_56:\n        /* \"#utility.yul\":5075:5109   */\n      0x596f752063616e6e6f742073656e64206d6f6e657920746f20796f7572206f77\n        /* \"#utility.yul\":5071:5072   */\n      0x00\n        /* \"#utility.yul\":5063:5069   */\n      dup3\n        /* \"#utility.yul\":5059:5073   */\n      add\n        /* \"#utility.yul\":5052:5110   */\n      mstore\n        /* \"#utility.yul\":5144:5155   */\n      0x6e20616464726573730000000000000000000000000000000000000000000000\n        /* \"#utility.yul\":5139:5141   */\n      0x20\n        /* \"#utility.yul\":5131:5137   */\n      dup3\n        /* \"#utility.yul\":5127:5142   */\n      add\n        /* \"#utility.yul\":5120:5156   */\n      mstore\n        /* \"#utility.yul\":4935:5163   */\n      pop\n      jump\t// out\n        /* \"#utility.yul\":5169:5535   */\n    tag_57:\n        /* \"#utility.yul\":5311:5314   */\n      0x00\n        /* \"#utility.yul\":5332:5399   */\n      tag_111\n        /* \"#utility.yul\":5396:5398   */\n      0x29\n        /* \"#utility.yul\":5391:5394   */\n      dup4\n        /* \"#utility.yul\":5332:5399   */\n      tag_51\n      jump\t// in\n    tag_111:\n        /* \"#utility.yul\":5325:5399   */\n      swap2\n      pop\n        /* \"#utility.yul\":5408:5501   */\n      tag_112\n        /* \"#utility.yul\":5497:5500   */\n      dup3\n        /* \"#utility.yul\":5408:5501   */\n      tag_56\n      jump\t// in\n    tag_112:\n        /* \"#utility.yul\":5526:5528   */\n      0x40\n        /* \"#utility.yul\":5521:5524   */\n      dup3\n        /* \"#utility.yul\":5517:5529   */\n      add\n        /* \"#utility.yul\":5510:5529   */\n      swap1\n      pop\n        /* \"#utility.yul\":5169:5535   */\n      swap2\n      swap1\n      pop\n      jump\t// out\n        /* \"#utility.yul\":5541:5960   */\n    tag_30:\n        /* \"#utility.yul\":5707:5711   */\n      0x00\n        /* \"#utility.yul\":5745:5747   */\n      0x20\n        /* \"#utility.yul\":5734:5743   */\n      dup3\n        /* \"#utility.yul\":5730:5748   */\n      add\n        /* \"#utility.yul\":5722:5748   */\n      swap1\n      pop\n        /* \"#utility.yul\":5794:5803   */\n      dup2\n        /* \"#utility.yul\":5788:5792   */\n      dup2\n        /* \"#utility.yul\":5784:5804   */\n      sub\n        /* \"#utility.yul\":5780:5781   */\n      0x00\n        /* \"#utility.yul\":5769:5778   */\n      dup4\n        /* \"#utility.yul\":5765:5782   */\n      add\n        /* \"#utility.yul\":5758:5805   */\n      mstore\n        /* \"#utility.yul\":5822:5953   */\n      tag_114\n        /* \"#utility.yul\":5948:5952   */\n      dup2\n        /* \"#utility.yul\":5822:5953   */\n      tag_57\n      jump\t// in\n    tag_114:\n        /* \"#utility.yul\":5814:5953   */\n      swap1\n      pop\n        /* \"#utility.yul\":5541:5960   */\n      swap2\n      swap1\n      pop\n      jump\t// out\n        /* \"#utility.yul\":5966:6144   */\n    tag_58:\n        /* \"#utility.yul\":6106:6136   */\n      0x596f7520646f206e6f74206861766520656e6f756768206d6f6e657900000000\n        /* \"#utility.yul\":6102:6103   */\n      0x00\n        /* \"#utility.yul\":6094:6100   */\n      dup3\n        /* \"#utility.yul\":6090:6104   */\n      add\n        /* \"#utility.yul\":6083:6137   */\n      mstore\n        /* \"#utility.yul\":5966:6144   */\n      pop\n      jump\t// out\n        /* \"#utility.yul\":6150:6516   */\n    tag_59:\n        /* \"#utility.yul\":6292:6295   */\n      0x00\n        /* \"#utility.yul\":6313:6380   */\n      tag_117\n        /* \"#utility.yul\":6377:6379   */\n      0x1c\n        /* \"#utility.yul\":6372:6375   */\n      dup4\n        /* \"#utility.yul\":6313:6380   */\n      tag_51\n      jump\t// in\n    tag_117:\n        /* \"#utility.yul\":6306:6380   */\n      swap2\n      pop\n        /* \"#utility.yul\":6389:6482   */\n      tag_118\n        /* \"#utility.yul\":6478:6481   */\n      dup3\n        /* \"#utility.yul\":6389:6482   */\n      tag_58\n      jump\t// in\n    tag_118:\n        /* \"#utility.yul\":6507:6509   */\n      0x20\n        /* \"#utility.yul\":6502:6505   */\n      dup3\n        /* \"#utility.yul\":6498:6510   */\n      add\n        /* \"#utility.yul\":6491:6510   */\n      swap1\n      pop\n        /* \"#utility.yul\":6150:6516   */\n      swap2\n      swap1\n      pop\n      jump\t// out\n        /* \"#utility.yul\":6522:6941   */\n    tag_33:\n        /* \"#utility.yul\":6688:6692   */\n      0x00\n        /* \"#utility.yul\":6726:6728   */\n      0x20\n        /* \"#utility.yul\":6715:6724   */\n      dup3\n        /* \"#utility.yul\":6711:6729   */\n      add\n        /* \"#utility.yul\":6703:6729   */\n      swap1\n      pop\n        /* \"#utility.yul\":6775:6784   */\n      dup2\n        /* \"#utility.yul\":6769:6773   */\n      dup2\n        /* \"#utility.yul\":6765:6785   */\n      sub\n        /* \"#utility.yul\":6761:6762   */\n      0x00\n        /* \"#utility.yul\":6750:6759   */\n      dup4\n        /* \"#utility.yul\":6746:6763   */\n      add\n        /* \"#utility.yul\":6739:6786   */\n      mstore\n        /* \"#utility.yul\":6803:6934   */\n      tag_120\n        /* \"#utility.yul\":6929:6933   */\n      dup2\n        /* \"#utility.yul\":6803:6934   */\n      tag_59\n      jump\t// in\n    tag_120:\n        /* \"#utility.yul\":6795:6934   */\n      swap1\n      pop\n        /* \"#utility.yul\":6522:6941   */\n      swap2\n      swap1\n      pop\n      jump\t// out\n        /* \"#utility.yul\":6947:7127   */\n    tag_60:\n        /* \"#utility.yul\":6995:7072   */\n      0x4e487b7100000000000000000000000000000000000000000000000000000000\n        /* \"#utility.yul\":6992:6993   */\n      0x00\n        /* \"#utility.yul\":6985:7073   */\n      mstore\n        /* \"#utility.yul\":7092:7096   */\n      0x11\n        /* \"#utility.yul\":7089:7090   */\n      0x04\n        /* \"#utility.yul\":7082:7097   */\n      mstore\n        /* \"#utility.yul\":7116:7120   */\n      0x24\n        /* \"#utility.yul\":7113:7114   */\n      0x00\n        /* \"#utility.yul\":7106:7121   */\n      revert\n        /* \"#utility.yul\":7133:7324   */\n    tag_35:\n        /* \"#utility.yul\":7173:7177   */\n      0x00\n        /* \"#utility.yul\":7193:7213   */\n      tag_123\n        /* \"#utility.yul\":7211:7212   */\n      dup3\n        /* \"#utility.yul\":7193:7213   */\n      tag_47\n      jump\t// in\n    tag_123:\n        /* \"#utility.yul\":7188:7213   */\n      swap2\n      pop\n        /* \"#utility.yul\":7227:7247   */\n      tag_124\n        /* \"#utility.yul\":7245:7246   */\n      dup4\n        /* \"#utility.yul\":7227:7247   */\n      tag_47\n      jump\t// in\n    tag_124:\n        /* \"#utility.yul\":7222:7247   */\n      swap3\n      pop\n        /* \"#utility.yul\":7266:7267   */\n      dup3\n        /* \"#utility.yul\":7263:7264   */\n      dup3\n        /* \"#utility.yul\":7260:7268   */\n      lt\n        /* \"#utility.yul\":7257:7291   */\n      iszero\n      tag_125\n      jumpi\n        /* \"#utility.yul\":7271:7289   */\n      tag_126\n      tag_60\n      jump\t// in\n    tag_126:\n        /* \"#utility.yul\":7257:7291   */\n    tag_125:\n        /* \"#utility.yul\":7316:7317   */\n      dup3\n        /* \"#utility.yul\":7313:7314   */\n      dup3\n        /* \"#utility.yul\":7309:7318   */\n      sub\n        /* \"#utility.yul\":7301:7318   */\n      swap1\n      pop\n        /* \"#utility.yul\":7133:7324   */\n      swap3\n      swap2\n      pop\n      pop\n      jump\t// out\n        /* \"#utility.yul\":7330:7635   */\n    tag_37:\n        /* \"#utility.yul\":7370:7373   */\n      0x00\n        /* \"#utility.yul\":7389:7409   */\n      tag_128\n        /* \"#utility.yul\":7407:7408   */\n      dup3\n        /* \"#utility.yul\":7389:7409   */\n      tag_47\n      jump\t// in\n    tag_128:\n        /* \"#utility.yul\":7384:7409   */\n      swap2\n      pop\n        /* \"#utility.yul\":7423:7443   */\n      tag_129\n        /* \"#utility.yul\":7441:7442   */\n      dup4\n        /* \"#utility.yul\":7423:7443   */\n      tag_47\n      jump\t// in\n    tag_129:\n        /* \"#utility.yul\":7418:7443   */\n      swap3\n      pop\n        /* \"#utility.yul\":7577:7578   */\n      dup3\n        /* \"#utility.yul\":7509:7575   */\n      0xffffffffffffffffffffffffffffffffffffffffffffffffffffffffffffffff\n        /* \"#utility.yul\":7505:7579   */\n      sub\n        /* \"#utility.yul\":7502:7503   */\n      dup3\n        /* \"#utility.yul\":7499:7580   */\n      gt\n        /* \"#utility.yul\":7496:7603   */\n      iszero\n      tag_130\n      jumpi\n        /* \"#utility.yul\":7583:7601   */\n      tag_131\n      tag_60\n      jump\t// in\n    tag_131:\n        /* \"#utility.yul\":7496:7603   */\n    tag_130:\n        /* \"#utility.yul\":7627:7628   */\n      dup3\n        /* \"#utility.yul\":7624:7625   */\n      dup3\n        /* \"#utility.yul\":7620:7629   */\n      add\n        /* \"#utility.yul\":7613:7629   */\n      swap1\n      pop\n        /* \"#utility.yul\":7330:7635   */\n      swap3\n      swap2\n      pop\n      pop\n      jump\t// out\n\n    auxdata: 0xa264697066735822122081b1f8cd9ba676e3e399ab7c64e3dff89de96b15132bdc37c6d0e95ddfba2ac264736f6c634300080d0033\n}\n",
				"bytecode": {
					"linkReferences": {},
					"object": "608060405234801561001057600080fd5b5061081c806100206000396000f3fe608060405234801561001057600080fd5b50600436106100415760003560e01c806370a0823114610046578063a9059cbb14610076578063b6b55f2514610092575b600080fd5b610060600480360381019061005b9190610400565b6100ae565b60405161006d9190610446565b60405180910390f35b610090600480360381019061008b919061048d565b6100f6565b005b6100ac60048036038101906100a791906104cd565b610345565b005b60008060008373ffffffffffffffffffffffffffffffffffffffff1673ffffffffffffffffffffffffffffffffffffffff168152602001908152602001600020549050919050565b60008111610139576040517f08c379a00000000000000000000000000000000000000000000000000000000081526004016101309061057d565b60405180910390fd5b600073ffffffffffffffffffffffffffffffffffffffff168273ffffffffffffffffffffffffffffffffffffffff16036101a8576040517f08c379a000000000000000000000000000000000000000000000000000000000815260040161019f9061060f565b60405180910390fd5b3373ffffffffffffffffffffffffffffffffffffffff168273ffffffffffffffffffffffffffffffffffffffff1603610216576040517f08c379a000000000000000000000000000000000000000000000000000000000815260040161020d906106a1565b60405180910390fd5b806000803373ffffffffffffffffffffffffffffffffffffffff1673ffffffffffffffffffffffffffffffffffffffff168152602001908152602001600020541015610297576040517f08c379a000000000000000000000000000000000000000000000000000000000815260040161028e9061070d565b60405180910390fd5b806000803373ffffffffffffffffffffffffffffffffffffffff1673ffffffffffffffffffffffffffffffffffffffff16815260200190815260200160002060008282546102e5919061075c565b92505081905550806000808473ffffffffffffffffffffffffffffffffffffffff1673ffffffffffffffffffffffffffffffffffffffff168152602001908152602001600020600082825461033a9190610790565b925050819055505050565b806000803373ffffffffffffffffffffffffffffffffffffffff1673ffffffffffffffffffffffffffffffffffffffff16815260200190815260200160002060008282546103939190610790565b9250508190555050565b600080fd5b600073ffffffffffffffffffffffffffffffffffffffff82169050919050565b60006103cd826103a2565b9050919050565b6103dd816103c2565b81146103e857600080fd5b50565b6000813590506103fa816103d4565b92915050565b6000602082840312156104165761041561039d565b5b6000610424848285016103eb565b91505092915050565b6000819050919050565b6104408161042d565b82525050565b600060208201905061045b6000830184610437565b92915050565b61046a8161042d565b811461047557600080fd5b50565b60008135905061048781610461565b92915050565b600080604083850312156104a4576104a361039d565b5b60006104b2858286016103eb565b92505060206104c385828601610478565b9150509250929050565b6000602082840312156104e3576104e261039d565b5b60006104f184828501610478565b91505092915050565b600082825260208201905092915050565b7f596f75206e65656420746f20656e74657220612076616c7565206f66206d6f6e60008201527f657920746f2073656e6400000000000000000000000000000000000000000000602082015250565b6000610567602a836104fa565b91506105728261050b565b604082019050919050565b600060208201905081810360008301526105968161055a565b9050919050565b7f596f752063616e6e6f74207472616e7366657220746f2074686520616464726560008201527f7373207a65726f00000000000000000000000000000000000000000000000000602082015250565b60006105f96027836104fa565b91506106048261059d565b604082019050919050565b60006020820190508181036000830152610628816105ec565b9050919050565b7f596f752063616e6e6f742073656e64206d6f6e657920746f20796f7572206f7760008201527f6e20616464726573730000000000000000000000000000000000000000000000602082015250565b600061068b6029836104fa565b91506106968261062f565b604082019050919050565b600060208201905081810360008301526106ba8161067e565b9050919050565b7f596f7520646f206e6f74206861766520656e6f756768206d6f6e657900000000600082015250565b60006106f7601c836104fa565b9150610702826106c1565b602082019050919050565b60006020820190508181036000830152610726816106ea565b9050919050565b7f4e487b7100000000000000000000000000000000000000000000000000000000600052601160045260246000fd5b60006107678261042d565b91506107728361042d565b9250828210156107855761078461072d565b5b828203905092915050565b600061079b8261042d565b91506107a68361042d565b9250827fffffffffffffffffffffffffffffffffffffffffffffffffffffffffffffffff038211156107db576107da61072d565b5b82820190509291505056fea264697066735822122081b1f8cd9ba676e3e399ab7c64e3dff89de96b15132bdc37c6d0e95ddfba2ac264736f6c634300080d0033",
					"opcodes": "PUSH1 0x80 PUSH1 0x40 MSTORE CALLVALUE DUP1 ISZERO PUSH2 0x10 JUMPI PUSH1 0x0 DUP1 REVERT JUMPDEST POP PUSH2 0x81C DUP1 PUSH2 0x20 PUSH1 0x0 CODECOPY PUSH1 0x0 RETURN INVALID PUSH1 0x80 PUSH1 0x40 MSTORE CALLVALUE DUP1 ISZERO PUSH2 0x10 JUMPI PUSH1 0x0 DUP1 REVERT JUMPDEST POP PUSH1 0x4 CALLDATASIZE LT PUSH2 0x41 JUMPI PUSH1 0x0 CALLDATALOAD PUSH1 0xE0 SHR DUP1 PUSH4 0x70A08231 EQ PUSH2 0x46 JUMPI DUP1 PUSH4 0xA9059CBB EQ PUSH2 0x76 JUMPI DUP1 PUSH4 0xB6B55F25 EQ PUSH2 0x92 JUMPI JUMPDEST PUSH1 0x0 DUP1 REVERT JUMPDEST PUSH2 0x60 PUSH1 0x4 DUP1 CALLDATASIZE SUB DUP2 ADD SWAP1 PUSH2 0x5B SWAP2 SWAP1 PUSH2 0x400 JUMP JUMPDEST PUSH2 0xAE JUMP JUMPDEST PUSH1 0x40 MLOAD PUSH2 0x6D SWAP2 SWAP1 PUSH2 0x446 JUMP JUMPDEST PUSH1 0x40 MLOAD DUP1 SWAP2 SUB SWAP1 RETURN JUMPDEST PUSH2 0x90 PUSH1 0x4 DUP1 CALLDATASIZE SUB DUP2 ADD SWAP1 PUSH2 0x8B SWAP2 SWAP1 PUSH2 0x48D JUMP JUMPDEST PUSH2 0xF6 JUMP JUMPDEST STOP JUMPDEST PUSH2 0xAC PUSH1 0x4 DUP1 CALLDATASIZE SUB DUP2 ADD SWAP1 PUSH2 0xA7 SWAP2 SWAP1 PUSH2 0x4CD JUMP JUMPDEST PUSH2 0x345 JUMP JUMPDEST STOP JUMPDEST PUSH1 0x0 DUP1 PUSH1 0x0 DUP4 PUSH20 0xFFFFFFFFFFFFFFFFFFFFFFFFFFFFFFFFFFFFFFFF AND PUSH20 0xFFFFFFFFFFFFFFFFFFFFFFFFFFFFFFFFFFFFFFFF AND DUP2 MSTORE PUSH1 0x20 ADD SWAP1 DUP2 MSTORE PUSH1 0x20 ADD PUSH1 0x0 KECCAK256 SLOAD SWAP1 POP SWAP2 SWAP1 POP JUMP JUMPDEST PUSH1 0x0 DUP2 GT PUSH2 0x139 JUMPI PUSH1 0x40 MLOAD PUSH32 0x8C379A000000000000000000000000000000000000000000000000000000000 DUP2 MSTORE PUSH1 0x4 ADD PUSH2 0x130 SWAP1 PUSH2 0x57D JUMP JUMPDEST PUSH1 0x40 MLOAD DUP1 SWAP2 SUB SWAP1 REVERT JUMPDEST PUSH1 0x0 PUSH20 0xFFFFFFFFFFFFFFFFFFFFFFFFFFFFFFFFFFFFFFFF AND DUP3 PUSH20 0xFFFFFFFFFFFFFFFFFFFFFFFFFFFFFFFFFFFFFFFF AND SUB PUSH2 0x1A8 JUMPI PUSH1 0x40 MLOAD PUSH32 0x8C379A000000000000000000000000000000000000000000000000000000000 DUP2 MSTORE PUSH1 0x4 ADD PUSH2 0x19F SWAP1 PUSH2 0x60F JUMP JUMPDEST PUSH1 0x40 MLOAD DUP1 SWAP2 SUB SWAP1 REVERT JUMPDEST CALLER PUSH20 0xFFFFFFFFFFFFFFFFFFFFFFFFFFFFFFFFFFFFFFFF AND DUP3 PUSH20 0xFFFFFFFFFFFFFFFFFFFFFFFFFFFFFFFFFFFFFFFF AND SUB PUSH2 0x216 JUMPI PUSH1 0x40 MLOAD PUSH32 0x8C379A000000000000000000000000000000000000000000000000000000000 DUP2 MSTORE PUSH1 0x4 ADD PUSH2 0x20D SWAP1 PUSH2 0x6A1 JUMP JUMPDEST PUSH1 0x40 MLOAD DUP1 SWAP2 SUB SWAP1 REVERT JUMPDEST DUP1 PUSH1 0x0 DUP1 CALLER PUSH20 0xFFFFFFFFFFFFFFFFFFFFFFFFFFFFFFFFFFFFFFFF AND PUSH20 0xFFFFFFFFFFFFFFFFFFFFFFFFFFFFFFFFFFFFFFFF AND DUP2 MSTORE PUSH1 0x20 ADD SWAP1 DUP2 MSTORE PUSH1 0x20 ADD PUSH1 0x0 KECCAK256 SLOAD LT ISZERO PUSH2 0x297 JUMPI PUSH1 0x40 MLOAD PUSH32 0x8C379A000000000000000000000000000000000000000000000000000000000 DUP2 MSTORE PUSH1 0x4 ADD PUSH2 0x28E SWAP1 PUSH2 0x70D JUMP JUMPDEST PUSH1 0x40 MLOAD DUP1 SWAP2 SUB SWAP1 REVERT JUMPDEST DUP1 PUSH1 0x0 DUP1 CALLER PUSH20 0xFFFFFFFFFFFFFFFFFFFFFFFFFFFFFFFFFFFFFFFF AND PUSH20 0xFFFFFFFFFFFFFFFFFFFFFFFFFFFFFFFFFFFFFFFF AND DUP2 MSTORE PUSH1 0x20 ADD SWAP1 DUP2 MSTORE PUSH1 0x20 ADD PUSH1 0x0 KECCAK256 PUSH1 0x0 DUP3 DUP3 SLOAD PUSH2 0x2E5 SWAP2 SWAP1 PUSH2 0x75C JUMP JUMPDEST SWAP3 POP POP DUP2 SWAP1 SSTORE POP DUP1 PUSH1 0x0 DUP1 DUP5 PUSH20 0xFFFFFFFFFFFFFFFFFFFFFFFFFFFFFFFFFFFFFFFF AND PUSH20 0xFFFFFFFFFFFFFFFFFFFFFFFFFFFFFFFFFFFFFFFF AND DUP2 MSTORE PUSH1 0x20 ADD SWAP1 DUP2 MSTORE PUSH1 0x20 ADD PUSH1 0x0 KECCAK256 PUSH1 0x0 DUP3 DUP3 SLOAD PUSH2 0x33A SWAP2 SWAP1 PUSH2 0x790 JUMP JUMPDEST SWAP3 POP POP DUP2 SWAP1 SSTORE POP POP POP JUMP JUMPDEST DUP1 PUSH1 0x0 DUP1 CALLER PUSH20 0xFFFFFFFFFFFFFFFFFFFFFFFFFFFFFFFFFFFFFFFF AND PUSH20 0xFFFFFFFFFFFFFFFFFFFFFFFFFFFFFFFFFFFFFFFF AND DUP2 MSTORE PUSH1 0x20 ADD SWAP1 DUP2 MSTORE PUSH1 0x20 ADD PUSH1 0x0 KECCAK256 PUSH1 0x0 DUP3 DUP3 SLOAD PUSH2 0x393 SWAP2 SWAP1 PUSH2 0x790 JUMP JUMPDEST SWAP3 POP POP DUP2 SWAP1 SSTORE POP POP JUMP JUMPDEST PUSH1 0x0 DUP1 REVERT JUMPDEST PUSH1 0x0 PUSH20 0xFFFFFFFFFFFFFFFFFFFFFFFFFFFFFFFFFFFFFFFF DUP3 AND SWAP1 POP SWAP2 SWAP1 POP JUMP JUMPDEST PUSH1 0x0 PUSH2 0x3CD DUP3 PUSH2 0x3A2 JUMP JUMPDEST SWAP1 POP SWAP2 SWAP1 POP JUMP JUMPDEST PUSH2 0x3DD DUP2 PUSH2 0x3C2 JUMP JUMPDEST DUP2 EQ PUSH2 0x3E8 JUMPI PUSH1 0x0 DUP1 REVERT JUMPDEST POP JUMP JUMPDEST PUSH1 0x0 DUP2 CALLDATALOAD SWAP1 POP PUSH2 0x3FA DUP2 PUSH2 0x3D4 JUMP JUMPDEST SWAP3 SWAP2 POP POP JUMP JUMPDEST PUSH1 0x0 PUSH1 0x20 DUP3 DUP5 SUB SLT ISZERO PUSH2 0x416 JUMPI PUSH2 0x415 PUSH2 0x39D JUMP JUMPDEST JUMPDEST PUSH1 0x0 PUSH2 0x424 DUP5 DUP3 DUP6 ADD PUSH2 0x3EB JUMP JUMPDEST SWAP2 POP POP SWAP3 SWAP2 POP POP JUMP JUMPDEST PUSH1 0x0 DUP2 SWAP1 POP SWAP2 SWAP1 POP JUMP JUMPDEST PUSH2 0x440 DUP2 PUSH2 0x42D JUMP JUMPDEST DUP3 MSTORE POP POP JUMP JUMPDEST PUSH1 0x0 PUSH1 0x20 DUP3 ADD SWAP1 POP PUSH2 0x45B PUSH1 0x0 DUP4 ADD DUP5 PUSH2 0x437 JUMP JUMPDEST SWAP3 SWAP2 POP POP JUMP JUMPDEST PUSH2 0x46A DUP2 PUSH2 0x42D JUMP JUMPDEST DUP2 EQ PUSH2 0x475 JUMPI PUSH1 0x0 DUP1 REVERT JUMPDEST POP JUMP JUMPDEST PUSH1 0x0 DUP2 CALLDATALOAD SWAP1 POP PUSH2 0x487 DUP2 PUSH2 0x461 JUMP JUMPDEST SWAP3 SWAP2 POP POP JUMP JUMPDEST PUSH1 0x0 DUP1 PUSH1 0x40 DUP4 DUP6 SUB SLT ISZERO PUSH2 0x4A4 JUMPI PUSH2 0x4A3 PUSH2 0x39D JUMP JUMPDEST JUMPDEST PUSH1 0x0 PUSH2 0x4B2 DUP6 DUP3 DUP7 ADD PUSH2 0x3EB JUMP JUMPDEST SWAP3 POP POP PUSH1 0x20 PUSH2 0x4C3 DUP6 DUP3 DUP7 ADD PUSH2 0x478 JUMP JUMPDEST SWAP2 POP POP SWAP3 POP SWAP3 SWAP1 POP JUMP JUMPDEST PUSH1 0x0 PUSH1 0x20 DUP3 DUP5 SUB SLT ISZERO PUSH2 0x4E3 JUMPI PUSH2 0x4E2 PUSH2 0x39D JUMP JUMPDEST JUMPDEST PUSH1 0x0 PUSH2 0x4F1 DUP5 DUP3 DUP6 ADD PUSH2 0x478 JUMP JUMPDEST SWAP2 POP POP SWAP3 SWAP2 POP POP JUMP JUMPDEST PUSH1 0x0 DUP3 DUP3 MSTORE PUSH1 0x20 DUP3 ADD SWAP1 POP SWAP3 SWAP2 POP POP JUMP JUMPDEST PUSH32 0x596F75206E65656420746F20656E74657220612076616C7565206F66206D6F6E PUSH1 0x0 DUP3 ADD MSTORE PUSH32 0x657920746F2073656E6400000000000000000000000000000000000000000000 PUSH1 0x20 DUP3 ADD MSTORE POP JUMP JUMPDEST PUSH1 0x0 PUSH2 0x567 PUSH1 0x2A DUP4 PUSH2 0x4FA JUMP JUMPDEST SWAP2 POP PUSH2 0x572 DUP3 PUSH2 0x50B JUMP JUMPDEST PUSH1 0x40 DUP3 ADD SWAP1 POP SWAP2 SWAP1 POP JUMP JUMPDEST PUSH1 0x0 PUSH1 0x20 DUP3 ADD SWAP1 POP DUP2 DUP2 SUB PUSH1 0x0 DUP4 ADD MSTORE PUSH2 0x596 DUP2 PUSH2 0x55A JUMP JUMPDEST SWAP1 POP SWAP2 SWAP1 POP JUMP JUMPDEST PUSH32 0x596F752063616E6E6F74207472616E7366657220746F20746865206164647265 PUSH1 0x0 DUP3 ADD MSTORE PUSH32 0x7373207A65726F00000000000000000000000000000000000000000000000000 PUSH1 0x20 DUP3 ADD MSTORE POP JUMP JUMPDEST PUSH1 0x0 PUSH2 0x5F9 PUSH1 0x27 DUP4 PUSH2 0x4FA JUMP JUMPDEST SWAP2 POP PUSH2 0x604 DUP3 PUSH2 0x59D JUMP JUMPDEST PUSH1 0x40 DUP3 ADD SWAP1 POP SWAP2 SWAP1 POP JUMP JUMPDEST PUSH1 0x0 PUSH1 0x20 DUP3 ADD SWAP1 POP DUP2 DUP2 SUB PUSH1 0x0 DUP4 ADD MSTORE PUSH2 0x628 DUP2 PUSH2 0x5EC JUMP JUMPDEST SWAP1 POP SWAP2 SWAP1 POP JUMP JUMPDEST PUSH32 0x596F752063616E6E6F742073656E64206D6F6E657920746F20796F7572206F77 PUSH1 0x0 DUP3 ADD MSTORE PUSH32 0x6E20616464726573730000000000000000000000000000000000000000000000 PUSH1 0x20 DUP3 ADD MSTORE POP JUMP JUMPDEST PUSH1 0x0 PUSH2 0x68B PUSH1 0x29 DUP4 PUSH2 0x4FA JUMP JUMPDEST SWAP2 POP PUSH2 0x696 DUP3 PUSH2 0x62F JUMP JUMPDEST PUSH1 0x40 DUP3 ADD SWAP1 POP SWAP2 SWAP1 POP JUMP JUMPDEST PUSH1 0x0 PUSH1 0x20 DUP3 ADD SWAP1 POP DUP2 DUP2 SUB PUSH1 0x0 DUP4 ADD MSTORE PUSH2 0x6BA DUP2 PUSH2 0x67E JUMP JUMPDEST SWAP1 POP SWAP2 SWAP1 POP JUMP JUMPDEST PUSH32 0x596F7520646F206E6F74206861766520656E6F756768206D6F6E657900000000 PUSH1 0x0 DUP3 ADD MSTORE POP JUMP JUMPDEST PUSH1 0x0 PUSH2 0x6F7 PUSH1 0x1C DUP4 PUSH2 0x4FA JUMP JUMPDEST SWAP2 POP PUSH2 0x702 DUP3 PUSH2 0x6C1 JUMP JUMPDEST PUSH1 0x20 DUP3 ADD SWAP1 POP SWAP2 SWAP1 POP JUMP JUMPDEST PUSH1 0x0 PUSH1 0x20 DUP3 ADD SWAP1 POP DUP2 DUP2 SUB PUSH1 0x0 DUP4 ADD MSTORE PUSH2 0x726 DUP2 PUSH2 0x6EA JUMP JUMPDEST SWAP1 POP SWAP2 SWAP1 POP JUMP JUMPDEST PUSH32 0x4E487B7100000000000000000000000000000000000000000000000000000000 PUSH1 0x0 MSTORE PUSH1 0x11 PUSH1 0x4 MSTORE PUSH1 0x24 PUSH1 0x0 REVERT JUMPDEST PUSH1 0x0 PUSH2 0x767 DUP3 PUSH2 0x42D JUMP JUMPDEST SWAP2 POP PUSH2 0x772 DUP4 PUSH2 0x42D JUMP JUMPDEST SWAP3 POP DUP3 DUP3 LT ISZERO PUSH2 0x785 JUMPI PUSH2 0x784 PUSH2 0x72D JUMP JUMPDEST JUMPDEST DUP3 DUP3 SUB SWAP1 POP SWAP3 SWAP2 POP POP JUMP JUMPDEST PUSH1 0x0 PUSH2 0x79B DUP3 PUSH2 0x42D JUMP JUMPDEST SWAP2 POP PUSH2 0x7A6 DUP4 PUSH2 0x42D JUMP JUMPDEST SWAP3 POP DUP3 PUSH32 0xFFFFFFFFFFFFFFFFFFFFFFFFFFFFFFFFFFFFFFFFFFFFFFFFFFFFFFFFFFFFFFFF SUB DUP3 GT ISZERO PUSH2 0x7DB JUMPI PUSH2 0x7DA PUSH2 0x72D JUMP JUMPDEST JUMPDEST DUP3 DUP3 ADD SWAP1 POP SWAP3 SWAP2 POP POP JUMP INVALID LOG2 PUSH5 0x6970667358 0x22 SLT KECCAK256 DUP2 0xB1 0xF8 0xCD SWAP12 0xA6 PUSH23 0xE3E399AB7C64E3DFF89DE96B15132BDC37C6D0E95DDFBA 0x2A 0xC2 PUSH5 0x736F6C6343 STOP ADDMOD 0xD STOP CALLER "
				},
				"gasEstimates": {
					"creation": {
						"codeDepositCost": "415200",
						"executionCost": "449",
						"totalCost": "415649"
					},
					"external": {
						"balanceOf(address)": "2819",
						"deposit(uint256)": "infinite",
						"transfer(address,uint256)": "infinite"
					}
				},
				"methodIdentifiers": {
					"balanceOf(address)": "70a08231",
					"deposit(uint256)": "b6b55f25",
					"transfer(address,uint256)": "a9059cbb"
				}
			},
			"storageLayout": {
				"storage": [
					{
						"astId": 5,
						"contract": "contracts/decentralize-bank/bank.sol:Bank",
						"label": "_balances",
						"offset": 0,
						"slot": "0",
						"type": "t_mapping(t_address,t_uint256)"
					}
				],
				"types": {
					"t_address": {
						"encoding": "inplace",
						"label": "address",
						"numberOfBytes": "20"
					},
					"t_mapping(t_address,t_uint256)": {
						"encoding": "mapping",
						"key": "t_address",
						"label": "mapping(address => uint256)",
						"numberOfBytes": "32",
						"value": "t_uint256"
					},
					"t_uint256": {
						"encoding": "inplace",
						"label": "uint256",
						"numberOfBytes": "32"
					}
				}
			},
			"userdoc": {
				"kind": "user",
				"methods": {},
				"version": 1
			}
		}
	}
}