{
  "contractName": "Weapons",
  "abi": [
    {
      "inputs": [],
      "stateMutability": "nonpayable",
      "type": "constructor"
    },
    {
      "anonymous": false,
      "inputs": [
        {
          "indexed": true,
          "internalType": "address",
          "name": "owner",
          "type": "address"
        },
        {
          "indexed": true,
          "internalType": "address",
          "name": "approved",
          "type": "address"
        },
        {
          "indexed": true,
          "internalType": "uint256",
          "name": "tokenId",
          "type": "uint256"
        }
      ],
      "name": "Approval",
      "type": "event"
    },
    {
      "anonymous": false,
      "inputs": [
        {
          "indexed": true,
          "internalType": "address",
          "name": "owner",
          "type": "address"
        },
        {
          "indexed": true,
          "internalType": "address",
          "name": "operator",
          "type": "address"
        },
        {
          "indexed": false,
          "internalType": "bool",
          "name": "approved",
          "type": "bool"
        }
      ],
      "name": "ApprovalForAll",
      "type": "event"
    },
    {
      "anonymous": false,
      "inputs": [
        {
          "indexed": true,
          "internalType": "address",
          "name": "from",
          "type": "address"
        },
        {
          "indexed": true,
          "internalType": "address",
          "name": "to",
          "type": "address"
        },
        {
          "indexed": true,
          "internalType": "uint256",
          "name": "tokenId",
          "type": "uint256"
        }
      ],
      "name": "Transfer",
      "type": "event"
    },
    {
      "inputs": [
        {
          "internalType": "address",
          "name": "to",
          "type": "address"
        },
        {
          "internalType": "uint256",
          "name": "tokenId",
          "type": "uint256"
        }
      ],
      "name": "approve",
      "outputs": [],
      "stateMutability": "nonpayable",
      "type": "function"
    },
    {
      "inputs": [
        {
          "internalType": "address",
          "name": "owner",
          "type": "address"
        }
      ],
      "name": "balanceOf",
      "outputs": [
        {
          "internalType": "uint256",
          "name": "",
          "type": "uint256"
        }
      ],
      "stateMutability": "view",
      "type": "function",
      "constant": true
    },
    {
      "inputs": [
        {
          "internalType": "uint256",
          "name": "tokenId",
          "type": "uint256"
        }
      ],
      "name": "getApproved",
      "outputs": [
        {
          "internalType": "address",
          "name": "",
          "type": "address"
        }
      ],
      "stateMutability": "view",
      "type": "function",
      "constant": true
    },
    {
      "inputs": [
        {
          "internalType": "address",
          "name": "owner",
          "type": "address"
        },
        {
          "internalType": "address",
          "name": "operator",
          "type": "address"
        }
      ],
      "name": "isApprovedForAll",
      "outputs": [
        {
          "internalType": "bool",
          "name": "",
          "type": "bool"
        }
      ],
      "stateMutability": "view",
      "type": "function",
      "constant": true
    },
    {
      "inputs": [],
      "name": "name",
      "outputs": [
        {
          "internalType": "string",
          "name": "",
          "type": "string"
        }
      ],
      "stateMutability": "view",
      "type": "function",
      "constant": true
    },
    {
      "inputs": [
        {
          "internalType": "uint256",
          "name": "tokenId",
          "type": "uint256"
        }
      ],
      "name": "ownerOf",
      "outputs": [
        {
          "internalType": "address",
          "name": "",
          "type": "address"
        }
      ],
      "stateMutability": "view",
      "type": "function",
      "constant": true
    },
    {
      "inputs": [
        {
          "internalType": "address",
          "name": "from",
          "type": "address"
        },
        {
          "internalType": "address",
          "name": "to",
          "type": "address"
        },
        {
          "internalType": "uint256",
          "name": "tokenId",
          "type": "uint256"
        }
      ],
      "name": "safeTransferFrom",
      "outputs": [],
      "stateMutability": "nonpayable",
      "type": "function"
    },
    {
      "inputs": [
        {
          "internalType": "address",
          "name": "from",
          "type": "address"
        },
        {
          "internalType": "address",
          "name": "to",
          "type": "address"
        },
        {
          "internalType": "uint256",
          "name": "tokenId",
          "type": "uint256"
        },
        {
          "internalType": "bytes",
          "name": "data",
          "type": "bytes"
        }
      ],
      "name": "safeTransferFrom",
      "outputs": [],
      "stateMutability": "nonpayable",
      "type": "function"
    },
    {
      "inputs": [
        {
          "internalType": "address",
          "name": "operator",
          "type": "address"
        },
        {
          "internalType": "bool",
          "name": "approved",
          "type": "bool"
        }
      ],
      "name": "setApprovalForAll",
      "outputs": [],
      "stateMutability": "nonpayable",
      "type": "function"
    },
    {
      "inputs": [
        {
          "internalType": "bytes4",
          "name": "interfaceId",
          "type": "bytes4"
        }
      ],
      "name": "supportsInterface",
      "outputs": [
        {
          "internalType": "bool",
          "name": "",
          "type": "bool"
        }
      ],
      "stateMutability": "view",
      "type": "function",
      "constant": true
    },
    {
      "inputs": [],
      "name": "symbol",
      "outputs": [
        {
          "internalType": "string",
          "name": "",
          "type": "string"
        }
      ],
      "stateMutability": "view",
      "type": "function",
      "constant": true
    },
    {
      "inputs": [
        {
          "internalType": "uint256",
          "name": "tokenId",
          "type": "uint256"
        }
      ],
      "name": "tokenURI",
      "outputs": [
        {
          "internalType": "string",
          "name": "",
          "type": "string"
        }
      ],
      "stateMutability": "view",
      "type": "function",
      "constant": true
    },
    {
      "inputs": [
        {
          "internalType": "address",
          "name": "from",
          "type": "address"
        },
        {
          "internalType": "address",
          "name": "to",
          "type": "address"
        },
        {
          "internalType": "uint256",
          "name": "tokenId",
          "type": "uint256"
        }
      ],
      "name": "transferFrom",
      "outputs": [],
      "stateMutability": "nonpayable",
      "type": "function"
    },
    {
      "inputs": [
        {
          "internalType": "address",
          "name": "player",
          "type": "address"
        },
        {
          "internalType": "string",
          "name": "tokenURI",
          "type": "string"
        },
        {
          "internalType": "uint256",
          "name": "boostXP",
          "type": "uint256"
        },
        {
          "internalType": "uint256",
          "name": "boostGold",
          "type": "uint256"
        }
      ],
      "name": "MintWeapon",
      "outputs": [
        {
          "internalType": "uint256",
          "name": "",
          "type": "uint256"
        }
      ],
      "stateMutability": "nonpayable",
      "type": "function"
    }
  ],
  "bytecode": "0x60806040523480156200001157600080fd5b506040518060400160405280600781526020017f576561706f6e73000000000000000000000000000000000000000000000000008152506040518060400160405280600381526020017f575053000000000000000000000000000000000000000000000000000000000081525081600090816200008f919062000324565b508060019081620000a1919062000324565b5050506200040b565b600081519050919050565b7f4e487b7100000000000000000000000000000000000000000000000000000000600052604160045260246000fd5b7f4e487b7100000000000000000000000000000000000000000000000000000000600052602260045260246000fd5b600060028204905060018216806200012c57607f821691505b602082108103620001425762000141620000e4565b5b50919050565b60008190508160005260206000209050919050565b60006020601f8301049050919050565b600082821b905092915050565b600060088302620001ac7fffffffffffffffffffffffffffffffffffffffffffffffffffffffffffffffff826200016d565b620001b886836200016d565b95508019841693508086168417925050509392505050565b6000819050919050565b6000819050919050565b600062000205620001ff620001f984620001d0565b620001da565b620001d0565b9050919050565b6000819050919050565b6200022183620001e4565b6200023962000230826200020c565b8484546200017a565b825550505050565b600090565b6200025062000241565b6200025d81848462000216565b505050565b5b8181101562000285576200027960008262000246565b60018101905062000263565b5050565b601f821115620002d4576200029e8162000148565b620002a9846200015d565b81016020851015620002b9578190505b620002d1620002c8856200015d565b83018262000262565b50505b505050565b600082821c905092915050565b6000620002f960001984600802620002d9565b1980831691505092915050565b6000620003148383620002e6565b9150826002028217905092915050565b6200032f82620000aa565b67ffffffffffffffff8111156200034b576200034a620000b5565b5b62000357825462000113565b6200036482828562000289565b600060209050601f8311600181146200039c576000841562000387578287015190505b62000393858262000306565b86555062000403565b601f198416620003ac8662000148565b60005b82811015620003d657848901518255600182019150602085019450602081019050620003af565b86831015620003f65784890151620003f2601f891682620002e6565b8355505b6001600288020188555050505b505050505050565b612ad0806200041b6000396000f3fe608060405234801561001057600080fd5b50600436106100ea5760003560e01c80636352211e1161008c578063a22cb46511610066578063a22cb4651461026f578063b88d4fde1461028b578063c87b56dd146102a7578063e985e9c5146102d7576100ea565b80636352211e146101f157806370a082311461022157806395d89b4114610251576100ea565b8063095ea7b3116100c8578063095ea7b31461016d57806323b872dd1461018957806342842e0e146101a55780635516b44a146101c1576100ea565b806301ffc9a7146100ef57806306fdde031461011f578063081812fc1461013d575b600080fd5b610109600480360381019061010491906119d4565b610307565b6040516101169190611a1c565b60405180910390f35b6101276103e9565b6040516101349190611ac7565b60405180910390f35b61015760048036038101906101529190611b1f565b61047b565b6040516101649190611b8d565b60405180910390f35b61018760048036038101906101829190611bd4565b6104c1565b005b6101a3600480360381019061019e9190611c14565b6105d8565b005b6101bf60048036038101906101ba9190611c14565b610638565b005b6101db60048036038101906101d69190611ccc565b610658565b6040516101e89190611d63565b60405180910390f35b61020b60048036038101906102069190611b1f565b61072d565b6040516102189190611b8d565b60405180910390f35b61023b60048036038101906102369190611d7e565b6107b3565b6040516102489190611d63565b60405180910390f35b61025961086a565b6040516102669190611ac7565b60405180910390f35b61028960048036038101906102849190611dd7565b6108fc565b005b6102a560048036038101906102a09190611f47565b610912565b005b6102c160048036038101906102bc9190611b1f565b610974565b6040516102ce9190611ac7565b60405180910390f35b6102f160048036038101906102ec9190611fca565b610a86565b6040516102fe9190611a1c565b60405180910390f35b60007f80ac58cd000000000000000000000000000000000000000000000000000000007bffffffffffffffffffffffffffffffffffffffffffffffffffffffff1916827bffffffffffffffffffffffffffffffffffffffffffffffffffffffff191614806103d257507f5b5e139f000000000000000000000000000000000000000000000000000000007bffffffffffffffffffffffffffffffffffffffffffffffffffffffff1916827bffffffffffffffffffffffffffffffffffffffffffffffffffffffff1916145b806103e257506103e182610b1a565b5b9050919050565b6060600080546103f890612039565b80601f016020809104026020016040519081016040528092919081815260200182805461042490612039565b80156104715780601f1061044657610100808354040283529160200191610471565b820191906000526020600020905b81548152906001019060200180831161045457829003601f168201915b5050505050905090565b600061048682610b84565b6004600083815260200190815260200160002060009054906101000a900473ffffffffffffffffffffffffffffffffffffffff169050919050565b60006104cc8261072d565b90508073ffffffffffffffffffffffffffffffffffffffff168373ffffffffffffffffffffffffffffffffffffffff160361053c576040517f08c379a0000000000000000000000000000000000000000000000000000000008152600401610533906120dc565b60405180910390fd5b8073ffffffffffffffffffffffffffffffffffffffff1661055b610bcf565b73ffffffffffffffffffffffffffffffffffffffff16148061058a575061058981610584610bcf565b610a86565b5b6105c9576040517f08c379a00000000000000000000000000000000000000000000000000000000081526004016105c09061216e565b60405180910390fd5b6105d38383610bd7565b505050565b6105e96105e3610bcf565b82610c90565b610628576040517f08c379a000000000000000000000000000000000000000000000000000000000815260040161061f90612200565b60405180910390fd5b610633838383610d25565b505050565b61065383838360405180602001604052806000815250610912565b505050565b6000610664600761101e565b600860405180604001604052808581526020018481525090806001815401808255809150506001900390600052602060002090600202016000909190919091506000820151816000015560208201518160010155505060006106c66007611034565b90506106d28782611042565b6107208187878080601f016020809104026020016040519081016040528093929190818152602001838380828437600081840152601f19601f8201169050808301925050505050505061125f565b8091505095945050505050565b600080610739836112cc565b9050600073ffffffffffffffffffffffffffffffffffffffff168173ffffffffffffffffffffffffffffffffffffffff16036107aa576040517f08c379a00000000000000000000000000000000000000000000000000000000081526004016107a19061226c565b60405180910390fd5b80915050919050565b60008073ffffffffffffffffffffffffffffffffffffffff168273ffffffffffffffffffffffffffffffffffffffff1603610823576040517f08c379a000000000000000000000000000000000000000000000000000000000815260040161081a906122fe565b60405180910390fd5b600360008373ffffffffffffffffffffffffffffffffffffffff1673ffffffffffffffffffffffffffffffffffffffff168152602001908152602001600020549050919050565b60606001805461087990612039565b80601f01602080910402602001604051908101604052809291908181526020018280546108a590612039565b80156108f25780601f106108c7576101008083540402835291602001916108f2565b820191906000526020600020905b8154815290600101906020018083116108d557829003601f168201915b5050505050905090565b61090e610907610bcf565b8383611309565b5050565b61092361091d610bcf565b83610c90565b610962576040517f08c379a000000000000000000000000000000000000000000000000000000000815260040161095990612200565b60405180910390fd5b61096e84848484611475565b50505050565b606061097f82610b84565b600060066000848152602001908152602001600020805461099f90612039565b80601f01602080910402602001604051908101604052809291908181526020018280546109cb90612039565b8015610a185780601f106109ed57610100808354040283529160200191610a18565b820191906000526020600020905b8154815290600101906020018083116109fb57829003601f168201915b505050505090506000610a296114d1565b90506000815103610a3e578192505050610a81565b600082511115610a73578082604051602001610a5b92919061235a565b60405160208183030381529060405292505050610a81565b610a7c846114e8565b925050505b919050565b6000600560008473ffffffffffffffffffffffffffffffffffffffff1673ffffffffffffffffffffffffffffffffffffffff16815260200190815260200160002060008373ffffffffffffffffffffffffffffffffffffffff1673ffffffffffffffffffffffffffffffffffffffff16815260200190815260200160002060009054906101000a900460ff16905092915050565b60007f01ffc9a7000000000000000000000000000000000000000000000000000000007bffffffffffffffffffffffffffffffffffffffffffffffffffffffff1916827bffffffffffffffffffffffffffffffffffffffffffffffffffffffff1916149050919050565b610b8d81611550565b610bcc576040517f08c379a0000000000000000000000000000000000000000000000000000000008152600401610bc39061226c565b60405180910390fd5b50565b600033905090565b816004600083815260200190815260200160002060006101000a81548173ffffffffffffffffffffffffffffffffffffffff021916908373ffffffffffffffffffffffffffffffffffffffff160217905550808273ffffffffffffffffffffffffffffffffffffffff16610c4a8361072d565b73ffffffffffffffffffffffffffffffffffffffff167f8c5be1e5ebec7d5bd14f71427d1e84f3dd0314c0f7b2291e5b200ac8c7c3b92560405160405180910390a45050565b600080610c9c8361072d565b90508073ffffffffffffffffffffffffffffffffffffffff168473ffffffffffffffffffffffffffffffffffffffff161480610cde5750610cdd8185610a86565b5b80610d1c57508373ffffffffffffffffffffffffffffffffffffffff16610d048461047b565b73ffffffffffffffffffffffffffffffffffffffff16145b91505092915050565b8273ffffffffffffffffffffffffffffffffffffffff16610d458261072d565b73ffffffffffffffffffffffffffffffffffffffff1614610d9b576040517f08c379a0000000000000000000000000000000000000000000000000000000008152600401610d92906123f0565b60405180910390fd5b600073ffffffffffffffffffffffffffffffffffffffff168273ffffffffffffffffffffffffffffffffffffffff1603610e0a576040517f08c379a0000000000000000000000000000000000000000000000000000000008152600401610e0190612482565b60405180910390fd5b610e178383836001611591565b8273ffffffffffffffffffffffffffffffffffffffff16610e378261072d565b73ffffffffffffffffffffffffffffffffffffffff1614610e8d576040517f08c379a0000000000000000000000000000000000000000000000000000000008152600401610e84906123f0565b60405180910390fd5b6004600082815260200190815260200160002060006101000a81549073ffffffffffffffffffffffffffffffffffffffff02191690556001600360008573ffffffffffffffffffffffffffffffffffffffff1673ffffffffffffffffffffffffffffffffffffffff168152602001908152602001600020600082825403925050819055506001600360008473ffffffffffffffffffffffffffffffffffffffff1673ffffffffffffffffffffffffffffffffffffffff16815260200190815260200160002060008282540192505081905550816002600083815260200190815260200160002060006101000a81548173ffffffffffffffffffffffffffffffffffffffff021916908373ffffffffffffffffffffffffffffffffffffffff160217905550808273ffffffffffffffffffffffffffffffffffffffff168473ffffffffffffffffffffffffffffffffffffffff167fddf252ad1be2c89b69c2b068fc378daa952ba7f163c4a11628f55a4df523b3ef60405160405180910390a46110198383836001611597565b505050565b6001816000016000828254019250508190555050565b600081600001549050919050565b600073ffffffffffffffffffffffffffffffffffffffff168273ffffffffffffffffffffffffffffffffffffffff16036110b1576040517f08c379a00000000000000000000000000000000000000000000000000000000081526004016110a8906124ee565b60405180910390fd5b6110ba81611550565b156110fa576040517f08c379a00000000000000000000000000000000000000000000000000000000081526004016110f19061255a565b60405180910390fd5b611108600083836001611591565b61111181611550565b15611151576040517f08c379a00000000000000000000000000000000000000000000000000000000081526004016111489061255a565b60405180910390fd5b6001600360008473ffffffffffffffffffffffffffffffffffffffff1673ffffffffffffffffffffffffffffffffffffffff16815260200190815260200160002060008282540192505081905550816002600083815260200190815260200160002060006101000a81548173ffffffffffffffffffffffffffffffffffffffff021916908373ffffffffffffffffffffffffffffffffffffffff160217905550808273ffffffffffffffffffffffffffffffffffffffff16600073ffffffffffffffffffffffffffffffffffffffff167fddf252ad1be2c89b69c2b068fc378daa952ba7f163c4a11628f55a4df523b3ef60405160405180910390a461125b600083836001611597565b5050565b61126882611550565b6112a7576040517f08c379a000000000000000000000000000000000000000000000000000000000815260040161129e906125ec565b60405180910390fd5b806006600084815260200190815260200160002090816112c791906127b8565b505050565b60006002600083815260200190815260200160002060009054906101000a900473ffffffffffffffffffffffffffffffffffffffff169050919050565b8173ffffffffffffffffffffffffffffffffffffffff168373ffffffffffffffffffffffffffffffffffffffff1603611377576040517f08c379a000000000000000000000000000000000000000000000000000000000815260040161136e906128d6565b60405180910390fd5b80600560008573ffffffffffffffffffffffffffffffffffffffff1673ffffffffffffffffffffffffffffffffffffffff16815260200190815260200160002060008473ffffffffffffffffffffffffffffffffffffffff1673ffffffffffffffffffffffffffffffffffffffff16815260200190815260200160002060006101000a81548160ff0219169083151502179055508173ffffffffffffffffffffffffffffffffffffffff168373ffffffffffffffffffffffffffffffffffffffff167f17307eab39ab6107e8899845ad3d59bd9653f200f220920489ca2b5937696c31836040516114689190611a1c565b60405180910390a3505050565b611480848484610d25565b61148c8484848461159d565b6114cb576040517f08c379a00000000000000000000000000000000000000000000000000000000081526004016114c290612968565b60405180910390fd5b50505050565b606060405180602001604052806000815250905090565b60606114f382610b84565b60006114fd6114d1565b9050600081511161151d5760405180602001604052806000815250611548565b8061152784611724565b60405160200161153892919061235a565b6040516020818303038152906040525b915050919050565b60008073ffffffffffffffffffffffffffffffffffffffff16611572836112cc565b73ffffffffffffffffffffffffffffffffffffffff1614159050919050565b50505050565b50505050565b60006115be8473ffffffffffffffffffffffffffffffffffffffff166117f2565b15611717578373ffffffffffffffffffffffffffffffffffffffff1663150b7a026115e7610bcf565b8786866040518563ffffffff1660e01b815260040161160994939291906129dd565b6020604051808303816000875af192505050801561164557506040513d601f19601f820116820180604052508101906116429190612a3e565b60015b6116c7573d8060008114611675576040519150601f19603f3d011682016040523d82523d6000602084013e61167a565b606091505b5060008151036116bf576040517f08c379a00000000000000000000000000000000000000000000000000000000081526004016116b690612968565b60405180910390fd5b805181602001fd5b63150b7a0260e01b7bffffffffffffffffffffffffffffffffffffffffffffffffffffffff1916817bffffffffffffffffffffffffffffffffffffffffffffffffffffffff19161491505061171c565b600190505b949350505050565b60606000600161173384611815565b01905060008167ffffffffffffffff81111561175257611751611e1c565b5b6040519080825280601f01601f1916602001820160405280156117845781602001600182028036833780820191505090505b509050600082602001820190505b6001156117e7578080600190039150507f3031323334353637383961626364656600000000000000000000000000000000600a86061a8153600a85816117db576117da612a6b565b5b04945060008503611792575b819350505050919050565b6000808273ffffffffffffffffffffffffffffffffffffffff163b119050919050565b600080600090507a184f03e93ff9f4daa797ed6e38ed64bf6a1f0100000000000000008310611873577a184f03e93ff9f4daa797ed6e38ed64bf6a1f010000000000000000838161186957611868612a6b565b5b0492506040810190505b6d04ee2d6d415b85acef810000000083106118b0576d04ee2d6d415b85acef810000000083816118a6576118a5612a6b565b5b0492506020810190505b662386f26fc1000083106118df57662386f26fc1000083816118d5576118d4612a6b565b5b0492506010810190505b6305f5e1008310611908576305f5e10083816118fe576118fd612a6b565b5b0492506008810190505b612710831061192d57612710838161192357611922612a6b565b5b0492506004810190505b60648310611950576064838161194657611945612a6b565b5b0492506002810190505b600a831061195f576001810190505b80915050919050565b6000604051905090565b600080fd5b600080fd5b60007fffffffff0000000000000000000000000000000000000000000000000000000082169050919050565b6119b18161197c565b81146119bc57600080fd5b50565b6000813590506119ce816119a8565b92915050565b6000602082840312156119ea576119e9611972565b5b60006119f8848285016119bf565b91505092915050565b60008115159050919050565b611a1681611a01565b82525050565b6000602082019050611a316000830184611a0d565b92915050565b600081519050919050565b600082825260208201905092915050565b60005b83811015611a71578082015181840152602081019050611a56565b60008484015250505050565b6000601f19601f8301169050919050565b6000611a9982611a37565b611aa38185611a42565b9350611ab3818560208601611a53565b611abc81611a7d565b840191505092915050565b60006020820190508181036000830152611ae18184611a8e565b905092915050565b6000819050919050565b611afc81611ae9565b8114611b0757600080fd5b50565b600081359050611b1981611af3565b92915050565b600060208284031215611b3557611b34611972565b5b6000611b4384828501611b0a565b91505092915050565b600073ffffffffffffffffffffffffffffffffffffffff82169050919050565b6000611b7782611b4c565b9050919050565b611b8781611b6c565b82525050565b6000602082019050611ba26000830184611b7e565b92915050565b611bb181611b6c565b8114611bbc57600080fd5b50565b600081359050611bce81611ba8565b92915050565b60008060408385031215611beb57611bea611972565b5b6000611bf985828601611bbf565b9250506020611c0a85828601611b0a565b9150509250929050565b600080600060608486031215611c2d57611c2c611972565b5b6000611c3b86828701611bbf565b9350506020611c4c86828701611bbf565b9250506040611c5d86828701611b0a565b9150509250925092565b600080fd5b600080fd5b600080fd5b60008083601f840112611c8c57611c8b611c67565b5b8235905067ffffffffffffffff811115611ca957611ca8611c6c565b5b602083019150836001820283011115611cc557611cc4611c71565b5b9250929050565b600080600080600060808688031215611ce857611ce7611972565b5b6000611cf688828901611bbf565b955050602086013567ffffffffffffffff811115611d1757611d16611977565b5b611d2388828901611c76565b94509450506040611d3688828901611b0a565b9250506060611d4788828901611b0a565b9150509295509295909350565b611d5d81611ae9565b82525050565b6000602082019050611d786000830184611d54565b92915050565b600060208284031215611d9457611d93611972565b5b6000611da284828501611bbf565b91505092915050565b611db481611a01565b8114611dbf57600080fd5b50565b600081359050611dd181611dab565b92915050565b60008060408385031215611dee57611ded611972565b5b6000611dfc85828601611bbf565b9250506020611e0d85828601611dc2565b9150509250929050565b600080fd5b7f4e487b7100000000000000000000000000000000000000000000000000000000600052604160045260246000fd5b611e5482611a7d565b810181811067ffffffffffffffff82111715611e7357611e72611e1c565b5b80604052505050565b6000611e86611968565b9050611e928282611e4b565b919050565b600067ffffffffffffffff821115611eb257611eb1611e1c565b5b611ebb82611a7d565b9050602081019050919050565b82818337600083830152505050565b6000611eea611ee584611e97565b611e7c565b905082815260208101848484011115611f0657611f05611e17565b5b611f11848285611ec8565b509392505050565b600082601f830112611f2e57611f2d611c67565b5b8135611f3e848260208601611ed7565b91505092915050565b60008060008060808587031215611f6157611f60611972565b5b6000611f6f87828801611bbf565b9450506020611f8087828801611bbf565b9350506040611f9187828801611b0a565b925050606085013567ffffffffffffffff811115611fb257611fb1611977565b5b611fbe87828801611f19565b91505092959194509250565b60008060408385031215611fe157611fe0611972565b5b6000611fef85828601611bbf565b925050602061200085828601611bbf565b9150509250929050565b7f4e487b7100000000000000000000000000000000000000000000000000000000600052602260045260246000fd5b6000600282049050600182168061205157607f821691505b6020821081036120645761206361200a565b5b50919050565b7f4552433732313a20617070726f76616c20746f2063757272656e74206f776e6560008201527f7200000000000000000000000000000000000000000000000000000000000000602082015250565b60006120c6602183611a42565b91506120d18261206a565b604082019050919050565b600060208201905081810360008301526120f5816120b9565b9050919050565b7f4552433732313a20617070726f76652063616c6c6572206973206e6f7420746f60008201527f6b656e206f776e6572206f7220617070726f76656420666f7220616c6c000000602082015250565b6000612158603d83611a42565b9150612163826120fc565b604082019050919050565b600060208201905081810360008301526121878161214b565b9050919050565b7f4552433732313a2063616c6c6572206973206e6f7420746f6b656e206f776e6560008201527f72206f7220617070726f76656400000000000000000000000000000000000000602082015250565b60006121ea602d83611a42565b91506121f58261218e565b604082019050919050565b60006020820190508181036000830152612219816121dd565b9050919050565b7f4552433732313a20696e76616c696420746f6b656e2049440000000000000000600082015250565b6000612256601883611a42565b915061226182612220565b602082019050919050565b6000602082019050818103600083015261228581612249565b9050919050565b7f4552433732313a2061646472657373207a65726f206973206e6f74206120766160008201527f6c6964206f776e65720000000000000000000000000000000000000000000000602082015250565b60006122e8602983611a42565b91506122f38261228c565b604082019050919050565b60006020820190508181036000830152612317816122db565b9050919050565b600081905092915050565b600061233482611a37565b61233e818561231e565b935061234e818560208601611a53565b80840191505092915050565b60006123668285612329565b91506123728284612329565b91508190509392505050565b7f4552433732313a207472616e736665722066726f6d20696e636f72726563742060008201527f6f776e6572000000000000000000000000000000000000000000000000000000602082015250565b60006123da602583611a42565b91506123e58261237e565b604082019050919050565b60006020820190508181036000830152612409816123cd565b9050919050565b7f4552433732313a207472616e7366657220746f20746865207a65726f2061646460008201527f7265737300000000000000000000000000000000000000000000000000000000602082015250565b600061246c602483611a42565b915061247782612410565b604082019050919050565b6000602082019050818103600083015261249b8161245f565b9050919050565b7f4552433732313a206d696e7420746f20746865207a65726f2061646472657373600082015250565b60006124d8602083611a42565b91506124e3826124a2565b602082019050919050565b60006020820190508181036000830152612507816124cb565b9050919050565b7f4552433732313a20746f6b656e20616c7265616479206d696e74656400000000600082015250565b6000612544601c83611a42565b915061254f8261250e565b602082019050919050565b6000602082019050818103600083015261257381612537565b9050919050565b7f45524337323155524953746f726167653a2055524920736574206f66206e6f6e60008201527f6578697374656e7420746f6b656e000000000000000000000000000000000000602082015250565b60006125d6602e83611a42565b91506125e18261257a565b604082019050919050565b60006020820190508181036000830152612605816125c9565b9050919050565b60008190508160005260206000209050919050565b60006020601f8301049050919050565b600082821b905092915050565b60006008830261266e7fffffffffffffffffffffffffffffffffffffffffffffffffffffffffffffffff82612631565b6126788683612631565b95508019841693508086168417925050509392505050565b6000819050919050565b60006126b56126b06126ab84611ae9565b612690565b611ae9565b9050919050565b6000819050919050565b6126cf8361269a565b6126e36126db826126bc565b84845461263e565b825550505050565b600090565b6126f86126eb565b6127038184846126c6565b505050565b5b818110156127275761271c6000826126f0565b600181019050612709565b5050565b601f82111561276c5761273d8161260c565b61274684612621565b81016020851015612755578190505b61276961276185612621565b830182612708565b50505b505050565b600082821c905092915050565b600061278f60001984600802612771565b1980831691505092915050565b60006127a8838361277e565b9150826002028217905092915050565b6127c182611a37565b67ffffffffffffffff8111156127da576127d9611e1c565b5b6127e48254612039565b6127ef82828561272b565b600060209050601f8311600181146128225760008415612810578287015190505b61281a858261279c565b865550612882565b601f1984166128308661260c565b60005b8281101561285857848901518255600182019150602085019450602081019050612833565b868310156128755784890151612871601f89168261277e565b8355505b6001600288020188555050505b505050505050565b7f4552433732313a20617070726f766520746f2063616c6c657200000000000000600082015250565b60006128c0601983611a42565b91506128cb8261288a565b602082019050919050565b600060208201905081810360008301526128ef816128b3565b9050919050565b7f4552433732313a207472616e7366657220746f206e6f6e20455243373231526560008201527f63656976657220696d706c656d656e7465720000000000000000000000000000602082015250565b6000612952603283611a42565b915061295d826128f6565b604082019050919050565b6000602082019050818103600083015261298181612945565b9050919050565b600081519050919050565b600082825260208201905092915050565b60006129af82612988565b6129b98185612993565b93506129c9818560208601611a53565b6129d281611a7d565b840191505092915050565b60006080820190506129f26000830187611b7e565b6129ff6020830186611b7e565b612a0c6040830185611d54565b8181036060830152612a1e81846129a4565b905095945050505050565b600081519050612a38816119a8565b92915050565b600060208284031215612a5457612a53611972565b5b6000612a6284828501612a29565b91505092915050565b7f4e487b7100000000000000000000000000000000000000000000000000000000600052601260045260246000fdfea2646970667358221220bc3bb919c98f0f35ee100f6842b89892e68eb00cd31bfdec010dc2f9e4cbb60564736f6c63430008120033",
  "immutableReferences": {},
  "source": "// SPDX-License-Identifier: MIT\r\npragma solidity >=0.4.22 <0.9.0;\r\n\r\nimport \"../node_modules/@openzeppelin/contracts/token/ERC721/ERC721.sol\";\r\nimport \"../node_modules/@openzeppelin/contracts/token/ERC721/extensions/ERC721URIStorage.sol\";\r\nimport \"../node_modules/@openzeppelin/contracts/utils/Counters.sol\";\r\n\r\ncontract Weapons is ERC721URIStorage {\r\n    using Counters for Counters.Counter;\r\n    Counters.Counter private _tokenIds;\r\n\r\n    struct Weapon {\r\n        uint boostXP;\r\n        uint boostGold;\r\n    }\r\n\r\n    Weapon[] weapons;\r\n\r\n    constructor() ERC721(\"Weapons\", \"WPS\") {}\r\n\r\n    function MintWeapon(\r\n        address player,\r\n        string calldata tokenURI,\r\n        uint boostXP,\r\n        uint boostGold\r\n    ) external returns (uint) {\r\n        _tokenIds.increment();\r\n        weapons.push(Weapon(boostXP, boostGold));\r\n        uint newTokenID = _tokenIds.current();\r\n        _mint(player, newTokenID);\r\n        _setTokenURI(newTokenID, tokenURI);\r\n\r\n        return newTokenID;\r\n    }\r\n}\r\n",
  "sourcePath": "C:\\Users\\Alex\\Documents\\Travail\\Alyra\\Alyra-formation\\NFT\\ERC721\\contracts\\Weapons.sol",
  "compiler": {
    "name": "solc",
    "version": "0.8.18+commit.87f61d96.Emscripten.clang"
  },
  "schemaVersion": "3.4.7",
  "updatedAt": "2023-03-26T08:32:15.345Z",
  "networkType": "ethereum",
  "devdoc": {
    "events": {
      "Approval(address,address,uint256)": {
        "details": "Emitted when `owner` enables `approved` to manage the `tokenId` token."
      },
      "ApprovalForAll(address,address,bool)": {
        "details": "Emitted when `owner` enables or disables (`approved`) `operator` to manage all of its assets."
      },
      "Transfer(address,address,uint256)": {
        "details": "Emitted when `tokenId` token is transferred from `from` to `to`."
      }
    },
    "kind": "dev",
    "methods": {
      "approve(address,uint256)": {
        "details": "See {IERC721-approve}."
      },
      "balanceOf(address)": {
        "details": "See {IERC721-balanceOf}."
      },
      "getApproved(uint256)": {
        "details": "See {IERC721-getApproved}."
      },
      "isApprovedForAll(address,address)": {
        "details": "See {IERC721-isApprovedForAll}."
      },
      "name()": {
        "details": "See {IERC721Metadata-name}."
      },
      "ownerOf(uint256)": {
        "details": "See {IERC721-ownerOf}."
      },
      "safeTransferFrom(address,address,uint256)": {
        "details": "See {IERC721-safeTransferFrom}."
      },
      "safeTransferFrom(address,address,uint256,bytes)": {
        "details": "See {IERC721-safeTransferFrom}."
      },
      "setApprovalForAll(address,bool)": {
        "details": "See {IERC721-setApprovalForAll}."
      },
      "supportsInterface(bytes4)": {
        "details": "See {IERC165-supportsInterface}."
      },
      "symbol()": {
        "details": "See {IERC721Metadata-symbol}."
      },
      "tokenURI(uint256)": {
        "details": "See {IERC721Metadata-tokenURI}."
      },
      "transferFrom(address,address,uint256)": {
        "details": "See {IERC721-transferFrom}."
      }
    },
    "version": 1
  },
  "userdoc": {
    "kind": "user",
    "methods": {},
    "version": 1
  }
}