{
	"contracts/exoCours/exoInheritance/exoInheritance.sol": {
		"Caller": {
			"abi": [
				{
					"inputs": [
						{
							"internalType": "uint256",
							"name": "_value",
							"type": "uint256"
						}
					],
					"name": "createChild",
					"outputs": [
						{
							"internalType": "uint256",
							"name": "",
							"type": "uint256"
						}
					],
					"stateMutability": "nonpayable",
					"type": "function"
				}
			],
			"devdoc": {
				"kind": "dev",
				"methods": {},
				"version": 1
			},
			"evm": {
				"assembly": "    /* \"contracts/exoCours/exoInheritance/exoInheritance.sol\":323:523  contract Caller{... */\n  mstore(0x40, 0x80)\n  callvalue\n  dup1\n  iszero\n  tag_1\n  jumpi\n  0x00\n  dup1\n  revert\ntag_1:\n  pop\n  dataSize(sub_0)\n  dup1\n  dataOffset(sub_0)\n  0x00\n  codecopy\n  0x00\n  return\nstop\n\nsub_0: assembly {\n        /* \"contracts/exoCours/exoInheritance/exoInheritance.sol\":323:523  contract Caller{... */\n      mstore(0x40, 0x80)\n      callvalue\n      dup1\n      iszero\n      tag_1\n      jumpi\n      0x00\n      dup1\n      revert\n    tag_1:\n      pop\n      jumpi(tag_2, lt(calldatasize, 0x04))\n      shr(0xe0, calldataload(0x00))\n      dup1\n      0x0419eca5\n      eq\n      tag_3\n      jumpi\n    tag_2:\n      0x00\n      dup1\n      revert\n        /* \"contracts/exoCours/exoInheritance/exoInheritance.sol\":347:520  function createChild(uint _value) public returns(uint){... */\n    tag_3:\n      tag_4\n      0x04\n      dup1\n      calldatasize\n      sub\n      dup2\n      add\n      swap1\n      tag_5\n      swap2\n      swap1\n      tag_6\n      jump\t// in\n    tag_5:\n      tag_7\n      jump\t// in\n    tag_4:\n      mload(0x40)\n      tag_8\n      swap2\n      swap1\n      tag_9\n      jump\t// in\n    tag_8:\n      mload(0x40)\n      dup1\n      swap2\n      sub\n      swap1\n      return\n    tag_7:\n        /* \"contracts/exoCours/exoInheritance/exoInheritance.sol\":396:400  uint */\n      0x00\n        /* \"contracts/exoCours/exoInheritance/exoInheritance.sol\":414:425  Child child */\n      dup1\n        /* \"contracts/exoCours/exoInheritance/exoInheritance.sol\":428:439  new Child() */\n      mload(0x40)\n      tag_11\n      swap1\n      tag_12\n      jump\t// in\n    tag_11:\n      mload(0x40)\n      dup1\n      swap2\n      sub\n      swap1\n      0x00\n      create\n      dup1\n      iszero\n      dup1\n      iszero\n      tag_13\n      jumpi\n      returndatasize\n      0x00\n      dup1\n      returndatacopy\n      revert(0x00, returndatasize)\n    tag_13:\n      pop\n        /* \"contracts/exoCours/exoInheritance/exoInheritance.sol\":414:439  Child child = new Child() */\n      swap1\n      pop\n        /* \"contracts/exoCours/exoInheritance/exoInheritance.sol\":450:455  child */\n      dup1\n        /* \"contracts/exoCours/exoInheritance/exoInheritance.sol\":450:464  child.setValue */\n      0xffffffffffffffffffffffffffffffffffffffff\n      and\n      0x55241077\n        /* \"contracts/exoCours/exoInheritance/exoInheritance.sol\":465:471  _value */\n      dup5\n        /* \"contracts/exoCours/exoInheritance/exoInheritance.sol\":450:472  child.setValue(_value) */\n      mload(0x40)\n      dup3\n      0xffffffff\n      and\n      0xe0\n      shl\n      dup2\n      mstore\n      0x04\n      add\n      tag_14\n      swap2\n      swap1\n      tag_9\n      jump\t// in\n    tag_14:\n      0x00\n      mload(0x40)\n      dup1\n      dup4\n      sub\n      dup2\n      0x00\n      dup8\n      dup1\n      extcodesize\n      iszero\n      dup1\n      iszero\n      tag_15\n      jumpi\n      0x00\n      dup1\n      revert\n    tag_15:\n      pop\n      gas\n      call\n      iszero\n      dup1\n      iszero\n      tag_17\n      jumpi\n      returndatasize\n      0x00\n      dup1\n      returndatacopy\n      revert(0x00, returndatasize)\n    tag_17:\n      pop\n      pop\n      pop\n      pop\n        /* \"contracts/exoCours/exoInheritance/exoInheritance.sol\":490:495  child */\n      dup1\n        /* \"contracts/exoCours/exoInheritance/exoInheritance.sol\":490:510  child.getParentValue */\n      0xffffffffffffffffffffffffffffffffffffffff\n      and\n      0x3ba529eb\n        /* \"contracts/exoCours/exoInheritance/exoInheritance.sol\":490:512  child.getParentValue() */\n      mload(0x40)\n      dup2\n      0xffffffff\n      and\n      0xe0\n      shl\n      dup2\n      mstore\n      0x04\n      add\n      0x20\n      mload(0x40)\n      dup1\n      dup4\n      sub\n      dup2\n      dup7\n      gas\n      staticcall\n      iszero\n      dup1\n      iszero\n      tag_19\n      jumpi\n      returndatasize\n      0x00\n      dup1\n      returndatacopy\n      revert(0x00, returndatasize)\n    tag_19:\n      pop\n      pop\n      pop\n      pop\n      mload(0x40)\n      returndatasize\n      not(0x1f)\n      0x1f\n      dup3\n      add\n      and\n      dup3\n      add\n      dup1\n      0x40\n      mstore\n      pop\n      dup2\n      add\n      swap1\n      tag_20\n      swap2\n      swap1\n      tag_21\n      jump\t// in\n    tag_20:\n        /* \"contracts/exoCours/exoInheritance/exoInheritance.sol\":483:512  return child.getParentValue() */\n      swap2\n      pop\n      pop\n        /* \"contracts/exoCours/exoInheritance/exoInheritance.sol\":347:520  function createChild(uint _value) public returns(uint){... */\n      swap2\n      swap1\n      pop\n      jump\t// out\n    tag_12:\n      dataSize(sub_0)\n      dup1\n      dataOffset(sub_0)\n      dup4\n      codecopy\n      add\n      swap1\n      jump\t// out\n        /* \"#utility.yul\":88:205   */\n    tag_23:\n        /* \"#utility.yul\":197:198   */\n      0x00\n        /* \"#utility.yul\":194:195   */\n      dup1\n        /* \"#utility.yul\":187:199   */\n      revert\n        /* \"#utility.yul\":334:411   */\n    tag_25:\n        /* \"#utility.yul\":371:378   */\n      0x00\n        /* \"#utility.yul\":400:405   */\n      dup2\n        /* \"#utility.yul\":389:405   */\n      swap1\n      pop\n        /* \"#utility.yul\":334:411   */\n      swap2\n      swap1\n      pop\n      jump\t// out\n        /* \"#utility.yul\":417:539   */\n    tag_26:\n        /* \"#utility.yul\":490:514   */\n      tag_36\n        /* \"#utility.yul\":508:513   */\n      dup2\n        /* \"#utility.yul\":490:514   */\n      tag_25\n      jump\t// in\n    tag_36:\n        /* \"#utility.yul\":483:488   */\n      dup2\n        /* \"#utility.yul\":480:515   */\n      eq\n        /* \"#utility.yul\":470:533   */\n      tag_37\n      jumpi\n        /* \"#utility.yul\":529:530   */\n      0x00\n        /* \"#utility.yul\":526:527   */\n      dup1\n        /* \"#utility.yul\":519:531   */\n      revert\n        /* \"#utility.yul\":470:533   */\n    tag_37:\n        /* \"#utility.yul\":417:539   */\n      pop\n      jump\t// out\n        /* \"#utility.yul\":545:684   */\n    tag_27:\n        /* \"#utility.yul\":591:596   */\n      0x00\n        /* \"#utility.yul\":629:635   */\n      dup2\n        /* \"#utility.yul\":616:636   */\n      calldataload\n        /* \"#utility.yul\":607:636   */\n      swap1\n      pop\n        /* \"#utility.yul\":645:678   */\n      tag_39\n        /* \"#utility.yul\":672:677   */\n      dup2\n        /* \"#utility.yul\":645:678   */\n      tag_26\n      jump\t// in\n    tag_39:\n        /* \"#utility.yul\":545:684   */\n      swap3\n      swap2\n      pop\n      pop\n      jump\t// out\n        /* \"#utility.yul\":690:1019   */\n    tag_6:\n        /* \"#utility.yul\":749:755   */\n      0x00\n        /* \"#utility.yul\":798:800   */\n      0x20\n        /* \"#utility.yul\":786:795   */\n      dup3\n        /* \"#utility.yul\":777:784   */\n      dup5\n        /* \"#utility.yul\":773:796   */\n      sub\n        /* \"#utility.yul\":769:801   */\n      slt\n        /* \"#utility.yul\":766:885   */\n      iszero\n      tag_41\n      jumpi\n        /* \"#utility.yul\":804:883   */\n      tag_42\n      tag_23\n      jump\t// in\n    tag_42:\n        /* \"#utility.yul\":766:885   */\n    tag_41:\n        /* \"#utility.yul\":924:925   */\n      0x00\n        /* \"#utility.yul\":949:1002   */\n      tag_43\n        /* \"#utility.yul\":994:1001   */\n      dup5\n        /* \"#utility.yul\":985:991   */\n      dup3\n        /* \"#utility.yul\":974:983   */\n      dup6\n        /* \"#utility.yul\":970:992   */\n      add\n        /* \"#utility.yul\":949:1002   */\n      tag_27\n      jump\t// in\n    tag_43:\n        /* \"#utility.yul\":939:1002   */\n      swap2\n      pop\n        /* \"#utility.yul\":895:1012   */\n      pop\n        /* \"#utility.yul\":690:1019   */\n      swap3\n      swap2\n      pop\n      pop\n      jump\t// out\n        /* \"#utility.yul\":1025:1143   */\n    tag_28:\n        /* \"#utility.yul\":1112:1136   */\n      tag_45\n        /* \"#utility.yul\":1130:1135   */\n      dup2\n        /* \"#utility.yul\":1112:1136   */\n      tag_25\n      jump\t// in\n    tag_45:\n        /* \"#utility.yul\":1107:1110   */\n      dup3\n        /* \"#utility.yul\":1100:1137   */\n      mstore\n        /* \"#utility.yul\":1025:1143   */\n      pop\n      pop\n      jump\t// out\n        /* \"#utility.yul\":1149:1371   */\n    tag_9:\n        /* \"#utility.yul\":1242:1246   */\n      0x00\n        /* \"#utility.yul\":1280:1282   */\n      0x20\n        /* \"#utility.yul\":1269:1278   */\n      dup3\n        /* \"#utility.yul\":1265:1283   */\n      add\n        /* \"#utility.yul\":1257:1283   */\n      swap1\n      pop\n        /* \"#utility.yul\":1293:1364   */\n      tag_47\n        /* \"#utility.yul\":1361:1362   */\n      0x00\n        /* \"#utility.yul\":1350:1359   */\n      dup4\n        /* \"#utility.yul\":1346:1363   */\n      add\n        /* \"#utility.yul\":1337:1343   */\n      dup5\n        /* \"#utility.yul\":1293:1364   */\n      tag_28\n      jump\t// in\n    tag_47:\n        /* \"#utility.yul\":1149:1371   */\n      swap3\n      swap2\n      pop\n      pop\n      jump\t// out\n        /* \"#utility.yul\":1377:1520   */\n    tag_29:\n        /* \"#utility.yul\":1434:1439   */\n      0x00\n        /* \"#utility.yul\":1465:1471   */\n      dup2\n        /* \"#utility.yul\":1459:1472   */\n      mload\n        /* \"#utility.yul\":1450:1472   */\n      swap1\n      pop\n        /* \"#utility.yul\":1481:1514   */\n      tag_49\n        /* \"#utility.yul\":1508:1513   */\n      dup2\n        /* \"#utility.yul\":1481:1514   */\n      tag_26\n      jump\t// in\n    tag_49:\n        /* \"#utility.yul\":1377:1520   */\n      swap3\n      swap2\n      pop\n      pop\n      jump\t// out\n        /* \"#utility.yul\":1526:1877   */\n    tag_21:\n        /* \"#utility.yul\":1596:1602   */\n      0x00\n        /* \"#utility.yul\":1645:1647   */\n      0x20\n        /* \"#utility.yul\":1633:1642   */\n      dup3\n        /* \"#utility.yul\":1624:1631   */\n      dup5\n        /* \"#utility.yul\":1620:1643   */\n      sub\n        /* \"#utility.yul\":1616:1648   */\n      slt\n        /* \"#utility.yul\":1613:1732   */\n      iszero\n      tag_51\n      jumpi\n        /* \"#utility.yul\":1651:1730   */\n      tag_52\n      tag_23\n      jump\t// in\n    tag_52:\n        /* \"#utility.yul\":1613:1732   */\n    tag_51:\n        /* \"#utility.yul\":1771:1772   */\n      0x00\n        /* \"#utility.yul\":1796:1860   */\n      tag_53\n        /* \"#utility.yul\":1852:1859   */\n      dup5\n        /* \"#utility.yul\":1843:1849   */\n      dup3\n        /* \"#utility.yul\":1832:1841   */\n      dup6\n        /* \"#utility.yul\":1828:1850   */\n      add\n        /* \"#utility.yul\":1796:1860   */\n      tag_29\n      jump\t// in\n    tag_53:\n        /* \"#utility.yul\":1786:1860   */\n      swap2\n      pop\n        /* \"#utility.yul\":1742:1870   */\n      pop\n        /* \"#utility.yul\":1526:1877   */\n      swap3\n      swap2\n      pop\n      pop\n      jump\t// out\n    stop\n\n    sub_0: assembly {\n            /* \"contracts/exoCours/exoInheritance/exoInheritance.sol\":192:319  contract Child is Parent{... */\n          mstore(0x40, 0x80)\n          callvalue\n          dup1\n          iszero\n          tag_1\n          jumpi\n          0x00\n          dup1\n          revert\n        tag_1:\n          pop\n          dataSize(sub_0)\n          dup1\n          dataOffset(sub_0)\n          0x00\n          codecopy\n          0x00\n          return\n        stop\n\n        sub_0: assembly {\n                /* \"contracts/exoCours/exoInheritance/exoInheritance.sol\":192:319  contract Child is Parent{... */\n              mstore(0x40, 0x80)\n              callvalue\n              dup1\n              iszero\n              tag_1\n              jumpi\n              0x00\n              dup1\n              revert\n            tag_1:\n              pop\n              jumpi(tag_2, lt(calldatasize, 0x04))\n              shr(0xe0, calldataload(0x00))\n              dup1\n              0x3ba529eb\n              eq\n              tag_3\n              jumpi\n              dup1\n              0x55241077\n              eq\n              tag_4\n              jumpi\n            tag_2:\n              0x00\n              dup1\n              revert\n                /* \"contracts/exoCours/exoInheritance/exoInheritance.sol\":225:314  function getParentValue() external view returns(uint) {... */\n            tag_3:\n              tag_5\n              tag_6\n              jump\t// in\n            tag_5:\n              mload(0x40)\n              tag_7\n              swap2\n              swap1\n              tag_8\n              jump\t// in\n            tag_7:\n              mload(0x40)\n              dup1\n              swap2\n              sub\n              swap1\n              return\n                /* \"contracts/exoCours/exoInheritance/exoInheritance.sol\":111:185  function setValue(uint _value) external{... */\n            tag_4:\n              tag_9\n              0x04\n              dup1\n              calldatasize\n              sub\n              dup2\n              add\n              swap1\n              tag_10\n              swap2\n              swap1\n              tag_11\n              jump\t// in\n            tag_10:\n              tag_12\n              jump\t// in\n            tag_9:\n              stop\n                /* \"contracts/exoCours/exoInheritance/exoInheritance.sol\":225:314  function getParentValue() external view returns(uint) {... */\n            tag_6:\n                /* \"contracts/exoCours/exoInheritance/exoInheritance.sol\":273:277  uint */\n              0x00\n                /* \"contracts/exoCours/exoInheritance/exoInheritance.sol\":299:306  myValue */\n              dup1\n              sload\n                /* \"contracts/exoCours/exoInheritance/exoInheritance.sol\":292:306  return myValue */\n              swap1\n              pop\n                /* \"contracts/exoCours/exoInheritance/exoInheritance.sol\":225:314  function getParentValue() external view returns(uint) {... */\n              swap1\n              jump\t// out\n                /* \"contracts/exoCours/exoInheritance/exoInheritance.sol\":111:185  function setValue(uint _value) external{... */\n            tag_12:\n                /* \"contracts/exoCours/exoInheritance/exoInheritance.sol\":171:177  _value */\n              dup1\n                /* \"contracts/exoCours/exoInheritance/exoInheritance.sol\":161:168  myValue */\n              0x00\n                /* \"contracts/exoCours/exoInheritance/exoInheritance.sol\":161:177  myValue = _value */\n              dup2\n              swap1\n              sstore\n              pop\n                /* \"contracts/exoCours/exoInheritance/exoInheritance.sol\":111:185  function setValue(uint _value) external{... */\n              pop\n              jump\t// out\n                /* \"#utility.yul\":7:84   */\n            tag_15:\n                /* \"#utility.yul\":44:51   */\n              0x00\n                /* \"#utility.yul\":73:78   */\n              dup2\n                /* \"#utility.yul\":62:78   */\n              swap1\n              pop\n                /* \"#utility.yul\":7:84   */\n              swap2\n              swap1\n              pop\n              jump\t// out\n                /* \"#utility.yul\":90:208   */\n            tag_16:\n                /* \"#utility.yul\":177:201   */\n              tag_25\n                /* \"#utility.yul\":195:200   */\n              dup2\n                /* \"#utility.yul\":177:201   */\n              tag_15\n              jump\t// in\n            tag_25:\n                /* \"#utility.yul\":172:175   */\n              dup3\n                /* \"#utility.yul\":165:202   */\n              mstore\n                /* \"#utility.yul\":90:208   */\n              pop\n              pop\n              jump\t// out\n                /* \"#utility.yul\":214:436   */\n            tag_8:\n                /* \"#utility.yul\":307:311   */\n              0x00\n                /* \"#utility.yul\":345:347   */\n              0x20\n                /* \"#utility.yul\":334:343   */\n              dup3\n                /* \"#utility.yul\":330:348   */\n              add\n                /* \"#utility.yul\":322:348   */\n              swap1\n              pop\n                /* \"#utility.yul\":358:429   */\n              tag_27\n                /* \"#utility.yul\":426:427   */\n              0x00\n                /* \"#utility.yul\":415:424   */\n              dup4\n                /* \"#utility.yul\":411:428   */\n              add\n                /* \"#utility.yul\":402:408   */\n              dup5\n                /* \"#utility.yul\":358:429   */\n              tag_16\n              jump\t// in\n            tag_27:\n                /* \"#utility.yul\":214:436   */\n              swap3\n              swap2\n              pop\n              pop\n              jump\t// out\n                /* \"#utility.yul\":523:640   */\n            tag_18:\n                /* \"#utility.yul\":632:633   */\n              0x00\n                /* \"#utility.yul\":629:630   */\n              dup1\n                /* \"#utility.yul\":622:634   */\n              revert\n                /* \"#utility.yul\":769:891   */\n            tag_20:\n                /* \"#utility.yul\":842:866   */\n              tag_32\n                /* \"#utility.yul\":860:865   */\n              dup2\n                /* \"#utility.yul\":842:866   */\n              tag_15\n              jump\t// in\n            tag_32:\n                /* \"#utility.yul\":835:840   */\n              dup2\n                /* \"#utility.yul\":832:867   */\n              eq\n                /* \"#utility.yul\":822:885   */\n              tag_33\n              jumpi\n                /* \"#utility.yul\":881:882   */\n              0x00\n                /* \"#utility.yul\":878:879   */\n              dup1\n                /* \"#utility.yul\":871:883   */\n              revert\n                /* \"#utility.yul\":822:885   */\n            tag_33:\n                /* \"#utility.yul\":769:891   */\n              pop\n              jump\t// out\n                /* \"#utility.yul\":897:1036   */\n            tag_21:\n                /* \"#utility.yul\":943:948   */\n              0x00\n                /* \"#utility.yul\":981:987   */\n              dup2\n                /* \"#utility.yul\":968:988   */\n              calldataload\n                /* \"#utility.yul\":959:988   */\n              swap1\n              pop\n                /* \"#utility.yul\":997:1030   */\n              tag_35\n                /* \"#utility.yul\":1024:1029   */\n              dup2\n                /* \"#utility.yul\":997:1030   */\n              tag_20\n              jump\t// in\n            tag_35:\n                /* \"#utility.yul\":897:1036   */\n              swap3\n              swap2\n              pop\n              pop\n              jump\t// out\n                /* \"#utility.yul\":1042:1371   */\n            tag_11:\n                /* \"#utility.yul\":1101:1107   */\n              0x00\n                /* \"#utility.yul\":1150:1152   */\n              0x20\n                /* \"#utility.yul\":1138:1147   */\n              dup3\n                /* \"#utility.yul\":1129:1136   */\n              dup5\n                /* \"#utility.yul\":1125:1148   */\n              sub\n                /* \"#utility.yul\":1121:1153   */\n              slt\n                /* \"#utility.yul\":1118:1237   */\n              iszero\n              tag_37\n              jumpi\n                /* \"#utility.yul\":1156:1235   */\n              tag_38\n              tag_18\n              jump\t// in\n            tag_38:\n                /* \"#utility.yul\":1118:1237   */\n            tag_37:\n                /* \"#utility.yul\":1276:1277   */\n              0x00\n                /* \"#utility.yul\":1301:1354   */\n              tag_39\n                /* \"#utility.yul\":1346:1353   */\n              dup5\n                /* \"#utility.yul\":1337:1343   */\n              dup3\n                /* \"#utility.yul\":1326:1335   */\n              dup6\n                /* \"#utility.yul\":1322:1344   */\n              add\n                /* \"#utility.yul\":1301:1354   */\n              tag_21\n              jump\t// in\n            tag_39:\n                /* \"#utility.yul\":1291:1354   */\n              swap2\n              pop\n                /* \"#utility.yul\":1247:1364   */\n              pop\n                /* \"#utility.yul\":1042:1371   */\n              swap3\n              swap2\n              pop\n              pop\n              jump\t// out\n\n            auxdata: 0xa2646970667358221220d0a57133971f044acd0619dccc40fb75b1d131d697d878606ce35c09dc3d942e64736f6c634300080d0033\n        }\n    }\n\n    auxdata: 0xa2646970667358221220829c6bc251bc7c4104e0e9f23576291fed0779c7b47a1ad0c46c8657c88e342964736f6c634300080d0033\n}\n",
				"bytecode": {
					"linkReferences": {},
					"object": "608060405234801561001057600080fd5b506103f7806100206000396000f3fe608060405234801561001057600080fd5b506004361061002b5760003560e01c80630419eca514610030575b600080fd5b61004a600480360381019061004591906101b8565b610060565b60405161005791906101f4565b60405180910390f35b60008060405161006f90610170565b604051809103906000f08015801561008b573d6000803e3d6000fd5b5090508073ffffffffffffffffffffffffffffffffffffffff166355241077846040518263ffffffff1660e01b81526004016100c791906101f4565b600060405180830381600087803b1580156100e157600080fd5b505af11580156100f5573d6000803e3d6000fd5b505050508073ffffffffffffffffffffffffffffffffffffffff16633ba529eb6040518163ffffffff1660e01b8152600401602060405180830381865afa158015610144573d6000803e3d6000fd5b505050506040513d601f19601f820116820180604052508101906101689190610224565b915050919050565b6101708061025283390190565b600080fd5b6000819050919050565b61019581610182565b81146101a057600080fd5b50565b6000813590506101b28161018c565b92915050565b6000602082840312156101ce576101cd61017d565b5b60006101dc848285016101a3565b91505092915050565b6101ee81610182565b82525050565b600060208201905061020960008301846101e5565b92915050565b60008151905061021e8161018c565b92915050565b60006020828403121561023a5761023961017d565b5b60006102488482850161020f565b9150509291505056fe608060405234801561001057600080fd5b50610150806100206000396000f3fe608060405234801561001057600080fd5b50600436106100365760003560e01c80633ba529eb1461003b5780635524107714610059575b600080fd5b610043610075565b60405161005091906100a1565b60405180910390f35b610073600480360381019061006e91906100ed565b61007e565b005b60008054905090565b8060008190555050565b6000819050919050565b61009b81610088565b82525050565b60006020820190506100b66000830184610092565b92915050565b600080fd5b6100ca81610088565b81146100d557600080fd5b50565b6000813590506100e7816100c1565b92915050565b600060208284031215610103576101026100bc565b5b6000610111848285016100d8565b9150509291505056fea2646970667358221220d0a57133971f044acd0619dccc40fb75b1d131d697d878606ce35c09dc3d942e64736f6c634300080d0033a2646970667358221220829c6bc251bc7c4104e0e9f23576291fed0779c7b47a1ad0c46c8657c88e342964736f6c634300080d0033",
					"opcodes": "PUSH1 0x80 PUSH1 0x40 MSTORE CALLVALUE DUP1 ISZERO PUSH2 0x10 JUMPI PUSH1 0x0 DUP1 REVERT JUMPDEST POP PUSH2 0x3F7 DUP1 PUSH2 0x20 PUSH1 0x0 CODECOPY PUSH1 0x0 RETURN INVALID PUSH1 0x80 PUSH1 0x40 MSTORE CALLVALUE DUP1 ISZERO PUSH2 0x10 JUMPI PUSH1 0x0 DUP1 REVERT JUMPDEST POP PUSH1 0x4 CALLDATASIZE LT PUSH2 0x2B JUMPI PUSH1 0x0 CALLDATALOAD PUSH1 0xE0 SHR DUP1 PUSH4 0x419ECA5 EQ PUSH2 0x30 JUMPI JUMPDEST PUSH1 0x0 DUP1 REVERT JUMPDEST PUSH2 0x4A PUSH1 0x4 DUP1 CALLDATASIZE SUB DUP2 ADD SWAP1 PUSH2 0x45 SWAP2 SWAP1 PUSH2 0x1B8 JUMP JUMPDEST PUSH2 0x60 JUMP JUMPDEST PUSH1 0x40 MLOAD PUSH2 0x57 SWAP2 SWAP1 PUSH2 0x1F4 JUMP JUMPDEST PUSH1 0x40 MLOAD DUP1 SWAP2 SUB SWAP1 RETURN JUMPDEST PUSH1 0x0 DUP1 PUSH1 0x40 MLOAD PUSH2 0x6F SWAP1 PUSH2 0x170 JUMP JUMPDEST PUSH1 0x40 MLOAD DUP1 SWAP2 SUB SWAP1 PUSH1 0x0 CREATE DUP1 ISZERO DUP1 ISZERO PUSH2 0x8B JUMPI RETURNDATASIZE PUSH1 0x0 DUP1 RETURNDATACOPY RETURNDATASIZE PUSH1 0x0 REVERT JUMPDEST POP SWAP1 POP DUP1 PUSH20 0xFFFFFFFFFFFFFFFFFFFFFFFFFFFFFFFFFFFFFFFF AND PUSH4 0x55241077 DUP5 PUSH1 0x40 MLOAD DUP3 PUSH4 0xFFFFFFFF AND PUSH1 0xE0 SHL DUP2 MSTORE PUSH1 0x4 ADD PUSH2 0xC7 SWAP2 SWAP1 PUSH2 0x1F4 JUMP JUMPDEST PUSH1 0x0 PUSH1 0x40 MLOAD DUP1 DUP4 SUB DUP2 PUSH1 0x0 DUP8 DUP1 EXTCODESIZE ISZERO DUP1 ISZERO PUSH2 0xE1 JUMPI PUSH1 0x0 DUP1 REVERT JUMPDEST POP GAS CALL ISZERO DUP1 ISZERO PUSH2 0xF5 JUMPI RETURNDATASIZE PUSH1 0x0 DUP1 RETURNDATACOPY RETURNDATASIZE PUSH1 0x0 REVERT JUMPDEST POP POP POP POP DUP1 PUSH20 0xFFFFFFFFFFFFFFFFFFFFFFFFFFFFFFFFFFFFFFFF AND PUSH4 0x3BA529EB PUSH1 0x40 MLOAD DUP2 PUSH4 0xFFFFFFFF AND PUSH1 0xE0 SHL DUP2 MSTORE PUSH1 0x4 ADD PUSH1 0x20 PUSH1 0x40 MLOAD DUP1 DUP4 SUB DUP2 DUP7 GAS STATICCALL ISZERO DUP1 ISZERO PUSH2 0x144 JUMPI RETURNDATASIZE PUSH1 0x0 DUP1 RETURNDATACOPY RETURNDATASIZE PUSH1 0x0 REVERT JUMPDEST POP POP POP POP PUSH1 0x40 MLOAD RETURNDATASIZE PUSH1 0x1F NOT PUSH1 0x1F DUP3 ADD AND DUP3 ADD DUP1 PUSH1 0x40 MSTORE POP DUP2 ADD SWAP1 PUSH2 0x168 SWAP2 SWAP1 PUSH2 0x224 JUMP JUMPDEST SWAP2 POP POP SWAP2 SWAP1 POP JUMP JUMPDEST PUSH2 0x170 DUP1 PUSH2 0x252 DUP4 CODECOPY ADD SWAP1 JUMP JUMPDEST PUSH1 0x0 DUP1 REVERT JUMPDEST PUSH1 0x0 DUP2 SWAP1 POP SWAP2 SWAP1 POP JUMP JUMPDEST PUSH2 0x195 DUP2 PUSH2 0x182 JUMP JUMPDEST DUP2 EQ PUSH2 0x1A0 JUMPI PUSH1 0x0 DUP1 REVERT JUMPDEST POP JUMP JUMPDEST PUSH1 0x0 DUP2 CALLDATALOAD SWAP1 POP PUSH2 0x1B2 DUP2 PUSH2 0x18C JUMP JUMPDEST SWAP3 SWAP2 POP POP JUMP JUMPDEST PUSH1 0x0 PUSH1 0x20 DUP3 DUP5 SUB SLT ISZERO PUSH2 0x1CE JUMPI PUSH2 0x1CD PUSH2 0x17D JUMP JUMPDEST JUMPDEST PUSH1 0x0 PUSH2 0x1DC DUP5 DUP3 DUP6 ADD PUSH2 0x1A3 JUMP JUMPDEST SWAP2 POP POP SWAP3 SWAP2 POP POP JUMP JUMPDEST PUSH2 0x1EE DUP2 PUSH2 0x182 JUMP JUMPDEST DUP3 MSTORE POP POP JUMP JUMPDEST PUSH1 0x0 PUSH1 0x20 DUP3 ADD SWAP1 POP PUSH2 0x209 PUSH1 0x0 DUP4 ADD DUP5 PUSH2 0x1E5 JUMP JUMPDEST SWAP3 SWAP2 POP POP JUMP JUMPDEST PUSH1 0x0 DUP2 MLOAD SWAP1 POP PUSH2 0x21E DUP2 PUSH2 0x18C JUMP JUMPDEST SWAP3 SWAP2 POP POP JUMP JUMPDEST PUSH1 0x0 PUSH1 0x20 DUP3 DUP5 SUB SLT ISZERO PUSH2 0x23A JUMPI PUSH2 0x239 PUSH2 0x17D JUMP JUMPDEST JUMPDEST PUSH1 0x0 PUSH2 0x248 DUP5 DUP3 DUP6 ADD PUSH2 0x20F JUMP JUMPDEST SWAP2 POP POP SWAP3 SWAP2 POP POP JUMP INVALID PUSH1 0x80 PUSH1 0x40 MSTORE CALLVALUE DUP1 ISZERO PUSH2 0x10 JUMPI PUSH1 0x0 DUP1 REVERT JUMPDEST POP PUSH2 0x150 DUP1 PUSH2 0x20 PUSH1 0x0 CODECOPY PUSH1 0x0 RETURN INVALID PUSH1 0x80 PUSH1 0x40 MSTORE CALLVALUE DUP1 ISZERO PUSH2 0x10 JUMPI PUSH1 0x0 DUP1 REVERT JUMPDEST POP PUSH1 0x4 CALLDATASIZE LT PUSH2 0x36 JUMPI PUSH1 0x0 CALLDATALOAD PUSH1 0xE0 SHR DUP1 PUSH4 0x3BA529EB EQ PUSH2 0x3B JUMPI DUP1 PUSH4 0x55241077 EQ PUSH2 0x59 JUMPI JUMPDEST PUSH1 0x0 DUP1 REVERT JUMPDEST PUSH2 0x43 PUSH2 0x75 JUMP JUMPDEST PUSH1 0x40 MLOAD PUSH2 0x50 SWAP2 SWAP1 PUSH2 0xA1 JUMP JUMPDEST PUSH1 0x40 MLOAD DUP1 SWAP2 SUB SWAP1 RETURN JUMPDEST PUSH2 0x73 PUSH1 0x4 DUP1 CALLDATASIZE SUB DUP2 ADD SWAP1 PUSH2 0x6E SWAP2 SWAP1 PUSH2 0xED JUMP JUMPDEST PUSH2 0x7E JUMP JUMPDEST STOP JUMPDEST PUSH1 0x0 DUP1 SLOAD SWAP1 POP SWAP1 JUMP JUMPDEST DUP1 PUSH1 0x0 DUP2 SWAP1 SSTORE POP POP JUMP JUMPDEST PUSH1 0x0 DUP2 SWAP1 POP SWAP2 SWAP1 POP JUMP JUMPDEST PUSH2 0x9B DUP2 PUSH2 0x88 JUMP JUMPDEST DUP3 MSTORE POP POP JUMP JUMPDEST PUSH1 0x0 PUSH1 0x20 DUP3 ADD SWAP1 POP PUSH2 0xB6 PUSH1 0x0 DUP4 ADD DUP5 PUSH2 0x92 JUMP JUMPDEST SWAP3 SWAP2 POP POP JUMP JUMPDEST PUSH1 0x0 DUP1 REVERT JUMPDEST PUSH2 0xCA DUP2 PUSH2 0x88 JUMP JUMPDEST DUP2 EQ PUSH2 0xD5 JUMPI PUSH1 0x0 DUP1 REVERT JUMPDEST POP JUMP JUMPDEST PUSH1 0x0 DUP2 CALLDATALOAD SWAP1 POP PUSH2 0xE7 DUP2 PUSH2 0xC1 JUMP JUMPDEST SWAP3 SWAP2 POP POP JUMP JUMPDEST PUSH1 0x0 PUSH1 0x20 DUP3 DUP5 SUB SLT ISZERO PUSH2 0x103 JUMPI PUSH2 0x102 PUSH2 0xBC JUMP JUMPDEST JUMPDEST PUSH1 0x0 PUSH2 0x111 DUP5 DUP3 DUP6 ADD PUSH2 0xD8 JUMP JUMPDEST SWAP2 POP POP SWAP3 SWAP2 POP POP JUMP INVALID LOG2 PUSH5 0x6970667358 0x22 SLT KECCAK256 0xD0 0xA5 PUSH18 0x33971F044ACD0619DCCC40FB75B1D131D697 0xD8 PUSH25 0x606CE35C09DC3D942E64736F6C634300080D0033A264697066 PUSH20 0x58221220829C6BC251BC7C4104E0E9F23576291F 0xED SMOD PUSH26 0xC7B47A1AD0C46C8657C88E342964736F6C634300080D00330000 "
				},
				"gasEstimates": {
					"creation": {
						"codeDepositCost": "203000",
						"executionCost": "245",
						"totalCost": "203245"
					},
					"external": {
						"createChild(uint256)": "infinite"
					}
				},
				"methodIdentifiers": {
					"createChild(uint256)": "0419eca5"
				}
			},
			"storageLayout": {
				"storage": [],
				"types": null
			},
			"userdoc": {
				"kind": "user",
				"methods": {},
				"version": 1
			}
		}
	}
}