{
	"contracts/exoCours/exoNotation/exoNotation.sol": {
		"exoNotation": {
			"abi": [
				{
					"anonymous": false,
					"inputs": [
						{
							"indexed": true,
							"internalType": "address",
							"name": "previousOwner",
							"type": "address"
						},
						{
							"indexed": true,
							"internalType": "address",
							"name": "newOwner",
							"type": "address"
						}
					],
					"name": "OwnershipTransferred",
					"type": "event"
				},
				{
					"anonymous": false,
					"inputs": [
						{
							"indexed": false,
							"internalType": "string",
							"name": "_name",
							"type": "string"
						},
						{
							"indexed": false,
							"internalType": "address",
							"name": "_addr",
							"type": "address"
						}
					],
					"name": "studentAdded",
					"type": "event"
				},
				{
					"anonymous": false,
					"inputs": [
						{
							"indexed": false,
							"internalType": "enum exoNotation.course",
							"name": "_course",
							"type": "uint8"
						},
						{
							"indexed": false,
							"internalType": "address",
							"name": "_addr",
							"type": "address"
						}
					],
					"name": "teacherAdded",
					"type": "event"
				},
				{
					"inputs": [
						{
							"internalType": "string",
							"name": "_name",
							"type": "string"
						},
						{
							"internalType": "address",
							"name": "_addr",
							"type": "address"
						}
					],
					"name": "addStudent",
					"outputs": [],
					"stateMutability": "nonpayable",
					"type": "function"
				},
				{
					"inputs": [
						{
							"internalType": "enum exoNotation.course",
							"name": "_course",
							"type": "uint8"
						},
						{
							"internalType": "address",
							"name": "_addr",
							"type": "address"
						}
					],
					"name": "addTeacher",
					"outputs": [],
					"stateMutability": "nonpayable",
					"type": "function"
				},
				{
					"inputs": [],
					"name": "calculateMeanGlobal",
					"outputs": [
						{
							"internalType": "uint256",
							"name": "",
							"type": "uint256"
						}
					],
					"stateMutability": "view",
					"type": "function"
				},
				{
					"inputs": [
						{
							"internalType": "enum exoNotation.course",
							"name": "_course",
							"type": "uint8"
						}
					],
					"name": "calculateMeanPerCourse",
					"outputs": [
						{
							"internalType": "uint256",
							"name": "",
							"type": "uint256"
						}
					],
					"stateMutability": "view",
					"type": "function"
				},
				{
					"inputs": [
						{
							"internalType": "string",
							"name": "_name",
							"type": "string"
						}
					],
					"name": "calculateMeanStudent",
					"outputs": [
						{
							"internalType": "uint256",
							"name": "",
							"type": "uint256"
						}
					],
					"stateMutability": "view",
					"type": "function"
				},
				{
					"inputs": [
						{
							"internalType": "string",
							"name": "_name",
							"type": "string"
						}
					],
					"name": "isPassing",
					"outputs": [
						{
							"internalType": "bool",
							"name": "",
							"type": "bool"
						}
					],
					"stateMutability": "view",
					"type": "function"
				},
				{
					"inputs": [],
					"name": "owner",
					"outputs": [
						{
							"internalType": "address",
							"name": "",
							"type": "address"
						}
					],
					"stateMutability": "view",
					"type": "function"
				},
				{
					"inputs": [],
					"name": "renounceOwnership",
					"outputs": [],
					"stateMutability": "nonpayable",
					"type": "function"
				},
				{
					"inputs": [
						{
							"internalType": "enum exoNotation.course",
							"name": "_course",
							"type": "uint8"
						},
						{
							"internalType": "string",
							"name": "_nameStudent",
							"type": "string"
						},
						{
							"internalType": "uint256",
							"name": "_note",
							"type": "uint256"
						}
					],
					"name": "setNote",
					"outputs": [],
					"stateMutability": "nonpayable",
					"type": "function"
				},
				{
					"inputs": [
						{
							"internalType": "address",
							"name": "newOwner",
							"type": "address"
						}
					],
					"name": "transferOwnership",
					"outputs": [],
					"stateMutability": "nonpayable",
					"type": "function"
				}
			],
			"devdoc": {
				"kind": "dev",
				"methods": {
					"owner()": {
						"details": "Returns the address of the current owner."
					},
					"renounceOwnership()": {
						"details": "Leaves the contract without owner. It will not be possible to call `onlyOwner` functions anymore. Can only be called by the current owner. NOTE: Renouncing ownership will leave the contract without an owner, thereby removing any functionality that is only available to the owner."
					},
					"transferOwnership(address)": {
						"details": "Transfers ownership of the contract to a new account (`newOwner`). Can only be called by the current owner."
					}
				},
				"version": 1
			},
			"evm": {
				"assembly": "    /* \"contracts/exoCours/exoNotation/exoNotation.sol\":116:3633  contract exoNotation is Ownable {... */\n  mstore(0x40, 0x80)\n  callvalue\n  dup1\n  iszero\n  tag_1\n  jumpi\n  0x00\n  dup1\n  revert\ntag_1:\n  pop\n    /* \"@openzeppelin/contracts/access/Ownable.sol\":936:968  _transferOwnership(_msgSender()) */\n  tag_4\n    /* \"@openzeppelin/contracts/access/Ownable.sol\":955:967  _msgSender() */\n  tag_5\n    /* \"@openzeppelin/contracts/access/Ownable.sol\":955:965  _msgSender */\n  shl(0x20, tag_6)\n    /* \"@openzeppelin/contracts/access/Ownable.sol\":955:967  _msgSender() */\n  0x20\n  shr\n  jump\t// in\ntag_5:\n    /* \"@openzeppelin/contracts/access/Ownable.sol\":936:954  _transferOwnership */\n  shl(0x20, tag_7)\n    /* \"@openzeppelin/contracts/access/Ownable.sol\":936:968  _transferOwnership(_msgSender()) */\n  0x20\n  shr\n  jump\t// in\ntag_4:\n    /* \"contracts/exoCours/exoNotation/exoNotation.sol\":116:3633  contract exoNotation is Ownable {... */\n  jump(tag_8)\n    /* \"@openzeppelin/contracts/utils/Context.sol\":640:736  function _msgSender() internal view virtual returns (address) {... */\ntag_6:\n    /* \"@openzeppelin/contracts/utils/Context.sol\":693:700  address */\n  0x00\n    /* \"@openzeppelin/contracts/utils/Context.sol\":719:729  msg.sender */\n  caller\n    /* \"@openzeppelin/contracts/utils/Context.sol\":712:729  return msg.sender */\n  swap1\n  pop\n    /* \"@openzeppelin/contracts/utils/Context.sol\":640:736  function _msgSender() internal view virtual returns (address) {... */\n  swap1\n  jump\t// out\n    /* \"@openzeppelin/contracts/access/Ownable.sol\":2433:2620  function _transferOwnership(address newOwner) internal virtual {... */\ntag_7:\n    /* \"@openzeppelin/contracts/access/Ownable.sol\":2506:2522  address oldOwner */\n  0x00\n    /* \"@openzeppelin/contracts/access/Ownable.sol\":2525:2531  _owner */\n  dup1\n  0x00\n  swap1\n  sload\n  swap1\n  0x0100\n  exp\n  swap1\n  div\n  0xffffffffffffffffffffffffffffffffffffffff\n  and\n    /* \"@openzeppelin/contracts/access/Ownable.sol\":2506:2531  address oldOwner = _owner */\n  swap1\n  pop\n    /* \"@openzeppelin/contracts/access/Ownable.sol\":2550:2558  newOwner */\n  dup2\n    /* \"@openzeppelin/contracts/access/Ownable.sol\":2541:2547  _owner */\n  0x00\n  dup1\n    /* \"@openzeppelin/contracts/access/Ownable.sol\":2541:2558  _owner = newOwner */\n  0x0100\n  exp\n  dup2\n  sload\n  dup2\n  0xffffffffffffffffffffffffffffffffffffffff\n  mul\n  not\n  and\n  swap1\n  dup4\n  0xffffffffffffffffffffffffffffffffffffffff\n  and\n  mul\n  or\n  swap1\n  sstore\n  pop\n    /* \"@openzeppelin/contracts/access/Ownable.sol\":2604:2612  newOwner */\n  dup2\n    /* \"@openzeppelin/contracts/access/Ownable.sol\":2573:2613  OwnershipTransferred(oldOwner, newOwner) */\n  0xffffffffffffffffffffffffffffffffffffffff\n  and\n    /* \"@openzeppelin/contracts/access/Ownable.sol\":2594:2602  oldOwner */\n  dup2\n    /* \"@openzeppelin/contracts/access/Ownable.sol\":2573:2613  OwnershipTransferred(oldOwner, newOwner) */\n  0xffffffffffffffffffffffffffffffffffffffff\n  and\n  0x8be0079c531659141344cd1fd0a4f28419497f9722a3daafe3b4186f6b6457e0\n  mload(0x40)\n  mload(0x40)\n  dup1\n  swap2\n  sub\n  swap1\n  log3\n    /* \"@openzeppelin/contracts/access/Ownable.sol\":2496:2620  {... */\n  pop\n    /* \"@openzeppelin/contracts/access/Ownable.sol\":2433:2620  function _transferOwnership(address newOwner) internal virtual {... */\n  pop\n  jump\t// out\n    /* \"contracts/exoCours/exoNotation/exoNotation.sol\":116:3633  contract exoNotation is Ownable {... */\ntag_8:\n  dataSize(sub_0)\n  dup1\n  dataOffset(sub_0)\n  0x00\n  codecopy\n  0x00\n  return\nstop\n\nsub_0: assembly {\n        /* \"contracts/exoCours/exoNotation/exoNotation.sol\":116:3633  contract exoNotation is Ownable {... */\n      mstore(0x40, 0x80)\n      callvalue\n      dup1\n      iszero\n      tag_1\n      jumpi\n      0x00\n      dup1\n      revert\n    tag_1:\n      pop\n      jumpi(tag_2, lt(calldatasize, 0x04))\n      shr(0xe0, calldataload(0x00))\n      dup1\n      0x715018a6\n      gt\n      tag_13\n      jumpi\n      dup1\n      0x715018a6\n      eq\n      tag_8\n      jumpi\n      dup1\n      0x8da5cb5b\n      eq\n      tag_9\n      jumpi\n      dup1\n      0xce28c807\n      eq\n      tag_10\n      jumpi\n      dup1\n      0xf2fde38b\n      eq\n      tag_11\n      jumpi\n      dup1\n      0xfa489605\n      eq\n      tag_12\n      jumpi\n      jump(tag_2)\n    tag_13:\n      dup1\n      0x0dc0ffb1\n      eq\n      tag_3\n      jumpi\n      dup1\n      0x10468c2f\n      eq\n      tag_4\n      jumpi\n      dup1\n      0x35d1f30d\n      eq\n      tag_5\n      jumpi\n      dup1\n      0x3c8c07bc\n      eq\n      tag_6\n      jumpi\n      dup1\n      0x5eb050cf\n      eq\n      tag_7\n      jumpi\n    tag_2:\n      0x00\n      dup1\n      revert\n        /* \"contracts/exoCours/exoNotation/exoNotation.sol\":2465:2599  function isPassing(string memory _name) public onlyOwner view returns(bool){... */\n    tag_3:\n      tag_14\n      0x04\n      dup1\n      calldatasize\n      sub\n      dup2\n      add\n      swap1\n      tag_15\n      swap2\n      swap1\n      tag_16\n      jump\t// in\n    tag_15:\n      tag_17\n      jump\t// in\n    tag_14:\n      mload(0x40)\n      tag_18\n      swap2\n      swap1\n      tag_19\n      jump\t// in\n    tag_18:\n      mload(0x40)\n      dup1\n      swap2\n      sub\n      swap1\n      return\n        /* \"contracts/exoCours/exoNotation/exoNotation.sol\":590:761  function addStudent(string calldata _name, address _addr) public onlyOwner {... */\n    tag_4:\n      tag_20\n      0x04\n      dup1\n      calldatasize\n      sub\n      dup2\n      add\n      swap1\n      tag_21\n      swap2\n      swap1\n      tag_22\n      jump\t// in\n    tag_21:\n      tag_23\n      jump\t// in\n    tag_20:\n      stop\n        /* \"contracts/exoCours/exoNotation/exoNotation.sol\":767:920  function addTeacher(course _course, address _addr) public onlyOwner {... */\n    tag_5:\n      tag_24\n      0x04\n      dup1\n      calldatasize\n      sub\n      dup2\n      add\n      swap1\n      tag_25\n      swap2\n      swap1\n      tag_26\n      jump\t// in\n    tag_25:\n      tag_27\n      jump\t// in\n    tag_24:\n      stop\n        /* \"contracts/exoCours/exoNotation/exoNotation.sol\":2203:2459  function calculateMeanStudent(string memory _name) public onlyOwner view returns(uint){... */\n    tag_6:\n      tag_28\n      0x04\n      dup1\n      calldatasize\n      sub\n      dup2\n      add\n      swap1\n      tag_29\n      swap2\n      swap1\n      tag_16\n      jump\t// in\n    tag_29:\n      tag_30\n      jump\t// in\n    tag_28:\n      mload(0x40)\n      tag_31\n      swap2\n      swap1\n      tag_32\n      jump\t// in\n    tag_31:\n      mload(0x40)\n      dup1\n      swap2\n      sub\n      swap1\n      return\n        /* \"contracts/exoCours/exoNotation/exoNotation.sol\":2954:3631  function setNote(... */\n    tag_7:\n      tag_33\n      0x04\n      dup1\n      calldatasize\n      sub\n      dup2\n      add\n      swap1\n      tag_34\n      swap2\n      swap1\n      tag_35\n      jump\t// in\n    tag_34:\n      tag_36\n      jump\t// in\n    tag_33:\n      stop\n        /* \"@openzeppelin/contracts/access/Ownable.sol\":1831:1932  function renounceOwnership() public virtual onlyOwner {... */\n    tag_8:\n      tag_37\n      tag_38\n      jump\t// in\n    tag_37:\n      stop\n        /* \"@openzeppelin/contracts/access/Ownable.sol\":1201:1286  function owner() public view virtual returns (address) {... */\n    tag_9:\n      tag_39\n      tag_40\n      jump\t// in\n    tag_39:\n      mload(0x40)\n      tag_41\n      swap2\n      swap1\n      tag_42\n      jump\t// in\n    tag_41:\n      mload(0x40)\n      dup1\n      swap2\n      sub\n      swap1\n      return\n        /* \"contracts/exoCours/exoNotation/exoNotation.sol\":1349:2197  function calculateMeanPerCourse(course _course)... */\n    tag_10:\n      tag_43\n      0x04\n      dup1\n      calldatasize\n      sub\n      dup2\n      add\n      swap1\n      tag_44\n      swap2\n      swap1\n      tag_45\n      jump\t// in\n    tag_44:\n      tag_46\n      jump\t// in\n    tag_43:\n      mload(0x40)\n      tag_47\n      swap2\n      swap1\n      tag_32\n      jump\t// in\n    tag_47:\n      mload(0x40)\n      dup1\n      swap2\n      sub\n      swap1\n      return\n        /* \"@openzeppelin/contracts/access/Ownable.sol\":2081:2279  function transferOwnership(address newOwner) public virtual onlyOwner {... */\n    tag_11:\n      tag_48\n      0x04\n      dup1\n      calldatasize\n      sub\n      dup2\n      add\n      swap1\n      tag_49\n      swap2\n      swap1\n      tag_50\n      jump\t// in\n    tag_49:\n      tag_51\n      jump\t// in\n    tag_48:\n      stop\n        /* \"contracts/exoCours/exoNotation/exoNotation.sol\":2605:2948  function calculateMeanGlobal() public view onlyOwner returns(uint){... */\n    tag_12:\n      tag_52\n      tag_53\n      jump\t// in\n    tag_52:\n      mload(0x40)\n      tag_54\n      swap2\n      swap1\n      tag_32\n      jump\t// in\n    tag_54:\n      mload(0x40)\n      dup1\n      swap2\n      sub\n      swap1\n      return\n        /* \"contracts/exoCours/exoNotation/exoNotation.sol\":2465:2599  function isPassing(string memory _name) public onlyOwner view returns(bool){... */\n    tag_17:\n        /* \"contracts/exoCours/exoNotation/exoNotation.sol\":2535:2539  bool */\n      0x00\n        /* \"@openzeppelin/contracts/access/Ownable.sol\":1094:1107  _checkOwner() */\n      tag_56\n        /* \"@openzeppelin/contracts/access/Ownable.sol\":1094:1105  _checkOwner */\n      tag_57\n        /* \"@openzeppelin/contracts/access/Ownable.sol\":1094:1107  _checkOwner() */\n      jump\t// in\n    tag_56:\n        /* \"contracts/exoCours/exoNotation/exoNotation.sol\":2588:2592  1000 */\n      0x03e8\n        /* \"contracts/exoCours/exoNotation/exoNotation.sol\":2557:2584  calculateMeanStudent(_name) */\n      tag_59\n        /* \"contracts/exoCours/exoNotation/exoNotation.sol\":2578:2583  _name */\n      dup4\n        /* \"contracts/exoCours/exoNotation/exoNotation.sol\":2557:2577  calculateMeanStudent */\n      tag_30\n        /* \"contracts/exoCours/exoNotation/exoNotation.sol\":2557:2584  calculateMeanStudent(_name) */\n      jump\t// in\n    tag_59:\n        /* \"contracts/exoCours/exoNotation/exoNotation.sol\":2557:2592  calculateMeanStudent(_name) >= 1000 */\n      lt\n      iszero\n        /* \"contracts/exoCours/exoNotation/exoNotation.sol\":2550:2592  return calculateMeanStudent(_name) >= 1000 */\n      swap1\n      pop\n        /* \"contracts/exoCours/exoNotation/exoNotation.sol\":2465:2599  function isPassing(string memory _name) public onlyOwner view returns(bool){... */\n      swap2\n      swap1\n      pop\n      jump\t// out\n        /* \"contracts/exoCours/exoNotation/exoNotation.sol\":590:761  function addStudent(string calldata _name, address _addr) public onlyOwner {... */\n    tag_23:\n        /* \"@openzeppelin/contracts/access/Ownable.sol\":1094:1107  _checkOwner() */\n      tag_61\n        /* \"@openzeppelin/contracts/access/Ownable.sol\":1094:1105  _checkOwner */\n      tag_57\n        /* \"@openzeppelin/contracts/access/Ownable.sol\":1094:1107  _checkOwner() */\n      jump\t// in\n    tag_61:\n        /* \"contracts/exoCours/exoNotation/exoNotation.sol\":675:683  students */\n      0x02\n        /* \"contracts/exoCours/exoNotation/exoNotation.sol\":689:712  Student(_name, 0, 0, 0) */\n      mload(0x40)\n      dup1\n      0x80\n      add\n      0x40\n      mstore\n      dup1\n        /* \"contracts/exoCours/exoNotation/exoNotation.sol\":697:702  _name */\n      dup6\n      dup6\n        /* \"contracts/exoCours/exoNotation/exoNotation.sol\":689:712  Student(_name, 0, 0, 0) */\n      dup1\n      dup1\n      0x1f\n      add\n      0x20\n      dup1\n      swap2\n      div\n      mul\n      0x20\n      add\n      mload(0x40)\n      swap1\n      dup2\n      add\n      0x40\n      mstore\n      dup1\n      swap4\n      swap3\n      swap2\n      swap1\n      dup2\n      dup2\n      mstore\n      0x20\n      add\n      dup4\n      dup4\n      dup1\n      dup3\n      dup5\n      calldatacopy\n      0x00\n      dup2\n      dup5\n      add\n      mstore\n      not(0x1f)\n      0x1f\n      dup3\n      add\n      and\n      swap1\n      pop\n      dup1\n      dup4\n      add\n      swap3\n      pop\n      pop\n      pop\n      pop\n      pop\n      pop\n      pop\n      dup2\n      mstore\n      0x20\n      add\n        /* \"contracts/exoCours/exoNotation/exoNotation.sol\":704:705  0 */\n      0x00\n        /* \"contracts/exoCours/exoNotation/exoNotation.sol\":689:712  Student(_name, 0, 0, 0) */\n      dup2\n      mstore\n      0x20\n      add\n        /* \"contracts/exoCours/exoNotation/exoNotation.sol\":707:708  0 */\n      0x00\n        /* \"contracts/exoCours/exoNotation/exoNotation.sol\":689:712  Student(_name, 0, 0, 0) */\n      dup2\n      mstore\n      0x20\n      add\n        /* \"contracts/exoCours/exoNotation/exoNotation.sol\":710:711  0 */\n      0x00\n        /* \"contracts/exoCours/exoNotation/exoNotation.sol\":689:712  Student(_name, 0, 0, 0) */\n      dup2\n      mstore\n      pop\n        /* \"contracts/exoCours/exoNotation/exoNotation.sol\":675:713  students.push(Student(_name, 0, 0, 0)) */\n      swap1\n      dup1\n      0x01\n      dup2\n      sload\n      add\n      dup1\n      dup3\n      sstore\n      dup1\n      swap2\n      pop\n      pop\n      0x01\n      swap1\n      sub\n      swap1\n      0x00\n      mstore\n      keccak256(0x00, 0x20)\n      swap1\n      0x04\n      mul\n      add\n      0x00\n      swap1\n      swap2\n      swap1\n      swap2\n      swap1\n      swap2\n      pop\n      0x00\n      dup3\n      add\n      mload\n      dup2\n      0x00\n      add\n      swap1\n      dup1\n      mload\n      swap1\n      0x20\n      add\n      swap1\n      tag_64\n      swap3\n      swap2\n      swap1\n      tag_65\n      jump\t// in\n    tag_64:\n      pop\n      0x20\n      dup3\n      add\n      mload\n      dup2\n      0x01\n      add\n      sstore\n      0x40\n      dup3\n      add\n      mload\n      dup2\n      0x02\n      add\n      sstore\n      0x60\n      dup3\n      add\n      mload\n      dup2\n      0x03\n      add\n      sstore\n      pop\n      pop\n        /* \"contracts/exoCours/exoNotation/exoNotation.sol\":728:754  studentAdded(_name, _addr) */\n      0xf37b44c60d951a102e1b401bcd083688102e58c75aae387ff9884aa0f9ff33dc\n        /* \"contracts/exoCours/exoNotation/exoNotation.sol\":741:746  _name */\n      dup4\n      dup4\n        /* \"contracts/exoCours/exoNotation/exoNotation.sol\":748:753  _addr */\n      dup4\n        /* \"contracts/exoCours/exoNotation/exoNotation.sol\":728:754  studentAdded(_name, _addr) */\n      mload(0x40)\n      tag_66\n      swap4\n      swap3\n      swap2\n      swap1\n      tag_67\n      jump\t// in\n    tag_66:\n      mload(0x40)\n      dup1\n      swap2\n      sub\n      swap1\n      log1\n        /* \"contracts/exoCours/exoNotation/exoNotation.sol\":590:761  function addStudent(string calldata _name, address _addr) public onlyOwner {... */\n      pop\n      pop\n      pop\n      jump\t// out\n        /* \"contracts/exoCours/exoNotation/exoNotation.sol\":767:920  function addTeacher(course _course, address _addr) public onlyOwner {... */\n    tag_27:\n        /* \"@openzeppelin/contracts/access/Ownable.sol\":1094:1107  _checkOwner() */\n      tag_69\n        /* \"@openzeppelin/contracts/access/Ownable.sol\":1094:1105  _checkOwner */\n      tag_57\n        /* \"@openzeppelin/contracts/access/Ownable.sol\":1094:1107  _checkOwner() */\n      jump\t// in\n    tag_69:\n        /* \"contracts/exoCours/exoNotation/exoNotation.sol\":865:870  _addr */\n      dup1\n        /* \"contracts/exoCours/exoNotation/exoNotation.sol\":845:853  teachers */\n      0x03\n        /* \"contracts/exoCours/exoNotation/exoNotation.sol\":845:862  teachers[_course] */\n      0x00\n        /* \"contracts/exoCours/exoNotation/exoNotation.sol\":854:861  _course */\n      dup5\n        /* \"contracts/exoCours/exoNotation/exoNotation.sol\":845:862  teachers[_course] */\n      0x02\n      dup2\n      gt\n      iszero\n      tag_71\n      jumpi\n      tag_72\n      tag_73\n      jump\t// in\n    tag_72:\n    tag_71:\n      0x02\n      dup2\n      gt\n      iszero\n      tag_74\n      jumpi\n      tag_75\n      tag_73\n      jump\t// in\n    tag_75:\n    tag_74:\n      dup2\n      mstore\n      0x20\n      add\n      swap1\n      dup2\n      mstore\n      0x20\n      add\n      0x00\n      keccak256\n      0x00\n        /* \"contracts/exoCours/exoNotation/exoNotation.sol\":845:870  teachers[_course] = _addr */\n      0x0100\n      exp\n      dup2\n      sload\n      dup2\n      0xffffffffffffffffffffffffffffffffffffffff\n      mul\n      not\n      and\n      swap1\n      dup4\n      0xffffffffffffffffffffffffffffffffffffffff\n      and\n      mul\n      or\n      swap1\n      sstore\n      pop\n        /* \"contracts/exoCours/exoNotation/exoNotation.sol\":885:913  teacherAdded(_course, _addr) */\n      0x4c81db63b6bab09b12e49b76a90a6ca4a9cfac4a8aabcefc1f8a249f0f4e6919\n        /* \"contracts/exoCours/exoNotation/exoNotation.sol\":898:905  _course */\n      dup3\n        /* \"contracts/exoCours/exoNotation/exoNotation.sol\":907:912  _addr */\n      dup3\n        /* \"contracts/exoCours/exoNotation/exoNotation.sol\":885:913  teacherAdded(_course, _addr) */\n      mload(0x40)\n      tag_76\n      swap3\n      swap2\n      swap1\n      tag_77\n      jump\t// in\n    tag_76:\n      mload(0x40)\n      dup1\n      swap2\n      sub\n      swap1\n      log1\n        /* \"contracts/exoCours/exoNotation/exoNotation.sol\":767:920  function addTeacher(course _course, address _addr) public onlyOwner {... */\n      pop\n      pop\n      jump\t// out\n        /* \"contracts/exoCours/exoNotation/exoNotation.sol\":2203:2459  function calculateMeanStudent(string memory _name) public onlyOwner view returns(uint){... */\n    tag_30:\n        /* \"contracts/exoCours/exoNotation/exoNotation.sol\":2284:2288  uint */\n      0x00\n        /* \"@openzeppelin/contracts/access/Ownable.sol\":1094:1107  _checkOwner() */\n      tag_79\n        /* \"@openzeppelin/contracts/access/Ownable.sol\":1094:1105  _checkOwner */\n      tag_57\n        /* \"@openzeppelin/contracts/access/Ownable.sol\":1094:1107  _checkOwner() */\n      jump\t// in\n    tag_79:\n        /* \"contracts/exoCours/exoNotation/exoNotation.sol\":2299:2313  uint idStudent */\n      0x00\n        /* \"contracts/exoCours/exoNotation/exoNotation.sol\":2316:2341  getStudentFromName(_name) */\n      tag_81\n        /* \"contracts/exoCours/exoNotation/exoNotation.sol\":2335:2340  _name */\n      dup4\n        /* \"contracts/exoCours/exoNotation/exoNotation.sol\":2316:2334  getStudentFromName */\n      tag_82\n        /* \"contracts/exoCours/exoNotation/exoNotation.sol\":2316:2341  getStudentFromName(_name) */\n      jump\t// in\n    tag_81:\n        /* \"contracts/exoCours/exoNotation/exoNotation.sol\":2299:2341  uint idStudent = getStudentFromName(_name) */\n      swap1\n      pop\n        /* \"contracts/exoCours/exoNotation/exoNotation.sol\":2451:2452  3 */\n      0x03\n        /* \"contracts/exoCours/exoNotation/exoNotation.sol\":2447:2450  100 */\n      0x64\n        /* \"contracts/exoCours/exoNotation/exoNotation.sol\":2417:2425  students */\n      0x02\n        /* \"contracts/exoCours/exoNotation/exoNotation.sol\":2426:2435  idStudent */\n      dup4\n        /* \"contracts/exoCours/exoNotation/exoNotation.sol\":2417:2436  students[idStudent] */\n      dup2\n      sload\n      dup2\n      lt\n      tag_83\n      jumpi\n      tag_84\n      tag_85\n      jump\t// in\n    tag_84:\n    tag_83:\n      swap1\n      0x00\n      mstore\n      keccak256(0x00, 0x20)\n      swap1\n      0x04\n      mul\n      add\n        /* \"contracts/exoCours/exoNotation/exoNotation.sol\":2417:2445  students[idStudent].noteMath */\n      0x02\n      add\n      sload\n        /* \"contracts/exoCours/exoNotation/exoNotation.sol\":2390:2398  students */\n      0x02\n        /* \"contracts/exoCours/exoNotation/exoNotation.sol\":2399:2408  idStudent */\n      dup5\n        /* \"contracts/exoCours/exoNotation/exoNotation.sol\":2390:2409  students[idStudent] */\n      dup2\n      sload\n      dup2\n      lt\n      tag_87\n      jumpi\n      tag_88\n      tag_85\n      jump\t// in\n    tag_88:\n    tag_87:\n      swap1\n      0x00\n      mstore\n      keccak256(0x00, 0x20)\n      swap1\n      0x04\n      mul\n      add\n        /* \"contracts/exoCours/exoNotation/exoNotation.sol\":2390:2416  students[idStudent].noteFr */\n      0x03\n      add\n      sload\n        /* \"contracts/exoCours/exoNotation/exoNotation.sol\":2358:2366  students */\n      0x02\n        /* \"contracts/exoCours/exoNotation/exoNotation.sol\":2367:2376  idStudent */\n      dup6\n        /* \"contracts/exoCours/exoNotation/exoNotation.sol\":2358:2377  students[idStudent] */\n      dup2\n      sload\n      dup2\n      lt\n      tag_90\n      jumpi\n      tag_91\n      tag_85\n      jump\t// in\n    tag_91:\n    tag_90:\n      swap1\n      0x00\n      mstore\n      keccak256(0x00, 0x20)\n      swap1\n      0x04\n      mul\n      add\n        /* \"contracts/exoCours/exoNotation/exoNotation.sol\":2358:2389  students[idStudent].noteBiology */\n      0x01\n      add\n      sload\n        /* \"contracts/exoCours/exoNotation/exoNotation.sol\":2358:2416  students[idStudent].noteBiology+students[idStudent].noteFr */\n      tag_93\n      swap2\n      swap1\n      tag_94\n      jump\t// in\n    tag_93:\n        /* \"contracts/exoCours/exoNotation/exoNotation.sol\":2358:2445  students[idStudent].noteBiology+students[idStudent].noteFr+students[idStudent].noteMath */\n      tag_95\n      swap2\n      swap1\n      tag_94\n      jump\t// in\n    tag_95:\n        /* \"contracts/exoCours/exoNotation/exoNotation.sol\":2357:2450  (students[idStudent].noteBiology+students[idStudent].noteFr+students[idStudent].noteMath)*100 */\n      tag_96\n      swap2\n      swap1\n      tag_97\n      jump\t// in\n    tag_96:\n        /* \"contracts/exoCours/exoNotation/exoNotation.sol\":2357:2452  (students[idStudent].noteBiology+students[idStudent].noteFr+students[idStudent].noteMath)*100/3 */\n      tag_98\n      swap2\n      swap1\n      tag_99\n      jump\t// in\n    tag_98:\n        /* \"contracts/exoCours/exoNotation/exoNotation.sol\":2351:2452  return(students[idStudent].noteBiology+students[idStudent].noteFr+students[idStudent].noteMath)*100/3 */\n      swap2\n      pop\n      pop\n        /* \"contracts/exoCours/exoNotation/exoNotation.sol\":2203:2459  function calculateMeanStudent(string memory _name) public onlyOwner view returns(uint){... */\n      swap2\n      swap1\n      pop\n      jump\t// out\n        /* \"contracts/exoCours/exoNotation/exoNotation.sol\":2954:3631  function setNote(... */\n    tag_36:\n        /* \"contracts/exoCours/exoNotation/exoNotation.sol\":3079:3096  uint256 idStudent */\n      0x00\n        /* \"contracts/exoCours/exoNotation/exoNotation.sol\":3099:3131  getStudentFromName(_nameStudent) */\n      tag_101\n        /* \"contracts/exoCours/exoNotation/exoNotation.sol\":3118:3130  _nameStudent */\n      dup5\n      dup5\n        /* \"contracts/exoCours/exoNotation/exoNotation.sol\":3099:3131  getStudentFromName(_nameStudent) */\n      dup1\n      dup1\n      0x1f\n      add\n      0x20\n      dup1\n      swap2\n      div\n      mul\n      0x20\n      add\n      mload(0x40)\n      swap1\n      dup2\n      add\n      0x40\n      mstore\n      dup1\n      swap4\n      swap3\n      swap2\n      swap1\n      dup2\n      dup2\n      mstore\n      0x20\n      add\n      dup4\n      dup4\n      dup1\n      dup3\n      dup5\n      calldatacopy\n      0x00\n      dup2\n      dup5\n      add\n      mstore\n      not(0x1f)\n      0x1f\n      dup3\n      add\n      and\n      swap1\n      pop\n      dup1\n      dup4\n      add\n      swap3\n      pop\n      pop\n      pop\n      pop\n      pop\n      pop\n      pop\n        /* \"contracts/exoCours/exoNotation/exoNotation.sol\":3099:3117  getStudentFromName */\n      tag_82\n        /* \"contracts/exoCours/exoNotation/exoNotation.sol\":3099:3131  getStudentFromName(_nameStudent) */\n      jump\t// in\n    tag_101:\n        /* \"contracts/exoCours/exoNotation/exoNotation.sol\":3079:3131  uint256 idStudent = getStudentFromName(_nameStudent) */\n      swap1\n      pop\n        /* \"contracts/exoCours/exoNotation/exoNotation.sol\":3176:3184  teachers */\n      0x03\n        /* \"contracts/exoCours/exoNotation/exoNotation.sol\":3176:3193  teachers[_course] */\n      0x00\n        /* \"contracts/exoCours/exoNotation/exoNotation.sol\":3185:3192  _course */\n      dup7\n        /* \"contracts/exoCours/exoNotation/exoNotation.sol\":3176:3193  teachers[_course] */\n      0x02\n      dup2\n      gt\n      iszero\n      tag_102\n      jumpi\n      tag_103\n      tag_73\n      jump\t// in\n    tag_103:\n    tag_102:\n      0x02\n      dup2\n      gt\n      iszero\n      tag_104\n      jumpi\n      tag_105\n      tag_73\n      jump\t// in\n    tag_105:\n    tag_104:\n      dup2\n      mstore\n      0x20\n      add\n      swap1\n      dup2\n      mstore\n      0x20\n      add\n      0x00\n      keccak256\n      0x00\n      swap1\n      sload\n      swap1\n      0x0100\n      exp\n      swap1\n      div\n      0xffffffffffffffffffffffffffffffffffffffff\n      and\n        /* \"contracts/exoCours/exoNotation/exoNotation.sol\":3162:3193  msg.sender == teachers[_course] */\n      0xffffffffffffffffffffffffffffffffffffffff\n      and\n        /* \"contracts/exoCours/exoNotation/exoNotation.sol\":3162:3172  msg.sender */\n      caller\n        /* \"contracts/exoCours/exoNotation/exoNotation.sol\":3162:3193  msg.sender == teachers[_course] */\n      0xffffffffffffffffffffffffffffffffffffffff\n      and\n      eq\n        /* \"contracts/exoCours/exoNotation/exoNotation.sol\":3141:3266  require(... */\n      tag_106\n      jumpi\n      mload(0x40)\n      0x08c379a000000000000000000000000000000000000000000000000000000000\n      dup2\n      mstore\n      0x04\n      add\n      tag_107\n      swap1\n      tag_108\n      jump\t// in\n    tag_107:\n      mload(0x40)\n      dup1\n      swap2\n      sub\n      swap1\n      revert\n    tag_106:\n        /* \"contracts/exoCours/exoNotation/exoNotation.sol\":3291:3305  course.Biology */\n      0x00\n        /* \"contracts/exoCours/exoNotation/exoNotation.sol\":3280:3305  _course == course.Biology */\n      0x02\n      dup2\n      gt\n      iszero\n      tag_109\n      jumpi\n      tag_110\n      tag_73\n      jump\t// in\n    tag_110:\n    tag_109:\n        /* \"contracts/exoCours/exoNotation/exoNotation.sol\":3280:3287  _course */\n      dup6\n        /* \"contracts/exoCours/exoNotation/exoNotation.sol\":3280:3305  _course == course.Biology */\n      0x02\n      dup2\n      gt\n      iszero\n      tag_111\n      jumpi\n      tag_112\n      tag_73\n      jump\t// in\n    tag_112:\n    tag_111:\n      sub\n        /* \"contracts/exoCours/exoNotation/exoNotation.sol\":3276:3625  if (_course == course.Biology) {... */\n      tag_113\n      jumpi\n        /* \"contracts/exoCours/exoNotation/exoNotation.sol\":3355:3360  _note */\n      dup2\n        /* \"contracts/exoCours/exoNotation/exoNotation.sol\":3321:3329  students */\n      0x02\n        /* \"contracts/exoCours/exoNotation/exoNotation.sol\":3330:3339  idStudent */\n      dup3\n        /* \"contracts/exoCours/exoNotation/exoNotation.sol\":3321:3340  students[idStudent] */\n      dup2\n      sload\n      dup2\n      lt\n      tag_114\n      jumpi\n      tag_115\n      tag_85\n      jump\t// in\n    tag_115:\n    tag_114:\n      swap1\n      0x00\n      mstore\n      keccak256(0x00, 0x20)\n      swap1\n      0x04\n      mul\n      add\n        /* \"contracts/exoCours/exoNotation/exoNotation.sol\":3321:3352  students[idStudent].noteBiology */\n      0x01\n      add\n        /* \"contracts/exoCours/exoNotation/exoNotation.sol\":3321:3360  students[idStudent].noteBiology = _note */\n      dup2\n      swap1\n      sstore\n      pop\n        /* \"contracts/exoCours/exoNotation/exoNotation.sol\":3276:3625  if (_course == course.Biology) {... */\n      jump(tag_117)\n    tag_113:\n        /* \"contracts/exoCours/exoNotation/exoNotation.sol\":3392:3401  course.Fr */\n      0x02\n        /* \"contracts/exoCours/exoNotation/exoNotation.sol\":3381:3401  _course == course.Fr */\n      dup1\n      dup2\n      gt\n      iszero\n      tag_118\n      jumpi\n      tag_119\n      tag_73\n      jump\t// in\n    tag_119:\n    tag_118:\n        /* \"contracts/exoCours/exoNotation/exoNotation.sol\":3381:3388  _course */\n      dup6\n        /* \"contracts/exoCours/exoNotation/exoNotation.sol\":3381:3401  _course == course.Fr */\n      0x02\n      dup2\n      gt\n      iszero\n      tag_120\n      jumpi\n      tag_121\n      tag_73\n      jump\t// in\n    tag_121:\n    tag_120:\n      sub\n        /* \"contracts/exoCours/exoNotation/exoNotation.sol\":3377:3625  if (_course == course.Fr) {... */\n      tag_122\n      jumpi\n        /* \"contracts/exoCours/exoNotation/exoNotation.sol\":3446:3451  _note */\n      dup2\n        /* \"contracts/exoCours/exoNotation/exoNotation.sol\":3417:3425  students */\n      0x02\n        /* \"contracts/exoCours/exoNotation/exoNotation.sol\":3426:3435  idStudent */\n      dup3\n        /* \"contracts/exoCours/exoNotation/exoNotation.sol\":3417:3436  students[idStudent] */\n      dup2\n      sload\n      dup2\n      lt\n      tag_123\n      jumpi\n      tag_124\n      tag_85\n      jump\t// in\n    tag_124:\n    tag_123:\n      swap1\n      0x00\n      mstore\n      keccak256(0x00, 0x20)\n      swap1\n      0x04\n      mul\n      add\n        /* \"contracts/exoCours/exoNotation/exoNotation.sol\":3417:3443  students[idStudent].noteFr */\n      0x03\n      add\n        /* \"contracts/exoCours/exoNotation/exoNotation.sol\":3417:3451  students[idStudent].noteFr = _note */\n      dup2\n      swap1\n      sstore\n      pop\n        /* \"contracts/exoCours/exoNotation/exoNotation.sol\":3377:3625  if (_course == course.Fr) {... */\n      jump(tag_126)\n    tag_122:\n        /* \"contracts/exoCours/exoNotation/exoNotation.sol\":3483:3494  course.Math */\n      0x01\n        /* \"contracts/exoCours/exoNotation/exoNotation.sol\":3472:3494  _course == course.Math */\n      0x02\n      dup2\n      gt\n      iszero\n      tag_127\n      jumpi\n      tag_128\n      tag_73\n      jump\t// in\n    tag_128:\n    tag_127:\n        /* \"contracts/exoCours/exoNotation/exoNotation.sol\":3472:3479  _course */\n      dup6\n        /* \"contracts/exoCours/exoNotation/exoNotation.sol\":3472:3494  _course == course.Math */\n      0x02\n      dup2\n      gt\n      iszero\n      tag_129\n      jumpi\n      tag_130\n      tag_73\n      jump\t// in\n    tag_130:\n    tag_129:\n      sub\n        /* \"contracts/exoCours/exoNotation/exoNotation.sol\":3468:3625  if (_course == course.Math) {... */\n      tag_131\n      jumpi\n        /* \"contracts/exoCours/exoNotation/exoNotation.sol\":3541:3546  _note */\n      dup2\n        /* \"contracts/exoCours/exoNotation/exoNotation.sol\":3510:3518  students */\n      0x02\n        /* \"contracts/exoCours/exoNotation/exoNotation.sol\":3519:3528  idStudent */\n      dup3\n        /* \"contracts/exoCours/exoNotation/exoNotation.sol\":3510:3529  students[idStudent] */\n      dup2\n      sload\n      dup2\n      lt\n      tag_132\n      jumpi\n      tag_133\n      tag_85\n      jump\t// in\n    tag_133:\n    tag_132:\n      swap1\n      0x00\n      mstore\n      keccak256(0x00, 0x20)\n      swap1\n      0x04\n      mul\n      add\n        /* \"contracts/exoCours/exoNotation/exoNotation.sol\":3510:3538  students[idStudent].noteMath */\n      0x02\n      add\n        /* \"contracts/exoCours/exoNotation/exoNotation.sol\":3510:3546  students[idStudent].noteMath = _note */\n      dup2\n      swap1\n      sstore\n      pop\n        /* \"contracts/exoCours/exoNotation/exoNotation.sol\":3468:3625  if (_course == course.Math) {... */\n      jump(tag_135)\n    tag_131:\n        /* \"contracts/exoCours/exoNotation/exoNotation.sol\":3577:3614  revert(\"Course type does not exist.\") */\n      mload(0x40)\n      0x08c379a000000000000000000000000000000000000000000000000000000000\n      dup2\n      mstore\n      0x04\n      add\n      tag_136\n      swap1\n      tag_137\n      jump\t// in\n    tag_136:\n      mload(0x40)\n      dup1\n      swap2\n      sub\n      swap1\n      revert\n        /* \"contracts/exoCours/exoNotation/exoNotation.sol\":3468:3625  if (_course == course.Math) {... */\n    tag_135:\n        /* \"contracts/exoCours/exoNotation/exoNotation.sol\":3377:3625  if (_course == course.Fr) {... */\n    tag_126:\n        /* \"contracts/exoCours/exoNotation/exoNotation.sol\":3276:3625  if (_course == course.Biology) {... */\n    tag_117:\n        /* \"contracts/exoCours/exoNotation/exoNotation.sol\":3069:3631  {... */\n      pop\n        /* \"contracts/exoCours/exoNotation/exoNotation.sol\":2954:3631  function setNote(... */\n      pop\n      pop\n      pop\n      pop\n      jump\t// out\n        /* \"@openzeppelin/contracts/access/Ownable.sol\":1831:1932  function renounceOwnership() public virtual onlyOwner {... */\n    tag_38:\n        /* \"@openzeppelin/contracts/access/Ownable.sol\":1094:1107  _checkOwner() */\n      tag_139\n        /* \"@openzeppelin/contracts/access/Ownable.sol\":1094:1105  _checkOwner */\n      tag_57\n        /* \"@openzeppelin/contracts/access/Ownable.sol\":1094:1107  _checkOwner() */\n      jump\t// in\n    tag_139:\n        /* \"@openzeppelin/contracts/access/Ownable.sol\":1895:1925  _transferOwnership(address(0)) */\n      tag_141\n        /* \"@openzeppelin/contracts/access/Ownable.sol\":1922:1923  0 */\n      0x00\n        /* \"@openzeppelin/contracts/access/Ownable.sol\":1895:1913  _transferOwnership */\n      tag_142\n        /* \"@openzeppelin/contracts/access/Ownable.sol\":1895:1925  _transferOwnership(address(0)) */\n      jump\t// in\n    tag_141:\n        /* \"@openzeppelin/contracts/access/Ownable.sol\":1831:1932  function renounceOwnership() public virtual onlyOwner {... */\n      jump\t// out\n        /* \"@openzeppelin/contracts/access/Ownable.sol\":1201:1286  function owner() public view virtual returns (address) {... */\n    tag_40:\n        /* \"@openzeppelin/contracts/access/Ownable.sol\":1247:1254  address */\n      0x00\n        /* \"@openzeppelin/contracts/access/Ownable.sol\":1273:1279  _owner */\n      dup1\n      0x00\n      swap1\n      sload\n      swap1\n      0x0100\n      exp\n      swap1\n      div\n      0xffffffffffffffffffffffffffffffffffffffff\n      and\n        /* \"@openzeppelin/contracts/access/Ownable.sol\":1266:1279  return _owner */\n      swap1\n      pop\n        /* \"@openzeppelin/contracts/access/Ownable.sol\":1201:1286  function owner() public view virtual returns (address) {... */\n      swap1\n      jump\t// out\n        /* \"contracts/exoCours/exoNotation/exoNotation.sol\":1349:2197  function calculateMeanPerCourse(course _course)... */\n    tag_46:\n        /* \"contracts/exoCours/exoNotation/exoNotation.sol\":1442:1449  uint256 */\n      0x00\n        /* \"contracts/exoCours/exoNotation/exoNotation.sol\":1500:1508  teachers */\n      0x03\n        /* \"contracts/exoCours/exoNotation/exoNotation.sol\":1500:1517  teachers[_course] */\n      0x00\n        /* \"contracts/exoCours/exoNotation/exoNotation.sol\":1509:1516  _course */\n      dup4\n        /* \"contracts/exoCours/exoNotation/exoNotation.sol\":1500:1517  teachers[_course] */\n      0x02\n      dup2\n      gt\n      iszero\n      tag_145\n      jumpi\n      tag_146\n      tag_73\n      jump\t// in\n    tag_146:\n    tag_145:\n      0x02\n      dup2\n      gt\n      iszero\n      tag_147\n      jumpi\n      tag_148\n      tag_73\n      jump\t// in\n    tag_148:\n    tag_147:\n      dup2\n      mstore\n      0x20\n      add\n      swap1\n      dup2\n      mstore\n      0x20\n      add\n      0x00\n      keccak256\n      0x00\n      swap1\n      sload\n      swap1\n      0x0100\n      exp\n      swap1\n      div\n      0xffffffffffffffffffffffffffffffffffffffff\n      and\n        /* \"contracts/exoCours/exoNotation/exoNotation.sol\":1486:1517  msg.sender == teachers[_course] */\n      0xffffffffffffffffffffffffffffffffffffffff\n      and\n        /* \"contracts/exoCours/exoNotation/exoNotation.sol\":1486:1496  msg.sender */\n      caller\n        /* \"contracts/exoCours/exoNotation/exoNotation.sol\":1486:1517  msg.sender == teachers[_course] */\n      0xffffffffffffffffffffffffffffffffffffffff\n      and\n      eq\n        /* \"contracts/exoCours/exoNotation/exoNotation.sol\":1465:1588  require(... */\n      tag_149\n      jumpi\n      mload(0x40)\n      0x08c379a000000000000000000000000000000000000000000000000000000000\n      dup2\n      mstore\n      0x04\n      add\n      tag_150\n      swap1\n      tag_151\n      jump\t// in\n    tag_150:\n      mload(0x40)\n      dup1\n      swap2\n      sub\n      swap1\n      revert\n    tag_149:\n        /* \"contracts/exoCours/exoNotation/exoNotation.sol\":1598:1615  uint256 totalNote */\n      0x00\n        /* \"contracts/exoCours/exoNotation/exoNotation.sol\":1625:1645  uint256 totalStudent */\n      dup1\n        /* \"contracts/exoCours/exoNotation/exoNotation.sol\":1661:1670  uint256 i */\n      0x00\n        /* \"contracts/exoCours/exoNotation/exoNotation.sol\":1656:2122  for (uint256 i = 0; i < students.length; i++) {... */\n    tag_152:\n        /* \"contracts/exoCours/exoNotation/exoNotation.sol\":1680:1688  students */\n      0x02\n        /* \"contracts/exoCours/exoNotation/exoNotation.sol\":1680:1695  students.length */\n      dup1\n      sload\n      swap1\n      pop\n        /* \"contracts/exoCours/exoNotation/exoNotation.sol\":1676:1677  i */\n      dup2\n        /* \"contracts/exoCours/exoNotation/exoNotation.sol\":1676:1695  i < students.length */\n      lt\n        /* \"contracts/exoCours/exoNotation/exoNotation.sol\":1656:2122  for (uint256 i = 0; i < students.length; i++) {... */\n      iszero\n      tag_153\n      jumpi\n        /* \"contracts/exoCours/exoNotation/exoNotation.sol\":1731:1745  course.Biology */\n      0x00\n        /* \"contracts/exoCours/exoNotation/exoNotation.sol\":1720:1745  _course == course.Biology */\n      0x02\n      dup2\n      gt\n      iszero\n      tag_155\n      jumpi\n      tag_156\n      tag_73\n      jump\t// in\n    tag_156:\n    tag_155:\n        /* \"contracts/exoCours/exoNotation/exoNotation.sol\":1720:1727  _course */\n      dup6\n        /* \"contracts/exoCours/exoNotation/exoNotation.sol\":1720:1745  _course == course.Biology */\n      0x02\n      dup2\n      gt\n      iszero\n      tag_157\n      jumpi\n      tag_158\n      tag_73\n      jump\t// in\n    tag_158:\n    tag_157:\n      sub\n        /* \"contracts/exoCours/exoNotation/exoNotation.sol\":1716:2112  if (_course == course.Biology) {... */\n      tag_159\n      jumpi\n        /* \"contracts/exoCours/exoNotation/exoNotation.sol\":1778:1786  students */\n      0x02\n        /* \"contracts/exoCours/exoNotation/exoNotation.sol\":1787:1788  i */\n      dup2\n        /* \"contracts/exoCours/exoNotation/exoNotation.sol\":1778:1789  students[i] */\n      dup2\n      sload\n      dup2\n      lt\n      tag_160\n      jumpi\n      tag_161\n      tag_85\n      jump\t// in\n    tag_161:\n    tag_160:\n      swap1\n      0x00\n      mstore\n      keccak256(0x00, 0x20)\n      swap1\n      0x04\n      mul\n      add\n        /* \"contracts/exoCours/exoNotation/exoNotation.sol\":1778:1801  students[i].noteBiology */\n      0x01\n      add\n      sload\n        /* \"contracts/exoCours/exoNotation/exoNotation.sol\":1765:1801  totalNote += students[i].noteBiology */\n      dup4\n      tag_163\n      swap2\n      swap1\n      tag_94\n      jump\t// in\n    tag_163:\n      swap3\n      pop\n        /* \"contracts/exoCours/exoNotation/exoNotation.sol\":1833:1834  1 */\n      0x01\n        /* \"contracts/exoCours/exoNotation/exoNotation.sol\":1819:1834  totalStudent+=1 */\n      dup3\n      tag_164\n      swap2\n      swap1\n      tag_94\n      jump\t// in\n    tag_164:\n      swap2\n      pop\n        /* \"contracts/exoCours/exoNotation/exoNotation.sol\":1716:2112  if (_course == course.Biology) {... */\n      jump(tag_165)\n    tag_159:\n        /* \"contracts/exoCours/exoNotation/exoNotation.sol\":1870:1879  course.Fr */\n      0x02\n        /* \"contracts/exoCours/exoNotation/exoNotation.sol\":1859:1879  _course == course.Fr */\n      dup1\n      dup2\n      gt\n      iszero\n      tag_166\n      jumpi\n      tag_167\n      tag_73\n      jump\t// in\n    tag_167:\n    tag_166:\n        /* \"contracts/exoCours/exoNotation/exoNotation.sol\":1859:1866  _course */\n      dup6\n        /* \"contracts/exoCours/exoNotation/exoNotation.sol\":1859:1879  _course == course.Fr */\n      0x02\n      dup2\n      gt\n      iszero\n      tag_168\n      jumpi\n      tag_169\n      tag_73\n      jump\t// in\n    tag_169:\n    tag_168:\n      sub\n        /* \"contracts/exoCours/exoNotation/exoNotation.sol\":1855:2112  if (_course == course.Fr) {... */\n      tag_170\n      jumpi\n        /* \"contracts/exoCours/exoNotation/exoNotation.sol\":1912:1920  students */\n      0x02\n        /* \"contracts/exoCours/exoNotation/exoNotation.sol\":1921:1922  i */\n      dup2\n        /* \"contracts/exoCours/exoNotation/exoNotation.sol\":1912:1923  students[i] */\n      dup2\n      sload\n      dup2\n      lt\n      tag_171\n      jumpi\n      tag_172\n      tag_85\n      jump\t// in\n    tag_172:\n    tag_171:\n      swap1\n      0x00\n      mstore\n      keccak256(0x00, 0x20)\n      swap1\n      0x04\n      mul\n      add\n        /* \"contracts/exoCours/exoNotation/exoNotation.sol\":1912:1930  students[i].noteFr */\n      0x03\n      add\n      sload\n        /* \"contracts/exoCours/exoNotation/exoNotation.sol\":1899:1930  totalNote += students[i].noteFr */\n      dup4\n      tag_174\n      swap2\n      swap1\n      tag_94\n      jump\t// in\n    tag_174:\n      swap3\n      pop\n        /* \"contracts/exoCours/exoNotation/exoNotation.sol\":1962:1963  1 */\n      0x01\n        /* \"contracts/exoCours/exoNotation/exoNotation.sol\":1948:1963  totalStudent+=1 */\n      dup3\n      tag_175\n      swap2\n      swap1\n      tag_94\n      jump\t// in\n    tag_175:\n      swap2\n      pop\n        /* \"contracts/exoCours/exoNotation/exoNotation.sol\":1855:2112  if (_course == course.Fr) {... */\n      jump(tag_176)\n    tag_170:\n        /* \"contracts/exoCours/exoNotation/exoNotation.sol\":2000:2011  course.Math */\n      0x01\n        /* \"contracts/exoCours/exoNotation/exoNotation.sol\":1989:2011  _course == course.Math */\n      0x02\n      dup2\n      gt\n      iszero\n      tag_177\n      jumpi\n      tag_178\n      tag_73\n      jump\t// in\n    tag_178:\n    tag_177:\n        /* \"contracts/exoCours/exoNotation/exoNotation.sol\":1989:1996  _course */\n      dup6\n        /* \"contracts/exoCours/exoNotation/exoNotation.sol\":1989:2011  _course == course.Math */\n      0x02\n      dup2\n      gt\n      iszero\n      tag_179\n      jumpi\n      tag_180\n      tag_73\n      jump\t// in\n    tag_180:\n    tag_179:\n      sub\n        /* \"contracts/exoCours/exoNotation/exoNotation.sol\":1985:2112  if (_course == course.Math) {... */\n      tag_181\n      jumpi\n        /* \"contracts/exoCours/exoNotation/exoNotation.sol\":2044:2052  students */\n      0x02\n        /* \"contracts/exoCours/exoNotation/exoNotation.sol\":2053:2054  i */\n      dup2\n        /* \"contracts/exoCours/exoNotation/exoNotation.sol\":2044:2055  students[i] */\n      dup2\n      sload\n      dup2\n      lt\n      tag_182\n      jumpi\n      tag_183\n      tag_85\n      jump\t// in\n    tag_183:\n    tag_182:\n      swap1\n      0x00\n      mstore\n      keccak256(0x00, 0x20)\n      swap1\n      0x04\n      mul\n      add\n        /* \"contracts/exoCours/exoNotation/exoNotation.sol\":2044:2064  students[i].noteMath */\n      0x02\n      add\n      sload\n        /* \"contracts/exoCours/exoNotation/exoNotation.sol\":2031:2064  totalNote += students[i].noteMath */\n      dup4\n      tag_185\n      swap2\n      swap1\n      tag_94\n      jump\t// in\n    tag_185:\n      swap3\n      pop\n        /* \"contracts/exoCours/exoNotation/exoNotation.sol\":2096:2097  1 */\n      0x01\n        /* \"contracts/exoCours/exoNotation/exoNotation.sol\":2082:2097  totalStudent+=1 */\n      dup3\n      tag_186\n      swap2\n      swap1\n      tag_94\n      jump\t// in\n    tag_186:\n      swap2\n      pop\n        /* \"contracts/exoCours/exoNotation/exoNotation.sol\":1985:2112  if (_course == course.Math) {... */\n    tag_181:\n        /* \"contracts/exoCours/exoNotation/exoNotation.sol\":1855:2112  if (_course == course.Fr) {... */\n    tag_176:\n        /* \"contracts/exoCours/exoNotation/exoNotation.sol\":1716:2112  if (_course == course.Biology) {... */\n    tag_165:\n        /* \"contracts/exoCours/exoNotation/exoNotation.sol\":1697:1700  i++ */\n      dup1\n      dup1\n      tag_187\n      swap1\n      tag_188\n      jump\t// in\n    tag_187:\n      swap2\n      pop\n      pop\n        /* \"contracts/exoCours/exoNotation/exoNotation.sol\":1656:2122  for (uint256 i = 0; i < students.length; i++) {... */\n      jump(tag_152)\n    tag_153:\n      pop\n        /* \"contracts/exoCours/exoNotation/exoNotation.sol\":2131:2140  uint mean */\n      0x00\n        /* \"contracts/exoCours/exoNotation/exoNotation.sol\":2157:2169  totalStudent */\n      dup2\n        /* \"contracts/exoCours/exoNotation/exoNotation.sol\":2153:2156  100 */\n      0x64\n        /* \"contracts/exoCours/exoNotation/exoNotation.sol\":2143:2152  totalNote */\n      dup5\n        /* \"contracts/exoCours/exoNotation/exoNotation.sol\":2143:2156  totalNote*100 */\n      tag_189\n      swap2\n      swap1\n      tag_97\n      jump\t// in\n    tag_189:\n        /* \"contracts/exoCours/exoNotation/exoNotation.sol\":2143:2169  totalNote*100/totalStudent */\n      tag_190\n      swap2\n      swap1\n      tag_99\n      jump\t// in\n    tag_190:\n        /* \"contracts/exoCours/exoNotation/exoNotation.sol\":2131:2169  uint mean = totalNote*100/totalStudent */\n      swap1\n      pop\n        /* \"contracts/exoCours/exoNotation/exoNotation.sol\":2186:2190  mean */\n      dup1\n        /* \"contracts/exoCours/exoNotation/exoNotation.sol\":2179:2190  return mean */\n      swap4\n      pop\n      pop\n      pop\n      pop\n        /* \"contracts/exoCours/exoNotation/exoNotation.sol\":1349:2197  function calculateMeanPerCourse(course _course)... */\n      swap2\n      swap1\n      pop\n      jump\t// out\n        /* \"@openzeppelin/contracts/access/Ownable.sol\":2081:2279  function transferOwnership(address newOwner) public virtual onlyOwner {... */\n    tag_51:\n        /* \"@openzeppelin/contracts/access/Ownable.sol\":1094:1107  _checkOwner() */\n      tag_192\n        /* \"@openzeppelin/contracts/access/Ownable.sol\":1094:1105  _checkOwner */\n      tag_57\n        /* \"@openzeppelin/contracts/access/Ownable.sol\":1094:1107  _checkOwner() */\n      jump\t// in\n    tag_192:\n        /* \"@openzeppelin/contracts/access/Ownable.sol\":2189:2190  0 */\n      0x00\n        /* \"@openzeppelin/contracts/access/Ownable.sol\":2169:2191  newOwner != address(0) */\n      0xffffffffffffffffffffffffffffffffffffffff\n      and\n        /* \"@openzeppelin/contracts/access/Ownable.sol\":2169:2177  newOwner */\n      dup2\n        /* \"@openzeppelin/contracts/access/Ownable.sol\":2169:2191  newOwner != address(0) */\n      0xffffffffffffffffffffffffffffffffffffffff\n      and\n      sub\n        /* \"@openzeppelin/contracts/access/Ownable.sol\":2161:2234  require(newOwner != address(0), \"Ownable: new owner is the zero address\") */\n      tag_194\n      jumpi\n      mload(0x40)\n      0x08c379a000000000000000000000000000000000000000000000000000000000\n      dup2\n      mstore\n      0x04\n      add\n      tag_195\n      swap1\n      tag_196\n      jump\t// in\n    tag_195:\n      mload(0x40)\n      dup1\n      swap2\n      sub\n      swap1\n      revert\n    tag_194:\n        /* \"@openzeppelin/contracts/access/Ownable.sol\":2244:2272  _transferOwnership(newOwner) */\n      tag_197\n        /* \"@openzeppelin/contracts/access/Ownable.sol\":2263:2271  newOwner */\n      dup2\n        /* \"@openzeppelin/contracts/access/Ownable.sol\":2244:2262  _transferOwnership */\n      tag_142\n        /* \"@openzeppelin/contracts/access/Ownable.sol\":2244:2272  _transferOwnership(newOwner) */\n      jump\t// in\n    tag_197:\n        /* \"@openzeppelin/contracts/access/Ownable.sol\":2081:2279  function transferOwnership(address newOwner) public virtual onlyOwner {... */\n      pop\n      jump\t// out\n        /* \"contracts/exoCours/exoNotation/exoNotation.sol\":2605:2948  function calculateMeanGlobal() public view onlyOwner returns(uint){... */\n    tag_53:\n        /* \"contracts/exoCours/exoNotation/exoNotation.sol\":2666:2670  uint */\n      0x00\n        /* \"@openzeppelin/contracts/access/Ownable.sol\":1094:1107  _checkOwner() */\n      tag_199\n        /* \"@openzeppelin/contracts/access/Ownable.sol\":1094:1105  _checkOwner */\n      tag_57\n        /* \"@openzeppelin/contracts/access/Ownable.sol\":1094:1107  _checkOwner() */\n      jump\t// in\n    tag_199:\n        /* \"contracts/exoCours/exoNotation/exoNotation.sol\":2681:2695  uint totalNote */\n      0x00\n        /* \"contracts/exoCours/exoNotation/exoNotation.sol\":2705:2722  uint totalStudent */\n      dup1\n        /* \"contracts/exoCours/exoNotation/exoNotation.sol\":2737:2746  uint256 i */\n      0x00\n        /* \"contracts/exoCours/exoNotation/exoNotation.sol\":2732:2903  for (uint256 i = 0; i < students.length; i++) {... */\n    tag_201:\n        /* \"contracts/exoCours/exoNotation/exoNotation.sol\":2756:2764  students */\n      0x02\n        /* \"contracts/exoCours/exoNotation/exoNotation.sol\":2756:2771  students.length */\n      dup1\n      sload\n      swap1\n      pop\n        /* \"contracts/exoCours/exoNotation/exoNotation.sol\":2752:2753  i */\n      dup2\n        /* \"contracts/exoCours/exoNotation/exoNotation.sol\":2752:2771  i < students.length */\n      lt\n        /* \"contracts/exoCours/exoNotation/exoNotation.sol\":2732:2903  for (uint256 i = 0; i < students.length; i++) {... */\n      iszero\n      tag_202\n      jumpi\n        /* \"contracts/exoCours/exoNotation/exoNotation.sol\":2845:2853  students */\n      0x02\n        /* \"contracts/exoCours/exoNotation/exoNotation.sol\":2854:2855  i */\n      dup2\n        /* \"contracts/exoCours/exoNotation/exoNotation.sol\":2845:2856  students[i] */\n      dup2\n      sload\n      dup2\n      lt\n      tag_204\n      jumpi\n      tag_205\n      tag_85\n      jump\t// in\n    tag_205:\n    tag_204:\n      swap1\n      0x00\n      mstore\n      keccak256(0x00, 0x20)\n      swap1\n      0x04\n      mul\n      add\n        /* \"contracts/exoCours/exoNotation/exoNotation.sol\":2845:2865  students[i].noteMath */\n      0x02\n      add\n      sload\n        /* \"contracts/exoCours/exoNotation/exoNotation.sol\":2826:2834  students */\n      0x02\n        /* \"contracts/exoCours/exoNotation/exoNotation.sol\":2835:2836  i */\n      dup3\n        /* \"contracts/exoCours/exoNotation/exoNotation.sol\":2826:2837  students[i] */\n      dup2\n      sload\n      dup2\n      lt\n      tag_207\n      jumpi\n      tag_208\n      tag_85\n      jump\t// in\n    tag_208:\n    tag_207:\n      swap1\n      0x00\n      mstore\n      keccak256(0x00, 0x20)\n      swap1\n      0x04\n      mul\n      add\n        /* \"contracts/exoCours/exoNotation/exoNotation.sol\":2826:2844  students[i].noteFr */\n      0x03\n      add\n      sload\n        /* \"contracts/exoCours/exoNotation/exoNotation.sol\":2802:2810  students */\n      0x02\n        /* \"contracts/exoCours/exoNotation/exoNotation.sol\":2811:2812  i */\n      dup4\n        /* \"contracts/exoCours/exoNotation/exoNotation.sol\":2802:2813  students[i] */\n      dup2\n      sload\n      dup2\n      lt\n      tag_210\n      jumpi\n      tag_211\n      tag_85\n      jump\t// in\n    tag_211:\n    tag_210:\n      swap1\n      0x00\n      mstore\n      keccak256(0x00, 0x20)\n      swap1\n      0x04\n      mul\n      add\n        /* \"contracts/exoCours/exoNotation/exoNotation.sol\":2802:2825  students[i].noteBiology */\n      0x01\n      add\n      sload\n        /* \"contracts/exoCours/exoNotation/exoNotation.sol\":2802:2844  students[i].noteBiology+students[i].noteFr */\n      tag_213\n      swap2\n      swap1\n      tag_94\n      jump\t// in\n    tag_213:\n        /* \"contracts/exoCours/exoNotation/exoNotation.sol\":2802:2865  students[i].noteBiology+students[i].noteFr+students[i].noteMath */\n      tag_214\n      swap2\n      swap1\n      tag_94\n      jump\t// in\n    tag_214:\n        /* \"contracts/exoCours/exoNotation/exoNotation.sol\":2791:2865  totalNote+=students[i].noteBiology+students[i].noteFr+students[i].noteMath */\n      dup4\n      tag_215\n      swap2\n      swap1\n      tag_94\n      jump\t// in\n    tag_215:\n      swap3\n      pop\n        /* \"contracts/exoCours/exoNotation/exoNotation.sol\":2892:2893  3 */\n      0x03\n        /* \"contracts/exoCours/exoNotation/exoNotation.sol\":2878:2893  totalStudent+=3 */\n      dup3\n      tag_216\n      swap2\n      swap1\n      tag_94\n      jump\t// in\n    tag_216:\n      swap2\n      pop\n        /* \"contracts/exoCours/exoNotation/exoNotation.sol\":2773:2776  i++ */\n      dup1\n      dup1\n      tag_217\n      swap1\n      tag_188\n      jump\t// in\n    tag_217:\n      swap2\n      pop\n      pop\n        /* \"contracts/exoCours/exoNotation/exoNotation.sol\":2732:2903  for (uint256 i = 0; i < students.length; i++) {... */\n      jump(tag_201)\n    tag_202:\n      pop\n        /* \"contracts/exoCours/exoNotation/exoNotation.sol\":2929:2941  totalStudent */\n      dup1\n        /* \"contracts/exoCours/exoNotation/exoNotation.sol\":2919:2928  totalNote */\n      dup3\n        /* \"contracts/exoCours/exoNotation/exoNotation.sol\":2919:2941  totalNote/totalStudent */\n      tag_218\n      swap2\n      swap1\n      tag_99\n      jump\t// in\n    tag_218:\n        /* \"contracts/exoCours/exoNotation/exoNotation.sol\":2912:2941  return totalNote/totalStudent */\n      swap3\n      pop\n      pop\n      pop\n        /* \"contracts/exoCours/exoNotation/exoNotation.sol\":2605:2948  function calculateMeanGlobal() public view onlyOwner returns(uint){... */\n      swap1\n      jump\t// out\n        /* \"@openzeppelin/contracts/access/Ownable.sol\":1359:1489  function _checkOwner() internal view virtual {... */\n    tag_57:\n        /* \"@openzeppelin/contracts/access/Ownable.sol\":1433:1445  _msgSender() */\n      tag_220\n        /* \"@openzeppelin/contracts/access/Ownable.sol\":1433:1443  _msgSender */\n      tag_221\n        /* \"@openzeppelin/contracts/access/Ownable.sol\":1433:1445  _msgSender() */\n      jump\t// in\n    tag_220:\n        /* \"@openzeppelin/contracts/access/Ownable.sol\":1422:1445  owner() == _msgSender() */\n      0xffffffffffffffffffffffffffffffffffffffff\n      and\n        /* \"@openzeppelin/contracts/access/Ownable.sol\":1422:1429  owner() */\n      tag_222\n        /* \"@openzeppelin/contracts/access/Ownable.sol\":1422:1427  owner */\n      tag_40\n        /* \"@openzeppelin/contracts/access/Ownable.sol\":1422:1429  owner() */\n      jump\t// in\n    tag_222:\n        /* \"@openzeppelin/contracts/access/Ownable.sol\":1422:1445  owner() == _msgSender() */\n      0xffffffffffffffffffffffffffffffffffffffff\n      and\n      eq\n        /* \"@openzeppelin/contracts/access/Ownable.sol\":1414:1482  require(owner() == _msgSender(), \"Ownable: caller is not the owner\") */\n      tag_223\n      jumpi\n      mload(0x40)\n      0x08c379a000000000000000000000000000000000000000000000000000000000\n      dup2\n      mstore\n      0x04\n      add\n      tag_224\n      swap1\n      tag_225\n      jump\t// in\n    tag_224:\n      mload(0x40)\n      dup1\n      swap2\n      sub\n      swap1\n      revert\n    tag_223:\n        /* \"@openzeppelin/contracts/access/Ownable.sol\":1359:1489  function _checkOwner() internal view virtual {... */\n      jump\t// out\n        /* \"contracts/exoCours/exoNotation/exoNotation.sol\":926:1343  function getStudentFromName(string memory _name)... */\n    tag_82:\n        /* \"contracts/exoCours/exoNotation/exoNotation.sol\":1021:1028  uint256 */\n      0x00\n        /* \"contracts/exoCours/exoNotation/exoNotation.sol\":1049:1058  uint256 i */\n      dup1\n        /* \"contracts/exoCours/exoNotation/exoNotation.sol\":1061:1062  0 */\n      0x00\n        /* \"contracts/exoCours/exoNotation/exoNotation.sol\":1049:1062  uint256 i = 0 */\n      swap1\n      pop\n        /* \"contracts/exoCours/exoNotation/exoNotation.sol\":1044:1290  for (uint256 i = 0; i < students.length; i++) {... */\n    tag_227:\n        /* \"contracts/exoCours/exoNotation/exoNotation.sol\":1068:1076  students */\n      0x02\n        /* \"contracts/exoCours/exoNotation/exoNotation.sol\":1068:1083  students.length */\n      dup1\n      sload\n      swap1\n      pop\n        /* \"contracts/exoCours/exoNotation/exoNotation.sol\":1064:1065  i */\n      dup2\n        /* \"contracts/exoCours/exoNotation/exoNotation.sol\":1064:1083  i < students.length */\n      lt\n        /* \"contracts/exoCours/exoNotation/exoNotation.sol\":1044:1290  for (uint256 i = 0; i < students.length; i++) {... */\n      iszero\n      tag_228\n      jumpi\n        /* \"contracts/exoCours/exoNotation/exoNotation.sol\":1217:1222  _name */\n      dup3\n        /* \"contracts/exoCours/exoNotation/exoNotation.sol\":1200:1223  abi.encodePacked(_name) */\n      add(0x20, mload(0x40))\n      tag_230\n      swap2\n      swap1\n      tag_231\n      jump\t// in\n    tag_230:\n      mload(0x40)\n      0x20\n      dup2\n      dup4\n      sub\n      sub\n      dup2\n      mstore\n      swap1\n      0x40\n      mstore\n        /* \"contracts/exoCours/exoNotation/exoNotation.sol\":1190:1224  keccak256(abi.encodePacked(_name)) */\n      dup1\n      mload\n      swap1\n      0x20\n      add\n      keccak256\n        /* \"contracts/exoCours/exoNotation/exoNotation.sol\":1152:1160  students */\n      0x02\n        /* \"contracts/exoCours/exoNotation/exoNotation.sol\":1161:1162  i */\n      dup3\n        /* \"contracts/exoCours/exoNotation/exoNotation.sol\":1152:1163  students[i] */\n      dup2\n      sload\n      dup2\n      lt\n      tag_232\n      jumpi\n      tag_233\n      tag_85\n      jump\t// in\n    tag_233:\n    tag_232:\n      swap1\n      0x00\n      mstore\n      keccak256(0x00, 0x20)\n      swap1\n      0x04\n      mul\n      add\n        /* \"contracts/exoCours/exoNotation/exoNotation.sol\":1152:1168  students[i].name */\n      0x00\n      add\n        /* \"contracts/exoCours/exoNotation/exoNotation.sol\":1135:1169  abi.encodePacked(students[i].name) */\n      add(0x20, mload(0x40))\n      tag_235\n      swap2\n      swap1\n      tag_236\n      jump\t// in\n    tag_235:\n      mload(0x40)\n      0x20\n      dup2\n      dup4\n      sub\n      sub\n      dup2\n      mstore\n      swap1\n      0x40\n      mstore\n        /* \"contracts/exoCours/exoNotation/exoNotation.sol\":1125:1170  keccak256(abi.encodePacked(students[i].name)) */\n      dup1\n      mload\n      swap1\n      0x20\n      add\n      keccak256\n        /* \"contracts/exoCours/exoNotation/exoNotation.sol\":1125:1224  keccak256(abi.encodePacked(students[i].name)) ==... */\n      sub\n        /* \"contracts/exoCours/exoNotation/exoNotation.sol\":1104:1280  if (... */\n      tag_237\n      jumpi\n        /* \"contracts/exoCours/exoNotation/exoNotation.sol\":1264:1265  i */\n      dup1\n        /* \"contracts/exoCours/exoNotation/exoNotation.sol\":1257:1265  return i */\n      swap2\n      pop\n      pop\n      jump(tag_226)\n        /* \"contracts/exoCours/exoNotation/exoNotation.sol\":1104:1280  if (... */\n    tag_237:\n        /* \"contracts/exoCours/exoNotation/exoNotation.sol\":1085:1088  i++ */\n      dup1\n      dup1\n      tag_238\n      swap1\n      tag_188\n      jump\t// in\n    tag_238:\n      swap2\n      pop\n      pop\n        /* \"contracts/exoCours/exoNotation/exoNotation.sol\":1044:1290  for (uint256 i = 0; i < students.length; i++) {... */\n      jump(tag_227)\n    tag_228:\n      pop\n        /* \"contracts/exoCours/exoNotation/exoNotation.sol\":1299:1336  revert(\"The student does not exist.\") */\n      mload(0x40)\n      0x08c379a000000000000000000000000000000000000000000000000000000000\n      dup2\n      mstore\n      0x04\n      add\n      tag_239\n      swap1\n      tag_240\n      jump\t// in\n    tag_239:\n      mload(0x40)\n      dup1\n      swap2\n      sub\n      swap1\n      revert\n        /* \"contracts/exoCours/exoNotation/exoNotation.sol\":926:1343  function getStudentFromName(string memory _name)... */\n    tag_226:\n      swap2\n      swap1\n      pop\n      jump\t// out\n        /* \"@openzeppelin/contracts/access/Ownable.sol\":2433:2620  function _transferOwnership(address newOwner) internal virtual {... */\n    tag_142:\n        /* \"@openzeppelin/contracts/access/Ownable.sol\":2506:2522  address oldOwner */\n      0x00\n        /* \"@openzeppelin/contracts/access/Ownable.sol\":2525:2531  _owner */\n      dup1\n      0x00\n      swap1\n      sload\n      swap1\n      0x0100\n      exp\n      swap1\n      div\n      0xffffffffffffffffffffffffffffffffffffffff\n      and\n        /* \"@openzeppelin/contracts/access/Ownable.sol\":2506:2531  address oldOwner = _owner */\n      swap1\n      pop\n        /* \"@openzeppelin/contracts/access/Ownable.sol\":2550:2558  newOwner */\n      dup2\n        /* \"@openzeppelin/contracts/access/Ownable.sol\":2541:2547  _owner */\n      0x00\n      dup1\n        /* \"@openzeppelin/contracts/access/Ownable.sol\":2541:2558  _owner = newOwner */\n      0x0100\n      exp\n      dup2\n      sload\n      dup2\n      0xffffffffffffffffffffffffffffffffffffffff\n      mul\n      not\n      and\n      swap1\n      dup4\n      0xffffffffffffffffffffffffffffffffffffffff\n      and\n      mul\n      or\n      swap1\n      sstore\n      pop\n        /* \"@openzeppelin/contracts/access/Ownable.sol\":2604:2612  newOwner */\n      dup2\n        /* \"@openzeppelin/contracts/access/Ownable.sol\":2573:2613  OwnershipTransferred(oldOwner, newOwner) */\n      0xffffffffffffffffffffffffffffffffffffffff\n      and\n        /* \"@openzeppelin/contracts/access/Ownable.sol\":2594:2602  oldOwner */\n      dup2\n        /* \"@openzeppelin/contracts/access/Ownable.sol\":2573:2613  OwnershipTransferred(oldOwner, newOwner) */\n      0xffffffffffffffffffffffffffffffffffffffff\n      and\n      0x8be0079c531659141344cd1fd0a4f28419497f9722a3daafe3b4186f6b6457e0\n      mload(0x40)\n      mload(0x40)\n      dup1\n      swap2\n      sub\n      swap1\n      log3\n        /* \"@openzeppelin/contracts/access/Ownable.sol\":2496:2620  {... */\n      pop\n        /* \"@openzeppelin/contracts/access/Ownable.sol\":2433:2620  function _transferOwnership(address newOwner) internal virtual {... */\n      pop\n      jump\t// out\n        /* \"@openzeppelin/contracts/utils/Context.sol\":640:736  function _msgSender() internal view virtual returns (address) {... */\n    tag_221:\n        /* \"@openzeppelin/contracts/utils/Context.sol\":693:700  address */\n      0x00\n        /* \"@openzeppelin/contracts/utils/Context.sol\":719:729  msg.sender */\n      caller\n        /* \"@openzeppelin/contracts/utils/Context.sol\":712:729  return msg.sender */\n      swap1\n      pop\n        /* \"@openzeppelin/contracts/utils/Context.sol\":640:736  function _msgSender() internal view virtual returns (address) {... */\n      swap1\n      jump\t// out\n    tag_65:\n      dup3\n      dup1\n      sload\n      tag_243\n      swap1\n      tag_244\n      jump\t// in\n    tag_243:\n      swap1\n      0x00\n      mstore\n      keccak256(0x00, 0x20)\n      swap1\n      0x1f\n      add\n      0x20\n      swap1\n      div\n      dup2\n      add\n      swap3\n      dup3\n      tag_246\n      jumpi\n      0x00\n      dup6\n      sstore\n      jump(tag_245)\n    tag_246:\n      dup3\n      0x1f\n      lt\n      tag_247\n      jumpi\n      dup1\n      mload\n      not(0xff)\n      and\n      dup4\n      dup1\n      add\n      or\n      dup6\n      sstore\n      jump(tag_245)\n    tag_247:\n      dup3\n      dup1\n      add\n      0x01\n      add\n      dup6\n      sstore\n      dup3\n      iszero\n      tag_245\n      jumpi\n      swap2\n      dup3\n      add\n    tag_248:\n      dup3\n      dup2\n      gt\n      iszero\n      tag_249\n      jumpi\n      dup3\n      mload\n      dup3\n      sstore\n      swap2\n      0x20\n      add\n      swap2\n      swap1\n      0x01\n      add\n      swap1\n      jump(tag_248)\n    tag_249:\n    tag_245:\n      pop\n      swap1\n      pop\n      tag_250\n      swap2\n      swap1\n      tag_251\n      jump\t// in\n    tag_250:\n      pop\n      swap1\n      jump\t// out\n    tag_251:\n    tag_252:\n      dup1\n      dup3\n      gt\n      iszero\n      tag_253\n      jumpi\n      0x00\n      dup2\n      0x00\n      swap1\n      sstore\n      pop\n      0x01\n      add\n      jump(tag_252)\n    tag_253:\n      pop\n      swap1\n      jump\t// out\n        /* \"#utility.yul\":7:82   */\n    tag_254:\n        /* \"#utility.yul\":40:46   */\n      0x00\n        /* \"#utility.yul\":73:75   */\n      0x40\n        /* \"#utility.yul\":67:76   */\n      mload\n        /* \"#utility.yul\":57:76   */\n      swap1\n      pop\n        /* \"#utility.yul\":7:82   */\n      swap1\n      jump\t// out\n        /* \"#utility.yul\":88:205   */\n    tag_255:\n        /* \"#utility.yul\":197:198   */\n      0x00\n        /* \"#utility.yul\":194:195   */\n      dup1\n        /* \"#utility.yul\":187:199   */\n      revert\n        /* \"#utility.yul\":211:328   */\n    tag_256:\n        /* \"#utility.yul\":320:321   */\n      0x00\n        /* \"#utility.yul\":317:318   */\n      dup1\n        /* \"#utility.yul\":310:322   */\n      revert\n        /* \"#utility.yul\":334:451   */\n    tag_257:\n        /* \"#utility.yul\":443:444   */\n      0x00\n        /* \"#utility.yul\":440:441   */\n      dup1\n        /* \"#utility.yul\":433:445   */\n      revert\n        /* \"#utility.yul\":457:574   */\n    tag_258:\n        /* \"#utility.yul\":566:567   */\n      0x00\n        /* \"#utility.yul\":563:564   */\n      dup1\n        /* \"#utility.yul\":556:568   */\n      revert\n        /* \"#utility.yul\":580:682   */\n    tag_259:\n        /* \"#utility.yul\":621:627   */\n      0x00\n        /* \"#utility.yul\":672:674   */\n      0x1f\n        /* \"#utility.yul\":668:675   */\n      not\n        /* \"#utility.yul\":663:665   */\n      0x1f\n        /* \"#utility.yul\":656:661   */\n      dup4\n        /* \"#utility.yul\":652:666   */\n      add\n        /* \"#utility.yul\":648:676   */\n      and\n        /* \"#utility.yul\":638:676   */\n      swap1\n      pop\n        /* \"#utility.yul\":580:682   */\n      swap2\n      swap1\n      pop\n      jump\t// out\n        /* \"#utility.yul\":688:868   */\n    tag_260:\n        /* \"#utility.yul\":736:813   */\n      0x4e487b7100000000000000000000000000000000000000000000000000000000\n        /* \"#utility.yul\":733:734   */\n      0x00\n        /* \"#utility.yul\":726:814   */\n      mstore\n        /* \"#utility.yul\":833:837   */\n      0x41\n        /* \"#utility.yul\":830:831   */\n      0x04\n        /* \"#utility.yul\":823:838   */\n      mstore\n        /* \"#utility.yul\":857:861   */\n      0x24\n        /* \"#utility.yul\":854:855   */\n      0x00\n        /* \"#utility.yul\":847:862   */\n      revert\n        /* \"#utility.yul\":874:1155   */\n    tag_261:\n        /* \"#utility.yul\":957:984   */\n      tag_319\n        /* \"#utility.yul\":979:983   */\n      dup3\n        /* \"#utility.yul\":957:984   */\n      tag_259\n      jump\t// in\n    tag_319:\n        /* \"#utility.yul\":949:955   */\n      dup2\n        /* \"#utility.yul\":945:985   */\n      add\n        /* \"#utility.yul\":1087:1093   */\n      dup2\n        /* \"#utility.yul\":1075:1085   */\n      dup2\n        /* \"#utility.yul\":1072:1094   */\n      lt\n        /* \"#utility.yul\":1051:1069   */\n      0xffffffffffffffff\n        /* \"#utility.yul\":1039:1049   */\n      dup3\n        /* \"#utility.yul\":1036:1070   */\n      gt\n        /* \"#utility.yul\":1033:1095   */\n      or\n        /* \"#utility.yul\":1030:1118   */\n      iszero\n      tag_320\n      jumpi\n        /* \"#utility.yul\":1098:1116   */\n      tag_321\n      tag_260\n      jump\t// in\n    tag_321:\n        /* \"#utility.yul\":1030:1118   */\n    tag_320:\n        /* \"#utility.yul\":1138:1148   */\n      dup1\n        /* \"#utility.yul\":1134:1136   */\n      0x40\n        /* \"#utility.yul\":1127:1149   */\n      mstore\n        /* \"#utility.yul\":917:1155   */\n      pop\n        /* \"#utility.yul\":874:1155   */\n      pop\n      pop\n      jump\t// out\n        /* \"#utility.yul\":1161:1290   */\n    tag_262:\n        /* \"#utility.yul\":1195:1201   */\n      0x00\n        /* \"#utility.yul\":1222:1242   */\n      tag_323\n      tag_254\n      jump\t// in\n    tag_323:\n        /* \"#utility.yul\":1212:1242   */\n      swap1\n      pop\n        /* \"#utility.yul\":1251:1284   */\n      tag_324\n        /* \"#utility.yul\":1279:1283   */\n      dup3\n        /* \"#utility.yul\":1271:1277   */\n      dup3\n        /* \"#utility.yul\":1251:1284   */\n      tag_261\n      jump\t// in\n    tag_324:\n        /* \"#utility.yul\":1161:1290   */\n      swap2\n      swap1\n      pop\n      jump\t// out\n        /* \"#utility.yul\":1296:1604   */\n    tag_263:\n        /* \"#utility.yul\":1358:1362   */\n      0x00\n        /* \"#utility.yul\":1448:1466   */\n      0xffffffffffffffff\n        /* \"#utility.yul\":1440:1446   */\n      dup3\n        /* \"#utility.yul\":1437:1467   */\n      gt\n        /* \"#utility.yul\":1434:1490   */\n      iszero\n      tag_326\n      jumpi\n        /* \"#utility.yul\":1470:1488   */\n      tag_327\n      tag_260\n      jump\t// in\n    tag_327:\n        /* \"#utility.yul\":1434:1490   */\n    tag_326:\n        /* \"#utility.yul\":1508:1537   */\n      tag_328\n        /* \"#utility.yul\":1530:1536   */\n      dup3\n        /* \"#utility.yul\":1508:1537   */\n      tag_259\n      jump\t// in\n    tag_328:\n        /* \"#utility.yul\":1500:1537   */\n      swap1\n      pop\n        /* \"#utility.yul\":1592:1596   */\n      0x20\n        /* \"#utility.yul\":1586:1590   */\n      dup2\n        /* \"#utility.yul\":1582:1597   */\n      add\n        /* \"#utility.yul\":1574:1597   */\n      swap1\n      pop\n        /* \"#utility.yul\":1296:1604   */\n      swap2\n      swap1\n      pop\n      jump\t// out\n        /* \"#utility.yul\":1610:1764   */\n    tag_264:\n        /* \"#utility.yul\":1694:1700   */\n      dup3\n        /* \"#utility.yul\":1689:1692   */\n      dup2\n        /* \"#utility.yul\":1684:1687   */\n      dup4\n        /* \"#utility.yul\":1671:1701   */\n      calldatacopy\n        /* \"#utility.yul\":1756:1757   */\n      0x00\n        /* \"#utility.yul\":1747:1753   */\n      dup4\n        /* \"#utility.yul\":1742:1745   */\n      dup4\n        /* \"#utility.yul\":1738:1754   */\n      add\n        /* \"#utility.yul\":1731:1758   */\n      mstore\n        /* \"#utility.yul\":1610:1764   */\n      pop\n      pop\n      pop\n      jump\t// out\n        /* \"#utility.yul\":1770:2182   */\n    tag_265:\n        /* \"#utility.yul\":1848:1853   */\n      0x00\n        /* \"#utility.yul\":1873:1939   */\n      tag_331\n        /* \"#utility.yul\":1889:1938   */\n      tag_332\n        /* \"#utility.yul\":1931:1937   */\n      dup5\n        /* \"#utility.yul\":1889:1938   */\n      tag_263\n      jump\t// in\n    tag_332:\n        /* \"#utility.yul\":1873:1939   */\n      tag_262\n      jump\t// in\n    tag_331:\n        /* \"#utility.yul\":1864:1939   */\n      swap1\n      pop\n        /* \"#utility.yul\":1962:1968   */\n      dup3\n        /* \"#utility.yul\":1955:1960   */\n      dup2\n        /* \"#utility.yul\":1948:1969   */\n      mstore\n        /* \"#utility.yul\":2000:2004   */\n      0x20\n        /* \"#utility.yul\":1993:1998   */\n      dup2\n        /* \"#utility.yul\":1989:2005   */\n      add\n        /* \"#utility.yul\":2038:2041   */\n      dup5\n        /* \"#utility.yul\":2029:2035   */\n      dup5\n        /* \"#utility.yul\":2024:2027   */\n      dup5\n        /* \"#utility.yul\":2020:2036   */\n      add\n        /* \"#utility.yul\":2017:2042   */\n      gt\n        /* \"#utility.yul\":2014:2126   */\n      iszero\n      tag_333\n      jumpi\n        /* \"#utility.yul\":2045:2124   */\n      tag_334\n      tag_258\n      jump\t// in\n    tag_334:\n        /* \"#utility.yul\":2014:2126   */\n    tag_333:\n        /* \"#utility.yul\":2135:2176   */\n      tag_335\n        /* \"#utility.yul\":2169:2175   */\n      dup5\n        /* \"#utility.yul\":2164:2167   */\n      dup3\n        /* \"#utility.yul\":2159:2162   */\n      dup6\n        /* \"#utility.yul\":2135:2176   */\n      tag_264\n      jump\t// in\n    tag_335:\n        /* \"#utility.yul\":1854:2182   */\n      pop\n        /* \"#utility.yul\":1770:2182   */\n      swap4\n      swap3\n      pop\n      pop\n      pop\n      jump\t// out\n        /* \"#utility.yul\":2202:2542   */\n    tag_266:\n        /* \"#utility.yul\":2258:2263   */\n      0x00\n        /* \"#utility.yul\":2307:2310   */\n      dup3\n        /* \"#utility.yul\":2300:2304   */\n      0x1f\n        /* \"#utility.yul\":2292:2298   */\n      dup4\n        /* \"#utility.yul\":2288:2305   */\n      add\n        /* \"#utility.yul\":2284:2311   */\n      slt\n        /* \"#utility.yul\":2274:2396   */\n      tag_337\n      jumpi\n        /* \"#utility.yul\":2315:2394   */\n      tag_338\n      tag_257\n      jump\t// in\n    tag_338:\n        /* \"#utility.yul\":2274:2396   */\n    tag_337:\n        /* \"#utility.yul\":2432:2438   */\n      dup2\n        /* \"#utility.yul\":2419:2439   */\n      calldataload\n        /* \"#utility.yul\":2457:2536   */\n      tag_339\n        /* \"#utility.yul\":2532:2535   */\n      dup5\n        /* \"#utility.yul\":2524:2530   */\n      dup3\n        /* \"#utility.yul\":2517:2521   */\n      0x20\n        /* \"#utility.yul\":2509:2515   */\n      dup7\n        /* \"#utility.yul\":2505:2522   */\n      add\n        /* \"#utility.yul\":2457:2536   */\n      tag_265\n      jump\t// in\n    tag_339:\n        /* \"#utility.yul\":2448:2536   */\n      swap2\n      pop\n        /* \"#utility.yul\":2264:2542   */\n      pop\n        /* \"#utility.yul\":2202:2542   */\n      swap3\n      swap2\n      pop\n      pop\n      jump\t// out\n        /* \"#utility.yul\":2548:3057   */\n    tag_16:\n        /* \"#utility.yul\":2617:2623   */\n      0x00\n        /* \"#utility.yul\":2666:2668   */\n      0x20\n        /* \"#utility.yul\":2654:2663   */\n      dup3\n        /* \"#utility.yul\":2645:2652   */\n      dup5\n        /* \"#utility.yul\":2641:2664   */\n      sub\n        /* \"#utility.yul\":2637:2669   */\n      slt\n        /* \"#utility.yul\":2634:2753   */\n      iszero\n      tag_341\n      jumpi\n        /* \"#utility.yul\":2672:2751   */\n      tag_342\n      tag_255\n      jump\t// in\n    tag_342:\n        /* \"#utility.yul\":2634:2753   */\n    tag_341:\n        /* \"#utility.yul\":2820:2821   */\n      0x00\n        /* \"#utility.yul\":2809:2818   */\n      dup3\n        /* \"#utility.yul\":2805:2822   */\n      add\n        /* \"#utility.yul\":2792:2823   */\n      calldataload\n        /* \"#utility.yul\":2850:2868   */\n      0xffffffffffffffff\n        /* \"#utility.yul\":2842:2848   */\n      dup2\n        /* \"#utility.yul\":2839:2869   */\n      gt\n        /* \"#utility.yul\":2836:2953   */\n      iszero\n      tag_343\n      jumpi\n        /* \"#utility.yul\":2872:2951   */\n      tag_344\n      tag_256\n      jump\t// in\n    tag_344:\n        /* \"#utility.yul\":2836:2953   */\n    tag_343:\n        /* \"#utility.yul\":2977:3040   */\n      tag_345\n        /* \"#utility.yul\":3032:3039   */\n      dup5\n        /* \"#utility.yul\":3023:3029   */\n      dup3\n        /* \"#utility.yul\":3012:3021   */\n      dup6\n        /* \"#utility.yul\":3008:3030   */\n      add\n        /* \"#utility.yul\":2977:3040   */\n      tag_266\n      jump\t// in\n    tag_345:\n        /* \"#utility.yul\":2967:3040   */\n      swap2\n      pop\n        /* \"#utility.yul\":2763:3050   */\n      pop\n        /* \"#utility.yul\":2548:3057   */\n      swap3\n      swap2\n      pop\n      pop\n      jump\t// out\n        /* \"#utility.yul\":3063:3153   */\n    tag_267:\n        /* \"#utility.yul\":3097:3104   */\n      0x00\n        /* \"#utility.yul\":3140:3145   */\n      dup2\n        /* \"#utility.yul\":3133:3146   */\n      iszero\n        /* \"#utility.yul\":3126:3147   */\n      iszero\n        /* \"#utility.yul\":3115:3147   */\n      swap1\n      pop\n        /* \"#utility.yul\":3063:3153   */\n      swap2\n      swap1\n      pop\n      jump\t// out\n        /* \"#utility.yul\":3159:3268   */\n    tag_268:\n        /* \"#utility.yul\":3240:3261   */\n      tag_348\n        /* \"#utility.yul\":3255:3260   */\n      dup2\n        /* \"#utility.yul\":3240:3261   */\n      tag_267\n      jump\t// in\n    tag_348:\n        /* \"#utility.yul\":3235:3238   */\n      dup3\n        /* \"#utility.yul\":3228:3262   */\n      mstore\n        /* \"#utility.yul\":3159:3268   */\n      pop\n      pop\n      jump\t// out\n        /* \"#utility.yul\":3274:3484   */\n    tag_19:\n        /* \"#utility.yul\":3361:3365   */\n      0x00\n        /* \"#utility.yul\":3399:3401   */\n      0x20\n        /* \"#utility.yul\":3388:3397   */\n      dup3\n        /* \"#utility.yul\":3384:3402   */\n      add\n        /* \"#utility.yul\":3376:3402   */\n      swap1\n      pop\n        /* \"#utility.yul\":3412:3477   */\n      tag_350\n        /* \"#utility.yul\":3474:3475   */\n      0x00\n        /* \"#utility.yul\":3463:3472   */\n      dup4\n        /* \"#utility.yul\":3459:3476   */\n      add\n        /* \"#utility.yul\":3450:3456   */\n      dup5\n        /* \"#utility.yul\":3412:3477   */\n      tag_268\n      jump\t// in\n    tag_350:\n        /* \"#utility.yul\":3274:3484   */\n      swap3\n      swap2\n      pop\n      pop\n      jump\t// out\n        /* \"#utility.yul\":3490:3607   */\n    tag_269:\n        /* \"#utility.yul\":3599:3600   */\n      0x00\n        /* \"#utility.yul\":3596:3597   */\n      dup1\n        /* \"#utility.yul\":3589:3601   */\n      revert\n        /* \"#utility.yul\":3613:3730   */\n    tag_270:\n        /* \"#utility.yul\":3722:3723   */\n      0x00\n        /* \"#utility.yul\":3719:3720   */\n      dup1\n        /* \"#utility.yul\":3712:3724   */\n      revert\n        /* \"#utility.yul\":3750:4303   */\n    tag_271:\n        /* \"#utility.yul\":3808:3816   */\n      0x00\n        /* \"#utility.yul\":3818:3824   */\n      dup1\n        /* \"#utility.yul\":3868:3871   */\n      dup4\n        /* \"#utility.yul\":3861:3865   */\n      0x1f\n        /* \"#utility.yul\":3853:3859   */\n      dup5\n        /* \"#utility.yul\":3849:3866   */\n      add\n        /* \"#utility.yul\":3845:3872   */\n      slt\n        /* \"#utility.yul\":3835:3957   */\n      tag_354\n      jumpi\n        /* \"#utility.yul\":3876:3955   */\n      tag_355\n      tag_257\n      jump\t// in\n    tag_355:\n        /* \"#utility.yul\":3835:3957   */\n    tag_354:\n        /* \"#utility.yul\":3989:3995   */\n      dup3\n        /* \"#utility.yul\":3976:3996   */\n      calldataload\n        /* \"#utility.yul\":3966:3996   */\n      swap1\n      pop\n        /* \"#utility.yul\":4019:4037   */\n      0xffffffffffffffff\n        /* \"#utility.yul\":4011:4017   */\n      dup2\n        /* \"#utility.yul\":4008:4038   */\n      gt\n        /* \"#utility.yul\":4005:4122   */\n      iszero\n      tag_356\n      jumpi\n        /* \"#utility.yul\":4041:4120   */\n      tag_357\n      tag_269\n      jump\t// in\n    tag_357:\n        /* \"#utility.yul\":4005:4122   */\n    tag_356:\n        /* \"#utility.yul\":4155:4159   */\n      0x20\n        /* \"#utility.yul\":4147:4153   */\n      dup4\n        /* \"#utility.yul\":4143:4160   */\n      add\n        /* \"#utility.yul\":4131:4160   */\n      swap2\n      pop\n        /* \"#utility.yul\":4209:4212   */\n      dup4\n        /* \"#utility.yul\":4201:4205   */\n      0x01\n        /* \"#utility.yul\":4193:4199   */\n      dup3\n        /* \"#utility.yul\":4189:4206   */\n      mul\n        /* \"#utility.yul\":4179:4187   */\n      dup4\n        /* \"#utility.yul\":4175:4207   */\n      add\n        /* \"#utility.yul\":4172:4213   */\n      gt\n        /* \"#utility.yul\":4169:4297   */\n      iszero\n      tag_358\n      jumpi\n        /* \"#utility.yul\":4216:4295   */\n      tag_359\n      tag_270\n      jump\t// in\n    tag_359:\n        /* \"#utility.yul\":4169:4297   */\n    tag_358:\n        /* \"#utility.yul\":3750:4303   */\n      swap3\n      pop\n      swap3\n      swap1\n      pop\n      jump\t// out\n        /* \"#utility.yul\":4309:4435   */\n    tag_272:\n        /* \"#utility.yul\":4346:4353   */\n      0x00\n        /* \"#utility.yul\":4386:4428   */\n      0xffffffffffffffffffffffffffffffffffffffff\n        /* \"#utility.yul\":4379:4384   */\n      dup3\n        /* \"#utility.yul\":4375:4429   */\n      and\n        /* \"#utility.yul\":4364:4429   */\n      swap1\n      pop\n        /* \"#utility.yul\":4309:4435   */\n      swap2\n      swap1\n      pop\n      jump\t// out\n        /* \"#utility.yul\":4441:4537   */\n    tag_273:\n        /* \"#utility.yul\":4478:4485   */\n      0x00\n        /* \"#utility.yul\":4507:4531   */\n      tag_362\n        /* \"#utility.yul\":4525:4530   */\n      dup3\n        /* \"#utility.yul\":4507:4531   */\n      tag_272\n      jump\t// in\n    tag_362:\n        /* \"#utility.yul\":4496:4531   */\n      swap1\n      pop\n        /* \"#utility.yul\":4441:4537   */\n      swap2\n      swap1\n      pop\n      jump\t// out\n        /* \"#utility.yul\":4543:4665   */\n    tag_274:\n        /* \"#utility.yul\":4616:4640   */\n      tag_364\n        /* \"#utility.yul\":4634:4639   */\n      dup2\n        /* \"#utility.yul\":4616:4640   */\n      tag_273\n      jump\t// in\n    tag_364:\n        /* \"#utility.yul\":4609:4614   */\n      dup2\n        /* \"#utility.yul\":4606:4641   */\n      eq\n        /* \"#utility.yul\":4596:4659   */\n      tag_365\n      jumpi\n        /* \"#utility.yul\":4655:4656   */\n      0x00\n        /* \"#utility.yul\":4652:4653   */\n      dup1\n        /* \"#utility.yul\":4645:4657   */\n      revert\n        /* \"#utility.yul\":4596:4659   */\n    tag_365:\n        /* \"#utility.yul\":4543:4665   */\n      pop\n      jump\t// out\n        /* \"#utility.yul\":4671:4810   */\n    tag_275:\n        /* \"#utility.yul\":4717:4722   */\n      0x00\n        /* \"#utility.yul\":4755:4761   */\n      dup2\n        /* \"#utility.yul\":4742:4762   */\n      calldataload\n        /* \"#utility.yul\":4733:4762   */\n      swap1\n      pop\n        /* \"#utility.yul\":4771:4804   */\n      tag_367\n        /* \"#utility.yul\":4798:4803   */\n      dup2\n        /* \"#utility.yul\":4771:4804   */\n      tag_274\n      jump\t// in\n    tag_367:\n        /* \"#utility.yul\":4671:4810   */\n      swap3\n      swap2\n      pop\n      pop\n      jump\t// out\n        /* \"#utility.yul\":4816:5490   */\n    tag_22:\n        /* \"#utility.yul\":4896:4902   */\n      0x00\n        /* \"#utility.yul\":4904:4910   */\n      dup1\n        /* \"#utility.yul\":4912:4918   */\n      0x00\n        /* \"#utility.yul\":4961:4963   */\n      0x40\n        /* \"#utility.yul\":4949:4958   */\n      dup5\n        /* \"#utility.yul\":4940:4947   */\n      dup7\n        /* \"#utility.yul\":4936:4959   */\n      sub\n        /* \"#utility.yul\":4932:4964   */\n      slt\n        /* \"#utility.yul\":4929:5048   */\n      iszero\n      tag_369\n      jumpi\n        /* \"#utility.yul\":4967:5046   */\n      tag_370\n      tag_255\n      jump\t// in\n    tag_370:\n        /* \"#utility.yul\":4929:5048   */\n    tag_369:\n        /* \"#utility.yul\":5115:5116   */\n      0x00\n        /* \"#utility.yul\":5104:5113   */\n      dup5\n        /* \"#utility.yul\":5100:5117   */\n      add\n        /* \"#utility.yul\":5087:5118   */\n      calldataload\n        /* \"#utility.yul\":5145:5163   */\n      0xffffffffffffffff\n        /* \"#utility.yul\":5137:5143   */\n      dup2\n        /* \"#utility.yul\":5134:5164   */\n      gt\n        /* \"#utility.yul\":5131:5248   */\n      iszero\n      tag_371\n      jumpi\n        /* \"#utility.yul\":5167:5246   */\n      tag_372\n      tag_256\n      jump\t// in\n    tag_372:\n        /* \"#utility.yul\":5131:5248   */\n    tag_371:\n        /* \"#utility.yul\":5280:5345   */\n      tag_373\n        /* \"#utility.yul\":5337:5344   */\n      dup7\n        /* \"#utility.yul\":5328:5334   */\n      dup3\n        /* \"#utility.yul\":5317:5326   */\n      dup8\n        /* \"#utility.yul\":5313:5335   */\n      add\n        /* \"#utility.yul\":5280:5345   */\n      tag_271\n      jump\t// in\n    tag_373:\n        /* \"#utility.yul\":5262:5345   */\n      swap4\n      pop\n      swap4\n      pop\n        /* \"#utility.yul\":5058:5355   */\n      pop\n        /* \"#utility.yul\":5394:5396   */\n      0x20\n        /* \"#utility.yul\":5420:5473   */\n      tag_374\n        /* \"#utility.yul\":5465:5472   */\n      dup7\n        /* \"#utility.yul\":5456:5462   */\n      dup3\n        /* \"#utility.yul\":5445:5454   */\n      dup8\n        /* \"#utility.yul\":5441:5463   */\n      add\n        /* \"#utility.yul\":5420:5473   */\n      tag_275\n      jump\t// in\n    tag_374:\n        /* \"#utility.yul\":5410:5473   */\n      swap2\n      pop\n        /* \"#utility.yul\":5365:5483   */\n      pop\n        /* \"#utility.yul\":4816:5490   */\n      swap3\n      pop\n      swap3\n      pop\n      swap3\n      jump\t// out\n        /* \"#utility.yul\":5496:5605   */\n    tag_276:\n        /* \"#utility.yul\":5579:5580   */\n      0x03\n        /* \"#utility.yul\":5572:5577   */\n      dup2\n        /* \"#utility.yul\":5569:5581   */\n      lt\n        /* \"#utility.yul\":5559:5599   */\n      tag_376\n      jumpi\n        /* \"#utility.yul\":5595:5596   */\n      0x00\n        /* \"#utility.yul\":5592:5593   */\n      dup1\n        /* \"#utility.yul\":5585:5597   */\n      revert\n        /* \"#utility.yul\":5559:5599   */\n    tag_376:\n        /* \"#utility.yul\":5496:5605   */\n      pop\n      jump\t// out\n        /* \"#utility.yul\":5611:5770   */\n    tag_277:\n        /* \"#utility.yul\":5667:5672   */\n      0x00\n        /* \"#utility.yul\":5705:5711   */\n      dup2\n        /* \"#utility.yul\":5692:5712   */\n      calldataload\n        /* \"#utility.yul\":5683:5712   */\n      swap1\n      pop\n        /* \"#utility.yul\":5721:5764   */\n      tag_378\n        /* \"#utility.yul\":5758:5763   */\n      dup2\n        /* \"#utility.yul\":5721:5764   */\n      tag_276\n      jump\t// in\n    tag_378:\n        /* \"#utility.yul\":5611:5770   */\n      swap3\n      swap2\n      pop\n      pop\n      jump\t// out\n        /* \"#utility.yul\":5776:6270   */\n    tag_26:\n        /* \"#utility.yul\":5854:5860   */\n      0x00\n        /* \"#utility.yul\":5862:5868   */\n      dup1\n        /* \"#utility.yul\":5911:5913   */\n      0x40\n        /* \"#utility.yul\":5899:5908   */\n      dup4\n        /* \"#utility.yul\":5890:5897   */\n      dup6\n        /* \"#utility.yul\":5886:5909   */\n      sub\n        /* \"#utility.yul\":5882:5914   */\n      slt\n        /* \"#utility.yul\":5879:5998   */\n      iszero\n      tag_380\n      jumpi\n        /* \"#utility.yul\":5917:5996   */\n      tag_381\n      tag_255\n      jump\t// in\n    tag_381:\n        /* \"#utility.yul\":5879:5998   */\n    tag_380:\n        /* \"#utility.yul\":6037:6038   */\n      0x00\n        /* \"#utility.yul\":6062:6125   */\n      tag_382\n        /* \"#utility.yul\":6117:6124   */\n      dup6\n        /* \"#utility.yul\":6108:6114   */\n      dup3\n        /* \"#utility.yul\":6097:6106   */\n      dup7\n        /* \"#utility.yul\":6093:6115   */\n      add\n        /* \"#utility.yul\":6062:6125   */\n      tag_277\n      jump\t// in\n    tag_382:\n        /* \"#utility.yul\":6052:6125   */\n      swap3\n      pop\n        /* \"#utility.yul\":6008:6135   */\n      pop\n        /* \"#utility.yul\":6174:6176   */\n      0x20\n        /* \"#utility.yul\":6200:6253   */\n      tag_383\n        /* \"#utility.yul\":6245:6252   */\n      dup6\n        /* \"#utility.yul\":6236:6242   */\n      dup3\n        /* \"#utility.yul\":6225:6234   */\n      dup7\n        /* \"#utility.yul\":6221:6243   */\n      add\n        /* \"#utility.yul\":6200:6253   */\n      tag_275\n      jump\t// in\n    tag_383:\n        /* \"#utility.yul\":6190:6253   */\n      swap2\n      pop\n        /* \"#utility.yul\":6145:6263   */\n      pop\n        /* \"#utility.yul\":5776:6270   */\n      swap3\n      pop\n      swap3\n      swap1\n      pop\n      jump\t// out\n        /* \"#utility.yul\":6276:6353   */\n    tag_278:\n        /* \"#utility.yul\":6313:6320   */\n      0x00\n        /* \"#utility.yul\":6342:6347   */\n      dup2\n        /* \"#utility.yul\":6331:6347   */\n      swap1\n      pop\n        /* \"#utility.yul\":6276:6353   */\n      swap2\n      swap1\n      pop\n      jump\t// out\n        /* \"#utility.yul\":6359:6477   */\n    tag_279:\n        /* \"#utility.yul\":6446:6470   */\n      tag_386\n        /* \"#utility.yul\":6464:6469   */\n      dup2\n        /* \"#utility.yul\":6446:6470   */\n      tag_278\n      jump\t// in\n    tag_386:\n        /* \"#utility.yul\":6441:6444   */\n      dup3\n        /* \"#utility.yul\":6434:6471   */\n      mstore\n        /* \"#utility.yul\":6359:6477   */\n      pop\n      pop\n      jump\t// out\n        /* \"#utility.yul\":6483:6705   */\n    tag_32:\n        /* \"#utility.yul\":6576:6580   */\n      0x00\n        /* \"#utility.yul\":6614:6616   */\n      0x20\n        /* \"#utility.yul\":6603:6612   */\n      dup3\n        /* \"#utility.yul\":6599:6617   */\n      add\n        /* \"#utility.yul\":6591:6617   */\n      swap1\n      pop\n        /* \"#utility.yul\":6627:6698   */\n      tag_388\n        /* \"#utility.yul\":6695:6696   */\n      0x00\n        /* \"#utility.yul\":6684:6693   */\n      dup4\n        /* \"#utility.yul\":6680:6697   */\n      add\n        /* \"#utility.yul\":6671:6677   */\n      dup5\n        /* \"#utility.yul\":6627:6698   */\n      tag_279\n      jump\t// in\n    tag_388:\n        /* \"#utility.yul\":6483:6705   */\n      swap3\n      swap2\n      pop\n      pop\n      jump\t// out\n        /* \"#utility.yul\":6711:6833   */\n    tag_280:\n        /* \"#utility.yul\":6784:6808   */\n      tag_390\n        /* \"#utility.yul\":6802:6807   */\n      dup2\n        /* \"#utility.yul\":6784:6808   */\n      tag_278\n      jump\t// in\n    tag_390:\n        /* \"#utility.yul\":6777:6782   */\n      dup2\n        /* \"#utility.yul\":6774:6809   */\n      eq\n        /* \"#utility.yul\":6764:6827   */\n      tag_391\n      jumpi\n        /* \"#utility.yul\":6823:6824   */\n      0x00\n        /* \"#utility.yul\":6820:6821   */\n      dup1\n        /* \"#utility.yul\":6813:6825   */\n      revert\n        /* \"#utility.yul\":6764:6827   */\n    tag_391:\n        /* \"#utility.yul\":6711:6833   */\n      pop\n      jump\t// out\n        /* \"#utility.yul\":6839:6978   */\n    tag_281:\n        /* \"#utility.yul\":6885:6890   */\n      0x00\n        /* \"#utility.yul\":6923:6929   */\n      dup2\n        /* \"#utility.yul\":6910:6930   */\n      calldataload\n        /* \"#utility.yul\":6901:6930   */\n      swap1\n      pop\n        /* \"#utility.yul\":6939:6972   */\n      tag_393\n        /* \"#utility.yul\":6966:6971   */\n      dup2\n        /* \"#utility.yul\":6939:6972   */\n      tag_280\n      jump\t// in\n    tag_393:\n        /* \"#utility.yul\":6839:6978   */\n      swap3\n      swap2\n      pop\n      pop\n      jump\t// out\n        /* \"#utility.yul\":6984:7823   */\n    tag_35:\n        /* \"#utility.yul\":7083:7089   */\n      0x00\n        /* \"#utility.yul\":7091:7097   */\n      dup1\n        /* \"#utility.yul\":7099:7105   */\n      0x00\n        /* \"#utility.yul\":7107:7113   */\n      dup1\n        /* \"#utility.yul\":7156:7158   */\n      0x60\n        /* \"#utility.yul\":7144:7153   */\n      dup6\n        /* \"#utility.yul\":7135:7142   */\n      dup8\n        /* \"#utility.yul\":7131:7154   */\n      sub\n        /* \"#utility.yul\":7127:7159   */\n      slt\n        /* \"#utility.yul\":7124:7243   */\n      iszero\n      tag_395\n      jumpi\n        /* \"#utility.yul\":7162:7241   */\n      tag_396\n      tag_255\n      jump\t// in\n    tag_396:\n        /* \"#utility.yul\":7124:7243   */\n    tag_395:\n        /* \"#utility.yul\":7282:7283   */\n      0x00\n        /* \"#utility.yul\":7307:7370   */\n      tag_397\n        /* \"#utility.yul\":7362:7369   */\n      dup8\n        /* \"#utility.yul\":7353:7359   */\n      dup3\n        /* \"#utility.yul\":7342:7351   */\n      dup9\n        /* \"#utility.yul\":7338:7360   */\n      add\n        /* \"#utility.yul\":7307:7370   */\n      tag_277\n      jump\t// in\n    tag_397:\n        /* \"#utility.yul\":7297:7370   */\n      swap5\n      pop\n        /* \"#utility.yul\":7253:7380   */\n      pop\n        /* \"#utility.yul\":7447:7449   */\n      0x20\n        /* \"#utility.yul\":7436:7445   */\n      dup6\n        /* \"#utility.yul\":7432:7450   */\n      add\n        /* \"#utility.yul\":7419:7451   */\n      calldataload\n        /* \"#utility.yul\":7478:7496   */\n      0xffffffffffffffff\n        /* \"#utility.yul\":7470:7476   */\n      dup2\n        /* \"#utility.yul\":7467:7497   */\n      gt\n        /* \"#utility.yul\":7464:7581   */\n      iszero\n      tag_398\n      jumpi\n        /* \"#utility.yul\":7500:7579   */\n      tag_399\n      tag_256\n      jump\t// in\n    tag_399:\n        /* \"#utility.yul\":7464:7581   */\n    tag_398:\n        /* \"#utility.yul\":7613:7678   */\n      tag_400\n        /* \"#utility.yul\":7670:7677   */\n      dup8\n        /* \"#utility.yul\":7661:7667   */\n      dup3\n        /* \"#utility.yul\":7650:7659   */\n      dup9\n        /* \"#utility.yul\":7646:7668   */\n      add\n        /* \"#utility.yul\":7613:7678   */\n      tag_271\n      jump\t// in\n    tag_400:\n        /* \"#utility.yul\":7595:7678   */\n      swap4\n      pop\n      swap4\n      pop\n        /* \"#utility.yul\":7390:7688   */\n      pop\n        /* \"#utility.yul\":7727:7729   */\n      0x40\n        /* \"#utility.yul\":7753:7806   */\n      tag_401\n        /* \"#utility.yul\":7798:7805   */\n      dup8\n        /* \"#utility.yul\":7789:7795   */\n      dup3\n        /* \"#utility.yul\":7778:7787   */\n      dup9\n        /* \"#utility.yul\":7774:7796   */\n      add\n        /* \"#utility.yul\":7753:7806   */\n      tag_281\n      jump\t// in\n    tag_401:\n        /* \"#utility.yul\":7743:7806   */\n      swap2\n      pop\n        /* \"#utility.yul\":7698:7816   */\n      pop\n        /* \"#utility.yul\":6984:7823   */\n      swap3\n      swap6\n      swap2\n      swap5\n      pop\n      swap3\n      pop\n      jump\t// out\n        /* \"#utility.yul\":7829:7947   */\n    tag_282:\n        /* \"#utility.yul\":7916:7940   */\n      tag_403\n        /* \"#utility.yul\":7934:7939   */\n      dup2\n        /* \"#utility.yul\":7916:7940   */\n      tag_273\n      jump\t// in\n    tag_403:\n        /* \"#utility.yul\":7911:7914   */\n      dup3\n        /* \"#utility.yul\":7904:7941   */\n      mstore\n        /* \"#utility.yul\":7829:7947   */\n      pop\n      pop\n      jump\t// out\n        /* \"#utility.yul\":7953:8175   */\n    tag_42:\n        /* \"#utility.yul\":8046:8050   */\n      0x00\n        /* \"#utility.yul\":8084:8086   */\n      0x20\n        /* \"#utility.yul\":8073:8082   */\n      dup3\n        /* \"#utility.yul\":8069:8087   */\n      add\n        /* \"#utility.yul\":8061:8087   */\n      swap1\n      pop\n        /* \"#utility.yul\":8097:8168   */\n      tag_405\n        /* \"#utility.yul\":8165:8166   */\n      0x00\n        /* \"#utility.yul\":8154:8163   */\n      dup4\n        /* \"#utility.yul\":8150:8167   */\n      add\n        /* \"#utility.yul\":8141:8147   */\n      dup5\n        /* \"#utility.yul\":8097:8168   */\n      tag_282\n      jump\t// in\n    tag_405:\n        /* \"#utility.yul\":7953:8175   */\n      swap3\n      swap2\n      pop\n      pop\n      jump\t// out\n        /* \"#utility.yul\":8181:8530   */\n    tag_45:\n        /* \"#utility.yul\":8250:8256   */\n      0x00\n        /* \"#utility.yul\":8299:8301   */\n      0x20\n        /* \"#utility.yul\":8287:8296   */\n      dup3\n        /* \"#utility.yul\":8278:8285   */\n      dup5\n        /* \"#utility.yul\":8274:8297   */\n      sub\n        /* \"#utility.yul\":8270:8302   */\n      slt\n        /* \"#utility.yul\":8267:8386   */\n      iszero\n      tag_407\n      jumpi\n        /* \"#utility.yul\":8305:8384   */\n      tag_408\n      tag_255\n      jump\t// in\n    tag_408:\n        /* \"#utility.yul\":8267:8386   */\n    tag_407:\n        /* \"#utility.yul\":8425:8426   */\n      0x00\n        /* \"#utility.yul\":8450:8513   */\n      tag_409\n        /* \"#utility.yul\":8505:8512   */\n      dup5\n        /* \"#utility.yul\":8496:8502   */\n      dup3\n        /* \"#utility.yul\":8485:8494   */\n      dup6\n        /* \"#utility.yul\":8481:8503   */\n      add\n        /* \"#utility.yul\":8450:8513   */\n      tag_277\n      jump\t// in\n    tag_409:\n        /* \"#utility.yul\":8440:8513   */\n      swap2\n      pop\n        /* \"#utility.yul\":8396:8523   */\n      pop\n        /* \"#utility.yul\":8181:8530   */\n      swap3\n      swap2\n      pop\n      pop\n      jump\t// out\n        /* \"#utility.yul\":8536:8865   */\n    tag_50:\n        /* \"#utility.yul\":8595:8601   */\n      0x00\n        /* \"#utility.yul\":8644:8646   */\n      0x20\n        /* \"#utility.yul\":8632:8641   */\n      dup3\n        /* \"#utility.yul\":8623:8630   */\n      dup5\n        /* \"#utility.yul\":8619:8642   */\n      sub\n        /* \"#utility.yul\":8615:8647   */\n      slt\n        /* \"#utility.yul\":8612:8731   */\n      iszero\n      tag_411\n      jumpi\n        /* \"#utility.yul\":8650:8729   */\n      tag_412\n      tag_255\n      jump\t// in\n    tag_412:\n        /* \"#utility.yul\":8612:8731   */\n    tag_411:\n        /* \"#utility.yul\":8770:8771   */\n      0x00\n        /* \"#utility.yul\":8795:8848   */\n      tag_413\n        /* \"#utility.yul\":8840:8847   */\n      dup5\n        /* \"#utility.yul\":8831:8837   */\n      dup3\n        /* \"#utility.yul\":8820:8829   */\n      dup6\n        /* \"#utility.yul\":8816:8838   */\n      add\n        /* \"#utility.yul\":8795:8848   */\n      tag_275\n      jump\t// in\n    tag_413:\n        /* \"#utility.yul\":8785:8848   */\n      swap2\n      pop\n        /* \"#utility.yul\":8741:8858   */\n      pop\n        /* \"#utility.yul\":8536:8865   */\n      swap3\n      swap2\n      pop\n      pop\n      jump\t// out\n        /* \"#utility.yul\":8871:9040   */\n    tag_283:\n        /* \"#utility.yul\":8955:8966   */\n      0x00\n        /* \"#utility.yul\":8989:8995   */\n      dup3\n        /* \"#utility.yul\":8984:8987   */\n      dup3\n        /* \"#utility.yul\":8977:8996   */\n      mstore\n        /* \"#utility.yul\":9029:9033   */\n      0x20\n        /* \"#utility.yul\":9024:9027   */\n      dup3\n        /* \"#utility.yul\":9020:9034   */\n      add\n        /* \"#utility.yul\":9005:9034   */\n      swap1\n      pop\n        /* \"#utility.yul\":8871:9040   */\n      swap3\n      swap2\n      pop\n      pop\n      jump\t// out\n        /* \"#utility.yul\":9070:9374   */\n    tag_284:\n        /* \"#utility.yul\":9168:9171   */\n      0x00\n        /* \"#utility.yul\":9189:9260   */\n      tag_416\n        /* \"#utility.yul\":9253:9259   */\n      dup4\n        /* \"#utility.yul\":9248:9251   */\n      dup6\n        /* \"#utility.yul\":9189:9260   */\n      tag_283\n      jump\t// in\n    tag_416:\n        /* \"#utility.yul\":9182:9260   */\n      swap4\n      pop\n        /* \"#utility.yul\":9270:9313   */\n      tag_417\n        /* \"#utility.yul\":9306:9312   */\n      dup4\n        /* \"#utility.yul\":9301:9304   */\n      dup6\n        /* \"#utility.yul\":9294:9299   */\n      dup5\n        /* \"#utility.yul\":9270:9313   */\n      tag_264\n      jump\t// in\n    tag_417:\n        /* \"#utility.yul\":9338:9367   */\n      tag_418\n        /* \"#utility.yul\":9360:9366   */\n      dup4\n        /* \"#utility.yul\":9338:9367   */\n      tag_259\n      jump\t// in\n    tag_418:\n        /* \"#utility.yul\":9333:9336   */\n      dup5\n        /* \"#utility.yul\":9329:9368   */\n      add\n        /* \"#utility.yul\":9322:9368   */\n      swap1\n      pop\n        /* \"#utility.yul\":9070:9374   */\n      swap4\n      swap3\n      pop\n      pop\n      pop\n      jump\t// out\n        /* \"#utility.yul\":9380:9823   */\n    tag_67:\n        /* \"#utility.yul\":9531:9535   */\n      0x00\n        /* \"#utility.yul\":9569:9571   */\n      0x40\n        /* \"#utility.yul\":9558:9567   */\n      dup3\n        /* \"#utility.yul\":9554:9572   */\n      add\n        /* \"#utility.yul\":9546:9572   */\n      swap1\n      pop\n        /* \"#utility.yul\":9618:9627   */\n      dup2\n        /* \"#utility.yul\":9612:9616   */\n      dup2\n        /* \"#utility.yul\":9608:9628   */\n      sub\n        /* \"#utility.yul\":9604:9605   */\n      0x00\n        /* \"#utility.yul\":9593:9602   */\n      dup4\n        /* \"#utility.yul\":9589:9606   */\n      add\n        /* \"#utility.yul\":9582:9629   */\n      mstore\n        /* \"#utility.yul\":9646:9734   */\n      tag_420\n        /* \"#utility.yul\":9729:9733   */\n      dup2\n        /* \"#utility.yul\":9720:9726   */\n      dup6\n        /* \"#utility.yul\":9712:9718   */\n      dup8\n        /* \"#utility.yul\":9646:9734   */\n      tag_284\n      jump\t// in\n    tag_420:\n        /* \"#utility.yul\":9638:9734   */\n      swap1\n      pop\n        /* \"#utility.yul\":9744:9816   */\n      tag_421\n        /* \"#utility.yul\":9812:9814   */\n      0x20\n        /* \"#utility.yul\":9801:9810   */\n      dup4\n        /* \"#utility.yul\":9797:9815   */\n      add\n        /* \"#utility.yul\":9788:9794   */\n      dup5\n        /* \"#utility.yul\":9744:9816   */\n      tag_282\n      jump\t// in\n    tag_421:\n        /* \"#utility.yul\":9380:9823   */\n      swap5\n      swap4\n      pop\n      pop\n      pop\n      pop\n      jump\t// out\n        /* \"#utility.yul\":9829:10009   */\n    tag_73:\n        /* \"#utility.yul\":9877:9954   */\n      0x4e487b7100000000000000000000000000000000000000000000000000000000\n        /* \"#utility.yul\":9874:9875   */\n      0x00\n        /* \"#utility.yul\":9867:9955   */\n      mstore\n        /* \"#utility.yul\":9974:9978   */\n      0x21\n        /* \"#utility.yul\":9971:9972   */\n      0x04\n        /* \"#utility.yul\":9964:9979   */\n      mstore\n        /* \"#utility.yul\":9998:10002   */\n      0x24\n        /* \"#utility.yul\":9995:9996   */\n      0x00\n        /* \"#utility.yul\":9988:10003   */\n      revert\n        /* \"#utility.yul\":10015:10130   */\n    tag_285:\n        /* \"#utility.yul\":10098:10099   */\n      0x03\n        /* \"#utility.yul\":10091:10096   */\n      dup2\n        /* \"#utility.yul\":10088:10100   */\n      lt\n        /* \"#utility.yul\":10078:10124   */\n      tag_424\n      jumpi\n        /* \"#utility.yul\":10104:10122   */\n      tag_425\n      tag_73\n      jump\t// in\n    tag_425:\n        /* \"#utility.yul\":10078:10124   */\n    tag_424:\n        /* \"#utility.yul\":10015:10130   */\n      pop\n      jump\t// out\n        /* \"#utility.yul\":10136:10267   */\n    tag_286:\n        /* \"#utility.yul\":10183:10190   */\n      0x00\n        /* \"#utility.yul\":10212:10217   */\n      dup2\n        /* \"#utility.yul\":10201:10217   */\n      swap1\n      pop\n        /* \"#utility.yul\":10218:10261   */\n      tag_427\n        /* \"#utility.yul\":10255:10260   */\n      dup3\n        /* \"#utility.yul\":10218:10261   */\n      tag_285\n      jump\t// in\n    tag_427:\n        /* \"#utility.yul\":10136:10267   */\n      swap2\n      swap1\n      pop\n      jump\t// out\n        /* \"#utility.yul\":10273:10404   */\n    tag_287:\n        /* \"#utility.yul\":10331:10340   */\n      0x00\n        /* \"#utility.yul\":10364:10398   */\n      tag_429\n        /* \"#utility.yul\":10392:10397   */\n      dup3\n        /* \"#utility.yul\":10364:10398   */\n      tag_286\n      jump\t// in\n    tag_429:\n        /* \"#utility.yul\":10351:10398   */\n      swap1\n      pop\n        /* \"#utility.yul\":10273:10404   */\n      swap2\n      swap1\n      pop\n      jump\t// out\n        /* \"#utility.yul\":10410:10557   */\n    tag_288:\n        /* \"#utility.yul\":10505:10550   */\n      tag_431\n        /* \"#utility.yul\":10544:10549   */\n      dup2\n        /* \"#utility.yul\":10505:10550   */\n      tag_287\n      jump\t// in\n    tag_431:\n        /* \"#utility.yul\":10500:10503   */\n      dup3\n        /* \"#utility.yul\":10493:10551   */\n      mstore\n        /* \"#utility.yul\":10410:10557   */\n      pop\n      pop\n      jump\t// out\n        /* \"#utility.yul\":10563:10911   */\n    tag_77:\n        /* \"#utility.yul\":10692:10696   */\n      0x00\n        /* \"#utility.yul\":10730:10732   */\n      0x40\n        /* \"#utility.yul\":10719:10728   */\n      dup3\n        /* \"#utility.yul\":10715:10733   */\n      add\n        /* \"#utility.yul\":10707:10733   */\n      swap1\n      pop\n        /* \"#utility.yul\":10743:10822   */\n      tag_433\n        /* \"#utility.yul\":10819:10820   */\n      0x00\n        /* \"#utility.yul\":10808:10817   */\n      dup4\n        /* \"#utility.yul\":10804:10821   */\n      add\n        /* \"#utility.yul\":10795:10801   */\n      dup6\n        /* \"#utility.yul\":10743:10822   */\n      tag_288\n      jump\t// in\n    tag_433:\n        /* \"#utility.yul\":10832:10904   */\n      tag_434\n        /* \"#utility.yul\":10900:10902   */\n      0x20\n        /* \"#utility.yul\":10889:10898   */\n      dup4\n        /* \"#utility.yul\":10885:10903   */\n      add\n        /* \"#utility.yul\":10876:10882   */\n      dup5\n        /* \"#utility.yul\":10832:10904   */\n      tag_282\n      jump\t// in\n    tag_434:\n        /* \"#utility.yul\":10563:10911   */\n      swap4\n      swap3\n      pop\n      pop\n      pop\n      jump\t// out\n        /* \"#utility.yul\":10917:11097   */\n    tag_85:\n        /* \"#utility.yul\":10965:11042   */\n      0x4e487b7100000000000000000000000000000000000000000000000000000000\n        /* \"#utility.yul\":10962:10963   */\n      0x00\n        /* \"#utility.yul\":10955:11043   */\n      mstore\n        /* \"#utility.yul\":11062:11066   */\n      0x32\n        /* \"#utility.yul\":11059:11060   */\n      0x04\n        /* \"#utility.yul\":11052:11067   */\n      mstore\n        /* \"#utility.yul\":11086:11090   */\n      0x24\n        /* \"#utility.yul\":11083:11084   */\n      0x00\n        /* \"#utility.yul\":11076:11091   */\n      revert\n        /* \"#utility.yul\":11103:11283   */\n    tag_289:\n        /* \"#utility.yul\":11151:11228   */\n      0x4e487b7100000000000000000000000000000000000000000000000000000000\n        /* \"#utility.yul\":11148:11149   */\n      0x00\n        /* \"#utility.yul\":11141:11229   */\n      mstore\n        /* \"#utility.yul\":11248:11252   */\n      0x11\n        /* \"#utility.yul\":11245:11246   */\n      0x04\n        /* \"#utility.yul\":11238:11253   */\n      mstore\n        /* \"#utility.yul\":11272:11276   */\n      0x24\n        /* \"#utility.yul\":11269:11270   */\n      0x00\n        /* \"#utility.yul\":11262:11277   */\n      revert\n        /* \"#utility.yul\":11289:11594   */\n    tag_94:\n        /* \"#utility.yul\":11329:11332   */\n      0x00\n        /* \"#utility.yul\":11348:11368   */\n      tag_438\n        /* \"#utility.yul\":11366:11367   */\n      dup3\n        /* \"#utility.yul\":11348:11368   */\n      tag_278\n      jump\t// in\n    tag_438:\n        /* \"#utility.yul\":11343:11368   */\n      swap2\n      pop\n        /* \"#utility.yul\":11382:11402   */\n      tag_439\n        /* \"#utility.yul\":11400:11401   */\n      dup4\n        /* \"#utility.yul\":11382:11402   */\n      tag_278\n      jump\t// in\n    tag_439:\n        /* \"#utility.yul\":11377:11402   */\n      swap3\n      pop\n        /* \"#utility.yul\":11536:11537   */\n      dup3\n        /* \"#utility.yul\":11468:11534   */\n      0xffffffffffffffffffffffffffffffffffffffffffffffffffffffffffffffff\n        /* \"#utility.yul\":11464:11538   */\n      sub\n        /* \"#utility.yul\":11461:11462   */\n      dup3\n        /* \"#utility.yul\":11458:11539   */\n      gt\n        /* \"#utility.yul\":11455:11562   */\n      iszero\n      tag_440\n      jumpi\n        /* \"#utility.yul\":11542:11560   */\n      tag_441\n      tag_289\n      jump\t// in\n    tag_441:\n        /* \"#utility.yul\":11455:11562   */\n    tag_440:\n        /* \"#utility.yul\":11586:11587   */\n      dup3\n        /* \"#utility.yul\":11583:11584   */\n      dup3\n        /* \"#utility.yul\":11579:11588   */\n      add\n        /* \"#utility.yul\":11572:11588   */\n      swap1\n      pop\n        /* \"#utility.yul\":11289:11594   */\n      swap3\n      swap2\n      pop\n      pop\n      jump\t// out\n        /* \"#utility.yul\":11600:11948   */\n    tag_97:\n        /* \"#utility.yul\":11640:11647   */\n      0x00\n        /* \"#utility.yul\":11663:11683   */\n      tag_443\n        /* \"#utility.yul\":11681:11682   */\n      dup3\n        /* \"#utility.yul\":11663:11683   */\n      tag_278\n      jump\t// in\n    tag_443:\n        /* \"#utility.yul\":11658:11683   */\n      swap2\n      pop\n        /* \"#utility.yul\":11697:11717   */\n      tag_444\n        /* \"#utility.yul\":11715:11716   */\n      dup4\n        /* \"#utility.yul\":11697:11717   */\n      tag_278\n      jump\t// in\n    tag_444:\n        /* \"#utility.yul\":11692:11717   */\n      swap3\n      pop\n        /* \"#utility.yul\":11885:11886   */\n      dup2\n        /* \"#utility.yul\":11817:11883   */\n      0xffffffffffffffffffffffffffffffffffffffffffffffffffffffffffffffff\n        /* \"#utility.yul\":11813:11887   */\n      div\n        /* \"#utility.yul\":11810:11811   */\n      dup4\n        /* \"#utility.yul\":11807:11888   */\n      gt\n        /* \"#utility.yul\":11802:11803   */\n      dup3\n        /* \"#utility.yul\":11795:11804   */\n      iszero\n        /* \"#utility.yul\":11788:11805   */\n      iszero\n        /* \"#utility.yul\":11784:11889   */\n      and\n        /* \"#utility.yul\":11781:11912   */\n      iszero\n      tag_445\n      jumpi\n        /* \"#utility.yul\":11892:11910   */\n      tag_446\n      tag_289\n      jump\t// in\n    tag_446:\n        /* \"#utility.yul\":11781:11912   */\n    tag_445:\n        /* \"#utility.yul\":11940:11941   */\n      dup3\n        /* \"#utility.yul\":11937:11938   */\n      dup3\n        /* \"#utility.yul\":11933:11942   */\n      mul\n        /* \"#utility.yul\":11922:11942   */\n      swap1\n      pop\n        /* \"#utility.yul\":11600:11948   */\n      swap3\n      swap2\n      pop\n      pop\n      jump\t// out\n        /* \"#utility.yul\":11954:12134   */\n    tag_290:\n        /* \"#utility.yul\":12002:12079   */\n      0x4e487b7100000000000000000000000000000000000000000000000000000000\n        /* \"#utility.yul\":11999:12000   */\n      0x00\n        /* \"#utility.yul\":11992:12080   */\n      mstore\n        /* \"#utility.yul\":12099:12103   */\n      0x12\n        /* \"#utility.yul\":12096:12097   */\n      0x04\n        /* \"#utility.yul\":12089:12104   */\n      mstore\n        /* \"#utility.yul\":12123:12127   */\n      0x24\n        /* \"#utility.yul\":12120:12121   */\n      0x00\n        /* \"#utility.yul\":12113:12128   */\n      revert\n        /* \"#utility.yul\":12140:12325   */\n    tag_99:\n        /* \"#utility.yul\":12180:12181   */\n      0x00\n        /* \"#utility.yul\":12197:12217   */\n      tag_449\n        /* \"#utility.yul\":12215:12216   */\n      dup3\n        /* \"#utility.yul\":12197:12217   */\n      tag_278\n      jump\t// in\n    tag_449:\n        /* \"#utility.yul\":12192:12217   */\n      swap2\n      pop\n        /* \"#utility.yul\":12231:12251   */\n      tag_450\n        /* \"#utility.yul\":12249:12250   */\n      dup4\n        /* \"#utility.yul\":12231:12251   */\n      tag_278\n      jump\t// in\n    tag_450:\n        /* \"#utility.yul\":12226:12251   */\n      swap3\n      pop\n        /* \"#utility.yul\":12270:12271   */\n      dup3\n        /* \"#utility.yul\":12260:12295   */\n      tag_451\n      jumpi\n        /* \"#utility.yul\":12275:12293   */\n      tag_452\n      tag_290\n      jump\t// in\n    tag_452:\n        /* \"#utility.yul\":12260:12295   */\n    tag_451:\n        /* \"#utility.yul\":12317:12318   */\n      dup3\n        /* \"#utility.yul\":12314:12315   */\n      dup3\n        /* \"#utility.yul\":12310:12319   */\n      div\n        /* \"#utility.yul\":12305:12319   */\n      swap1\n      pop\n        /* \"#utility.yul\":12140:12325   */\n      swap3\n      swap2\n      pop\n      pop\n      jump\t// out\n        /* \"#utility.yul\":12331:12565   */\n    tag_291:\n        /* \"#utility.yul\":12471:12505   */\n      0x596f7520617265206e6f74207468652074656163686572206f66207468697320\n        /* \"#utility.yul\":12467:12468   */\n      0x00\n        /* \"#utility.yul\":12459:12465   */\n      dup3\n        /* \"#utility.yul\":12455:12469   */\n      add\n        /* \"#utility.yul\":12448:12506   */\n      mstore\n        /* \"#utility.yul\":12540:12557   */\n      0x73747564656e7420636f757273652e0000000000000000000000000000000000\n        /* \"#utility.yul\":12535:12537   */\n      0x20\n        /* \"#utility.yul\":12527:12533   */\n      dup3\n        /* \"#utility.yul\":12523:12538   */\n      add\n        /* \"#utility.yul\":12516:12558   */\n      mstore\n        /* \"#utility.yul\":12331:12565   */\n      pop\n      jump\t// out\n        /* \"#utility.yul\":12571:12937   */\n    tag_292:\n        /* \"#utility.yul\":12713:12716   */\n      0x00\n        /* \"#utility.yul\":12734:12801   */\n      tag_455\n        /* \"#utility.yul\":12798:12800   */\n      0x2f\n        /* \"#utility.yul\":12793:12796   */\n      dup4\n        /* \"#utility.yul\":12734:12801   */\n      tag_283\n      jump\t// in\n    tag_455:\n        /* \"#utility.yul\":12727:12801   */\n      swap2\n      pop\n        /* \"#utility.yul\":12810:12903   */\n      tag_456\n        /* \"#utility.yul\":12899:12902   */\n      dup3\n        /* \"#utility.yul\":12810:12903   */\n      tag_291\n      jump\t// in\n    tag_456:\n        /* \"#utility.yul\":12928:12930   */\n      0x40\n        /* \"#utility.yul\":12923:12926   */\n      dup3\n        /* \"#utility.yul\":12919:12931   */\n      add\n        /* \"#utility.yul\":12912:12931   */\n      swap1\n      pop\n        /* \"#utility.yul\":12571:12937   */\n      swap2\n      swap1\n      pop\n      jump\t// out\n        /* \"#utility.yul\":12943:13362   */\n    tag_108:\n        /* \"#utility.yul\":13109:13113   */\n      0x00\n        /* \"#utility.yul\":13147:13149   */\n      0x20\n        /* \"#utility.yul\":13136:13145   */\n      dup3\n        /* \"#utility.yul\":13132:13150   */\n      add\n        /* \"#utility.yul\":13124:13150   */\n      swap1\n      pop\n        /* \"#utility.yul\":13196:13205   */\n      dup2\n        /* \"#utility.yul\":13190:13194   */\n      dup2\n        /* \"#utility.yul\":13186:13206   */\n      sub\n        /* \"#utility.yul\":13182:13183   */\n      0x00\n        /* \"#utility.yul\":13171:13180   */\n      dup4\n        /* \"#utility.yul\":13167:13184   */\n      add\n        /* \"#utility.yul\":13160:13207   */\n      mstore\n        /* \"#utility.yul\":13224:13355   */\n      tag_458\n        /* \"#utility.yul\":13350:13354   */\n      dup2\n        /* \"#utility.yul\":13224:13355   */\n      tag_292\n      jump\t// in\n    tag_458:\n        /* \"#utility.yul\":13216:13355   */\n      swap1\n      pop\n        /* \"#utility.yul\":12943:13362   */\n      swap2\n      swap1\n      pop\n      jump\t// out\n        /* \"#utility.yul\":13368:13545   */\n    tag_293:\n        /* \"#utility.yul\":13508:13537   */\n      0x436f75727365207479706520646f6573206e6f742065786973742e0000000000\n        /* \"#utility.yul\":13504:13505   */\n      0x00\n        /* \"#utility.yul\":13496:13502   */\n      dup3\n        /* \"#utility.yul\":13492:13506   */\n      add\n        /* \"#utility.yul\":13485:13538   */\n      mstore\n        /* \"#utility.yul\":13368:13545   */\n      pop\n      jump\t// out\n        /* \"#utility.yul\":13551:13917   */\n    tag_294:\n        /* \"#utility.yul\":13693:13696   */\n      0x00\n        /* \"#utility.yul\":13714:13781   */\n      tag_461\n        /* \"#utility.yul\":13778:13780   */\n      0x1b\n        /* \"#utility.yul\":13773:13776   */\n      dup4\n        /* \"#utility.yul\":13714:13781   */\n      tag_283\n      jump\t// in\n    tag_461:\n        /* \"#utility.yul\":13707:13781   */\n      swap2\n      pop\n        /* \"#utility.yul\":13790:13883   */\n      tag_462\n        /* \"#utility.yul\":13879:13882   */\n      dup3\n        /* \"#utility.yul\":13790:13883   */\n      tag_293\n      jump\t// in\n    tag_462:\n        /* \"#utility.yul\":13908:13910   */\n      0x20\n        /* \"#utility.yul\":13903:13906   */\n      dup3\n        /* \"#utility.yul\":13899:13911   */\n      add\n        /* \"#utility.yul\":13892:13911   */\n      swap1\n      pop\n        /* \"#utility.yul\":13551:13917   */\n      swap2\n      swap1\n      pop\n      jump\t// out\n        /* \"#utility.yul\":13923:14342   */\n    tag_137:\n        /* \"#utility.yul\":14089:14093   */\n      0x00\n        /* \"#utility.yul\":14127:14129   */\n      0x20\n        /* \"#utility.yul\":14116:14125   */\n      dup3\n        /* \"#utility.yul\":14112:14130   */\n      add\n        /* \"#utility.yul\":14104:14130   */\n      swap1\n      pop\n        /* \"#utility.yul\":14176:14185   */\n      dup2\n        /* \"#utility.yul\":14170:14174   */\n      dup2\n        /* \"#utility.yul\":14166:14186   */\n      sub\n        /* \"#utility.yul\":14162:14163   */\n      0x00\n        /* \"#utility.yul\":14151:14160   */\n      dup4\n        /* \"#utility.yul\":14147:14164   */\n      add\n        /* \"#utility.yul\":14140:14187   */\n      mstore\n        /* \"#utility.yul\":14204:14335   */\n      tag_464\n        /* \"#utility.yul\":14330:14334   */\n      dup2\n        /* \"#utility.yul\":14204:14335   */\n      tag_294\n      jump\t// in\n    tag_464:\n        /* \"#utility.yul\":14196:14335   */\n      swap1\n      pop\n        /* \"#utility.yul\":13923:14342   */\n      swap2\n      swap1\n      pop\n      jump\t// out\n        /* \"#utility.yul\":14348:14580   */\n    tag_295:\n        /* \"#utility.yul\":14488:14522   */\n      0x596f7520617265206e6f74207468652074656163686572206f66207468697320\n        /* \"#utility.yul\":14484:14485   */\n      0x00\n        /* \"#utility.yul\":14476:14482   */\n      dup3\n        /* \"#utility.yul\":14472:14486   */\n      add\n        /* \"#utility.yul\":14465:14523   */\n      mstore\n        /* \"#utility.yul\":14557:14572   */\n      0x636c61737320636f757273652e00000000000000000000000000000000000000\n        /* \"#utility.yul\":14552:14554   */\n      0x20\n        /* \"#utility.yul\":14544:14550   */\n      dup3\n        /* \"#utility.yul\":14540:14555   */\n      add\n        /* \"#utility.yul\":14533:14573   */\n      mstore\n        /* \"#utility.yul\":14348:14580   */\n      pop\n      jump\t// out\n        /* \"#utility.yul\":14586:14952   */\n    tag_296:\n        /* \"#utility.yul\":14728:14731   */\n      0x00\n        /* \"#utility.yul\":14749:14816   */\n      tag_467\n        /* \"#utility.yul\":14813:14815   */\n      0x2d\n        /* \"#utility.yul\":14808:14811   */\n      dup4\n        /* \"#utility.yul\":14749:14816   */\n      tag_283\n      jump\t// in\n    tag_467:\n        /* \"#utility.yul\":14742:14816   */\n      swap2\n      pop\n        /* \"#utility.yul\":14825:14918   */\n      tag_468\n        /* \"#utility.yul\":14914:14917   */\n      dup3\n        /* \"#utility.yul\":14825:14918   */\n      tag_295\n      jump\t// in\n    tag_468:\n        /* \"#utility.yul\":14943:14945   */\n      0x40\n        /* \"#utility.yul\":14938:14941   */\n      dup3\n        /* \"#utility.yul\":14934:14946   */\n      add\n        /* \"#utility.yul\":14927:14946   */\n      swap1\n      pop\n        /* \"#utility.yul\":14586:14952   */\n      swap2\n      swap1\n      pop\n      jump\t// out\n        /* \"#utility.yul\":14958:15377   */\n    tag_151:\n        /* \"#utility.yul\":15124:15128   */\n      0x00\n        /* \"#utility.yul\":15162:15164   */\n      0x20\n        /* \"#utility.yul\":15151:15160   */\n      dup3\n        /* \"#utility.yul\":15147:15165   */\n      add\n        /* \"#utility.yul\":15139:15165   */\n      swap1\n      pop\n        /* \"#utility.yul\":15211:15220   */\n      dup2\n        /* \"#utility.yul\":15205:15209   */\n      dup2\n        /* \"#utility.yul\":15201:15221   */\n      sub\n        /* \"#utility.yul\":15197:15198   */\n      0x00\n        /* \"#utility.yul\":15186:15195   */\n      dup4\n        /* \"#utility.yul\":15182:15199   */\n      add\n        /* \"#utility.yul\":15175:15222   */\n      mstore\n        /* \"#utility.yul\":15239:15370   */\n      tag_470\n        /* \"#utility.yul\":15365:15369   */\n      dup2\n        /* \"#utility.yul\":15239:15370   */\n      tag_296\n      jump\t// in\n    tag_470:\n        /* \"#utility.yul\":15231:15370   */\n      swap1\n      pop\n        /* \"#utility.yul\":14958:15377   */\n      swap2\n      swap1\n      pop\n      jump\t// out\n        /* \"#utility.yul\":15383:15616   */\n    tag_188:\n        /* \"#utility.yul\":15422:15425   */\n      0x00\n        /* \"#utility.yul\":15445:15469   */\n      tag_472\n        /* \"#utility.yul\":15463:15468   */\n      dup3\n        /* \"#utility.yul\":15445:15469   */\n      tag_278\n      jump\t// in\n    tag_472:\n        /* \"#utility.yul\":15436:15469   */\n      swap2\n      pop\n        /* \"#utility.yul\":15491:15557   */\n      0xffffffffffffffffffffffffffffffffffffffffffffffffffffffffffffffff\n        /* \"#utility.yul\":15484:15489   */\n      dup3\n        /* \"#utility.yul\":15481:15558   */\n      sub\n        /* \"#utility.yul\":15478:15581   */\n      tag_473\n      jumpi\n        /* \"#utility.yul\":15561:15579   */\n      tag_474\n      tag_289\n      jump\t// in\n    tag_474:\n        /* \"#utility.yul\":15478:15581   */\n    tag_473:\n        /* \"#utility.yul\":15608:15609   */\n      0x01\n        /* \"#utility.yul\":15601:15606   */\n      dup3\n        /* \"#utility.yul\":15597:15610   */\n      add\n        /* \"#utility.yul\":15590:15610   */\n      swap1\n      pop\n        /* \"#utility.yul\":15383:15616   */\n      swap2\n      swap1\n      pop\n      jump\t// out\n        /* \"#utility.yul\":15622:15847   */\n    tag_297:\n        /* \"#utility.yul\":15762:15796   */\n      0x4f776e61626c653a206e6577206f776e657220697320746865207a65726f2061\n        /* \"#utility.yul\":15758:15759   */\n      0x00\n        /* \"#utility.yul\":15750:15756   */\n      dup3\n        /* \"#utility.yul\":15746:15760   */\n      add\n        /* \"#utility.yul\":15739:15797   */\n      mstore\n        /* \"#utility.yul\":15831:15839   */\n      0x6464726573730000000000000000000000000000000000000000000000000000\n        /* \"#utility.yul\":15826:15828   */\n      0x20\n        /* \"#utility.yul\":15818:15824   */\n      dup3\n        /* \"#utility.yul\":15814:15829   */\n      add\n        /* \"#utility.yul\":15807:15840   */\n      mstore\n        /* \"#utility.yul\":15622:15847   */\n      pop\n      jump\t// out\n        /* \"#utility.yul\":15853:16219   */\n    tag_298:\n        /* \"#utility.yul\":15995:15998   */\n      0x00\n        /* \"#utility.yul\":16016:16083   */\n      tag_477\n        /* \"#utility.yul\":16080:16082   */\n      0x26\n        /* \"#utility.yul\":16075:16078   */\n      dup4\n        /* \"#utility.yul\":16016:16083   */\n      tag_283\n      jump\t// in\n    tag_477:\n        /* \"#utility.yul\":16009:16083   */\n      swap2\n      pop\n        /* \"#utility.yul\":16092:16185   */\n      tag_478\n        /* \"#utility.yul\":16181:16184   */\n      dup3\n        /* \"#utility.yul\":16092:16185   */\n      tag_297\n      jump\t// in\n    tag_478:\n        /* \"#utility.yul\":16210:16212   */\n      0x40\n        /* \"#utility.yul\":16205:16208   */\n      dup3\n        /* \"#utility.yul\":16201:16213   */\n      add\n        /* \"#utility.yul\":16194:16213   */\n      swap1\n      pop\n        /* \"#utility.yul\":15853:16219   */\n      swap2\n      swap1\n      pop\n      jump\t// out\n        /* \"#utility.yul\":16225:16644   */\n    tag_196:\n        /* \"#utility.yul\":16391:16395   */\n      0x00\n        /* \"#utility.yul\":16429:16431   */\n      0x20\n        /* \"#utility.yul\":16418:16427   */\n      dup3\n        /* \"#utility.yul\":16414:16432   */\n      add\n        /* \"#utility.yul\":16406:16432   */\n      swap1\n      pop\n        /* \"#utility.yul\":16478:16487   */\n      dup2\n        /* \"#utility.yul\":16472:16476   */\n      dup2\n        /* \"#utility.yul\":16468:16488   */\n      sub\n        /* \"#utility.yul\":16464:16465   */\n      0x00\n        /* \"#utility.yul\":16453:16462   */\n      dup4\n        /* \"#utility.yul\":16449:16466   */\n      add\n        /* \"#utility.yul\":16442:16489   */\n      mstore\n        /* \"#utility.yul\":16506:16637   */\n      tag_480\n        /* \"#utility.yul\":16632:16636   */\n      dup2\n        /* \"#utility.yul\":16506:16637   */\n      tag_298\n      jump\t// in\n    tag_480:\n        /* \"#utility.yul\":16498:16637   */\n      swap1\n      pop\n        /* \"#utility.yul\":16225:16644   */\n      swap2\n      swap1\n      pop\n      jump\t// out\n        /* \"#utility.yul\":16650:16832   */\n    tag_299:\n        /* \"#utility.yul\":16790:16824   */\n      0x4f776e61626c653a2063616c6c6572206973206e6f7420746865206f776e6572\n        /* \"#utility.yul\":16786:16787   */\n      0x00\n        /* \"#utility.yul\":16778:16784   */\n      dup3\n        /* \"#utility.yul\":16774:16788   */\n      add\n        /* \"#utility.yul\":16767:16825   */\n      mstore\n        /* \"#utility.yul\":16650:16832   */\n      pop\n      jump\t// out\n        /* \"#utility.yul\":16838:17204   */\n    tag_300:\n        /* \"#utility.yul\":16980:16983   */\n      0x00\n        /* \"#utility.yul\":17001:17068   */\n      tag_483\n        /* \"#utility.yul\":17065:17067   */\n      0x20\n        /* \"#utility.yul\":17060:17063   */\n      dup4\n        /* \"#utility.yul\":17001:17068   */\n      tag_283\n      jump\t// in\n    tag_483:\n        /* \"#utility.yul\":16994:17068   */\n      swap2\n      pop\n        /* \"#utility.yul\":17077:17170   */\n      tag_484\n        /* \"#utility.yul\":17166:17169   */\n      dup3\n        /* \"#utility.yul\":17077:17170   */\n      tag_299\n      jump\t// in\n    tag_484:\n        /* \"#utility.yul\":17195:17197   */\n      0x20\n        /* \"#utility.yul\":17190:17193   */\n      dup3\n        /* \"#utility.yul\":17186:17198   */\n      add\n        /* \"#utility.yul\":17179:17198   */\n      swap1\n      pop\n        /* \"#utility.yul\":16838:17204   */\n      swap2\n      swap1\n      pop\n      jump\t// out\n        /* \"#utility.yul\":17210:17629   */\n    tag_225:\n        /* \"#utility.yul\":17376:17380   */\n      0x00\n        /* \"#utility.yul\":17414:17416   */\n      0x20\n        /* \"#utility.yul\":17403:17412   */\n      dup3\n        /* \"#utility.yul\":17399:17417   */\n      add\n        /* \"#utility.yul\":17391:17417   */\n      swap1\n      pop\n        /* \"#utility.yul\":17463:17472   */\n      dup2\n        /* \"#utility.yul\":17457:17461   */\n      dup2\n        /* \"#utility.yul\":17453:17473   */\n      sub\n        /* \"#utility.yul\":17449:17450   */\n      0x00\n        /* \"#utility.yul\":17438:17447   */\n      dup4\n        /* \"#utility.yul\":17434:17451   */\n      add\n        /* \"#utility.yul\":17427:17474   */\n      mstore\n        /* \"#utility.yul\":17491:17622   */\n      tag_486\n        /* \"#utility.yul\":17617:17621   */\n      dup2\n        /* \"#utility.yul\":17491:17622   */\n      tag_300\n      jump\t// in\n    tag_486:\n        /* \"#utility.yul\":17483:17622   */\n      swap1\n      pop\n        /* \"#utility.yul\":17210:17629   */\n      swap2\n      swap1\n      pop\n      jump\t// out\n        /* \"#utility.yul\":17635:17734   */\n    tag_301:\n        /* \"#utility.yul\":17687:17693   */\n      0x00\n        /* \"#utility.yul\":17721:17726   */\n      dup2\n        /* \"#utility.yul\":17715:17727   */\n      mload\n        /* \"#utility.yul\":17705:17727   */\n      swap1\n      pop\n        /* \"#utility.yul\":17635:17734   */\n      swap2\n      swap1\n      pop\n      jump\t// out\n        /* \"#utility.yul\":17740:17888   */\n    tag_302:\n        /* \"#utility.yul\":17842:17853   */\n      0x00\n        /* \"#utility.yul\":17879:17882   */\n      dup2\n        /* \"#utility.yul\":17864:17882   */\n      swap1\n      pop\n        /* \"#utility.yul\":17740:17888   */\n      swap3\n      swap2\n      pop\n      pop\n      jump\t// out\n        /* \"#utility.yul\":17894:18201   */\n    tag_303:\n        /* \"#utility.yul\":17962:17963   */\n      0x00\n        /* \"#utility.yul\":17972:18085   */\n    tag_490:\n        /* \"#utility.yul\":17986:17992   */\n      dup4\n        /* \"#utility.yul\":17983:17984   */\n      dup2\n        /* \"#utility.yul\":17980:17993   */\n      lt\n        /* \"#utility.yul\":17972:18085   */\n      iszero\n      tag_492\n      jumpi\n        /* \"#utility.yul\":18071:18072   */\n      dup1\n        /* \"#utility.yul\":18066:18069   */\n      dup3\n        /* \"#utility.yul\":18062:18073   */\n      add\n        /* \"#utility.yul\":18056:18074   */\n      mload\n        /* \"#utility.yul\":18052:18053   */\n      dup2\n        /* \"#utility.yul\":18047:18050   */\n      dup5\n        /* \"#utility.yul\":18043:18054   */\n      add\n        /* \"#utility.yul\":18036:18075   */\n      mstore\n        /* \"#utility.yul\":18008:18010   */\n      0x20\n        /* \"#utility.yul\":18005:18006   */\n      dup2\n        /* \"#utility.yul\":18001:18011   */\n      add\n        /* \"#utility.yul\":17996:18011   */\n      swap1\n      pop\n        /* \"#utility.yul\":17972:18085   */\n      jump(tag_490)\n    tag_492:\n        /* \"#utility.yul\":18103:18109   */\n      dup4\n        /* \"#utility.yul\":18100:18101   */\n      dup2\n        /* \"#utility.yul\":18097:18110   */\n      gt\n        /* \"#utility.yul\":18094:18195   */\n      iszero\n      tag_493\n      jumpi\n        /* \"#utility.yul\":18183:18184   */\n      0x00\n        /* \"#utility.yul\":18174:18180   */\n      dup5\n        /* \"#utility.yul\":18169:18172   */\n      dup5\n        /* \"#utility.yul\":18165:18181   */\n      add\n        /* \"#utility.yul\":18158:18185   */\n      mstore\n        /* \"#utility.yul\":18094:18195   */\n    tag_493:\n        /* \"#utility.yul\":17943:18201   */\n      pop\n        /* \"#utility.yul\":17894:18201   */\n      pop\n      pop\n      pop\n      jump\t// out\n        /* \"#utility.yul\":18207:18584   */\n    tag_304:\n        /* \"#utility.yul\":18313:18316   */\n      0x00\n        /* \"#utility.yul\":18341:18380   */\n      tag_495\n        /* \"#utility.yul\":18374:18379   */\n      dup3\n        /* \"#utility.yul\":18341:18380   */\n      tag_301\n      jump\t// in\n    tag_495:\n        /* \"#utility.yul\":18396:18485   */\n      tag_496\n        /* \"#utility.yul\":18478:18484   */\n      dup2\n        /* \"#utility.yul\":18473:18476   */\n      dup6\n        /* \"#utility.yul\":18396:18485   */\n      tag_302\n      jump\t// in\n    tag_496:\n        /* \"#utility.yul\":18389:18485   */\n      swap4\n      pop\n        /* \"#utility.yul\":18494:18546   */\n      tag_497\n        /* \"#utility.yul\":18539:18545   */\n      dup2\n        /* \"#utility.yul\":18534:18537   */\n      dup6\n        /* \"#utility.yul\":18527:18531   */\n      0x20\n        /* \"#utility.yul\":18520:18525   */\n      dup7\n        /* \"#utility.yul\":18516:18532   */\n      add\n        /* \"#utility.yul\":18494:18546   */\n      tag_303\n      jump\t// in\n    tag_497:\n        /* \"#utility.yul\":18571:18577   */\n      dup1\n        /* \"#utility.yul\":18566:18569   */\n      dup5\n        /* \"#utility.yul\":18562:18578   */\n      add\n        /* \"#utility.yul\":18555:18578   */\n      swap2\n      pop\n        /* \"#utility.yul\":18317:18584   */\n      pop\n        /* \"#utility.yul\":18207:18584   */\n      swap3\n      swap2\n      pop\n      pop\n      jump\t// out\n        /* \"#utility.yul\":18590:18865   */\n    tag_231:\n        /* \"#utility.yul\":18722:18725   */\n      0x00\n        /* \"#utility.yul\":18744:18839   */\n      tag_499\n        /* \"#utility.yul\":18835:18838   */\n      dup3\n        /* \"#utility.yul\":18826:18832   */\n      dup5\n        /* \"#utility.yul\":18744:18839   */\n      tag_304\n      jump\t// in\n    tag_499:\n        /* \"#utility.yul\":18737:18839   */\n      swap2\n      pop\n        /* \"#utility.yul\":18856:18859   */\n      dup2\n        /* \"#utility.yul\":18849:18859   */\n      swap1\n      pop\n        /* \"#utility.yul\":18590:18865   */\n      swap3\n      swap2\n      pop\n      pop\n      jump\t// out\n        /* \"#utility.yul\":18871:19051   */\n    tag_305:\n        /* \"#utility.yul\":18919:18996   */\n      0x4e487b7100000000000000000000000000000000000000000000000000000000\n        /* \"#utility.yul\":18916:18917   */\n      0x00\n        /* \"#utility.yul\":18909:18997   */\n      mstore\n        /* \"#utility.yul\":19016:19020   */\n      0x22\n        /* \"#utility.yul\":19013:19014   */\n      0x04\n        /* \"#utility.yul\":19006:19021   */\n      mstore\n        /* \"#utility.yul\":19040:19044   */\n      0x24\n        /* \"#utility.yul\":19037:19038   */\n      0x00\n        /* \"#utility.yul\":19030:19045   */\n      revert\n        /* \"#utility.yul\":19057:19377   */\n    tag_244:\n        /* \"#utility.yul\":19101:19107   */\n      0x00\n        /* \"#utility.yul\":19138:19139   */\n      0x02\n        /* \"#utility.yul\":19132:19136   */\n      dup3\n        /* \"#utility.yul\":19128:19140   */\n      div\n        /* \"#utility.yul\":19118:19140   */\n      swap1\n      pop\n        /* \"#utility.yul\":19185:19186   */\n      0x01\n        /* \"#utility.yul\":19179:19183   */\n      dup3\n        /* \"#utility.yul\":19175:19187   */\n      and\n        /* \"#utility.yul\":19206:19224   */\n      dup1\n        /* \"#utility.yul\":19196:19277   */\n      tag_502\n      jumpi\n        /* \"#utility.yul\":19262:19266   */\n      0x7f\n        /* \"#utility.yul\":19254:19260   */\n      dup3\n        /* \"#utility.yul\":19250:19267   */\n      and\n        /* \"#utility.yul\":19240:19267   */\n      swap2\n      pop\n        /* \"#utility.yul\":19196:19277   */\n    tag_502:\n        /* \"#utility.yul\":19324:19326   */\n      0x20\n        /* \"#utility.yul\":19316:19322   */\n      dup3\n        /* \"#utility.yul\":19313:19327   */\n      lt\n        /* \"#utility.yul\":19293:19311   */\n      dup2\n        /* \"#utility.yul\":19290:19328   */\n      sub\n        /* \"#utility.yul\":19287:19371   */\n      tag_503\n      jumpi\n        /* \"#utility.yul\":19343:19361   */\n      tag_504\n      tag_305\n      jump\t// in\n    tag_504:\n        /* \"#utility.yul\":19287:19371   */\n    tag_503:\n        /* \"#utility.yul\":19108:19377   */\n      pop\n        /* \"#utility.yul\":19057:19377   */\n      swap2\n      swap1\n      pop\n      jump\t// out\n        /* \"#utility.yul\":19383:19524   */\n    tag_306:\n        /* \"#utility.yul\":19432:19436   */\n      0x00\n        /* \"#utility.yul\":19455:19458   */\n      dup2\n        /* \"#utility.yul\":19447:19458   */\n      swap1\n      pop\n        /* \"#utility.yul\":19478:19481   */\n      dup2\n        /* \"#utility.yul\":19475:19476   */\n      0x00\n        /* \"#utility.yul\":19468:19482   */\n      mstore\n        /* \"#utility.yul\":19512:19516   */\n      0x20\n        /* \"#utility.yul\":19509:19510   */\n      0x00\n        /* \"#utility.yul\":19499:19517   */\n      keccak256\n        /* \"#utility.yul\":19491:19517   */\n      swap1\n      pop\n        /* \"#utility.yul\":19383:19524   */\n      swap2\n      swap1\n      pop\n      jump\t// out\n        /* \"#utility.yul\":19554:20399   */\n    tag_307:\n        /* \"#utility.yul\":19657:19660   */\n      0x00\n        /* \"#utility.yul\":19694:19699   */\n      dup2\n        /* \"#utility.yul\":19688:19700   */\n      sload\n        /* \"#utility.yul\":19723:19759   */\n      tag_507\n        /* \"#utility.yul\":19749:19758   */\n      dup2\n        /* \"#utility.yul\":19723:19759   */\n      tag_244\n      jump\t// in\n    tag_507:\n        /* \"#utility.yul\":19775:19864   */\n      tag_508\n        /* \"#utility.yul\":19857:19863   */\n      dup2\n        /* \"#utility.yul\":19852:19855   */\n      dup7\n        /* \"#utility.yul\":19775:19864   */\n      tag_302\n      jump\t// in\n    tag_508:\n        /* \"#utility.yul\":19768:19864   */\n      swap5\n      pop\n        /* \"#utility.yul\":19895:19896   */\n      0x01\n        /* \"#utility.yul\":19884:19893   */\n      dup3\n        /* \"#utility.yul\":19880:19897   */\n      and\n        /* \"#utility.yul\":19911:19912   */\n      0x00\n        /* \"#utility.yul\":19906:20043   */\n      dup2\n      eq\n      tag_510\n      jumpi\n        /* \"#utility.yul\":20057:20058   */\n      0x01\n        /* \"#utility.yul\":20052:20393   */\n      dup2\n      eq\n      tag_511\n      jumpi\n        /* \"#utility.yul\":19873:20393   */\n      jump(tag_509)\n        /* \"#utility.yul\":19906:20043   */\n    tag_510:\n        /* \"#utility.yul\":19990:19994   */\n      0xff\n        /* \"#utility.yul\":19986:19995   */\n      not\n        /* \"#utility.yul\":19975:19984   */\n      dup4\n        /* \"#utility.yul\":19971:19996   */\n      and\n        /* \"#utility.yul\":19966:19969   */\n      dup7\n        /* \"#utility.yul\":19959:19997   */\n      mstore\n        /* \"#utility.yul\":20026:20032   */\n      dup2\n        /* \"#utility.yul\":20021:20024   */\n      dup7\n        /* \"#utility.yul\":20017:20033   */\n      add\n        /* \"#utility.yul\":20010:20033   */\n      swap4\n      pop\n        /* \"#utility.yul\":19906:20043   */\n      jump(tag_509)\n        /* \"#utility.yul\":20052:20393   */\n    tag_511:\n        /* \"#utility.yul\":20119:20157   */\n      tag_512\n        /* \"#utility.yul\":20151:20156   */\n      dup6\n        /* \"#utility.yul\":20119:20157   */\n      tag_306\n      jump\t// in\n    tag_512:\n        /* \"#utility.yul\":20179:20180   */\n      0x00\n        /* \"#utility.yul\":20193:20347   */\n    tag_513:\n        /* \"#utility.yul\":20207:20213   */\n      dup4\n        /* \"#utility.yul\":20204:20205   */\n      dup2\n        /* \"#utility.yul\":20201:20214   */\n      lt\n        /* \"#utility.yul\":20193:20347   */\n      iszero\n      tag_515\n      jumpi\n        /* \"#utility.yul\":20281:20288   */\n      dup2\n        /* \"#utility.yul\":20275:20289   */\n      sload\n        /* \"#utility.yul\":20271:20272   */\n      dup2\n        /* \"#utility.yul\":20266:20269   */\n      dup10\n        /* \"#utility.yul\":20262:20273   */\n      add\n        /* \"#utility.yul\":20255:20290   */\n      mstore\n        /* \"#utility.yul\":20331:20332   */\n      0x01\n        /* \"#utility.yul\":20322:20329   */\n      dup3\n        /* \"#utility.yul\":20318:20333   */\n      add\n        /* \"#utility.yul\":20307:20333   */\n      swap2\n      pop\n        /* \"#utility.yul\":20229:20233   */\n      0x20\n        /* \"#utility.yul\":20226:20227   */\n      dup2\n        /* \"#utility.yul\":20222:20234   */\n      add\n        /* \"#utility.yul\":20217:20234   */\n      swap1\n      pop\n        /* \"#utility.yul\":20193:20347   */\n      jump(tag_513)\n    tag_515:\n        /* \"#utility.yul\":20376:20382   */\n      dup4\n        /* \"#utility.yul\":20371:20374   */\n      dup9\n        /* \"#utility.yul\":20367:20383   */\n      add\n        /* \"#utility.yul\":20360:20383   */\n      swap6\n      pop\n        /* \"#utility.yul\":20059:20393   */\n      pop\n      pop\n        /* \"#utility.yul\":19873:20393   */\n    tag_509:\n      pop\n        /* \"#utility.yul\":19661:20399   */\n      pop\n      pop\n        /* \"#utility.yul\":19554:20399   */\n      swap3\n      swap2\n      pop\n      pop\n      jump\t// out\n        /* \"#utility.yul\":20405:20674   */\n    tag_236:\n        /* \"#utility.yul\":20534:20537   */\n      0x00\n        /* \"#utility.yul\":20556:20648   */\n      tag_517\n        /* \"#utility.yul\":20644:20647   */\n      dup3\n        /* \"#utility.yul\":20635:20641   */\n      dup5\n        /* \"#utility.yul\":20556:20648   */\n      tag_307\n      jump\t// in\n    tag_517:\n        /* \"#utility.yul\":20549:20648   */\n      swap2\n      pop\n        /* \"#utility.yul\":20665:20668   */\n      dup2\n        /* \"#utility.yul\":20658:20668   */\n      swap1\n      pop\n        /* \"#utility.yul\":20405:20674   */\n      swap3\n      swap2\n      pop\n      pop\n      jump\t// out\n        /* \"#utility.yul\":20680:20857   */\n    tag_308:\n        /* \"#utility.yul\":20820:20849   */\n      0x5468652073747564656e7420646f6573206e6f742065786973742e0000000000\n        /* \"#utility.yul\":20816:20817   */\n      0x00\n        /* \"#utility.yul\":20808:20814   */\n      dup3\n        /* \"#utility.yul\":20804:20818   */\n      add\n        /* \"#utility.yul\":20797:20850   */\n      mstore\n        /* \"#utility.yul\":20680:20857   */\n      pop\n      jump\t// out\n        /* \"#utility.yul\":20863:21229   */\n    tag_309:\n        /* \"#utility.yul\":21005:21008   */\n      0x00\n        /* \"#utility.yul\":21026:21093   */\n      tag_520\n        /* \"#utility.yul\":21090:21092   */\n      0x1b\n        /* \"#utility.yul\":21085:21088   */\n      dup4\n        /* \"#utility.yul\":21026:21093   */\n      tag_283\n      jump\t// in\n    tag_520:\n        /* \"#utility.yul\":21019:21093   */\n      swap2\n      pop\n        /* \"#utility.yul\":21102:21195   */\n      tag_521\n        /* \"#utility.yul\":21191:21194   */\n      dup3\n        /* \"#utility.yul\":21102:21195   */\n      tag_308\n      jump\t// in\n    tag_521:\n        /* \"#utility.yul\":21220:21222   */\n      0x20\n        /* \"#utility.yul\":21215:21218   */\n      dup3\n        /* \"#utility.yul\":21211:21223   */\n      add\n        /* \"#utility.yul\":21204:21223   */\n      swap1\n      pop\n        /* \"#utility.yul\":20863:21229   */\n      swap2\n      swap1\n      pop\n      jump\t// out\n        /* \"#utility.yul\":21235:21654   */\n    tag_240:\n        /* \"#utility.yul\":21401:21405   */\n      0x00\n        /* \"#utility.yul\":21439:21441   */\n      0x20\n        /* \"#utility.yul\":21428:21437   */\n      dup3\n        /* \"#utility.yul\":21424:21442   */\n      add\n        /* \"#utility.yul\":21416:21442   */\n      swap1\n      pop\n        /* \"#utility.yul\":21488:21497   */\n      dup2\n        /* \"#utility.yul\":21482:21486   */\n      dup2\n        /* \"#utility.yul\":21478:21498   */\n      sub\n        /* \"#utility.yul\":21474:21475   */\n      0x00\n        /* \"#utility.yul\":21463:21472   */\n      dup4\n        /* \"#utility.yul\":21459:21476   */\n      add\n        /* \"#utility.yul\":21452:21499   */\n      mstore\n        /* \"#utility.yul\":21516:21647   */\n      tag_523\n        /* \"#utility.yul\":21642:21646   */\n      dup2\n        /* \"#utility.yul\":21516:21647   */\n      tag_309\n      jump\t// in\n    tag_523:\n        /* \"#utility.yul\":21508:21647   */\n      swap1\n      pop\n        /* \"#utility.yul\":21235:21654   */\n      swap2\n      swap1\n      pop\n      jump\t// out\n\n    auxdata: 0xa2646970667358221220b227fc496de8cd6d0d1eb62d47e09d7d8f83198b65f4167a2f7717d4efb18a8164736f6c634300080d0033\n}\n",
				"bytecode": {
					"linkReferences": {},
					"object": "608060405234801561001057600080fd5b5061002d61002261003260201b60201c565b61003a60201b60201c565b6100fe565b600033905090565b60008060009054906101000a900473ffffffffffffffffffffffffffffffffffffffff169050816000806101000a81548173ffffffffffffffffffffffffffffffffffffffff021916908373ffffffffffffffffffffffffffffffffffffffff1602179055508173ffffffffffffffffffffffffffffffffffffffff168173ffffffffffffffffffffffffffffffffffffffff167f8be0079c531659141344cd1fd0a4f28419497f9722a3daafe3b4186f6b6457e060405160405180910390a35050565b611a2f8061010d6000396000f3fe608060405234801561001057600080fd5b506004361061009e5760003560e01c8063715018a611610066578063715018a6146101575780638da5cb5b14610161578063ce28c8071461017f578063f2fde38b146101af578063fa489605146101cb5761009e565b80630dc0ffb1146100a357806310468c2f146100d357806335d1f30d146100ef5780633c8c07bc1461010b5780635eb050cf1461013b575b600080fd5b6100bd60048036038101906100b89190610f43565b6101e9565b6040516100ca9190610fa7565b60405180910390f35b6100ed60048036038101906100e89190611080565b610208565b005b61010960048036038101906101049190611105565b610320565b005b61012560048036038101906101209190610f43565b6103db565b604051610132919061115e565b60405180910390f35b610155600480360381019061015091906111a5565b610498565b005b61015f610702565b005b610169610716565b6040516101769190611228565b60405180910390f35b61019960048036038101906101949190611243565b61073f565b6040516101a6919061115e565b60405180910390f35b6101c960048036038101906101c49190611270565b6109aa565b005b6101d3610a2d565b6040516101e0919061115e565b60405180910390f35b60006101f3610b13565b6103e86101ff836103db565b10159050919050565b610210610b13565b6002604051806080016040528085858080601f016020809104026020016040519081016040528093929190818152602001838380828437600081840152601f19601f82011690508083019250505050505050815260200160008152602001600081526020016000815250908060018154018082558091505060019003906000526020600020906004020160009091909190915060008201518160000190805190602001906102bf929190610d46565b5060208201518160010155604082015181600201556060820151816003015550507ff37b44c60d951a102e1b401bcd083688102e58c75aae387ff9884aa0f9ff33dc838383604051610313939291906112db565b60405180910390a1505050565b610328610b13565b80600360008460028111156103405761033f61130d565b5b60028111156103525761035161130d565b5b815260200190815260200160002060006101000a81548173ffffffffffffffffffffffffffffffffffffffff021916908373ffffffffffffffffffffffffffffffffffffffff1602179055507f4c81db63b6bab09b12e49b76a90a6ca4a9cfac4a8aabcefc1f8a249f0f4e691982826040516103cf929190611384565b60405180910390a15050565b60006103e5610b13565b60006103f083610b91565b9050600360646002838154811061040a576104096113ad565b5b906000526020600020906004020160020154600284815481106104305761042f6113ad565b5b90600052602060002090600402016003015460028581548110610456576104556113ad565b5b906000526020600020906004020160010154610472919061140b565b61047c919061140b565b6104869190611461565b61049091906114ea565b915050919050565b60006104e784848080601f016020809104026020016040519081016040528093929190818152602001838380828437600081840152601f19601f82011690508083019250505050505050610b91565b905060036000866002811115610500576104ff61130d565b5b60028111156105125761051161130d565b5b815260200190815260200160002060009054906101000a900473ffffffffffffffffffffffffffffffffffffffff1673ffffffffffffffffffffffffffffffffffffffff163373ffffffffffffffffffffffffffffffffffffffff16146105ae576040517f08c379a00000000000000000000000000000000000000000000000000000000081526004016105a59061158d565b60405180910390fd5b600060028111156105c2576105c161130d565b5b8560028111156105d5576105d461130d565b5b036106095781600282815481106105ef576105ee6113ad565b5b9060005260206000209060040201600101819055506106fb565b60028081111561061c5761061b61130d565b5b85600281111561062f5761062e61130d565b5b03610663578160028281548110610649576106486113ad565b5b9060005260206000209060040201600301819055506106fa565b600160028111156106775761067661130d565b5b85600281111561068a5761068961130d565b5b036106be5781600282815481106106a4576106a36113ad565b5b9060005260206000209060040201600201819055506106f9565b6040517f08c379a00000000000000000000000000000000000000000000000000000000081526004016106f0906115f9565b60405180910390fd5b5b5b5050505050565b61070a610b13565b6107146000610c7a565b565b60008060009054906101000a900473ffffffffffffffffffffffffffffffffffffffff16905090565b6000600360008360028111156107585761075761130d565b5b600281111561076a5761076961130d565b5b815260200190815260200160002060009054906101000a900473ffffffffffffffffffffffffffffffffffffffff1673ffffffffffffffffffffffffffffffffffffffff163373ffffffffffffffffffffffffffffffffffffffff1614610806576040517f08c379a00000000000000000000000000000000000000000000000000000000081526004016107fd9061168b565b60405180910390fd5b60008060005b600280549050811015610982576000600281111561082d5761082c61130d565b5b8560028111156108405761083f61130d565b5b0361088c5760028181548110610859576108586113ad565b5b90600052602060002090600402016001015483610876919061140b565b9250600182610885919061140b565b915061096f565b60028081111561089f5761089e61130d565b5b8560028111156108b2576108b161130d565b5b036108fe57600281815481106108cb576108ca6113ad565b5b906000526020600020906004020160030154836108e8919061140b565b92506001826108f7919061140b565b915061096e565b600160028111156109125761091161130d565b5b8560028111156109255761092461130d565b5b0361096d576002818154811061093e5761093d6113ad565b5b9060005260206000209060040201600201548361095b919061140b565b925060018261096a919061140b565b91505b5b5b808061097a906116ab565b91505061080c565b506000816064846109939190611461565b61099d91906114ea565b9050809350505050919050565b6109b2610b13565b600073ffffffffffffffffffffffffffffffffffffffff168173ffffffffffffffffffffffffffffffffffffffff1603610a21576040517f08c379a0000000000000000000000000000000000000000000000000000000008152600401610a1890611765565b60405180910390fd5b610a2a81610c7a565b50565b6000610a37610b13565b60008060005b600280549050811015610aff5760028181548110610a5e57610a5d6113ad565b5b90600052602060002090600402016002015460028281548110610a8457610a836113ad565b5b90600052602060002090600402016003015460028381548110610aaa57610aa96113ad565b5b906000526020600020906004020160010154610ac6919061140b565b610ad0919061140b565b83610adb919061140b565b9250600382610aea919061140b565b91508080610af7906116ab565b915050610a3d565b508082610b0c91906114ea565b9250505090565b610b1b610d3e565b73ffffffffffffffffffffffffffffffffffffffff16610b39610716565b73ffffffffffffffffffffffffffffffffffffffff1614610b8f576040517f08c379a0000000000000000000000000000000000000000000000000000000008152600401610b86906117d1565b60405180910390fd5b565b600080600090505b600280549050811015610c395782604051602001610bb7919061186b565b6040516020818303038152906040528051906020012060028281548110610be157610be06113ad565b5b9060005260206000209060040201600001604051602001610c029190611976565b6040516020818303038152906040528051906020012003610c265780915050610c75565b8080610c31906116ab565b915050610b99565b506040517f08c379a0000000000000000000000000000000000000000000000000000000008152600401610c6c906119d9565b60405180910390fd5b919050565b60008060009054906101000a900473ffffffffffffffffffffffffffffffffffffffff169050816000806101000a81548173ffffffffffffffffffffffffffffffffffffffff021916908373ffffffffffffffffffffffffffffffffffffffff1602179055508173ffffffffffffffffffffffffffffffffffffffff168173ffffffffffffffffffffffffffffffffffffffff167f8be0079c531659141344cd1fd0a4f28419497f9722a3daafe3b4186f6b6457e060405160405180910390a35050565b600033905090565b828054610d52906118b1565b90600052602060002090601f016020900481019282610d745760008555610dbb565b82601f10610d8d57805160ff1916838001178555610dbb565b82800160010185558215610dbb579182015b82811115610dba578251825591602001919060010190610d9f565b5b509050610dc89190610dcc565b5090565b5b80821115610de5576000816000905550600101610dcd565b5090565b6000604051905090565b600080fd5b600080fd5b600080fd5b600080fd5b6000601f19601f8301169050919050565b7f4e487b7100000000000000000000000000000000000000000000000000000000600052604160045260246000fd5b610e5082610e07565b810181811067ffffffffffffffff82111715610e6f57610e6e610e18565b5b80604052505050565b6000610e82610de9565b9050610e8e8282610e47565b919050565b600067ffffffffffffffff821115610eae57610ead610e18565b5b610eb782610e07565b9050602081019050919050565b82818337600083830152505050565b6000610ee6610ee184610e93565b610e78565b905082815260208101848484011115610f0257610f01610e02565b5b610f0d848285610ec4565b509392505050565b600082601f830112610f2a57610f29610dfd565b5b8135610f3a848260208601610ed3565b91505092915050565b600060208284031215610f5957610f58610df3565b5b600082013567ffffffffffffffff811115610f7757610f76610df8565b5b610f8384828501610f15565b91505092915050565b60008115159050919050565b610fa181610f8c565b82525050565b6000602082019050610fbc6000830184610f98565b92915050565b600080fd5b600080fd5b60008083601f840112610fe257610fe1610dfd565b5b8235905067ffffffffffffffff811115610fff57610ffe610fc2565b5b60208301915083600182028301111561101b5761101a610fc7565b5b9250929050565b600073ffffffffffffffffffffffffffffffffffffffff82169050919050565b600061104d82611022565b9050919050565b61105d81611042565b811461106857600080fd5b50565b60008135905061107a81611054565b92915050565b60008060006040848603121561109957611098610df3565b5b600084013567ffffffffffffffff8111156110b7576110b6610df8565b5b6110c386828701610fcc565b935093505060206110d68682870161106b565b9150509250925092565b600381106110ed57600080fd5b50565b6000813590506110ff816110e0565b92915050565b6000806040838503121561111c5761111b610df3565b5b600061112a858286016110f0565b925050602061113b8582860161106b565b9150509250929050565b6000819050919050565b61115881611145565b82525050565b6000602082019050611173600083018461114f565b92915050565b61118281611145565b811461118d57600080fd5b50565b60008135905061119f81611179565b92915050565b600080600080606085870312156111bf576111be610df3565b5b60006111cd878288016110f0565b945050602085013567ffffffffffffffff8111156111ee576111ed610df8565b5b6111fa87828801610fcc565b9350935050604061120d87828801611190565b91505092959194509250565b61122281611042565b82525050565b600060208201905061123d6000830184611219565b92915050565b60006020828403121561125957611258610df3565b5b6000611267848285016110f0565b91505092915050565b60006020828403121561128657611285610df3565b5b60006112948482850161106b565b91505092915050565b600082825260208201905092915050565b60006112ba838561129d565b93506112c7838584610ec4565b6112d083610e07565b840190509392505050565b600060408201905081810360008301526112f68185876112ae565b90506113056020830184611219565b949350505050565b7f4e487b7100000000000000000000000000000000000000000000000000000000600052602160045260246000fd5b6003811061134d5761134c61130d565b5b50565b600081905061135e8261133c565b919050565b600061136e82611350565b9050919050565b61137e81611363565b82525050565b60006040820190506113996000830185611375565b6113a66020830184611219565b9392505050565b7f4e487b7100000000000000000000000000000000000000000000000000000000600052603260045260246000fd5b7f4e487b7100000000000000000000000000000000000000000000000000000000600052601160045260246000fd5b600061141682611145565b915061142183611145565b9250827fffffffffffffffffffffffffffffffffffffffffffffffffffffffffffffffff03821115611456576114556113dc565b5b828201905092915050565b600061146c82611145565b915061147783611145565b9250817fffffffffffffffffffffffffffffffffffffffffffffffffffffffffffffffff04831182151516156114b0576114af6113dc565b5b828202905092915050565b7f4e487b7100000000000000000000000000000000000000000000000000000000600052601260045260246000fd5b60006114f582611145565b915061150083611145565b9250826115105761150f6114bb565b5b828204905092915050565b7f596f7520617265206e6f74207468652074656163686572206f6620746869732060008201527f73747564656e7420636f757273652e0000000000000000000000000000000000602082015250565b6000611577602f8361129d565b91506115828261151b565b604082019050919050565b600060208201905081810360008301526115a68161156a565b9050919050565b7f436f75727365207479706520646f6573206e6f742065786973742e0000000000600082015250565b60006115e3601b8361129d565b91506115ee826115ad565b602082019050919050565b60006020820190508181036000830152611612816115d6565b9050919050565b7f596f7520617265206e6f74207468652074656163686572206f6620746869732060008201527f636c61737320636f757273652e00000000000000000000000000000000000000602082015250565b6000611675602d8361129d565b915061168082611619565b604082019050919050565b600060208201905081810360008301526116a481611668565b9050919050565b60006116b682611145565b91507fffffffffffffffffffffffffffffffffffffffffffffffffffffffffffffffff82036116e8576116e76113dc565b5b600182019050919050565b7f4f776e61626c653a206e6577206f776e657220697320746865207a65726f206160008201527f6464726573730000000000000000000000000000000000000000000000000000602082015250565b600061174f60268361129d565b915061175a826116f3565b604082019050919050565b6000602082019050818103600083015261177e81611742565b9050919050565b7f4f776e61626c653a2063616c6c6572206973206e6f7420746865206f776e6572600082015250565b60006117bb60208361129d565b91506117c682611785565b602082019050919050565b600060208201905081810360008301526117ea816117ae565b9050919050565b600081519050919050565b600081905092915050565b60005b8381101561182557808201518184015260208101905061180a565b83811115611834576000848401525b50505050565b6000611845826117f1565b61184f81856117fc565b935061185f818560208601611807565b80840191505092915050565b6000611877828461183a565b915081905092915050565b7f4e487b7100000000000000000000000000000000000000000000000000000000600052602260045260246000fd5b600060028204905060018216806118c957607f821691505b6020821081036118dc576118db611882565b5b50919050565b60008190508160005260206000209050919050565b60008154611904816118b1565b61190e81866117fc565b94506001821660008114611929576001811461193a5761196d565b60ff1983168652818601935061196d565b611943856118e2565b60005b8381101561196557815481890152600182019150602081019050611946565b838801955050505b50505092915050565b600061198282846118f7565b915081905092915050565b7f5468652073747564656e7420646f6573206e6f742065786973742e0000000000600082015250565b60006119c3601b8361129d565b91506119ce8261198d565b602082019050919050565b600060208201905081810360008301526119f2816119b6565b905091905056fea2646970667358221220b227fc496de8cd6d0d1eb62d47e09d7d8f83198b65f4167a2f7717d4efb18a8164736f6c634300080d0033",
					"opcodes": "PUSH1 0x80 PUSH1 0x40 MSTORE CALLVALUE DUP1 ISZERO PUSH2 0x10 JUMPI PUSH1 0x0 DUP1 REVERT JUMPDEST POP PUSH2 0x2D PUSH2 0x22 PUSH2 0x32 PUSH1 0x20 SHL PUSH1 0x20 SHR JUMP JUMPDEST PUSH2 0x3A PUSH1 0x20 SHL PUSH1 0x20 SHR JUMP JUMPDEST PUSH2 0xFE JUMP JUMPDEST PUSH1 0x0 CALLER SWAP1 POP SWAP1 JUMP JUMPDEST PUSH1 0x0 DUP1 PUSH1 0x0 SWAP1 SLOAD SWAP1 PUSH2 0x100 EXP SWAP1 DIV PUSH20 0xFFFFFFFFFFFFFFFFFFFFFFFFFFFFFFFFFFFFFFFF AND SWAP1 POP DUP2 PUSH1 0x0 DUP1 PUSH2 0x100 EXP DUP2 SLOAD DUP2 PUSH20 0xFFFFFFFFFFFFFFFFFFFFFFFFFFFFFFFFFFFFFFFF MUL NOT AND SWAP1 DUP4 PUSH20 0xFFFFFFFFFFFFFFFFFFFFFFFFFFFFFFFFFFFFFFFF AND MUL OR SWAP1 SSTORE POP DUP2 PUSH20 0xFFFFFFFFFFFFFFFFFFFFFFFFFFFFFFFFFFFFFFFF AND DUP2 PUSH20 0xFFFFFFFFFFFFFFFFFFFFFFFFFFFFFFFFFFFFFFFF AND PUSH32 0x8BE0079C531659141344CD1FD0A4F28419497F9722A3DAAFE3B4186F6B6457E0 PUSH1 0x40 MLOAD PUSH1 0x40 MLOAD DUP1 SWAP2 SUB SWAP1 LOG3 POP POP JUMP JUMPDEST PUSH2 0x1A2F DUP1 PUSH2 0x10D PUSH1 0x0 CODECOPY PUSH1 0x0 RETURN INVALID PUSH1 0x80 PUSH1 0x40 MSTORE CALLVALUE DUP1 ISZERO PUSH2 0x10 JUMPI PUSH1 0x0 DUP1 REVERT JUMPDEST POP PUSH1 0x4 CALLDATASIZE LT PUSH2 0x9E JUMPI PUSH1 0x0 CALLDATALOAD PUSH1 0xE0 SHR DUP1 PUSH4 0x715018A6 GT PUSH2 0x66 JUMPI DUP1 PUSH4 0x715018A6 EQ PUSH2 0x157 JUMPI DUP1 PUSH4 0x8DA5CB5B EQ PUSH2 0x161 JUMPI DUP1 PUSH4 0xCE28C807 EQ PUSH2 0x17F JUMPI DUP1 PUSH4 0xF2FDE38B EQ PUSH2 0x1AF JUMPI DUP1 PUSH4 0xFA489605 EQ PUSH2 0x1CB JUMPI PUSH2 0x9E JUMP JUMPDEST DUP1 PUSH4 0xDC0FFB1 EQ PUSH2 0xA3 JUMPI DUP1 PUSH4 0x10468C2F EQ PUSH2 0xD3 JUMPI DUP1 PUSH4 0x35D1F30D EQ PUSH2 0xEF JUMPI DUP1 PUSH4 0x3C8C07BC EQ PUSH2 0x10B JUMPI DUP1 PUSH4 0x5EB050CF EQ PUSH2 0x13B JUMPI JUMPDEST PUSH1 0x0 DUP1 REVERT JUMPDEST PUSH2 0xBD PUSH1 0x4 DUP1 CALLDATASIZE SUB DUP2 ADD SWAP1 PUSH2 0xB8 SWAP2 SWAP1 PUSH2 0xF43 JUMP JUMPDEST PUSH2 0x1E9 JUMP JUMPDEST PUSH1 0x40 MLOAD PUSH2 0xCA SWAP2 SWAP1 PUSH2 0xFA7 JUMP JUMPDEST PUSH1 0x40 MLOAD DUP1 SWAP2 SUB SWAP1 RETURN JUMPDEST PUSH2 0xED PUSH1 0x4 DUP1 CALLDATASIZE SUB DUP2 ADD SWAP1 PUSH2 0xE8 SWAP2 SWAP1 PUSH2 0x1080 JUMP JUMPDEST PUSH2 0x208 JUMP JUMPDEST STOP JUMPDEST PUSH2 0x109 PUSH1 0x4 DUP1 CALLDATASIZE SUB DUP2 ADD SWAP1 PUSH2 0x104 SWAP2 SWAP1 PUSH2 0x1105 JUMP JUMPDEST PUSH2 0x320 JUMP JUMPDEST STOP JUMPDEST PUSH2 0x125 PUSH1 0x4 DUP1 CALLDATASIZE SUB DUP2 ADD SWAP1 PUSH2 0x120 SWAP2 SWAP1 PUSH2 0xF43 JUMP JUMPDEST PUSH2 0x3DB JUMP JUMPDEST PUSH1 0x40 MLOAD PUSH2 0x132 SWAP2 SWAP1 PUSH2 0x115E JUMP JUMPDEST PUSH1 0x40 MLOAD DUP1 SWAP2 SUB SWAP1 RETURN JUMPDEST PUSH2 0x155 PUSH1 0x4 DUP1 CALLDATASIZE SUB DUP2 ADD SWAP1 PUSH2 0x150 SWAP2 SWAP1 PUSH2 0x11A5 JUMP JUMPDEST PUSH2 0x498 JUMP JUMPDEST STOP JUMPDEST PUSH2 0x15F PUSH2 0x702 JUMP JUMPDEST STOP JUMPDEST PUSH2 0x169 PUSH2 0x716 JUMP JUMPDEST PUSH1 0x40 MLOAD PUSH2 0x176 SWAP2 SWAP1 PUSH2 0x1228 JUMP JUMPDEST PUSH1 0x40 MLOAD DUP1 SWAP2 SUB SWAP1 RETURN JUMPDEST PUSH2 0x199 PUSH1 0x4 DUP1 CALLDATASIZE SUB DUP2 ADD SWAP1 PUSH2 0x194 SWAP2 SWAP1 PUSH2 0x1243 JUMP JUMPDEST PUSH2 0x73F JUMP JUMPDEST PUSH1 0x40 MLOAD PUSH2 0x1A6 SWAP2 SWAP1 PUSH2 0x115E JUMP JUMPDEST PUSH1 0x40 MLOAD DUP1 SWAP2 SUB SWAP1 RETURN JUMPDEST PUSH2 0x1C9 PUSH1 0x4 DUP1 CALLDATASIZE SUB DUP2 ADD SWAP1 PUSH2 0x1C4 SWAP2 SWAP1 PUSH2 0x1270 JUMP JUMPDEST PUSH2 0x9AA JUMP JUMPDEST STOP JUMPDEST PUSH2 0x1D3 PUSH2 0xA2D JUMP JUMPDEST PUSH1 0x40 MLOAD PUSH2 0x1E0 SWAP2 SWAP1 PUSH2 0x115E JUMP JUMPDEST PUSH1 0x40 MLOAD DUP1 SWAP2 SUB SWAP1 RETURN JUMPDEST PUSH1 0x0 PUSH2 0x1F3 PUSH2 0xB13 JUMP JUMPDEST PUSH2 0x3E8 PUSH2 0x1FF DUP4 PUSH2 0x3DB JUMP JUMPDEST LT ISZERO SWAP1 POP SWAP2 SWAP1 POP JUMP JUMPDEST PUSH2 0x210 PUSH2 0xB13 JUMP JUMPDEST PUSH1 0x2 PUSH1 0x40 MLOAD DUP1 PUSH1 0x80 ADD PUSH1 0x40 MSTORE DUP1 DUP6 DUP6 DUP1 DUP1 PUSH1 0x1F ADD PUSH1 0x20 DUP1 SWAP2 DIV MUL PUSH1 0x20 ADD PUSH1 0x40 MLOAD SWAP1 DUP2 ADD PUSH1 0x40 MSTORE DUP1 SWAP4 SWAP3 SWAP2 SWAP1 DUP2 DUP2 MSTORE PUSH1 0x20 ADD DUP4 DUP4 DUP1 DUP3 DUP5 CALLDATACOPY PUSH1 0x0 DUP2 DUP5 ADD MSTORE PUSH1 0x1F NOT PUSH1 0x1F DUP3 ADD AND SWAP1 POP DUP1 DUP4 ADD SWAP3 POP POP POP POP POP POP POP DUP2 MSTORE PUSH1 0x20 ADD PUSH1 0x0 DUP2 MSTORE PUSH1 0x20 ADD PUSH1 0x0 DUP2 MSTORE PUSH1 0x20 ADD PUSH1 0x0 DUP2 MSTORE POP SWAP1 DUP1 PUSH1 0x1 DUP2 SLOAD ADD DUP1 DUP3 SSTORE DUP1 SWAP2 POP POP PUSH1 0x1 SWAP1 SUB SWAP1 PUSH1 0x0 MSTORE PUSH1 0x20 PUSH1 0x0 KECCAK256 SWAP1 PUSH1 0x4 MUL ADD PUSH1 0x0 SWAP1 SWAP2 SWAP1 SWAP2 SWAP1 SWAP2 POP PUSH1 0x0 DUP3 ADD MLOAD DUP2 PUSH1 0x0 ADD SWAP1 DUP1 MLOAD SWAP1 PUSH1 0x20 ADD SWAP1 PUSH2 0x2BF SWAP3 SWAP2 SWAP1 PUSH2 0xD46 JUMP JUMPDEST POP PUSH1 0x20 DUP3 ADD MLOAD DUP2 PUSH1 0x1 ADD SSTORE PUSH1 0x40 DUP3 ADD MLOAD DUP2 PUSH1 0x2 ADD SSTORE PUSH1 0x60 DUP3 ADD MLOAD DUP2 PUSH1 0x3 ADD SSTORE POP POP PUSH32 0xF37B44C60D951A102E1B401BCD083688102E58C75AAE387FF9884AA0F9FF33DC DUP4 DUP4 DUP4 PUSH1 0x40 MLOAD PUSH2 0x313 SWAP4 SWAP3 SWAP2 SWAP1 PUSH2 0x12DB JUMP JUMPDEST PUSH1 0x40 MLOAD DUP1 SWAP2 SUB SWAP1 LOG1 POP POP POP JUMP JUMPDEST PUSH2 0x328 PUSH2 0xB13 JUMP JUMPDEST DUP1 PUSH1 0x3 PUSH1 0x0 DUP5 PUSH1 0x2 DUP2 GT ISZERO PUSH2 0x340 JUMPI PUSH2 0x33F PUSH2 0x130D JUMP JUMPDEST JUMPDEST PUSH1 0x2 DUP2 GT ISZERO PUSH2 0x352 JUMPI PUSH2 0x351 PUSH2 0x130D JUMP JUMPDEST JUMPDEST DUP2 MSTORE PUSH1 0x20 ADD SWAP1 DUP2 MSTORE PUSH1 0x20 ADD PUSH1 0x0 KECCAK256 PUSH1 0x0 PUSH2 0x100 EXP DUP2 SLOAD DUP2 PUSH20 0xFFFFFFFFFFFFFFFFFFFFFFFFFFFFFFFFFFFFFFFF MUL NOT AND SWAP1 DUP4 PUSH20 0xFFFFFFFFFFFFFFFFFFFFFFFFFFFFFFFFFFFFFFFF AND MUL OR SWAP1 SSTORE POP PUSH32 0x4C81DB63B6BAB09B12E49B76A90A6CA4A9CFAC4A8AABCEFC1F8A249F0F4E6919 DUP3 DUP3 PUSH1 0x40 MLOAD PUSH2 0x3CF SWAP3 SWAP2 SWAP1 PUSH2 0x1384 JUMP JUMPDEST PUSH1 0x40 MLOAD DUP1 SWAP2 SUB SWAP1 LOG1 POP POP JUMP JUMPDEST PUSH1 0x0 PUSH2 0x3E5 PUSH2 0xB13 JUMP JUMPDEST PUSH1 0x0 PUSH2 0x3F0 DUP4 PUSH2 0xB91 JUMP JUMPDEST SWAP1 POP PUSH1 0x3 PUSH1 0x64 PUSH1 0x2 DUP4 DUP2 SLOAD DUP2 LT PUSH2 0x40A JUMPI PUSH2 0x409 PUSH2 0x13AD JUMP JUMPDEST JUMPDEST SWAP1 PUSH1 0x0 MSTORE PUSH1 0x20 PUSH1 0x0 KECCAK256 SWAP1 PUSH1 0x4 MUL ADD PUSH1 0x2 ADD SLOAD PUSH1 0x2 DUP5 DUP2 SLOAD DUP2 LT PUSH2 0x430 JUMPI PUSH2 0x42F PUSH2 0x13AD JUMP JUMPDEST JUMPDEST SWAP1 PUSH1 0x0 MSTORE PUSH1 0x20 PUSH1 0x0 KECCAK256 SWAP1 PUSH1 0x4 MUL ADD PUSH1 0x3 ADD SLOAD PUSH1 0x2 DUP6 DUP2 SLOAD DUP2 LT PUSH2 0x456 JUMPI PUSH2 0x455 PUSH2 0x13AD JUMP JUMPDEST JUMPDEST SWAP1 PUSH1 0x0 MSTORE PUSH1 0x20 PUSH1 0x0 KECCAK256 SWAP1 PUSH1 0x4 MUL ADD PUSH1 0x1 ADD SLOAD PUSH2 0x472 SWAP2 SWAP1 PUSH2 0x140B JUMP JUMPDEST PUSH2 0x47C SWAP2 SWAP1 PUSH2 0x140B JUMP JUMPDEST PUSH2 0x486 SWAP2 SWAP1 PUSH2 0x1461 JUMP JUMPDEST PUSH2 0x490 SWAP2 SWAP1 PUSH2 0x14EA JUMP JUMPDEST SWAP2 POP POP SWAP2 SWAP1 POP JUMP JUMPDEST PUSH1 0x0 PUSH2 0x4E7 DUP5 DUP5 DUP1 DUP1 PUSH1 0x1F ADD PUSH1 0x20 DUP1 SWAP2 DIV MUL PUSH1 0x20 ADD PUSH1 0x40 MLOAD SWAP1 DUP2 ADD PUSH1 0x40 MSTORE DUP1 SWAP4 SWAP3 SWAP2 SWAP1 DUP2 DUP2 MSTORE PUSH1 0x20 ADD DUP4 DUP4 DUP1 DUP3 DUP5 CALLDATACOPY PUSH1 0x0 DUP2 DUP5 ADD MSTORE PUSH1 0x1F NOT PUSH1 0x1F DUP3 ADD AND SWAP1 POP DUP1 DUP4 ADD SWAP3 POP POP POP POP POP POP POP PUSH2 0xB91 JUMP JUMPDEST SWAP1 POP PUSH1 0x3 PUSH1 0x0 DUP7 PUSH1 0x2 DUP2 GT ISZERO PUSH2 0x500 JUMPI PUSH2 0x4FF PUSH2 0x130D JUMP JUMPDEST JUMPDEST PUSH1 0x2 DUP2 GT ISZERO PUSH2 0x512 JUMPI PUSH2 0x511 PUSH2 0x130D JUMP JUMPDEST JUMPDEST DUP2 MSTORE PUSH1 0x20 ADD SWAP1 DUP2 MSTORE PUSH1 0x20 ADD PUSH1 0x0 KECCAK256 PUSH1 0x0 SWAP1 SLOAD SWAP1 PUSH2 0x100 EXP SWAP1 DIV PUSH20 0xFFFFFFFFFFFFFFFFFFFFFFFFFFFFFFFFFFFFFFFF AND PUSH20 0xFFFFFFFFFFFFFFFFFFFFFFFFFFFFFFFFFFFFFFFF AND CALLER PUSH20 0xFFFFFFFFFFFFFFFFFFFFFFFFFFFFFFFFFFFFFFFF AND EQ PUSH2 0x5AE JUMPI PUSH1 0x40 MLOAD PUSH32 0x8C379A000000000000000000000000000000000000000000000000000000000 DUP2 MSTORE PUSH1 0x4 ADD PUSH2 0x5A5 SWAP1 PUSH2 0x158D JUMP JUMPDEST PUSH1 0x40 MLOAD DUP1 SWAP2 SUB SWAP1 REVERT JUMPDEST PUSH1 0x0 PUSH1 0x2 DUP2 GT ISZERO PUSH2 0x5C2 JUMPI PUSH2 0x5C1 PUSH2 0x130D JUMP JUMPDEST JUMPDEST DUP6 PUSH1 0x2 DUP2 GT ISZERO PUSH2 0x5D5 JUMPI PUSH2 0x5D4 PUSH2 0x130D JUMP JUMPDEST JUMPDEST SUB PUSH2 0x609 JUMPI DUP2 PUSH1 0x2 DUP3 DUP2 SLOAD DUP2 LT PUSH2 0x5EF JUMPI PUSH2 0x5EE PUSH2 0x13AD JUMP JUMPDEST JUMPDEST SWAP1 PUSH1 0x0 MSTORE PUSH1 0x20 PUSH1 0x0 KECCAK256 SWAP1 PUSH1 0x4 MUL ADD PUSH1 0x1 ADD DUP2 SWAP1 SSTORE POP PUSH2 0x6FB JUMP JUMPDEST PUSH1 0x2 DUP1 DUP2 GT ISZERO PUSH2 0x61C JUMPI PUSH2 0x61B PUSH2 0x130D JUMP JUMPDEST JUMPDEST DUP6 PUSH1 0x2 DUP2 GT ISZERO PUSH2 0x62F JUMPI PUSH2 0x62E PUSH2 0x130D JUMP JUMPDEST JUMPDEST SUB PUSH2 0x663 JUMPI DUP2 PUSH1 0x2 DUP3 DUP2 SLOAD DUP2 LT PUSH2 0x649 JUMPI PUSH2 0x648 PUSH2 0x13AD JUMP JUMPDEST JUMPDEST SWAP1 PUSH1 0x0 MSTORE PUSH1 0x20 PUSH1 0x0 KECCAK256 SWAP1 PUSH1 0x4 MUL ADD PUSH1 0x3 ADD DUP2 SWAP1 SSTORE POP PUSH2 0x6FA JUMP JUMPDEST PUSH1 0x1 PUSH1 0x2 DUP2 GT ISZERO PUSH2 0x677 JUMPI PUSH2 0x676 PUSH2 0x130D JUMP JUMPDEST JUMPDEST DUP6 PUSH1 0x2 DUP2 GT ISZERO PUSH2 0x68A JUMPI PUSH2 0x689 PUSH2 0x130D JUMP JUMPDEST JUMPDEST SUB PUSH2 0x6BE JUMPI DUP2 PUSH1 0x2 DUP3 DUP2 SLOAD DUP2 LT PUSH2 0x6A4 JUMPI PUSH2 0x6A3 PUSH2 0x13AD JUMP JUMPDEST JUMPDEST SWAP1 PUSH1 0x0 MSTORE PUSH1 0x20 PUSH1 0x0 KECCAK256 SWAP1 PUSH1 0x4 MUL ADD PUSH1 0x2 ADD DUP2 SWAP1 SSTORE POP PUSH2 0x6F9 JUMP JUMPDEST PUSH1 0x40 MLOAD PUSH32 0x8C379A000000000000000000000000000000000000000000000000000000000 DUP2 MSTORE PUSH1 0x4 ADD PUSH2 0x6F0 SWAP1 PUSH2 0x15F9 JUMP JUMPDEST PUSH1 0x40 MLOAD DUP1 SWAP2 SUB SWAP1 REVERT JUMPDEST JUMPDEST JUMPDEST POP POP POP POP POP JUMP JUMPDEST PUSH2 0x70A PUSH2 0xB13 JUMP JUMPDEST PUSH2 0x714 PUSH1 0x0 PUSH2 0xC7A JUMP JUMPDEST JUMP JUMPDEST PUSH1 0x0 DUP1 PUSH1 0x0 SWAP1 SLOAD SWAP1 PUSH2 0x100 EXP SWAP1 DIV PUSH20 0xFFFFFFFFFFFFFFFFFFFFFFFFFFFFFFFFFFFFFFFF AND SWAP1 POP SWAP1 JUMP JUMPDEST PUSH1 0x0 PUSH1 0x3 PUSH1 0x0 DUP4 PUSH1 0x2 DUP2 GT ISZERO PUSH2 0x758 JUMPI PUSH2 0x757 PUSH2 0x130D JUMP JUMPDEST JUMPDEST PUSH1 0x2 DUP2 GT ISZERO PUSH2 0x76A JUMPI PUSH2 0x769 PUSH2 0x130D JUMP JUMPDEST JUMPDEST DUP2 MSTORE PUSH1 0x20 ADD SWAP1 DUP2 MSTORE PUSH1 0x20 ADD PUSH1 0x0 KECCAK256 PUSH1 0x0 SWAP1 SLOAD SWAP1 PUSH2 0x100 EXP SWAP1 DIV PUSH20 0xFFFFFFFFFFFFFFFFFFFFFFFFFFFFFFFFFFFFFFFF AND PUSH20 0xFFFFFFFFFFFFFFFFFFFFFFFFFFFFFFFFFFFFFFFF AND CALLER PUSH20 0xFFFFFFFFFFFFFFFFFFFFFFFFFFFFFFFFFFFFFFFF AND EQ PUSH2 0x806 JUMPI PUSH1 0x40 MLOAD PUSH32 0x8C379A000000000000000000000000000000000000000000000000000000000 DUP2 MSTORE PUSH1 0x4 ADD PUSH2 0x7FD SWAP1 PUSH2 0x168B JUMP JUMPDEST PUSH1 0x40 MLOAD DUP1 SWAP2 SUB SWAP1 REVERT JUMPDEST PUSH1 0x0 DUP1 PUSH1 0x0 JUMPDEST PUSH1 0x2 DUP1 SLOAD SWAP1 POP DUP2 LT ISZERO PUSH2 0x982 JUMPI PUSH1 0x0 PUSH1 0x2 DUP2 GT ISZERO PUSH2 0x82D JUMPI PUSH2 0x82C PUSH2 0x130D JUMP JUMPDEST JUMPDEST DUP6 PUSH1 0x2 DUP2 GT ISZERO PUSH2 0x840 JUMPI PUSH2 0x83F PUSH2 0x130D JUMP JUMPDEST JUMPDEST SUB PUSH2 0x88C JUMPI PUSH1 0x2 DUP2 DUP2 SLOAD DUP2 LT PUSH2 0x859 JUMPI PUSH2 0x858 PUSH2 0x13AD JUMP JUMPDEST JUMPDEST SWAP1 PUSH1 0x0 MSTORE PUSH1 0x20 PUSH1 0x0 KECCAK256 SWAP1 PUSH1 0x4 MUL ADD PUSH1 0x1 ADD SLOAD DUP4 PUSH2 0x876 SWAP2 SWAP1 PUSH2 0x140B JUMP JUMPDEST SWAP3 POP PUSH1 0x1 DUP3 PUSH2 0x885 SWAP2 SWAP1 PUSH2 0x140B JUMP JUMPDEST SWAP2 POP PUSH2 0x96F JUMP JUMPDEST PUSH1 0x2 DUP1 DUP2 GT ISZERO PUSH2 0x89F JUMPI PUSH2 0x89E PUSH2 0x130D JUMP JUMPDEST JUMPDEST DUP6 PUSH1 0x2 DUP2 GT ISZERO PUSH2 0x8B2 JUMPI PUSH2 0x8B1 PUSH2 0x130D JUMP JUMPDEST JUMPDEST SUB PUSH2 0x8FE JUMPI PUSH1 0x2 DUP2 DUP2 SLOAD DUP2 LT PUSH2 0x8CB JUMPI PUSH2 0x8CA PUSH2 0x13AD JUMP JUMPDEST JUMPDEST SWAP1 PUSH1 0x0 MSTORE PUSH1 0x20 PUSH1 0x0 KECCAK256 SWAP1 PUSH1 0x4 MUL ADD PUSH1 0x3 ADD SLOAD DUP4 PUSH2 0x8E8 SWAP2 SWAP1 PUSH2 0x140B JUMP JUMPDEST SWAP3 POP PUSH1 0x1 DUP3 PUSH2 0x8F7 SWAP2 SWAP1 PUSH2 0x140B JUMP JUMPDEST SWAP2 POP PUSH2 0x96E JUMP JUMPDEST PUSH1 0x1 PUSH1 0x2 DUP2 GT ISZERO PUSH2 0x912 JUMPI PUSH2 0x911 PUSH2 0x130D JUMP JUMPDEST JUMPDEST DUP6 PUSH1 0x2 DUP2 GT ISZERO PUSH2 0x925 JUMPI PUSH2 0x924 PUSH2 0x130D JUMP JUMPDEST JUMPDEST SUB PUSH2 0x96D JUMPI PUSH1 0x2 DUP2 DUP2 SLOAD DUP2 LT PUSH2 0x93E JUMPI PUSH2 0x93D PUSH2 0x13AD JUMP JUMPDEST JUMPDEST SWAP1 PUSH1 0x0 MSTORE PUSH1 0x20 PUSH1 0x0 KECCAK256 SWAP1 PUSH1 0x4 MUL ADD PUSH1 0x2 ADD SLOAD DUP4 PUSH2 0x95B SWAP2 SWAP1 PUSH2 0x140B JUMP JUMPDEST SWAP3 POP PUSH1 0x1 DUP3 PUSH2 0x96A SWAP2 SWAP1 PUSH2 0x140B JUMP JUMPDEST SWAP2 POP JUMPDEST JUMPDEST JUMPDEST DUP1 DUP1 PUSH2 0x97A SWAP1 PUSH2 0x16AB JUMP JUMPDEST SWAP2 POP POP PUSH2 0x80C JUMP JUMPDEST POP PUSH1 0x0 DUP2 PUSH1 0x64 DUP5 PUSH2 0x993 SWAP2 SWAP1 PUSH2 0x1461 JUMP JUMPDEST PUSH2 0x99D SWAP2 SWAP1 PUSH2 0x14EA JUMP JUMPDEST SWAP1 POP DUP1 SWAP4 POP POP POP POP SWAP2 SWAP1 POP JUMP JUMPDEST PUSH2 0x9B2 PUSH2 0xB13 JUMP JUMPDEST PUSH1 0x0 PUSH20 0xFFFFFFFFFFFFFFFFFFFFFFFFFFFFFFFFFFFFFFFF AND DUP2 PUSH20 0xFFFFFFFFFFFFFFFFFFFFFFFFFFFFFFFFFFFFFFFF AND SUB PUSH2 0xA21 JUMPI PUSH1 0x40 MLOAD PUSH32 0x8C379A000000000000000000000000000000000000000000000000000000000 DUP2 MSTORE PUSH1 0x4 ADD PUSH2 0xA18 SWAP1 PUSH2 0x1765 JUMP JUMPDEST PUSH1 0x40 MLOAD DUP1 SWAP2 SUB SWAP1 REVERT JUMPDEST PUSH2 0xA2A DUP2 PUSH2 0xC7A JUMP JUMPDEST POP JUMP JUMPDEST PUSH1 0x0 PUSH2 0xA37 PUSH2 0xB13 JUMP JUMPDEST PUSH1 0x0 DUP1 PUSH1 0x0 JUMPDEST PUSH1 0x2 DUP1 SLOAD SWAP1 POP DUP2 LT ISZERO PUSH2 0xAFF JUMPI PUSH1 0x2 DUP2 DUP2 SLOAD DUP2 LT PUSH2 0xA5E JUMPI PUSH2 0xA5D PUSH2 0x13AD JUMP JUMPDEST JUMPDEST SWAP1 PUSH1 0x0 MSTORE PUSH1 0x20 PUSH1 0x0 KECCAK256 SWAP1 PUSH1 0x4 MUL ADD PUSH1 0x2 ADD SLOAD PUSH1 0x2 DUP3 DUP2 SLOAD DUP2 LT PUSH2 0xA84 JUMPI PUSH2 0xA83 PUSH2 0x13AD JUMP JUMPDEST JUMPDEST SWAP1 PUSH1 0x0 MSTORE PUSH1 0x20 PUSH1 0x0 KECCAK256 SWAP1 PUSH1 0x4 MUL ADD PUSH1 0x3 ADD SLOAD PUSH1 0x2 DUP4 DUP2 SLOAD DUP2 LT PUSH2 0xAAA JUMPI PUSH2 0xAA9 PUSH2 0x13AD JUMP JUMPDEST JUMPDEST SWAP1 PUSH1 0x0 MSTORE PUSH1 0x20 PUSH1 0x0 KECCAK256 SWAP1 PUSH1 0x4 MUL ADD PUSH1 0x1 ADD SLOAD PUSH2 0xAC6 SWAP2 SWAP1 PUSH2 0x140B JUMP JUMPDEST PUSH2 0xAD0 SWAP2 SWAP1 PUSH2 0x140B JUMP JUMPDEST DUP4 PUSH2 0xADB SWAP2 SWAP1 PUSH2 0x140B JUMP JUMPDEST SWAP3 POP PUSH1 0x3 DUP3 PUSH2 0xAEA SWAP2 SWAP1 PUSH2 0x140B JUMP JUMPDEST SWAP2 POP DUP1 DUP1 PUSH2 0xAF7 SWAP1 PUSH2 0x16AB JUMP JUMPDEST SWAP2 POP POP PUSH2 0xA3D JUMP JUMPDEST POP DUP1 DUP3 PUSH2 0xB0C SWAP2 SWAP1 PUSH2 0x14EA JUMP JUMPDEST SWAP3 POP POP POP SWAP1 JUMP JUMPDEST PUSH2 0xB1B PUSH2 0xD3E JUMP JUMPDEST PUSH20 0xFFFFFFFFFFFFFFFFFFFFFFFFFFFFFFFFFFFFFFFF AND PUSH2 0xB39 PUSH2 0x716 JUMP JUMPDEST PUSH20 0xFFFFFFFFFFFFFFFFFFFFFFFFFFFFFFFFFFFFFFFF AND EQ PUSH2 0xB8F JUMPI PUSH1 0x40 MLOAD PUSH32 0x8C379A000000000000000000000000000000000000000000000000000000000 DUP2 MSTORE PUSH1 0x4 ADD PUSH2 0xB86 SWAP1 PUSH2 0x17D1 JUMP JUMPDEST PUSH1 0x40 MLOAD DUP1 SWAP2 SUB SWAP1 REVERT JUMPDEST JUMP JUMPDEST PUSH1 0x0 DUP1 PUSH1 0x0 SWAP1 POP JUMPDEST PUSH1 0x2 DUP1 SLOAD SWAP1 POP DUP2 LT ISZERO PUSH2 0xC39 JUMPI DUP3 PUSH1 0x40 MLOAD PUSH1 0x20 ADD PUSH2 0xBB7 SWAP2 SWAP1 PUSH2 0x186B JUMP JUMPDEST PUSH1 0x40 MLOAD PUSH1 0x20 DUP2 DUP4 SUB SUB DUP2 MSTORE SWAP1 PUSH1 0x40 MSTORE DUP1 MLOAD SWAP1 PUSH1 0x20 ADD KECCAK256 PUSH1 0x2 DUP3 DUP2 SLOAD DUP2 LT PUSH2 0xBE1 JUMPI PUSH2 0xBE0 PUSH2 0x13AD JUMP JUMPDEST JUMPDEST SWAP1 PUSH1 0x0 MSTORE PUSH1 0x20 PUSH1 0x0 KECCAK256 SWAP1 PUSH1 0x4 MUL ADD PUSH1 0x0 ADD PUSH1 0x40 MLOAD PUSH1 0x20 ADD PUSH2 0xC02 SWAP2 SWAP1 PUSH2 0x1976 JUMP JUMPDEST PUSH1 0x40 MLOAD PUSH1 0x20 DUP2 DUP4 SUB SUB DUP2 MSTORE SWAP1 PUSH1 0x40 MSTORE DUP1 MLOAD SWAP1 PUSH1 0x20 ADD KECCAK256 SUB PUSH2 0xC26 JUMPI DUP1 SWAP2 POP POP PUSH2 0xC75 JUMP JUMPDEST DUP1 DUP1 PUSH2 0xC31 SWAP1 PUSH2 0x16AB JUMP JUMPDEST SWAP2 POP POP PUSH2 0xB99 JUMP JUMPDEST POP PUSH1 0x40 MLOAD PUSH32 0x8C379A000000000000000000000000000000000000000000000000000000000 DUP2 MSTORE PUSH1 0x4 ADD PUSH2 0xC6C SWAP1 PUSH2 0x19D9 JUMP JUMPDEST PUSH1 0x40 MLOAD DUP1 SWAP2 SUB SWAP1 REVERT JUMPDEST SWAP2 SWAP1 POP JUMP JUMPDEST PUSH1 0x0 DUP1 PUSH1 0x0 SWAP1 SLOAD SWAP1 PUSH2 0x100 EXP SWAP1 DIV PUSH20 0xFFFFFFFFFFFFFFFFFFFFFFFFFFFFFFFFFFFFFFFF AND SWAP1 POP DUP2 PUSH1 0x0 DUP1 PUSH2 0x100 EXP DUP2 SLOAD DUP2 PUSH20 0xFFFFFFFFFFFFFFFFFFFFFFFFFFFFFFFFFFFFFFFF MUL NOT AND SWAP1 DUP4 PUSH20 0xFFFFFFFFFFFFFFFFFFFFFFFFFFFFFFFFFFFFFFFF AND MUL OR SWAP1 SSTORE POP DUP2 PUSH20 0xFFFFFFFFFFFFFFFFFFFFFFFFFFFFFFFFFFFFFFFF AND DUP2 PUSH20 0xFFFFFFFFFFFFFFFFFFFFFFFFFFFFFFFFFFFFFFFF AND PUSH32 0x8BE0079C531659141344CD1FD0A4F28419497F9722A3DAAFE3B4186F6B6457E0 PUSH1 0x40 MLOAD PUSH1 0x40 MLOAD DUP1 SWAP2 SUB SWAP1 LOG3 POP POP JUMP JUMPDEST PUSH1 0x0 CALLER SWAP1 POP SWAP1 JUMP JUMPDEST DUP3 DUP1 SLOAD PUSH2 0xD52 SWAP1 PUSH2 0x18B1 JUMP JUMPDEST SWAP1 PUSH1 0x0 MSTORE PUSH1 0x20 PUSH1 0x0 KECCAK256 SWAP1 PUSH1 0x1F ADD PUSH1 0x20 SWAP1 DIV DUP2 ADD SWAP3 DUP3 PUSH2 0xD74 JUMPI PUSH1 0x0 DUP6 SSTORE PUSH2 0xDBB JUMP JUMPDEST DUP3 PUSH1 0x1F LT PUSH2 0xD8D JUMPI DUP1 MLOAD PUSH1 0xFF NOT AND DUP4 DUP1 ADD OR DUP6 SSTORE PUSH2 0xDBB JUMP JUMPDEST DUP3 DUP1 ADD PUSH1 0x1 ADD DUP6 SSTORE DUP3 ISZERO PUSH2 0xDBB JUMPI SWAP2 DUP3 ADD JUMPDEST DUP3 DUP2 GT ISZERO PUSH2 0xDBA JUMPI DUP3 MLOAD DUP3 SSTORE SWAP2 PUSH1 0x20 ADD SWAP2 SWAP1 PUSH1 0x1 ADD SWAP1 PUSH2 0xD9F JUMP JUMPDEST JUMPDEST POP SWAP1 POP PUSH2 0xDC8 SWAP2 SWAP1 PUSH2 0xDCC JUMP JUMPDEST POP SWAP1 JUMP JUMPDEST JUMPDEST DUP1 DUP3 GT ISZERO PUSH2 0xDE5 JUMPI PUSH1 0x0 DUP2 PUSH1 0x0 SWAP1 SSTORE POP PUSH1 0x1 ADD PUSH2 0xDCD JUMP JUMPDEST POP SWAP1 JUMP JUMPDEST PUSH1 0x0 PUSH1 0x40 MLOAD SWAP1 POP SWAP1 JUMP JUMPDEST PUSH1 0x0 DUP1 REVERT JUMPDEST PUSH1 0x0 DUP1 REVERT JUMPDEST PUSH1 0x0 DUP1 REVERT JUMPDEST PUSH1 0x0 DUP1 REVERT JUMPDEST PUSH1 0x0 PUSH1 0x1F NOT PUSH1 0x1F DUP4 ADD AND SWAP1 POP SWAP2 SWAP1 POP JUMP JUMPDEST PUSH32 0x4E487B7100000000000000000000000000000000000000000000000000000000 PUSH1 0x0 MSTORE PUSH1 0x41 PUSH1 0x4 MSTORE PUSH1 0x24 PUSH1 0x0 REVERT JUMPDEST PUSH2 0xE50 DUP3 PUSH2 0xE07 JUMP JUMPDEST DUP2 ADD DUP2 DUP2 LT PUSH8 0xFFFFFFFFFFFFFFFF DUP3 GT OR ISZERO PUSH2 0xE6F JUMPI PUSH2 0xE6E PUSH2 0xE18 JUMP JUMPDEST JUMPDEST DUP1 PUSH1 0x40 MSTORE POP POP POP JUMP JUMPDEST PUSH1 0x0 PUSH2 0xE82 PUSH2 0xDE9 JUMP JUMPDEST SWAP1 POP PUSH2 0xE8E DUP3 DUP3 PUSH2 0xE47 JUMP JUMPDEST SWAP2 SWAP1 POP JUMP JUMPDEST PUSH1 0x0 PUSH8 0xFFFFFFFFFFFFFFFF DUP3 GT ISZERO PUSH2 0xEAE JUMPI PUSH2 0xEAD PUSH2 0xE18 JUMP JUMPDEST JUMPDEST PUSH2 0xEB7 DUP3 PUSH2 0xE07 JUMP JUMPDEST SWAP1 POP PUSH1 0x20 DUP2 ADD SWAP1 POP SWAP2 SWAP1 POP JUMP JUMPDEST DUP3 DUP2 DUP4 CALLDATACOPY PUSH1 0x0 DUP4 DUP4 ADD MSTORE POP POP POP JUMP JUMPDEST PUSH1 0x0 PUSH2 0xEE6 PUSH2 0xEE1 DUP5 PUSH2 0xE93 JUMP JUMPDEST PUSH2 0xE78 JUMP JUMPDEST SWAP1 POP DUP3 DUP2 MSTORE PUSH1 0x20 DUP2 ADD DUP5 DUP5 DUP5 ADD GT ISZERO PUSH2 0xF02 JUMPI PUSH2 0xF01 PUSH2 0xE02 JUMP JUMPDEST JUMPDEST PUSH2 0xF0D DUP5 DUP3 DUP6 PUSH2 0xEC4 JUMP JUMPDEST POP SWAP4 SWAP3 POP POP POP JUMP JUMPDEST PUSH1 0x0 DUP3 PUSH1 0x1F DUP4 ADD SLT PUSH2 0xF2A JUMPI PUSH2 0xF29 PUSH2 0xDFD JUMP JUMPDEST JUMPDEST DUP2 CALLDATALOAD PUSH2 0xF3A DUP5 DUP3 PUSH1 0x20 DUP7 ADD PUSH2 0xED3 JUMP JUMPDEST SWAP2 POP POP SWAP3 SWAP2 POP POP JUMP JUMPDEST PUSH1 0x0 PUSH1 0x20 DUP3 DUP5 SUB SLT ISZERO PUSH2 0xF59 JUMPI PUSH2 0xF58 PUSH2 0xDF3 JUMP JUMPDEST JUMPDEST PUSH1 0x0 DUP3 ADD CALLDATALOAD PUSH8 0xFFFFFFFFFFFFFFFF DUP2 GT ISZERO PUSH2 0xF77 JUMPI PUSH2 0xF76 PUSH2 0xDF8 JUMP JUMPDEST JUMPDEST PUSH2 0xF83 DUP5 DUP3 DUP6 ADD PUSH2 0xF15 JUMP JUMPDEST SWAP2 POP POP SWAP3 SWAP2 POP POP JUMP JUMPDEST PUSH1 0x0 DUP2 ISZERO ISZERO SWAP1 POP SWAP2 SWAP1 POP JUMP JUMPDEST PUSH2 0xFA1 DUP2 PUSH2 0xF8C JUMP JUMPDEST DUP3 MSTORE POP POP JUMP JUMPDEST PUSH1 0x0 PUSH1 0x20 DUP3 ADD SWAP1 POP PUSH2 0xFBC PUSH1 0x0 DUP4 ADD DUP5 PUSH2 0xF98 JUMP JUMPDEST SWAP3 SWAP2 POP POP JUMP JUMPDEST PUSH1 0x0 DUP1 REVERT JUMPDEST PUSH1 0x0 DUP1 REVERT JUMPDEST PUSH1 0x0 DUP1 DUP4 PUSH1 0x1F DUP5 ADD SLT PUSH2 0xFE2 JUMPI PUSH2 0xFE1 PUSH2 0xDFD JUMP JUMPDEST JUMPDEST DUP3 CALLDATALOAD SWAP1 POP PUSH8 0xFFFFFFFFFFFFFFFF DUP2 GT ISZERO PUSH2 0xFFF JUMPI PUSH2 0xFFE PUSH2 0xFC2 JUMP JUMPDEST JUMPDEST PUSH1 0x20 DUP4 ADD SWAP2 POP DUP4 PUSH1 0x1 DUP3 MUL DUP4 ADD GT ISZERO PUSH2 0x101B JUMPI PUSH2 0x101A PUSH2 0xFC7 JUMP JUMPDEST JUMPDEST SWAP3 POP SWAP3 SWAP1 POP JUMP JUMPDEST PUSH1 0x0 PUSH20 0xFFFFFFFFFFFFFFFFFFFFFFFFFFFFFFFFFFFFFFFF DUP3 AND SWAP1 POP SWAP2 SWAP1 POP JUMP JUMPDEST PUSH1 0x0 PUSH2 0x104D DUP3 PUSH2 0x1022 JUMP JUMPDEST SWAP1 POP SWAP2 SWAP1 POP JUMP JUMPDEST PUSH2 0x105D DUP2 PUSH2 0x1042 JUMP JUMPDEST DUP2 EQ PUSH2 0x1068 JUMPI PUSH1 0x0 DUP1 REVERT JUMPDEST POP JUMP JUMPDEST PUSH1 0x0 DUP2 CALLDATALOAD SWAP1 POP PUSH2 0x107A DUP2 PUSH2 0x1054 JUMP JUMPDEST SWAP3 SWAP2 POP POP JUMP JUMPDEST PUSH1 0x0 DUP1 PUSH1 0x0 PUSH1 0x40 DUP5 DUP7 SUB SLT ISZERO PUSH2 0x1099 JUMPI PUSH2 0x1098 PUSH2 0xDF3 JUMP JUMPDEST JUMPDEST PUSH1 0x0 DUP5 ADD CALLDATALOAD PUSH8 0xFFFFFFFFFFFFFFFF DUP2 GT ISZERO PUSH2 0x10B7 JUMPI PUSH2 0x10B6 PUSH2 0xDF8 JUMP JUMPDEST JUMPDEST PUSH2 0x10C3 DUP7 DUP3 DUP8 ADD PUSH2 0xFCC JUMP JUMPDEST SWAP4 POP SWAP4 POP POP PUSH1 0x20 PUSH2 0x10D6 DUP7 DUP3 DUP8 ADD PUSH2 0x106B JUMP JUMPDEST SWAP2 POP POP SWAP3 POP SWAP3 POP SWAP3 JUMP JUMPDEST PUSH1 0x3 DUP2 LT PUSH2 0x10ED JUMPI PUSH1 0x0 DUP1 REVERT JUMPDEST POP JUMP JUMPDEST PUSH1 0x0 DUP2 CALLDATALOAD SWAP1 POP PUSH2 0x10FF DUP2 PUSH2 0x10E0 JUMP JUMPDEST SWAP3 SWAP2 POP POP JUMP JUMPDEST PUSH1 0x0 DUP1 PUSH1 0x40 DUP4 DUP6 SUB SLT ISZERO PUSH2 0x111C JUMPI PUSH2 0x111B PUSH2 0xDF3 JUMP JUMPDEST JUMPDEST PUSH1 0x0 PUSH2 0x112A DUP6 DUP3 DUP7 ADD PUSH2 0x10F0 JUMP JUMPDEST SWAP3 POP POP PUSH1 0x20 PUSH2 0x113B DUP6 DUP3 DUP7 ADD PUSH2 0x106B JUMP JUMPDEST SWAP2 POP POP SWAP3 POP SWAP3 SWAP1 POP JUMP JUMPDEST PUSH1 0x0 DUP2 SWAP1 POP SWAP2 SWAP1 POP JUMP JUMPDEST PUSH2 0x1158 DUP2 PUSH2 0x1145 JUMP JUMPDEST DUP3 MSTORE POP POP JUMP JUMPDEST PUSH1 0x0 PUSH1 0x20 DUP3 ADD SWAP1 POP PUSH2 0x1173 PUSH1 0x0 DUP4 ADD DUP5 PUSH2 0x114F JUMP JUMPDEST SWAP3 SWAP2 POP POP JUMP JUMPDEST PUSH2 0x1182 DUP2 PUSH2 0x1145 JUMP JUMPDEST DUP2 EQ PUSH2 0x118D JUMPI PUSH1 0x0 DUP1 REVERT JUMPDEST POP JUMP JUMPDEST PUSH1 0x0 DUP2 CALLDATALOAD SWAP1 POP PUSH2 0x119F DUP2 PUSH2 0x1179 JUMP JUMPDEST SWAP3 SWAP2 POP POP JUMP JUMPDEST PUSH1 0x0 DUP1 PUSH1 0x0 DUP1 PUSH1 0x60 DUP6 DUP8 SUB SLT ISZERO PUSH2 0x11BF JUMPI PUSH2 0x11BE PUSH2 0xDF3 JUMP JUMPDEST JUMPDEST PUSH1 0x0 PUSH2 0x11CD DUP8 DUP3 DUP9 ADD PUSH2 0x10F0 JUMP JUMPDEST SWAP5 POP POP PUSH1 0x20 DUP6 ADD CALLDATALOAD PUSH8 0xFFFFFFFFFFFFFFFF DUP2 GT ISZERO PUSH2 0x11EE JUMPI PUSH2 0x11ED PUSH2 0xDF8 JUMP JUMPDEST JUMPDEST PUSH2 0x11FA DUP8 DUP3 DUP9 ADD PUSH2 0xFCC JUMP JUMPDEST SWAP4 POP SWAP4 POP POP PUSH1 0x40 PUSH2 0x120D DUP8 DUP3 DUP9 ADD PUSH2 0x1190 JUMP JUMPDEST SWAP2 POP POP SWAP3 SWAP6 SWAP2 SWAP5 POP SWAP3 POP JUMP JUMPDEST PUSH2 0x1222 DUP2 PUSH2 0x1042 JUMP JUMPDEST DUP3 MSTORE POP POP JUMP JUMPDEST PUSH1 0x0 PUSH1 0x20 DUP3 ADD SWAP1 POP PUSH2 0x123D PUSH1 0x0 DUP4 ADD DUP5 PUSH2 0x1219 JUMP JUMPDEST SWAP3 SWAP2 POP POP JUMP JUMPDEST PUSH1 0x0 PUSH1 0x20 DUP3 DUP5 SUB SLT ISZERO PUSH2 0x1259 JUMPI PUSH2 0x1258 PUSH2 0xDF3 JUMP JUMPDEST JUMPDEST PUSH1 0x0 PUSH2 0x1267 DUP5 DUP3 DUP6 ADD PUSH2 0x10F0 JUMP JUMPDEST SWAP2 POP POP SWAP3 SWAP2 POP POP JUMP JUMPDEST PUSH1 0x0 PUSH1 0x20 DUP3 DUP5 SUB SLT ISZERO PUSH2 0x1286 JUMPI PUSH2 0x1285 PUSH2 0xDF3 JUMP JUMPDEST JUMPDEST PUSH1 0x0 PUSH2 0x1294 DUP5 DUP3 DUP6 ADD PUSH2 0x106B JUMP JUMPDEST SWAP2 POP POP SWAP3 SWAP2 POP POP JUMP JUMPDEST PUSH1 0x0 DUP3 DUP3 MSTORE PUSH1 0x20 DUP3 ADD SWAP1 POP SWAP3 SWAP2 POP POP JUMP JUMPDEST PUSH1 0x0 PUSH2 0x12BA DUP4 DUP6 PUSH2 0x129D JUMP JUMPDEST SWAP4 POP PUSH2 0x12C7 DUP4 DUP6 DUP5 PUSH2 0xEC4 JUMP JUMPDEST PUSH2 0x12D0 DUP4 PUSH2 0xE07 JUMP JUMPDEST DUP5 ADD SWAP1 POP SWAP4 SWAP3 POP POP POP JUMP JUMPDEST PUSH1 0x0 PUSH1 0x40 DUP3 ADD SWAP1 POP DUP2 DUP2 SUB PUSH1 0x0 DUP4 ADD MSTORE PUSH2 0x12F6 DUP2 DUP6 DUP8 PUSH2 0x12AE JUMP JUMPDEST SWAP1 POP PUSH2 0x1305 PUSH1 0x20 DUP4 ADD DUP5 PUSH2 0x1219 JUMP JUMPDEST SWAP5 SWAP4 POP POP POP POP JUMP JUMPDEST PUSH32 0x4E487B7100000000000000000000000000000000000000000000000000000000 PUSH1 0x0 MSTORE PUSH1 0x21 PUSH1 0x4 MSTORE PUSH1 0x24 PUSH1 0x0 REVERT JUMPDEST PUSH1 0x3 DUP2 LT PUSH2 0x134D JUMPI PUSH2 0x134C PUSH2 0x130D JUMP JUMPDEST JUMPDEST POP JUMP JUMPDEST PUSH1 0x0 DUP2 SWAP1 POP PUSH2 0x135E DUP3 PUSH2 0x133C JUMP JUMPDEST SWAP2 SWAP1 POP JUMP JUMPDEST PUSH1 0x0 PUSH2 0x136E DUP3 PUSH2 0x1350 JUMP JUMPDEST SWAP1 POP SWAP2 SWAP1 POP JUMP JUMPDEST PUSH2 0x137E DUP2 PUSH2 0x1363 JUMP JUMPDEST DUP3 MSTORE POP POP JUMP JUMPDEST PUSH1 0x0 PUSH1 0x40 DUP3 ADD SWAP1 POP PUSH2 0x1399 PUSH1 0x0 DUP4 ADD DUP6 PUSH2 0x1375 JUMP JUMPDEST PUSH2 0x13A6 PUSH1 0x20 DUP4 ADD DUP5 PUSH2 0x1219 JUMP JUMPDEST SWAP4 SWAP3 POP POP POP JUMP JUMPDEST PUSH32 0x4E487B7100000000000000000000000000000000000000000000000000000000 PUSH1 0x0 MSTORE PUSH1 0x32 PUSH1 0x4 MSTORE PUSH1 0x24 PUSH1 0x0 REVERT JUMPDEST PUSH32 0x4E487B7100000000000000000000000000000000000000000000000000000000 PUSH1 0x0 MSTORE PUSH1 0x11 PUSH1 0x4 MSTORE PUSH1 0x24 PUSH1 0x0 REVERT JUMPDEST PUSH1 0x0 PUSH2 0x1416 DUP3 PUSH2 0x1145 JUMP JUMPDEST SWAP2 POP PUSH2 0x1421 DUP4 PUSH2 0x1145 JUMP JUMPDEST SWAP3 POP DUP3 PUSH32 0xFFFFFFFFFFFFFFFFFFFFFFFFFFFFFFFFFFFFFFFFFFFFFFFFFFFFFFFFFFFFFFFF SUB DUP3 GT ISZERO PUSH2 0x1456 JUMPI PUSH2 0x1455 PUSH2 0x13DC JUMP JUMPDEST JUMPDEST DUP3 DUP3 ADD SWAP1 POP SWAP3 SWAP2 POP POP JUMP JUMPDEST PUSH1 0x0 PUSH2 0x146C DUP3 PUSH2 0x1145 JUMP JUMPDEST SWAP2 POP PUSH2 0x1477 DUP4 PUSH2 0x1145 JUMP JUMPDEST SWAP3 POP DUP2 PUSH32 0xFFFFFFFFFFFFFFFFFFFFFFFFFFFFFFFFFFFFFFFFFFFFFFFFFFFFFFFFFFFFFFFF DIV DUP4 GT DUP3 ISZERO ISZERO AND ISZERO PUSH2 0x14B0 JUMPI PUSH2 0x14AF PUSH2 0x13DC JUMP JUMPDEST JUMPDEST DUP3 DUP3 MUL SWAP1 POP SWAP3 SWAP2 POP POP JUMP JUMPDEST PUSH32 0x4E487B7100000000000000000000000000000000000000000000000000000000 PUSH1 0x0 MSTORE PUSH1 0x12 PUSH1 0x4 MSTORE PUSH1 0x24 PUSH1 0x0 REVERT JUMPDEST PUSH1 0x0 PUSH2 0x14F5 DUP3 PUSH2 0x1145 JUMP JUMPDEST SWAP2 POP PUSH2 0x1500 DUP4 PUSH2 0x1145 JUMP JUMPDEST SWAP3 POP DUP3 PUSH2 0x1510 JUMPI PUSH2 0x150F PUSH2 0x14BB JUMP JUMPDEST JUMPDEST DUP3 DUP3 DIV SWAP1 POP SWAP3 SWAP2 POP POP JUMP JUMPDEST PUSH32 0x596F7520617265206E6F74207468652074656163686572206F66207468697320 PUSH1 0x0 DUP3 ADD MSTORE PUSH32 0x73747564656E7420636F757273652E0000000000000000000000000000000000 PUSH1 0x20 DUP3 ADD MSTORE POP JUMP JUMPDEST PUSH1 0x0 PUSH2 0x1577 PUSH1 0x2F DUP4 PUSH2 0x129D JUMP JUMPDEST SWAP2 POP PUSH2 0x1582 DUP3 PUSH2 0x151B JUMP JUMPDEST PUSH1 0x40 DUP3 ADD SWAP1 POP SWAP2 SWAP1 POP JUMP JUMPDEST PUSH1 0x0 PUSH1 0x20 DUP3 ADD SWAP1 POP DUP2 DUP2 SUB PUSH1 0x0 DUP4 ADD MSTORE PUSH2 0x15A6 DUP2 PUSH2 0x156A JUMP JUMPDEST SWAP1 POP SWAP2 SWAP1 POP JUMP JUMPDEST PUSH32 0x436F75727365207479706520646F6573206E6F742065786973742E0000000000 PUSH1 0x0 DUP3 ADD MSTORE POP JUMP JUMPDEST PUSH1 0x0 PUSH2 0x15E3 PUSH1 0x1B DUP4 PUSH2 0x129D JUMP JUMPDEST SWAP2 POP PUSH2 0x15EE DUP3 PUSH2 0x15AD JUMP JUMPDEST PUSH1 0x20 DUP3 ADD SWAP1 POP SWAP2 SWAP1 POP JUMP JUMPDEST PUSH1 0x0 PUSH1 0x20 DUP3 ADD SWAP1 POP DUP2 DUP2 SUB PUSH1 0x0 DUP4 ADD MSTORE PUSH2 0x1612 DUP2 PUSH2 0x15D6 JUMP JUMPDEST SWAP1 POP SWAP2 SWAP1 POP JUMP JUMPDEST PUSH32 0x596F7520617265206E6F74207468652074656163686572206F66207468697320 PUSH1 0x0 DUP3 ADD MSTORE PUSH32 0x636C61737320636F757273652E00000000000000000000000000000000000000 PUSH1 0x20 DUP3 ADD MSTORE POP JUMP JUMPDEST PUSH1 0x0 PUSH2 0x1675 PUSH1 0x2D DUP4 PUSH2 0x129D JUMP JUMPDEST SWAP2 POP PUSH2 0x1680 DUP3 PUSH2 0x1619 JUMP JUMPDEST PUSH1 0x40 DUP3 ADD SWAP1 POP SWAP2 SWAP1 POP JUMP JUMPDEST PUSH1 0x0 PUSH1 0x20 DUP3 ADD SWAP1 POP DUP2 DUP2 SUB PUSH1 0x0 DUP4 ADD MSTORE PUSH2 0x16A4 DUP2 PUSH2 0x1668 JUMP JUMPDEST SWAP1 POP SWAP2 SWAP1 POP JUMP JUMPDEST PUSH1 0x0 PUSH2 0x16B6 DUP3 PUSH2 0x1145 JUMP JUMPDEST SWAP2 POP PUSH32 0xFFFFFFFFFFFFFFFFFFFFFFFFFFFFFFFFFFFFFFFFFFFFFFFFFFFFFFFFFFFFFFFF DUP3 SUB PUSH2 0x16E8 JUMPI PUSH2 0x16E7 PUSH2 0x13DC JUMP JUMPDEST JUMPDEST PUSH1 0x1 DUP3 ADD SWAP1 POP SWAP2 SWAP1 POP JUMP JUMPDEST PUSH32 0x4F776E61626C653A206E6577206F776E657220697320746865207A65726F2061 PUSH1 0x0 DUP3 ADD MSTORE PUSH32 0x6464726573730000000000000000000000000000000000000000000000000000 PUSH1 0x20 DUP3 ADD MSTORE POP JUMP JUMPDEST PUSH1 0x0 PUSH2 0x174F PUSH1 0x26 DUP4 PUSH2 0x129D JUMP JUMPDEST SWAP2 POP PUSH2 0x175A DUP3 PUSH2 0x16F3 JUMP JUMPDEST PUSH1 0x40 DUP3 ADD SWAP1 POP SWAP2 SWAP1 POP JUMP JUMPDEST PUSH1 0x0 PUSH1 0x20 DUP3 ADD SWAP1 POP DUP2 DUP2 SUB PUSH1 0x0 DUP4 ADD MSTORE PUSH2 0x177E DUP2 PUSH2 0x1742 JUMP JUMPDEST SWAP1 POP SWAP2 SWAP1 POP JUMP JUMPDEST PUSH32 0x4F776E61626C653A2063616C6C6572206973206E6F7420746865206F776E6572 PUSH1 0x0 DUP3 ADD MSTORE POP JUMP JUMPDEST PUSH1 0x0 PUSH2 0x17BB PUSH1 0x20 DUP4 PUSH2 0x129D JUMP JUMPDEST SWAP2 POP PUSH2 0x17C6 DUP3 PUSH2 0x1785 JUMP JUMPDEST PUSH1 0x20 DUP3 ADD SWAP1 POP SWAP2 SWAP1 POP JUMP JUMPDEST PUSH1 0x0 PUSH1 0x20 DUP3 ADD SWAP1 POP DUP2 DUP2 SUB PUSH1 0x0 DUP4 ADD MSTORE PUSH2 0x17EA DUP2 PUSH2 0x17AE JUMP JUMPDEST SWAP1 POP SWAP2 SWAP1 POP JUMP JUMPDEST PUSH1 0x0 DUP2 MLOAD SWAP1 POP SWAP2 SWAP1 POP JUMP JUMPDEST PUSH1 0x0 DUP2 SWAP1 POP SWAP3 SWAP2 POP POP JUMP JUMPDEST PUSH1 0x0 JUMPDEST DUP4 DUP2 LT ISZERO PUSH2 0x1825 JUMPI DUP1 DUP3 ADD MLOAD DUP2 DUP5 ADD MSTORE PUSH1 0x20 DUP2 ADD SWAP1 POP PUSH2 0x180A JUMP JUMPDEST DUP4 DUP2 GT ISZERO PUSH2 0x1834 JUMPI PUSH1 0x0 DUP5 DUP5 ADD MSTORE JUMPDEST POP POP POP POP JUMP JUMPDEST PUSH1 0x0 PUSH2 0x1845 DUP3 PUSH2 0x17F1 JUMP JUMPDEST PUSH2 0x184F DUP2 DUP6 PUSH2 0x17FC JUMP JUMPDEST SWAP4 POP PUSH2 0x185F DUP2 DUP6 PUSH1 0x20 DUP7 ADD PUSH2 0x1807 JUMP JUMPDEST DUP1 DUP5 ADD SWAP2 POP POP SWAP3 SWAP2 POP POP JUMP JUMPDEST PUSH1 0x0 PUSH2 0x1877 DUP3 DUP5 PUSH2 0x183A JUMP JUMPDEST SWAP2 POP DUP2 SWAP1 POP SWAP3 SWAP2 POP POP JUMP JUMPDEST PUSH32 0x4E487B7100000000000000000000000000000000000000000000000000000000 PUSH1 0x0 MSTORE PUSH1 0x22 PUSH1 0x4 MSTORE PUSH1 0x24 PUSH1 0x0 REVERT JUMPDEST PUSH1 0x0 PUSH1 0x2 DUP3 DIV SWAP1 POP PUSH1 0x1 DUP3 AND DUP1 PUSH2 0x18C9 JUMPI PUSH1 0x7F DUP3 AND SWAP2 POP JUMPDEST PUSH1 0x20 DUP3 LT DUP2 SUB PUSH2 0x18DC JUMPI PUSH2 0x18DB PUSH2 0x1882 JUMP JUMPDEST JUMPDEST POP SWAP2 SWAP1 POP JUMP JUMPDEST PUSH1 0x0 DUP2 SWAP1 POP DUP2 PUSH1 0x0 MSTORE PUSH1 0x20 PUSH1 0x0 KECCAK256 SWAP1 POP SWAP2 SWAP1 POP JUMP JUMPDEST PUSH1 0x0 DUP2 SLOAD PUSH2 0x1904 DUP2 PUSH2 0x18B1 JUMP JUMPDEST PUSH2 0x190E DUP2 DUP7 PUSH2 0x17FC JUMP JUMPDEST SWAP5 POP PUSH1 0x1 DUP3 AND PUSH1 0x0 DUP2 EQ PUSH2 0x1929 JUMPI PUSH1 0x1 DUP2 EQ PUSH2 0x193A JUMPI PUSH2 0x196D JUMP JUMPDEST PUSH1 0xFF NOT DUP4 AND DUP7 MSTORE DUP2 DUP7 ADD SWAP4 POP PUSH2 0x196D JUMP JUMPDEST PUSH2 0x1943 DUP6 PUSH2 0x18E2 JUMP JUMPDEST PUSH1 0x0 JUMPDEST DUP4 DUP2 LT ISZERO PUSH2 0x1965 JUMPI DUP2 SLOAD DUP2 DUP10 ADD MSTORE PUSH1 0x1 DUP3 ADD SWAP2 POP PUSH1 0x20 DUP2 ADD SWAP1 POP PUSH2 0x1946 JUMP JUMPDEST DUP4 DUP9 ADD SWAP6 POP POP POP JUMPDEST POP POP POP SWAP3 SWAP2 POP POP JUMP JUMPDEST PUSH1 0x0 PUSH2 0x1982 DUP3 DUP5 PUSH2 0x18F7 JUMP JUMPDEST SWAP2 POP DUP2 SWAP1 POP SWAP3 SWAP2 POP POP JUMP JUMPDEST PUSH32 0x5468652073747564656E7420646F6573206E6F742065786973742E0000000000 PUSH1 0x0 DUP3 ADD MSTORE POP JUMP JUMPDEST PUSH1 0x0 PUSH2 0x19C3 PUSH1 0x1B DUP4 PUSH2 0x129D JUMP JUMPDEST SWAP2 POP PUSH2 0x19CE DUP3 PUSH2 0x198D JUMP JUMPDEST PUSH1 0x20 DUP3 ADD SWAP1 POP SWAP2 SWAP1 POP JUMP JUMPDEST PUSH1 0x0 PUSH1 0x20 DUP3 ADD SWAP1 POP DUP2 DUP2 SUB PUSH1 0x0 DUP4 ADD MSTORE PUSH2 0x19F2 DUP2 PUSH2 0x19B6 JUMP JUMPDEST SWAP1 POP SWAP2 SWAP1 POP JUMP INVALID LOG2 PUSH5 0x6970667358 0x22 SLT KECCAK256 0xB2 0x27 0xFC 0x49 PUSH14 0xE8CD6D0D1EB62D47E09D7D8F8319 DUP12 PUSH6 0xF4167A2F7717 0xD4 0xEF 0xB1 DUP11 DUP2 PUSH5 0x736F6C6343 STOP ADDMOD 0xD STOP CALLER "
				},
				"gasEstimates": {
					"creation": {
						"codeDepositCost": "1340600",
						"executionCost": "infinite",
						"totalCost": "infinite"
					},
					"external": {
						"addStudent(string,address)": "infinite",
						"addTeacher(uint8,address)": "infinite",
						"calculateMeanGlobal()": "infinite",
						"calculateMeanPerCourse(uint8)": "infinite",
						"calculateMeanStudent(string)": "infinite",
						"isPassing(string)": "infinite",
						"owner()": "2544",
						"renounceOwnership()": "30398",
						"setNote(uint8,string,uint256)": "infinite",
						"transferOwnership(address)": "30810"
					},
					"internal": {
						"getStudentFromName(string memory)": "infinite"
					}
				},
				"methodIdentifiers": {
					"addStudent(string,address)": "10468c2f",
					"addTeacher(uint8,address)": "35d1f30d",
					"calculateMeanGlobal()": "fa489605",
					"calculateMeanPerCourse(uint8)": "ce28c807",
					"calculateMeanStudent(string)": "3c8c07bc",
					"isPassing(string)": "0dc0ffb1",
					"owner()": "8da5cb5b",
					"renounceOwnership()": "715018a6",
					"setNote(uint8,string,uint256)": "5eb050cf",
					"transferOwnership(address)": "f2fde38b"
				}
			},
			"storageLayout": {
				"storage": [
					{
						"astId": 7,
						"contract": "contracts/exoCours/exoNotation/exoNotation.sol:exoNotation",
						"label": "_owner",
						"offset": 0,
						"slot": "0",
						"type": "t_address"
					},
					{
						"astId": 160,
						"contract": "contracts/exoCours/exoNotation/exoNotation.sol:exoNotation",
						"label": "notes",
						"offset": 0,
						"slot": "1",
						"type": "t_mapping(t_enum(course)143,t_mapping(t_string_memory_ptr,t_struct(Student)152_storage))"
					},
					{
						"astId": 164,
						"contract": "contracts/exoCours/exoNotation/exoNotation.sol:exoNotation",
						"label": "students",
						"offset": 0,
						"slot": "2",
						"type": "t_array(t_struct(Student)152_storage)dyn_storage"
					},
					{
						"astId": 169,
						"contract": "contracts/exoCours/exoNotation/exoNotation.sol:exoNotation",
						"label": "teachers",
						"offset": 0,
						"slot": "3",
						"type": "t_mapping(t_enum(course)143,t_address)"
					}
				],
				"types": {
					"t_address": {
						"encoding": "inplace",
						"label": "address",
						"numberOfBytes": "20"
					},
					"t_array(t_struct(Student)152_storage)dyn_storage": {
						"base": "t_struct(Student)152_storage",
						"encoding": "dynamic_array",
						"label": "struct exoNotation.Student[]",
						"numberOfBytes": "32"
					},
					"t_enum(course)143": {
						"encoding": "inplace",
						"label": "enum exoNotation.course",
						"numberOfBytes": "1"
					},
					"t_mapping(t_enum(course)143,t_address)": {
						"encoding": "mapping",
						"key": "t_enum(course)143",
						"label": "mapping(enum exoNotation.course => address)",
						"numberOfBytes": "32",
						"value": "t_address"
					},
					"t_mapping(t_enum(course)143,t_mapping(t_string_memory_ptr,t_struct(Student)152_storage))": {
						"encoding": "mapping",
						"key": "t_enum(course)143",
						"label": "mapping(enum exoNotation.course => mapping(string => struct exoNotation.Student))",
						"numberOfBytes": "32",
						"value": "t_mapping(t_string_memory_ptr,t_struct(Student)152_storage)"
					},
					"t_mapping(t_string_memory_ptr,t_struct(Student)152_storage)": {
						"encoding": "mapping",
						"key": "t_string_memory_ptr",
						"label": "mapping(string => struct exoNotation.Student)",
						"numberOfBytes": "32",
						"value": "t_struct(Student)152_storage"
					},
					"t_string_memory_ptr": {
						"encoding": "bytes",
						"label": "string",
						"numberOfBytes": "32"
					},
					"t_string_storage": {
						"encoding": "bytes",
						"label": "string",
						"numberOfBytes": "32"
					},
					"t_struct(Student)152_storage": {
						"encoding": "inplace",
						"label": "struct exoNotation.Student",
						"members": [
							{
								"astId": 145,
								"contract": "contracts/exoCours/exoNotation/exoNotation.sol:exoNotation",
								"label": "name",
								"offset": 0,
								"slot": "0",
								"type": "t_string_storage"
							},
							{
								"astId": 147,
								"contract": "contracts/exoCours/exoNotation/exoNotation.sol:exoNotation",
								"label": "noteBiology",
								"offset": 0,
								"slot": "1",
								"type": "t_uint256"
							},
							{
								"astId": 149,
								"contract": "contracts/exoCours/exoNotation/exoNotation.sol:exoNotation",
								"label": "noteMath",
								"offset": 0,
								"slot": "2",
								"type": "t_uint256"
							},
							{
								"astId": 151,
								"contract": "contracts/exoCours/exoNotation/exoNotation.sol:exoNotation",
								"label": "noteFr",
								"offset": 0,
								"slot": "3",
								"type": "t_uint256"
							}
						],
						"numberOfBytes": "128"
					},
					"t_uint256": {
						"encoding": "inplace",
						"label": "uint256",
						"numberOfBytes": "32"
					}
				}
			},
			"userdoc": {
				"kind": "user",
				"methods": {},
				"version": 1
			}
		}
	}
}