{
	"contracts/exoCours/exoGuessWon/exoGuessWon.sol": {
		"exoGuessWon": {
			"abi": [
				{
					"anonymous": false,
					"inputs": [
						{
							"indexed": true,
							"internalType": "address",
							"name": "previousOwner",
							"type": "address"
						},
						{
							"indexed": true,
							"internalType": "address",
							"name": "newOwner",
							"type": "address"
						}
					],
					"name": "OwnershipTransferred",
					"type": "event"
				},
				{
					"inputs": [],
					"name": "owner",
					"outputs": [
						{
							"internalType": "address",
							"name": "",
							"type": "address"
						}
					],
					"stateMutability": "view",
					"type": "function"
				},
				{
					"inputs": [],
					"name": "renounceOwnership",
					"outputs": [],
					"stateMutability": "nonpayable",
					"type": "function"
				},
				{
					"inputs": [
						{
							"internalType": "string",
							"name": "_word",
							"type": "string"
						},
						{
							"internalType": "string",
							"name": "_tips",
							"type": "string"
						}
					],
					"name": "setWordTips",
					"outputs": [],
					"stateMutability": "nonpayable",
					"type": "function"
				},
				{
					"inputs": [],
					"name": "tips",
					"outputs": [
						{
							"internalType": "string",
							"name": "",
							"type": "string"
						}
					],
					"stateMutability": "view",
					"type": "function"
				},
				{
					"inputs": [
						{
							"internalType": "address",
							"name": "newOwner",
							"type": "address"
						}
					],
					"name": "transferOwnership",
					"outputs": [],
					"stateMutability": "nonpayable",
					"type": "function"
				},
				{
					"inputs": [
						{
							"internalType": "string",
							"name": "_proposal",
							"type": "string"
						}
					],
					"name": "tryToGuess",
					"outputs": [
						{
							"internalType": "bool",
							"name": "",
							"type": "bool"
						}
					],
					"stateMutability": "nonpayable",
					"type": "function"
				},
				{
					"inputs": [],
					"name": "winner",
					"outputs": [
						{
							"internalType": "address",
							"name": "",
							"type": "address"
						}
					],
					"stateMutability": "view",
					"type": "function"
				}
			],
			"devdoc": {
				"kind": "dev",
				"methods": {
					"owner()": {
						"details": "Returns the address of the current owner."
					},
					"renounceOwnership()": {
						"details": "Leaves the contract without owner. It will not be possible to call `onlyOwner` functions anymore. Can only be called by the current owner. NOTE: Renouncing ownership will leave the contract without an owner, thereby removing any functionality that is only available to the owner."
					},
					"transferOwnership(address)": {
						"details": "Transfers ownership of the contract to a new account (`newOwner`). Can only be called by the current owner."
					}
				},
				"version": 1
			},
			"evm": {
				"assembly": "    /* \"contracts/exoCours/exoGuessWon/exoGuessWon.sol\":121:1111  contract exoGuessWon is Ownable{... */\n  mstore(0x40, 0x80)\n  callvalue\n  dup1\n  iszero\n  tag_1\n  jumpi\n  0x00\n  dup1\n  revert\ntag_1:\n  pop\n    /* \"@openzeppelin/contracts/access/Ownable.sol\":936:968  _transferOwnership(_msgSender()) */\n  tag_4\n    /* \"@openzeppelin/contracts/access/Ownable.sol\":955:967  _msgSender() */\n  tag_5\n    /* \"@openzeppelin/contracts/access/Ownable.sol\":955:965  _msgSender */\n  shl(0x20, tag_6)\n    /* \"@openzeppelin/contracts/access/Ownable.sol\":955:967  _msgSender() */\n  0x20\n  shr\n  jump\t// in\ntag_5:\n    /* \"@openzeppelin/contracts/access/Ownable.sol\":936:954  _transferOwnership */\n  shl(0x20, tag_7)\n    /* \"@openzeppelin/contracts/access/Ownable.sol\":936:968  _transferOwnership(_msgSender()) */\n  0x20\n  shr\n  jump\t// in\ntag_4:\n    /* \"contracts/exoCours/exoGuessWon/exoGuessWon.sol\":121:1111  contract exoGuessWon is Ownable{... */\n  jump(tag_8)\n    /* \"@openzeppelin/contracts/utils/Context.sol\":640:736  function _msgSender() internal view virtual returns (address) {... */\ntag_6:\n    /* \"@openzeppelin/contracts/utils/Context.sol\":693:700  address */\n  0x00\n    /* \"@openzeppelin/contracts/utils/Context.sol\":719:729  msg.sender */\n  caller\n    /* \"@openzeppelin/contracts/utils/Context.sol\":712:729  return msg.sender */\n  swap1\n  pop\n    /* \"@openzeppelin/contracts/utils/Context.sol\":640:736  function _msgSender() internal view virtual returns (address) {... */\n  swap1\n  jump\t// out\n    /* \"@openzeppelin/contracts/access/Ownable.sol\":2433:2620  function _transferOwnership(address newOwner) internal virtual {... */\ntag_7:\n    /* \"@openzeppelin/contracts/access/Ownable.sol\":2506:2522  address oldOwner */\n  0x00\n    /* \"@openzeppelin/contracts/access/Ownable.sol\":2525:2531  _owner */\n  dup1\n  0x00\n  swap1\n  sload\n  swap1\n  0x0100\n  exp\n  swap1\n  div\n  0xffffffffffffffffffffffffffffffffffffffff\n  and\n    /* \"@openzeppelin/contracts/access/Ownable.sol\":2506:2531  address oldOwner = _owner */\n  swap1\n  pop\n    /* \"@openzeppelin/contracts/access/Ownable.sol\":2550:2558  newOwner */\n  dup2\n    /* \"@openzeppelin/contracts/access/Ownable.sol\":2541:2547  _owner */\n  0x00\n  dup1\n    /* \"@openzeppelin/contracts/access/Ownable.sol\":2541:2558  _owner = newOwner */\n  0x0100\n  exp\n  dup2\n  sload\n  dup2\n  0xffffffffffffffffffffffffffffffffffffffff\n  mul\n  not\n  and\n  swap1\n  dup4\n  0xffffffffffffffffffffffffffffffffffffffff\n  and\n  mul\n  or\n  swap1\n  sstore\n  pop\n    /* \"@openzeppelin/contracts/access/Ownable.sol\":2604:2612  newOwner */\n  dup2\n    /* \"@openzeppelin/contracts/access/Ownable.sol\":2573:2613  OwnershipTransferred(oldOwner, newOwner) */\n  0xffffffffffffffffffffffffffffffffffffffff\n  and\n    /* \"@openzeppelin/contracts/access/Ownable.sol\":2594:2602  oldOwner */\n  dup2\n    /* \"@openzeppelin/contracts/access/Ownable.sol\":2573:2613  OwnershipTransferred(oldOwner, newOwner) */\n  0xffffffffffffffffffffffffffffffffffffffff\n  and\n  0x8be0079c531659141344cd1fd0a4f28419497f9722a3daafe3b4186f6b6457e0\n  mload(0x40)\n  mload(0x40)\n  dup1\n  swap2\n  sub\n  swap1\n  log3\n    /* \"@openzeppelin/contracts/access/Ownable.sol\":2496:2620  {... */\n  pop\n    /* \"@openzeppelin/contracts/access/Ownable.sol\":2433:2620  function _transferOwnership(address newOwner) internal virtual {... */\n  pop\n  jump\t// out\n    /* \"contracts/exoCours/exoGuessWon/exoGuessWon.sol\":121:1111  contract exoGuessWon is Ownable{... */\ntag_8:\n  dataSize(sub_0)\n  dup1\n  dataOffset(sub_0)\n  0x00\n  codecopy\n  0x00\n  return\nstop\n\nsub_0: assembly {\n        /* \"contracts/exoCours/exoGuessWon/exoGuessWon.sol\":121:1111  contract exoGuessWon is Ownable{... */\n      mstore(0x40, 0x80)\n      callvalue\n      dup1\n      iszero\n      tag_1\n      jumpi\n      0x00\n      dup1\n      revert\n    tag_1:\n      pop\n      jumpi(tag_2, lt(calldatasize, 0x04))\n      shr(0xe0, calldataload(0x00))\n      dup1\n      0xbc17e05b\n      gt\n      tag_10\n      jumpi\n      dup1\n      0xbc17e05b\n      eq\n      tag_6\n      jumpi\n      dup1\n      0xdfbf53ae\n      eq\n      tag_7\n      jumpi\n      dup1\n      0xe96aa631\n      eq\n      tag_8\n      jumpi\n      dup1\n      0xf2fde38b\n      eq\n      tag_9\n      jumpi\n      jump(tag_2)\n    tag_10:\n      dup1\n      0x1a4e1e78\n      eq\n      tag_3\n      jumpi\n      dup1\n      0x715018a6\n      eq\n      tag_4\n      jumpi\n      dup1\n      0x8da5cb5b\n      eq\n      tag_5\n      jumpi\n    tag_2:\n      0x00\n      dup1\n      revert\n        /* \"contracts/exoCours/exoGuessWon/exoGuessWon.sol\":161:179  string public tips */\n    tag_3:\n      tag_11\n      tag_12\n      jump\t// in\n    tag_11:\n      mload(0x40)\n      tag_13\n      swap2\n      swap1\n      tag_14\n      jump\t// in\n    tag_13:\n      mload(0x40)\n      dup1\n      swap2\n      sub\n      swap1\n      return\n        /* \"@openzeppelin/contracts/access/Ownable.sol\":1831:1932  function renounceOwnership() public virtual onlyOwner {... */\n    tag_4:\n      tag_15\n      tag_16\n      jump\t// in\n    tag_15:\n      stop\n        /* \"@openzeppelin/contracts/access/Ownable.sol\":1201:1286  function owner() public view virtual returns (address) {... */\n    tag_5:\n      tag_17\n      tag_18\n      jump\t// in\n    tag_17:\n      mload(0x40)\n      tag_19\n      swap2\n      swap1\n      tag_20\n      jump\t// in\n    tag_19:\n      mload(0x40)\n      dup1\n      swap2\n      sub\n      swap1\n      return\n        /* \"contracts/exoCours/exoGuessWon/exoGuessWon.sol\":281:545  function setWordTips(string calldata _word, string calldata _tips) external onlyOwner{... */\n    tag_6:\n      tag_21\n      0x04\n      dup1\n      calldatasize\n      sub\n      dup2\n      add\n      swap1\n      tag_22\n      swap2\n      swap1\n      tag_23\n      jump\t// in\n    tag_22:\n      tag_24\n      jump\t// in\n    tag_21:\n      stop\n        /* \"contracts/exoCours/exoGuessWon/exoGuessWon.sol\":212:233  address public winner */\n    tag_7:\n      tag_25\n      tag_26\n      jump\t// in\n    tag_25:\n      mload(0x40)\n      tag_27\n      swap2\n      swap1\n      tag_20\n      jump\t// in\n    tag_27:\n      mload(0x40)\n      dup1\n      swap2\n      sub\n      swap1\n      return\n        /* \"contracts/exoCours/exoGuessWon/exoGuessWon.sol\":553:1106  function tryToGuess(string calldata _proposal) external returns(bool){... */\n    tag_8:\n      tag_28\n      0x04\n      dup1\n      calldatasize\n      sub\n      dup2\n      add\n      swap1\n      tag_29\n      swap2\n      swap1\n      tag_30\n      jump\t// in\n    tag_29:\n      tag_31\n      jump\t// in\n    tag_28:\n      mload(0x40)\n      tag_32\n      swap2\n      swap1\n      tag_33\n      jump\t// in\n    tag_32:\n      mload(0x40)\n      dup1\n      swap2\n      sub\n      swap1\n      return\n        /* \"@openzeppelin/contracts/access/Ownable.sol\":2081:2279  function transferOwnership(address newOwner) public virtual onlyOwner {... */\n    tag_9:\n      tag_34\n      0x04\n      dup1\n      calldatasize\n      sub\n      dup2\n      add\n      swap1\n      tag_35\n      swap2\n      swap1\n      tag_36\n      jump\t// in\n    tag_35:\n      tag_37\n      jump\t// in\n    tag_34:\n      stop\n        /* \"contracts/exoCours/exoGuessWon/exoGuessWon.sol\":161:179  string public tips */\n    tag_12:\n      0x01\n      dup1\n      sload\n      tag_38\n      swap1\n      tag_39\n      jump\t// in\n    tag_38:\n      dup1\n      0x1f\n      add\n      0x20\n      dup1\n      swap2\n      div\n      mul\n      0x20\n      add\n      mload(0x40)\n      swap1\n      dup2\n      add\n      0x40\n      mstore\n      dup1\n      swap3\n      swap2\n      swap1\n      dup2\n      dup2\n      mstore\n      0x20\n      add\n      dup3\n      dup1\n      sload\n      tag_40\n      swap1\n      tag_39\n      jump\t// in\n    tag_40:\n      dup1\n      iszero\n      tag_41\n      jumpi\n      dup1\n      0x1f\n      lt\n      tag_42\n      jumpi\n      0x0100\n      dup1\n      dup4\n      sload\n      div\n      mul\n      dup4\n      mstore\n      swap2\n      0x20\n      add\n      swap2\n      jump(tag_41)\n    tag_42:\n      dup3\n      add\n      swap2\n      swap1\n      0x00\n      mstore\n      keccak256(0x00, 0x20)\n      swap1\n    tag_43:\n      dup2\n      sload\n      dup2\n      mstore\n      swap1\n      0x01\n      add\n      swap1\n      0x20\n      add\n      dup1\n      dup4\n      gt\n      tag_43\n      jumpi\n      dup3\n      swap1\n      sub\n      0x1f\n      and\n      dup3\n      add\n      swap2\n    tag_41:\n      pop\n      pop\n      pop\n      pop\n      pop\n      dup2\n      jump\t// out\n        /* \"@openzeppelin/contracts/access/Ownable.sol\":1831:1932  function renounceOwnership() public virtual onlyOwner {... */\n    tag_16:\n        /* \"@openzeppelin/contracts/access/Ownable.sol\":1094:1107  _checkOwner() */\n      tag_45\n        /* \"@openzeppelin/contracts/access/Ownable.sol\":1094:1105  _checkOwner */\n      tag_46\n        /* \"@openzeppelin/contracts/access/Ownable.sol\":1094:1107  _checkOwner() */\n      jump\t// in\n    tag_45:\n        /* \"@openzeppelin/contracts/access/Ownable.sol\":1895:1925  _transferOwnership(address(0)) */\n      tag_48\n        /* \"@openzeppelin/contracts/access/Ownable.sol\":1922:1923  0 */\n      0x00\n        /* \"@openzeppelin/contracts/access/Ownable.sol\":1895:1913  _transferOwnership */\n      tag_49\n        /* \"@openzeppelin/contracts/access/Ownable.sol\":1895:1925  _transferOwnership(address(0)) */\n      jump\t// in\n    tag_48:\n        /* \"@openzeppelin/contracts/access/Ownable.sol\":1831:1932  function renounceOwnership() public virtual onlyOwner {... */\n      jump\t// out\n        /* \"@openzeppelin/contracts/access/Ownable.sol\":1201:1286  function owner() public view virtual returns (address) {... */\n    tag_18:\n        /* \"@openzeppelin/contracts/access/Ownable.sol\":1247:1254  address */\n      0x00\n        /* \"@openzeppelin/contracts/access/Ownable.sol\":1273:1279  _owner */\n      dup1\n      0x00\n      swap1\n      sload\n      swap1\n      0x0100\n      exp\n      swap1\n      div\n      0xffffffffffffffffffffffffffffffffffffffff\n      and\n        /* \"@openzeppelin/contracts/access/Ownable.sol\":1266:1279  return _owner */\n      swap1\n      pop\n        /* \"@openzeppelin/contracts/access/Ownable.sol\":1201:1286  function owner() public view virtual returns (address) {... */\n      swap1\n      jump\t// out\n        /* \"contracts/exoCours/exoGuessWon/exoGuessWon.sol\":281:545  function setWordTips(string calldata _word, string calldata _tips) external onlyOwner{... */\n    tag_24:\n        /* \"@openzeppelin/contracts/access/Ownable.sol\":1094:1107  _checkOwner() */\n      tag_52\n        /* \"@openzeppelin/contracts/access/Ownable.sol\":1094:1105  _checkOwner */\n      tag_46\n        /* \"@openzeppelin/contracts/access/Ownable.sol\":1094:1107  _checkOwner() */\n      jump\t// in\n    tag_52:\n        /* \"contracts/exoCours/exoGuessWon/exoGuessWon.sol\":405:406  0 */\n      0x00\n        /* \"contracts/exoCours/exoGuessWon/exoGuessWon.sol\":389:394  _word */\n      dup5\n      dup5\n        /* \"contracts/exoCours/exoGuessWon/exoGuessWon.sol\":383:402  bytes(_word).length */\n      swap1\n      pop\n        /* \"contracts/exoCours/exoGuessWon/exoGuessWon.sol\":383:406  bytes(_word).length > 0 */\n      gt\n        /* \"contracts/exoCours/exoGuessWon/exoGuessWon.sol\":383:433  bytes(_word).length > 0 && bytes(_tips).length > 0 */\n      dup1\n      iszero\n      tag_54\n      jumpi\n      pop\n        /* \"contracts/exoCours/exoGuessWon/exoGuessWon.sol\":432:433  0 */\n      0x00\n        /* \"contracts/exoCours/exoGuessWon/exoGuessWon.sol\":416:421  _tips */\n      dup3\n      dup3\n        /* \"contracts/exoCours/exoGuessWon/exoGuessWon.sol\":410:429  bytes(_tips).length */\n      swap1\n      pop\n        /* \"contracts/exoCours/exoGuessWon/exoGuessWon.sol\":410:433  bytes(_tips).length > 0 */\n      gt\n        /* \"contracts/exoCours/exoGuessWon/exoGuessWon.sol\":383:433  bytes(_word).length > 0 && bytes(_tips).length > 0 */\n    tag_54:\n        /* \"contracts/exoCours/exoGuessWon/exoGuessWon.sol\":375:489  require(bytes(_word).length > 0 && bytes(_tips).length > 0, \"You need to set a word and a tip to start the game.\") */\n      tag_55\n      jumpi\n      mload(0x40)\n      0x08c379a000000000000000000000000000000000000000000000000000000000\n      dup2\n      mstore\n      0x04\n      add\n      tag_56\n      swap1\n      tag_57\n      jump\t// in\n    tag_56:\n      mload(0x40)\n      dup1\n      swap2\n      sub\n      swap1\n      revert\n    tag_55:\n        /* \"contracts/exoCours/exoGuessWon/exoGuessWon.sol\":509:514  _tips */\n      dup2\n      dup2\n        /* \"contracts/exoCours/exoGuessWon/exoGuessWon.sol\":502:506  tips */\n      0x01\n        /* \"contracts/exoCours/exoGuessWon/exoGuessWon.sol\":502:514  tips = _tips */\n      swap2\n      swap1\n      tag_58\n      swap3\n      swap2\n      swap1\n      tag_59\n      jump\t// in\n    tag_58:\n      pop\n        /* \"contracts/exoCours/exoGuessWon/exoGuessWon.sol\":532:537  _word */\n      dup4\n      dup4\n        /* \"contracts/exoCours/exoGuessWon/exoGuessWon.sol\":525:529  word */\n      0x02\n        /* \"contracts/exoCours/exoGuessWon/exoGuessWon.sol\":525:537  word = _word */\n      swap2\n      swap1\n      tag_60\n      swap3\n      swap2\n      swap1\n      tag_59\n      jump\t// in\n    tag_60:\n      pop\n        /* \"contracts/exoCours/exoGuessWon/exoGuessWon.sol\":281:545  function setWordTips(string calldata _word, string calldata _tips) external onlyOwner{... */\n      pop\n      pop\n      pop\n      pop\n      jump\t// out\n        /* \"contracts/exoCours/exoGuessWon/exoGuessWon.sol\":212:233  address public winner */\n    tag_26:\n      0x03\n      0x00\n      swap1\n      sload\n      swap1\n      0x0100\n      exp\n      swap1\n      div\n      0xffffffffffffffffffffffffffffffffffffffff\n      and\n      dup2\n      jump\t// out\n        /* \"contracts/exoCours/exoGuessWon/exoGuessWon.sol\":553:1106  function tryToGuess(string calldata _proposal) external returns(bool){... */\n    tag_31:\n        /* \"contracts/exoCours/exoGuessWon/exoGuessWon.sol\":617:621  bool */\n      0x00\n        /* \"contracts/exoCours/exoGuessWon/exoGuessWon.sol\":664:665  0 */\n      dup1\n        /* \"contracts/exoCours/exoGuessWon/exoGuessWon.sol\":649:653  word */\n      0x02\n        /* \"contracts/exoCours/exoGuessWon/exoGuessWon.sol\":643:661  bytes(word).length */\n      dup1\n      sload\n      tag_62\n      swap1\n      tag_39\n      jump\t// in\n    tag_62:\n      swap1\n      pop\n        /* \"contracts/exoCours/exoGuessWon/exoGuessWon.sol\":643:665  bytes(word).length > 0 */\n      gt\n        /* \"contracts/exoCours/exoGuessWon/exoGuessWon.sol\":643:691  bytes(word).length > 0 && bytes(tips).length > 0 */\n      dup1\n      iszero\n      tag_63\n      jumpi\n      pop\n        /* \"contracts/exoCours/exoGuessWon/exoGuessWon.sol\":690:691  0 */\n      0x00\n        /* \"contracts/exoCours/exoGuessWon/exoGuessWon.sol\":675:679  tips */\n      0x01\n        /* \"contracts/exoCours/exoGuessWon/exoGuessWon.sol\":669:687  bytes(tips).length */\n      dup1\n      sload\n      tag_64\n      swap1\n      tag_39\n      jump\t// in\n    tag_64:\n      swap1\n      pop\n        /* \"contracts/exoCours/exoGuessWon/exoGuessWon.sol\":669:691  bytes(tips).length > 0 */\n      gt\n        /* \"contracts/exoCours/exoGuessWon/exoGuessWon.sol\":643:691  bytes(word).length > 0 && bytes(tips).length > 0 */\n    tag_63:\n        /* \"contracts/exoCours/exoGuessWon/exoGuessWon.sol\":635:724  require(bytes(word).length > 0 && bytes(tips).length > 0, \"The game is not started yet.\") */\n      tag_65\n      jumpi\n      mload(0x40)\n      0x08c379a000000000000000000000000000000000000000000000000000000000\n      dup2\n      mstore\n      0x04\n      add\n      tag_66\n      swap1\n      tag_67\n      jump\t// in\n    tag_66:\n      mload(0x40)\n      dup1\n      swap2\n      sub\n      swap1\n      revert\n    tag_65:\n        /* \"contracts/exoCours/exoGuessWon/exoGuessWon.sol\":770:771  0 */\n      0x00\n        /* \"contracts/exoCours/exoGuessWon/exoGuessWon.sol\":743:772  address(winner) == address(0) */\n      0xffffffffffffffffffffffffffffffffffffffff\n      and\n        /* \"contracts/exoCours/exoGuessWon/exoGuessWon.sol\":751:757  winner */\n      0x03\n      0x00\n      swap1\n      sload\n      swap1\n      0x0100\n      exp\n      swap1\n      div\n      0xffffffffffffffffffffffffffffffffffffffff\n      and\n        /* \"contracts/exoCours/exoGuessWon/exoGuessWon.sol\":743:772  address(winner) == address(0) */\n      0xffffffffffffffffffffffffffffffffffffffff\n      and\n      eq\n        /* \"contracts/exoCours/exoGuessWon/exoGuessWon.sol\":735:803  require(address(winner) == address(0), \"There is already a winner.\") */\n      tag_68\n      jumpi\n      mload(0x40)\n      0x08c379a000000000000000000000000000000000000000000000000000000000\n      dup2\n      mstore\n      0x04\n      add\n      tag_69\n      swap1\n      tag_70\n      jump\t// in\n    tag_69:\n      mload(0x40)\n      dup1\n      swap2\n      sub\n      swap1\n      revert\n    tag_68:\n        /* \"contracts/exoCours/exoGuessWon/exoGuessWon.sol\":823:830  players */\n      0x04\n        /* \"contracts/exoCours/exoGuessWon/exoGuessWon.sol\":823:842  players[msg.sender] */\n      0x00\n        /* \"contracts/exoCours/exoGuessWon/exoGuessWon.sol\":831:841  msg.sender */\n      caller\n        /* \"contracts/exoCours/exoGuessWon/exoGuessWon.sol\":823:842  players[msg.sender] */\n      0xffffffffffffffffffffffffffffffffffffffff\n      and\n      0xffffffffffffffffffffffffffffffffffffffff\n      and\n      dup2\n      mstore\n      0x20\n      add\n      swap1\n      dup2\n      mstore\n      0x20\n      add\n      0x00\n      keccak256\n      0x00\n      swap1\n      sload\n      swap1\n      0x0100\n      exp\n      swap1\n      div\n      0xff\n      and\n        /* \"contracts/exoCours/exoGuessWon/exoGuessWon.sol\":822:842  !players[msg.sender] */\n      iszero\n        /* \"contracts/exoCours/exoGuessWon/exoGuessWon.sol\":814:866  require(!players[msg.sender], \"You already played.\") */\n      tag_71\n      jumpi\n      mload(0x40)\n      0x08c379a000000000000000000000000000000000000000000000000000000000\n      dup2\n      mstore\n      0x04\n      add\n      tag_72\n      swap1\n      tag_73\n      jump\t// in\n    tag_72:\n      mload(0x40)\n      dup1\n      swap2\n      sub\n      swap1\n      revert\n    tag_71:\n        /* \"contracts/exoCours/exoGuessWon/exoGuessWon.sol\":901:905  true */\n      0x01\n        /* \"contracts/exoCours/exoGuessWon/exoGuessWon.sol\":879:886  players */\n      0x04\n        /* \"contracts/exoCours/exoGuessWon/exoGuessWon.sol\":879:898  players[msg.sender] */\n      0x00\n        /* \"contracts/exoCours/exoGuessWon/exoGuessWon.sol\":887:897  msg.sender */\n      caller\n        /* \"contracts/exoCours/exoGuessWon/exoGuessWon.sol\":879:898  players[msg.sender] */\n      0xffffffffffffffffffffffffffffffffffffffff\n      and\n      0xffffffffffffffffffffffffffffffffffffffff\n      and\n      dup2\n      mstore\n      0x20\n      add\n      swap1\n      dup2\n      mstore\n      0x20\n      add\n      0x00\n      keccak256\n      0x00\n        /* \"contracts/exoCours/exoGuessWon/exoGuessWon.sol\":879:905  players[msg.sender] = true */\n      0x0100\n      exp\n      dup2\n      sload\n      dup2\n      0xff\n      mul\n      not\n      and\n      swap1\n      dup4\n      iszero\n      iszero\n      mul\n      or\n      swap1\n      sstore\n      pop\n        /* \"contracts/exoCours/exoGuessWon/exoGuessWon.sol\":916:928  bool isMatch */\n      0x00\n        /* \"contracts/exoCours/exoGuessWon/exoGuessWon.sol\":1000:1004  word */\n      0x02\n        /* \"contracts/exoCours/exoGuessWon/exoGuessWon.sol\":983:1005  abi.encodePacked(word) */\n      add(0x20, mload(0x40))\n      tag_74\n      swap2\n      swap1\n      tag_75\n      jump\t// in\n    tag_74:\n      mload(0x40)\n      0x20\n      dup2\n      dup4\n      sub\n      sub\n      dup2\n      mstore\n      swap1\n      0x40\n      mstore\n        /* \"contracts/exoCours/exoGuessWon/exoGuessWon.sol\":973:1006  keccak256(abi.encodePacked(word)) */\n      dup1\n      mload\n      swap1\n      0x20\n      add\n      keccak256\n        /* \"contracts/exoCours/exoGuessWon/exoGuessWon.sol\":958:967  _proposal */\n      dup5\n      dup5\n        /* \"contracts/exoCours/exoGuessWon/exoGuessWon.sol\":941:968  abi.encodePacked(_proposal) */\n      add(0x20, mload(0x40))\n      tag_76\n      swap3\n      swap2\n      swap1\n      tag_77\n      jump\t// in\n    tag_76:\n      mload(0x40)\n      0x20\n      dup2\n      dup4\n      sub\n      sub\n      dup2\n      mstore\n      swap1\n      0x40\n      mstore\n        /* \"contracts/exoCours/exoGuessWon/exoGuessWon.sol\":931:969  keccak256(abi.encodePacked(_proposal)) */\n      dup1\n      mload\n      swap1\n      0x20\n      add\n      keccak256\n        /* \"contracts/exoCours/exoGuessWon/exoGuessWon.sol\":931:1006  keccak256(abi.encodePacked(_proposal)) == keccak256(abi.encodePacked(word)) */\n      eq\n        /* \"contracts/exoCours/exoGuessWon/exoGuessWon.sol\":916:1006  bool isMatch = keccak256(abi.encodePacked(_proposal)) == keccak256(abi.encodePacked(word)) */\n      swap1\n      pop\n        /* \"contracts/exoCours/exoGuessWon/exoGuessWon.sol\":1020:1027  isMatch */\n      dup1\n        /* \"contracts/exoCours/exoGuessWon/exoGuessWon.sol\":1017:1074  if(isMatch){... */\n      iszero\n      tag_78\n      jumpi\n        /* \"contracts/exoCours/exoGuessWon/exoGuessWon.sol\":1052:1062  msg.sender */\n      caller\n        /* \"contracts/exoCours/exoGuessWon/exoGuessWon.sol\":1043:1049  winner */\n      0x03\n      0x00\n        /* \"contracts/exoCours/exoGuessWon/exoGuessWon.sol\":1043:1062  winner = msg.sender */\n      0x0100\n      exp\n      dup2\n      sload\n      dup2\n      0xffffffffffffffffffffffffffffffffffffffff\n      mul\n      not\n      and\n      swap1\n      dup4\n      0xffffffffffffffffffffffffffffffffffffffff\n      and\n      mul\n      or\n      swap1\n      sstore\n      pop\n        /* \"contracts/exoCours/exoGuessWon/exoGuessWon.sol\":1017:1074  if(isMatch){... */\n    tag_78:\n        /* \"contracts/exoCours/exoGuessWon/exoGuessWon.sol\":1091:1098  isMatch */\n      dup1\n        /* \"contracts/exoCours/exoGuessWon/exoGuessWon.sol\":1084:1098  return isMatch */\n      swap2\n      pop\n      pop\n        /* \"contracts/exoCours/exoGuessWon/exoGuessWon.sol\":553:1106  function tryToGuess(string calldata _proposal) external returns(bool){... */\n      swap3\n      swap2\n      pop\n      pop\n      jump\t// out\n        /* \"@openzeppelin/contracts/access/Ownable.sol\":2081:2279  function transferOwnership(address newOwner) public virtual onlyOwner {... */\n    tag_37:\n        /* \"@openzeppelin/contracts/access/Ownable.sol\":1094:1107  _checkOwner() */\n      tag_80\n        /* \"@openzeppelin/contracts/access/Ownable.sol\":1094:1105  _checkOwner */\n      tag_46\n        /* \"@openzeppelin/contracts/access/Ownable.sol\":1094:1107  _checkOwner() */\n      jump\t// in\n    tag_80:\n        /* \"@openzeppelin/contracts/access/Ownable.sol\":2189:2190  0 */\n      0x00\n        /* \"@openzeppelin/contracts/access/Ownable.sol\":2169:2191  newOwner != address(0) */\n      0xffffffffffffffffffffffffffffffffffffffff\n      and\n        /* \"@openzeppelin/contracts/access/Ownable.sol\":2169:2177  newOwner */\n      dup2\n        /* \"@openzeppelin/contracts/access/Ownable.sol\":2169:2191  newOwner != address(0) */\n      0xffffffffffffffffffffffffffffffffffffffff\n      and\n      sub\n        /* \"@openzeppelin/contracts/access/Ownable.sol\":2161:2234  require(newOwner != address(0), \"Ownable: new owner is the zero address\") */\n      tag_82\n      jumpi\n      mload(0x40)\n      0x08c379a000000000000000000000000000000000000000000000000000000000\n      dup2\n      mstore\n      0x04\n      add\n      tag_83\n      swap1\n      tag_84\n      jump\t// in\n    tag_83:\n      mload(0x40)\n      dup1\n      swap2\n      sub\n      swap1\n      revert\n    tag_82:\n        /* \"@openzeppelin/contracts/access/Ownable.sol\":2244:2272  _transferOwnership(newOwner) */\n      tag_85\n        /* \"@openzeppelin/contracts/access/Ownable.sol\":2263:2271  newOwner */\n      dup2\n        /* \"@openzeppelin/contracts/access/Ownable.sol\":2244:2262  _transferOwnership */\n      tag_49\n        /* \"@openzeppelin/contracts/access/Ownable.sol\":2244:2272  _transferOwnership(newOwner) */\n      jump\t// in\n    tag_85:\n        /* \"@openzeppelin/contracts/access/Ownable.sol\":2081:2279  function transferOwnership(address newOwner) public virtual onlyOwner {... */\n      pop\n      jump\t// out\n        /* \"@openzeppelin/contracts/access/Ownable.sol\":1359:1489  function _checkOwner() internal view virtual {... */\n    tag_46:\n        /* \"@openzeppelin/contracts/access/Ownable.sol\":1433:1445  _msgSender() */\n      tag_87\n        /* \"@openzeppelin/contracts/access/Ownable.sol\":1433:1443  _msgSender */\n      tag_88\n        /* \"@openzeppelin/contracts/access/Ownable.sol\":1433:1445  _msgSender() */\n      jump\t// in\n    tag_87:\n        /* \"@openzeppelin/contracts/access/Ownable.sol\":1422:1445  owner() == _msgSender() */\n      0xffffffffffffffffffffffffffffffffffffffff\n      and\n        /* \"@openzeppelin/contracts/access/Ownable.sol\":1422:1429  owner() */\n      tag_89\n        /* \"@openzeppelin/contracts/access/Ownable.sol\":1422:1427  owner */\n      tag_18\n        /* \"@openzeppelin/contracts/access/Ownable.sol\":1422:1429  owner() */\n      jump\t// in\n    tag_89:\n        /* \"@openzeppelin/contracts/access/Ownable.sol\":1422:1445  owner() == _msgSender() */\n      0xffffffffffffffffffffffffffffffffffffffff\n      and\n      eq\n        /* \"@openzeppelin/contracts/access/Ownable.sol\":1414:1482  require(owner() == _msgSender(), \"Ownable: caller is not the owner\") */\n      tag_90\n      jumpi\n      mload(0x40)\n      0x08c379a000000000000000000000000000000000000000000000000000000000\n      dup2\n      mstore\n      0x04\n      add\n      tag_91\n      swap1\n      tag_92\n      jump\t// in\n    tag_91:\n      mload(0x40)\n      dup1\n      swap2\n      sub\n      swap1\n      revert\n    tag_90:\n        /* \"@openzeppelin/contracts/access/Ownable.sol\":1359:1489  function _checkOwner() internal view virtual {... */\n      jump\t// out\n        /* \"@openzeppelin/contracts/access/Ownable.sol\":2433:2620  function _transferOwnership(address newOwner) internal virtual {... */\n    tag_49:\n        /* \"@openzeppelin/contracts/access/Ownable.sol\":2506:2522  address oldOwner */\n      0x00\n        /* \"@openzeppelin/contracts/access/Ownable.sol\":2525:2531  _owner */\n      dup1\n      0x00\n      swap1\n      sload\n      swap1\n      0x0100\n      exp\n      swap1\n      div\n      0xffffffffffffffffffffffffffffffffffffffff\n      and\n        /* \"@openzeppelin/contracts/access/Ownable.sol\":2506:2531  address oldOwner = _owner */\n      swap1\n      pop\n        /* \"@openzeppelin/contracts/access/Ownable.sol\":2550:2558  newOwner */\n      dup2\n        /* \"@openzeppelin/contracts/access/Ownable.sol\":2541:2547  _owner */\n      0x00\n      dup1\n        /* \"@openzeppelin/contracts/access/Ownable.sol\":2541:2558  _owner = newOwner */\n      0x0100\n      exp\n      dup2\n      sload\n      dup2\n      0xffffffffffffffffffffffffffffffffffffffff\n      mul\n      not\n      and\n      swap1\n      dup4\n      0xffffffffffffffffffffffffffffffffffffffff\n      and\n      mul\n      or\n      swap1\n      sstore\n      pop\n        /* \"@openzeppelin/contracts/access/Ownable.sol\":2604:2612  newOwner */\n      dup2\n        /* \"@openzeppelin/contracts/access/Ownable.sol\":2573:2613  OwnershipTransferred(oldOwner, newOwner) */\n      0xffffffffffffffffffffffffffffffffffffffff\n      and\n        /* \"@openzeppelin/contracts/access/Ownable.sol\":2594:2602  oldOwner */\n      dup2\n        /* \"@openzeppelin/contracts/access/Ownable.sol\":2573:2613  OwnershipTransferred(oldOwner, newOwner) */\n      0xffffffffffffffffffffffffffffffffffffffff\n      and\n      0x8be0079c531659141344cd1fd0a4f28419497f9722a3daafe3b4186f6b6457e0\n      mload(0x40)\n      mload(0x40)\n      dup1\n      swap2\n      sub\n      swap1\n      log3\n        /* \"@openzeppelin/contracts/access/Ownable.sol\":2496:2620  {... */\n      pop\n        /* \"@openzeppelin/contracts/access/Ownable.sol\":2433:2620  function _transferOwnership(address newOwner) internal virtual {... */\n      pop\n      jump\t// out\n        /* \"@openzeppelin/contracts/utils/Context.sol\":640:736  function _msgSender() internal view virtual returns (address) {... */\n    tag_88:\n        /* \"@openzeppelin/contracts/utils/Context.sol\":693:700  address */\n      0x00\n        /* \"@openzeppelin/contracts/utils/Context.sol\":719:729  msg.sender */\n      caller\n        /* \"@openzeppelin/contracts/utils/Context.sol\":712:729  return msg.sender */\n      swap1\n      pop\n        /* \"@openzeppelin/contracts/utils/Context.sol\":640:736  function _msgSender() internal view virtual returns (address) {... */\n      swap1\n      jump\t// out\n    tag_59:\n      dup3\n      dup1\n      sload\n      tag_95\n      swap1\n      tag_39\n      jump\t// in\n    tag_95:\n      swap1\n      0x00\n      mstore\n      keccak256(0x00, 0x20)\n      swap1\n      0x1f\n      add\n      0x20\n      swap1\n      div\n      dup2\n      add\n      swap3\n      dup3\n      tag_97\n      jumpi\n      0x00\n      dup6\n      sstore\n      jump(tag_96)\n    tag_97:\n      dup3\n      0x1f\n      lt\n      tag_98\n      jumpi\n      dup1\n      calldataload\n      not(0xff)\n      and\n      dup4\n      dup1\n      add\n      or\n      dup6\n      sstore\n      jump(tag_96)\n    tag_98:\n      dup3\n      dup1\n      add\n      0x01\n      add\n      dup6\n      sstore\n      dup3\n      iszero\n      tag_96\n      jumpi\n      swap2\n      dup3\n      add\n    tag_99:\n      dup3\n      dup2\n      gt\n      iszero\n      tag_100\n      jumpi\n      dup3\n      calldataload\n      dup3\n      sstore\n      swap2\n      0x20\n      add\n      swap2\n      swap1\n      0x01\n      add\n      swap1\n      jump(tag_99)\n    tag_100:\n    tag_96:\n      pop\n      swap1\n      pop\n      tag_101\n      swap2\n      swap1\n      tag_102\n      jump\t// in\n    tag_101:\n      pop\n      swap1\n      jump\t// out\n    tag_102:\n    tag_103:\n      dup1\n      dup3\n      gt\n      iszero\n      tag_104\n      jumpi\n      0x00\n      dup2\n      0x00\n      swap1\n      sstore\n      pop\n      0x01\n      add\n      jump(tag_103)\n    tag_104:\n      pop\n      swap1\n      jump\t// out\n        /* \"#utility.yul\":7:106   */\n    tag_105:\n        /* \"#utility.yul\":59:65   */\n      0x00\n        /* \"#utility.yul\":93:98   */\n      dup2\n        /* \"#utility.yul\":87:99   */\n      mload\n        /* \"#utility.yul\":77:99   */\n      swap1\n      pop\n        /* \"#utility.yul\":7:106   */\n      swap2\n      swap1\n      pop\n      jump\t// out\n        /* \"#utility.yul\":112:281   */\n    tag_106:\n        /* \"#utility.yul\":196:207   */\n      0x00\n        /* \"#utility.yul\":230:236   */\n      dup3\n        /* \"#utility.yul\":225:228   */\n      dup3\n        /* \"#utility.yul\":218:237   */\n      mstore\n        /* \"#utility.yul\":270:274   */\n      0x20\n        /* \"#utility.yul\":265:268   */\n      dup3\n        /* \"#utility.yul\":261:275   */\n      add\n        /* \"#utility.yul\":246:275   */\n      swap1\n      pop\n        /* \"#utility.yul\":112:281   */\n      swap3\n      swap2\n      pop\n      pop\n      jump\t// out\n        /* \"#utility.yul\":287:594   */\n    tag_107:\n        /* \"#utility.yul\":355:356   */\n      0x00\n        /* \"#utility.yul\":365:478   */\n    tag_146:\n        /* \"#utility.yul\":379:385   */\n      dup4\n        /* \"#utility.yul\":376:377   */\n      dup2\n        /* \"#utility.yul\":373:386   */\n      lt\n        /* \"#utility.yul\":365:478   */\n      iszero\n      tag_148\n      jumpi\n        /* \"#utility.yul\":464:465   */\n      dup1\n        /* \"#utility.yul\":459:462   */\n      dup3\n        /* \"#utility.yul\":455:466   */\n      add\n        /* \"#utility.yul\":449:467   */\n      mload\n        /* \"#utility.yul\":445:446   */\n      dup2\n        /* \"#utility.yul\":440:443   */\n      dup5\n        /* \"#utility.yul\":436:447   */\n      add\n        /* \"#utility.yul\":429:468   */\n      mstore\n        /* \"#utility.yul\":401:403   */\n      0x20\n        /* \"#utility.yul\":398:399   */\n      dup2\n        /* \"#utility.yul\":394:404   */\n      add\n        /* \"#utility.yul\":389:404   */\n      swap1\n      pop\n        /* \"#utility.yul\":365:478   */\n      jump(tag_146)\n    tag_148:\n        /* \"#utility.yul\":496:502   */\n      dup4\n        /* \"#utility.yul\":493:494   */\n      dup2\n        /* \"#utility.yul\":490:503   */\n      gt\n        /* \"#utility.yul\":487:588   */\n      iszero\n      tag_149\n      jumpi\n        /* \"#utility.yul\":576:577   */\n      0x00\n        /* \"#utility.yul\":567:573   */\n      dup5\n        /* \"#utility.yul\":562:565   */\n      dup5\n        /* \"#utility.yul\":558:574   */\n      add\n        /* \"#utility.yul\":551:578   */\n      mstore\n        /* \"#utility.yul\":487:588   */\n    tag_149:\n        /* \"#utility.yul\":336:594   */\n      pop\n        /* \"#utility.yul\":287:594   */\n      pop\n      pop\n      pop\n      jump\t// out\n        /* \"#utility.yul\":600:702   */\n    tag_108:\n        /* \"#utility.yul\":641:647   */\n      0x00\n        /* \"#utility.yul\":692:694   */\n      0x1f\n        /* \"#utility.yul\":688:695   */\n      not\n        /* \"#utility.yul\":683:685   */\n      0x1f\n        /* \"#utility.yul\":676:681   */\n      dup4\n        /* \"#utility.yul\":672:686   */\n      add\n        /* \"#utility.yul\":668:696   */\n      and\n        /* \"#utility.yul\":658:696   */\n      swap1\n      pop\n        /* \"#utility.yul\":600:702   */\n      swap2\n      swap1\n      pop\n      jump\t// out\n        /* \"#utility.yul\":708:1072   */\n    tag_109:\n        /* \"#utility.yul\":796:799   */\n      0x00\n        /* \"#utility.yul\":824:863   */\n      tag_152\n        /* \"#utility.yul\":857:862   */\n      dup3\n        /* \"#utility.yul\":824:863   */\n      tag_105\n      jump\t// in\n    tag_152:\n        /* \"#utility.yul\":879:950   */\n      tag_153\n        /* \"#utility.yul\":943:949   */\n      dup2\n        /* \"#utility.yul\":938:941   */\n      dup6\n        /* \"#utility.yul\":879:950   */\n      tag_106\n      jump\t// in\n    tag_153:\n        /* \"#utility.yul\":872:950   */\n      swap4\n      pop\n        /* \"#utility.yul\":959:1011   */\n      tag_154\n        /* \"#utility.yul\":1004:1010   */\n      dup2\n        /* \"#utility.yul\":999:1002   */\n      dup6\n        /* \"#utility.yul\":992:996   */\n      0x20\n        /* \"#utility.yul\":985:990   */\n      dup7\n        /* \"#utility.yul\":981:997   */\n      add\n        /* \"#utility.yul\":959:1011   */\n      tag_107\n      jump\t// in\n    tag_154:\n        /* \"#utility.yul\":1036:1065   */\n      tag_155\n        /* \"#utility.yul\":1058:1064   */\n      dup2\n        /* \"#utility.yul\":1036:1065   */\n      tag_108\n      jump\t// in\n    tag_155:\n        /* \"#utility.yul\":1031:1034   */\n      dup5\n        /* \"#utility.yul\":1027:1066   */\n      add\n        /* \"#utility.yul\":1020:1066   */\n      swap2\n      pop\n        /* \"#utility.yul\":800:1072   */\n      pop\n        /* \"#utility.yul\":708:1072   */\n      swap3\n      swap2\n      pop\n      pop\n      jump\t// out\n        /* \"#utility.yul\":1078:1391   */\n    tag_14:\n        /* \"#utility.yul\":1191:1195   */\n      0x00\n        /* \"#utility.yul\":1229:1231   */\n      0x20\n        /* \"#utility.yul\":1218:1227   */\n      dup3\n        /* \"#utility.yul\":1214:1232   */\n      add\n        /* \"#utility.yul\":1206:1232   */\n      swap1\n      pop\n        /* \"#utility.yul\":1278:1287   */\n      dup2\n        /* \"#utility.yul\":1272:1276   */\n      dup2\n        /* \"#utility.yul\":1268:1288   */\n      sub\n        /* \"#utility.yul\":1264:1265   */\n      0x00\n        /* \"#utility.yul\":1253:1262   */\n      dup4\n        /* \"#utility.yul\":1249:1266   */\n      add\n        /* \"#utility.yul\":1242:1289   */\n      mstore\n        /* \"#utility.yul\":1306:1384   */\n      tag_157\n        /* \"#utility.yul\":1379:1383   */\n      dup2\n        /* \"#utility.yul\":1370:1376   */\n      dup5\n        /* \"#utility.yul\":1306:1384   */\n      tag_109\n      jump\t// in\n    tag_157:\n        /* \"#utility.yul\":1298:1384   */\n      swap1\n      pop\n        /* \"#utility.yul\":1078:1391   */\n      swap3\n      swap2\n      pop\n      pop\n      jump\t// out\n        /* \"#utility.yul\":1397:1523   */\n    tag_110:\n        /* \"#utility.yul\":1434:1441   */\n      0x00\n        /* \"#utility.yul\":1474:1516   */\n      0xffffffffffffffffffffffffffffffffffffffff\n        /* \"#utility.yul\":1467:1472   */\n      dup3\n        /* \"#utility.yul\":1463:1517   */\n      and\n        /* \"#utility.yul\":1452:1517   */\n      swap1\n      pop\n        /* \"#utility.yul\":1397:1523   */\n      swap2\n      swap1\n      pop\n      jump\t// out\n        /* \"#utility.yul\":1529:1625   */\n    tag_111:\n        /* \"#utility.yul\":1566:1573   */\n      0x00\n        /* \"#utility.yul\":1595:1619   */\n      tag_160\n        /* \"#utility.yul\":1613:1618   */\n      dup3\n        /* \"#utility.yul\":1595:1619   */\n      tag_110\n      jump\t// in\n    tag_160:\n        /* \"#utility.yul\":1584:1619   */\n      swap1\n      pop\n        /* \"#utility.yul\":1529:1625   */\n      swap2\n      swap1\n      pop\n      jump\t// out\n        /* \"#utility.yul\":1631:1749   */\n    tag_112:\n        /* \"#utility.yul\":1718:1742   */\n      tag_162\n        /* \"#utility.yul\":1736:1741   */\n      dup2\n        /* \"#utility.yul\":1718:1742   */\n      tag_111\n      jump\t// in\n    tag_162:\n        /* \"#utility.yul\":1713:1716   */\n      dup3\n        /* \"#utility.yul\":1706:1743   */\n      mstore\n        /* \"#utility.yul\":1631:1749   */\n      pop\n      pop\n      jump\t// out\n        /* \"#utility.yul\":1755:1977   */\n    tag_20:\n        /* \"#utility.yul\":1848:1852   */\n      0x00\n        /* \"#utility.yul\":1886:1888   */\n      0x20\n        /* \"#utility.yul\":1875:1884   */\n      dup3\n        /* \"#utility.yul\":1871:1889   */\n      add\n        /* \"#utility.yul\":1863:1889   */\n      swap1\n      pop\n        /* \"#utility.yul\":1899:1970   */\n      tag_164\n        /* \"#utility.yul\":1967:1968   */\n      0x00\n        /* \"#utility.yul\":1956:1965   */\n      dup4\n        /* \"#utility.yul\":1952:1969   */\n      add\n        /* \"#utility.yul\":1943:1949   */\n      dup5\n        /* \"#utility.yul\":1899:1970   */\n      tag_112\n      jump\t// in\n    tag_164:\n        /* \"#utility.yul\":1755:1977   */\n      swap3\n      swap2\n      pop\n      pop\n      jump\t// out\n        /* \"#utility.yul\":2064:2181   */\n    tag_114:\n        /* \"#utility.yul\":2173:2174   */\n      0x00\n        /* \"#utility.yul\":2170:2171   */\n      dup1\n        /* \"#utility.yul\":2163:2175   */\n      revert\n        /* \"#utility.yul\":2187:2304   */\n    tag_115:\n        /* \"#utility.yul\":2296:2297   */\n      0x00\n        /* \"#utility.yul\":2293:2294   */\n      dup1\n        /* \"#utility.yul\":2286:2298   */\n      revert\n        /* \"#utility.yul\":2310:2427   */\n    tag_116:\n        /* \"#utility.yul\":2419:2420   */\n      0x00\n        /* \"#utility.yul\":2416:2417   */\n      dup1\n        /* \"#utility.yul\":2409:2421   */\n      revert\n        /* \"#utility.yul\":2433:2550   */\n    tag_117:\n        /* \"#utility.yul\":2542:2543   */\n      0x00\n        /* \"#utility.yul\":2539:2540   */\n      dup1\n        /* \"#utility.yul\":2532:2544   */\n      revert\n        /* \"#utility.yul\":2556:2673   */\n    tag_118:\n        /* \"#utility.yul\":2665:2666   */\n      0x00\n        /* \"#utility.yul\":2662:2663   */\n      dup1\n        /* \"#utility.yul\":2655:2667   */\n      revert\n        /* \"#utility.yul\":2693:3246   */\n    tag_119:\n        /* \"#utility.yul\":2751:2759   */\n      0x00\n        /* \"#utility.yul\":2761:2767   */\n      dup1\n        /* \"#utility.yul\":2811:2814   */\n      dup4\n        /* \"#utility.yul\":2804:2808   */\n      0x1f\n        /* \"#utility.yul\":2796:2802   */\n      dup5\n        /* \"#utility.yul\":2792:2809   */\n      add\n        /* \"#utility.yul\":2788:2815   */\n      slt\n        /* \"#utility.yul\":2778:2900   */\n      tag_172\n      jumpi\n        /* \"#utility.yul\":2819:2898   */\n      tag_173\n      tag_116\n      jump\t// in\n    tag_173:\n        /* \"#utility.yul\":2778:2900   */\n    tag_172:\n        /* \"#utility.yul\":2932:2938   */\n      dup3\n        /* \"#utility.yul\":2919:2939   */\n      calldataload\n        /* \"#utility.yul\":2909:2939   */\n      swap1\n      pop\n        /* \"#utility.yul\":2962:2980   */\n      0xffffffffffffffff\n        /* \"#utility.yul\":2954:2960   */\n      dup2\n        /* \"#utility.yul\":2951:2981   */\n      gt\n        /* \"#utility.yul\":2948:3065   */\n      iszero\n      tag_174\n      jumpi\n        /* \"#utility.yul\":2984:3063   */\n      tag_175\n      tag_117\n      jump\t// in\n    tag_175:\n        /* \"#utility.yul\":2948:3065   */\n    tag_174:\n        /* \"#utility.yul\":3098:3102   */\n      0x20\n        /* \"#utility.yul\":3090:3096   */\n      dup4\n        /* \"#utility.yul\":3086:3103   */\n      add\n        /* \"#utility.yul\":3074:3103   */\n      swap2\n      pop\n        /* \"#utility.yul\":3152:3155   */\n      dup4\n        /* \"#utility.yul\":3144:3148   */\n      0x01\n        /* \"#utility.yul\":3136:3142   */\n      dup3\n        /* \"#utility.yul\":3132:3149   */\n      mul\n        /* \"#utility.yul\":3122:3130   */\n      dup4\n        /* \"#utility.yul\":3118:3150   */\n      add\n        /* \"#utility.yul\":3115:3156   */\n      gt\n        /* \"#utility.yul\":3112:3240   */\n      iszero\n      tag_176\n      jumpi\n        /* \"#utility.yul\":3159:3238   */\n      tag_177\n      tag_118\n      jump\t// in\n    tag_177:\n        /* \"#utility.yul\":3112:3240   */\n    tag_176:\n        /* \"#utility.yul\":2693:3246   */\n      swap3\n      pop\n      swap3\n      swap1\n      pop\n      jump\t// out\n        /* \"#utility.yul\":3252:4126   */\n    tag_23:\n        /* \"#utility.yul\":3344:3350   */\n      0x00\n        /* \"#utility.yul\":3352:3358   */\n      dup1\n        /* \"#utility.yul\":3360:3366   */\n      0x00\n        /* \"#utility.yul\":3368:3374   */\n      dup1\n        /* \"#utility.yul\":3417:3419   */\n      0x40\n        /* \"#utility.yul\":3405:3414   */\n      dup6\n        /* \"#utility.yul\":3396:3403   */\n      dup8\n        /* \"#utility.yul\":3392:3415   */\n      sub\n        /* \"#utility.yul\":3388:3420   */\n      slt\n        /* \"#utility.yul\":3385:3504   */\n      iszero\n      tag_179\n      jumpi\n        /* \"#utility.yul\":3423:3502   */\n      tag_180\n      tag_114\n      jump\t// in\n    tag_180:\n        /* \"#utility.yul\":3385:3504   */\n    tag_179:\n        /* \"#utility.yul\":3571:3572   */\n      0x00\n        /* \"#utility.yul\":3560:3569   */\n      dup6\n        /* \"#utility.yul\":3556:3573   */\n      add\n        /* \"#utility.yul\":3543:3574   */\n      calldataload\n        /* \"#utility.yul\":3601:3619   */\n      0xffffffffffffffff\n        /* \"#utility.yul\":3593:3599   */\n      dup2\n        /* \"#utility.yul\":3590:3620   */\n      gt\n        /* \"#utility.yul\":3587:3704   */\n      iszero\n      tag_181\n      jumpi\n        /* \"#utility.yul\":3623:3702   */\n      tag_182\n      tag_115\n      jump\t// in\n    tag_182:\n        /* \"#utility.yul\":3587:3704   */\n    tag_181:\n        /* \"#utility.yul\":3736:3801   */\n      tag_183\n        /* \"#utility.yul\":3793:3800   */\n      dup8\n        /* \"#utility.yul\":3784:3790   */\n      dup3\n        /* \"#utility.yul\":3773:3782   */\n      dup9\n        /* \"#utility.yul\":3769:3791   */\n      add\n        /* \"#utility.yul\":3736:3801   */\n      tag_119\n      jump\t// in\n    tag_183:\n        /* \"#utility.yul\":3718:3801   */\n      swap5\n      pop\n      swap5\n      pop\n        /* \"#utility.yul\":3514:3811   */\n      pop\n        /* \"#utility.yul\":3878:3880   */\n      0x20\n        /* \"#utility.yul\":3867:3876   */\n      dup6\n        /* \"#utility.yul\":3863:3881   */\n      add\n        /* \"#utility.yul\":3850:3882   */\n      calldataload\n        /* \"#utility.yul\":3909:3927   */\n      0xffffffffffffffff\n        /* \"#utility.yul\":3901:3907   */\n      dup2\n        /* \"#utility.yul\":3898:3928   */\n      gt\n        /* \"#utility.yul\":3895:4012   */\n      iszero\n      tag_184\n      jumpi\n        /* \"#utility.yul\":3931:4010   */\n      tag_185\n      tag_115\n      jump\t// in\n    tag_185:\n        /* \"#utility.yul\":3895:4012   */\n    tag_184:\n        /* \"#utility.yul\":4044:4109   */\n      tag_186\n        /* \"#utility.yul\":4101:4108   */\n      dup8\n        /* \"#utility.yul\":4092:4098   */\n      dup3\n        /* \"#utility.yul\":4081:4090   */\n      dup9\n        /* \"#utility.yul\":4077:4099   */\n      add\n        /* \"#utility.yul\":4044:4109   */\n      tag_119\n      jump\t// in\n    tag_186:\n        /* \"#utility.yul\":4026:4109   */\n      swap3\n      pop\n      swap3\n      pop\n        /* \"#utility.yul\":3821:4119   */\n      pop\n        /* \"#utility.yul\":3252:4126   */\n      swap3\n      swap6\n      swap2\n      swap5\n      pop\n      swap3\n      pop\n      jump\t// out\n        /* \"#utility.yul\":4132:4661   */\n    tag_30:\n        /* \"#utility.yul\":4203:4209   */\n      0x00\n        /* \"#utility.yul\":4211:4217   */\n      dup1\n        /* \"#utility.yul\":4260:4262   */\n      0x20\n        /* \"#utility.yul\":4248:4257   */\n      dup4\n        /* \"#utility.yul\":4239:4246   */\n      dup6\n        /* \"#utility.yul\":4235:4258   */\n      sub\n        /* \"#utility.yul\":4231:4263   */\n      slt\n        /* \"#utility.yul\":4228:4347   */\n      iszero\n      tag_188\n      jumpi\n        /* \"#utility.yul\":4266:4345   */\n      tag_189\n      tag_114\n      jump\t// in\n    tag_189:\n        /* \"#utility.yul\":4228:4347   */\n    tag_188:\n        /* \"#utility.yul\":4414:4415   */\n      0x00\n        /* \"#utility.yul\":4403:4412   */\n      dup4\n        /* \"#utility.yul\":4399:4416   */\n      add\n        /* \"#utility.yul\":4386:4417   */\n      calldataload\n        /* \"#utility.yul\":4444:4462   */\n      0xffffffffffffffff\n        /* \"#utility.yul\":4436:4442   */\n      dup2\n        /* \"#utility.yul\":4433:4463   */\n      gt\n        /* \"#utility.yul\":4430:4547   */\n      iszero\n      tag_190\n      jumpi\n        /* \"#utility.yul\":4466:4545   */\n      tag_191\n      tag_115\n      jump\t// in\n    tag_191:\n        /* \"#utility.yul\":4430:4547   */\n    tag_190:\n        /* \"#utility.yul\":4579:4644   */\n      tag_192\n        /* \"#utility.yul\":4636:4643   */\n      dup6\n        /* \"#utility.yul\":4627:4633   */\n      dup3\n        /* \"#utility.yul\":4616:4625   */\n      dup7\n        /* \"#utility.yul\":4612:4634   */\n      add\n        /* \"#utility.yul\":4579:4644   */\n      tag_119\n      jump\t// in\n    tag_192:\n        /* \"#utility.yul\":4561:4644   */\n      swap3\n      pop\n      swap3\n      pop\n        /* \"#utility.yul\":4357:4654   */\n      pop\n        /* \"#utility.yul\":4132:4661   */\n      swap3\n      pop\n      swap3\n      swap1\n      pop\n      jump\t// out\n        /* \"#utility.yul\":4667:4757   */\n    tag_120:\n        /* \"#utility.yul\":4701:4708   */\n      0x00\n        /* \"#utility.yul\":4744:4749   */\n      dup2\n        /* \"#utility.yul\":4737:4750   */\n      iszero\n        /* \"#utility.yul\":4730:4751   */\n      iszero\n        /* \"#utility.yul\":4719:4751   */\n      swap1\n      pop\n        /* \"#utility.yul\":4667:4757   */\n      swap2\n      swap1\n      pop\n      jump\t// out\n        /* \"#utility.yul\":4763:4872   */\n    tag_121:\n        /* \"#utility.yul\":4844:4865   */\n      tag_195\n        /* \"#utility.yul\":4859:4864   */\n      dup2\n        /* \"#utility.yul\":4844:4865   */\n      tag_120\n      jump\t// in\n    tag_195:\n        /* \"#utility.yul\":4839:4842   */\n      dup3\n        /* \"#utility.yul\":4832:4866   */\n      mstore\n        /* \"#utility.yul\":4763:4872   */\n      pop\n      pop\n      jump\t// out\n        /* \"#utility.yul\":4878:5088   */\n    tag_33:\n        /* \"#utility.yul\":4965:4969   */\n      0x00\n        /* \"#utility.yul\":5003:5005   */\n      0x20\n        /* \"#utility.yul\":4992:5001   */\n      dup3\n        /* \"#utility.yul\":4988:5006   */\n      add\n        /* \"#utility.yul\":4980:5006   */\n      swap1\n      pop\n        /* \"#utility.yul\":5016:5081   */\n      tag_197\n        /* \"#utility.yul\":5078:5079   */\n      0x00\n        /* \"#utility.yul\":5067:5076   */\n      dup4\n        /* \"#utility.yul\":5063:5080   */\n      add\n        /* \"#utility.yul\":5054:5060   */\n      dup5\n        /* \"#utility.yul\":5016:5081   */\n      tag_121\n      jump\t// in\n    tag_197:\n        /* \"#utility.yul\":4878:5088   */\n      swap3\n      swap2\n      pop\n      pop\n      jump\t// out\n        /* \"#utility.yul\":5094:5216   */\n    tag_122:\n        /* \"#utility.yul\":5167:5191   */\n      tag_199\n        /* \"#utility.yul\":5185:5190   */\n      dup2\n        /* \"#utility.yul\":5167:5191   */\n      tag_111\n      jump\t// in\n    tag_199:\n        /* \"#utility.yul\":5160:5165   */\n      dup2\n        /* \"#utility.yul\":5157:5192   */\n      eq\n        /* \"#utility.yul\":5147:5210   */\n      tag_200\n      jumpi\n        /* \"#utility.yul\":5206:5207   */\n      0x00\n        /* \"#utility.yul\":5203:5204   */\n      dup1\n        /* \"#utility.yul\":5196:5208   */\n      revert\n        /* \"#utility.yul\":5147:5210   */\n    tag_200:\n        /* \"#utility.yul\":5094:5216   */\n      pop\n      jump\t// out\n        /* \"#utility.yul\":5222:5361   */\n    tag_123:\n        /* \"#utility.yul\":5268:5273   */\n      0x00\n        /* \"#utility.yul\":5306:5312   */\n      dup2\n        /* \"#utility.yul\":5293:5313   */\n      calldataload\n        /* \"#utility.yul\":5284:5313   */\n      swap1\n      pop\n        /* \"#utility.yul\":5322:5355   */\n      tag_202\n        /* \"#utility.yul\":5349:5354   */\n      dup2\n        /* \"#utility.yul\":5322:5355   */\n      tag_122\n      jump\t// in\n    tag_202:\n        /* \"#utility.yul\":5222:5361   */\n      swap3\n      swap2\n      pop\n      pop\n      jump\t// out\n        /* \"#utility.yul\":5367:5696   */\n    tag_36:\n        /* \"#utility.yul\":5426:5432   */\n      0x00\n        /* \"#utility.yul\":5475:5477   */\n      0x20\n        /* \"#utility.yul\":5463:5472   */\n      dup3\n        /* \"#utility.yul\":5454:5461   */\n      dup5\n        /* \"#utility.yul\":5450:5473   */\n      sub\n        /* \"#utility.yul\":5446:5478   */\n      slt\n        /* \"#utility.yul\":5443:5562   */\n      iszero\n      tag_204\n      jumpi\n        /* \"#utility.yul\":5481:5560   */\n      tag_205\n      tag_114\n      jump\t// in\n    tag_205:\n        /* \"#utility.yul\":5443:5562   */\n    tag_204:\n        /* \"#utility.yul\":5601:5602   */\n      0x00\n        /* \"#utility.yul\":5626:5679   */\n      tag_206\n        /* \"#utility.yul\":5671:5678   */\n      dup5\n        /* \"#utility.yul\":5662:5668   */\n      dup3\n        /* \"#utility.yul\":5651:5660   */\n      dup6\n        /* \"#utility.yul\":5647:5669   */\n      add\n        /* \"#utility.yul\":5626:5679   */\n      tag_123\n      jump\t// in\n    tag_206:\n        /* \"#utility.yul\":5616:5679   */\n      swap2\n      pop\n        /* \"#utility.yul\":5572:5689   */\n      pop\n        /* \"#utility.yul\":5367:5696   */\n      swap3\n      swap2\n      pop\n      pop\n      jump\t// out\n        /* \"#utility.yul\":5702:5882   */\n    tag_124:\n        /* \"#utility.yul\":5750:5827   */\n      0x4e487b7100000000000000000000000000000000000000000000000000000000\n        /* \"#utility.yul\":5747:5748   */\n      0x00\n        /* \"#utility.yul\":5740:5828   */\n      mstore\n        /* \"#utility.yul\":5847:5851   */\n      0x22\n        /* \"#utility.yul\":5844:5845   */\n      0x04\n        /* \"#utility.yul\":5837:5852   */\n      mstore\n        /* \"#utility.yul\":5871:5875   */\n      0x24\n        /* \"#utility.yul\":5868:5869   */\n      0x00\n        /* \"#utility.yul\":5861:5876   */\n      revert\n        /* \"#utility.yul\":5888:6208   */\n    tag_39:\n        /* \"#utility.yul\":5932:5938   */\n      0x00\n        /* \"#utility.yul\":5969:5970   */\n      0x02\n        /* \"#utility.yul\":5963:5967   */\n      dup3\n        /* \"#utility.yul\":5959:5971   */\n      div\n        /* \"#utility.yul\":5949:5971   */\n      swap1\n      pop\n        /* \"#utility.yul\":6016:6017   */\n      0x01\n        /* \"#utility.yul\":6010:6014   */\n      dup3\n        /* \"#utility.yul\":6006:6018   */\n      and\n        /* \"#utility.yul\":6037:6055   */\n      dup1\n        /* \"#utility.yul\":6027:6108   */\n      tag_209\n      jumpi\n        /* \"#utility.yul\":6093:6097   */\n      0x7f\n        /* \"#utility.yul\":6085:6091   */\n      dup3\n        /* \"#utility.yul\":6081:6098   */\n      and\n        /* \"#utility.yul\":6071:6098   */\n      swap2\n      pop\n        /* \"#utility.yul\":6027:6108   */\n    tag_209:\n        /* \"#utility.yul\":6155:6157   */\n      0x20\n        /* \"#utility.yul\":6147:6153   */\n      dup3\n        /* \"#utility.yul\":6144:6158   */\n      lt\n        /* \"#utility.yul\":6124:6142   */\n      dup2\n        /* \"#utility.yul\":6121:6159   */\n      sub\n        /* \"#utility.yul\":6118:6202   */\n      tag_210\n      jumpi\n        /* \"#utility.yul\":6174:6192   */\n      tag_211\n      tag_124\n      jump\t// in\n    tag_211:\n        /* \"#utility.yul\":6118:6202   */\n    tag_210:\n        /* \"#utility.yul\":5939:6208   */\n      pop\n        /* \"#utility.yul\":5888:6208   */\n      swap2\n      swap1\n      pop\n      jump\t// out\n        /* \"#utility.yul\":6214:6452   */\n    tag_125:\n        /* \"#utility.yul\":6354:6388   */\n      0x596f75206e65656420746f20736574206120776f726420616e64206120746970\n        /* \"#utility.yul\":6350:6351   */\n      0x00\n        /* \"#utility.yul\":6342:6348   */\n      dup3\n        /* \"#utility.yul\":6338:6352   */\n      add\n        /* \"#utility.yul\":6331:6389   */\n      mstore\n        /* \"#utility.yul\":6423:6444   */\n      0x20746f207374617274207468652067616d652e00000000000000000000000000\n        /* \"#utility.yul\":6418:6420   */\n      0x20\n        /* \"#utility.yul\":6410:6416   */\n      dup3\n        /* \"#utility.yul\":6406:6421   */\n      add\n        /* \"#utility.yul\":6399:6445   */\n      mstore\n        /* \"#utility.yul\":6214:6452   */\n      pop\n      jump\t// out\n        /* \"#utility.yul\":6458:6824   */\n    tag_126:\n        /* \"#utility.yul\":6600:6603   */\n      0x00\n        /* \"#utility.yul\":6621:6688   */\n      tag_214\n        /* \"#utility.yul\":6685:6687   */\n      0x33\n        /* \"#utility.yul\":6680:6683   */\n      dup4\n        /* \"#utility.yul\":6621:6688   */\n      tag_106\n      jump\t// in\n    tag_214:\n        /* \"#utility.yul\":6614:6688   */\n      swap2\n      pop\n        /* \"#utility.yul\":6697:6790   */\n      tag_215\n        /* \"#utility.yul\":6786:6789   */\n      dup3\n        /* \"#utility.yul\":6697:6790   */\n      tag_125\n      jump\t// in\n    tag_215:\n        /* \"#utility.yul\":6815:6817   */\n      0x40\n        /* \"#utility.yul\":6810:6813   */\n      dup3\n        /* \"#utility.yul\":6806:6818   */\n      add\n        /* \"#utility.yul\":6799:6818   */\n      swap1\n      pop\n        /* \"#utility.yul\":6458:6824   */\n      swap2\n      swap1\n      pop\n      jump\t// out\n        /* \"#utility.yul\":6830:7249   */\n    tag_57:\n        /* \"#utility.yul\":6996:7000   */\n      0x00\n        /* \"#utility.yul\":7034:7036   */\n      0x20\n        /* \"#utility.yul\":7023:7032   */\n      dup3\n        /* \"#utility.yul\":7019:7037   */\n      add\n        /* \"#utility.yul\":7011:7037   */\n      swap1\n      pop\n        /* \"#utility.yul\":7083:7092   */\n      dup2\n        /* \"#utility.yul\":7077:7081   */\n      dup2\n        /* \"#utility.yul\":7073:7093   */\n      sub\n        /* \"#utility.yul\":7069:7070   */\n      0x00\n        /* \"#utility.yul\":7058:7067   */\n      dup4\n        /* \"#utility.yul\":7054:7071   */\n      add\n        /* \"#utility.yul\":7047:7094   */\n      mstore\n        /* \"#utility.yul\":7111:7242   */\n      tag_217\n        /* \"#utility.yul\":7237:7241   */\n      dup2\n        /* \"#utility.yul\":7111:7242   */\n      tag_126\n      jump\t// in\n    tag_217:\n        /* \"#utility.yul\":7103:7242   */\n      swap1\n      pop\n        /* \"#utility.yul\":6830:7249   */\n      swap2\n      swap1\n      pop\n      jump\t// out\n        /* \"#utility.yul\":7255:7433   */\n    tag_127:\n        /* \"#utility.yul\":7395:7425   */\n      0x5468652067616d65206973206e6f742073746172746564207965742e00000000\n        /* \"#utility.yul\":7391:7392   */\n      0x00\n        /* \"#utility.yul\":7383:7389   */\n      dup3\n        /* \"#utility.yul\":7379:7393   */\n      add\n        /* \"#utility.yul\":7372:7426   */\n      mstore\n        /* \"#utility.yul\":7255:7433   */\n      pop\n      jump\t// out\n        /* \"#utility.yul\":7439:7805   */\n    tag_128:\n        /* \"#utility.yul\":7581:7584   */\n      0x00\n        /* \"#utility.yul\":7602:7669   */\n      tag_220\n        /* \"#utility.yul\":7666:7668   */\n      0x1c\n        /* \"#utility.yul\":7661:7664   */\n      dup4\n        /* \"#utility.yul\":7602:7669   */\n      tag_106\n      jump\t// in\n    tag_220:\n        /* \"#utility.yul\":7595:7669   */\n      swap2\n      pop\n        /* \"#utility.yul\":7678:7771   */\n      tag_221\n        /* \"#utility.yul\":7767:7770   */\n      dup3\n        /* \"#utility.yul\":7678:7771   */\n      tag_127\n      jump\t// in\n    tag_221:\n        /* \"#utility.yul\":7796:7798   */\n      0x20\n        /* \"#utility.yul\":7791:7794   */\n      dup3\n        /* \"#utility.yul\":7787:7799   */\n      add\n        /* \"#utility.yul\":7780:7799   */\n      swap1\n      pop\n        /* \"#utility.yul\":7439:7805   */\n      swap2\n      swap1\n      pop\n      jump\t// out\n        /* \"#utility.yul\":7811:8230   */\n    tag_67:\n        /* \"#utility.yul\":7977:7981   */\n      0x00\n        /* \"#utility.yul\":8015:8017   */\n      0x20\n        /* \"#utility.yul\":8004:8013   */\n      dup3\n        /* \"#utility.yul\":8000:8018   */\n      add\n        /* \"#utility.yul\":7992:8018   */\n      swap1\n      pop\n        /* \"#utility.yul\":8064:8073   */\n      dup2\n        /* \"#utility.yul\":8058:8062   */\n      dup2\n        /* \"#utility.yul\":8054:8074   */\n      sub\n        /* \"#utility.yul\":8050:8051   */\n      0x00\n        /* \"#utility.yul\":8039:8048   */\n      dup4\n        /* \"#utility.yul\":8035:8052   */\n      add\n        /* \"#utility.yul\":8028:8075   */\n      mstore\n        /* \"#utility.yul\":8092:8223   */\n      tag_223\n        /* \"#utility.yul\":8218:8222   */\n      dup2\n        /* \"#utility.yul\":8092:8223   */\n      tag_128\n      jump\t// in\n    tag_223:\n        /* \"#utility.yul\":8084:8223   */\n      swap1\n      pop\n        /* \"#utility.yul\":7811:8230   */\n      swap2\n      swap1\n      pop\n      jump\t// out\n        /* \"#utility.yul\":8236:8412   */\n    tag_129:\n        /* \"#utility.yul\":8376:8404   */\n      0x546865726520697320616c726561647920612077696e6e65722e000000000000\n        /* \"#utility.yul\":8372:8373   */\n      0x00\n        /* \"#utility.yul\":8364:8370   */\n      dup3\n        /* \"#utility.yul\":8360:8374   */\n      add\n        /* \"#utility.yul\":8353:8405   */\n      mstore\n        /* \"#utility.yul\":8236:8412   */\n      pop\n      jump\t// out\n        /* \"#utility.yul\":8418:8784   */\n    tag_130:\n        /* \"#utility.yul\":8560:8563   */\n      0x00\n        /* \"#utility.yul\":8581:8648   */\n      tag_226\n        /* \"#utility.yul\":8645:8647   */\n      0x1a\n        /* \"#utility.yul\":8640:8643   */\n      dup4\n        /* \"#utility.yul\":8581:8648   */\n      tag_106\n      jump\t// in\n    tag_226:\n        /* \"#utility.yul\":8574:8648   */\n      swap2\n      pop\n        /* \"#utility.yul\":8657:8750   */\n      tag_227\n        /* \"#utility.yul\":8746:8749   */\n      dup3\n        /* \"#utility.yul\":8657:8750   */\n      tag_129\n      jump\t// in\n    tag_227:\n        /* \"#utility.yul\":8775:8777   */\n      0x20\n        /* \"#utility.yul\":8770:8773   */\n      dup3\n        /* \"#utility.yul\":8766:8778   */\n      add\n        /* \"#utility.yul\":8759:8778   */\n      swap1\n      pop\n        /* \"#utility.yul\":8418:8784   */\n      swap2\n      swap1\n      pop\n      jump\t// out\n        /* \"#utility.yul\":8790:9209   */\n    tag_70:\n        /* \"#utility.yul\":8956:8960   */\n      0x00\n        /* \"#utility.yul\":8994:8996   */\n      0x20\n        /* \"#utility.yul\":8983:8992   */\n      dup3\n        /* \"#utility.yul\":8979:8997   */\n      add\n        /* \"#utility.yul\":8971:8997   */\n      swap1\n      pop\n        /* \"#utility.yul\":9043:9052   */\n      dup2\n        /* \"#utility.yul\":9037:9041   */\n      dup2\n        /* \"#utility.yul\":9033:9053   */\n      sub\n        /* \"#utility.yul\":9029:9030   */\n      0x00\n        /* \"#utility.yul\":9018:9027   */\n      dup4\n        /* \"#utility.yul\":9014:9031   */\n      add\n        /* \"#utility.yul\":9007:9054   */\n      mstore\n        /* \"#utility.yul\":9071:9202   */\n      tag_229\n        /* \"#utility.yul\":9197:9201   */\n      dup2\n        /* \"#utility.yul\":9071:9202   */\n      tag_130\n      jump\t// in\n    tag_229:\n        /* \"#utility.yul\":9063:9202   */\n      swap1\n      pop\n        /* \"#utility.yul\":8790:9209   */\n      swap2\n      swap1\n      pop\n      jump\t// out\n        /* \"#utility.yul\":9215:9384   */\n    tag_131:\n        /* \"#utility.yul\":9355:9376   */\n      0x596f7520616c726561647920706c617965642e00000000000000000000000000\n        /* \"#utility.yul\":9351:9352   */\n      0x00\n        /* \"#utility.yul\":9343:9349   */\n      dup3\n        /* \"#utility.yul\":9339:9353   */\n      add\n        /* \"#utility.yul\":9332:9377   */\n      mstore\n        /* \"#utility.yul\":9215:9384   */\n      pop\n      jump\t// out\n        /* \"#utility.yul\":9390:9756   */\n    tag_132:\n        /* \"#utility.yul\":9532:9535   */\n      0x00\n        /* \"#utility.yul\":9553:9620   */\n      tag_232\n        /* \"#utility.yul\":9617:9619   */\n      0x13\n        /* \"#utility.yul\":9612:9615   */\n      dup4\n        /* \"#utility.yul\":9553:9620   */\n      tag_106\n      jump\t// in\n    tag_232:\n        /* \"#utility.yul\":9546:9620   */\n      swap2\n      pop\n        /* \"#utility.yul\":9629:9722   */\n      tag_233\n        /* \"#utility.yul\":9718:9721   */\n      dup3\n        /* \"#utility.yul\":9629:9722   */\n      tag_131\n      jump\t// in\n    tag_233:\n        /* \"#utility.yul\":9747:9749   */\n      0x20\n        /* \"#utility.yul\":9742:9745   */\n      dup3\n        /* \"#utility.yul\":9738:9750   */\n      add\n        /* \"#utility.yul\":9731:9750   */\n      swap1\n      pop\n        /* \"#utility.yul\":9390:9756   */\n      swap2\n      swap1\n      pop\n      jump\t// out\n        /* \"#utility.yul\":9762:10181   */\n    tag_73:\n        /* \"#utility.yul\":9928:9932   */\n      0x00\n        /* \"#utility.yul\":9966:9968   */\n      0x20\n        /* \"#utility.yul\":9955:9964   */\n      dup3\n        /* \"#utility.yul\":9951:9969   */\n      add\n        /* \"#utility.yul\":9943:9969   */\n      swap1\n      pop\n        /* \"#utility.yul\":10015:10024   */\n      dup2\n        /* \"#utility.yul\":10009:10013   */\n      dup2\n        /* \"#utility.yul\":10005:10025   */\n      sub\n        /* \"#utility.yul\":10001:10002   */\n      0x00\n        /* \"#utility.yul\":9990:9999   */\n      dup4\n        /* \"#utility.yul\":9986:10003   */\n      add\n        /* \"#utility.yul\":9979:10026   */\n      mstore\n        /* \"#utility.yul\":10043:10174   */\n      tag_235\n        /* \"#utility.yul\":10169:10173   */\n      dup2\n        /* \"#utility.yul\":10043:10174   */\n      tag_132\n      jump\t// in\n    tag_235:\n        /* \"#utility.yul\":10035:10174   */\n      swap1\n      pop\n        /* \"#utility.yul\":9762:10181   */\n      swap2\n      swap1\n      pop\n      jump\t// out\n        /* \"#utility.yul\":10187:10335   */\n    tag_133:\n        /* \"#utility.yul\":10289:10300   */\n      0x00\n        /* \"#utility.yul\":10326:10329   */\n      dup2\n        /* \"#utility.yul\":10311:10329   */\n      swap1\n      pop\n        /* \"#utility.yul\":10187:10335   */\n      swap3\n      swap2\n      pop\n      pop\n      jump\t// out\n        /* \"#utility.yul\":10341:10482   */\n    tag_134:\n        /* \"#utility.yul\":10390:10394   */\n      0x00\n        /* \"#utility.yul\":10413:10416   */\n      dup2\n        /* \"#utility.yul\":10405:10416   */\n      swap1\n      pop\n        /* \"#utility.yul\":10436:10439   */\n      dup2\n        /* \"#utility.yul\":10433:10434   */\n      0x00\n        /* \"#utility.yul\":10426:10440   */\n      mstore\n        /* \"#utility.yul\":10470:10474   */\n      0x20\n        /* \"#utility.yul\":10467:10468   */\n      0x00\n        /* \"#utility.yul\":10457:10475   */\n      keccak256\n        /* \"#utility.yul\":10449:10475   */\n      swap1\n      pop\n        /* \"#utility.yul\":10341:10482   */\n      swap2\n      swap1\n      pop\n      jump\t// out\n        /* \"#utility.yul\":10512:11357   */\n    tag_135:\n        /* \"#utility.yul\":10615:10618   */\n      0x00\n        /* \"#utility.yul\":10652:10657   */\n      dup2\n        /* \"#utility.yul\":10646:10658   */\n      sload\n        /* \"#utility.yul\":10681:10717   */\n      tag_239\n        /* \"#utility.yul\":10707:10716   */\n      dup2\n        /* \"#utility.yul\":10681:10717   */\n      tag_39\n      jump\t// in\n    tag_239:\n        /* \"#utility.yul\":10733:10822   */\n      tag_240\n        /* \"#utility.yul\":10815:10821   */\n      dup2\n        /* \"#utility.yul\":10810:10813   */\n      dup7\n        /* \"#utility.yul\":10733:10822   */\n      tag_133\n      jump\t// in\n    tag_240:\n        /* \"#utility.yul\":10726:10822   */\n      swap5\n      pop\n        /* \"#utility.yul\":10853:10854   */\n      0x01\n        /* \"#utility.yul\":10842:10851   */\n      dup3\n        /* \"#utility.yul\":10838:10855   */\n      and\n        /* \"#utility.yul\":10869:10870   */\n      0x00\n        /* \"#utility.yul\":10864:11001   */\n      dup2\n      eq\n      tag_242\n      jumpi\n        /* \"#utility.yul\":11015:11016   */\n      0x01\n        /* \"#utility.yul\":11010:11351   */\n      dup2\n      eq\n      tag_243\n      jumpi\n        /* \"#utility.yul\":10831:11351   */\n      jump(tag_241)\n        /* \"#utility.yul\":10864:11001   */\n    tag_242:\n        /* \"#utility.yul\":10948:10952   */\n      0xff\n        /* \"#utility.yul\":10944:10953   */\n      not\n        /* \"#utility.yul\":10933:10942   */\n      dup4\n        /* \"#utility.yul\":10929:10954   */\n      and\n        /* \"#utility.yul\":10924:10927   */\n      dup7\n        /* \"#utility.yul\":10917:10955   */\n      mstore\n        /* \"#utility.yul\":10984:10990   */\n      dup2\n        /* \"#utility.yul\":10979:10982   */\n      dup7\n        /* \"#utility.yul\":10975:10991   */\n      add\n        /* \"#utility.yul\":10968:10991   */\n      swap4\n      pop\n        /* \"#utility.yul\":10864:11001   */\n      jump(tag_241)\n        /* \"#utility.yul\":11010:11351   */\n    tag_243:\n        /* \"#utility.yul\":11077:11115   */\n      tag_244\n        /* \"#utility.yul\":11109:11114   */\n      dup6\n        /* \"#utility.yul\":11077:11115   */\n      tag_134\n      jump\t// in\n    tag_244:\n        /* \"#utility.yul\":11137:11138   */\n      0x00\n        /* \"#utility.yul\":11151:11305   */\n    tag_245:\n        /* \"#utility.yul\":11165:11171   */\n      dup4\n        /* \"#utility.yul\":11162:11163   */\n      dup2\n        /* \"#utility.yul\":11159:11172   */\n      lt\n        /* \"#utility.yul\":11151:11305   */\n      iszero\n      tag_247\n      jumpi\n        /* \"#utility.yul\":11239:11246   */\n      dup2\n        /* \"#utility.yul\":11233:11247   */\n      sload\n        /* \"#utility.yul\":11229:11230   */\n      dup2\n        /* \"#utility.yul\":11224:11227   */\n      dup10\n        /* \"#utility.yul\":11220:11231   */\n      add\n        /* \"#utility.yul\":11213:11248   */\n      mstore\n        /* \"#utility.yul\":11289:11290   */\n      0x01\n        /* \"#utility.yul\":11280:11287   */\n      dup3\n        /* \"#utility.yul\":11276:11291   */\n      add\n        /* \"#utility.yul\":11265:11291   */\n      swap2\n      pop\n        /* \"#utility.yul\":11187:11191   */\n      0x20\n        /* \"#utility.yul\":11184:11185   */\n      dup2\n        /* \"#utility.yul\":11180:11192   */\n      add\n        /* \"#utility.yul\":11175:11192   */\n      swap1\n      pop\n        /* \"#utility.yul\":11151:11305   */\n      jump(tag_245)\n    tag_247:\n        /* \"#utility.yul\":11334:11340   */\n      dup4\n        /* \"#utility.yul\":11329:11332   */\n      dup9\n        /* \"#utility.yul\":11325:11341   */\n      add\n        /* \"#utility.yul\":11318:11341   */\n      swap6\n      pop\n        /* \"#utility.yul\":11017:11351   */\n      pop\n      pop\n        /* \"#utility.yul\":10831:11351   */\n    tag_241:\n      pop\n        /* \"#utility.yul\":10619:11357   */\n      pop\n      pop\n        /* \"#utility.yul\":10512:11357   */\n      swap3\n      swap2\n      pop\n      pop\n      jump\t// out\n        /* \"#utility.yul\":11363:11632   */\n    tag_75:\n        /* \"#utility.yul\":11492:11495   */\n      0x00\n        /* \"#utility.yul\":11514:11606   */\n      tag_249\n        /* \"#utility.yul\":11602:11605   */\n      dup3\n        /* \"#utility.yul\":11593:11599   */\n      dup5\n        /* \"#utility.yul\":11514:11606   */\n      tag_135\n      jump\t// in\n    tag_249:\n        /* \"#utility.yul\":11507:11606   */\n      swap2\n      pop\n        /* \"#utility.yul\":11623:11626   */\n      dup2\n        /* \"#utility.yul\":11616:11626   */\n      swap1\n      pop\n        /* \"#utility.yul\":11363:11632   */\n      swap3\n      swap2\n      pop\n      pop\n      jump\t// out\n        /* \"#utility.yul\":11638:11792   */\n    tag_136:\n        /* \"#utility.yul\":11722:11728   */\n      dup3\n        /* \"#utility.yul\":11717:11720   */\n      dup2\n        /* \"#utility.yul\":11712:11715   */\n      dup4\n        /* \"#utility.yul\":11699:11729   */\n      calldatacopy\n        /* \"#utility.yul\":11784:11785   */\n      0x00\n        /* \"#utility.yul\":11775:11781   */\n      dup4\n        /* \"#utility.yul\":11770:11773   */\n      dup4\n        /* \"#utility.yul\":11766:11782   */\n      add\n        /* \"#utility.yul\":11759:11786   */\n      mstore\n        /* \"#utility.yul\":11638:11792   */\n      pop\n      pop\n      pop\n      jump\t// out\n        /* \"#utility.yul\":11822:12139   */\n    tag_137:\n        /* \"#utility.yul\":11938:11941   */\n      0x00\n        /* \"#utility.yul\":11959:12048   */\n      tag_252\n        /* \"#utility.yul\":12041:12047   */\n      dup4\n        /* \"#utility.yul\":12036:12039   */\n      dup6\n        /* \"#utility.yul\":11959:12048   */\n      tag_133\n      jump\t// in\n    tag_252:\n        /* \"#utility.yul\":11952:12048   */\n      swap4\n      pop\n        /* \"#utility.yul\":12058:12101   */\n      tag_253\n        /* \"#utility.yul\":12094:12100   */\n      dup4\n        /* \"#utility.yul\":12089:12092   */\n      dup6\n        /* \"#utility.yul\":12082:12087   */\n      dup5\n        /* \"#utility.yul\":12058:12101   */\n      tag_136\n      jump\t// in\n    tag_253:\n        /* \"#utility.yul\":12126:12132   */\n      dup3\n        /* \"#utility.yul\":12121:12124   */\n      dup5\n        /* \"#utility.yul\":12117:12133   */\n      add\n        /* \"#utility.yul\":12110:12133   */\n      swap1\n      pop\n        /* \"#utility.yul\":11822:12139   */\n      swap4\n      swap3\n      pop\n      pop\n      pop\n      jump\t// out\n        /* \"#utility.yul\":12145:12440   */\n    tag_77:\n        /* \"#utility.yul\":12287:12290   */\n      0x00\n        /* \"#utility.yul\":12309:12414   */\n      tag_255\n        /* \"#utility.yul\":12410:12413   */\n      dup3\n        /* \"#utility.yul\":12401:12407   */\n      dup5\n        /* \"#utility.yul\":12393:12399   */\n      dup7\n        /* \"#utility.yul\":12309:12414   */\n      tag_137\n      jump\t// in\n    tag_255:\n        /* \"#utility.yul\":12302:12414   */\n      swap2\n      pop\n        /* \"#utility.yul\":12431:12434   */\n      dup2\n        /* \"#utility.yul\":12424:12434   */\n      swap1\n      pop\n        /* \"#utility.yul\":12145:12440   */\n      swap4\n      swap3\n      pop\n      pop\n      pop\n      jump\t// out\n        /* \"#utility.yul\":12446:12671   */\n    tag_138:\n        /* \"#utility.yul\":12586:12620   */\n      0x4f776e61626c653a206e6577206f776e657220697320746865207a65726f2061\n        /* \"#utility.yul\":12582:12583   */\n      0x00\n        /* \"#utility.yul\":12574:12580   */\n      dup3\n        /* \"#utility.yul\":12570:12584   */\n      add\n        /* \"#utility.yul\":12563:12621   */\n      mstore\n        /* \"#utility.yul\":12655:12663   */\n      0x6464726573730000000000000000000000000000000000000000000000000000\n        /* \"#utility.yul\":12650:12652   */\n      0x20\n        /* \"#utility.yul\":12642:12648   */\n      dup3\n        /* \"#utility.yul\":12638:12653   */\n      add\n        /* \"#utility.yul\":12631:12664   */\n      mstore\n        /* \"#utility.yul\":12446:12671   */\n      pop\n      jump\t// out\n        /* \"#utility.yul\":12677:13043   */\n    tag_139:\n        /* \"#utility.yul\":12819:12822   */\n      0x00\n        /* \"#utility.yul\":12840:12907   */\n      tag_258\n        /* \"#utility.yul\":12904:12906   */\n      0x26\n        /* \"#utility.yul\":12899:12902   */\n      dup4\n        /* \"#utility.yul\":12840:12907   */\n      tag_106\n      jump\t// in\n    tag_258:\n        /* \"#utility.yul\":12833:12907   */\n      swap2\n      pop\n        /* \"#utility.yul\":12916:13009   */\n      tag_259\n        /* \"#utility.yul\":13005:13008   */\n      dup3\n        /* \"#utility.yul\":12916:13009   */\n      tag_138\n      jump\t// in\n    tag_259:\n        /* \"#utility.yul\":13034:13036   */\n      0x40\n        /* \"#utility.yul\":13029:13032   */\n      dup3\n        /* \"#utility.yul\":13025:13037   */\n      add\n        /* \"#utility.yul\":13018:13037   */\n      swap1\n      pop\n        /* \"#utility.yul\":12677:13043   */\n      swap2\n      swap1\n      pop\n      jump\t// out\n        /* \"#utility.yul\":13049:13468   */\n    tag_84:\n        /* \"#utility.yul\":13215:13219   */\n      0x00\n        /* \"#utility.yul\":13253:13255   */\n      0x20\n        /* \"#utility.yul\":13242:13251   */\n      dup3\n        /* \"#utility.yul\":13238:13256   */\n      add\n        /* \"#utility.yul\":13230:13256   */\n      swap1\n      pop\n        /* \"#utility.yul\":13302:13311   */\n      dup2\n        /* \"#utility.yul\":13296:13300   */\n      dup2\n        /* \"#utility.yul\":13292:13312   */\n      sub\n        /* \"#utility.yul\":13288:13289   */\n      0x00\n        /* \"#utility.yul\":13277:13286   */\n      dup4\n        /* \"#utility.yul\":13273:13290   */\n      add\n        /* \"#utility.yul\":13266:13313   */\n      mstore\n        /* \"#utility.yul\":13330:13461   */\n      tag_261\n        /* \"#utility.yul\":13456:13460   */\n      dup2\n        /* \"#utility.yul\":13330:13461   */\n      tag_139\n      jump\t// in\n    tag_261:\n        /* \"#utility.yul\":13322:13461   */\n      swap1\n      pop\n        /* \"#utility.yul\":13049:13468   */\n      swap2\n      swap1\n      pop\n      jump\t// out\n        /* \"#utility.yul\":13474:13656   */\n    tag_140:\n        /* \"#utility.yul\":13614:13648   */\n      0x4f776e61626c653a2063616c6c6572206973206e6f7420746865206f776e6572\n        /* \"#utility.yul\":13610:13611   */\n      0x00\n        /* \"#utility.yul\":13602:13608   */\n      dup3\n        /* \"#utility.yul\":13598:13612   */\n      add\n        /* \"#utility.yul\":13591:13649   */\n      mstore\n        /* \"#utility.yul\":13474:13656   */\n      pop\n      jump\t// out\n        /* \"#utility.yul\":13662:14028   */\n    tag_141:\n        /* \"#utility.yul\":13804:13807   */\n      0x00\n        /* \"#utility.yul\":13825:13892   */\n      tag_264\n        /* \"#utility.yul\":13889:13891   */\n      0x20\n        /* \"#utility.yul\":13884:13887   */\n      dup4\n        /* \"#utility.yul\":13825:13892   */\n      tag_106\n      jump\t// in\n    tag_264:\n        /* \"#utility.yul\":13818:13892   */\n      swap2\n      pop\n        /* \"#utility.yul\":13901:13994   */\n      tag_265\n        /* \"#utility.yul\":13990:13993   */\n      dup3\n        /* \"#utility.yul\":13901:13994   */\n      tag_140\n      jump\t// in\n    tag_265:\n        /* \"#utility.yul\":14019:14021   */\n      0x20\n        /* \"#utility.yul\":14014:14017   */\n      dup3\n        /* \"#utility.yul\":14010:14022   */\n      add\n        /* \"#utility.yul\":14003:14022   */\n      swap1\n      pop\n        /* \"#utility.yul\":13662:14028   */\n      swap2\n      swap1\n      pop\n      jump\t// out\n        /* \"#utility.yul\":14034:14453   */\n    tag_92:\n        /* \"#utility.yul\":14200:14204   */\n      0x00\n        /* \"#utility.yul\":14238:14240   */\n      0x20\n        /* \"#utility.yul\":14227:14236   */\n      dup3\n        /* \"#utility.yul\":14223:14241   */\n      add\n        /* \"#utility.yul\":14215:14241   */\n      swap1\n      pop\n        /* \"#utility.yul\":14287:14296   */\n      dup2\n        /* \"#utility.yul\":14281:14285   */\n      dup2\n        /* \"#utility.yul\":14277:14297   */\n      sub\n        /* \"#utility.yul\":14273:14274   */\n      0x00\n        /* \"#utility.yul\":14262:14271   */\n      dup4\n        /* \"#utility.yul\":14258:14275   */\n      add\n        /* \"#utility.yul\":14251:14298   */\n      mstore\n        /* \"#utility.yul\":14315:14446   */\n      tag_267\n        /* \"#utility.yul\":14441:14445   */\n      dup2\n        /* \"#utility.yul\":14315:14446   */\n      tag_141\n      jump\t// in\n    tag_267:\n        /* \"#utility.yul\":14307:14446   */\n      swap1\n      pop\n        /* \"#utility.yul\":14034:14453   */\n      swap2\n      swap1\n      pop\n      jump\t// out\n\n    auxdata: 0xa2646970667358221220bf59033dac5a2df463c46c039b64a156f1973df5eec43301d352317e9434d81964736f6c634300080d0033\n}\n",
				"bytecode": {
					"linkReferences": {},
					"object": "608060405234801561001057600080fd5b5061002d61002261003260201b60201c565b61003a60201b60201c565b6100fe565b600033905090565b60008060009054906101000a900473ffffffffffffffffffffffffffffffffffffffff169050816000806101000a81548173ffffffffffffffffffffffffffffffffffffffff021916908373ffffffffffffffffffffffffffffffffffffffff1602179055508173ffffffffffffffffffffffffffffffffffffffff168173ffffffffffffffffffffffffffffffffffffffff167f8be0079c531659141344cd1fd0a4f28419497f9722a3daafe3b4186f6b6457e060405160405180910390a35050565b610f108061010d6000396000f3fe608060405234801561001057600080fd5b506004361061007d5760003560e01c8063bc17e05b1161005b578063bc17e05b146100c8578063dfbf53ae146100e4578063e96aa63114610102578063f2fde38b146101325761007d565b80631a4e1e7814610082578063715018a6146100a05780638da5cb5b146100aa575b600080fd5b61008a61014e565b6040516100979190610859565b60405180910390f35b6100a86101dc565b005b6100b26101f0565b6040516100bf91906108bc565b60405180910390f35b6100e260048036038101906100dd9190610946565b610219565b005b6100ec6102a0565b6040516100f991906108bc565b60405180910390f35b61011c600480360381019061011791906109c7565b6102c6565b6040516101299190610a2f565b60405180910390f35b61014c60048036038101906101479190610a76565b610550565b005b6001805461015b90610ad2565b80601f016020809104026020016040519081016040528092919081815260200182805461018790610ad2565b80156101d45780601f106101a9576101008083540402835291602001916101d4565b820191906000526020600020905b8154815290600101906020018083116101b757829003601f168201915b505050505081565b6101e46105d3565b6101ee6000610651565b565b60008060009054906101000a900473ffffffffffffffffffffffffffffffffffffffff16905090565b6102216105d3565b6000848490501180156102375750600082829050115b610276576040517f08c379a000000000000000000000000000000000000000000000000000000000815260040161026d90610b75565b60405180910390fd5b81816001919061028792919061071d565b5083836002919061029992919061071d565b5050505050565b600360009054906101000a900473ffffffffffffffffffffffffffffffffffffffff1681565b600080600280546102d690610ad2565b90501180156102f357506000600180546102ef90610ad2565b9050115b610332576040517f08c379a000000000000000000000000000000000000000000000000000000000815260040161032990610be1565b60405180910390fd5b600073ffffffffffffffffffffffffffffffffffffffff16600360009054906101000a900473ffffffffffffffffffffffffffffffffffffffff1673ffffffffffffffffffffffffffffffffffffffff16146103c3576040517f08c379a00000000000000000000000000000000000000000000000000000000081526004016103ba90610c4d565b60405180910390fd5b600460003373ffffffffffffffffffffffffffffffffffffffff1673ffffffffffffffffffffffffffffffffffffffff16815260200190815260200160002060009054906101000a900460ff1615610450576040517f08c379a000000000000000000000000000000000000000000000000000000000815260040161044790610cb9565b60405180910390fd5b6001600460003373ffffffffffffffffffffffffffffffffffffffff1673ffffffffffffffffffffffffffffffffffffffff16815260200190815260200160002060006101000a81548160ff021916908315150217905550600060026040516020016104bc9190610d78565b6040516020818303038152906040528051906020012084846040516020016104e5929190610dc3565b6040516020818303038152906040528051906020012014905080156105465733600360006101000a81548173ffffffffffffffffffffffffffffffffffffffff021916908373ffffffffffffffffffffffffffffffffffffffff1602179055505b8091505092915050565b6105586105d3565b600073ffffffffffffffffffffffffffffffffffffffff168173ffffffffffffffffffffffffffffffffffffffff16036105c7576040517f08c379a00000000000000000000000000000000000000000000000000000000081526004016105be90610e4e565b60405180910390fd5b6105d081610651565b50565b6105db610715565b73ffffffffffffffffffffffffffffffffffffffff166105f96101f0565b73ffffffffffffffffffffffffffffffffffffffff161461064f576040517f08c379a000000000000000000000000000000000000000000000000000000000815260040161064690610eba565b60405180910390fd5b565b60008060009054906101000a900473ffffffffffffffffffffffffffffffffffffffff169050816000806101000a81548173ffffffffffffffffffffffffffffffffffffffff021916908373ffffffffffffffffffffffffffffffffffffffff1602179055508173ffffffffffffffffffffffffffffffffffffffff168173ffffffffffffffffffffffffffffffffffffffff167f8be0079c531659141344cd1fd0a4f28419497f9722a3daafe3b4186f6b6457e060405160405180910390a35050565b600033905090565b82805461072990610ad2565b90600052602060002090601f01602090048101928261074b5760008555610792565b82601f1061076457803560ff1916838001178555610792565b82800160010185558215610792579182015b82811115610791578235825591602001919060010190610776565b5b50905061079f91906107a3565b5090565b5b808211156107bc5760008160009055506001016107a4565b5090565b600081519050919050565b600082825260208201905092915050565b60005b838110156107fa5780820151818401526020810190506107df565b83811115610809576000848401525b50505050565b6000601f19601f8301169050919050565b600061082b826107c0565b61083581856107cb565b93506108458185602086016107dc565b61084e8161080f565b840191505092915050565b600060208201905081810360008301526108738184610820565b905092915050565b600073ffffffffffffffffffffffffffffffffffffffff82169050919050565b60006108a68261087b565b9050919050565b6108b68161089b565b82525050565b60006020820190506108d160008301846108ad565b92915050565b600080fd5b600080fd5b600080fd5b600080fd5b600080fd5b60008083601f840112610906576109056108e1565b5b8235905067ffffffffffffffff811115610923576109226108e6565b5b60208301915083600182028301111561093f5761093e6108eb565b5b9250929050565b600080600080604085870312156109605761095f6108d7565b5b600085013567ffffffffffffffff81111561097e5761097d6108dc565b5b61098a878288016108f0565b9450945050602085013567ffffffffffffffff8111156109ad576109ac6108dc565b5b6109b9878288016108f0565b925092505092959194509250565b600080602083850312156109de576109dd6108d7565b5b600083013567ffffffffffffffff8111156109fc576109fb6108dc565b5b610a08858286016108f0565b92509250509250929050565b60008115159050919050565b610a2981610a14565b82525050565b6000602082019050610a446000830184610a20565b92915050565b610a538161089b565b8114610a5e57600080fd5b50565b600081359050610a7081610a4a565b92915050565b600060208284031215610a8c57610a8b6108d7565b5b6000610a9a84828501610a61565b91505092915050565b7f4e487b7100000000000000000000000000000000000000000000000000000000600052602260045260246000fd5b60006002820490506001821680610aea57607f821691505b602082108103610afd57610afc610aa3565b5b50919050565b7f596f75206e65656420746f20736574206120776f726420616e6420612074697060008201527f20746f207374617274207468652067616d652e00000000000000000000000000602082015250565b6000610b5f6033836107cb565b9150610b6a82610b03565b604082019050919050565b60006020820190508181036000830152610b8e81610b52565b9050919050565b7f5468652067616d65206973206e6f742073746172746564207965742e00000000600082015250565b6000610bcb601c836107cb565b9150610bd682610b95565b602082019050919050565b60006020820190508181036000830152610bfa81610bbe565b9050919050565b7f546865726520697320616c726561647920612077696e6e65722e000000000000600082015250565b6000610c37601a836107cb565b9150610c4282610c01565b602082019050919050565b60006020820190508181036000830152610c6681610c2a565b9050919050565b7f596f7520616c726561647920706c617965642e00000000000000000000000000600082015250565b6000610ca36013836107cb565b9150610cae82610c6d565b602082019050919050565b60006020820190508181036000830152610cd281610c96565b9050919050565b600081905092915050565b60008190508160005260206000209050919050565b60008154610d0681610ad2565b610d108186610cd9565b94506001821660008114610d2b5760018114610d3c57610d6f565b60ff19831686528186019350610d6f565b610d4585610ce4565b60005b83811015610d6757815481890152600182019150602081019050610d48565b838801955050505b50505092915050565b6000610d848284610cf9565b915081905092915050565b82818337600083830152505050565b6000610daa8385610cd9565b9350610db7838584610d8f565b82840190509392505050565b6000610dd0828486610d9e565b91508190509392505050565b7f4f776e61626c653a206e6577206f776e657220697320746865207a65726f206160008201527f6464726573730000000000000000000000000000000000000000000000000000602082015250565b6000610e386026836107cb565b9150610e4382610ddc565b604082019050919050565b60006020820190508181036000830152610e6781610e2b565b9050919050565b7f4f776e61626c653a2063616c6c6572206973206e6f7420746865206f776e6572600082015250565b6000610ea46020836107cb565b9150610eaf82610e6e565b602082019050919050565b60006020820190508181036000830152610ed381610e97565b905091905056fea2646970667358221220bf59033dac5a2df463c46c039b64a156f1973df5eec43301d352317e9434d81964736f6c634300080d0033",
					"opcodes": "PUSH1 0x80 PUSH1 0x40 MSTORE CALLVALUE DUP1 ISZERO PUSH2 0x10 JUMPI PUSH1 0x0 DUP1 REVERT JUMPDEST POP PUSH2 0x2D PUSH2 0x22 PUSH2 0x32 PUSH1 0x20 SHL PUSH1 0x20 SHR JUMP JUMPDEST PUSH2 0x3A PUSH1 0x20 SHL PUSH1 0x20 SHR JUMP JUMPDEST PUSH2 0xFE JUMP JUMPDEST PUSH1 0x0 CALLER SWAP1 POP SWAP1 JUMP JUMPDEST PUSH1 0x0 DUP1 PUSH1 0x0 SWAP1 SLOAD SWAP1 PUSH2 0x100 EXP SWAP1 DIV PUSH20 0xFFFFFFFFFFFFFFFFFFFFFFFFFFFFFFFFFFFFFFFF AND SWAP1 POP DUP2 PUSH1 0x0 DUP1 PUSH2 0x100 EXP DUP2 SLOAD DUP2 PUSH20 0xFFFFFFFFFFFFFFFFFFFFFFFFFFFFFFFFFFFFFFFF MUL NOT AND SWAP1 DUP4 PUSH20 0xFFFFFFFFFFFFFFFFFFFFFFFFFFFFFFFFFFFFFFFF AND MUL OR SWAP1 SSTORE POP DUP2 PUSH20 0xFFFFFFFFFFFFFFFFFFFFFFFFFFFFFFFFFFFFFFFF AND DUP2 PUSH20 0xFFFFFFFFFFFFFFFFFFFFFFFFFFFFFFFFFFFFFFFF AND PUSH32 0x8BE0079C531659141344CD1FD0A4F28419497F9722A3DAAFE3B4186F6B6457E0 PUSH1 0x40 MLOAD PUSH1 0x40 MLOAD DUP1 SWAP2 SUB SWAP1 LOG3 POP POP JUMP JUMPDEST PUSH2 0xF10 DUP1 PUSH2 0x10D PUSH1 0x0 CODECOPY PUSH1 0x0 RETURN INVALID PUSH1 0x80 PUSH1 0x40 MSTORE CALLVALUE DUP1 ISZERO PUSH2 0x10 JUMPI PUSH1 0x0 DUP1 REVERT JUMPDEST POP PUSH1 0x4 CALLDATASIZE LT PUSH2 0x7D JUMPI PUSH1 0x0 CALLDATALOAD PUSH1 0xE0 SHR DUP1 PUSH4 0xBC17E05B GT PUSH2 0x5B JUMPI DUP1 PUSH4 0xBC17E05B EQ PUSH2 0xC8 JUMPI DUP1 PUSH4 0xDFBF53AE EQ PUSH2 0xE4 JUMPI DUP1 PUSH4 0xE96AA631 EQ PUSH2 0x102 JUMPI DUP1 PUSH4 0xF2FDE38B EQ PUSH2 0x132 JUMPI PUSH2 0x7D JUMP JUMPDEST DUP1 PUSH4 0x1A4E1E78 EQ PUSH2 0x82 JUMPI DUP1 PUSH4 0x715018A6 EQ PUSH2 0xA0 JUMPI DUP1 PUSH4 0x8DA5CB5B EQ PUSH2 0xAA JUMPI JUMPDEST PUSH1 0x0 DUP1 REVERT JUMPDEST PUSH2 0x8A PUSH2 0x14E JUMP JUMPDEST PUSH1 0x40 MLOAD PUSH2 0x97 SWAP2 SWAP1 PUSH2 0x859 JUMP JUMPDEST PUSH1 0x40 MLOAD DUP1 SWAP2 SUB SWAP1 RETURN JUMPDEST PUSH2 0xA8 PUSH2 0x1DC JUMP JUMPDEST STOP JUMPDEST PUSH2 0xB2 PUSH2 0x1F0 JUMP JUMPDEST PUSH1 0x40 MLOAD PUSH2 0xBF SWAP2 SWAP1 PUSH2 0x8BC JUMP JUMPDEST PUSH1 0x40 MLOAD DUP1 SWAP2 SUB SWAP1 RETURN JUMPDEST PUSH2 0xE2 PUSH1 0x4 DUP1 CALLDATASIZE SUB DUP2 ADD SWAP1 PUSH2 0xDD SWAP2 SWAP1 PUSH2 0x946 JUMP JUMPDEST PUSH2 0x219 JUMP JUMPDEST STOP JUMPDEST PUSH2 0xEC PUSH2 0x2A0 JUMP JUMPDEST PUSH1 0x40 MLOAD PUSH2 0xF9 SWAP2 SWAP1 PUSH2 0x8BC JUMP JUMPDEST PUSH1 0x40 MLOAD DUP1 SWAP2 SUB SWAP1 RETURN JUMPDEST PUSH2 0x11C PUSH1 0x4 DUP1 CALLDATASIZE SUB DUP2 ADD SWAP1 PUSH2 0x117 SWAP2 SWAP1 PUSH2 0x9C7 JUMP JUMPDEST PUSH2 0x2C6 JUMP JUMPDEST PUSH1 0x40 MLOAD PUSH2 0x129 SWAP2 SWAP1 PUSH2 0xA2F JUMP JUMPDEST PUSH1 0x40 MLOAD DUP1 SWAP2 SUB SWAP1 RETURN JUMPDEST PUSH2 0x14C PUSH1 0x4 DUP1 CALLDATASIZE SUB DUP2 ADD SWAP1 PUSH2 0x147 SWAP2 SWAP1 PUSH2 0xA76 JUMP JUMPDEST PUSH2 0x550 JUMP JUMPDEST STOP JUMPDEST PUSH1 0x1 DUP1 SLOAD PUSH2 0x15B SWAP1 PUSH2 0xAD2 JUMP JUMPDEST DUP1 PUSH1 0x1F ADD PUSH1 0x20 DUP1 SWAP2 DIV MUL PUSH1 0x20 ADD PUSH1 0x40 MLOAD SWAP1 DUP2 ADD PUSH1 0x40 MSTORE DUP1 SWAP3 SWAP2 SWAP1 DUP2 DUP2 MSTORE PUSH1 0x20 ADD DUP3 DUP1 SLOAD PUSH2 0x187 SWAP1 PUSH2 0xAD2 JUMP JUMPDEST DUP1 ISZERO PUSH2 0x1D4 JUMPI DUP1 PUSH1 0x1F LT PUSH2 0x1A9 JUMPI PUSH2 0x100 DUP1 DUP4 SLOAD DIV MUL DUP4 MSTORE SWAP2 PUSH1 0x20 ADD SWAP2 PUSH2 0x1D4 JUMP JUMPDEST DUP3 ADD SWAP2 SWAP1 PUSH1 0x0 MSTORE PUSH1 0x20 PUSH1 0x0 KECCAK256 SWAP1 JUMPDEST DUP2 SLOAD DUP2 MSTORE SWAP1 PUSH1 0x1 ADD SWAP1 PUSH1 0x20 ADD DUP1 DUP4 GT PUSH2 0x1B7 JUMPI DUP3 SWAP1 SUB PUSH1 0x1F AND DUP3 ADD SWAP2 JUMPDEST POP POP POP POP POP DUP2 JUMP JUMPDEST PUSH2 0x1E4 PUSH2 0x5D3 JUMP JUMPDEST PUSH2 0x1EE PUSH1 0x0 PUSH2 0x651 JUMP JUMPDEST JUMP JUMPDEST PUSH1 0x0 DUP1 PUSH1 0x0 SWAP1 SLOAD SWAP1 PUSH2 0x100 EXP SWAP1 DIV PUSH20 0xFFFFFFFFFFFFFFFFFFFFFFFFFFFFFFFFFFFFFFFF AND SWAP1 POP SWAP1 JUMP JUMPDEST PUSH2 0x221 PUSH2 0x5D3 JUMP JUMPDEST PUSH1 0x0 DUP5 DUP5 SWAP1 POP GT DUP1 ISZERO PUSH2 0x237 JUMPI POP PUSH1 0x0 DUP3 DUP3 SWAP1 POP GT JUMPDEST PUSH2 0x276 JUMPI PUSH1 0x40 MLOAD PUSH32 0x8C379A000000000000000000000000000000000000000000000000000000000 DUP2 MSTORE PUSH1 0x4 ADD PUSH2 0x26D SWAP1 PUSH2 0xB75 JUMP JUMPDEST PUSH1 0x40 MLOAD DUP1 SWAP2 SUB SWAP1 REVERT JUMPDEST DUP2 DUP2 PUSH1 0x1 SWAP2 SWAP1 PUSH2 0x287 SWAP3 SWAP2 SWAP1 PUSH2 0x71D JUMP JUMPDEST POP DUP4 DUP4 PUSH1 0x2 SWAP2 SWAP1 PUSH2 0x299 SWAP3 SWAP2 SWAP1 PUSH2 0x71D JUMP JUMPDEST POP POP POP POP POP JUMP JUMPDEST PUSH1 0x3 PUSH1 0x0 SWAP1 SLOAD SWAP1 PUSH2 0x100 EXP SWAP1 DIV PUSH20 0xFFFFFFFFFFFFFFFFFFFFFFFFFFFFFFFFFFFFFFFF AND DUP2 JUMP JUMPDEST PUSH1 0x0 DUP1 PUSH1 0x2 DUP1 SLOAD PUSH2 0x2D6 SWAP1 PUSH2 0xAD2 JUMP JUMPDEST SWAP1 POP GT DUP1 ISZERO PUSH2 0x2F3 JUMPI POP PUSH1 0x0 PUSH1 0x1 DUP1 SLOAD PUSH2 0x2EF SWAP1 PUSH2 0xAD2 JUMP JUMPDEST SWAP1 POP GT JUMPDEST PUSH2 0x332 JUMPI PUSH1 0x40 MLOAD PUSH32 0x8C379A000000000000000000000000000000000000000000000000000000000 DUP2 MSTORE PUSH1 0x4 ADD PUSH2 0x329 SWAP1 PUSH2 0xBE1 JUMP JUMPDEST PUSH1 0x40 MLOAD DUP1 SWAP2 SUB SWAP1 REVERT JUMPDEST PUSH1 0x0 PUSH20 0xFFFFFFFFFFFFFFFFFFFFFFFFFFFFFFFFFFFFFFFF AND PUSH1 0x3 PUSH1 0x0 SWAP1 SLOAD SWAP1 PUSH2 0x100 EXP SWAP1 DIV PUSH20 0xFFFFFFFFFFFFFFFFFFFFFFFFFFFFFFFFFFFFFFFF AND PUSH20 0xFFFFFFFFFFFFFFFFFFFFFFFFFFFFFFFFFFFFFFFF AND EQ PUSH2 0x3C3 JUMPI PUSH1 0x40 MLOAD PUSH32 0x8C379A000000000000000000000000000000000000000000000000000000000 DUP2 MSTORE PUSH1 0x4 ADD PUSH2 0x3BA SWAP1 PUSH2 0xC4D JUMP JUMPDEST PUSH1 0x40 MLOAD DUP1 SWAP2 SUB SWAP1 REVERT JUMPDEST PUSH1 0x4 PUSH1 0x0 CALLER PUSH20 0xFFFFFFFFFFFFFFFFFFFFFFFFFFFFFFFFFFFFFFFF AND PUSH20 0xFFFFFFFFFFFFFFFFFFFFFFFFFFFFFFFFFFFFFFFF AND DUP2 MSTORE PUSH1 0x20 ADD SWAP1 DUP2 MSTORE PUSH1 0x20 ADD PUSH1 0x0 KECCAK256 PUSH1 0x0 SWAP1 SLOAD SWAP1 PUSH2 0x100 EXP SWAP1 DIV PUSH1 0xFF AND ISZERO PUSH2 0x450 JUMPI PUSH1 0x40 MLOAD PUSH32 0x8C379A000000000000000000000000000000000000000000000000000000000 DUP2 MSTORE PUSH1 0x4 ADD PUSH2 0x447 SWAP1 PUSH2 0xCB9 JUMP JUMPDEST PUSH1 0x40 MLOAD DUP1 SWAP2 SUB SWAP1 REVERT JUMPDEST PUSH1 0x1 PUSH1 0x4 PUSH1 0x0 CALLER PUSH20 0xFFFFFFFFFFFFFFFFFFFFFFFFFFFFFFFFFFFFFFFF AND PUSH20 0xFFFFFFFFFFFFFFFFFFFFFFFFFFFFFFFFFFFFFFFF AND DUP2 MSTORE PUSH1 0x20 ADD SWAP1 DUP2 MSTORE PUSH1 0x20 ADD PUSH1 0x0 KECCAK256 PUSH1 0x0 PUSH2 0x100 EXP DUP2 SLOAD DUP2 PUSH1 0xFF MUL NOT AND SWAP1 DUP4 ISZERO ISZERO MUL OR SWAP1 SSTORE POP PUSH1 0x0 PUSH1 0x2 PUSH1 0x40 MLOAD PUSH1 0x20 ADD PUSH2 0x4BC SWAP2 SWAP1 PUSH2 0xD78 JUMP JUMPDEST PUSH1 0x40 MLOAD PUSH1 0x20 DUP2 DUP4 SUB SUB DUP2 MSTORE SWAP1 PUSH1 0x40 MSTORE DUP1 MLOAD SWAP1 PUSH1 0x20 ADD KECCAK256 DUP5 DUP5 PUSH1 0x40 MLOAD PUSH1 0x20 ADD PUSH2 0x4E5 SWAP3 SWAP2 SWAP1 PUSH2 0xDC3 JUMP JUMPDEST PUSH1 0x40 MLOAD PUSH1 0x20 DUP2 DUP4 SUB SUB DUP2 MSTORE SWAP1 PUSH1 0x40 MSTORE DUP1 MLOAD SWAP1 PUSH1 0x20 ADD KECCAK256 EQ SWAP1 POP DUP1 ISZERO PUSH2 0x546 JUMPI CALLER PUSH1 0x3 PUSH1 0x0 PUSH2 0x100 EXP DUP2 SLOAD DUP2 PUSH20 0xFFFFFFFFFFFFFFFFFFFFFFFFFFFFFFFFFFFFFFFF MUL NOT AND SWAP1 DUP4 PUSH20 0xFFFFFFFFFFFFFFFFFFFFFFFFFFFFFFFFFFFFFFFF AND MUL OR SWAP1 SSTORE POP JUMPDEST DUP1 SWAP2 POP POP SWAP3 SWAP2 POP POP JUMP JUMPDEST PUSH2 0x558 PUSH2 0x5D3 JUMP JUMPDEST PUSH1 0x0 PUSH20 0xFFFFFFFFFFFFFFFFFFFFFFFFFFFFFFFFFFFFFFFF AND DUP2 PUSH20 0xFFFFFFFFFFFFFFFFFFFFFFFFFFFFFFFFFFFFFFFF AND SUB PUSH2 0x5C7 JUMPI PUSH1 0x40 MLOAD PUSH32 0x8C379A000000000000000000000000000000000000000000000000000000000 DUP2 MSTORE PUSH1 0x4 ADD PUSH2 0x5BE SWAP1 PUSH2 0xE4E JUMP JUMPDEST PUSH1 0x40 MLOAD DUP1 SWAP2 SUB SWAP1 REVERT JUMPDEST PUSH2 0x5D0 DUP2 PUSH2 0x651 JUMP JUMPDEST POP JUMP JUMPDEST PUSH2 0x5DB PUSH2 0x715 JUMP JUMPDEST PUSH20 0xFFFFFFFFFFFFFFFFFFFFFFFFFFFFFFFFFFFFFFFF AND PUSH2 0x5F9 PUSH2 0x1F0 JUMP JUMPDEST PUSH20 0xFFFFFFFFFFFFFFFFFFFFFFFFFFFFFFFFFFFFFFFF AND EQ PUSH2 0x64F JUMPI PUSH1 0x40 MLOAD PUSH32 0x8C379A000000000000000000000000000000000000000000000000000000000 DUP2 MSTORE PUSH1 0x4 ADD PUSH2 0x646 SWAP1 PUSH2 0xEBA JUMP JUMPDEST PUSH1 0x40 MLOAD DUP1 SWAP2 SUB SWAP1 REVERT JUMPDEST JUMP JUMPDEST PUSH1 0x0 DUP1 PUSH1 0x0 SWAP1 SLOAD SWAP1 PUSH2 0x100 EXP SWAP1 DIV PUSH20 0xFFFFFFFFFFFFFFFFFFFFFFFFFFFFFFFFFFFFFFFF AND SWAP1 POP DUP2 PUSH1 0x0 DUP1 PUSH2 0x100 EXP DUP2 SLOAD DUP2 PUSH20 0xFFFFFFFFFFFFFFFFFFFFFFFFFFFFFFFFFFFFFFFF MUL NOT AND SWAP1 DUP4 PUSH20 0xFFFFFFFFFFFFFFFFFFFFFFFFFFFFFFFFFFFFFFFF AND MUL OR SWAP1 SSTORE POP DUP2 PUSH20 0xFFFFFFFFFFFFFFFFFFFFFFFFFFFFFFFFFFFFFFFF AND DUP2 PUSH20 0xFFFFFFFFFFFFFFFFFFFFFFFFFFFFFFFFFFFFFFFF AND PUSH32 0x8BE0079C531659141344CD1FD0A4F28419497F9722A3DAAFE3B4186F6B6457E0 PUSH1 0x40 MLOAD PUSH1 0x40 MLOAD DUP1 SWAP2 SUB SWAP1 LOG3 POP POP JUMP JUMPDEST PUSH1 0x0 CALLER SWAP1 POP SWAP1 JUMP JUMPDEST DUP3 DUP1 SLOAD PUSH2 0x729 SWAP1 PUSH2 0xAD2 JUMP JUMPDEST SWAP1 PUSH1 0x0 MSTORE PUSH1 0x20 PUSH1 0x0 KECCAK256 SWAP1 PUSH1 0x1F ADD PUSH1 0x20 SWAP1 DIV DUP2 ADD SWAP3 DUP3 PUSH2 0x74B JUMPI PUSH1 0x0 DUP6 SSTORE PUSH2 0x792 JUMP JUMPDEST DUP3 PUSH1 0x1F LT PUSH2 0x764 JUMPI DUP1 CALLDATALOAD PUSH1 0xFF NOT AND DUP4 DUP1 ADD OR DUP6 SSTORE PUSH2 0x792 JUMP JUMPDEST DUP3 DUP1 ADD PUSH1 0x1 ADD DUP6 SSTORE DUP3 ISZERO PUSH2 0x792 JUMPI SWAP2 DUP3 ADD JUMPDEST DUP3 DUP2 GT ISZERO PUSH2 0x791 JUMPI DUP3 CALLDATALOAD DUP3 SSTORE SWAP2 PUSH1 0x20 ADD SWAP2 SWAP1 PUSH1 0x1 ADD SWAP1 PUSH2 0x776 JUMP JUMPDEST JUMPDEST POP SWAP1 POP PUSH2 0x79F SWAP2 SWAP1 PUSH2 0x7A3 JUMP JUMPDEST POP SWAP1 JUMP JUMPDEST JUMPDEST DUP1 DUP3 GT ISZERO PUSH2 0x7BC JUMPI PUSH1 0x0 DUP2 PUSH1 0x0 SWAP1 SSTORE POP PUSH1 0x1 ADD PUSH2 0x7A4 JUMP JUMPDEST POP SWAP1 JUMP JUMPDEST PUSH1 0x0 DUP2 MLOAD SWAP1 POP SWAP2 SWAP1 POP JUMP JUMPDEST PUSH1 0x0 DUP3 DUP3 MSTORE PUSH1 0x20 DUP3 ADD SWAP1 POP SWAP3 SWAP2 POP POP JUMP JUMPDEST PUSH1 0x0 JUMPDEST DUP4 DUP2 LT ISZERO PUSH2 0x7FA JUMPI DUP1 DUP3 ADD MLOAD DUP2 DUP5 ADD MSTORE PUSH1 0x20 DUP2 ADD SWAP1 POP PUSH2 0x7DF JUMP JUMPDEST DUP4 DUP2 GT ISZERO PUSH2 0x809 JUMPI PUSH1 0x0 DUP5 DUP5 ADD MSTORE JUMPDEST POP POP POP POP JUMP JUMPDEST PUSH1 0x0 PUSH1 0x1F NOT PUSH1 0x1F DUP4 ADD AND SWAP1 POP SWAP2 SWAP1 POP JUMP JUMPDEST PUSH1 0x0 PUSH2 0x82B DUP3 PUSH2 0x7C0 JUMP JUMPDEST PUSH2 0x835 DUP2 DUP6 PUSH2 0x7CB JUMP JUMPDEST SWAP4 POP PUSH2 0x845 DUP2 DUP6 PUSH1 0x20 DUP7 ADD PUSH2 0x7DC JUMP JUMPDEST PUSH2 0x84E DUP2 PUSH2 0x80F JUMP JUMPDEST DUP5 ADD SWAP2 POP POP SWAP3 SWAP2 POP POP JUMP JUMPDEST PUSH1 0x0 PUSH1 0x20 DUP3 ADD SWAP1 POP DUP2 DUP2 SUB PUSH1 0x0 DUP4 ADD MSTORE PUSH2 0x873 DUP2 DUP5 PUSH2 0x820 JUMP JUMPDEST SWAP1 POP SWAP3 SWAP2 POP POP JUMP JUMPDEST PUSH1 0x0 PUSH20 0xFFFFFFFFFFFFFFFFFFFFFFFFFFFFFFFFFFFFFFFF DUP3 AND SWAP1 POP SWAP2 SWAP1 POP JUMP JUMPDEST PUSH1 0x0 PUSH2 0x8A6 DUP3 PUSH2 0x87B JUMP JUMPDEST SWAP1 POP SWAP2 SWAP1 POP JUMP JUMPDEST PUSH2 0x8B6 DUP2 PUSH2 0x89B JUMP JUMPDEST DUP3 MSTORE POP POP JUMP JUMPDEST PUSH1 0x0 PUSH1 0x20 DUP3 ADD SWAP1 POP PUSH2 0x8D1 PUSH1 0x0 DUP4 ADD DUP5 PUSH2 0x8AD JUMP JUMPDEST SWAP3 SWAP2 POP POP JUMP JUMPDEST PUSH1 0x0 DUP1 REVERT JUMPDEST PUSH1 0x0 DUP1 REVERT JUMPDEST PUSH1 0x0 DUP1 REVERT JUMPDEST PUSH1 0x0 DUP1 REVERT JUMPDEST PUSH1 0x0 DUP1 REVERT JUMPDEST PUSH1 0x0 DUP1 DUP4 PUSH1 0x1F DUP5 ADD SLT PUSH2 0x906 JUMPI PUSH2 0x905 PUSH2 0x8E1 JUMP JUMPDEST JUMPDEST DUP3 CALLDATALOAD SWAP1 POP PUSH8 0xFFFFFFFFFFFFFFFF DUP2 GT ISZERO PUSH2 0x923 JUMPI PUSH2 0x922 PUSH2 0x8E6 JUMP JUMPDEST JUMPDEST PUSH1 0x20 DUP4 ADD SWAP2 POP DUP4 PUSH1 0x1 DUP3 MUL DUP4 ADD GT ISZERO PUSH2 0x93F JUMPI PUSH2 0x93E PUSH2 0x8EB JUMP JUMPDEST JUMPDEST SWAP3 POP SWAP3 SWAP1 POP JUMP JUMPDEST PUSH1 0x0 DUP1 PUSH1 0x0 DUP1 PUSH1 0x40 DUP6 DUP8 SUB SLT ISZERO PUSH2 0x960 JUMPI PUSH2 0x95F PUSH2 0x8D7 JUMP JUMPDEST JUMPDEST PUSH1 0x0 DUP6 ADD CALLDATALOAD PUSH8 0xFFFFFFFFFFFFFFFF DUP2 GT ISZERO PUSH2 0x97E JUMPI PUSH2 0x97D PUSH2 0x8DC JUMP JUMPDEST JUMPDEST PUSH2 0x98A DUP8 DUP3 DUP9 ADD PUSH2 0x8F0 JUMP JUMPDEST SWAP5 POP SWAP5 POP POP PUSH1 0x20 DUP6 ADD CALLDATALOAD PUSH8 0xFFFFFFFFFFFFFFFF DUP2 GT ISZERO PUSH2 0x9AD JUMPI PUSH2 0x9AC PUSH2 0x8DC JUMP JUMPDEST JUMPDEST PUSH2 0x9B9 DUP8 DUP3 DUP9 ADD PUSH2 0x8F0 JUMP JUMPDEST SWAP3 POP SWAP3 POP POP SWAP3 SWAP6 SWAP2 SWAP5 POP SWAP3 POP JUMP JUMPDEST PUSH1 0x0 DUP1 PUSH1 0x20 DUP4 DUP6 SUB SLT ISZERO PUSH2 0x9DE JUMPI PUSH2 0x9DD PUSH2 0x8D7 JUMP JUMPDEST JUMPDEST PUSH1 0x0 DUP4 ADD CALLDATALOAD PUSH8 0xFFFFFFFFFFFFFFFF DUP2 GT ISZERO PUSH2 0x9FC JUMPI PUSH2 0x9FB PUSH2 0x8DC JUMP JUMPDEST JUMPDEST PUSH2 0xA08 DUP6 DUP3 DUP7 ADD PUSH2 0x8F0 JUMP JUMPDEST SWAP3 POP SWAP3 POP POP SWAP3 POP SWAP3 SWAP1 POP JUMP JUMPDEST PUSH1 0x0 DUP2 ISZERO ISZERO SWAP1 POP SWAP2 SWAP1 POP JUMP JUMPDEST PUSH2 0xA29 DUP2 PUSH2 0xA14 JUMP JUMPDEST DUP3 MSTORE POP POP JUMP JUMPDEST PUSH1 0x0 PUSH1 0x20 DUP3 ADD SWAP1 POP PUSH2 0xA44 PUSH1 0x0 DUP4 ADD DUP5 PUSH2 0xA20 JUMP JUMPDEST SWAP3 SWAP2 POP POP JUMP JUMPDEST PUSH2 0xA53 DUP2 PUSH2 0x89B JUMP JUMPDEST DUP2 EQ PUSH2 0xA5E JUMPI PUSH1 0x0 DUP1 REVERT JUMPDEST POP JUMP JUMPDEST PUSH1 0x0 DUP2 CALLDATALOAD SWAP1 POP PUSH2 0xA70 DUP2 PUSH2 0xA4A JUMP JUMPDEST SWAP3 SWAP2 POP POP JUMP JUMPDEST PUSH1 0x0 PUSH1 0x20 DUP3 DUP5 SUB SLT ISZERO PUSH2 0xA8C JUMPI PUSH2 0xA8B PUSH2 0x8D7 JUMP JUMPDEST JUMPDEST PUSH1 0x0 PUSH2 0xA9A DUP5 DUP3 DUP6 ADD PUSH2 0xA61 JUMP JUMPDEST SWAP2 POP POP SWAP3 SWAP2 POP POP JUMP JUMPDEST PUSH32 0x4E487B7100000000000000000000000000000000000000000000000000000000 PUSH1 0x0 MSTORE PUSH1 0x22 PUSH1 0x4 MSTORE PUSH1 0x24 PUSH1 0x0 REVERT JUMPDEST PUSH1 0x0 PUSH1 0x2 DUP3 DIV SWAP1 POP PUSH1 0x1 DUP3 AND DUP1 PUSH2 0xAEA JUMPI PUSH1 0x7F DUP3 AND SWAP2 POP JUMPDEST PUSH1 0x20 DUP3 LT DUP2 SUB PUSH2 0xAFD JUMPI PUSH2 0xAFC PUSH2 0xAA3 JUMP JUMPDEST JUMPDEST POP SWAP2 SWAP1 POP JUMP JUMPDEST PUSH32 0x596F75206E65656420746F20736574206120776F726420616E64206120746970 PUSH1 0x0 DUP3 ADD MSTORE PUSH32 0x20746F207374617274207468652067616D652E00000000000000000000000000 PUSH1 0x20 DUP3 ADD MSTORE POP JUMP JUMPDEST PUSH1 0x0 PUSH2 0xB5F PUSH1 0x33 DUP4 PUSH2 0x7CB JUMP JUMPDEST SWAP2 POP PUSH2 0xB6A DUP3 PUSH2 0xB03 JUMP JUMPDEST PUSH1 0x40 DUP3 ADD SWAP1 POP SWAP2 SWAP1 POP JUMP JUMPDEST PUSH1 0x0 PUSH1 0x20 DUP3 ADD SWAP1 POP DUP2 DUP2 SUB PUSH1 0x0 DUP4 ADD MSTORE PUSH2 0xB8E DUP2 PUSH2 0xB52 JUMP JUMPDEST SWAP1 POP SWAP2 SWAP1 POP JUMP JUMPDEST PUSH32 0x5468652067616D65206973206E6F742073746172746564207965742E00000000 PUSH1 0x0 DUP3 ADD MSTORE POP JUMP JUMPDEST PUSH1 0x0 PUSH2 0xBCB PUSH1 0x1C DUP4 PUSH2 0x7CB JUMP JUMPDEST SWAP2 POP PUSH2 0xBD6 DUP3 PUSH2 0xB95 JUMP JUMPDEST PUSH1 0x20 DUP3 ADD SWAP1 POP SWAP2 SWAP1 POP JUMP JUMPDEST PUSH1 0x0 PUSH1 0x20 DUP3 ADD SWAP1 POP DUP2 DUP2 SUB PUSH1 0x0 DUP4 ADD MSTORE PUSH2 0xBFA DUP2 PUSH2 0xBBE JUMP JUMPDEST SWAP1 POP SWAP2 SWAP1 POP JUMP JUMPDEST PUSH32 0x546865726520697320616C726561647920612077696E6E65722E000000000000 PUSH1 0x0 DUP3 ADD MSTORE POP JUMP JUMPDEST PUSH1 0x0 PUSH2 0xC37 PUSH1 0x1A DUP4 PUSH2 0x7CB JUMP JUMPDEST SWAP2 POP PUSH2 0xC42 DUP3 PUSH2 0xC01 JUMP JUMPDEST PUSH1 0x20 DUP3 ADD SWAP1 POP SWAP2 SWAP1 POP JUMP JUMPDEST PUSH1 0x0 PUSH1 0x20 DUP3 ADD SWAP1 POP DUP2 DUP2 SUB PUSH1 0x0 DUP4 ADD MSTORE PUSH2 0xC66 DUP2 PUSH2 0xC2A JUMP JUMPDEST SWAP1 POP SWAP2 SWAP1 POP JUMP JUMPDEST PUSH32 0x596F7520616C726561647920706C617965642E00000000000000000000000000 PUSH1 0x0 DUP3 ADD MSTORE POP JUMP JUMPDEST PUSH1 0x0 PUSH2 0xCA3 PUSH1 0x13 DUP4 PUSH2 0x7CB JUMP JUMPDEST SWAP2 POP PUSH2 0xCAE DUP3 PUSH2 0xC6D JUMP JUMPDEST PUSH1 0x20 DUP3 ADD SWAP1 POP SWAP2 SWAP1 POP JUMP JUMPDEST PUSH1 0x0 PUSH1 0x20 DUP3 ADD SWAP1 POP DUP2 DUP2 SUB PUSH1 0x0 DUP4 ADD MSTORE PUSH2 0xCD2 DUP2 PUSH2 0xC96 JUMP JUMPDEST SWAP1 POP SWAP2 SWAP1 POP JUMP JUMPDEST PUSH1 0x0 DUP2 SWAP1 POP SWAP3 SWAP2 POP POP JUMP JUMPDEST PUSH1 0x0 DUP2 SWAP1 POP DUP2 PUSH1 0x0 MSTORE PUSH1 0x20 PUSH1 0x0 KECCAK256 SWAP1 POP SWAP2 SWAP1 POP JUMP JUMPDEST PUSH1 0x0 DUP2 SLOAD PUSH2 0xD06 DUP2 PUSH2 0xAD2 JUMP JUMPDEST PUSH2 0xD10 DUP2 DUP7 PUSH2 0xCD9 JUMP JUMPDEST SWAP5 POP PUSH1 0x1 DUP3 AND PUSH1 0x0 DUP2 EQ PUSH2 0xD2B JUMPI PUSH1 0x1 DUP2 EQ PUSH2 0xD3C JUMPI PUSH2 0xD6F JUMP JUMPDEST PUSH1 0xFF NOT DUP4 AND DUP7 MSTORE DUP2 DUP7 ADD SWAP4 POP PUSH2 0xD6F JUMP JUMPDEST PUSH2 0xD45 DUP6 PUSH2 0xCE4 JUMP JUMPDEST PUSH1 0x0 JUMPDEST DUP4 DUP2 LT ISZERO PUSH2 0xD67 JUMPI DUP2 SLOAD DUP2 DUP10 ADD MSTORE PUSH1 0x1 DUP3 ADD SWAP2 POP PUSH1 0x20 DUP2 ADD SWAP1 POP PUSH2 0xD48 JUMP JUMPDEST DUP4 DUP9 ADD SWAP6 POP POP POP JUMPDEST POP POP POP SWAP3 SWAP2 POP POP JUMP JUMPDEST PUSH1 0x0 PUSH2 0xD84 DUP3 DUP5 PUSH2 0xCF9 JUMP JUMPDEST SWAP2 POP DUP2 SWAP1 POP SWAP3 SWAP2 POP POP JUMP JUMPDEST DUP3 DUP2 DUP4 CALLDATACOPY PUSH1 0x0 DUP4 DUP4 ADD MSTORE POP POP POP JUMP JUMPDEST PUSH1 0x0 PUSH2 0xDAA DUP4 DUP6 PUSH2 0xCD9 JUMP JUMPDEST SWAP4 POP PUSH2 0xDB7 DUP4 DUP6 DUP5 PUSH2 0xD8F JUMP JUMPDEST DUP3 DUP5 ADD SWAP1 POP SWAP4 SWAP3 POP POP POP JUMP JUMPDEST PUSH1 0x0 PUSH2 0xDD0 DUP3 DUP5 DUP7 PUSH2 0xD9E JUMP JUMPDEST SWAP2 POP DUP2 SWAP1 POP SWAP4 SWAP3 POP POP POP JUMP JUMPDEST PUSH32 0x4F776E61626C653A206E6577206F776E657220697320746865207A65726F2061 PUSH1 0x0 DUP3 ADD MSTORE PUSH32 0x6464726573730000000000000000000000000000000000000000000000000000 PUSH1 0x20 DUP3 ADD MSTORE POP JUMP JUMPDEST PUSH1 0x0 PUSH2 0xE38 PUSH1 0x26 DUP4 PUSH2 0x7CB JUMP JUMPDEST SWAP2 POP PUSH2 0xE43 DUP3 PUSH2 0xDDC JUMP JUMPDEST PUSH1 0x40 DUP3 ADD SWAP1 POP SWAP2 SWAP1 POP JUMP JUMPDEST PUSH1 0x0 PUSH1 0x20 DUP3 ADD SWAP1 POP DUP2 DUP2 SUB PUSH1 0x0 DUP4 ADD MSTORE PUSH2 0xE67 DUP2 PUSH2 0xE2B JUMP JUMPDEST SWAP1 POP SWAP2 SWAP1 POP JUMP JUMPDEST PUSH32 0x4F776E61626C653A2063616C6C6572206973206E6F7420746865206F776E6572 PUSH1 0x0 DUP3 ADD MSTORE POP JUMP JUMPDEST PUSH1 0x0 PUSH2 0xEA4 PUSH1 0x20 DUP4 PUSH2 0x7CB JUMP JUMPDEST SWAP2 POP PUSH2 0xEAF DUP3 PUSH2 0xE6E JUMP JUMPDEST PUSH1 0x20 DUP3 ADD SWAP1 POP SWAP2 SWAP1 POP JUMP JUMPDEST PUSH1 0x0 PUSH1 0x20 DUP3 ADD SWAP1 POP DUP2 DUP2 SUB PUSH1 0x0 DUP4 ADD MSTORE PUSH2 0xED3 DUP2 PUSH2 0xE97 JUMP JUMPDEST SWAP1 POP SWAP2 SWAP1 POP JUMP INVALID LOG2 PUSH5 0x6970667358 0x22 SLT KECCAK256 0xBF MSIZE SUB RETURNDATASIZE 0xAC GAS 0x2D DELEGATECALL PUSH4 0xC46C039B PUSH5 0xA156F1973D CREATE2 0xEE 0xC4 CALLER ADD 0xD3 MSTORE BALANCE PUSH31 0x9434D81964736F6C634300080D003300000000000000000000000000000000 "
				},
				"gasEstimates": {
					"creation": {
						"codeDepositCost": "771200",
						"executionCost": "infinite",
						"totalCost": "infinite"
					},
					"external": {
						"owner()": "2567",
						"renounceOwnership()": "30421",
						"setWordTips(string,string)": "infinite",
						"tips()": "infinite",
						"transferOwnership(address)": "30810",
						"tryToGuess(string)": "infinite",
						"winner()": "2536"
					}
				},
				"methodIdentifiers": {
					"owner()": "8da5cb5b",
					"renounceOwnership()": "715018a6",
					"setWordTips(string,string)": "bc17e05b",
					"tips()": "1a4e1e78",
					"transferOwnership(address)": "f2fde38b",
					"tryToGuess(string)": "e96aa631",
					"winner()": "dfbf53ae"
				}
			},
			"storageLayout": {
				"storage": [
					{
						"astId": 7,
						"contract": "contracts/exoCours/exoGuessWon/exoGuessWon.sol:exoGuessWon",
						"label": "_owner",
						"offset": 0,
						"slot": "0",
						"type": "t_address"
					},
					{
						"astId": 141,
						"contract": "contracts/exoCours/exoGuessWon/exoGuessWon.sol:exoGuessWon",
						"label": "tips",
						"offset": 0,
						"slot": "1",
						"type": "t_string_storage"
					},
					{
						"astId": 143,
						"contract": "contracts/exoCours/exoGuessWon/exoGuessWon.sol:exoGuessWon",
						"label": "word",
						"offset": 0,
						"slot": "2",
						"type": "t_string_storage"
					},
					{
						"astId": 145,
						"contract": "contracts/exoCours/exoGuessWon/exoGuessWon.sol:exoGuessWon",
						"label": "winner",
						"offset": 0,
						"slot": "3",
						"type": "t_address"
					},
					{
						"astId": 149,
						"contract": "contracts/exoCours/exoGuessWon/exoGuessWon.sol:exoGuessWon",
						"label": "players",
						"offset": 0,
						"slot": "4",
						"type": "t_mapping(t_address,t_bool)"
					}
				],
				"types": {
					"t_address": {
						"encoding": "inplace",
						"label": "address",
						"numberOfBytes": "20"
					},
					"t_bool": {
						"encoding": "inplace",
						"label": "bool",
						"numberOfBytes": "1"
					},
					"t_mapping(t_address,t_bool)": {
						"encoding": "mapping",
						"key": "t_address",
						"label": "mapping(address => bool)",
						"numberOfBytes": "32",
						"value": "t_bool"
					},
					"t_string_storage": {
						"encoding": "bytes",
						"label": "string",
						"numberOfBytes": "32"
					}
				}
			},
			"userdoc": {
				"kind": "user",
				"methods": {},
				"version": 1
			}
		}
	}
}