{
  "contractName": "Royalties",
  "abi": [
    {
      "inputs": [
        {
          "internalType": "bytes4",
          "name": "interfaceId",
          "type": "bytes4"
        }
      ],
      "name": "supportsInterface",
      "outputs": [
        {
          "internalType": "bool",
          "name": "",
          "type": "bool"
        }
      ],
      "stateMutability": "view",
      "type": "function"
    },
    {
      "inputs": [
        {
          "internalType": "uint256",
          "name": "tokenId",
          "type": "uint256"
        },
        {
          "internalType": "uint256",
          "name": "value",
          "type": "uint256"
        }
      ],
      "name": "royaltyInfo",
      "outputs": [
        {
          "internalType": "address",
          "name": "receiver",
          "type": "address"
        },
        {
          "internalType": "uint256",
          "name": "royaltyAmount",
          "type": "uint256"
        }
      ],
      "stateMutability": "view",
      "type": "function"
    }
  ],
  "bytecode": "0x608060405234801561001057600080fd5b50610506806100206000396000f3fe608060405234801561001057600080fd5b50600436106100365760003560e01c806301ffc9a71461003b5780632a55205a1461006b575b600080fd5b610055600480360381019061005091906102ad565b61009c565b60405161006291906102f5565b60405180910390f35b61008560048036038101906100809190610346565b610116565b6040516100939291906103d6565b60405180910390f35b60007f2a55205a000000000000000000000000000000000000000000000000000000007bffffffffffffffffffffffffffffffffffffffffffffffffffffffff1916827bffffffffffffffffffffffffffffffffffffffffffffffffffffffff1916148061010f575061010e826101e6565b5b9050919050565b60008060008060008681526020019081526020016000206040518060400160405290816000820160009054906101000a900473ffffffffffffffffffffffffffffffffffffffff1673ffffffffffffffffffffffffffffffffffffffff1673ffffffffffffffffffffffffffffffffffffffff1681526020016000820160149054906101000a900462ffffff1662ffffff1662ffffff1681525050905080600001519250612710816020015162ffffff16856101d2919061042e565b6101dc919061049f565b9150509250929050565b60007f01ffc9a7000000000000000000000000000000000000000000000000000000007bffffffffffffffffffffffffffffffffffffffffffffffffffffffff1916827bffffffffffffffffffffffffffffffffffffffffffffffffffffffff1916149050919050565b600080fd5b60007fffffffff0000000000000000000000000000000000000000000000000000000082169050919050565b61028a81610255565b811461029557600080fd5b50565b6000813590506102a781610281565b92915050565b6000602082840312156102c3576102c2610250565b5b60006102d184828501610298565b91505092915050565b60008115159050919050565b6102ef816102da565b82525050565b600060208201905061030a60008301846102e6565b92915050565b6000819050919050565b61032381610310565b811461032e57600080fd5b50565b6000813590506103408161031a565b92915050565b6000806040838503121561035d5761035c610250565b5b600061036b85828601610331565b925050602061037c85828601610331565b9150509250929050565b600073ffffffffffffffffffffffffffffffffffffffff82169050919050565b60006103b182610386565b9050919050565b6103c1816103a6565b82525050565b6103d081610310565b82525050565b60006040820190506103eb60008301856103b8565b6103f860208301846103c7565b9392505050565b7f4e487b7100000000000000000000000000000000000000000000000000000000600052601160045260246000fd5b600061043982610310565b915061044483610310565b925082820261045281610310565b91508282048414831517610469576104686103ff565b5b5092915050565b7f4e487b7100000000000000000000000000000000000000000000000000000000600052601260045260246000fd5b60006104aa82610310565b91506104b583610310565b9250826104c5576104c4610470565b5b82820490509291505056fea2646970667358221220566057162b37a88b60afc726ec61a6265454894d1be8c5ad85fa5e4b1caa988664736f6c63430008120033",
  "immutableReferences": {},
  "source": "// SPDX-License-Identifier: MIT\r\npragma solidity ^0.8.0;\r\n\r\nimport \"../node_modules/@openzeppelin/contracts/token/ERC1155/ERC1155.sol\";\r\nimport \"../node_modules/@openzeppelin/contracts/utils/Counters.sol\";\r\nimport \"../node_modules/@openzeppelin/contracts/utils/introspection/ERC165.sol\";\r\n\r\ninterface IERC2981Royalties {\r\n    function royaltyInfo(\r\n        uint256 _tokenId,\r\n        uint256 _value\r\n    ) external view returns (address _receiver, uint256 _royaltyAmount);\r\n}\r\n\r\ncontract Royalties is IERC2981Royalties, ERC165 {\r\n    struct RoyaltyInfo {\r\n        address recipient;\r\n        uint24 amount;\r\n    }\r\n\r\n    mapping(uint256 => RoyaltyInfo) internal _royalties;\r\n\r\n    function supportsInterface(\r\n        bytes4 interfaceId\r\n    ) public view virtual override returns (bool) {\r\n        return\r\n            interfaceId == type(IERC2981Royalties).interfaceId ||\r\n            super.supportsInterface(interfaceId);\r\n    }\r\n\r\n    function _setTokenRoyalty(\r\n        uint256 tokenId,\r\n        address recipient,\r\n        uint256 value\r\n    ) internal {\r\n        require(value <= 10000, \"ERC2981Royalties: Too high\");\r\n        _royalties[tokenId] = RoyaltyInfo(recipient, uint24(value));\r\n    }\r\n\r\n    function royaltyInfo(\r\n        uint256 tokenId,\r\n        uint256 value\r\n    ) external view override returns (address receiver, uint256 royaltyAmount) {\r\n        RoyaltyInfo memory royalties = _royalties[tokenId];\r\n        receiver = royalties.recipient;\r\n        royaltyAmount = (value * royalties.amount) / 10000;\r\n    }\r\n}\r\n\r\ncontract WeaponSFT is ERC1155, Royalties {\r\n    using Counters for Counters.Counter;\r\n    Counters.Counter private _tokenIds;\r\n\r\n    struct Weapon {\r\n        string name;\r\n        uint boostXP;\r\n        uint boostGold;\r\n    }\r\n\r\n    Weapon[] weapons;\r\n\r\n    constructor()\r\n        ERC1155(\r\n            \"https://gateway.pinata.cloud/ipfs/QmaYXNwqJSbJ8de65ncqo2z8hZBJA7XPZiS4bnscNdD1EP/{id}.json\"\r\n        )\r\n    {}\r\n\r\n    function supportsInterface(\r\n        bytes4 interfaceId\r\n    ) public view virtual override(ERC1155, Royalties) returns (bool) {\r\n        return super.supportsInterface(interfaceId);\r\n    }\r\n\r\n    function MintWeapons(\r\n        address player,\r\n        string memory name,\r\n        uint boostXP,\r\n        uint boostGold,\r\n        uint number\r\n    ) public returns (uint) {\r\n        _tokenIds.increment();\r\n        weapons.push(Weapon(name, boostGold, boostXP));\r\n        uint256 newItemId = _tokenIds.current();\r\n        _mint(player, newItemId, number, \"\");\r\n        _setTokenRoyalty(newItemId, msg.sender, 1000);\r\n\r\n        return newItemId;\r\n    }\r\n\r\n    function init() public {\r\n        MintWeapons(msg.sender, \"Classic sword\", 0, 0, 2 * 10 ** 2);\r\n        MintWeapons(msg.sender, \"Unique sword\", 30, 30, 1);\r\n    }\r\n}\r\n",
  "sourcePath": "C:\\Users\\Alex\\Documents\\Travail\\Alyra\\Alyra-formation\\NFT\\ERC1155\\contracts\\WeaponSFT.sol",
  "compiler": {
    "name": "solc",
    "version": "0.8.18+commit.87f61d96.Emscripten.clang"
  },
  "schemaVersion": "3.4.7",
  "updatedAt": "2023-03-26T15:50:28.089Z",
  "devdoc": {
    "kind": "dev",
    "methods": {
      "supportsInterface(bytes4)": {
        "details": "See {IERC165-supportsInterface}."
      }
    },
    "version": 1
  },
  "userdoc": {
    "kind": "user",
    "methods": {},
    "version": 1
  }
}