{
  "contractName": "WeaponSFT",
  "abi": [
    {
      "inputs": [],
      "stateMutability": "nonpayable",
      "type": "constructor"
    },
    {
      "anonymous": false,
      "inputs": [
        {
          "indexed": true,
          "internalType": "address",
          "name": "account",
          "type": "address"
        },
        {
          "indexed": true,
          "internalType": "address",
          "name": "operator",
          "type": "address"
        },
        {
          "indexed": false,
          "internalType": "bool",
          "name": "approved",
          "type": "bool"
        }
      ],
      "name": "ApprovalForAll",
      "type": "event"
    },
    {
      "anonymous": false,
      "inputs": [
        {
          "indexed": true,
          "internalType": "address",
          "name": "operator",
          "type": "address"
        },
        {
          "indexed": true,
          "internalType": "address",
          "name": "from",
          "type": "address"
        },
        {
          "indexed": true,
          "internalType": "address",
          "name": "to",
          "type": "address"
        },
        {
          "indexed": false,
          "internalType": "uint256[]",
          "name": "ids",
          "type": "uint256[]"
        },
        {
          "indexed": false,
          "internalType": "uint256[]",
          "name": "values",
          "type": "uint256[]"
        }
      ],
      "name": "TransferBatch",
      "type": "event"
    },
    {
      "anonymous": false,
      "inputs": [
        {
          "indexed": true,
          "internalType": "address",
          "name": "operator",
          "type": "address"
        },
        {
          "indexed": true,
          "internalType": "address",
          "name": "from",
          "type": "address"
        },
        {
          "indexed": true,
          "internalType": "address",
          "name": "to",
          "type": "address"
        },
        {
          "indexed": false,
          "internalType": "uint256",
          "name": "id",
          "type": "uint256"
        },
        {
          "indexed": false,
          "internalType": "uint256",
          "name": "value",
          "type": "uint256"
        }
      ],
      "name": "TransferSingle",
      "type": "event"
    },
    {
      "anonymous": false,
      "inputs": [
        {
          "indexed": false,
          "internalType": "string",
          "name": "value",
          "type": "string"
        },
        {
          "indexed": true,
          "internalType": "uint256",
          "name": "id",
          "type": "uint256"
        }
      ],
      "name": "URI",
      "type": "event"
    },
    {
      "inputs": [
        {
          "internalType": "address",
          "name": "account",
          "type": "address"
        },
        {
          "internalType": "uint256",
          "name": "id",
          "type": "uint256"
        }
      ],
      "name": "balanceOf",
      "outputs": [
        {
          "internalType": "uint256",
          "name": "",
          "type": "uint256"
        }
      ],
      "stateMutability": "view",
      "type": "function"
    },
    {
      "inputs": [
        {
          "internalType": "address[]",
          "name": "accounts",
          "type": "address[]"
        },
        {
          "internalType": "uint256[]",
          "name": "ids",
          "type": "uint256[]"
        }
      ],
      "name": "balanceOfBatch",
      "outputs": [
        {
          "internalType": "uint256[]",
          "name": "",
          "type": "uint256[]"
        }
      ],
      "stateMutability": "view",
      "type": "function"
    },
    {
      "inputs": [
        {
          "internalType": "address",
          "name": "account",
          "type": "address"
        },
        {
          "internalType": "address",
          "name": "operator",
          "type": "address"
        }
      ],
      "name": "isApprovedForAll",
      "outputs": [
        {
          "internalType": "bool",
          "name": "",
          "type": "bool"
        }
      ],
      "stateMutability": "view",
      "type": "function"
    },
    {
      "inputs": [
        {
          "internalType": "uint256",
          "name": "tokenId",
          "type": "uint256"
        },
        {
          "internalType": "uint256",
          "name": "value",
          "type": "uint256"
        }
      ],
      "name": "royaltyInfo",
      "outputs": [
        {
          "internalType": "address",
          "name": "receiver",
          "type": "address"
        },
        {
          "internalType": "uint256",
          "name": "royaltyAmount",
          "type": "uint256"
        }
      ],
      "stateMutability": "view",
      "type": "function"
    },
    {
      "inputs": [
        {
          "internalType": "address",
          "name": "from",
          "type": "address"
        },
        {
          "internalType": "address",
          "name": "to",
          "type": "address"
        },
        {
          "internalType": "uint256[]",
          "name": "ids",
          "type": "uint256[]"
        },
        {
          "internalType": "uint256[]",
          "name": "amounts",
          "type": "uint256[]"
        },
        {
          "internalType": "bytes",
          "name": "data",
          "type": "bytes"
        }
      ],
      "name": "safeBatchTransferFrom",
      "outputs": [],
      "stateMutability": "nonpayable",
      "type": "function"
    },
    {
      "inputs": [
        {
          "internalType": "address",
          "name": "from",
          "type": "address"
        },
        {
          "internalType": "address",
          "name": "to",
          "type": "address"
        },
        {
          "internalType": "uint256",
          "name": "id",
          "type": "uint256"
        },
        {
          "internalType": "uint256",
          "name": "amount",
          "type": "uint256"
        },
        {
          "internalType": "bytes",
          "name": "data",
          "type": "bytes"
        }
      ],
      "name": "safeTransferFrom",
      "outputs": [],
      "stateMutability": "nonpayable",
      "type": "function"
    },
    {
      "inputs": [
        {
          "internalType": "address",
          "name": "operator",
          "type": "address"
        },
        {
          "internalType": "bool",
          "name": "approved",
          "type": "bool"
        }
      ],
      "name": "setApprovalForAll",
      "outputs": [],
      "stateMutability": "nonpayable",
      "type": "function"
    },
    {
      "inputs": [
        {
          "internalType": "uint256",
          "name": "",
          "type": "uint256"
        }
      ],
      "name": "uri",
      "outputs": [
        {
          "internalType": "string",
          "name": "",
          "type": "string"
        }
      ],
      "stateMutability": "view",
      "type": "function"
    },
    {
      "inputs": [
        {
          "internalType": "bytes4",
          "name": "interfaceId",
          "type": "bytes4"
        }
      ],
      "name": "supportsInterface",
      "outputs": [
        {
          "internalType": "bool",
          "name": "",
          "type": "bool"
        }
      ],
      "stateMutability": "view",
      "type": "function"
    },
    {
      "inputs": [
        {
          "internalType": "address",
          "name": "player",
          "type": "address"
        },
        {
          "internalType": "string",
          "name": "name",
          "type": "string"
        },
        {
          "internalType": "uint256",
          "name": "boostXP",
          "type": "uint256"
        },
        {
          "internalType": "uint256",
          "name": "boostGold",
          "type": "uint256"
        },
        {
          "internalType": "uint256",
          "name": "number",
          "type": "uint256"
        }
      ],
      "name": "MintWeapons",
      "outputs": [
        {
          "internalType": "uint256",
          "name": "",
          "type": "uint256"
        }
      ],
      "stateMutability": "nonpayable",
      "type": "function"
    },
    {
      "inputs": [],
      "name": "init",
      "outputs": [],
      "stateMutability": "nonpayable",
      "type": "function"
    }
  ],
  "bytecode": "0x60806040523480156200001157600080fd5b506040518060800160405280605a815260200162003486605a91396200003d816200004460201b60201c565b50620003ba565b8060029081620000559190620002d3565b5050565b600081519050919050565b7f4e487b7100000000000000000000000000000000000000000000000000000000600052604160045260246000fd5b7f4e487b7100000000000000000000000000000000000000000000000000000000600052602260045260246000fd5b60006002820490506001821680620000db57607f821691505b602082108103620000f157620000f062000093565b5b50919050565b60008190508160005260206000209050919050565b60006020601f8301049050919050565b600082821b905092915050565b6000600883026200015b7fffffffffffffffffffffffffffffffffffffffffffffffffffffffffffffffff826200011c565b6200016786836200011c565b95508019841693508086168417925050509392505050565b6000819050919050565b6000819050919050565b6000620001b4620001ae620001a8846200017f565b62000189565b6200017f565b9050919050565b6000819050919050565b620001d08362000193565b620001e8620001df82620001bb565b84845462000129565b825550505050565b600090565b620001ff620001f0565b6200020c818484620001c5565b505050565b5b81811015620002345762000228600082620001f5565b60018101905062000212565b5050565b601f82111562000283576200024d81620000f7565b62000258846200010c565b8101602085101562000268578190505b6200028062000277856200010c565b83018262000211565b50505b505050565b600082821c905092915050565b6000620002a86000198460080262000288565b1980831691505092915050565b6000620002c3838362000295565b9150826002028217905092915050565b620002de8262000059565b67ffffffffffffffff811115620002fa57620002f962000064565b5b620003068254620000c2565b6200031382828562000238565b600060209050601f8311600181146200034b576000841562000336578287015190505b620003428582620002b5565b865550620003b2565b601f1984166200035b86620000f7565b60005b8281101562000385578489015182556001820191506020850194506020810190506200035e565b86831015620003a55784890151620003a1601f89168262000295565b8355505b6001600288020188555050505b505050505050565b6130bc80620003ca6000396000f3fe608060405234801561001057600080fd5b50600436106100a85760003560e01c80634e1273f4116100715780634e1273f41461018a5780639cf14ec4146101ba578063a22cb465146101ea578063e1c7392a14610206578063e985e9c514610210578063f242432a14610240576100a8565b8062fdd58e146100ad57806301ffc9a7146100dd5780630e89341c1461010d5780632a55205a1461013d5780632eb2c2d61461016e575b600080fd5b6100c760048036038101906100c291906119b6565b61025c565b6040516100d49190611a05565b60405180910390f35b6100f760048036038101906100f29190611a78565b610324565b6040516101049190611ac0565b60405180910390f35b61012760048036038101906101229190611adb565b610336565b6040516101349190611b98565b60405180910390f35b61015760048036038101906101529190611bba565b6103ca565b604051610165929190611c09565b60405180910390f35b61018860048036038101906101839190611e2f565b61049b565b005b6101a4600480360381019061019f9190611fc1565b61053c565b6040516101b191906120f7565b60405180910390f35b6101d460048036038101906101cf91906121ba565b610655565b6040516101e19190611a05565b60405180910390f35b61020460048036038101906101ff919061227d565b610716565b005b61020e61072c565b005b61022a600480360381019061022591906122bd565b6107b8565b6040516102379190611ac0565b60405180910390f35b61025a600480360381019061025591906122fd565b61084c565b005b60008073ffffffffffffffffffffffffffffffffffffffff168373ffffffffffffffffffffffffffffffffffffffff16036102cc576040517f08c379a00000000000000000000000000000000000000000000000000000000081526004016102c390612406565b60405180910390fd5b60008083815260200190815260200160002060008473ffffffffffffffffffffffffffffffffffffffff1673ffffffffffffffffffffffffffffffffffffffff16815260200190815260200160002054905092915050565b600061032f826108ed565b9050919050565b60606002805461034590612455565b80601f016020809104026020016040519081016040528092919081815260200182805461037190612455565b80156103be5780601f10610393576101008083540402835291602001916103be565b820191906000526020600020905b8154815290600101906020018083116103a157829003601f168201915b50505050509050919050565b6000806000600360008681526020019081526020016000206040518060400160405290816000820160009054906101000a900473ffffffffffffffffffffffffffffffffffffffff1673ffffffffffffffffffffffffffffffffffffffff1673ffffffffffffffffffffffffffffffffffffffff1681526020016000820160149054906101000a900462ffffff1662ffffff1662ffffff1681525050905080600001519250612710816020015162ffffff168561048791906124b5565b6104919190612526565b9150509250929050565b6104a3610967565b73ffffffffffffffffffffffffffffffffffffffff168573ffffffffffffffffffffffffffffffffffffffff1614806104e957506104e8856104e3610967565b6107b8565b5b610528576040517f08c379a000000000000000000000000000000000000000000000000000000000815260040161051f906125c9565b60405180910390fd5b610535858585858561096f565b5050505050565b60608151835114610582576040517f08c379a00000000000000000000000000000000000000000000000000000000081526004016105799061265b565b60405180910390fd5b6000835167ffffffffffffffff81111561059f5761059e611c37565b5b6040519080825280602002602001820160405280156105cd5781602001602082028036833780820191505090505b50905060005b845181101561064a5761061a8582815181106105f2576105f161267b565b5b602002602001015185838151811061060d5761060c61267b565b5b602002602001015161025c565b82828151811061062d5761062c61267b565b5b60200260200101818152505080610643906126aa565b90506105d3565b508091505092915050565b60006106616004610c90565b6005604051806060016040528087815260200185815260200186815250908060018154018082558091505060019003906000526020600020906003020160009091909190915060008201518160000190816106bc919061289e565b506020820151816001015560408201518160020155505060006106df6004610ca6565b90506106fc87828560405180602001604052806000815250610cb4565b61070981336103e8610e64565b8091505095945050505050565b610728610721610967565b8383610f60565b5050565b610770336040518060400160405280600d81526020017f436c61737369632073776f72640000000000000000000000000000000000000081525060008060c8610655565b506107b5336040518060400160405280600c81526020017f556e697175652073776f72640000000000000000000000000000000000000000815250601e806001610655565b50565b6000600160008473ffffffffffffffffffffffffffffffffffffffff1673ffffffffffffffffffffffffffffffffffffffff16815260200190815260200160002060008373ffffffffffffffffffffffffffffffffffffffff1673ffffffffffffffffffffffffffffffffffffffff16815260200190815260200160002060009054906101000a900460ff16905092915050565b610854610967565b73ffffffffffffffffffffffffffffffffffffffff168573ffffffffffffffffffffffffffffffffffffffff16148061089a575061089985610894610967565b6107b8565b5b6108d9576040517f08c379a00000000000000000000000000000000000000000000000000000000081526004016108d0906125c9565b60405180910390fd5b6108e685858585856110cc565b5050505050565b60007f2a55205a000000000000000000000000000000000000000000000000000000007bffffffffffffffffffffffffffffffffffffffffffffffffffffffff1916827bffffffffffffffffffffffffffffffffffffffffffffffffffffffff19161480610960575061095f82611367565b5b9050919050565b600033905090565b81518351146109b3576040517f08c379a00000000000000000000000000000000000000000000000000000000081526004016109aa906129e2565b60405180910390fd5b600073ffffffffffffffffffffffffffffffffffffffff168473ffffffffffffffffffffffffffffffffffffffff1603610a22576040517f08c379a0000000000000000000000000000000000000000000000000000000008152600401610a1990612a74565b60405180910390fd5b6000610a2c610967565b9050610a3c818787878787611449565b60005b8451811015610bed576000858281518110610a5d57610a5c61267b565b5b602002602001015190506000858381518110610a7c57610a7b61267b565b5b60200260200101519050600080600084815260200190815260200160002060008b73ffffffffffffffffffffffffffffffffffffffff1673ffffffffffffffffffffffffffffffffffffffff16815260200190815260200160002054905081811015610b1d576040517f08c379a0000000000000000000000000000000000000000000000000000000008152600401610b1490612b06565b60405180910390fd5b81810360008085815260200190815260200160002060008c73ffffffffffffffffffffffffffffffffffffffff1673ffffffffffffffffffffffffffffffffffffffff168152602001908152602001600020819055508160008085815260200190815260200160002060008b73ffffffffffffffffffffffffffffffffffffffff1673ffffffffffffffffffffffffffffffffffffffff1681526020019081526020016000206000828254610bd29190612b26565b9250508190555050505080610be6906126aa565b9050610a3f565b508473ffffffffffffffffffffffffffffffffffffffff168673ffffffffffffffffffffffffffffffffffffffff168273ffffffffffffffffffffffffffffffffffffffff167f4a39dc06d4c0dbc64b70af90fd698a233a518aa5d07e595d983b8c0526c8f7fb8787604051610c64929190612b5a565b60405180910390a4610c7a818787878787611451565b610c88818787878787611459565b505050505050565b6001816000016000828254019250508190555050565b600081600001549050919050565b600073ffffffffffffffffffffffffffffffffffffffff168473ffffffffffffffffffffffffffffffffffffffff1603610d23576040517f08c379a0000000000000000000000000000000000000000000000000000000008152600401610d1a90612c03565b60405180910390fd5b6000610d2d610967565b90506000610d3a85611630565b90506000610d4785611630565b9050610d5883600089858589611449565b8460008088815260200190815260200160002060008973ffffffffffffffffffffffffffffffffffffffff1673ffffffffffffffffffffffffffffffffffffffff1681526020019081526020016000206000828254610db79190612b26565b925050819055508673ffffffffffffffffffffffffffffffffffffffff16600073ffffffffffffffffffffffffffffffffffffffff168473ffffffffffffffffffffffffffffffffffffffff167fc3d58168c5ae7397731d063d5bbf3d657854427343f4c083240f7aacaa2d0f628989604051610e35929190612c23565b60405180910390a4610e4c83600089858589611451565b610e5b836000898989896116aa565b50505050505050565b612710811115610ea9576040517f08c379a0000000000000000000000000000000000000000000000000000000008152600401610ea090612c98565b60405180910390fd5b60405180604001604052808373ffffffffffffffffffffffffffffffffffffffff1681526020018262ffffff168152506003600085815260200190815260200160002060008201518160000160006101000a81548173ffffffffffffffffffffffffffffffffffffffff021916908373ffffffffffffffffffffffffffffffffffffffff16021790555060208201518160000160146101000a81548162ffffff021916908362ffffff160217905550905050505050565b8173ffffffffffffffffffffffffffffffffffffffff168373ffffffffffffffffffffffffffffffffffffffff1603610fce576040517f08c379a0000000000000000000000000000000000000000000000000000000008152600401610fc590612d2a565b60405180910390fd5b80600160008573ffffffffffffffffffffffffffffffffffffffff1673ffffffffffffffffffffffffffffffffffffffff16815260200190815260200160002060008473ffffffffffffffffffffffffffffffffffffffff1673ffffffffffffffffffffffffffffffffffffffff16815260200190815260200160002060006101000a81548160ff0219169083151502179055508173ffffffffffffffffffffffffffffffffffffffff168373ffffffffffffffffffffffffffffffffffffffff167f17307eab39ab6107e8899845ad3d59bd9653f200f220920489ca2b5937696c31836040516110bf9190611ac0565b60405180910390a3505050565b600073ffffffffffffffffffffffffffffffffffffffff168473ffffffffffffffffffffffffffffffffffffffff160361113b576040517f08c379a000000000000000000000000000000000000000000000000000000000815260040161113290612a74565b60405180910390fd5b6000611145610967565b9050600061115285611630565b9050600061115f85611630565b905061116f838989858589611449565b600080600088815260200190815260200160002060008a73ffffffffffffffffffffffffffffffffffffffff1673ffffffffffffffffffffffffffffffffffffffff16815260200190815260200160002054905085811015611206576040517f08c379a00000000000000000000000000000000000000000000000000000000081526004016111fd90612b06565b60405180910390fd5b85810360008089815260200190815260200160002060008b73ffffffffffffffffffffffffffffffffffffffff1673ffffffffffffffffffffffffffffffffffffffff168152602001908152602001600020819055508560008089815260200190815260200160002060008a73ffffffffffffffffffffffffffffffffffffffff1673ffffffffffffffffffffffffffffffffffffffff16815260200190815260200160002060008282546112bb9190612b26565b925050819055508773ffffffffffffffffffffffffffffffffffffffff168973ffffffffffffffffffffffffffffffffffffffff168573ffffffffffffffffffffffffffffffffffffffff167fc3d58168c5ae7397731d063d5bbf3d657854427343f4c083240f7aacaa2d0f628a8a604051611338929190612c23565b60405180910390a461134e848a8a86868a611451565b61135c848a8a8a8a8a6116aa565b505050505050505050565b60007fd9b67a26000000000000000000000000000000000000000000000000000000007bffffffffffffffffffffffffffffffffffffffffffffffffffffffff1916827bffffffffffffffffffffffffffffffffffffffffffffffffffffffff1916148061143257507f0e89341c000000000000000000000000000000000000000000000000000000007bffffffffffffffffffffffffffffffffffffffffffffffffffffffff1916827bffffffffffffffffffffffffffffffffffffffffffffffffffffffff1916145b80611442575061144182611881565b5b9050919050565b505050505050565b505050505050565b6114788473ffffffffffffffffffffffffffffffffffffffff166118eb565b15611628578373ffffffffffffffffffffffffffffffffffffffff1663bc197c8187878686866040518663ffffffff1660e01b81526004016114be959493929190612d9f565b6020604051808303816000875af19250505080156114fa57506040513d601f19601f820116820180604052508101906114f79190612e1c565b60015b61159f57611506612e56565b806308c379a003611562575061151a612e78565b806115255750611564565b806040517f08c379a00000000000000000000000000000000000000000000000000000000081526004016115599190611b98565b60405180910390fd5b505b6040517f08c379a000000000000000000000000000000000000000000000000000000000815260040161159690612f7a565b60405180910390fd5b63bc197c8160e01b7bffffffffffffffffffffffffffffffffffffffffffffffffffffffff1916817bffffffffffffffffffffffffffffffffffffffffffffffffffffffff191614611626576040517f08c379a000000000000000000000000000000000000000000000000000000000815260040161161d9061300c565b60405180910390fd5b505b505050505050565b60606000600167ffffffffffffffff81111561164f5761164e611c37565b5b60405190808252806020026020018201604052801561167d5781602001602082028036833780820191505090505b50905082816000815181106116955761169461267b565b5b60200260200101818152505080915050919050565b6116c98473ffffffffffffffffffffffffffffffffffffffff166118eb565b15611879578373ffffffffffffffffffffffffffffffffffffffff1663f23a6e6187878686866040518663ffffffff1660e01b815260040161170f95949392919061302c565b6020604051808303816000875af192505050801561174b57506040513d601f19601f820116820180604052508101906117489190612e1c565b60015b6117f057611757612e56565b806308c379a0036117b3575061176b612e78565b8061177657506117b5565b806040517f08c379a00000000000000000000000000000000000000000000000000000000081526004016117aa9190611b98565b60405180910390fd5b505b6040517f08c379a00000000000000000000000000000000000000000000000000000000081526004016117e790612f7a565b60405180910390fd5b63f23a6e6160e01b7bffffffffffffffffffffffffffffffffffffffffffffffffffffffff1916817bffffffffffffffffffffffffffffffffffffffffffffffffffffffff191614611877576040517f08c379a000000000000000000000000000000000000000000000000000000000815260040161186e9061300c565b60405180910390fd5b505b505050505050565b60007f01ffc9a7000000000000000000000000000000000000000000000000000000007bffffffffffffffffffffffffffffffffffffffffffffffffffffffff1916827bffffffffffffffffffffffffffffffffffffffffffffffffffffffff1916149050919050565b6000808273ffffffffffffffffffffffffffffffffffffffff163b119050919050565b6000604051905090565b600080fd5b600080fd5b600073ffffffffffffffffffffffffffffffffffffffff82169050919050565b600061194d82611922565b9050919050565b61195d81611942565b811461196857600080fd5b50565b60008135905061197a81611954565b92915050565b6000819050919050565b61199381611980565b811461199e57600080fd5b50565b6000813590506119b08161198a565b92915050565b600080604083850312156119cd576119cc611918565b5b60006119db8582860161196b565b92505060206119ec858286016119a1565b9150509250929050565b6119ff81611980565b82525050565b6000602082019050611a1a60008301846119f6565b92915050565b60007fffffffff0000000000000000000000000000000000000000000000000000000082169050919050565b611a5581611a20565b8114611a6057600080fd5b50565b600081359050611a7281611a4c565b92915050565b600060208284031215611a8e57611a8d611918565b5b6000611a9c84828501611a63565b91505092915050565b60008115159050919050565b611aba81611aa5565b82525050565b6000602082019050611ad56000830184611ab1565b92915050565b600060208284031215611af157611af0611918565b5b6000611aff848285016119a1565b91505092915050565b600081519050919050565b600082825260208201905092915050565b60005b83811015611b42578082015181840152602081019050611b27565b60008484015250505050565b6000601f19601f8301169050919050565b6000611b6a82611b08565b611b748185611b13565b9350611b84818560208601611b24565b611b8d81611b4e565b840191505092915050565b60006020820190508181036000830152611bb28184611b5f565b905092915050565b60008060408385031215611bd157611bd0611918565b5b6000611bdf858286016119a1565b9250506020611bf0858286016119a1565b9150509250929050565b611c0381611942565b82525050565b6000604082019050611c1e6000830185611bfa565b611c2b60208301846119f6565b9392505050565b600080fd5b7f4e487b7100000000000000000000000000000000000000000000000000000000600052604160045260246000fd5b611c6f82611b4e565b810181811067ffffffffffffffff82111715611c8e57611c8d611c37565b5b80604052505050565b6000611ca161190e565b9050611cad8282611c66565b919050565b600067ffffffffffffffff821115611ccd57611ccc611c37565b5b602082029050602081019050919050565b600080fd5b6000611cf6611cf184611cb2565b611c97565b90508083825260208201905060208402830185811115611d1957611d18611cde565b5b835b81811015611d425780611d2e88826119a1565b845260208401935050602081019050611d1b565b5050509392505050565b600082601f830112611d6157611d60611c32565b5b8135611d71848260208601611ce3565b91505092915050565b600080fd5b600067ffffffffffffffff821115611d9a57611d99611c37565b5b611da382611b4e565b9050602081019050919050565b82818337600083830152505050565b6000611dd2611dcd84611d7f565b611c97565b905082815260208101848484011115611dee57611ded611d7a565b5b611df9848285611db0565b509392505050565b600082601f830112611e1657611e15611c32565b5b8135611e26848260208601611dbf565b91505092915050565b600080600080600060a08688031215611e4b57611e4a611918565b5b6000611e598882890161196b565b9550506020611e6a8882890161196b565b945050604086013567ffffffffffffffff811115611e8b57611e8a61191d565b5b611e9788828901611d4c565b935050606086013567ffffffffffffffff811115611eb857611eb761191d565b5b611ec488828901611d4c565b925050608086013567ffffffffffffffff811115611ee557611ee461191d565b5b611ef188828901611e01565b9150509295509295909350565b600067ffffffffffffffff821115611f1957611f18611c37565b5b602082029050602081019050919050565b6000611f3d611f3884611efe565b611c97565b90508083825260208201905060208402830185811115611f6057611f5f611cde565b5b835b81811015611f895780611f75888261196b565b845260208401935050602081019050611f62565b5050509392505050565b600082601f830112611fa857611fa7611c32565b5b8135611fb8848260208601611f2a565b91505092915050565b60008060408385031215611fd857611fd7611918565b5b600083013567ffffffffffffffff811115611ff657611ff561191d565b5b61200285828601611f93565b925050602083013567ffffffffffffffff8111156120235761202261191d565b5b61202f85828601611d4c565b9150509250929050565b600081519050919050565b600082825260208201905092915050565b6000819050602082019050919050565b61206e81611980565b82525050565b60006120808383612065565b60208301905092915050565b6000602082019050919050565b60006120a482612039565b6120ae8185612044565b93506120b983612055565b8060005b838110156120ea5781516120d18882612074565b97506120dc8361208c565b9250506001810190506120bd565b5085935050505092915050565b600060208201905081810360008301526121118184612099565b905092915050565b600067ffffffffffffffff82111561213457612133611c37565b5b61213d82611b4e565b9050602081019050919050565b600061215d61215884612119565b611c97565b90508281526020810184848401111561217957612178611d7a565b5b612184848285611db0565b509392505050565b600082601f8301126121a1576121a0611c32565b5b81356121b184826020860161214a565b91505092915050565b600080600080600060a086880312156121d6576121d5611918565b5b60006121e48882890161196b565b955050602086013567ffffffffffffffff8111156122055761220461191d565b5b6122118882890161218c565b9450506040612222888289016119a1565b9350506060612233888289016119a1565b9250506080612244888289016119a1565b9150509295509295909350565b61225a81611aa5565b811461226557600080fd5b50565b60008135905061227781612251565b92915050565b6000806040838503121561229457612293611918565b5b60006122a28582860161196b565b92505060206122b385828601612268565b9150509250929050565b600080604083850312156122d4576122d3611918565b5b60006122e28582860161196b565b92505060206122f38582860161196b565b9150509250929050565b600080600080600060a0868803121561231957612318611918565b5b60006123278882890161196b565b95505060206123388882890161196b565b9450506040612349888289016119a1565b935050606061235a888289016119a1565b925050608086013567ffffffffffffffff81111561237b5761237a61191d565b5b61238788828901611e01565b9150509295509295909350565b7f455243313135353a2061646472657373207a65726f206973206e6f742061207660008201527f616c6964206f776e657200000000000000000000000000000000000000000000602082015250565b60006123f0602a83611b13565b91506123fb82612394565b604082019050919050565b6000602082019050818103600083015261241f816123e3565b9050919050565b7f4e487b7100000000000000000000000000000000000000000000000000000000600052602260045260246000fd5b6000600282049050600182168061246d57607f821691505b6020821081036124805761247f612426565b5b50919050565b7f4e487b7100000000000000000000000000000000000000000000000000000000600052601160045260246000fd5b60006124c082611980565b91506124cb83611980565b92508282026124d981611980565b915082820484148315176124f0576124ef612486565b5b5092915050565b7f4e487b7100000000000000000000000000000000000000000000000000000000600052601260045260246000fd5b600061253182611980565b915061253c83611980565b92508261254c5761254b6124f7565b5b828204905092915050565b7f455243313135353a2063616c6c6572206973206e6f7420746f6b656e206f776e60008201527f6572206f7220617070726f766564000000000000000000000000000000000000602082015250565b60006125b3602e83611b13565b91506125be82612557565b604082019050919050565b600060208201905081810360008301526125e2816125a6565b9050919050565b7f455243313135353a206163636f756e747320616e6420696473206c656e67746860008201527f206d69736d617463680000000000000000000000000000000000000000000000602082015250565b6000612645602983611b13565b9150612650826125e9565b604082019050919050565b6000602082019050818103600083015261267481612638565b9050919050565b7f4e487b7100000000000000000000000000000000000000000000000000000000600052603260045260246000fd5b60006126b582611980565b91507fffffffffffffffffffffffffffffffffffffffffffffffffffffffffffffffff82036126e7576126e6612486565b5b600182019050919050565b60008190508160005260206000209050919050565b60006020601f8301049050919050565b600082821b905092915050565b6000600883026127547fffffffffffffffffffffffffffffffffffffffffffffffffffffffffffffffff82612717565b61275e8683612717565b95508019841693508086168417925050509392505050565b6000819050919050565b600061279b61279661279184611980565b612776565b611980565b9050919050565b6000819050919050565b6127b583612780565b6127c96127c1826127a2565b848454612724565b825550505050565b600090565b6127de6127d1565b6127e98184846127ac565b505050565b5b8181101561280d576128026000826127d6565b6001810190506127ef565b5050565b601f82111561285257612823816126f2565b61282c84612707565b8101602085101561283b578190505b61284f61284785612707565b8301826127ee565b50505b505050565b600082821c905092915050565b600061287560001984600802612857565b1980831691505092915050565b600061288e8383612864565b9150826002028217905092915050565b6128a782611b08565b67ffffffffffffffff8111156128c0576128bf611c37565b5b6128ca8254612455565b6128d5828285612811565b600060209050601f83116001811461290857600084156128f6578287015190505b6129008582612882565b865550612968565b601f198416612916866126f2565b60005b8281101561293e57848901518255600182019150602085019450602081019050612919565b8683101561295b5784890151612957601f891682612864565b8355505b6001600288020188555050505b505050505050565b7f455243313135353a2069647320616e6420616d6f756e7473206c656e6774682060008201527f6d69736d61746368000000000000000000000000000000000000000000000000602082015250565b60006129cc602883611b13565b91506129d782612970565b604082019050919050565b600060208201905081810360008301526129fb816129bf565b9050919050565b7f455243313135353a207472616e7366657220746f20746865207a65726f20616460008201527f6472657373000000000000000000000000000000000000000000000000000000602082015250565b6000612a5e602583611b13565b9150612a6982612a02565b604082019050919050565b60006020820190508181036000830152612a8d81612a51565b9050919050565b7f455243313135353a20696e73756666696369656e742062616c616e636520666f60008201527f72207472616e7366657200000000000000000000000000000000000000000000602082015250565b6000612af0602a83611b13565b9150612afb82612a94565b604082019050919050565b60006020820190508181036000830152612b1f81612ae3565b9050919050565b6000612b3182611980565b9150612b3c83611980565b9250828201905080821115612b5457612b53612486565b5b92915050565b60006040820190508181036000830152612b748185612099565b90508181036020830152612b888184612099565b90509392505050565b7f455243313135353a206d696e7420746f20746865207a65726f2061646472657360008201527f7300000000000000000000000000000000000000000000000000000000000000602082015250565b6000612bed602183611b13565b9150612bf882612b91565b604082019050919050565b60006020820190508181036000830152612c1c81612be0565b9050919050565b6000604082019050612c3860008301856119f6565b612c4560208301846119f6565b9392505050565b7f45524332393831526f79616c746965733a20546f6f2068696768000000000000600082015250565b6000612c82601a83611b13565b9150612c8d82612c4c565b602082019050919050565b60006020820190508181036000830152612cb181612c75565b9050919050565b7f455243313135353a2073657474696e6720617070726f76616c2073746174757360008201527f20666f722073656c660000000000000000000000000000000000000000000000602082015250565b6000612d14602983611b13565b9150612d1f82612cb8565b604082019050919050565b60006020820190508181036000830152612d4381612d07565b9050919050565b600081519050919050565b600082825260208201905092915050565b6000612d7182612d4a565b612d7b8185612d55565b9350612d8b818560208601611b24565b612d9481611b4e565b840191505092915050565b600060a082019050612db46000830188611bfa565b612dc16020830187611bfa565b8181036040830152612dd38186612099565b90508181036060830152612de78185612099565b90508181036080830152612dfb8184612d66565b90509695505050505050565b600081519050612e1681611a4c565b92915050565b600060208284031215612e3257612e31611918565b5b6000612e4084828501612e07565b91505092915050565b60008160e01c9050919050565b600060033d1115612e755760046000803e612e72600051612e49565b90505b90565b600060443d10612f0557612e8a61190e565b60043d036004823e80513d602482011167ffffffffffffffff82111715612eb2575050612f05565b808201805167ffffffffffffffff811115612ed05750505050612f05565b80602083010160043d038501811115612eed575050505050612f05565b612efc82602001850186611c66565b82955050505050505b90565b7f455243313135353a207472616e7366657220746f206e6f6e2d4552433131353560008201527f526563656976657220696d706c656d656e746572000000000000000000000000602082015250565b6000612f64603483611b13565b9150612f6f82612f08565b604082019050919050565b60006020820190508181036000830152612f9381612f57565b9050919050565b7f455243313135353a204552433131353552656365697665722072656a6563746560008201527f6420746f6b656e73000000000000000000000000000000000000000000000000602082015250565b6000612ff6602883611b13565b915061300182612f9a565b604082019050919050565b6000602082019050818103600083015261302581612fe9565b9050919050565b600060a0820190506130416000830188611bfa565b61304e6020830187611bfa565b61305b60408301866119f6565b61306860608301856119f6565b818103608083015261307a8184612d66565b9050969550505050505056fea26469706673582212208d1d6e06c848baa74846ba2070273a2ac778fa624b746773201aff0d7764832d64736f6c6343000812003368747470733a2f2f676174657761792e70696e6174612e636c6f75642f697066732f516d6159584e77714a53624a38646536356e63716f327a38685a424a413758505a695334626e73634e64443145502f7b69647d2e6a736f6e",
  "immutableReferences": {},
  "source": "// SPDX-License-Identifier: MIT\r\npragma solidity ^0.8.0;\r\n\r\nimport \"../node_modules/@openzeppelin/contracts/token/ERC1155/ERC1155.sol\";\r\nimport \"../node_modules/@openzeppelin/contracts/utils/Counters.sol\";\r\nimport \"../node_modules/@openzeppelin/contracts/utils/introspection/ERC165.sol\";\r\n\r\ninterface IERC2981Royalties {\r\n    function royaltyInfo(\r\n        uint256 _tokenId,\r\n        uint256 _value\r\n    ) external view returns (address _receiver, uint256 _royaltyAmount);\r\n}\r\n\r\ncontract Royalties is IERC2981Royalties, ERC165 {\r\n    struct RoyaltyInfo {\r\n        address recipient;\r\n        uint24 amount;\r\n    }\r\n\r\n    mapping(uint256 => RoyaltyInfo) internal _royalties;\r\n\r\n    function supportsInterface(\r\n        bytes4 interfaceId\r\n    ) public view virtual override returns (bool) {\r\n        return\r\n            interfaceId == type(IERC2981Royalties).interfaceId ||\r\n            super.supportsInterface(interfaceId);\r\n    }\r\n\r\n    function _setTokenRoyalty(\r\n        uint256 tokenId,\r\n        address recipient,\r\n        uint256 value\r\n    ) internal {\r\n        require(value <= 10000, \"ERC2981Royalties: Too high\");\r\n        _royalties[tokenId] = RoyaltyInfo(recipient, uint24(value));\r\n    }\r\n\r\n    function royaltyInfo(\r\n        uint256 tokenId,\r\n        uint256 value\r\n    ) external view override returns (address receiver, uint256 royaltyAmount) {\r\n        RoyaltyInfo memory royalties = _royalties[tokenId];\r\n        receiver = royalties.recipient;\r\n        royaltyAmount = (value * royalties.amount) / 10000;\r\n    }\r\n}\r\n\r\ncontract WeaponSFT is ERC1155, Royalties {\r\n    using Counters for Counters.Counter;\r\n    Counters.Counter private _tokenIds;\r\n\r\n    struct Weapon {\r\n        string name;\r\n        uint boostXP;\r\n        uint boostGold;\r\n    }\r\n\r\n    Weapon[] weapons;\r\n\r\n    constructor()\r\n        ERC1155(\r\n            \"https://gateway.pinata.cloud/ipfs/QmaYXNwqJSbJ8de65ncqo2z8hZBJA7XPZiS4bnscNdD1EP/{id}.json\"\r\n        )\r\n    {}\r\n\r\n    function supportsInterface(\r\n        bytes4 interfaceId\r\n    ) public view virtual override(ERC1155, Royalties) returns (bool) {\r\n        return super.supportsInterface(interfaceId);\r\n    }\r\n\r\n    function MintWeapons(\r\n        address player,\r\n        string memory name,\r\n        uint boostXP,\r\n        uint boostGold,\r\n        uint number\r\n    ) public returns (uint) {\r\n        _tokenIds.increment();\r\n        weapons.push(Weapon(name, boostGold, boostXP));\r\n        uint256 newItemId = _tokenIds.current();\r\n        _mint(player, newItemId, number, \"\");\r\n        _setTokenRoyalty(newItemId, msg.sender, 1000);\r\n\r\n        return newItemId;\r\n    }\r\n\r\n    function init() public {\r\n        MintWeapons(msg.sender, \"Classic sword\", 0, 0, 2 * 10 ** 2);\r\n        MintWeapons(msg.sender, \"Unique sword\", 30, 30, 1);\r\n    }\r\n}\r\n",
  "sourcePath": "C:\\Users\\Alex\\Documents\\Travail\\Alyra\\Alyra-formation\\NFT\\ERC1155\\contracts\\WeaponSFT.sol",
  "compiler": {
    "name": "solc",
    "version": "0.8.18+commit.87f61d96.Emscripten.clang"
  },
  "schemaVersion": "3.4.7",
  "updatedAt": "2023-03-26T15:50:28.099Z",
  "devdoc": {
    "events": {
      "ApprovalForAll(address,address,bool)": {
        "details": "Emitted when `account` grants or revokes permission to `operator` to transfer their tokens, according to `approved`."
      },
      "TransferBatch(address,address,address,uint256[],uint256[])": {
        "details": "Equivalent to multiple {TransferSingle} events, where `operator`, `from` and `to` are the same for all transfers."
      },
      "TransferSingle(address,address,address,uint256,uint256)": {
        "details": "Emitted when `value` tokens of token type `id` are transferred from `from` to `to` by `operator`."
      },
      "URI(string,uint256)": {
        "details": "Emitted when the URI for token type `id` changes to `value`, if it is a non-programmatic URI. If an {URI} event was emitted for `id`, the standard https://eips.ethereum.org/EIPS/eip-1155#metadata-extensions[guarantees] that `value` will equal the value returned by {IERC1155MetadataURI-uri}."
      }
    },
    "kind": "dev",
    "methods": {
      "balanceOf(address,uint256)": {
        "details": "See {IERC1155-balanceOf}. Requirements: - `account` cannot be the zero address."
      },
      "balanceOfBatch(address[],uint256[])": {
        "details": "See {IERC1155-balanceOfBatch}. Requirements: - `accounts` and `ids` must have the same length."
      },
      "isApprovedForAll(address,address)": {
        "details": "See {IERC1155-isApprovedForAll}."
      },
      "safeBatchTransferFrom(address,address,uint256[],uint256[],bytes)": {
        "details": "See {IERC1155-safeBatchTransferFrom}."
      },
      "safeTransferFrom(address,address,uint256,uint256,bytes)": {
        "details": "See {IERC1155-safeTransferFrom}."
      },
      "setApprovalForAll(address,bool)": {
        "details": "See {IERC1155-setApprovalForAll}."
      },
      "uri(uint256)": {
        "details": "See {IERC1155MetadataURI-uri}. This implementation returns the same URI for *all* token types. It relies on the token type ID substitution mechanism https://eips.ethereum.org/EIPS/eip-1155#metadata[defined in the EIP]. Clients calling this function must replace the `\\{id\\}` substring with the actual token type ID."
      }
    },
    "version": 1
  },
  "userdoc": {
    "kind": "user",
    "methods": {},
    "version": 1
  }
}