{
	"contracts/random/random.sol": {
		"Random": {
			"abi": [
				{
					"inputs": [],
					"name": "getLastRandomForTest",
					"outputs": [
						{
							"internalType": "uint256",
							"name": "",
							"type": "uint256"
						}
					],
					"stateMutability": "view",
					"type": "function"
				},
				{
					"inputs": [],
					"name": "random",
					"outputs": [
						{
							"internalType": "uint256",
							"name": "",
							"type": "uint256"
						}
					],
					"stateMutability": "nonpayable",
					"type": "function"
				}
			],
			"devdoc": {
				"kind": "dev",
				"methods": {},
				"version": 1
			},
			"evm": {
				"assembly": "    /* \"contracts/random/random.sol\":60:436  contract Random {... */\n  mstore(0x40, 0x80)\n    /* \"contracts/random/random.sol\":110:111  0 */\n  0x00\n    /* \"contracts/random/random.sol\":85:111  uint256 private _nonce = 0 */\n  dup1\n  sstore\n    /* \"contracts/random/random.sol\":60:436  contract Random {... */\n  callvalue\n  dup1\n  iszero\n  tag_1\n  jumpi\n  0x00\n  dup1\n  revert\ntag_1:\n  pop\n  dataSize(sub_0)\n  dup1\n  dataOffset(sub_0)\n  0x00\n  codecopy\n  0x00\n  return\nstop\n\nsub_0: assembly {\n        /* \"contracts/random/random.sol\":60:436  contract Random {... */\n      mstore(0x40, 0x80)\n      callvalue\n      dup1\n      iszero\n      tag_1\n      jumpi\n      0x00\n      dup1\n      revert\n    tag_1:\n      pop\n      jumpi(tag_2, lt(calldatasize, 0x04))\n      shr(0xe0, calldataload(0x00))\n      dup1\n      0x0404a245\n      eq\n      tag_3\n      jumpi\n      dup1\n      0x5ec01e4d\n      eq\n      tag_4\n      jumpi\n    tag_2:\n      0x00\n      dup1\n      revert\n        /* \"contracts/random/random.sol\":340:433  function getLastRandomForTest() public view returns (uint){... */\n    tag_3:\n      tag_5\n      tag_6\n      jump\t// in\n    tag_5:\n      mload(0x40)\n      tag_7\n      swap2\n      swap1\n      tag_8\n      jump\t// in\n    tag_7:\n      mload(0x40)\n      dup1\n      swap2\n      sub\n      swap1\n      return\n        /* \"contracts/random/random.sol\":141:332  function random() public returns(uint){... */\n    tag_4:\n      tag_9\n      tag_10\n      jump\t// in\n    tag_9:\n      mload(0x40)\n      tag_11\n      swap2\n      swap1\n      tag_8\n      jump\t// in\n    tag_11:\n      mload(0x40)\n      dup1\n      swap2\n      sub\n      swap1\n      return\n        /* \"contracts/random/random.sol\":340:433  function getLastRandomForTest() public view returns (uint){... */\n    tag_6:\n        /* \"contracts/random/random.sol\":393:397  uint */\n      0x00\n        /* \"contracts/random/random.sol\":416:425  _lastRand */\n      sload(0x01)\n        /* \"contracts/random/random.sol\":409:425  return _lastRand */\n      swap1\n      pop\n        /* \"contracts/random/random.sol\":340:433  function getLastRandomForTest() public view returns (uint){... */\n      swap1\n      jump\t// out\n        /* \"contracts/random/random.sol\":141:332  function random() public returns(uint){... */\n    tag_10:\n        /* \"contracts/random/random.sol\":174:178  uint */\n      0x00\n        /* \"contracts/random/random.sol\":190:196  _nonce */\n      dup1\n      0x00\n        /* \"contracts/random/random.sol\":190:198  _nonce++ */\n      dup2\n      sload\n      dup1\n      swap3\n      swap2\n      swap1\n      tag_14\n      swap1\n      tag_15\n      jump\t// in\n    tag_14:\n      swap2\n      swap1\n      pop\n      sstore\n      pop\n        /* \"contracts/random/random.sol\":294:297  100 */\n      0x64\n        /* \"contracts/random/random.sol\":253:268  block.timestamp */\n      timestamp\n        /* \"contracts/random/random.sol\":270:280  msg.sender */\n      caller\n        /* \"contracts/random/random.sol\":282:288  _nonce */\n      sload(0x00)\n        /* \"contracts/random/random.sol\":236:289  abi.encodePacked(block.timestamp, msg.sender, _nonce) */\n      add(0x20, mload(0x40))\n      tag_16\n      swap4\n      swap3\n      swap2\n      swap1\n      tag_17\n      jump\t// in\n    tag_16:\n      mload(0x40)\n      0x20\n      dup2\n      dup4\n      sub\n      sub\n      dup2\n      mstore\n      swap1\n      0x40\n      mstore\n        /* \"contracts/random/random.sol\":226:290  keccak256(abi.encodePacked(block.timestamp, msg.sender, _nonce)) */\n      dup1\n      mload\n      swap1\n      0x20\n      add\n      keccak256\n        /* \"contracts/random/random.sol\":221:291  uint(keccak256(abi.encodePacked(block.timestamp, msg.sender, _nonce))) */\n      0x00\n      shr\n        /* \"contracts/random/random.sol\":221:297  uint(keccak256(abi.encodePacked(block.timestamp, msg.sender, _nonce))) % 100 */\n      tag_18\n      swap2\n      swap1\n      tag_19\n      jump\t// in\n    tag_18:\n        /* \"contracts/random/random.sol\":209:218  _lastRand */\n      0x01\n        /* \"contracts/random/random.sol\":209:297  _lastRand = uint(keccak256(abi.encodePacked(block.timestamp, msg.sender, _nonce))) % 100 */\n      dup2\n      swap1\n      sstore\n      pop\n        /* \"contracts/random/random.sol\":315:324  _lastRand */\n      sload(0x01)\n        /* \"contracts/random/random.sol\":308:324  return _lastRand */\n      swap1\n      pop\n        /* \"contracts/random/random.sol\":141:332  function random() public returns(uint){... */\n      swap1\n      jump\t// out\n        /* \"#utility.yul\":7:84   */\n    tag_20:\n        /* \"#utility.yul\":44:51   */\n      0x00\n        /* \"#utility.yul\":73:78   */\n      dup2\n        /* \"#utility.yul\":62:78   */\n      swap1\n      pop\n        /* \"#utility.yul\":7:84   */\n      swap2\n      swap1\n      pop\n      jump\t// out\n        /* \"#utility.yul\":90:208   */\n    tag_21:\n        /* \"#utility.yul\":177:201   */\n      tag_35\n        /* \"#utility.yul\":195:200   */\n      dup2\n        /* \"#utility.yul\":177:201   */\n      tag_20\n      jump\t// in\n    tag_35:\n        /* \"#utility.yul\":172:175   */\n      dup3\n        /* \"#utility.yul\":165:202   */\n      mstore\n        /* \"#utility.yul\":90:208   */\n      pop\n      pop\n      jump\t// out\n        /* \"#utility.yul\":214:436   */\n    tag_8:\n        /* \"#utility.yul\":307:311   */\n      0x00\n        /* \"#utility.yul\":345:347   */\n      0x20\n        /* \"#utility.yul\":334:343   */\n      dup3\n        /* \"#utility.yul\":330:348   */\n      add\n        /* \"#utility.yul\":322:348   */\n      swap1\n      pop\n        /* \"#utility.yul\":358:429   */\n      tag_37\n        /* \"#utility.yul\":426:427   */\n      0x00\n        /* \"#utility.yul\":415:424   */\n      dup4\n        /* \"#utility.yul\":411:428   */\n      add\n        /* \"#utility.yul\":402:408   */\n      dup5\n        /* \"#utility.yul\":358:429   */\n      tag_21\n      jump\t// in\n    tag_37:\n        /* \"#utility.yul\":214:436   */\n      swap3\n      swap2\n      pop\n      pop\n      jump\t// out\n        /* \"#utility.yul\":442:622   */\n    tag_22:\n        /* \"#utility.yul\":490:567   */\n      0x4e487b7100000000000000000000000000000000000000000000000000000000\n        /* \"#utility.yul\":487:488   */\n      0x00\n        /* \"#utility.yul\":480:568   */\n      mstore\n        /* \"#utility.yul\":587:591   */\n      0x11\n        /* \"#utility.yul\":584:585   */\n      0x04\n        /* \"#utility.yul\":577:592   */\n      mstore\n        /* \"#utility.yul\":611:615   */\n      0x24\n        /* \"#utility.yul\":608:609   */\n      0x00\n        /* \"#utility.yul\":601:616   */\n      revert\n        /* \"#utility.yul\":628:861   */\n    tag_15:\n        /* \"#utility.yul\":667:670   */\n      0x00\n        /* \"#utility.yul\":690:714   */\n      tag_40\n        /* \"#utility.yul\":708:713   */\n      dup3\n        /* \"#utility.yul\":690:714   */\n      tag_20\n      jump\t// in\n    tag_40:\n        /* \"#utility.yul\":681:714   */\n      swap2\n      pop\n        /* \"#utility.yul\":736:802   */\n      0xffffffffffffffffffffffffffffffffffffffffffffffffffffffffffffffff\n        /* \"#utility.yul\":729:734   */\n      dup3\n        /* \"#utility.yul\":726:803   */\n      sub\n        /* \"#utility.yul\":723:826   */\n      tag_41\n      jumpi\n        /* \"#utility.yul\":806:824   */\n      tag_42\n      tag_22\n      jump\t// in\n    tag_42:\n        /* \"#utility.yul\":723:826   */\n    tag_41:\n        /* \"#utility.yul\":853:854   */\n      0x01\n        /* \"#utility.yul\":846:851   */\n      dup3\n        /* \"#utility.yul\":842:855   */\n      add\n        /* \"#utility.yul\":835:855   */\n      swap1\n      pop\n        /* \"#utility.yul\":628:861   */\n      swap2\n      swap1\n      pop\n      jump\t// out\n        /* \"#utility.yul\":867:946   */\n    tag_23:\n        /* \"#utility.yul\":906:913   */\n      0x00\n        /* \"#utility.yul\":935:940   */\n      dup2\n        /* \"#utility.yul\":924:940   */\n      swap1\n      pop\n        /* \"#utility.yul\":867:946   */\n      swap2\n      swap1\n      pop\n      jump\t// out\n        /* \"#utility.yul\":952:1109   */\n    tag_24:\n        /* \"#utility.yul\":1057:1102   */\n      tag_45\n        /* \"#utility.yul\":1077:1101   */\n      tag_46\n        /* \"#utility.yul\":1095:1100   */\n      dup3\n        /* \"#utility.yul\":1077:1101   */\n      tag_20\n      jump\t// in\n    tag_46:\n        /* \"#utility.yul\":1057:1102   */\n      tag_23\n      jump\t// in\n    tag_45:\n        /* \"#utility.yul\":1052:1055   */\n      dup3\n        /* \"#utility.yul\":1045:1103   */\n      mstore\n        /* \"#utility.yul\":952:1109   */\n      pop\n      pop\n      jump\t// out\n        /* \"#utility.yul\":1115:1241   */\n    tag_25:\n        /* \"#utility.yul\":1152:1159   */\n      0x00\n        /* \"#utility.yul\":1192:1234   */\n      0xffffffffffffffffffffffffffffffffffffffff\n        /* \"#utility.yul\":1185:1190   */\n      dup3\n        /* \"#utility.yul\":1181:1235   */\n      and\n        /* \"#utility.yul\":1170:1235   */\n      swap1\n      pop\n        /* \"#utility.yul\":1115:1241   */\n      swap2\n      swap1\n      pop\n      jump\t// out\n        /* \"#utility.yul\":1247:1343   */\n    tag_26:\n        /* \"#utility.yul\":1284:1291   */\n      0x00\n        /* \"#utility.yul\":1313:1337   */\n      tag_49\n        /* \"#utility.yul\":1331:1336   */\n      dup3\n        /* \"#utility.yul\":1313:1337   */\n      tag_25\n      jump\t// in\n    tag_49:\n        /* \"#utility.yul\":1302:1337   */\n      swap1\n      pop\n        /* \"#utility.yul\":1247:1343   */\n      swap2\n      swap1\n      pop\n      jump\t// out\n        /* \"#utility.yul\":1349:1443   */\n    tag_27:\n        /* \"#utility.yul\":1382:1390   */\n      0x00\n        /* \"#utility.yul\":1430:1435   */\n      dup2\n        /* \"#utility.yul\":1426:1428   */\n      0x60\n        /* \"#utility.yul\":1422:1436   */\n      shl\n        /* \"#utility.yul\":1401:1436   */\n      swap1\n      pop\n        /* \"#utility.yul\":1349:1443   */\n      swap2\n      swap1\n      pop\n      jump\t// out\n        /* \"#utility.yul\":1449:1543   */\n    tag_28:\n        /* \"#utility.yul\":1488:1495   */\n      0x00\n        /* \"#utility.yul\":1517:1537   */\n      tag_52\n        /* \"#utility.yul\":1531:1536   */\n      dup3\n        /* \"#utility.yul\":1517:1537   */\n      tag_27\n      jump\t// in\n    tag_52:\n        /* \"#utility.yul\":1506:1537   */\n      swap1\n      pop\n        /* \"#utility.yul\":1449:1543   */\n      swap2\n      swap1\n      pop\n      jump\t// out\n        /* \"#utility.yul\":1549:1649   */\n    tag_29:\n        /* \"#utility.yul\":1588:1595   */\n      0x00\n        /* \"#utility.yul\":1617:1643   */\n      tag_54\n        /* \"#utility.yul\":1637:1642   */\n      dup3\n        /* \"#utility.yul\":1617:1643   */\n      tag_28\n      jump\t// in\n    tag_54:\n        /* \"#utility.yul\":1606:1643   */\n      swap1\n      pop\n        /* \"#utility.yul\":1549:1649   */\n      swap2\n      swap1\n      pop\n      jump\t// out\n        /* \"#utility.yul\":1655:1812   */\n    tag_30:\n        /* \"#utility.yul\":1760:1805   */\n      tag_56\n        /* \"#utility.yul\":1780:1804   */\n      tag_57\n        /* \"#utility.yul\":1798:1803   */\n      dup3\n        /* \"#utility.yul\":1780:1804   */\n      tag_26\n      jump\t// in\n    tag_57:\n        /* \"#utility.yul\":1760:1805   */\n      tag_29\n      jump\t// in\n    tag_56:\n        /* \"#utility.yul\":1755:1758   */\n      dup3\n        /* \"#utility.yul\":1748:1806   */\n      mstore\n        /* \"#utility.yul\":1655:1812   */\n      pop\n      pop\n      jump\t// out\n        /* \"#utility.yul\":1818:2356   */\n    tag_17:\n        /* \"#utility.yul\":1986:1989   */\n      0x00\n        /* \"#utility.yul\":2001:2076   */\n      tag_59\n        /* \"#utility.yul\":2072:2075   */\n      dup3\n        /* \"#utility.yul\":2063:2069   */\n      dup7\n        /* \"#utility.yul\":2001:2076   */\n      tag_24\n      jump\t// in\n    tag_59:\n        /* \"#utility.yul\":2101:2103   */\n      0x20\n        /* \"#utility.yul\":2096:2099   */\n      dup3\n        /* \"#utility.yul\":2092:2104   */\n      add\n        /* \"#utility.yul\":2085:2104   */\n      swap2\n      pop\n        /* \"#utility.yul\":2114:2189   */\n      tag_60\n        /* \"#utility.yul\":2185:2188   */\n      dup3\n        /* \"#utility.yul\":2176:2182   */\n      dup6\n        /* \"#utility.yul\":2114:2189   */\n      tag_30\n      jump\t// in\n    tag_60:\n        /* \"#utility.yul\":2214:2216   */\n      0x14\n        /* \"#utility.yul\":2209:2212   */\n      dup3\n        /* \"#utility.yul\":2205:2217   */\n      add\n        /* \"#utility.yul\":2198:2217   */\n      swap2\n      pop\n        /* \"#utility.yul\":2227:2302   */\n      tag_61\n        /* \"#utility.yul\":2298:2301   */\n      dup3\n        /* \"#utility.yul\":2289:2295   */\n      dup5\n        /* \"#utility.yul\":2227:2302   */\n      tag_24\n      jump\t// in\n    tag_61:\n        /* \"#utility.yul\":2327:2329   */\n      0x20\n        /* \"#utility.yul\":2322:2325   */\n      dup3\n        /* \"#utility.yul\":2318:2330   */\n      add\n        /* \"#utility.yul\":2311:2330   */\n      swap2\n      pop\n        /* \"#utility.yul\":2347:2350   */\n      dup2\n        /* \"#utility.yul\":2340:2350   */\n      swap1\n      pop\n        /* \"#utility.yul\":1818:2356   */\n      swap5\n      swap4\n      pop\n      pop\n      pop\n      pop\n      jump\t// out\n        /* \"#utility.yul\":2362:2542   */\n    tag_31:\n        /* \"#utility.yul\":2410:2487   */\n      0x4e487b7100000000000000000000000000000000000000000000000000000000\n        /* \"#utility.yul\":2407:2408   */\n      0x00\n        /* \"#utility.yul\":2400:2488   */\n      mstore\n        /* \"#utility.yul\":2507:2511   */\n      0x12\n        /* \"#utility.yul\":2504:2505   */\n      0x04\n        /* \"#utility.yul\":2497:2512   */\n      mstore\n        /* \"#utility.yul\":2531:2535   */\n      0x24\n        /* \"#utility.yul\":2528:2529   */\n      0x00\n        /* \"#utility.yul\":2521:2536   */\n      revert\n        /* \"#utility.yul\":2548:2724   */\n    tag_19:\n        /* \"#utility.yul\":2580:2581   */\n      0x00\n        /* \"#utility.yul\":2597:2617   */\n      tag_64\n        /* \"#utility.yul\":2615:2616   */\n      dup3\n        /* \"#utility.yul\":2597:2617   */\n      tag_20\n      jump\t// in\n    tag_64:\n        /* \"#utility.yul\":2592:2617   */\n      swap2\n      pop\n        /* \"#utility.yul\":2631:2651   */\n      tag_65\n        /* \"#utility.yul\":2649:2650   */\n      dup4\n        /* \"#utility.yul\":2631:2651   */\n      tag_20\n      jump\t// in\n    tag_65:\n        /* \"#utility.yul\":2626:2651   */\n      swap3\n      pop\n        /* \"#utility.yul\":2670:2671   */\n      dup3\n        /* \"#utility.yul\":2660:2695   */\n      tag_66\n      jumpi\n        /* \"#utility.yul\":2675:2693   */\n      tag_67\n      tag_31\n      jump\t// in\n    tag_67:\n        /* \"#utility.yul\":2660:2695   */\n    tag_66:\n        /* \"#utility.yul\":2716:2717   */\n      dup3\n        /* \"#utility.yul\":2713:2714   */\n      dup3\n        /* \"#utility.yul\":2709:2718   */\n      mod\n        /* \"#utility.yul\":2704:2718   */\n      swap1\n      pop\n        /* \"#utility.yul\":2548:2724   */\n      swap3\n      swap2\n      pop\n      pop\n      jump\t// out\n\n    auxdata: 0xa264697066735822122021dd74e24e0b48d8ea9406733400bba6c9cba4ed2ed14d8e0ac24a0aef33bae364736f6c634300080d0033\n}\n",
				"bytecode": {
					"linkReferences": {},
					"object": "60806040526000805534801561001457600080fd5b506102fd806100246000396000f3fe608060405234801561001057600080fd5b50600436106100365760003560e01c80630404a2451461003b5780635ec01e4d14610059575b600080fd5b610043610077565b60405161005091906100fd565b60405180910390f35b610061610081565b60405161006e91906100fd565b60405180910390f35b6000600154905090565b600080600081548092919061009590610147565b9190505550606442336000546040516020016100b39392919061022a565b6040516020818303038152906040528051906020012060001c6100d69190610296565b600181905550600154905090565b6000819050919050565b6100f7816100e4565b82525050565b600060208201905061011260008301846100ee565b92915050565b7f4e487b7100000000000000000000000000000000000000000000000000000000600052601160045260246000fd5b6000610152826100e4565b91507fffffffffffffffffffffffffffffffffffffffffffffffffffffffffffffffff820361018457610183610118565b5b600182019050919050565b6000819050919050565b6101aa6101a5826100e4565b61018f565b82525050565b600073ffffffffffffffffffffffffffffffffffffffff82169050919050565b60006101db826101b0565b9050919050565b60008160601b9050919050565b60006101fa826101e2565b9050919050565b600061020c826101ef565b9050919050565b61022461021f826101d0565b610201565b82525050565b60006102368286610199565b6020820191506102468285610213565b6014820191506102568284610199565b602082019150819050949350505050565b7f4e487b7100000000000000000000000000000000000000000000000000000000600052601260045260246000fd5b60006102a1826100e4565b91506102ac836100e4565b9250826102bc576102bb610267565b5b82820690509291505056fea264697066735822122021dd74e24e0b48d8ea9406733400bba6c9cba4ed2ed14d8e0ac24a0aef33bae364736f6c634300080d0033",
					"opcodes": "PUSH1 0x80 PUSH1 0x40 MSTORE PUSH1 0x0 DUP1 SSTORE CALLVALUE DUP1 ISZERO PUSH2 0x14 JUMPI PUSH1 0x0 DUP1 REVERT JUMPDEST POP PUSH2 0x2FD DUP1 PUSH2 0x24 PUSH1 0x0 CODECOPY PUSH1 0x0 RETURN INVALID PUSH1 0x80 PUSH1 0x40 MSTORE CALLVALUE DUP1 ISZERO PUSH2 0x10 JUMPI PUSH1 0x0 DUP1 REVERT JUMPDEST POP PUSH1 0x4 CALLDATASIZE LT PUSH2 0x36 JUMPI PUSH1 0x0 CALLDATALOAD PUSH1 0xE0 SHR DUP1 PUSH4 0x404A245 EQ PUSH2 0x3B JUMPI DUP1 PUSH4 0x5EC01E4D EQ PUSH2 0x59 JUMPI JUMPDEST PUSH1 0x0 DUP1 REVERT JUMPDEST PUSH2 0x43 PUSH2 0x77 JUMP JUMPDEST PUSH1 0x40 MLOAD PUSH2 0x50 SWAP2 SWAP1 PUSH2 0xFD JUMP JUMPDEST PUSH1 0x40 MLOAD DUP1 SWAP2 SUB SWAP1 RETURN JUMPDEST PUSH2 0x61 PUSH2 0x81 JUMP JUMPDEST PUSH1 0x40 MLOAD PUSH2 0x6E SWAP2 SWAP1 PUSH2 0xFD JUMP JUMPDEST PUSH1 0x40 MLOAD DUP1 SWAP2 SUB SWAP1 RETURN JUMPDEST PUSH1 0x0 PUSH1 0x1 SLOAD SWAP1 POP SWAP1 JUMP JUMPDEST PUSH1 0x0 DUP1 PUSH1 0x0 DUP2 SLOAD DUP1 SWAP3 SWAP2 SWAP1 PUSH2 0x95 SWAP1 PUSH2 0x147 JUMP JUMPDEST SWAP2 SWAP1 POP SSTORE POP PUSH1 0x64 TIMESTAMP CALLER PUSH1 0x0 SLOAD PUSH1 0x40 MLOAD PUSH1 0x20 ADD PUSH2 0xB3 SWAP4 SWAP3 SWAP2 SWAP1 PUSH2 0x22A JUMP JUMPDEST PUSH1 0x40 MLOAD PUSH1 0x20 DUP2 DUP4 SUB SUB DUP2 MSTORE SWAP1 PUSH1 0x40 MSTORE DUP1 MLOAD SWAP1 PUSH1 0x20 ADD KECCAK256 PUSH1 0x0 SHR PUSH2 0xD6 SWAP2 SWAP1 PUSH2 0x296 JUMP JUMPDEST PUSH1 0x1 DUP2 SWAP1 SSTORE POP PUSH1 0x1 SLOAD SWAP1 POP SWAP1 JUMP JUMPDEST PUSH1 0x0 DUP2 SWAP1 POP SWAP2 SWAP1 POP JUMP JUMPDEST PUSH2 0xF7 DUP2 PUSH2 0xE4 JUMP JUMPDEST DUP3 MSTORE POP POP JUMP JUMPDEST PUSH1 0x0 PUSH1 0x20 DUP3 ADD SWAP1 POP PUSH2 0x112 PUSH1 0x0 DUP4 ADD DUP5 PUSH2 0xEE JUMP JUMPDEST SWAP3 SWAP2 POP POP JUMP JUMPDEST PUSH32 0x4E487B7100000000000000000000000000000000000000000000000000000000 PUSH1 0x0 MSTORE PUSH1 0x11 PUSH1 0x4 MSTORE PUSH1 0x24 PUSH1 0x0 REVERT JUMPDEST PUSH1 0x0 PUSH2 0x152 DUP3 PUSH2 0xE4 JUMP JUMPDEST SWAP2 POP PUSH32 0xFFFFFFFFFFFFFFFFFFFFFFFFFFFFFFFFFFFFFFFFFFFFFFFFFFFFFFFFFFFFFFFF DUP3 SUB PUSH2 0x184 JUMPI PUSH2 0x183 PUSH2 0x118 JUMP JUMPDEST JUMPDEST PUSH1 0x1 DUP3 ADD SWAP1 POP SWAP2 SWAP1 POP JUMP JUMPDEST PUSH1 0x0 DUP2 SWAP1 POP SWAP2 SWAP1 POP JUMP JUMPDEST PUSH2 0x1AA PUSH2 0x1A5 DUP3 PUSH2 0xE4 JUMP JUMPDEST PUSH2 0x18F JUMP JUMPDEST DUP3 MSTORE POP POP JUMP JUMPDEST PUSH1 0x0 PUSH20 0xFFFFFFFFFFFFFFFFFFFFFFFFFFFFFFFFFFFFFFFF DUP3 AND SWAP1 POP SWAP2 SWAP1 POP JUMP JUMPDEST PUSH1 0x0 PUSH2 0x1DB DUP3 PUSH2 0x1B0 JUMP JUMPDEST SWAP1 POP SWAP2 SWAP1 POP JUMP JUMPDEST PUSH1 0x0 DUP2 PUSH1 0x60 SHL SWAP1 POP SWAP2 SWAP1 POP JUMP JUMPDEST PUSH1 0x0 PUSH2 0x1FA DUP3 PUSH2 0x1E2 JUMP JUMPDEST SWAP1 POP SWAP2 SWAP1 POP JUMP JUMPDEST PUSH1 0x0 PUSH2 0x20C DUP3 PUSH2 0x1EF JUMP JUMPDEST SWAP1 POP SWAP2 SWAP1 POP JUMP JUMPDEST PUSH2 0x224 PUSH2 0x21F DUP3 PUSH2 0x1D0 JUMP JUMPDEST PUSH2 0x201 JUMP JUMPDEST DUP3 MSTORE POP POP JUMP JUMPDEST PUSH1 0x0 PUSH2 0x236 DUP3 DUP7 PUSH2 0x199 JUMP JUMPDEST PUSH1 0x20 DUP3 ADD SWAP2 POP PUSH2 0x246 DUP3 DUP6 PUSH2 0x213 JUMP JUMPDEST PUSH1 0x14 DUP3 ADD SWAP2 POP PUSH2 0x256 DUP3 DUP5 PUSH2 0x199 JUMP JUMPDEST PUSH1 0x20 DUP3 ADD SWAP2 POP DUP2 SWAP1 POP SWAP5 SWAP4 POP POP POP POP JUMP JUMPDEST PUSH32 0x4E487B7100000000000000000000000000000000000000000000000000000000 PUSH1 0x0 MSTORE PUSH1 0x12 PUSH1 0x4 MSTORE PUSH1 0x24 PUSH1 0x0 REVERT JUMPDEST PUSH1 0x0 PUSH2 0x2A1 DUP3 PUSH2 0xE4 JUMP JUMPDEST SWAP2 POP PUSH2 0x2AC DUP4 PUSH2 0xE4 JUMP JUMPDEST SWAP3 POP DUP3 PUSH2 0x2BC JUMPI PUSH2 0x2BB PUSH2 0x267 JUMP JUMPDEST JUMPDEST DUP3 DUP3 MOD SWAP1 POP SWAP3 SWAP2 POP POP JUMP INVALID LOG2 PUSH5 0x6970667358 0x22 SLT KECCAK256 0x21 0xDD PUSH21 0xE24E0B48D8EA9406733400BBA6C9CBA4ED2ED14D8E EXP 0xC2 0x4A EXP 0xEF CALLER 0xBA 0xE3 PUSH5 0x736F6C6343 STOP ADDMOD 0xD STOP CALLER "
				},
				"gasEstimates": {
					"creation": {
						"codeDepositCost": "153000",
						"executionCost": "5202",
						"totalCost": "158202"
					},
					"external": {
						"getLastRandomForTest()": "2415",
						"random()": "infinite"
					}
				},
				"methodIdentifiers": {
					"getLastRandomForTest()": "0404a245",
					"random()": "5ec01e4d"
				}
			},
			"storageLayout": {
				"storage": [
					{
						"astId": 4,
						"contract": "contracts/random/random.sol:Random",
						"label": "_nonce",
						"offset": 0,
						"slot": "0",
						"type": "t_uint256"
					},
					{
						"astId": 6,
						"contract": "contracts/random/random.sol:Random",
						"label": "_lastRand",
						"offset": 0,
						"slot": "1",
						"type": "t_uint256"
					}
				],
				"types": {
					"t_uint256": {
						"encoding": "inplace",
						"label": "uint256",
						"numberOfBytes": "32"
					}
				}
			},
			"userdoc": {
				"kind": "user",
				"methods": {},
				"version": 1
			}
		}
	}
}