{
	"contracts/exoCours/exoNotationV2/exoNotationV2.sol": {
		"exoNotationV2": {
			"abi": [
				{
					"anonymous": false,
					"inputs": [
						{
							"indexed": true,
							"internalType": "address",
							"name": "previousOwner",
							"type": "address"
						},
						{
							"indexed": true,
							"internalType": "address",
							"name": "newOwner",
							"type": "address"
						}
					],
					"name": "OwnershipTransferred",
					"type": "event"
				},
				{
					"anonymous": false,
					"inputs": [
						{
							"indexed": false,
							"internalType": "string",
							"name": "_name",
							"type": "string"
						},
						{
							"indexed": false,
							"internalType": "string",
							"name": "_class",
							"type": "string"
						},
						{
							"indexed": false,
							"internalType": "address",
							"name": "_addr",
							"type": "address"
						}
					],
					"name": "studentAdded",
					"type": "event"
				},
				{
					"anonymous": false,
					"inputs": [
						{
							"indexed": false,
							"internalType": "string",
							"name": "_class",
							"type": "string"
						},
						{
							"indexed": false,
							"internalType": "string",
							"name": "_course",
							"type": "string"
						},
						{
							"indexed": false,
							"internalType": "address",
							"name": "_addr",
							"type": "address"
						}
					],
					"name": "teacherAdded",
					"type": "event"
				},
				{
					"inputs": [
						{
							"internalType": "string",
							"name": "_name",
							"type": "string"
						},
						{
							"internalType": "string",
							"name": "_class",
							"type": "string"
						},
						{
							"internalType": "address",
							"name": "_addr",
							"type": "address"
						}
					],
					"name": "addStudent",
					"outputs": [],
					"stateMutability": "nonpayable",
					"type": "function"
				},
				{
					"inputs": [
						{
							"internalType": "string",
							"name": "_class",
							"type": "string"
						}
					],
					"name": "calculateMoyenneGenerale",
					"outputs": [
						{
							"internalType": "uint256",
							"name": "",
							"type": "uint256"
						}
					],
					"stateMutability": "view",
					"type": "function"
				},
				{
					"inputs": [
						{
							"internalType": "string",
							"name": "_class",
							"type": "string"
						},
						{
							"internalType": "string",
							"name": "_course",
							"type": "string"
						}
					],
					"name": "calculateMoyennePerCourse",
					"outputs": [
						{
							"internalType": "uint256",
							"name": "",
							"type": "uint256"
						}
					],
					"stateMutability": "view",
					"type": "function"
				},
				{
					"inputs": [
						{
							"internalType": "string",
							"name": "_name",
							"type": "string"
						}
					],
					"name": "calculateMoyenneStudent",
					"outputs": [
						{
							"internalType": "uint256",
							"name": "",
							"type": "uint256"
						}
					],
					"stateMutability": "view",
					"type": "function"
				},
				{
					"inputs": [
						{
							"internalType": "string",
							"name": "_name",
							"type": "string"
						}
					],
					"name": "isPassing",
					"outputs": [
						{
							"internalType": "bool",
							"name": "",
							"type": "bool"
						}
					],
					"stateMutability": "view",
					"type": "function"
				},
				{
					"inputs": [],
					"name": "owner",
					"outputs": [
						{
							"internalType": "address",
							"name": "",
							"type": "address"
						}
					],
					"stateMutability": "view",
					"type": "function"
				},
				{
					"inputs": [],
					"name": "renounceOwnership",
					"outputs": [],
					"stateMutability": "nonpayable",
					"type": "function"
				},
				{
					"inputs": [
						{
							"internalType": "string",
							"name": "_course",
							"type": "string"
						},
						{
							"internalType": "string",
							"name": "_nameStudent",
							"type": "string"
						},
						{
							"internalType": "uint256",
							"name": "_note",
							"type": "uint256"
						}
					],
					"name": "setNote",
					"outputs": [],
					"stateMutability": "nonpayable",
					"type": "function"
				},
				{
					"inputs": [
						{
							"internalType": "string",
							"name": "_class",
							"type": "string"
						},
						{
							"internalType": "string",
							"name": "_course",
							"type": "string"
						},
						{
							"internalType": "address",
							"name": "_addr",
							"type": "address"
						}
					],
					"name": "setTeacher",
					"outputs": [],
					"stateMutability": "nonpayable",
					"type": "function"
				},
				{
					"inputs": [
						{
							"internalType": "address",
							"name": "newOwner",
							"type": "address"
						}
					],
					"name": "transferOwnership",
					"outputs": [],
					"stateMutability": "nonpayable",
					"type": "function"
				}
			],
			"devdoc": {
				"kind": "dev",
				"methods": {
					"owner()": {
						"details": "Returns the address of the current owner."
					},
					"renounceOwnership()": {
						"details": "Leaves the contract without owner. It will not be possible to call `onlyOwner` functions anymore. Can only be called by the current owner. NOTE: Renouncing ownership will leave the contract without an owner, thereby removing any functionality that is only available to the owner."
					},
					"transferOwnership(address)": {
						"details": "Transfers ownership of the contract to a new account (`newOwner`). Can only be called by the current owner."
					}
				},
				"version": 1
			},
			"evm": {
				"assembly": "    /* \"contracts/exoCours/exoNotationV2/exoNotationV2.sol\":121:4228  contract exoNotationV2 is Ownable{... */\n  mstore(0x40, 0x80)\n  callvalue\n  dup1\n  iszero\n  tag_1\n  jumpi\n  0x00\n  dup1\n  revert\ntag_1:\n  pop\n    /* \"@openzeppelin/contracts/access/Ownable.sol\":936:968  _transferOwnership(_msgSender()) */\n  tag_4\n    /* \"@openzeppelin/contracts/access/Ownable.sol\":955:967  _msgSender() */\n  tag_5\n    /* \"@openzeppelin/contracts/access/Ownable.sol\":955:965  _msgSender */\n  shl(0x20, tag_6)\n    /* \"@openzeppelin/contracts/access/Ownable.sol\":955:967  _msgSender() */\n  0x20\n  shr\n  jump\t// in\ntag_5:\n    /* \"@openzeppelin/contracts/access/Ownable.sol\":936:954  _transferOwnership */\n  shl(0x20, tag_7)\n    /* \"@openzeppelin/contracts/access/Ownable.sol\":936:968  _transferOwnership(_msgSender()) */\n  0x20\n  shr\n  jump\t// in\ntag_4:\n    /* \"contracts/exoCours/exoNotationV2/exoNotationV2.sol\":121:4228  contract exoNotationV2 is Ownable{... */\n  jump(tag_8)\n    /* \"@openzeppelin/contracts/utils/Context.sol\":640:736  function _msgSender() internal view virtual returns (address) {... */\ntag_6:\n    /* \"@openzeppelin/contracts/utils/Context.sol\":693:700  address */\n  0x00\n    /* \"@openzeppelin/contracts/utils/Context.sol\":719:729  msg.sender */\n  caller\n    /* \"@openzeppelin/contracts/utils/Context.sol\":712:729  return msg.sender */\n  swap1\n  pop\n    /* \"@openzeppelin/contracts/utils/Context.sol\":640:736  function _msgSender() internal view virtual returns (address) {... */\n  swap1\n  jump\t// out\n    /* \"@openzeppelin/contracts/access/Ownable.sol\":2433:2620  function _transferOwnership(address newOwner) internal virtual {... */\ntag_7:\n    /* \"@openzeppelin/contracts/access/Ownable.sol\":2506:2522  address oldOwner */\n  0x00\n    /* \"@openzeppelin/contracts/access/Ownable.sol\":2525:2531  _owner */\n  dup1\n  0x00\n  swap1\n  sload\n  swap1\n  0x0100\n  exp\n  swap1\n  div\n  0xffffffffffffffffffffffffffffffffffffffff\n  and\n    /* \"@openzeppelin/contracts/access/Ownable.sol\":2506:2531  address oldOwner = _owner */\n  swap1\n  pop\n    /* \"@openzeppelin/contracts/access/Ownable.sol\":2550:2558  newOwner */\n  dup2\n    /* \"@openzeppelin/contracts/access/Ownable.sol\":2541:2547  _owner */\n  0x00\n  dup1\n    /* \"@openzeppelin/contracts/access/Ownable.sol\":2541:2558  _owner = newOwner */\n  0x0100\n  exp\n  dup2\n  sload\n  dup2\n  0xffffffffffffffffffffffffffffffffffffffff\n  mul\n  not\n  and\n  swap1\n  dup4\n  0xffffffffffffffffffffffffffffffffffffffff\n  and\n  mul\n  or\n  swap1\n  sstore\n  pop\n    /* \"@openzeppelin/contracts/access/Ownable.sol\":2604:2612  newOwner */\n  dup2\n    /* \"@openzeppelin/contracts/access/Ownable.sol\":2573:2613  OwnershipTransferred(oldOwner, newOwner) */\n  0xffffffffffffffffffffffffffffffffffffffff\n  and\n    /* \"@openzeppelin/contracts/access/Ownable.sol\":2594:2602  oldOwner */\n  dup2\n    /* \"@openzeppelin/contracts/access/Ownable.sol\":2573:2613  OwnershipTransferred(oldOwner, newOwner) */\n  0xffffffffffffffffffffffffffffffffffffffff\n  and\n  0x8be0079c531659141344cd1fd0a4f28419497f9722a3daafe3b4186f6b6457e0\n  mload(0x40)\n  mload(0x40)\n  dup1\n  swap2\n  sub\n  swap1\n  log3\n    /* \"@openzeppelin/contracts/access/Ownable.sol\":2496:2620  {... */\n  pop\n    /* \"@openzeppelin/contracts/access/Ownable.sol\":2433:2620  function _transferOwnership(address newOwner) internal virtual {... */\n  pop\n  jump\t// out\n    /* \"contracts/exoCours/exoNotationV2/exoNotationV2.sol\":121:4228  contract exoNotationV2 is Ownable{... */\ntag_8:\n  dataSize(sub_0)\n  dup1\n  dataOffset(sub_0)\n  0x00\n  codecopy\n  0x00\n  return\nstop\n\nsub_0: assembly {\n        /* \"contracts/exoCours/exoNotationV2/exoNotationV2.sol\":121:4228  contract exoNotationV2 is Ownable{... */\n      mstore(0x40, 0x80)\n      callvalue\n      dup1\n      iszero\n      tag_1\n      jumpi\n      0x00\n      dup1\n      revert\n    tag_1:\n      pop\n      jumpi(tag_2, lt(calldatasize, 0x04))\n      shr(0xe0, calldataload(0x00))\n      dup1\n      0x715018a6\n      gt\n      tag_13\n      jumpi\n      dup1\n      0x715018a6\n      eq\n      tag_8\n      jumpi\n      dup1\n      0x8da5cb5b\n      eq\n      tag_9\n      jumpi\n      dup1\n      0xc2ef3771\n      eq\n      tag_10\n      jumpi\n      dup1\n      0xd304b1ea\n      eq\n      tag_11\n      jumpi\n      dup1\n      0xf2fde38b\n      eq\n      tag_12\n      jumpi\n      jump(tag_2)\n    tag_13:\n      dup1\n      0x02a3c89b\n      eq\n      tag_3\n      jumpi\n      dup1\n      0x0b90cbc9\n      eq\n      tag_4\n      jumpi\n      dup1\n      0x0dc0ffb1\n      eq\n      tag_5\n      jumpi\n      dup1\n      0x27b51db2\n      eq\n      tag_6\n      jumpi\n      dup1\n      0x42de0619\n      eq\n      tag_7\n      jumpi\n    tag_2:\n      0x00\n      dup1\n      revert\n        /* \"contracts/exoCours/exoNotationV2/exoNotationV2.sol\":3300:3559  function calculateMoyenneStudent(string memory _name) public onlyOwner view returns (uint){... */\n    tag_3:\n      tag_14\n      0x04\n      dup1\n      calldatasize\n      sub\n      dup2\n      add\n      swap1\n      tag_15\n      swap2\n      swap1\n      tag_16\n      jump\t// in\n    tag_15:\n      tag_17\n      jump\t// in\n    tag_14:\n      mload(0x40)\n      tag_18\n      swap2\n      swap1\n      tag_19\n      jump\t// in\n    tag_18:\n      mload(0x40)\n      dup1\n      swap2\n      sub\n      swap1\n      return\n        /* \"contracts/exoCours/exoNotationV2/exoNotationV2.sol\":837:1038  function setTeacher(string memory _class, string memory _course, address  _addr) public onlyOwner{... */\n    tag_4:\n      tag_20\n      0x04\n      dup1\n      calldatasize\n      sub\n      dup2\n      add\n      swap1\n      tag_21\n      swap2\n      swap1\n      tag_22\n      jump\t// in\n    tag_21:\n      tag_23\n      jump\t// in\n    tag_20:\n      stop\n        /* \"contracts/exoCours/exoNotationV2/exoNotationV2.sol\":3567:3758  function isPassing(string memory _name) public onlyOwner view returns (bool){... */\n    tag_5:\n      tag_24\n      0x04\n      dup1\n      calldatasize\n      sub\n      dup2\n      add\n      swap1\n      tag_25\n      swap2\n      swap1\n      tag_16\n      jump\t// in\n    tag_25:\n      tag_26\n      jump\t// in\n    tag_24:\n      mload(0x40)\n      tag_27\n      swap2\n      swap1\n      tag_28\n      jump\t// in\n    tag_27:\n      mload(0x40)\n      dup1\n      swap2\n      sub\n      swap1\n      return\n        /* \"contracts/exoCours/exoNotationV2/exoNotationV2.sol\":1648:2305  function setNote(string memory _course, string memory _nameStudent, uint _note) public {... */\n    tag_6:\n      tag_29\n      0x04\n      dup1\n      calldatasize\n      sub\n      dup2\n      add\n      swap1\n      tag_30\n      swap2\n      swap1\n      tag_31\n      jump\t// in\n    tag_30:\n      tag_32\n      jump\t// in\n    tag_29:\n      stop\n        /* \"contracts/exoCours/exoNotationV2/exoNotationV2.sol\":613:829  function addStudent(string memory _name, string memory _class, address _addr) public onlyOwner {... */\n    tag_7:\n      tag_33\n      0x04\n      dup1\n      calldatasize\n      sub\n      dup2\n      add\n      swap1\n      tag_34\n      swap2\n      swap1\n      tag_22\n      jump\t// in\n    tag_34:\n      tag_35\n      jump\t// in\n    tag_33:\n      stop\n        /* \"@openzeppelin/contracts/access/Ownable.sol\":1831:1932  function renounceOwnership() public virtual onlyOwner {... */\n    tag_8:\n      tag_36\n      tag_37\n      jump\t// in\n    tag_36:\n      stop\n        /* \"@openzeppelin/contracts/access/Ownable.sol\":1201:1286  function owner() public view virtual returns (address) {... */\n    tag_9:\n      tag_38\n      tag_39\n      jump\t// in\n    tag_38:\n      mload(0x40)\n      tag_40\n      swap2\n      swap1\n      tag_41\n      jump\t// in\n    tag_40:\n      mload(0x40)\n      dup1\n      swap2\n      sub\n      swap1\n      return\n        /* \"contracts/exoCours/exoNotationV2/exoNotationV2.sol\":2313:3292  function calculateMoyennePerCourse(string memory _class, string memory _course) public view returns (uint){... */\n    tag_10:\n      tag_42\n      0x04\n      dup1\n      calldatasize\n      sub\n      dup2\n      add\n      swap1\n      tag_43\n      swap2\n      swap1\n      tag_44\n      jump\t// in\n    tag_43:\n      tag_45\n      jump\t// in\n    tag_42:\n      mload(0x40)\n      tag_46\n      swap2\n      swap1\n      tag_19\n      jump\t// in\n    tag_46:\n      mload(0x40)\n      dup1\n      swap2\n      sub\n      swap1\n      return\n        /* \"contracts/exoCours/exoNotationV2/exoNotationV2.sol\":3766:4221  function calculateMoyenneGenerale(string memory _class) public view onlyOwner returns (uint) {... */\n    tag_11:\n      tag_47\n      0x04\n      dup1\n      calldatasize\n      sub\n      dup2\n      add\n      swap1\n      tag_48\n      swap2\n      swap1\n      tag_16\n      jump\t// in\n    tag_48:\n      tag_49\n      jump\t// in\n    tag_47:\n      mload(0x40)\n      tag_50\n      swap2\n      swap1\n      tag_19\n      jump\t// in\n    tag_50:\n      mload(0x40)\n      dup1\n      swap2\n      sub\n      swap1\n      return\n        /* \"@openzeppelin/contracts/access/Ownable.sol\":2081:2279  function transferOwnership(address newOwner) public virtual onlyOwner {... */\n    tag_12:\n      tag_51\n      0x04\n      dup1\n      calldatasize\n      sub\n      dup2\n      add\n      swap1\n      tag_52\n      swap2\n      swap1\n      tag_53\n      jump\t// in\n    tag_52:\n      tag_54\n      jump\t// in\n    tag_51:\n      stop\n        /* \"contracts/exoCours/exoNotationV2/exoNotationV2.sol\":3300:3559  function calculateMoyenneStudent(string memory _name) public onlyOwner view returns (uint){... */\n    tag_17:\n        /* \"contracts/exoCours/exoNotationV2/exoNotationV2.sol\":3385:3389  uint */\n      0x00\n        /* \"@openzeppelin/contracts/access/Ownable.sol\":1094:1107  _checkOwner() */\n      tag_56\n        /* \"@openzeppelin/contracts/access/Ownable.sol\":1094:1105  _checkOwner */\n      tag_57\n        /* \"@openzeppelin/contracts/access/Ownable.sol\":1094:1107  _checkOwner() */\n      jump\t// in\n    tag_56:\n        /* \"contracts/exoCours/exoNotationV2/exoNotationV2.sol\":3401:3415  uint idStudent */\n      0x00\n        /* \"contracts/exoCours/exoNotationV2/exoNotationV2.sol\":3416:3441  getStudentFromName(_name) */\n      tag_59\n        /* \"contracts/exoCours/exoNotationV2/exoNotationV2.sol\":3435:3440  _name */\n      dup4\n        /* \"contracts/exoCours/exoNotationV2/exoNotationV2.sol\":3416:3434  getStudentFromName */\n      tag_60\n        /* \"contracts/exoCours/exoNotationV2/exoNotationV2.sol\":3416:3441  getStudentFromName(_name) */\n      jump\t// in\n    tag_59:\n        /* \"contracts/exoCours/exoNotationV2/exoNotationV2.sol\":3401:3441  uint idStudent=getStudentFromName(_name) */\n      swap1\n      pop\n        /* \"contracts/exoCours/exoNotationV2/exoNotationV2.sol\":3550:3551  3 */\n      0x03\n        /* \"contracts/exoCours/exoNotationV2/exoNotationV2.sol\":3522:3530  students */\n      0x01\n        /* \"contracts/exoCours/exoNotationV2/exoNotationV2.sol\":3531:3540  idStudent */\n      dup3\n        /* \"contracts/exoCours/exoNotationV2/exoNotationV2.sol\":3522:3541  students[idStudent] */\n      dup2\n      sload\n      dup2\n      lt\n      tag_61\n      jumpi\n      tag_62\n      tag_63\n      jump\t// in\n    tag_62:\n    tag_61:\n      swap1\n      0x00\n      mstore\n      keccak256(0x00, 0x20)\n      swap1\n      0x06\n      mul\n      add\n        /* \"contracts/exoCours/exoNotationV2/exoNotationV2.sol\":3522:3548  students[idStudent].noteFr */\n      0x05\n      add\n      sload\n        /* \"contracts/exoCours/exoNotationV2/exoNotationV2.sol\":3492:3500  students */\n      0x01\n        /* \"contracts/exoCours/exoNotationV2/exoNotationV2.sol\":3501:3510  idStudent */\n      dup4\n        /* \"contracts/exoCours/exoNotationV2/exoNotationV2.sol\":3492:3511  students[idStudent] */\n      dup2\n      sload\n      dup2\n      lt\n      tag_65\n      jumpi\n      tag_66\n      tag_63\n      jump\t// in\n    tag_66:\n    tag_65:\n      swap1\n      0x00\n      mstore\n      keccak256(0x00, 0x20)\n      swap1\n      0x06\n      mul\n      add\n        /* \"contracts/exoCours/exoNotationV2/exoNotationV2.sol\":3492:3521  students[idStudent].noteMaths */\n      0x04\n      add\n      sload\n        /* \"contracts/exoCours/exoNotationV2/exoNotationV2.sol\":3460:3468  students */\n      0x01\n        /* \"contracts/exoCours/exoNotationV2/exoNotationV2.sol\":3469:3478  idStudent */\n      dup5\n        /* \"contracts/exoCours/exoNotationV2/exoNotationV2.sol\":3460:3479  students[idStudent] */\n      dup2\n      sload\n      dup2\n      lt\n      tag_68\n      jumpi\n      tag_69\n      tag_63\n      jump\t// in\n    tag_69:\n    tag_68:\n      swap1\n      0x00\n      mstore\n      keccak256(0x00, 0x20)\n      swap1\n      0x06\n      mul\n      add\n        /* \"contracts/exoCours/exoNotationV2/exoNotationV2.sol\":3460:3491  students[idStudent].noteBiology */\n      0x03\n      add\n      sload\n        /* \"contracts/exoCours/exoNotationV2/exoNotationV2.sol\":3460:3521  students[idStudent].noteBiology+students[idStudent].noteMaths */\n      tag_71\n      swap2\n      swap1\n      tag_72\n      jump\t// in\n    tag_71:\n        /* \"contracts/exoCours/exoNotationV2/exoNotationV2.sol\":3460:3548  students[idStudent].noteBiology+students[idStudent].noteMaths+students[idStudent].noteFr */\n      tag_73\n      swap2\n      swap1\n      tag_72\n      jump\t// in\n    tag_73:\n        /* \"contracts/exoCours/exoNotationV2/exoNotationV2.sol\":3459:3551  (students[idStudent].noteBiology+students[idStudent].noteMaths+students[idStudent].noteFr)/3 */\n      tag_74\n      swap2\n      swap1\n      tag_75\n      jump\t// in\n    tag_74:\n        /* \"contracts/exoCours/exoNotationV2/exoNotationV2.sol\":3452:3551  return (students[idStudent].noteBiology+students[idStudent].noteMaths+students[idStudent].noteFr)/3 */\n      swap2\n      pop\n      pop\n        /* \"contracts/exoCours/exoNotationV2/exoNotationV2.sol\":3300:3559  function calculateMoyenneStudent(string memory _name) public onlyOwner view returns (uint){... */\n      swap2\n      swap1\n      pop\n      jump\t// out\n        /* \"contracts/exoCours/exoNotationV2/exoNotationV2.sol\":837:1038  function setTeacher(string memory _class, string memory _course, address  _addr) public onlyOwner{... */\n    tag_23:\n        /* \"@openzeppelin/contracts/access/Ownable.sol\":1094:1107  _checkOwner() */\n      tag_77\n        /* \"@openzeppelin/contracts/access/Ownable.sol\":1094:1105  _checkOwner */\n      tag_57\n        /* \"@openzeppelin/contracts/access/Ownable.sol\":1094:1107  _checkOwner() */\n      jump\t// in\n    tag_77:\n        /* \"contracts/exoCours/exoNotationV2/exoNotationV2.sol\":971:976  _addr */\n      dup1\n        /* \"contracts/exoCours/exoNotationV2/exoNotationV2.sol\":945:953  teachers */\n      0x02\n        /* \"contracts/exoCours/exoNotationV2/exoNotationV2.sol\":954:960  _class */\n      dup5\n        /* \"contracts/exoCours/exoNotationV2/exoNotationV2.sol\":945:961  teachers[_class] */\n      mload(0x40)\n      tag_79\n      swap2\n      swap1\n      tag_80\n      jump\t// in\n    tag_79:\n      swap1\n      dup2\n      mstore\n      0x20\n      add\n      mload(0x40)\n      dup1\n      swap2\n      sub\n      swap1\n      keccak256\n        /* \"contracts/exoCours/exoNotationV2/exoNotationV2.sol\":962:969  _course */\n      dup4\n        /* \"contracts/exoCours/exoNotationV2/exoNotationV2.sol\":945:970  teachers[_class][_course] */\n      mload(0x40)\n      tag_81\n      swap2\n      swap1\n      tag_80\n      jump\t// in\n    tag_81:\n      swap1\n      dup2\n      mstore\n      0x20\n      add\n      mload(0x40)\n      dup1\n      swap2\n      sub\n      swap1\n      keccak256\n      0x00\n        /* \"contracts/exoCours/exoNotationV2/exoNotationV2.sol\":945:976  teachers[_class][_course]=_addr */\n      0x0100\n      exp\n      dup2\n      sload\n      dup2\n      0xffffffffffffffffffffffffffffffffffffffff\n      mul\n      not\n      and\n      swap1\n      dup4\n      0xffffffffffffffffffffffffffffffffffffffff\n      and\n      mul\n      or\n      swap1\n      sstore\n      pop\n        /* \"contracts/exoCours/exoNotationV2/exoNotationV2.sol\":992:1030  teacherAdded( _class, _course,  _addr) */\n      0x80a01e1d3291c6b3092f33ed56018c7bf68c833d0ea02c22585a85453a95fb05\n        /* \"contracts/exoCours/exoNotationV2/exoNotationV2.sol\":1006:1012  _class */\n      dup4\n        /* \"contracts/exoCours/exoNotationV2/exoNotationV2.sol\":1014:1021  _course */\n      dup4\n        /* \"contracts/exoCours/exoNotationV2/exoNotationV2.sol\":1024:1029  _addr */\n      dup4\n        /* \"contracts/exoCours/exoNotationV2/exoNotationV2.sol\":992:1030  teacherAdded( _class, _course,  _addr) */\n      mload(0x40)\n      tag_82\n      swap4\n      swap3\n      swap2\n      swap1\n      tag_83\n      jump\t// in\n    tag_82:\n      mload(0x40)\n      dup1\n      swap2\n      sub\n      swap1\n      log1\n        /* \"contracts/exoCours/exoNotationV2/exoNotationV2.sol\":837:1038  function setTeacher(string memory _class, string memory _course, address  _addr) public onlyOwner{... */\n      pop\n      pop\n      pop\n      jump\t// out\n        /* \"contracts/exoCours/exoNotationV2/exoNotationV2.sol\":3567:3758  function isPassing(string memory _name) public onlyOwner view returns (bool){... */\n    tag_26:\n        /* \"contracts/exoCours/exoNotationV2/exoNotationV2.sol\":3638:3642  bool */\n      0x00\n        /* \"@openzeppelin/contracts/access/Ownable.sol\":1094:1107  _checkOwner() */\n      tag_85\n        /* \"@openzeppelin/contracts/access/Ownable.sol\":1094:1105  _checkOwner */\n      tag_57\n        /* \"@openzeppelin/contracts/access/Ownable.sol\":1094:1107  _checkOwner() */\n      jump\t// in\n    tag_85:\n        /* \"contracts/exoCours/exoNotationV2/exoNotationV2.sol\":3689:3691  10 */\n      0x0a\n        /* \"contracts/exoCours/exoNotationV2/exoNotationV2.sol\":3657:3687  calculateMoyenneStudent(_name) */\n      tag_87\n        /* \"contracts/exoCours/exoNotationV2/exoNotationV2.sol\":3681:3686  _name */\n      dup4\n        /* \"contracts/exoCours/exoNotationV2/exoNotationV2.sol\":3657:3680  calculateMoyenneStudent */\n      tag_17\n        /* \"contracts/exoCours/exoNotationV2/exoNotationV2.sol\":3657:3687  calculateMoyenneStudent(_name) */\n      jump\t// in\n    tag_87:\n        /* \"contracts/exoCours/exoNotationV2/exoNotationV2.sol\":3657:3691  calculateMoyenneStudent(_name)>=10 */\n      lt\n        /* \"contracts/exoCours/exoNotationV2/exoNotationV2.sol\":3654:3751  if(calculateMoyenneStudent(_name)>=10){... */\n      tag_88\n      jumpi\n        /* \"contracts/exoCours/exoNotationV2/exoNotationV2.sol\":3714:3718  true */\n      0x01\n        /* \"contracts/exoCours/exoNotationV2/exoNotationV2.sol\":3707:3718  return true */\n      swap1\n      pop\n      jump(tag_86)\n        /* \"contracts/exoCours/exoNotationV2/exoNotationV2.sol\":3654:3751  if(calculateMoyenneStudent(_name)>=10){... */\n    tag_88:\n        /* \"contracts/exoCours/exoNotationV2/exoNotationV2.sol\":3744:3749  false */\n      0x00\n        /* \"contracts/exoCours/exoNotationV2/exoNotationV2.sol\":3737:3749  return false */\n      swap1\n      pop\n        /* \"@openzeppelin/contracts/access/Ownable.sol\":1117:1118  _ */\n    tag_86:\n        /* \"contracts/exoCours/exoNotationV2/exoNotationV2.sol\":3567:3758  function isPassing(string memory _name) public onlyOwner view returns (bool){... */\n      swap2\n      swap1\n      pop\n      jump\t// out\n        /* \"contracts/exoCours/exoNotationV2/exoNotationV2.sol\":1648:2305  function setNote(string memory _course, string memory _nameStudent, uint _note) public {... */\n    tag_32:\n        /* \"contracts/exoCours/exoNotationV2/exoNotationV2.sol\":1746:1760  uint idStudent */\n      0x00\n        /* \"contracts/exoCours/exoNotationV2/exoNotationV2.sol\":1761:1793  getStudentFromName(_nameStudent) */\n      tag_91\n        /* \"contracts/exoCours/exoNotationV2/exoNotationV2.sol\":1780:1792  _nameStudent */\n      dup4\n        /* \"contracts/exoCours/exoNotationV2/exoNotationV2.sol\":1761:1779  getStudentFromName */\n      tag_60\n        /* \"contracts/exoCours/exoNotationV2/exoNotationV2.sol\":1761:1793  getStudentFromName(_nameStudent) */\n      jump\t// in\n    tag_91:\n        /* \"contracts/exoCours/exoNotationV2/exoNotationV2.sol\":1746:1793  uint idStudent=getStudentFromName(_nameStudent) */\n      swap1\n      pop\n        /* \"contracts/exoCours/exoNotationV2/exoNotationV2.sol\":1824:1832  teachers */\n      0x02\n        /* \"contracts/exoCours/exoNotationV2/exoNotationV2.sol\":1833:1841  students */\n      0x01\n        /* \"contracts/exoCours/exoNotationV2/exoNotationV2.sol\":1842:1851  idStudent */\n      dup3\n        /* \"contracts/exoCours/exoNotationV2/exoNotationV2.sol\":1833:1852  students[idStudent] */\n      dup2\n      sload\n      dup2\n      lt\n      tag_92\n      jumpi\n      tag_93\n      tag_63\n      jump\t// in\n    tag_93:\n    tag_92:\n      swap1\n      0x00\n      mstore\n      keccak256(0x00, 0x20)\n      swap1\n      0x06\n      mul\n      add\n        /* \"contracts/exoCours/exoNotationV2/exoNotationV2.sol\":1833:1858  students[idStudent].class */\n      0x01\n      add\n        /* \"contracts/exoCours/exoNotationV2/exoNotationV2.sol\":1824:1859  teachers[students[idStudent].class] */\n      mload(0x40)\n      tag_95\n      swap2\n      swap1\n      tag_96\n      jump\t// in\n    tag_95:\n      swap1\n      dup2\n      mstore\n      0x20\n      add\n      mload(0x40)\n      dup1\n      swap2\n      sub\n      swap1\n      keccak256\n        /* \"contracts/exoCours/exoNotationV2/exoNotationV2.sol\":1860:1867  _course */\n      dup5\n        /* \"contracts/exoCours/exoNotationV2/exoNotationV2.sol\":1824:1868  teachers[students[idStudent].class][_course] */\n      mload(0x40)\n      tag_97\n      swap2\n      swap1\n      tag_80\n      jump\t// in\n    tag_97:\n      swap1\n      dup2\n      mstore\n      0x20\n      add\n      mload(0x40)\n      dup1\n      swap2\n      sub\n      swap1\n      keccak256\n      0x00\n      swap1\n      sload\n      swap1\n      0x0100\n      exp\n      swap1\n      div\n      0xffffffffffffffffffffffffffffffffffffffff\n      and\n        /* \"contracts/exoCours/exoNotationV2/exoNotationV2.sol\":1812:1868  msg.sender==teachers[students[idStudent].class][_course] */\n      0xffffffffffffffffffffffffffffffffffffffff\n      and\n        /* \"contracts/exoCours/exoNotationV2/exoNotationV2.sol\":1812:1822  msg.sender */\n      caller\n        /* \"contracts/exoCours/exoNotationV2/exoNotationV2.sol\":1812:1868  msg.sender==teachers[students[idStudent].class][_course] */\n      0xffffffffffffffffffffffffffffffffffffffff\n      and\n      eq\n        /* \"contracts/exoCours/exoNotationV2/exoNotationV2.sol\":1804:1918  require(msg.sender==teachers[students[idStudent].class][_course], \"you re not the teacher of this student course\") */\n      tag_98\n      jumpi\n      mload(0x40)\n      0x08c379a000000000000000000000000000000000000000000000000000000000\n      dup2\n      mstore\n      0x04\n      add\n      tag_99\n      swap1\n      tag_100\n      jump\t// in\n    tag_99:\n      mload(0x40)\n      dup1\n      swap2\n      sub\n      swap1\n      revert\n    tag_98:\n        /* \"contracts/exoCours/exoNotationV2/exoNotationV2.sol\":1933:1965  stringsEquals(_course,\"biology\") */\n      tag_101\n        /* \"contracts/exoCours/exoNotationV2/exoNotationV2.sol\":1947:1954  _course */\n      dup5\n        /* \"contracts/exoCours/exoNotationV2/exoNotationV2.sol\":1933:1965  stringsEquals(_course,\"biology\") */\n      mload(0x40)\n      dup1\n      0x40\n      add\n      0x40\n      mstore\n      dup1\n      0x07\n      dup2\n      mstore\n      0x20\n      add\n      0x62696f6c6f677900000000000000000000000000000000000000000000000000\n      dup2\n      mstore\n      pop\n        /* \"contracts/exoCours/exoNotationV2/exoNotationV2.sol\":1933:1946  stringsEquals */\n      tag_102\n        /* \"contracts/exoCours/exoNotationV2/exoNotationV2.sol\":1933:1965  stringsEquals(_course,\"biology\") */\n      jump\t// in\n    tag_101:\n        /* \"contracts/exoCours/exoNotationV2/exoNotationV2.sol\":1929:2298  if (stringsEquals(_course,\"biology\")){... */\n      iszero\n      tag_103\n      jumpi\n        /* \"contracts/exoCours/exoNotationV2/exoNotationV2.sol\":2013:2018  _note */\n      dup2\n        /* \"contracts/exoCours/exoNotationV2/exoNotationV2.sol\":1981:1989  students */\n      0x01\n        /* \"contracts/exoCours/exoNotationV2/exoNotationV2.sol\":1990:1999  idStudent */\n      dup3\n        /* \"contracts/exoCours/exoNotationV2/exoNotationV2.sol\":1981:2000  students[idStudent] */\n      dup2\n      sload\n      dup2\n      lt\n      tag_104\n      jumpi\n      tag_105\n      tag_63\n      jump\t// in\n    tag_105:\n    tag_104:\n      swap1\n      0x00\n      mstore\n      keccak256(0x00, 0x20)\n      swap1\n      0x06\n      mul\n      add\n        /* \"contracts/exoCours/exoNotationV2/exoNotationV2.sol\":1981:2012  students[idStudent].noteBiology */\n      0x03\n      add\n        /* \"contracts/exoCours/exoNotationV2/exoNotationV2.sol\":1981:2018  students[idStudent].noteBiology=_note */\n      dup2\n      swap1\n      sstore\n      pop\n        /* \"contracts/exoCours/exoNotationV2/exoNotationV2.sol\":1929:2298  if (stringsEquals(_course,\"biology\")){... */\n      jump(tag_107)\n    tag_103:\n        /* \"contracts/exoCours/exoNotationV2/exoNotationV2.sol\":2049:2079  stringsEquals(_course,\"maths\") */\n      tag_108\n        /* \"contracts/exoCours/exoNotationV2/exoNotationV2.sol\":2063:2070  _course */\n      dup5\n        /* \"contracts/exoCours/exoNotationV2/exoNotationV2.sol\":2049:2079  stringsEquals(_course,\"maths\") */\n      mload(0x40)\n      dup1\n      0x40\n      add\n      0x40\n      mstore\n      dup1\n      0x05\n      dup2\n      mstore\n      0x20\n      add\n      0x6d61746873000000000000000000000000000000000000000000000000000000\n      dup2\n      mstore\n      pop\n        /* \"contracts/exoCours/exoNotationV2/exoNotationV2.sol\":2049:2062  stringsEquals */\n      tag_102\n        /* \"contracts/exoCours/exoNotationV2/exoNotationV2.sol\":2049:2079  stringsEquals(_course,\"maths\") */\n      jump\t// in\n    tag_108:\n        /* \"contracts/exoCours/exoNotationV2/exoNotationV2.sol\":2045:2298  if (stringsEquals(_course,\"maths\")){... */\n      iszero\n      tag_109\n      jumpi\n        /* \"contracts/exoCours/exoNotationV2/exoNotationV2.sol\":2125:2130  _note */\n      dup2\n        /* \"contracts/exoCours/exoNotationV2/exoNotationV2.sol\":2095:2103  students */\n      0x01\n        /* \"contracts/exoCours/exoNotationV2/exoNotationV2.sol\":2104:2113  idStudent */\n      dup3\n        /* \"contracts/exoCours/exoNotationV2/exoNotationV2.sol\":2095:2114  students[idStudent] */\n      dup2\n      sload\n      dup2\n      lt\n      tag_110\n      jumpi\n      tag_111\n      tag_63\n      jump\t// in\n    tag_111:\n    tag_110:\n      swap1\n      0x00\n      mstore\n      keccak256(0x00, 0x20)\n      swap1\n      0x06\n      mul\n      add\n        /* \"contracts/exoCours/exoNotationV2/exoNotationV2.sol\":2095:2124  students[idStudent].noteMaths */\n      0x04\n      add\n        /* \"contracts/exoCours/exoNotationV2/exoNotationV2.sol\":2095:2130  students[idStudent].noteMaths=_note */\n      dup2\n      swap1\n      sstore\n      pop\n        /* \"contracts/exoCours/exoNotationV2/exoNotationV2.sol\":2045:2298  if (stringsEquals(_course,\"maths\")){... */\n      jump(tag_113)\n    tag_109:\n        /* \"contracts/exoCours/exoNotationV2/exoNotationV2.sol\":2161:2192  stringsEquals(_course,\"french\") */\n      tag_114\n        /* \"contracts/exoCours/exoNotationV2/exoNotationV2.sol\":2175:2182  _course */\n      dup5\n        /* \"contracts/exoCours/exoNotationV2/exoNotationV2.sol\":2161:2192  stringsEquals(_course,\"french\") */\n      mload(0x40)\n      dup1\n      0x40\n      add\n      0x40\n      mstore\n      dup1\n      0x06\n      dup2\n      mstore\n      0x20\n      add\n      0x6672656e63680000000000000000000000000000000000000000000000000000\n      dup2\n      mstore\n      pop\n        /* \"contracts/exoCours/exoNotationV2/exoNotationV2.sol\":2161:2174  stringsEquals */\n      tag_102\n        /* \"contracts/exoCours/exoNotationV2/exoNotationV2.sol\":2161:2192  stringsEquals(_course,\"french\") */\n      jump\t// in\n    tag_114:\n        /* \"contracts/exoCours/exoNotationV2/exoNotationV2.sol\":2157:2298  if (stringsEquals(_course,\"french\")){... */\n      iszero\n      tag_115\n      jumpi\n        /* \"contracts/exoCours/exoNotationV2/exoNotationV2.sol\":2235:2240  _note */\n      dup2\n        /* \"contracts/exoCours/exoNotationV2/exoNotationV2.sol\":2208:2216  students */\n      0x01\n        /* \"contracts/exoCours/exoNotationV2/exoNotationV2.sol\":2217:2226  idStudent */\n      dup3\n        /* \"contracts/exoCours/exoNotationV2/exoNotationV2.sol\":2208:2227  students[idStudent] */\n      dup2\n      sload\n      dup2\n      lt\n      tag_116\n      jumpi\n      tag_117\n      tag_63\n      jump\t// in\n    tag_117:\n    tag_116:\n      swap1\n      0x00\n      mstore\n      keccak256(0x00, 0x20)\n      swap1\n      0x06\n      mul\n      add\n        /* \"contracts/exoCours/exoNotationV2/exoNotationV2.sol\":2208:2234  students[idStudent].noteFr */\n      0x05\n      add\n        /* \"contracts/exoCours/exoNotationV2/exoNotationV2.sol\":2208:2240  students[idStudent].noteFr=_note */\n      dup2\n      swap1\n      sstore\n      pop\n        /* \"contracts/exoCours/exoNotationV2/exoNotationV2.sol\":2157:2298  if (stringsEquals(_course,\"french\")){... */\n      jump(tag_119)\n    tag_115:\n        /* \"contracts/exoCours/exoNotationV2/exoNotationV2.sol\":2268:2296  revert(\"type a real course\") */\n      mload(0x40)\n      0x08c379a000000000000000000000000000000000000000000000000000000000\n      dup2\n      mstore\n      0x04\n      add\n      tag_120\n      swap1\n      tag_121\n      jump\t// in\n    tag_120:\n      mload(0x40)\n      dup1\n      swap2\n      sub\n      swap1\n      revert\n        /* \"contracts/exoCours/exoNotationV2/exoNotationV2.sol\":2157:2298  if (stringsEquals(_course,\"french\")){... */\n    tag_119:\n        /* \"contracts/exoCours/exoNotationV2/exoNotationV2.sol\":2045:2298  if (stringsEquals(_course,\"maths\")){... */\n    tag_113:\n        /* \"contracts/exoCours/exoNotationV2/exoNotationV2.sol\":1929:2298  if (stringsEquals(_course,\"biology\")){... */\n    tag_107:\n        /* \"contracts/exoCours/exoNotationV2/exoNotationV2.sol\":1735:2305  {... */\n      pop\n        /* \"contracts/exoCours/exoNotationV2/exoNotationV2.sol\":1648:2305  function setNote(string memory _course, string memory _nameStudent, uint _note) public {... */\n      pop\n      pop\n      pop\n      jump\t// out\n        /* \"contracts/exoCours/exoNotationV2/exoNotationV2.sol\":613:829  function addStudent(string memory _name, string memory _class, address _addr) public onlyOwner {... */\n    tag_35:\n        /* \"@openzeppelin/contracts/access/Ownable.sol\":1094:1107  _checkOwner() */\n      tag_123\n        /* \"@openzeppelin/contracts/access/Ownable.sol\":1094:1105  _checkOwner */\n      tag_57\n        /* \"@openzeppelin/contracts/access/Ownable.sol\":1094:1107  _checkOwner() */\n      jump\t// in\n    tag_123:\n        /* \"contracts/exoCours/exoNotationV2/exoNotationV2.sol\":719:727  students */\n      0x01\n        /* \"contracts/exoCours/exoNotationV2/exoNotationV2.sol\":733:769  Student(_name, _class, _addr, 0,0,0) */\n      mload(0x40)\n      dup1\n      0xc0\n      add\n      0x40\n      mstore\n      dup1\n        /* \"contracts/exoCours/exoNotationV2/exoNotationV2.sol\":741:746  _name */\n      dup6\n        /* \"contracts/exoCours/exoNotationV2/exoNotationV2.sol\":733:769  Student(_name, _class, _addr, 0,0,0) */\n      dup2\n      mstore\n      0x20\n      add\n        /* \"contracts/exoCours/exoNotationV2/exoNotationV2.sol\":748:754  _class */\n      dup5\n        /* \"contracts/exoCours/exoNotationV2/exoNotationV2.sol\":733:769  Student(_name, _class, _addr, 0,0,0) */\n      dup2\n      mstore\n      0x20\n      add\n        /* \"contracts/exoCours/exoNotationV2/exoNotationV2.sol\":756:761  _addr */\n      dup4\n        /* \"contracts/exoCours/exoNotationV2/exoNotationV2.sol\":733:769  Student(_name, _class, _addr, 0,0,0) */\n      0xffffffffffffffffffffffffffffffffffffffff\n      and\n      dup2\n      mstore\n      0x20\n      add\n        /* \"contracts/exoCours/exoNotationV2/exoNotationV2.sol\":763:764  0 */\n      0x00\n        /* \"contracts/exoCours/exoNotationV2/exoNotationV2.sol\":733:769  Student(_name, _class, _addr, 0,0,0) */\n      dup2\n      mstore\n      0x20\n      add\n        /* \"contracts/exoCours/exoNotationV2/exoNotationV2.sol\":765:766  0 */\n      0x00\n        /* \"contracts/exoCours/exoNotationV2/exoNotationV2.sol\":733:769  Student(_name, _class, _addr, 0,0,0) */\n      dup2\n      mstore\n      0x20\n      add\n        /* \"contracts/exoCours/exoNotationV2/exoNotationV2.sol\":767:768  0 */\n      0x00\n        /* \"contracts/exoCours/exoNotationV2/exoNotationV2.sol\":733:769  Student(_name, _class, _addr, 0,0,0) */\n      dup2\n      mstore\n      pop\n        /* \"contracts/exoCours/exoNotationV2/exoNotationV2.sol\":719:770  students.push(Student(_name, _class, _addr, 0,0,0)) */\n      swap1\n      dup1\n      0x01\n      dup2\n      sload\n      add\n      dup1\n      dup3\n      sstore\n      dup1\n      swap2\n      pop\n      pop\n      0x01\n      swap1\n      sub\n      swap1\n      0x00\n      mstore\n      keccak256(0x00, 0x20)\n      swap1\n      0x06\n      mul\n      add\n      0x00\n      swap1\n      swap2\n      swap1\n      swap2\n      swap1\n      swap2\n      pop\n      0x00\n      dup3\n      add\n      mload\n      dup2\n      0x00\n      add\n      swap1\n      dup1\n      mload\n      swap1\n      0x20\n      add\n      swap1\n      tag_126\n      swap3\n      swap2\n      swap1\n      tag_127\n      jump\t// in\n    tag_126:\n      pop\n      0x20\n      dup3\n      add\n      mload\n      dup2\n      0x01\n      add\n      swap1\n      dup1\n      mload\n      swap1\n      0x20\n      add\n      swap1\n      tag_128\n      swap3\n      swap2\n      swap1\n      tag_127\n      jump\t// in\n    tag_128:\n      pop\n      0x40\n      dup3\n      add\n      mload\n      dup2\n      0x02\n      add\n      exp(0x0100, 0x00)\n      dup2\n      sload\n      dup2\n      0xffffffffffffffffffffffffffffffffffffffff\n      mul\n      not\n      and\n      swap1\n      dup4\n      0xffffffffffffffffffffffffffffffffffffffff\n      and\n      mul\n      or\n      swap1\n      sstore\n      pop\n      0x60\n      dup3\n      add\n      mload\n      dup2\n      0x03\n      add\n      sstore\n      0x80\n      dup3\n      add\n      mload\n      dup2\n      0x04\n      add\n      sstore\n      0xa0\n      dup3\n      add\n      mload\n      dup2\n      0x05\n      add\n      sstore\n      pop\n      pop\n        /* \"contracts/exoCours/exoNotationV2/exoNotationV2.sol\":786:821  studentAdded( _name, _class, _addr) */\n      0xc5a733a207b7a059be3101c664dd32331efcaa32bb12d0531ae1b7d4607a7415\n        /* \"contracts/exoCours/exoNotationV2/exoNotationV2.sol\":800:805  _name */\n      dup4\n        /* \"contracts/exoCours/exoNotationV2/exoNotationV2.sol\":807:813  _class */\n      dup4\n        /* \"contracts/exoCours/exoNotationV2/exoNotationV2.sol\":815:820  _addr */\n      dup4\n        /* \"contracts/exoCours/exoNotationV2/exoNotationV2.sol\":786:821  studentAdded( _name, _class, _addr) */\n      mload(0x40)\n      tag_129\n      swap4\n      swap3\n      swap2\n      swap1\n      tag_83\n      jump\t// in\n    tag_129:\n      mload(0x40)\n      dup1\n      swap2\n      sub\n      swap1\n      log1\n        /* \"contracts/exoCours/exoNotationV2/exoNotationV2.sol\":613:829  function addStudent(string memory _name, string memory _class, address _addr) public onlyOwner {... */\n      pop\n      pop\n      pop\n      jump\t// out\n        /* \"@openzeppelin/contracts/access/Ownable.sol\":1831:1932  function renounceOwnership() public virtual onlyOwner {... */\n    tag_37:\n        /* \"@openzeppelin/contracts/access/Ownable.sol\":1094:1107  _checkOwner() */\n      tag_131\n        /* \"@openzeppelin/contracts/access/Ownable.sol\":1094:1105  _checkOwner */\n      tag_57\n        /* \"@openzeppelin/contracts/access/Ownable.sol\":1094:1107  _checkOwner() */\n      jump\t// in\n    tag_131:\n        /* \"@openzeppelin/contracts/access/Ownable.sol\":1895:1925  _transferOwnership(address(0)) */\n      tag_133\n        /* \"@openzeppelin/contracts/access/Ownable.sol\":1922:1923  0 */\n      0x00\n        /* \"@openzeppelin/contracts/access/Ownable.sol\":1895:1913  _transferOwnership */\n      tag_134\n        /* \"@openzeppelin/contracts/access/Ownable.sol\":1895:1925  _transferOwnership(address(0)) */\n      jump\t// in\n    tag_133:\n        /* \"@openzeppelin/contracts/access/Ownable.sol\":1831:1932  function renounceOwnership() public virtual onlyOwner {... */\n      jump\t// out\n        /* \"@openzeppelin/contracts/access/Ownable.sol\":1201:1286  function owner() public view virtual returns (address) {... */\n    tag_39:\n        /* \"@openzeppelin/contracts/access/Ownable.sol\":1247:1254  address */\n      0x00\n        /* \"@openzeppelin/contracts/access/Ownable.sol\":1273:1279  _owner */\n      dup1\n      0x00\n      swap1\n      sload\n      swap1\n      0x0100\n      exp\n      swap1\n      div\n      0xffffffffffffffffffffffffffffffffffffffff\n      and\n        /* \"@openzeppelin/contracts/access/Ownable.sol\":1266:1279  return _owner */\n      swap1\n      pop\n        /* \"@openzeppelin/contracts/access/Ownable.sol\":1201:1286  function owner() public view virtual returns (address) {... */\n      swap1\n      jump\t// out\n        /* \"contracts/exoCours/exoNotationV2/exoNotationV2.sol\":2313:3292  function calculateMoyennePerCourse(string memory _class, string memory _course) public view returns (uint){... */\n    tag_45:\n        /* \"contracts/exoCours/exoNotationV2/exoNotationV2.sol\":2414:2418  uint */\n      0x00\n        /* \"contracts/exoCours/exoNotationV2/exoNotationV2.sol\":2450:2458  teachers */\n      0x02\n        /* \"contracts/exoCours/exoNotationV2/exoNotationV2.sol\":2459:2465  _class */\n      dup4\n        /* \"contracts/exoCours/exoNotationV2/exoNotationV2.sol\":2450:2466  teachers[_class] */\n      mload(0x40)\n      tag_137\n      swap2\n      swap1\n      tag_80\n      jump\t// in\n    tag_137:\n      swap1\n      dup2\n      mstore\n      0x20\n      add\n      mload(0x40)\n      dup1\n      swap2\n      sub\n      swap1\n      keccak256\n        /* \"contracts/exoCours/exoNotationV2/exoNotationV2.sol\":2467:2474  _course */\n      dup3\n        /* \"contracts/exoCours/exoNotationV2/exoNotationV2.sol\":2450:2475  teachers[_class][_course] */\n      mload(0x40)\n      tag_138\n      swap2\n      swap1\n      tag_80\n      jump\t// in\n    tag_138:\n      swap1\n      dup2\n      mstore\n      0x20\n      add\n      mload(0x40)\n      dup1\n      swap2\n      sub\n      swap1\n      keccak256\n      0x00\n      swap1\n      sload\n      swap1\n      0x0100\n      exp\n      swap1\n      div\n      0xffffffffffffffffffffffffffffffffffffffff\n      and\n        /* \"contracts/exoCours/exoNotationV2/exoNotationV2.sol\":2438:2475  msg.sender==teachers[_class][_course] */\n      0xffffffffffffffffffffffffffffffffffffffff\n      and\n        /* \"contracts/exoCours/exoNotationV2/exoNotationV2.sol\":2438:2448  msg.sender */\n      caller\n        /* \"contracts/exoCours/exoNotationV2/exoNotationV2.sol\":2438:2475  msg.sender==teachers[_class][_course] */\n      0xffffffffffffffffffffffffffffffffffffffff\n      and\n      eq\n        /* \"contracts/exoCours/exoNotationV2/exoNotationV2.sol\":2430:2523  require(msg.sender==teachers[_class][_course], \"you're not the teacher of this class course\") */\n      tag_139\n      jumpi\n      mload(0x40)\n      0x08c379a000000000000000000000000000000000000000000000000000000000\n      dup2\n      mstore\n      0x04\n      add\n      tag_140\n      swap1\n      tag_141\n      jump\t// in\n    tag_140:\n      mload(0x40)\n      dup1\n      swap2\n      sub\n      swap1\n      revert\n    tag_139:\n        /* \"contracts/exoCours/exoNotationV2/exoNotationV2.sol\":2534:2548  uint totalNote */\n      0x00\n        /* \"contracts/exoCours/exoNotationV2/exoNotationV2.sol\":2559:2576  uint totalStudent */\n      dup1\n        /* \"contracts/exoCours/exoNotationV2/exoNotationV2.sol\":2592:2598  uint i */\n      0x00\n        /* \"contracts/exoCours/exoNotationV2/exoNotationV2.sol\":2587:3210  for (uint i=0; i<students.length;i++){... */\n    tag_142:\n        /* \"contracts/exoCours/exoNotationV2/exoNotationV2.sol\":2604:2612  students */\n      0x01\n        /* \"contracts/exoCours/exoNotationV2/exoNotationV2.sol\":2604:2619  students.length */\n      dup1\n      sload\n      swap1\n      pop\n        /* \"contracts/exoCours/exoNotationV2/exoNotationV2.sol\":2602:2603  i */\n      dup2\n        /* \"contracts/exoCours/exoNotationV2/exoNotationV2.sol\":2602:2619  i<students.length */\n      lt\n        /* \"contracts/exoCours/exoNotationV2/exoNotationV2.sol\":2587:3210  for (uint i=0; i<students.length;i++){... */\n      iszero\n      tag_143\n      jumpi\n        /* \"contracts/exoCours/exoNotationV2/exoNotationV2.sol\":2643:2682  stringsEquals(_class,students[i].class) */\n      tag_145\n        /* \"contracts/exoCours/exoNotationV2/exoNotationV2.sol\":2657:2663  _class */\n      dup7\n        /* \"contracts/exoCours/exoNotationV2/exoNotationV2.sol\":2664:2672  students */\n      0x01\n        /* \"contracts/exoCours/exoNotationV2/exoNotationV2.sol\":2673:2674  i */\n      dup4\n        /* \"contracts/exoCours/exoNotationV2/exoNotationV2.sol\":2664:2675  students[i] */\n      dup2\n      sload\n      dup2\n      lt\n      tag_146\n      jumpi\n      tag_147\n      tag_63\n      jump\t// in\n    tag_147:\n    tag_146:\n      swap1\n      0x00\n      mstore\n      keccak256(0x00, 0x20)\n      swap1\n      0x06\n      mul\n      add\n        /* \"contracts/exoCours/exoNotationV2/exoNotationV2.sol\":2664:2681  students[i].class */\n      0x01\n      add\n        /* \"contracts/exoCours/exoNotationV2/exoNotationV2.sol\":2643:2682  stringsEquals(_class,students[i].class) */\n      dup1\n      sload\n      tag_149\n      swap1\n      tag_150\n      jump\t// in\n    tag_149:\n      dup1\n      0x1f\n      add\n      0x20\n      dup1\n      swap2\n      div\n      mul\n      0x20\n      add\n      mload(0x40)\n      swap1\n      dup2\n      add\n      0x40\n      mstore\n      dup1\n      swap3\n      swap2\n      swap1\n      dup2\n      dup2\n      mstore\n      0x20\n      add\n      dup3\n      dup1\n      sload\n      tag_151\n      swap1\n      tag_150\n      jump\t// in\n    tag_151:\n      dup1\n      iszero\n      tag_152\n      jumpi\n      dup1\n      0x1f\n      lt\n      tag_153\n      jumpi\n      0x0100\n      dup1\n      dup4\n      sload\n      div\n      mul\n      dup4\n      mstore\n      swap2\n      0x20\n      add\n      swap2\n      jump(tag_152)\n    tag_153:\n      dup3\n      add\n      swap2\n      swap1\n      0x00\n      mstore\n      keccak256(0x00, 0x20)\n      swap1\n    tag_154:\n      dup2\n      sload\n      dup2\n      mstore\n      swap1\n      0x01\n      add\n      swap1\n      0x20\n      add\n      dup1\n      dup4\n      gt\n      tag_154\n      jumpi\n      dup3\n      swap1\n      sub\n      0x1f\n      and\n      dup3\n      add\n      swap2\n    tag_152:\n      pop\n      pop\n      pop\n      pop\n      pop\n        /* \"contracts/exoCours/exoNotationV2/exoNotationV2.sol\":2643:2656  stringsEquals */\n      tag_102\n        /* \"contracts/exoCours/exoNotationV2/exoNotationV2.sol\":2643:2682  stringsEquals(_class,students[i].class) */\n      jump\t// in\n    tag_145:\n        /* \"contracts/exoCours/exoNotationV2/exoNotationV2.sol\":2639:3199  if (stringsEquals(_class,students[i].class)){... */\n      iszero\n      tag_155\n      jumpi\n        /* \"contracts/exoCours/exoNotationV2/exoNotationV2.sol\":2706:2738  stringsEquals(_course,\"biology\") */\n      tag_156\n        /* \"contracts/exoCours/exoNotationV2/exoNotationV2.sol\":2720:2727  _course */\n      dup6\n        /* \"contracts/exoCours/exoNotationV2/exoNotationV2.sol\":2706:2738  stringsEquals(_course,\"biology\") */\n      mload(0x40)\n      dup1\n      0x40\n      add\n      0x40\n      mstore\n      dup1\n      0x07\n      dup2\n      mstore\n      0x20\n      add\n      0x62696f6c6f677900000000000000000000000000000000000000000000000000\n      dup2\n      mstore\n      pop\n        /* \"contracts/exoCours/exoNotationV2/exoNotationV2.sol\":2706:2719  stringsEquals */\n      tag_102\n        /* \"contracts/exoCours/exoNotationV2/exoNotationV2.sol\":2706:2738  stringsEquals(_course,\"biology\") */\n      jump\t// in\n    tag_156:\n        /* \"contracts/exoCours/exoNotationV2/exoNotationV2.sol\":2702:2854  if (stringsEquals(_course,\"biology\")){... */\n      iszero\n      tag_157\n      jumpi\n        /* \"contracts/exoCours/exoNotationV2/exoNotationV2.sol\":2773:2781  students */\n      0x01\n        /* \"contracts/exoCours/exoNotationV2/exoNotationV2.sol\":2782:2783  i */\n      dup2\n        /* \"contracts/exoCours/exoNotationV2/exoNotationV2.sol\":2773:2784  students[i] */\n      dup2\n      sload\n      dup2\n      lt\n      tag_158\n      jumpi\n      tag_159\n      tag_63\n      jump\t// in\n    tag_159:\n    tag_158:\n      swap1\n      0x00\n      mstore\n      keccak256(0x00, 0x20)\n      swap1\n      0x06\n      mul\n      add\n        /* \"contracts/exoCours/exoNotationV2/exoNotationV2.sol\":2773:2796  students[i].noteBiology */\n      0x03\n      add\n      sload\n        /* \"contracts/exoCours/exoNotationV2/exoNotationV2.sol\":2762:2796  totalNote+=students[i].noteBiology */\n      dup4\n      tag_161\n      swap2\n      swap1\n      tag_72\n      jump\t// in\n    tag_161:\n      swap3\n      pop\n        /* \"contracts/exoCours/exoNotationV2/exoNotationV2.sol\":2833:2834  1 */\n      0x01\n        /* \"contracts/exoCours/exoNotationV2/exoNotationV2.sol\":2819:2834  totalStudent+=1 */\n      dup3\n      tag_162\n      swap2\n      swap1\n      tag_72\n      jump\t// in\n    tag_162:\n      swap2\n      pop\n        /* \"contracts/exoCours/exoNotationV2/exoNotationV2.sol\":2702:2854  if (stringsEquals(_course,\"biology\")){... */\n    tag_157:\n        /* \"contracts/exoCours/exoNotationV2/exoNotationV2.sol\":2876:2906  stringsEquals(_course,\"maths\") */\n      tag_163\n        /* \"contracts/exoCours/exoNotationV2/exoNotationV2.sol\":2890:2897  _course */\n      dup6\n        /* \"contracts/exoCours/exoNotationV2/exoNotationV2.sol\":2876:2906  stringsEquals(_course,\"maths\") */\n      mload(0x40)\n      dup1\n      0x40\n      add\n      0x40\n      mstore\n      dup1\n      0x05\n      dup2\n      mstore\n      0x20\n      add\n      0x6d61746873000000000000000000000000000000000000000000000000000000\n      dup2\n      mstore\n      pop\n        /* \"contracts/exoCours/exoNotationV2/exoNotationV2.sol\":2876:2889  stringsEquals */\n      tag_102\n        /* \"contracts/exoCours/exoNotationV2/exoNotationV2.sol\":2876:2906  stringsEquals(_course,\"maths\") */\n      jump\t// in\n    tag_163:\n        /* \"contracts/exoCours/exoNotationV2/exoNotationV2.sol\":2872:3020  if (stringsEquals(_course,\"maths\")){... */\n      iszero\n      tag_164\n      jumpi\n        /* \"contracts/exoCours/exoNotationV2/exoNotationV2.sol\":2941:2949  students */\n      0x01\n        /* \"contracts/exoCours/exoNotationV2/exoNotationV2.sol\":2950:2951  i */\n      dup2\n        /* \"contracts/exoCours/exoNotationV2/exoNotationV2.sol\":2941:2952  students[i] */\n      dup2\n      sload\n      dup2\n      lt\n      tag_165\n      jumpi\n      tag_166\n      tag_63\n      jump\t// in\n    tag_166:\n    tag_165:\n      swap1\n      0x00\n      mstore\n      keccak256(0x00, 0x20)\n      swap1\n      0x06\n      mul\n      add\n        /* \"contracts/exoCours/exoNotationV2/exoNotationV2.sol\":2941:2962  students[i].noteMaths */\n      0x04\n      add\n      sload\n        /* \"contracts/exoCours/exoNotationV2/exoNotationV2.sol\":2930:2962  totalNote+=students[i].noteMaths */\n      dup4\n      tag_168\n      swap2\n      swap1\n      tag_72\n      jump\t// in\n    tag_168:\n      swap3\n      pop\n        /* \"contracts/exoCours/exoNotationV2/exoNotationV2.sol\":2999:3000  1 */\n      0x01\n        /* \"contracts/exoCours/exoNotationV2/exoNotationV2.sol\":2985:3000  totalStudent+=1 */\n      dup3\n      tag_169\n      swap2\n      swap1\n      tag_72\n      jump\t// in\n    tag_169:\n      swap2\n      pop\n        /* \"contracts/exoCours/exoNotationV2/exoNotationV2.sol\":2872:3020  if (stringsEquals(_course,\"maths\")){... */\n    tag_164:\n        /* \"contracts/exoCours/exoNotationV2/exoNotationV2.sol\":3042:3073  stringsEquals(_course,\"french\") */\n      tag_170\n        /* \"contracts/exoCours/exoNotationV2/exoNotationV2.sol\":3056:3063  _course */\n      dup6\n        /* \"contracts/exoCours/exoNotationV2/exoNotationV2.sol\":3042:3073  stringsEquals(_course,\"french\") */\n      mload(0x40)\n      dup1\n      0x40\n      add\n      0x40\n      mstore\n      dup1\n      0x06\n      dup2\n      mstore\n      0x20\n      add\n      0x6672656e63680000000000000000000000000000000000000000000000000000\n      dup2\n      mstore\n      pop\n        /* \"contracts/exoCours/exoNotationV2/exoNotationV2.sol\":3042:3055  stringsEquals */\n      tag_102\n        /* \"contracts/exoCours/exoNotationV2/exoNotationV2.sol\":3042:3073  stringsEquals(_course,\"french\") */\n      jump\t// in\n    tag_170:\n        /* \"contracts/exoCours/exoNotationV2/exoNotationV2.sol\":3038:3184  if (stringsEquals(_course,\"french\")){... */\n      iszero\n      tag_171\n      jumpi\n        /* \"contracts/exoCours/exoNotationV2/exoNotationV2.sol\":3108:3116  students */\n      0x01\n        /* \"contracts/exoCours/exoNotationV2/exoNotationV2.sol\":3117:3118  i */\n      dup2\n        /* \"contracts/exoCours/exoNotationV2/exoNotationV2.sol\":3108:3119  students[i] */\n      dup2\n      sload\n      dup2\n      lt\n      tag_172\n      jumpi\n      tag_173\n      tag_63\n      jump\t// in\n    tag_173:\n    tag_172:\n      swap1\n      0x00\n      mstore\n      keccak256(0x00, 0x20)\n      swap1\n      0x06\n      mul\n      add\n        /* \"contracts/exoCours/exoNotationV2/exoNotationV2.sol\":3108:3126  students[i].noteFr */\n      0x05\n      add\n      sload\n        /* \"contracts/exoCours/exoNotationV2/exoNotationV2.sol\":3097:3126  totalNote+=students[i].noteFr */\n      dup4\n      tag_175\n      swap2\n      swap1\n      tag_72\n      jump\t// in\n    tag_175:\n      swap3\n      pop\n        /* \"contracts/exoCours/exoNotationV2/exoNotationV2.sol\":3163:3164  1 */\n      0x01\n        /* \"contracts/exoCours/exoNotationV2/exoNotationV2.sol\":3149:3164  totalStudent+=1 */\n      dup3\n      tag_176\n      swap2\n      swap1\n      tag_72\n      jump\t// in\n    tag_176:\n      swap2\n      pop\n        /* \"contracts/exoCours/exoNotationV2/exoNotationV2.sol\":3038:3184  if (stringsEquals(_course,\"french\")){... */\n    tag_171:\n        /* \"contracts/exoCours/exoNotationV2/exoNotationV2.sol\":2639:3199  if (stringsEquals(_class,students[i].class)){... */\n    tag_155:\n        /* \"contracts/exoCours/exoNotationV2/exoNotationV2.sol\":2620:2623  i++ */\n      dup1\n      dup1\n      tag_177\n      swap1\n      tag_178\n      jump\t// in\n    tag_177:\n      swap2\n      pop\n      pop\n        /* \"contracts/exoCours/exoNotationV2/exoNotationV2.sol\":2587:3210  for (uint i=0; i<students.length;i++){... */\n      jump(tag_142)\n    tag_143:\n      pop\n        /* \"contracts/exoCours/exoNotationV2/exoNotationV2.sol\":3220:3232  uint moyenne */\n      0x00\n        /* \"contracts/exoCours/exoNotationV2/exoNotationV2.sol\":3247:3259  totalStudent */\n      dup2\n        /* \"contracts/exoCours/exoNotationV2/exoNotationV2.sol\":3243:3246  100 */\n      0x64\n        /* \"contracts/exoCours/exoNotationV2/exoNotationV2.sol\":3233:3242  totalNote */\n      dup5\n        /* \"contracts/exoCours/exoNotationV2/exoNotationV2.sol\":3233:3246  totalNote*100 */\n      tag_179\n      swap2\n      swap1\n      tag_180\n      jump\t// in\n    tag_179:\n        /* \"contracts/exoCours/exoNotationV2/exoNotationV2.sol\":3233:3259  totalNote*100/totalStudent */\n      tag_181\n      swap2\n      swap1\n      tag_75\n      jump\t// in\n    tag_181:\n        /* \"contracts/exoCours/exoNotationV2/exoNotationV2.sol\":3220:3259  uint moyenne=totalNote*100/totalStudent */\n      swap1\n      pop\n        /* \"contracts/exoCours/exoNotationV2/exoNotationV2.sol\":3277:3284  moyenne */\n      dup1\n        /* \"contracts/exoCours/exoNotationV2/exoNotationV2.sol\":3270:3284  return moyenne */\n      swap4\n      pop\n      pop\n      pop\n      pop\n        /* \"contracts/exoCours/exoNotationV2/exoNotationV2.sol\":2313:3292  function calculateMoyennePerCourse(string memory _class, string memory _course) public view returns (uint){... */\n      swap3\n      swap2\n      pop\n      pop\n      jump\t// out\n        /* \"contracts/exoCours/exoNotationV2/exoNotationV2.sol\":3766:4221  function calculateMoyenneGenerale(string memory _class) public view onlyOwner returns (uint) {... */\n    tag_49:\n        /* \"contracts/exoCours/exoNotationV2/exoNotationV2.sol\":3853:3857  uint */\n      0x00\n        /* \"@openzeppelin/contracts/access/Ownable.sol\":1094:1107  _checkOwner() */\n      tag_183\n        /* \"@openzeppelin/contracts/access/Ownable.sol\":1094:1105  _checkOwner */\n      tag_57\n        /* \"@openzeppelin/contracts/access/Ownable.sol\":1094:1107  _checkOwner() */\n      jump\t// in\n    tag_183:\n        /* \"contracts/exoCours/exoNotationV2/exoNotationV2.sol\":3870:3884  uint totalNote */\n      0x00\n        /* \"contracts/exoCours/exoNotationV2/exoNotationV2.sol\":3895:3912  uint totalStudent */\n      dup1\n        /* \"contracts/exoCours/exoNotationV2/exoNotationV2.sol\":3928:3934  uint i */\n      0x00\n        /* \"contracts/exoCours/exoNotationV2/exoNotationV2.sol\":3923:4174  for (uint i=0; i<students.length;i++){... */\n    tag_185:\n        /* \"contracts/exoCours/exoNotationV2/exoNotationV2.sol\":3940:3948  students */\n      0x01\n        /* \"contracts/exoCours/exoNotationV2/exoNotationV2.sol\":3940:3955  students.length */\n      dup1\n      sload\n      swap1\n      pop\n        /* \"contracts/exoCours/exoNotationV2/exoNotationV2.sol\":3938:3939  i */\n      dup2\n        /* \"contracts/exoCours/exoNotationV2/exoNotationV2.sol\":3938:3955  i<students.length */\n      lt\n        /* \"contracts/exoCours/exoNotationV2/exoNotationV2.sol\":3923:4174  for (uint i=0; i<students.length;i++){... */\n      iszero\n      tag_186\n      jumpi\n        /* \"contracts/exoCours/exoNotationV2/exoNotationV2.sol\":3979:4018  stringsEquals(_class,students[i].class) */\n      tag_188\n        /* \"contracts/exoCours/exoNotationV2/exoNotationV2.sol\":3993:3999  _class */\n      dup6\n        /* \"contracts/exoCours/exoNotationV2/exoNotationV2.sol\":4000:4008  students */\n      0x01\n        /* \"contracts/exoCours/exoNotationV2/exoNotationV2.sol\":4009:4010  i */\n      dup4\n        /* \"contracts/exoCours/exoNotationV2/exoNotationV2.sol\":4000:4011  students[i] */\n      dup2\n      sload\n      dup2\n      lt\n      tag_189\n      jumpi\n      tag_190\n      tag_63\n      jump\t// in\n    tag_190:\n    tag_189:\n      swap1\n      0x00\n      mstore\n      keccak256(0x00, 0x20)\n      swap1\n      0x06\n      mul\n      add\n        /* \"contracts/exoCours/exoNotationV2/exoNotationV2.sol\":4000:4017  students[i].class */\n      0x01\n      add\n        /* \"contracts/exoCours/exoNotationV2/exoNotationV2.sol\":3979:4018  stringsEquals(_class,students[i].class) */\n      dup1\n      sload\n      tag_192\n      swap1\n      tag_150\n      jump\t// in\n    tag_192:\n      dup1\n      0x1f\n      add\n      0x20\n      dup1\n      swap2\n      div\n      mul\n      0x20\n      add\n      mload(0x40)\n      swap1\n      dup2\n      add\n      0x40\n      mstore\n      dup1\n      swap3\n      swap2\n      swap1\n      dup2\n      dup2\n      mstore\n      0x20\n      add\n      dup3\n      dup1\n      sload\n      tag_193\n      swap1\n      tag_150\n      jump\t// in\n    tag_193:\n      dup1\n      iszero\n      tag_194\n      jumpi\n      dup1\n      0x1f\n      lt\n      tag_195\n      jumpi\n      0x0100\n      dup1\n      dup4\n      sload\n      div\n      mul\n      dup4\n      mstore\n      swap2\n      0x20\n      add\n      swap2\n      jump(tag_194)\n    tag_195:\n      dup3\n      add\n      swap2\n      swap1\n      0x00\n      mstore\n      keccak256(0x00, 0x20)\n      swap1\n    tag_196:\n      dup2\n      sload\n      dup2\n      mstore\n      swap1\n      0x01\n      add\n      swap1\n      0x20\n      add\n      dup1\n      dup4\n      gt\n      tag_196\n      jumpi\n      dup3\n      swap1\n      sub\n      0x1f\n      and\n      dup3\n      add\n      swap2\n    tag_194:\n      pop\n      pop\n      pop\n      pop\n      pop\n        /* \"contracts/exoCours/exoNotationV2/exoNotationV2.sol\":3979:3992  stringsEquals */\n      tag_102\n        /* \"contracts/exoCours/exoNotationV2/exoNotationV2.sol\":3979:4018  stringsEquals(_class,students[i].class) */\n      jump\t// in\n    tag_188:\n        /* \"contracts/exoCours/exoNotationV2/exoNotationV2.sol\":3975:4163  if (stringsEquals(_class,students[i].class)){... */\n      iszero\n      tag_197\n      jumpi\n        /* \"contracts/exoCours/exoNotationV2/exoNotationV2.sol\":4095:4103  students */\n      0x01\n        /* \"contracts/exoCours/exoNotationV2/exoNotationV2.sol\":4104:4105  i */\n      dup2\n        /* \"contracts/exoCours/exoNotationV2/exoNotationV2.sol\":4095:4106  students[i] */\n      dup2\n      sload\n      dup2\n      lt\n      tag_198\n      jumpi\n      tag_199\n      tag_63\n      jump\t// in\n    tag_199:\n    tag_198:\n      swap1\n      0x00\n      mstore\n      keccak256(0x00, 0x20)\n      swap1\n      0x06\n      mul\n      add\n        /* \"contracts/exoCours/exoNotationV2/exoNotationV2.sol\":4095:4113  students[i].noteFr */\n      0x05\n      add\n      sload\n        /* \"contracts/exoCours/exoNotationV2/exoNotationV2.sol\":4073:4081  students */\n      0x01\n        /* \"contracts/exoCours/exoNotationV2/exoNotationV2.sol\":4082:4083  i */\n      dup3\n        /* \"contracts/exoCours/exoNotationV2/exoNotationV2.sol\":4073:4084  students[i] */\n      dup2\n      sload\n      dup2\n      lt\n      tag_201\n      jumpi\n      tag_202\n      tag_63\n      jump\t// in\n    tag_202:\n    tag_201:\n      swap1\n      0x00\n      mstore\n      keccak256(0x00, 0x20)\n      swap1\n      0x06\n      mul\n      add\n        /* \"contracts/exoCours/exoNotationV2/exoNotationV2.sol\":4073:4094  students[i].noteMaths */\n      0x04\n      add\n      sload\n        /* \"contracts/exoCours/exoNotationV2/exoNotationV2.sol\":4049:4057  students */\n      0x01\n        /* \"contracts/exoCours/exoNotationV2/exoNotationV2.sol\":4058:4059  i */\n      dup4\n        /* \"contracts/exoCours/exoNotationV2/exoNotationV2.sol\":4049:4060  students[i] */\n      dup2\n      sload\n      dup2\n      lt\n      tag_204\n      jumpi\n      tag_205\n      tag_63\n      jump\t// in\n    tag_205:\n    tag_204:\n      swap1\n      0x00\n      mstore\n      keccak256(0x00, 0x20)\n      swap1\n      0x06\n      mul\n      add\n        /* \"contracts/exoCours/exoNotationV2/exoNotationV2.sol\":4049:4072  students[i].noteBiology */\n      0x03\n      add\n      sload\n        /* \"contracts/exoCours/exoNotationV2/exoNotationV2.sol\":4049:4094  students[i].noteBiology+students[i].noteMaths */\n      tag_207\n      swap2\n      swap1\n      tag_72\n      jump\t// in\n    tag_207:\n        /* \"contracts/exoCours/exoNotationV2/exoNotationV2.sol\":4049:4113  students[i].noteBiology+students[i].noteMaths+students[i].noteFr */\n      tag_208\n      swap2\n      swap1\n      tag_72\n      jump\t// in\n    tag_208:\n        /* \"contracts/exoCours/exoNotationV2/exoNotationV2.sol\":4038:4113  totalNote+=students[i].noteBiology+students[i].noteMaths+students[i].noteFr */\n      dup4\n      tag_209\n      swap2\n      swap1\n      tag_72\n      jump\t// in\n    tag_209:\n      swap3\n      pop\n        /* \"contracts/exoCours/exoNotationV2/exoNotationV2.sol\":4146:4147  3 */\n      0x03\n        /* \"contracts/exoCours/exoNotationV2/exoNotationV2.sol\":4132:4147  totalStudent+=3 */\n      dup3\n      tag_210\n      swap2\n      swap1\n      tag_72\n      jump\t// in\n    tag_210:\n      swap2\n      pop\n        /* \"contracts/exoCours/exoNotationV2/exoNotationV2.sol\":3975:4163  if (stringsEquals(_class,students[i].class)){... */\n    tag_197:\n        /* \"contracts/exoCours/exoNotationV2/exoNotationV2.sol\":3956:3959  i++ */\n      dup1\n      dup1\n      tag_211\n      swap1\n      tag_178\n      jump\t// in\n    tag_211:\n      swap2\n      pop\n      pop\n        /* \"contracts/exoCours/exoNotationV2/exoNotationV2.sol\":3923:4174  for (uint i=0; i<students.length;i++){... */\n      jump(tag_185)\n    tag_186:\n      pop\n        /* \"contracts/exoCours/exoNotationV2/exoNotationV2.sol\":4201:4213  totalStudent */\n      dup1\n        /* \"contracts/exoCours/exoNotationV2/exoNotationV2.sol\":4191:4200  totalNote */\n      dup3\n        /* \"contracts/exoCours/exoNotationV2/exoNotationV2.sol\":4191:4213  totalNote/totalStudent */\n      tag_212\n      swap2\n      swap1\n      tag_75\n      jump\t// in\n    tag_212:\n        /* \"contracts/exoCours/exoNotationV2/exoNotationV2.sol\":4184:4213  return totalNote/totalStudent */\n      swap3\n      pop\n      pop\n      pop\n        /* \"contracts/exoCours/exoNotationV2/exoNotationV2.sol\":3766:4221  function calculateMoyenneGenerale(string memory _class) public view onlyOwner returns (uint) {... */\n      swap2\n      swap1\n      pop\n      jump\t// out\n        /* \"@openzeppelin/contracts/access/Ownable.sol\":2081:2279  function transferOwnership(address newOwner) public virtual onlyOwner {... */\n    tag_54:\n        /* \"@openzeppelin/contracts/access/Ownable.sol\":1094:1107  _checkOwner() */\n      tag_214\n        /* \"@openzeppelin/contracts/access/Ownable.sol\":1094:1105  _checkOwner */\n      tag_57\n        /* \"@openzeppelin/contracts/access/Ownable.sol\":1094:1107  _checkOwner() */\n      jump\t// in\n    tag_214:\n        /* \"@openzeppelin/contracts/access/Ownable.sol\":2189:2190  0 */\n      0x00\n        /* \"@openzeppelin/contracts/access/Ownable.sol\":2169:2191  newOwner != address(0) */\n      0xffffffffffffffffffffffffffffffffffffffff\n      and\n        /* \"@openzeppelin/contracts/access/Ownable.sol\":2169:2177  newOwner */\n      dup2\n        /* \"@openzeppelin/contracts/access/Ownable.sol\":2169:2191  newOwner != address(0) */\n      0xffffffffffffffffffffffffffffffffffffffff\n      and\n      sub\n        /* \"@openzeppelin/contracts/access/Ownable.sol\":2161:2234  require(newOwner != address(0), \"Ownable: new owner is the zero address\") */\n      tag_216\n      jumpi\n      mload(0x40)\n      0x08c379a000000000000000000000000000000000000000000000000000000000\n      dup2\n      mstore\n      0x04\n      add\n      tag_217\n      swap1\n      tag_218\n      jump\t// in\n    tag_217:\n      mload(0x40)\n      dup1\n      swap2\n      sub\n      swap1\n      revert\n    tag_216:\n        /* \"@openzeppelin/contracts/access/Ownable.sol\":2244:2272  _transferOwnership(newOwner) */\n      tag_219\n        /* \"@openzeppelin/contracts/access/Ownable.sol\":2263:2271  newOwner */\n      dup2\n        /* \"@openzeppelin/contracts/access/Ownable.sol\":2244:2262  _transferOwnership */\n      tag_134\n        /* \"@openzeppelin/contracts/access/Ownable.sol\":2244:2272  _transferOwnership(newOwner) */\n      jump\t// in\n    tag_219:\n        /* \"@openzeppelin/contracts/access/Ownable.sol\":2081:2279  function transferOwnership(address newOwner) public virtual onlyOwner {... */\n      pop\n      jump\t// out\n        /* \"@openzeppelin/contracts/access/Ownable.sol\":1359:1489  function _checkOwner() internal view virtual {... */\n    tag_57:\n        /* \"@openzeppelin/contracts/access/Ownable.sol\":1433:1445  _msgSender() */\n      tag_221\n        /* \"@openzeppelin/contracts/access/Ownable.sol\":1433:1443  _msgSender */\n      tag_222\n        /* \"@openzeppelin/contracts/access/Ownable.sol\":1433:1445  _msgSender() */\n      jump\t// in\n    tag_221:\n        /* \"@openzeppelin/contracts/access/Ownable.sol\":1422:1445  owner() == _msgSender() */\n      0xffffffffffffffffffffffffffffffffffffffff\n      and\n        /* \"@openzeppelin/contracts/access/Ownable.sol\":1422:1429  owner() */\n      tag_223\n        /* \"@openzeppelin/contracts/access/Ownable.sol\":1422:1427  owner */\n      tag_39\n        /* \"@openzeppelin/contracts/access/Ownable.sol\":1422:1429  owner() */\n      jump\t// in\n    tag_223:\n        /* \"@openzeppelin/contracts/access/Ownable.sol\":1422:1445  owner() == _msgSender() */\n      0xffffffffffffffffffffffffffffffffffffffff\n      and\n      eq\n        /* \"@openzeppelin/contracts/access/Ownable.sol\":1414:1482  require(owner() == _msgSender(), \"Ownable: caller is not the owner\") */\n      tag_224\n      jumpi\n      mload(0x40)\n      0x08c379a000000000000000000000000000000000000000000000000000000000\n      dup2\n      mstore\n      0x04\n      add\n      tag_225\n      swap1\n      tag_226\n      jump\t// in\n    tag_225:\n      mload(0x40)\n      dup1\n      swap2\n      sub\n      swap1\n      revert\n    tag_224:\n        /* \"@openzeppelin/contracts/access/Ownable.sol\":1359:1489  function _checkOwner() internal view virtual {... */\n      jump\t// out\n        /* \"contracts/exoCours/exoNotationV2/exoNotationV2.sol\":1046:1349  function getStudentFromName(string memory _name) private view returns (uint){... */\n    tag_60:\n        /* \"contracts/exoCours/exoNotationV2/exoNotationV2.sol\":1117:1121  uint */\n      0x00\n        /* \"contracts/exoCours/exoNotationV2/exoNotationV2.sol\":1137:1143  uint i */\n      dup1\n        /* \"contracts/exoCours/exoNotationV2/exoNotationV2.sol\":1144:1145  0 */\n      0x00\n        /* \"contracts/exoCours/exoNotationV2/exoNotationV2.sol\":1137:1145  uint i=0 */\n      swap1\n      pop\n        /* \"contracts/exoCours/exoNotationV2/exoNotationV2.sol\":1133:1322  for(uint i=0;i<students.length;i++){... */\n    tag_228:\n        /* \"contracts/exoCours/exoNotationV2/exoNotationV2.sol\":1148:1156  students */\n      0x01\n        /* \"contracts/exoCours/exoNotationV2/exoNotationV2.sol\":1148:1163  students.length */\n      dup1\n      sload\n      swap1\n      pop\n        /* \"contracts/exoCours/exoNotationV2/exoNotationV2.sol\":1146:1147  i */\n      dup2\n        /* \"contracts/exoCours/exoNotationV2/exoNotationV2.sol\":1146:1163  i<students.length */\n      lt\n        /* \"contracts/exoCours/exoNotationV2/exoNotationV2.sol\":1133:1322  for(uint i=0;i<students.length;i++){... */\n      iszero\n      tag_229\n      jumpi\n        /* \"contracts/exoCours/exoNotationV2/exoNotationV2.sol\":1260:1265  _name */\n      dup3\n        /* \"contracts/exoCours/exoNotationV2/exoNotationV2.sol\":1243:1266  abi.encodePacked(_name) */\n      add(0x20, mload(0x40))\n      tag_231\n      swap2\n      swap1\n      tag_80\n      jump\t// in\n    tag_231:\n      mload(0x40)\n      0x20\n      dup2\n      dup4\n      sub\n      sub\n      dup2\n      mstore\n      swap1\n      0x40\n      mstore\n        /* \"contracts/exoCours/exoNotationV2/exoNotationV2.sol\":1233:1267  keccak256(abi.encodePacked(_name)) */\n      dup1\n      mload\n      swap1\n      0x20\n      add\n      keccak256\n        /* \"contracts/exoCours/exoNotationV2/exoNotationV2.sol\":1213:1221  students */\n      0x01\n        /* \"contracts/exoCours/exoNotationV2/exoNotationV2.sol\":1222:1223  i */\n      dup3\n        /* \"contracts/exoCours/exoNotationV2/exoNotationV2.sol\":1213:1224  students[i] */\n      dup2\n      sload\n      dup2\n      lt\n      tag_232\n      jumpi\n      tag_233\n      tag_63\n      jump\t// in\n    tag_233:\n    tag_232:\n      swap1\n      0x00\n      mstore\n      keccak256(0x00, 0x20)\n      swap1\n      0x06\n      mul\n      add\n        /* \"contracts/exoCours/exoNotationV2/exoNotationV2.sol\":1213:1229  students[i].name */\n      0x00\n      add\n        /* \"contracts/exoCours/exoNotationV2/exoNotationV2.sol\":1196:1230  abi.encodePacked(students[i].name) */\n      add(0x20, mload(0x40))\n      tag_235\n      swap2\n      swap1\n      tag_96\n      jump\t// in\n    tag_235:\n      mload(0x40)\n      0x20\n      dup2\n      dup4\n      sub\n      sub\n      dup2\n      mstore\n      swap1\n      0x40\n      mstore\n        /* \"contracts/exoCours/exoNotationV2/exoNotationV2.sol\":1186:1231  keccak256(abi.encodePacked(students[i].name)) */\n      dup1\n      mload\n      swap1\n      0x20\n      add\n      keccak256\n        /* \"contracts/exoCours/exoNotationV2/exoNotationV2.sol\":1186:1267  keccak256(abi.encodePacked(students[i].name))==keccak256(abi.encodePacked(_name)) */\n      sub\n        /* \"contracts/exoCours/exoNotationV2/exoNotationV2.sol\":1183:1311  if(keccak256(abi.encodePacked(students[i].name))==keccak256(abi.encodePacked(_name))){... */\n      tag_236\n      jumpi\n        /* \"contracts/exoCours/exoNotationV2/exoNotationV2.sol\":1294:1295  i */\n      dup1\n        /* \"contracts/exoCours/exoNotationV2/exoNotationV2.sol\":1287:1295  return i */\n      swap2\n      pop\n      pop\n      jump(tag_227)\n        /* \"contracts/exoCours/exoNotationV2/exoNotationV2.sol\":1183:1311  if(keccak256(abi.encodePacked(students[i].name))==keccak256(abi.encodePacked(_name))){... */\n    tag_236:\n        /* \"contracts/exoCours/exoNotationV2/exoNotationV2.sol\":1164:1167  i++ */\n      dup1\n      dup1\n      tag_237\n      swap1\n      tag_178\n      jump\t// in\n    tag_237:\n      swap2\n      pop\n      pop\n        /* \"contracts/exoCours/exoNotationV2/exoNotationV2.sol\":1133:1322  for(uint i=0;i<students.length;i++){... */\n      jump(tag_228)\n    tag_229:\n      pop\n        /* \"contracts/exoCours/exoNotationV2/exoNotationV2.sol\":1340:1341  0 */\n      0x00\n        /* \"contracts/exoCours/exoNotationV2/exoNotationV2.sol\":1333:1341  return 0 */\n      swap1\n      pop\n        /* \"contracts/exoCours/exoNotationV2/exoNotationV2.sol\":1046:1349  function getStudentFromName(string memory _name) private view returns (uint){... */\n    tag_227:\n      swap2\n      swap1\n      pop\n      jump\t// out\n        /* \"contracts/exoCours/exoNotationV2/exoNotationV2.sol\":1357:1640  function stringsEquals(string memory _string1, string memory _string2) pure private returns (bool){... */\n    tag_102:\n        /* \"contracts/exoCours/exoNotationV2/exoNotationV2.sol\":1450:1454  bool */\n      0x00\n        /* \"contracts/exoCours/exoNotationV2/exoNotationV2.sol\":1466:1475  bool test */\n      dup1\n        /* \"contracts/exoCours/exoNotationV2/exoNotationV2.sol\":1562:1570  _string2 */\n      dup3\n        /* \"contracts/exoCours/exoNotationV2/exoNotationV2.sol\":1545:1571  abi.encodePacked(_string2) */\n      add(0x20, mload(0x40))\n      tag_239\n      swap2\n      swap1\n      tag_80\n      jump\t// in\n    tag_239:\n      mload(0x40)\n      0x20\n      dup2\n      dup4\n      sub\n      sub\n      dup2\n      mstore\n      swap1\n      0x40\n      mstore\n        /* \"contracts/exoCours/exoNotationV2/exoNotationV2.sol\":1534:1573  keccak256( abi.encodePacked(_string2) ) */\n      dup1\n      mload\n      swap1\n      0x20\n      add\n      keccak256\n        /* \"contracts/exoCours/exoNotationV2/exoNotationV2.sol\":1519:1527  _string1 */\n      dup5\n        /* \"contracts/exoCours/exoNotationV2/exoNotationV2.sol\":1502:1528  abi.encodePacked(_string1) */\n      add(0x20, mload(0x40))\n      tag_240\n      swap2\n      swap1\n      tag_80\n      jump\t// in\n    tag_240:\n      mload(0x40)\n      0x20\n      dup2\n      dup4\n      sub\n      sub\n      dup2\n      mstore\n      swap1\n      0x40\n      mstore\n        /* \"contracts/exoCours/exoNotationV2/exoNotationV2.sol\":1491:1530  keccak256( abi.encodePacked(_string1) ) */\n      dup1\n      mload\n      swap1\n      0x20\n      add\n      keccak256\n        /* \"contracts/exoCours/exoNotationV2/exoNotationV2.sol\":1491:1573  keccak256( abi.encodePacked(_string1) ) == keccak256( abi.encodePacked(_string2) ) */\n      sub\n        /* \"contracts/exoCours/exoNotationV2/exoNotationV2.sol\":1486:1611  if ( keccak256( abi.encodePacked(_string1) ) == keccak256( abi.encodePacked(_string2) ) ){... */\n      tag_241\n      jumpi\n        /* \"contracts/exoCours/exoNotationV2/exoNotationV2.sol\":1595:1599  true */\n      0x01\n        /* \"contracts/exoCours/exoNotationV2/exoNotationV2.sol\":1590:1599  test=true */\n      swap1\n      pop\n        /* \"contracts/exoCours/exoNotationV2/exoNotationV2.sol\":1486:1611  if ( keccak256( abi.encodePacked(_string1) ) == keccak256( abi.encodePacked(_string2) ) ){... */\n    tag_241:\n        /* \"contracts/exoCours/exoNotationV2/exoNotationV2.sol\":1628:1632  test */\n      dup1\n        /* \"contracts/exoCours/exoNotationV2/exoNotationV2.sol\":1621:1632  return test */\n      swap2\n      pop\n      pop\n        /* \"contracts/exoCours/exoNotationV2/exoNotationV2.sol\":1357:1640  function stringsEquals(string memory _string1, string memory _string2) pure private returns (bool){... */\n      swap3\n      swap2\n      pop\n      pop\n      jump\t// out\n        /* \"@openzeppelin/contracts/access/Ownable.sol\":2433:2620  function _transferOwnership(address newOwner) internal virtual {... */\n    tag_134:\n        /* \"@openzeppelin/contracts/access/Ownable.sol\":2506:2522  address oldOwner */\n      0x00\n        /* \"@openzeppelin/contracts/access/Ownable.sol\":2525:2531  _owner */\n      dup1\n      0x00\n      swap1\n      sload\n      swap1\n      0x0100\n      exp\n      swap1\n      div\n      0xffffffffffffffffffffffffffffffffffffffff\n      and\n        /* \"@openzeppelin/contracts/access/Ownable.sol\":2506:2531  address oldOwner = _owner */\n      swap1\n      pop\n        /* \"@openzeppelin/contracts/access/Ownable.sol\":2550:2558  newOwner */\n      dup2\n        /* \"@openzeppelin/contracts/access/Ownable.sol\":2541:2547  _owner */\n      0x00\n      dup1\n        /* \"@openzeppelin/contracts/access/Ownable.sol\":2541:2558  _owner = newOwner */\n      0x0100\n      exp\n      dup2\n      sload\n      dup2\n      0xffffffffffffffffffffffffffffffffffffffff\n      mul\n      not\n      and\n      swap1\n      dup4\n      0xffffffffffffffffffffffffffffffffffffffff\n      and\n      mul\n      or\n      swap1\n      sstore\n      pop\n        /* \"@openzeppelin/contracts/access/Ownable.sol\":2604:2612  newOwner */\n      dup2\n        /* \"@openzeppelin/contracts/access/Ownable.sol\":2573:2613  OwnershipTransferred(oldOwner, newOwner) */\n      0xffffffffffffffffffffffffffffffffffffffff\n      and\n        /* \"@openzeppelin/contracts/access/Ownable.sol\":2594:2602  oldOwner */\n      dup2\n        /* \"@openzeppelin/contracts/access/Ownable.sol\":2573:2613  OwnershipTransferred(oldOwner, newOwner) */\n      0xffffffffffffffffffffffffffffffffffffffff\n      and\n      0x8be0079c531659141344cd1fd0a4f28419497f9722a3daafe3b4186f6b6457e0\n      mload(0x40)\n      mload(0x40)\n      dup1\n      swap2\n      sub\n      swap1\n      log3\n        /* \"@openzeppelin/contracts/access/Ownable.sol\":2496:2620  {... */\n      pop\n        /* \"@openzeppelin/contracts/access/Ownable.sol\":2433:2620  function _transferOwnership(address newOwner) internal virtual {... */\n      pop\n      jump\t// out\n        /* \"@openzeppelin/contracts/utils/Context.sol\":640:736  function _msgSender() internal view virtual returns (address) {... */\n    tag_222:\n        /* \"@openzeppelin/contracts/utils/Context.sol\":693:700  address */\n      0x00\n        /* \"@openzeppelin/contracts/utils/Context.sol\":719:729  msg.sender */\n      caller\n        /* \"@openzeppelin/contracts/utils/Context.sol\":712:729  return msg.sender */\n      swap1\n      pop\n        /* \"@openzeppelin/contracts/utils/Context.sol\":640:736  function _msgSender() internal view virtual returns (address) {... */\n      swap1\n      jump\t// out\n    tag_127:\n      dup3\n      dup1\n      sload\n      tag_244\n      swap1\n      tag_150\n      jump\t// in\n    tag_244:\n      swap1\n      0x00\n      mstore\n      keccak256(0x00, 0x20)\n      swap1\n      0x1f\n      add\n      0x20\n      swap1\n      div\n      dup2\n      add\n      swap3\n      dup3\n      tag_246\n      jumpi\n      0x00\n      dup6\n      sstore\n      jump(tag_245)\n    tag_246:\n      dup3\n      0x1f\n      lt\n      tag_247\n      jumpi\n      dup1\n      mload\n      not(0xff)\n      and\n      dup4\n      dup1\n      add\n      or\n      dup6\n      sstore\n      jump(tag_245)\n    tag_247:\n      dup3\n      dup1\n      add\n      0x01\n      add\n      dup6\n      sstore\n      dup3\n      iszero\n      tag_245\n      jumpi\n      swap2\n      dup3\n      add\n    tag_248:\n      dup3\n      dup2\n      gt\n      iszero\n      tag_249\n      jumpi\n      dup3\n      mload\n      dup3\n      sstore\n      swap2\n      0x20\n      add\n      swap2\n      swap1\n      0x01\n      add\n      swap1\n      jump(tag_248)\n    tag_249:\n    tag_245:\n      pop\n      swap1\n      pop\n      tag_250\n      swap2\n      swap1\n      tag_251\n      jump\t// in\n    tag_250:\n      pop\n      swap1\n      jump\t// out\n    tag_251:\n    tag_252:\n      dup1\n      dup3\n      gt\n      iszero\n      tag_253\n      jumpi\n      0x00\n      dup2\n      0x00\n      swap1\n      sstore\n      pop\n      0x01\n      add\n      jump(tag_252)\n    tag_253:\n      pop\n      swap1\n      jump\t// out\n        /* \"#utility.yul\":7:82   */\n    tag_254:\n        /* \"#utility.yul\":40:46   */\n      0x00\n        /* \"#utility.yul\":73:75   */\n      0x40\n        /* \"#utility.yul\":67:76   */\n      mload\n        /* \"#utility.yul\":57:76   */\n      swap1\n      pop\n        /* \"#utility.yul\":7:82   */\n      swap1\n      jump\t// out\n        /* \"#utility.yul\":88:205   */\n    tag_255:\n        /* \"#utility.yul\":197:198   */\n      0x00\n        /* \"#utility.yul\":194:195   */\n      dup1\n        /* \"#utility.yul\":187:199   */\n      revert\n        /* \"#utility.yul\":211:328   */\n    tag_256:\n        /* \"#utility.yul\":320:321   */\n      0x00\n        /* \"#utility.yul\":317:318   */\n      dup1\n        /* \"#utility.yul\":310:322   */\n      revert\n        /* \"#utility.yul\":334:451   */\n    tag_257:\n        /* \"#utility.yul\":443:444   */\n      0x00\n        /* \"#utility.yul\":440:441   */\n      dup1\n        /* \"#utility.yul\":433:445   */\n      revert\n        /* \"#utility.yul\":457:574   */\n    tag_258:\n        /* \"#utility.yul\":566:567   */\n      0x00\n        /* \"#utility.yul\":563:564   */\n      dup1\n        /* \"#utility.yul\":556:568   */\n      revert\n        /* \"#utility.yul\":580:682   */\n    tag_259:\n        /* \"#utility.yul\":621:627   */\n      0x00\n        /* \"#utility.yul\":672:674   */\n      0x1f\n        /* \"#utility.yul\":668:675   */\n      not\n        /* \"#utility.yul\":663:665   */\n      0x1f\n        /* \"#utility.yul\":656:661   */\n      dup4\n        /* \"#utility.yul\":652:666   */\n      add\n        /* \"#utility.yul\":648:676   */\n      and\n        /* \"#utility.yul\":638:676   */\n      swap1\n      pop\n        /* \"#utility.yul\":580:682   */\n      swap2\n      swap1\n      pop\n      jump\t// out\n        /* \"#utility.yul\":688:868   */\n    tag_260:\n        /* \"#utility.yul\":736:813   */\n      0x4e487b7100000000000000000000000000000000000000000000000000000000\n        /* \"#utility.yul\":733:734   */\n      0x00\n        /* \"#utility.yul\":726:814   */\n      mstore\n        /* \"#utility.yul\":833:837   */\n      0x41\n        /* \"#utility.yul\":830:831   */\n      0x04\n        /* \"#utility.yul\":823:838   */\n      mstore\n        /* \"#utility.yul\":857:861   */\n      0x24\n        /* \"#utility.yul\":854:855   */\n      0x00\n        /* \"#utility.yul\":847:862   */\n      revert\n        /* \"#utility.yul\":874:1155   */\n    tag_261:\n        /* \"#utility.yul\":957:984   */\n      tag_308\n        /* \"#utility.yul\":979:983   */\n      dup3\n        /* \"#utility.yul\":957:984   */\n      tag_259\n      jump\t// in\n    tag_308:\n        /* \"#utility.yul\":949:955   */\n      dup2\n        /* \"#utility.yul\":945:985   */\n      add\n        /* \"#utility.yul\":1087:1093   */\n      dup2\n        /* \"#utility.yul\":1075:1085   */\n      dup2\n        /* \"#utility.yul\":1072:1094   */\n      lt\n        /* \"#utility.yul\":1051:1069   */\n      0xffffffffffffffff\n        /* \"#utility.yul\":1039:1049   */\n      dup3\n        /* \"#utility.yul\":1036:1070   */\n      gt\n        /* \"#utility.yul\":1033:1095   */\n      or\n        /* \"#utility.yul\":1030:1118   */\n      iszero\n      tag_309\n      jumpi\n        /* \"#utility.yul\":1098:1116   */\n      tag_310\n      tag_260\n      jump\t// in\n    tag_310:\n        /* \"#utility.yul\":1030:1118   */\n    tag_309:\n        /* \"#utility.yul\":1138:1148   */\n      dup1\n        /* \"#utility.yul\":1134:1136   */\n      0x40\n        /* \"#utility.yul\":1127:1149   */\n      mstore\n        /* \"#utility.yul\":917:1155   */\n      pop\n        /* \"#utility.yul\":874:1155   */\n      pop\n      pop\n      jump\t// out\n        /* \"#utility.yul\":1161:1290   */\n    tag_262:\n        /* \"#utility.yul\":1195:1201   */\n      0x00\n        /* \"#utility.yul\":1222:1242   */\n      tag_312\n      tag_254\n      jump\t// in\n    tag_312:\n        /* \"#utility.yul\":1212:1242   */\n      swap1\n      pop\n        /* \"#utility.yul\":1251:1284   */\n      tag_313\n        /* \"#utility.yul\":1279:1283   */\n      dup3\n        /* \"#utility.yul\":1271:1277   */\n      dup3\n        /* \"#utility.yul\":1251:1284   */\n      tag_261\n      jump\t// in\n    tag_313:\n        /* \"#utility.yul\":1161:1290   */\n      swap2\n      swap1\n      pop\n      jump\t// out\n        /* \"#utility.yul\":1296:1604   */\n    tag_263:\n        /* \"#utility.yul\":1358:1362   */\n      0x00\n        /* \"#utility.yul\":1448:1466   */\n      0xffffffffffffffff\n        /* \"#utility.yul\":1440:1446   */\n      dup3\n        /* \"#utility.yul\":1437:1467   */\n      gt\n        /* \"#utility.yul\":1434:1490   */\n      iszero\n      tag_315\n      jumpi\n        /* \"#utility.yul\":1470:1488   */\n      tag_316\n      tag_260\n      jump\t// in\n    tag_316:\n        /* \"#utility.yul\":1434:1490   */\n    tag_315:\n        /* \"#utility.yul\":1508:1537   */\n      tag_317\n        /* \"#utility.yul\":1530:1536   */\n      dup3\n        /* \"#utility.yul\":1508:1537   */\n      tag_259\n      jump\t// in\n    tag_317:\n        /* \"#utility.yul\":1500:1537   */\n      swap1\n      pop\n        /* \"#utility.yul\":1592:1596   */\n      0x20\n        /* \"#utility.yul\":1586:1590   */\n      dup2\n        /* \"#utility.yul\":1582:1597   */\n      add\n        /* \"#utility.yul\":1574:1597   */\n      swap1\n      pop\n        /* \"#utility.yul\":1296:1604   */\n      swap2\n      swap1\n      pop\n      jump\t// out\n        /* \"#utility.yul\":1610:1764   */\n    tag_264:\n        /* \"#utility.yul\":1694:1700   */\n      dup3\n        /* \"#utility.yul\":1689:1692   */\n      dup2\n        /* \"#utility.yul\":1684:1687   */\n      dup4\n        /* \"#utility.yul\":1671:1701   */\n      calldatacopy\n        /* \"#utility.yul\":1756:1757   */\n      0x00\n        /* \"#utility.yul\":1747:1753   */\n      dup4\n        /* \"#utility.yul\":1742:1745   */\n      dup4\n        /* \"#utility.yul\":1738:1754   */\n      add\n        /* \"#utility.yul\":1731:1758   */\n      mstore\n        /* \"#utility.yul\":1610:1764   */\n      pop\n      pop\n      pop\n      jump\t// out\n        /* \"#utility.yul\":1770:2182   */\n    tag_265:\n        /* \"#utility.yul\":1848:1853   */\n      0x00\n        /* \"#utility.yul\":1873:1939   */\n      tag_320\n        /* \"#utility.yul\":1889:1938   */\n      tag_321\n        /* \"#utility.yul\":1931:1937   */\n      dup5\n        /* \"#utility.yul\":1889:1938   */\n      tag_263\n      jump\t// in\n    tag_321:\n        /* \"#utility.yul\":1873:1939   */\n      tag_262\n      jump\t// in\n    tag_320:\n        /* \"#utility.yul\":1864:1939   */\n      swap1\n      pop\n        /* \"#utility.yul\":1962:1968   */\n      dup3\n        /* \"#utility.yul\":1955:1960   */\n      dup2\n        /* \"#utility.yul\":1948:1969   */\n      mstore\n        /* \"#utility.yul\":2000:2004   */\n      0x20\n        /* \"#utility.yul\":1993:1998   */\n      dup2\n        /* \"#utility.yul\":1989:2005   */\n      add\n        /* \"#utility.yul\":2038:2041   */\n      dup5\n        /* \"#utility.yul\":2029:2035   */\n      dup5\n        /* \"#utility.yul\":2024:2027   */\n      dup5\n        /* \"#utility.yul\":2020:2036   */\n      add\n        /* \"#utility.yul\":2017:2042   */\n      gt\n        /* \"#utility.yul\":2014:2126   */\n      iszero\n      tag_322\n      jumpi\n        /* \"#utility.yul\":2045:2124   */\n      tag_323\n      tag_258\n      jump\t// in\n    tag_323:\n        /* \"#utility.yul\":2014:2126   */\n    tag_322:\n        /* \"#utility.yul\":2135:2176   */\n      tag_324\n        /* \"#utility.yul\":2169:2175   */\n      dup5\n        /* \"#utility.yul\":2164:2167   */\n      dup3\n        /* \"#utility.yul\":2159:2162   */\n      dup6\n        /* \"#utility.yul\":2135:2176   */\n      tag_264\n      jump\t// in\n    tag_324:\n        /* \"#utility.yul\":1854:2182   */\n      pop\n        /* \"#utility.yul\":1770:2182   */\n      swap4\n      swap3\n      pop\n      pop\n      pop\n      jump\t// out\n        /* \"#utility.yul\":2202:2542   */\n    tag_266:\n        /* \"#utility.yul\":2258:2263   */\n      0x00\n        /* \"#utility.yul\":2307:2310   */\n      dup3\n        /* \"#utility.yul\":2300:2304   */\n      0x1f\n        /* \"#utility.yul\":2292:2298   */\n      dup4\n        /* \"#utility.yul\":2288:2305   */\n      add\n        /* \"#utility.yul\":2284:2311   */\n      slt\n        /* \"#utility.yul\":2274:2396   */\n      tag_326\n      jumpi\n        /* \"#utility.yul\":2315:2394   */\n      tag_327\n      tag_257\n      jump\t// in\n    tag_327:\n        /* \"#utility.yul\":2274:2396   */\n    tag_326:\n        /* \"#utility.yul\":2432:2438   */\n      dup2\n        /* \"#utility.yul\":2419:2439   */\n      calldataload\n        /* \"#utility.yul\":2457:2536   */\n      tag_328\n        /* \"#utility.yul\":2532:2535   */\n      dup5\n        /* \"#utility.yul\":2524:2530   */\n      dup3\n        /* \"#utility.yul\":2517:2521   */\n      0x20\n        /* \"#utility.yul\":2509:2515   */\n      dup7\n        /* \"#utility.yul\":2505:2522   */\n      add\n        /* \"#utility.yul\":2457:2536   */\n      tag_265\n      jump\t// in\n    tag_328:\n        /* \"#utility.yul\":2448:2536   */\n      swap2\n      pop\n        /* \"#utility.yul\":2264:2542   */\n      pop\n        /* \"#utility.yul\":2202:2542   */\n      swap3\n      swap2\n      pop\n      pop\n      jump\t// out\n        /* \"#utility.yul\":2548:3057   */\n    tag_16:\n        /* \"#utility.yul\":2617:2623   */\n      0x00\n        /* \"#utility.yul\":2666:2668   */\n      0x20\n        /* \"#utility.yul\":2654:2663   */\n      dup3\n        /* \"#utility.yul\":2645:2652   */\n      dup5\n        /* \"#utility.yul\":2641:2664   */\n      sub\n        /* \"#utility.yul\":2637:2669   */\n      slt\n        /* \"#utility.yul\":2634:2753   */\n      iszero\n      tag_330\n      jumpi\n        /* \"#utility.yul\":2672:2751   */\n      tag_331\n      tag_255\n      jump\t// in\n    tag_331:\n        /* \"#utility.yul\":2634:2753   */\n    tag_330:\n        /* \"#utility.yul\":2820:2821   */\n      0x00\n        /* \"#utility.yul\":2809:2818   */\n      dup3\n        /* \"#utility.yul\":2805:2822   */\n      add\n        /* \"#utility.yul\":2792:2823   */\n      calldataload\n        /* \"#utility.yul\":2850:2868   */\n      0xffffffffffffffff\n        /* \"#utility.yul\":2842:2848   */\n      dup2\n        /* \"#utility.yul\":2839:2869   */\n      gt\n        /* \"#utility.yul\":2836:2953   */\n      iszero\n      tag_332\n      jumpi\n        /* \"#utility.yul\":2872:2951   */\n      tag_333\n      tag_256\n      jump\t// in\n    tag_333:\n        /* \"#utility.yul\":2836:2953   */\n    tag_332:\n        /* \"#utility.yul\":2977:3040   */\n      tag_334\n        /* \"#utility.yul\":3032:3039   */\n      dup5\n        /* \"#utility.yul\":3023:3029   */\n      dup3\n        /* \"#utility.yul\":3012:3021   */\n      dup6\n        /* \"#utility.yul\":3008:3030   */\n      add\n        /* \"#utility.yul\":2977:3040   */\n      tag_266\n      jump\t// in\n    tag_334:\n        /* \"#utility.yul\":2967:3040   */\n      swap2\n      pop\n        /* \"#utility.yul\":2763:3050   */\n      pop\n        /* \"#utility.yul\":2548:3057   */\n      swap3\n      swap2\n      pop\n      pop\n      jump\t// out\n        /* \"#utility.yul\":3063:3140   */\n    tag_267:\n        /* \"#utility.yul\":3100:3107   */\n      0x00\n        /* \"#utility.yul\":3129:3134   */\n      dup2\n        /* \"#utility.yul\":3118:3134   */\n      swap1\n      pop\n        /* \"#utility.yul\":3063:3140   */\n      swap2\n      swap1\n      pop\n      jump\t// out\n        /* \"#utility.yul\":3146:3264   */\n    tag_268:\n        /* \"#utility.yul\":3233:3257   */\n      tag_337\n        /* \"#utility.yul\":3251:3256   */\n      dup2\n        /* \"#utility.yul\":3233:3257   */\n      tag_267\n      jump\t// in\n    tag_337:\n        /* \"#utility.yul\":3228:3231   */\n      dup3\n        /* \"#utility.yul\":3221:3258   */\n      mstore\n        /* \"#utility.yul\":3146:3264   */\n      pop\n      pop\n      jump\t// out\n        /* \"#utility.yul\":3270:3492   */\n    tag_19:\n        /* \"#utility.yul\":3363:3367   */\n      0x00\n        /* \"#utility.yul\":3401:3403   */\n      0x20\n        /* \"#utility.yul\":3390:3399   */\n      dup3\n        /* \"#utility.yul\":3386:3404   */\n      add\n        /* \"#utility.yul\":3378:3404   */\n      swap1\n      pop\n        /* \"#utility.yul\":3414:3485   */\n      tag_339\n        /* \"#utility.yul\":3482:3483   */\n      0x00\n        /* \"#utility.yul\":3471:3480   */\n      dup4\n        /* \"#utility.yul\":3467:3484   */\n      add\n        /* \"#utility.yul\":3458:3464   */\n      dup5\n        /* \"#utility.yul\":3414:3485   */\n      tag_268\n      jump\t// in\n    tag_339:\n        /* \"#utility.yul\":3270:3492   */\n      swap3\n      swap2\n      pop\n      pop\n      jump\t// out\n        /* \"#utility.yul\":3498:3624   */\n    tag_269:\n        /* \"#utility.yul\":3535:3542   */\n      0x00\n        /* \"#utility.yul\":3575:3617   */\n      0xffffffffffffffffffffffffffffffffffffffff\n        /* \"#utility.yul\":3568:3573   */\n      dup3\n        /* \"#utility.yul\":3564:3618   */\n      and\n        /* \"#utility.yul\":3553:3618   */\n      swap1\n      pop\n        /* \"#utility.yul\":3498:3624   */\n      swap2\n      swap1\n      pop\n      jump\t// out\n        /* \"#utility.yul\":3630:3726   */\n    tag_270:\n        /* \"#utility.yul\":3667:3674   */\n      0x00\n        /* \"#utility.yul\":3696:3720   */\n      tag_342\n        /* \"#utility.yul\":3714:3719   */\n      dup3\n        /* \"#utility.yul\":3696:3720   */\n      tag_269\n      jump\t// in\n    tag_342:\n        /* \"#utility.yul\":3685:3720   */\n      swap1\n      pop\n        /* \"#utility.yul\":3630:3726   */\n      swap2\n      swap1\n      pop\n      jump\t// out\n        /* \"#utility.yul\":3732:3854   */\n    tag_271:\n        /* \"#utility.yul\":3805:3829   */\n      tag_344\n        /* \"#utility.yul\":3823:3828   */\n      dup2\n        /* \"#utility.yul\":3805:3829   */\n      tag_270\n      jump\t// in\n    tag_344:\n        /* \"#utility.yul\":3798:3803   */\n      dup2\n        /* \"#utility.yul\":3795:3830   */\n      eq\n        /* \"#utility.yul\":3785:3848   */\n      tag_345\n      jumpi\n        /* \"#utility.yul\":3844:3845   */\n      0x00\n        /* \"#utility.yul\":3841:3842   */\n      dup1\n        /* \"#utility.yul\":3834:3846   */\n      revert\n        /* \"#utility.yul\":3785:3848   */\n    tag_345:\n        /* \"#utility.yul\":3732:3854   */\n      pop\n      jump\t// out\n        /* \"#utility.yul\":3860:3999   */\n    tag_272:\n        /* \"#utility.yul\":3906:3911   */\n      0x00\n        /* \"#utility.yul\":3944:3950   */\n      dup2\n        /* \"#utility.yul\":3931:3951   */\n      calldataload\n        /* \"#utility.yul\":3922:3951   */\n      swap1\n      pop\n        /* \"#utility.yul\":3960:3993   */\n      tag_347\n        /* \"#utility.yul\":3987:3992   */\n      dup2\n        /* \"#utility.yul\":3960:3993   */\n      tag_271\n      jump\t// in\n    tag_347:\n        /* \"#utility.yul\":3860:3999   */\n      swap3\n      swap2\n      pop\n      pop\n      jump\t// out\n        /* \"#utility.yul\":4005:4984   */\n    tag_22:\n        /* \"#utility.yul\":4102:4108   */\n      0x00\n        /* \"#utility.yul\":4110:4116   */\n      dup1\n        /* \"#utility.yul\":4118:4124   */\n      0x00\n        /* \"#utility.yul\":4167:4169   */\n      0x60\n        /* \"#utility.yul\":4155:4164   */\n      dup5\n        /* \"#utility.yul\":4146:4153   */\n      dup7\n        /* \"#utility.yul\":4142:4165   */\n      sub\n        /* \"#utility.yul\":4138:4170   */\n      slt\n        /* \"#utility.yul\":4135:4254   */\n      iszero\n      tag_349\n      jumpi\n        /* \"#utility.yul\":4173:4252   */\n      tag_350\n      tag_255\n      jump\t// in\n    tag_350:\n        /* \"#utility.yul\":4135:4254   */\n    tag_349:\n        /* \"#utility.yul\":4321:4322   */\n      0x00\n        /* \"#utility.yul\":4310:4319   */\n      dup5\n        /* \"#utility.yul\":4306:4323   */\n      add\n        /* \"#utility.yul\":4293:4324   */\n      calldataload\n        /* \"#utility.yul\":4351:4369   */\n      0xffffffffffffffff\n        /* \"#utility.yul\":4343:4349   */\n      dup2\n        /* \"#utility.yul\":4340:4370   */\n      gt\n        /* \"#utility.yul\":4337:4454   */\n      iszero\n      tag_351\n      jumpi\n        /* \"#utility.yul\":4373:4452   */\n      tag_352\n      tag_256\n      jump\t// in\n    tag_352:\n        /* \"#utility.yul\":4337:4454   */\n    tag_351:\n        /* \"#utility.yul\":4478:4541   */\n      tag_353\n        /* \"#utility.yul\":4533:4540   */\n      dup7\n        /* \"#utility.yul\":4524:4530   */\n      dup3\n        /* \"#utility.yul\":4513:4522   */\n      dup8\n        /* \"#utility.yul\":4509:4531   */\n      add\n        /* \"#utility.yul\":4478:4541   */\n      tag_266\n      jump\t// in\n    tag_353:\n        /* \"#utility.yul\":4468:4541   */\n      swap4\n      pop\n        /* \"#utility.yul\":4264:4551   */\n      pop\n        /* \"#utility.yul\":4618:4620   */\n      0x20\n        /* \"#utility.yul\":4607:4616   */\n      dup5\n        /* \"#utility.yul\":4603:4621   */\n      add\n        /* \"#utility.yul\":4590:4622   */\n      calldataload\n        /* \"#utility.yul\":4649:4667   */\n      0xffffffffffffffff\n        /* \"#utility.yul\":4641:4647   */\n      dup2\n        /* \"#utility.yul\":4638:4668   */\n      gt\n        /* \"#utility.yul\":4635:4752   */\n      iszero\n      tag_354\n      jumpi\n        /* \"#utility.yul\":4671:4750   */\n      tag_355\n      tag_256\n      jump\t// in\n    tag_355:\n        /* \"#utility.yul\":4635:4752   */\n    tag_354:\n        /* \"#utility.yul\":4776:4839   */\n      tag_356\n        /* \"#utility.yul\":4831:4838   */\n      dup7\n        /* \"#utility.yul\":4822:4828   */\n      dup3\n        /* \"#utility.yul\":4811:4820   */\n      dup8\n        /* \"#utility.yul\":4807:4829   */\n      add\n        /* \"#utility.yul\":4776:4839   */\n      tag_266\n      jump\t// in\n    tag_356:\n        /* \"#utility.yul\":4766:4839   */\n      swap3\n      pop\n        /* \"#utility.yul\":4561:4849   */\n      pop\n        /* \"#utility.yul\":4888:4890   */\n      0x40\n        /* \"#utility.yul\":4914:4967   */\n      tag_357\n        /* \"#utility.yul\":4959:4966   */\n      dup7\n        /* \"#utility.yul\":4950:4956   */\n      dup3\n        /* \"#utility.yul\":4939:4948   */\n      dup8\n        /* \"#utility.yul\":4935:4957   */\n      add\n        /* \"#utility.yul\":4914:4967   */\n      tag_272\n      jump\t// in\n    tag_357:\n        /* \"#utility.yul\":4904:4967   */\n      swap2\n      pop\n        /* \"#utility.yul\":4859:4977   */\n      pop\n        /* \"#utility.yul\":4005:4984   */\n      swap3\n      pop\n      swap3\n      pop\n      swap3\n      jump\t// out\n        /* \"#utility.yul\":4990:5080   */\n    tag_273:\n        /* \"#utility.yul\":5024:5031   */\n      0x00\n        /* \"#utility.yul\":5067:5072   */\n      dup2\n        /* \"#utility.yul\":5060:5073   */\n      iszero\n        /* \"#utility.yul\":5053:5074   */\n      iszero\n        /* \"#utility.yul\":5042:5074   */\n      swap1\n      pop\n        /* \"#utility.yul\":4990:5080   */\n      swap2\n      swap1\n      pop\n      jump\t// out\n        /* \"#utility.yul\":5086:5195   */\n    tag_274:\n        /* \"#utility.yul\":5167:5188   */\n      tag_360\n        /* \"#utility.yul\":5182:5187   */\n      dup2\n        /* \"#utility.yul\":5167:5188   */\n      tag_273\n      jump\t// in\n    tag_360:\n        /* \"#utility.yul\":5162:5165   */\n      dup3\n        /* \"#utility.yul\":5155:5189   */\n      mstore\n        /* \"#utility.yul\":5086:5195   */\n      pop\n      pop\n      jump\t// out\n        /* \"#utility.yul\":5201:5411   */\n    tag_28:\n        /* \"#utility.yul\":5288:5292   */\n      0x00\n        /* \"#utility.yul\":5326:5328   */\n      0x20\n        /* \"#utility.yul\":5315:5324   */\n      dup3\n        /* \"#utility.yul\":5311:5329   */\n      add\n        /* \"#utility.yul\":5303:5329   */\n      swap1\n      pop\n        /* \"#utility.yul\":5339:5404   */\n      tag_362\n        /* \"#utility.yul\":5401:5402   */\n      0x00\n        /* \"#utility.yul\":5390:5399   */\n      dup4\n        /* \"#utility.yul\":5386:5403   */\n      add\n        /* \"#utility.yul\":5377:5383   */\n      dup5\n        /* \"#utility.yul\":5339:5404   */\n      tag_274\n      jump\t// in\n    tag_362:\n        /* \"#utility.yul\":5201:5411   */\n      swap3\n      swap2\n      pop\n      pop\n      jump\t// out\n        /* \"#utility.yul\":5417:5539   */\n    tag_275:\n        /* \"#utility.yul\":5490:5514   */\n      tag_364\n        /* \"#utility.yul\":5508:5513   */\n      dup2\n        /* \"#utility.yul\":5490:5514   */\n      tag_267\n      jump\t// in\n    tag_364:\n        /* \"#utility.yul\":5483:5488   */\n      dup2\n        /* \"#utility.yul\":5480:5515   */\n      eq\n        /* \"#utility.yul\":5470:5533   */\n      tag_365\n      jumpi\n        /* \"#utility.yul\":5529:5530   */\n      0x00\n        /* \"#utility.yul\":5526:5527   */\n      dup1\n        /* \"#utility.yul\":5519:5531   */\n      revert\n        /* \"#utility.yul\":5470:5533   */\n    tag_365:\n        /* \"#utility.yul\":5417:5539   */\n      pop\n      jump\t// out\n        /* \"#utility.yul\":5545:5684   */\n    tag_276:\n        /* \"#utility.yul\":5591:5596   */\n      0x00\n        /* \"#utility.yul\":5629:5635   */\n      dup2\n        /* \"#utility.yul\":5616:5636   */\n      calldataload\n        /* \"#utility.yul\":5607:5636   */\n      swap1\n      pop\n        /* \"#utility.yul\":5645:5678   */\n      tag_367\n        /* \"#utility.yul\":5672:5677   */\n      dup2\n        /* \"#utility.yul\":5645:5678   */\n      tag_275\n      jump\t// in\n    tag_367:\n        /* \"#utility.yul\":5545:5684   */\n      swap3\n      swap2\n      pop\n      pop\n      jump\t// out\n        /* \"#utility.yul\":5690:6669   */\n    tag_31:\n        /* \"#utility.yul\":5787:5793   */\n      0x00\n        /* \"#utility.yul\":5795:5801   */\n      dup1\n        /* \"#utility.yul\":5803:5809   */\n      0x00\n        /* \"#utility.yul\":5852:5854   */\n      0x60\n        /* \"#utility.yul\":5840:5849   */\n      dup5\n        /* \"#utility.yul\":5831:5838   */\n      dup7\n        /* \"#utility.yul\":5827:5850   */\n      sub\n        /* \"#utility.yul\":5823:5855   */\n      slt\n        /* \"#utility.yul\":5820:5939   */\n      iszero\n      tag_369\n      jumpi\n        /* \"#utility.yul\":5858:5937   */\n      tag_370\n      tag_255\n      jump\t// in\n    tag_370:\n        /* \"#utility.yul\":5820:5939   */\n    tag_369:\n        /* \"#utility.yul\":6006:6007   */\n      0x00\n        /* \"#utility.yul\":5995:6004   */\n      dup5\n        /* \"#utility.yul\":5991:6008   */\n      add\n        /* \"#utility.yul\":5978:6009   */\n      calldataload\n        /* \"#utility.yul\":6036:6054   */\n      0xffffffffffffffff\n        /* \"#utility.yul\":6028:6034   */\n      dup2\n        /* \"#utility.yul\":6025:6055   */\n      gt\n        /* \"#utility.yul\":6022:6139   */\n      iszero\n      tag_371\n      jumpi\n        /* \"#utility.yul\":6058:6137   */\n      tag_372\n      tag_256\n      jump\t// in\n    tag_372:\n        /* \"#utility.yul\":6022:6139   */\n    tag_371:\n        /* \"#utility.yul\":6163:6226   */\n      tag_373\n        /* \"#utility.yul\":6218:6225   */\n      dup7\n        /* \"#utility.yul\":6209:6215   */\n      dup3\n        /* \"#utility.yul\":6198:6207   */\n      dup8\n        /* \"#utility.yul\":6194:6216   */\n      add\n        /* \"#utility.yul\":6163:6226   */\n      tag_266\n      jump\t// in\n    tag_373:\n        /* \"#utility.yul\":6153:6226   */\n      swap4\n      pop\n        /* \"#utility.yul\":5949:6236   */\n      pop\n        /* \"#utility.yul\":6303:6305   */\n      0x20\n        /* \"#utility.yul\":6292:6301   */\n      dup5\n        /* \"#utility.yul\":6288:6306   */\n      add\n        /* \"#utility.yul\":6275:6307   */\n      calldataload\n        /* \"#utility.yul\":6334:6352   */\n      0xffffffffffffffff\n        /* \"#utility.yul\":6326:6332   */\n      dup2\n        /* \"#utility.yul\":6323:6353   */\n      gt\n        /* \"#utility.yul\":6320:6437   */\n      iszero\n      tag_374\n      jumpi\n        /* \"#utility.yul\":6356:6435   */\n      tag_375\n      tag_256\n      jump\t// in\n    tag_375:\n        /* \"#utility.yul\":6320:6437   */\n    tag_374:\n        /* \"#utility.yul\":6461:6524   */\n      tag_376\n        /* \"#utility.yul\":6516:6523   */\n      dup7\n        /* \"#utility.yul\":6507:6513   */\n      dup3\n        /* \"#utility.yul\":6496:6505   */\n      dup8\n        /* \"#utility.yul\":6492:6514   */\n      add\n        /* \"#utility.yul\":6461:6524   */\n      tag_266\n      jump\t// in\n    tag_376:\n        /* \"#utility.yul\":6451:6524   */\n      swap3\n      pop\n        /* \"#utility.yul\":6246:6534   */\n      pop\n        /* \"#utility.yul\":6573:6575   */\n      0x40\n        /* \"#utility.yul\":6599:6652   */\n      tag_377\n        /* \"#utility.yul\":6644:6651   */\n      dup7\n        /* \"#utility.yul\":6635:6641   */\n      dup3\n        /* \"#utility.yul\":6624:6633   */\n      dup8\n        /* \"#utility.yul\":6620:6642   */\n      add\n        /* \"#utility.yul\":6599:6652   */\n      tag_276\n      jump\t// in\n    tag_377:\n        /* \"#utility.yul\":6589:6652   */\n      swap2\n      pop\n        /* \"#utility.yul\":6544:6662   */\n      pop\n        /* \"#utility.yul\":5690:6669   */\n      swap3\n      pop\n      swap3\n      pop\n      swap3\n      jump\t// out\n        /* \"#utility.yul\":6675:6793   */\n    tag_277:\n        /* \"#utility.yul\":6762:6786   */\n      tag_379\n        /* \"#utility.yul\":6780:6785   */\n      dup2\n        /* \"#utility.yul\":6762:6786   */\n      tag_270\n      jump\t// in\n    tag_379:\n        /* \"#utility.yul\":6757:6760   */\n      dup3\n        /* \"#utility.yul\":6750:6787   */\n      mstore\n        /* \"#utility.yul\":6675:6793   */\n      pop\n      pop\n      jump\t// out\n        /* \"#utility.yul\":6799:7021   */\n    tag_41:\n        /* \"#utility.yul\":6892:6896   */\n      0x00\n        /* \"#utility.yul\":6930:6932   */\n      0x20\n        /* \"#utility.yul\":6919:6928   */\n      dup3\n        /* \"#utility.yul\":6915:6933   */\n      add\n        /* \"#utility.yul\":6907:6933   */\n      swap1\n      pop\n        /* \"#utility.yul\":6943:7014   */\n      tag_381\n        /* \"#utility.yul\":7011:7012   */\n      0x00\n        /* \"#utility.yul\":7000:7009   */\n      dup4\n        /* \"#utility.yul\":6996:7013   */\n      add\n        /* \"#utility.yul\":6987:6993   */\n      dup5\n        /* \"#utility.yul\":6943:7014   */\n      tag_277\n      jump\t// in\n    tag_381:\n        /* \"#utility.yul\":6799:7021   */\n      swap3\n      swap2\n      pop\n      pop\n      jump\t// out\n        /* \"#utility.yul\":7027:7861   */\n    tag_44:\n        /* \"#utility.yul\":7115:7121   */\n      0x00\n        /* \"#utility.yul\":7123:7129   */\n      dup1\n        /* \"#utility.yul\":7172:7174   */\n      0x40\n        /* \"#utility.yul\":7160:7169   */\n      dup4\n        /* \"#utility.yul\":7151:7158   */\n      dup6\n        /* \"#utility.yul\":7147:7170   */\n      sub\n        /* \"#utility.yul\":7143:7175   */\n      slt\n        /* \"#utility.yul\":7140:7259   */\n      iszero\n      tag_383\n      jumpi\n        /* \"#utility.yul\":7178:7257   */\n      tag_384\n      tag_255\n      jump\t// in\n    tag_384:\n        /* \"#utility.yul\":7140:7259   */\n    tag_383:\n        /* \"#utility.yul\":7326:7327   */\n      0x00\n        /* \"#utility.yul\":7315:7324   */\n      dup4\n        /* \"#utility.yul\":7311:7328   */\n      add\n        /* \"#utility.yul\":7298:7329   */\n      calldataload\n        /* \"#utility.yul\":7356:7374   */\n      0xffffffffffffffff\n        /* \"#utility.yul\":7348:7354   */\n      dup2\n        /* \"#utility.yul\":7345:7375   */\n      gt\n        /* \"#utility.yul\":7342:7459   */\n      iszero\n      tag_385\n      jumpi\n        /* \"#utility.yul\":7378:7457   */\n      tag_386\n      tag_256\n      jump\t// in\n    tag_386:\n        /* \"#utility.yul\":7342:7459   */\n    tag_385:\n        /* \"#utility.yul\":7483:7546   */\n      tag_387\n        /* \"#utility.yul\":7538:7545   */\n      dup6\n        /* \"#utility.yul\":7529:7535   */\n      dup3\n        /* \"#utility.yul\":7518:7527   */\n      dup7\n        /* \"#utility.yul\":7514:7536   */\n      add\n        /* \"#utility.yul\":7483:7546   */\n      tag_266\n      jump\t// in\n    tag_387:\n        /* \"#utility.yul\":7473:7546   */\n      swap3\n      pop\n        /* \"#utility.yul\":7269:7556   */\n      pop\n        /* \"#utility.yul\":7623:7625   */\n      0x20\n        /* \"#utility.yul\":7612:7621   */\n      dup4\n        /* \"#utility.yul\":7608:7626   */\n      add\n        /* \"#utility.yul\":7595:7627   */\n      calldataload\n        /* \"#utility.yul\":7654:7672   */\n      0xffffffffffffffff\n        /* \"#utility.yul\":7646:7652   */\n      dup2\n        /* \"#utility.yul\":7643:7673   */\n      gt\n        /* \"#utility.yul\":7640:7757   */\n      iszero\n      tag_388\n      jumpi\n        /* \"#utility.yul\":7676:7755   */\n      tag_389\n      tag_256\n      jump\t// in\n    tag_389:\n        /* \"#utility.yul\":7640:7757   */\n    tag_388:\n        /* \"#utility.yul\":7781:7844   */\n      tag_390\n        /* \"#utility.yul\":7836:7843   */\n      dup6\n        /* \"#utility.yul\":7827:7833   */\n      dup3\n        /* \"#utility.yul\":7816:7825   */\n      dup7\n        /* \"#utility.yul\":7812:7834   */\n      add\n        /* \"#utility.yul\":7781:7844   */\n      tag_266\n      jump\t// in\n    tag_390:\n        /* \"#utility.yul\":7771:7844   */\n      swap2\n      pop\n        /* \"#utility.yul\":7566:7854   */\n      pop\n        /* \"#utility.yul\":7027:7861   */\n      swap3\n      pop\n      swap3\n      swap1\n      pop\n      jump\t// out\n        /* \"#utility.yul\":7867:8196   */\n    tag_53:\n        /* \"#utility.yul\":7926:7932   */\n      0x00\n        /* \"#utility.yul\":7975:7977   */\n      0x20\n        /* \"#utility.yul\":7963:7972   */\n      dup3\n        /* \"#utility.yul\":7954:7961   */\n      dup5\n        /* \"#utility.yul\":7950:7973   */\n      sub\n        /* \"#utility.yul\":7946:7978   */\n      slt\n        /* \"#utility.yul\":7943:8062   */\n      iszero\n      tag_392\n      jumpi\n        /* \"#utility.yul\":7981:8060   */\n      tag_393\n      tag_255\n      jump\t// in\n    tag_393:\n        /* \"#utility.yul\":7943:8062   */\n    tag_392:\n        /* \"#utility.yul\":8101:8102   */\n      0x00\n        /* \"#utility.yul\":8126:8179   */\n      tag_394\n        /* \"#utility.yul\":8171:8178   */\n      dup5\n        /* \"#utility.yul\":8162:8168   */\n      dup3\n        /* \"#utility.yul\":8151:8160   */\n      dup6\n        /* \"#utility.yul\":8147:8169   */\n      add\n        /* \"#utility.yul\":8126:8179   */\n      tag_272\n      jump\t// in\n    tag_394:\n        /* \"#utility.yul\":8116:8179   */\n      swap2\n      pop\n        /* \"#utility.yul\":8072:8189   */\n      pop\n        /* \"#utility.yul\":7867:8196   */\n      swap3\n      swap2\n      pop\n      pop\n      jump\t// out\n        /* \"#utility.yul\":8202:8382   */\n    tag_63:\n        /* \"#utility.yul\":8250:8327   */\n      0x4e487b7100000000000000000000000000000000000000000000000000000000\n        /* \"#utility.yul\":8247:8248   */\n      0x00\n        /* \"#utility.yul\":8240:8328   */\n      mstore\n        /* \"#utility.yul\":8347:8351   */\n      0x32\n        /* \"#utility.yul\":8344:8345   */\n      0x04\n        /* \"#utility.yul\":8337:8352   */\n      mstore\n        /* \"#utility.yul\":8371:8375   */\n      0x24\n        /* \"#utility.yul\":8368:8369   */\n      0x00\n        /* \"#utility.yul\":8361:8376   */\n      revert\n        /* \"#utility.yul\":8388:8568   */\n    tag_278:\n        /* \"#utility.yul\":8436:8513   */\n      0x4e487b7100000000000000000000000000000000000000000000000000000000\n        /* \"#utility.yul\":8433:8434   */\n      0x00\n        /* \"#utility.yul\":8426:8514   */\n      mstore\n        /* \"#utility.yul\":8533:8537   */\n      0x11\n        /* \"#utility.yul\":8530:8531   */\n      0x04\n        /* \"#utility.yul\":8523:8538   */\n      mstore\n        /* \"#utility.yul\":8557:8561   */\n      0x24\n        /* \"#utility.yul\":8554:8555   */\n      0x00\n        /* \"#utility.yul\":8547:8562   */\n      revert\n        /* \"#utility.yul\":8574:8879   */\n    tag_72:\n        /* \"#utility.yul\":8614:8617   */\n      0x00\n        /* \"#utility.yul\":8633:8653   */\n      tag_398\n        /* \"#utility.yul\":8651:8652   */\n      dup3\n        /* \"#utility.yul\":8633:8653   */\n      tag_267\n      jump\t// in\n    tag_398:\n        /* \"#utility.yul\":8628:8653   */\n      swap2\n      pop\n        /* \"#utility.yul\":8667:8687   */\n      tag_399\n        /* \"#utility.yul\":8685:8686   */\n      dup4\n        /* \"#utility.yul\":8667:8687   */\n      tag_267\n      jump\t// in\n    tag_399:\n        /* \"#utility.yul\":8662:8687   */\n      swap3\n      pop\n        /* \"#utility.yul\":8821:8822   */\n      dup3\n        /* \"#utility.yul\":8753:8819   */\n      0xffffffffffffffffffffffffffffffffffffffffffffffffffffffffffffffff\n        /* \"#utility.yul\":8749:8823   */\n      sub\n        /* \"#utility.yul\":8746:8747   */\n      dup3\n        /* \"#utility.yul\":8743:8824   */\n      gt\n        /* \"#utility.yul\":8740:8847   */\n      iszero\n      tag_400\n      jumpi\n        /* \"#utility.yul\":8827:8845   */\n      tag_401\n      tag_278\n      jump\t// in\n    tag_401:\n        /* \"#utility.yul\":8740:8847   */\n    tag_400:\n        /* \"#utility.yul\":8871:8872   */\n      dup3\n        /* \"#utility.yul\":8868:8869   */\n      dup3\n        /* \"#utility.yul\":8864:8873   */\n      add\n        /* \"#utility.yul\":8857:8873   */\n      swap1\n      pop\n        /* \"#utility.yul\":8574:8879   */\n      swap3\n      swap2\n      pop\n      pop\n      jump\t// out\n        /* \"#utility.yul\":8885:9065   */\n    tag_279:\n        /* \"#utility.yul\":8933:9010   */\n      0x4e487b7100000000000000000000000000000000000000000000000000000000\n        /* \"#utility.yul\":8930:8931   */\n      0x00\n        /* \"#utility.yul\":8923:9011   */\n      mstore\n        /* \"#utility.yul\":9030:9034   */\n      0x12\n        /* \"#utility.yul\":9027:9028   */\n      0x04\n        /* \"#utility.yul\":9020:9035   */\n      mstore\n        /* \"#utility.yul\":9054:9058   */\n      0x24\n        /* \"#utility.yul\":9051:9052   */\n      0x00\n        /* \"#utility.yul\":9044:9059   */\n      revert\n        /* \"#utility.yul\":9071:9256   */\n    tag_75:\n        /* \"#utility.yul\":9111:9112   */\n      0x00\n        /* \"#utility.yul\":9128:9148   */\n      tag_404\n        /* \"#utility.yul\":9146:9147   */\n      dup3\n        /* \"#utility.yul\":9128:9148   */\n      tag_267\n      jump\t// in\n    tag_404:\n        /* \"#utility.yul\":9123:9148   */\n      swap2\n      pop\n        /* \"#utility.yul\":9162:9182   */\n      tag_405\n        /* \"#utility.yul\":9180:9181   */\n      dup4\n        /* \"#utility.yul\":9162:9182   */\n      tag_267\n      jump\t// in\n    tag_405:\n        /* \"#utility.yul\":9157:9182   */\n      swap3\n      pop\n        /* \"#utility.yul\":9201:9202   */\n      dup3\n        /* \"#utility.yul\":9191:9226   */\n      tag_406\n      jumpi\n        /* \"#utility.yul\":9206:9224   */\n      tag_407\n      tag_279\n      jump\t// in\n    tag_407:\n        /* \"#utility.yul\":9191:9226   */\n    tag_406:\n        /* \"#utility.yul\":9248:9249   */\n      dup3\n        /* \"#utility.yul\":9245:9246   */\n      dup3\n        /* \"#utility.yul\":9241:9250   */\n      div\n        /* \"#utility.yul\":9236:9250   */\n      swap1\n      pop\n        /* \"#utility.yul\":9071:9256   */\n      swap3\n      swap2\n      pop\n      pop\n      jump\t// out\n        /* \"#utility.yul\":9262:9361   */\n    tag_280:\n        /* \"#utility.yul\":9314:9320   */\n      0x00\n        /* \"#utility.yul\":9348:9353   */\n      dup2\n        /* \"#utility.yul\":9342:9354   */\n      mload\n        /* \"#utility.yul\":9332:9354   */\n      swap1\n      pop\n        /* \"#utility.yul\":9262:9361   */\n      swap2\n      swap1\n      pop\n      jump\t// out\n        /* \"#utility.yul\":9367:9515   */\n    tag_281:\n        /* \"#utility.yul\":9469:9480   */\n      0x00\n        /* \"#utility.yul\":9506:9509   */\n      dup2\n        /* \"#utility.yul\":9491:9509   */\n      swap1\n      pop\n        /* \"#utility.yul\":9367:9515   */\n      swap3\n      swap2\n      pop\n      pop\n      jump\t// out\n        /* \"#utility.yul\":9521:9828   */\n    tag_282:\n        /* \"#utility.yul\":9589:9590   */\n      0x00\n        /* \"#utility.yul\":9599:9712   */\n    tag_411:\n        /* \"#utility.yul\":9613:9619   */\n      dup4\n        /* \"#utility.yul\":9610:9611   */\n      dup2\n        /* \"#utility.yul\":9607:9620   */\n      lt\n        /* \"#utility.yul\":9599:9712   */\n      iszero\n      tag_413\n      jumpi\n        /* \"#utility.yul\":9698:9699   */\n      dup1\n        /* \"#utility.yul\":9693:9696   */\n      dup3\n        /* \"#utility.yul\":9689:9700   */\n      add\n        /* \"#utility.yul\":9683:9701   */\n      mload\n        /* \"#utility.yul\":9679:9680   */\n      dup2\n        /* \"#utility.yul\":9674:9677   */\n      dup5\n        /* \"#utility.yul\":9670:9681   */\n      add\n        /* \"#utility.yul\":9663:9702   */\n      mstore\n        /* \"#utility.yul\":9635:9637   */\n      0x20\n        /* \"#utility.yul\":9632:9633   */\n      dup2\n        /* \"#utility.yul\":9628:9638   */\n      add\n        /* \"#utility.yul\":9623:9638   */\n      swap1\n      pop\n        /* \"#utility.yul\":9599:9712   */\n      jump(tag_411)\n    tag_413:\n        /* \"#utility.yul\":9730:9736   */\n      dup4\n        /* \"#utility.yul\":9727:9728   */\n      dup2\n        /* \"#utility.yul\":9724:9737   */\n      gt\n        /* \"#utility.yul\":9721:9822   */\n      iszero\n      tag_414\n      jumpi\n        /* \"#utility.yul\":9810:9811   */\n      0x00\n        /* \"#utility.yul\":9801:9807   */\n      dup5\n        /* \"#utility.yul\":9796:9799   */\n      dup5\n        /* \"#utility.yul\":9792:9808   */\n      add\n        /* \"#utility.yul\":9785:9812   */\n      mstore\n        /* \"#utility.yul\":9721:9822   */\n    tag_414:\n        /* \"#utility.yul\":9570:9828   */\n      pop\n        /* \"#utility.yul\":9521:9828   */\n      pop\n      pop\n      pop\n      jump\t// out\n        /* \"#utility.yul\":9834:10211   */\n    tag_283:\n        /* \"#utility.yul\":9940:9943   */\n      0x00\n        /* \"#utility.yul\":9968:10007   */\n      tag_416\n        /* \"#utility.yul\":10001:10006   */\n      dup3\n        /* \"#utility.yul\":9968:10007   */\n      tag_280\n      jump\t// in\n    tag_416:\n        /* \"#utility.yul\":10023:10112   */\n      tag_417\n        /* \"#utility.yul\":10105:10111   */\n      dup2\n        /* \"#utility.yul\":10100:10103   */\n      dup6\n        /* \"#utility.yul\":10023:10112   */\n      tag_281\n      jump\t// in\n    tag_417:\n        /* \"#utility.yul\":10016:10112   */\n      swap4\n      pop\n        /* \"#utility.yul\":10121:10173   */\n      tag_418\n        /* \"#utility.yul\":10166:10172   */\n      dup2\n        /* \"#utility.yul\":10161:10164   */\n      dup6\n        /* \"#utility.yul\":10154:10158   */\n      0x20\n        /* \"#utility.yul\":10147:10152   */\n      dup7\n        /* \"#utility.yul\":10143:10159   */\n      add\n        /* \"#utility.yul\":10121:10173   */\n      tag_282\n      jump\t// in\n    tag_418:\n        /* \"#utility.yul\":10198:10204   */\n      dup1\n        /* \"#utility.yul\":10193:10196   */\n      dup5\n        /* \"#utility.yul\":10189:10205   */\n      add\n        /* \"#utility.yul\":10182:10205   */\n      swap2\n      pop\n        /* \"#utility.yul\":9944:10211   */\n      pop\n        /* \"#utility.yul\":9834:10211   */\n      swap3\n      swap2\n      pop\n      pop\n      jump\t// out\n        /* \"#utility.yul\":10217:10492   */\n    tag_80:\n        /* \"#utility.yul\":10349:10352   */\n      0x00\n        /* \"#utility.yul\":10371:10466   */\n      tag_420\n        /* \"#utility.yul\":10462:10465   */\n      dup3\n        /* \"#utility.yul\":10453:10459   */\n      dup5\n        /* \"#utility.yul\":10371:10466   */\n      tag_283\n      jump\t// in\n    tag_420:\n        /* \"#utility.yul\":10364:10466   */\n      swap2\n      pop\n        /* \"#utility.yul\":10483:10486   */\n      dup2\n        /* \"#utility.yul\":10476:10486   */\n      swap1\n      pop\n        /* \"#utility.yul\":10217:10492   */\n      swap3\n      swap2\n      pop\n      pop\n      jump\t// out\n        /* \"#utility.yul\":10498:10667   */\n    tag_284:\n        /* \"#utility.yul\":10582:10593   */\n      0x00\n        /* \"#utility.yul\":10616:10622   */\n      dup3\n        /* \"#utility.yul\":10611:10614   */\n      dup3\n        /* \"#utility.yul\":10604:10623   */\n      mstore\n        /* \"#utility.yul\":10656:10660   */\n      0x20\n        /* \"#utility.yul\":10651:10654   */\n      dup3\n        /* \"#utility.yul\":10647:10661   */\n      add\n        /* \"#utility.yul\":10632:10661   */\n      swap1\n      pop\n        /* \"#utility.yul\":10498:10667   */\n      swap3\n      swap2\n      pop\n      pop\n      jump\t// out\n        /* \"#utility.yul\":10673:11037   */\n    tag_285:\n        /* \"#utility.yul\":10761:10764   */\n      0x00\n        /* \"#utility.yul\":10789:10828   */\n      tag_423\n        /* \"#utility.yul\":10822:10827   */\n      dup3\n        /* \"#utility.yul\":10789:10828   */\n      tag_280\n      jump\t// in\n    tag_423:\n        /* \"#utility.yul\":10844:10915   */\n      tag_424\n        /* \"#utility.yul\":10908:10914   */\n      dup2\n        /* \"#utility.yul\":10903:10906   */\n      dup6\n        /* \"#utility.yul\":10844:10915   */\n      tag_284\n      jump\t// in\n    tag_424:\n        /* \"#utility.yul\":10837:10915   */\n      swap4\n      pop\n        /* \"#utility.yul\":10924:10976   */\n      tag_425\n        /* \"#utility.yul\":10969:10975   */\n      dup2\n        /* \"#utility.yul\":10964:10967   */\n      dup6\n        /* \"#utility.yul\":10957:10961   */\n      0x20\n        /* \"#utility.yul\":10950:10955   */\n      dup7\n        /* \"#utility.yul\":10946:10962   */\n      add\n        /* \"#utility.yul\":10924:10976   */\n      tag_282\n      jump\t// in\n    tag_425:\n        /* \"#utility.yul\":11001:11030   */\n      tag_426\n        /* \"#utility.yul\":11023:11029   */\n      dup2\n        /* \"#utility.yul\":11001:11030   */\n      tag_259\n      jump\t// in\n    tag_426:\n        /* \"#utility.yul\":10996:10999   */\n      dup5\n        /* \"#utility.yul\":10992:11031   */\n      add\n        /* \"#utility.yul\":10985:11031   */\n      swap2\n      pop\n        /* \"#utility.yul\":10765:11037   */\n      pop\n        /* \"#utility.yul\":10673:11037   */\n      swap3\n      swap2\n      pop\n      pop\n      jump\t// out\n        /* \"#utility.yul\":11043:11667   */\n    tag_83:\n        /* \"#utility.yul\":11232:11236   */\n      0x00\n        /* \"#utility.yul\":11270:11272   */\n      0x60\n        /* \"#utility.yul\":11259:11268   */\n      dup3\n        /* \"#utility.yul\":11255:11273   */\n      add\n        /* \"#utility.yul\":11247:11273   */\n      swap1\n      pop\n        /* \"#utility.yul\":11319:11328   */\n      dup2\n        /* \"#utility.yul\":11313:11317   */\n      dup2\n        /* \"#utility.yul\":11309:11329   */\n      sub\n        /* \"#utility.yul\":11305:11306   */\n      0x00\n        /* \"#utility.yul\":11294:11303   */\n      dup4\n        /* \"#utility.yul\":11290:11307   */\n      add\n        /* \"#utility.yul\":11283:11330   */\n      mstore\n        /* \"#utility.yul\":11347:11425   */\n      tag_428\n        /* \"#utility.yul\":11420:11424   */\n      dup2\n        /* \"#utility.yul\":11411:11417   */\n      dup7\n        /* \"#utility.yul\":11347:11425   */\n      tag_285\n      jump\t// in\n    tag_428:\n        /* \"#utility.yul\":11339:11425   */\n      swap1\n      pop\n        /* \"#utility.yul\":11472:11481   */\n      dup2\n        /* \"#utility.yul\":11466:11470   */\n      dup2\n        /* \"#utility.yul\":11462:11482   */\n      sub\n        /* \"#utility.yul\":11457:11459   */\n      0x20\n        /* \"#utility.yul\":11446:11455   */\n      dup4\n        /* \"#utility.yul\":11442:11460   */\n      add\n        /* \"#utility.yul\":11435:11483   */\n      mstore\n        /* \"#utility.yul\":11500:11578   */\n      tag_429\n        /* \"#utility.yul\":11573:11577   */\n      dup2\n        /* \"#utility.yul\":11564:11570   */\n      dup6\n        /* \"#utility.yul\":11500:11578   */\n      tag_285\n      jump\t// in\n    tag_429:\n        /* \"#utility.yul\":11492:11578   */\n      swap1\n      pop\n        /* \"#utility.yul\":11588:11660   */\n      tag_430\n        /* \"#utility.yul\":11656:11658   */\n      0x40\n        /* \"#utility.yul\":11645:11654   */\n      dup4\n        /* \"#utility.yul\":11641:11659   */\n      add\n        /* \"#utility.yul\":11632:11638   */\n      dup5\n        /* \"#utility.yul\":11588:11660   */\n      tag_277\n      jump\t// in\n    tag_430:\n        /* \"#utility.yul\":11043:11667   */\n      swap5\n      swap4\n      pop\n      pop\n      pop\n      pop\n      jump\t// out\n        /* \"#utility.yul\":11673:11853   */\n    tag_286:\n        /* \"#utility.yul\":11721:11798   */\n      0x4e487b7100000000000000000000000000000000000000000000000000000000\n        /* \"#utility.yul\":11718:11719   */\n      0x00\n        /* \"#utility.yul\":11711:11799   */\n      mstore\n        /* \"#utility.yul\":11818:11822   */\n      0x22\n        /* \"#utility.yul\":11815:11816   */\n      0x04\n        /* \"#utility.yul\":11808:11823   */\n      mstore\n        /* \"#utility.yul\":11842:11846   */\n      0x24\n        /* \"#utility.yul\":11839:11840   */\n      0x00\n        /* \"#utility.yul\":11832:11847   */\n      revert\n        /* \"#utility.yul\":11859:12179   */\n    tag_150:\n        /* \"#utility.yul\":11903:11909   */\n      0x00\n        /* \"#utility.yul\":11940:11941   */\n      0x02\n        /* \"#utility.yul\":11934:11938   */\n      dup3\n        /* \"#utility.yul\":11930:11942   */\n      div\n        /* \"#utility.yul\":11920:11942   */\n      swap1\n      pop\n        /* \"#utility.yul\":11987:11988   */\n      0x01\n        /* \"#utility.yul\":11981:11985   */\n      dup3\n        /* \"#utility.yul\":11977:11989   */\n      and\n        /* \"#utility.yul\":12008:12026   */\n      dup1\n        /* \"#utility.yul\":11998:12079   */\n      tag_433\n      jumpi\n        /* \"#utility.yul\":12064:12068   */\n      0x7f\n        /* \"#utility.yul\":12056:12062   */\n      dup3\n        /* \"#utility.yul\":12052:12069   */\n      and\n        /* \"#utility.yul\":12042:12069   */\n      swap2\n      pop\n        /* \"#utility.yul\":11998:12079   */\n    tag_433:\n        /* \"#utility.yul\":12126:12128   */\n      0x20\n        /* \"#utility.yul\":12118:12124   */\n      dup3\n        /* \"#utility.yul\":12115:12129   */\n      lt\n        /* \"#utility.yul\":12095:12113   */\n      dup2\n        /* \"#utility.yul\":12092:12130   */\n      sub\n        /* \"#utility.yul\":12089:12173   */\n      tag_434\n      jumpi\n        /* \"#utility.yul\":12145:12163   */\n      tag_435\n      tag_286\n      jump\t// in\n    tag_435:\n        /* \"#utility.yul\":12089:12173   */\n    tag_434:\n        /* \"#utility.yul\":11910:12179   */\n      pop\n        /* \"#utility.yul\":11859:12179   */\n      swap2\n      swap1\n      pop\n      jump\t// out\n        /* \"#utility.yul\":12185:12326   */\n    tag_287:\n        /* \"#utility.yul\":12234:12238   */\n      0x00\n        /* \"#utility.yul\":12257:12260   */\n      dup2\n        /* \"#utility.yul\":12249:12260   */\n      swap1\n      pop\n        /* \"#utility.yul\":12280:12283   */\n      dup2\n        /* \"#utility.yul\":12277:12278   */\n      0x00\n        /* \"#utility.yul\":12270:12284   */\n      mstore\n        /* \"#utility.yul\":12314:12318   */\n      0x20\n        /* \"#utility.yul\":12311:12312   */\n      0x00\n        /* \"#utility.yul\":12301:12319   */\n      keccak256\n        /* \"#utility.yul\":12293:12319   */\n      swap1\n      pop\n        /* \"#utility.yul\":12185:12326   */\n      swap2\n      swap1\n      pop\n      jump\t// out\n        /* \"#utility.yul\":12356:13201   */\n    tag_288:\n        /* \"#utility.yul\":12459:12462   */\n      0x00\n        /* \"#utility.yul\":12496:12501   */\n      dup2\n        /* \"#utility.yul\":12490:12502   */\n      sload\n        /* \"#utility.yul\":12525:12561   */\n      tag_438\n        /* \"#utility.yul\":12551:12560   */\n      dup2\n        /* \"#utility.yul\":12525:12561   */\n      tag_150\n      jump\t// in\n    tag_438:\n        /* \"#utility.yul\":12577:12666   */\n      tag_439\n        /* \"#utility.yul\":12659:12665   */\n      dup2\n        /* \"#utility.yul\":12654:12657   */\n      dup7\n        /* \"#utility.yul\":12577:12666   */\n      tag_281\n      jump\t// in\n    tag_439:\n        /* \"#utility.yul\":12570:12666   */\n      swap5\n      pop\n        /* \"#utility.yul\":12697:12698   */\n      0x01\n        /* \"#utility.yul\":12686:12695   */\n      dup3\n        /* \"#utility.yul\":12682:12699   */\n      and\n        /* \"#utility.yul\":12713:12714   */\n      0x00\n        /* \"#utility.yul\":12708:12845   */\n      dup2\n      eq\n      tag_441\n      jumpi\n        /* \"#utility.yul\":12859:12860   */\n      0x01\n        /* \"#utility.yul\":12854:13195   */\n      dup2\n      eq\n      tag_442\n      jumpi\n        /* \"#utility.yul\":12675:13195   */\n      jump(tag_440)\n        /* \"#utility.yul\":12708:12845   */\n    tag_441:\n        /* \"#utility.yul\":12792:12796   */\n      0xff\n        /* \"#utility.yul\":12788:12797   */\n      not\n        /* \"#utility.yul\":12777:12786   */\n      dup4\n        /* \"#utility.yul\":12773:12798   */\n      and\n        /* \"#utility.yul\":12768:12771   */\n      dup7\n        /* \"#utility.yul\":12761:12799   */\n      mstore\n        /* \"#utility.yul\":12828:12834   */\n      dup2\n        /* \"#utility.yul\":12823:12826   */\n      dup7\n        /* \"#utility.yul\":12819:12835   */\n      add\n        /* \"#utility.yul\":12812:12835   */\n      swap4\n      pop\n        /* \"#utility.yul\":12708:12845   */\n      jump(tag_440)\n        /* \"#utility.yul\":12854:13195   */\n    tag_442:\n        /* \"#utility.yul\":12921:12959   */\n      tag_443\n        /* \"#utility.yul\":12953:12958   */\n      dup6\n        /* \"#utility.yul\":12921:12959   */\n      tag_287\n      jump\t// in\n    tag_443:\n        /* \"#utility.yul\":12981:12982   */\n      0x00\n        /* \"#utility.yul\":12995:13149   */\n    tag_444:\n        /* \"#utility.yul\":13009:13015   */\n      dup4\n        /* \"#utility.yul\":13006:13007   */\n      dup2\n        /* \"#utility.yul\":13003:13016   */\n      lt\n        /* \"#utility.yul\":12995:13149   */\n      iszero\n      tag_446\n      jumpi\n        /* \"#utility.yul\":13083:13090   */\n      dup2\n        /* \"#utility.yul\":13077:13091   */\n      sload\n        /* \"#utility.yul\":13073:13074   */\n      dup2\n        /* \"#utility.yul\":13068:13071   */\n      dup10\n        /* \"#utility.yul\":13064:13075   */\n      add\n        /* \"#utility.yul\":13057:13092   */\n      mstore\n        /* \"#utility.yul\":13133:13134   */\n      0x01\n        /* \"#utility.yul\":13124:13131   */\n      dup3\n        /* \"#utility.yul\":13120:13135   */\n      add\n        /* \"#utility.yul\":13109:13135   */\n      swap2\n      pop\n        /* \"#utility.yul\":13031:13035   */\n      0x20\n        /* \"#utility.yul\":13028:13029   */\n      dup2\n        /* \"#utility.yul\":13024:13036   */\n      add\n        /* \"#utility.yul\":13019:13036   */\n      swap1\n      pop\n        /* \"#utility.yul\":12995:13149   */\n      jump(tag_444)\n    tag_446:\n        /* \"#utility.yul\":13178:13184   */\n      dup4\n        /* \"#utility.yul\":13173:13176   */\n      dup9\n        /* \"#utility.yul\":13169:13185   */\n      add\n        /* \"#utility.yul\":13162:13185   */\n      swap6\n      pop\n        /* \"#utility.yul\":12861:13195   */\n      pop\n      pop\n        /* \"#utility.yul\":12675:13195   */\n    tag_440:\n      pop\n        /* \"#utility.yul\":12463:13201   */\n      pop\n      pop\n        /* \"#utility.yul\":12356:13201   */\n      swap3\n      swap2\n      pop\n      pop\n      jump\t// out\n        /* \"#utility.yul\":13207:13476   */\n    tag_96:\n        /* \"#utility.yul\":13336:13339   */\n      0x00\n        /* \"#utility.yul\":13358:13450   */\n      tag_448\n        /* \"#utility.yul\":13446:13449   */\n      dup3\n        /* \"#utility.yul\":13437:13443   */\n      dup5\n        /* \"#utility.yul\":13358:13450   */\n      tag_288\n      jump\t// in\n    tag_448:\n        /* \"#utility.yul\":13351:13450   */\n      swap2\n      pop\n        /* \"#utility.yul\":13467:13470   */\n      dup2\n        /* \"#utility.yul\":13460:13470   */\n      swap1\n      pop\n        /* \"#utility.yul\":13207:13476   */\n      swap3\n      swap2\n      pop\n      pop\n      jump\t// out\n        /* \"#utility.yul\":13482:13714   */\n    tag_289:\n        /* \"#utility.yul\":13622:13656   */\n      0x796f75207265206e6f74207468652074656163686572206f6620746869732073\n        /* \"#utility.yul\":13618:13619   */\n      0x00\n        /* \"#utility.yul\":13610:13616   */\n      dup3\n        /* \"#utility.yul\":13606:13620   */\n      add\n        /* \"#utility.yul\":13599:13657   */\n      mstore\n        /* \"#utility.yul\":13691:13706   */\n      0x747564656e7420636f7572736500000000000000000000000000000000000000\n        /* \"#utility.yul\":13686:13688   */\n      0x20\n        /* \"#utility.yul\":13678:13684   */\n      dup3\n        /* \"#utility.yul\":13674:13689   */\n      add\n        /* \"#utility.yul\":13667:13707   */\n      mstore\n        /* \"#utility.yul\":13482:13714   */\n      pop\n      jump\t// out\n        /* \"#utility.yul\":13720:14086   */\n    tag_290:\n        /* \"#utility.yul\":13862:13865   */\n      0x00\n        /* \"#utility.yul\":13883:13950   */\n      tag_451\n        /* \"#utility.yul\":13947:13949   */\n      0x2d\n        /* \"#utility.yul\":13942:13945   */\n      dup4\n        /* \"#utility.yul\":13883:13950   */\n      tag_284\n      jump\t// in\n    tag_451:\n        /* \"#utility.yul\":13876:13950   */\n      swap2\n      pop\n        /* \"#utility.yul\":13959:14052   */\n      tag_452\n        /* \"#utility.yul\":14048:14051   */\n      dup3\n        /* \"#utility.yul\":13959:14052   */\n      tag_289\n      jump\t// in\n    tag_452:\n        /* \"#utility.yul\":14077:14079   */\n      0x40\n        /* \"#utility.yul\":14072:14075   */\n      dup3\n        /* \"#utility.yul\":14068:14080   */\n      add\n        /* \"#utility.yul\":14061:14080   */\n      swap1\n      pop\n        /* \"#utility.yul\":13720:14086   */\n      swap2\n      swap1\n      pop\n      jump\t// out\n        /* \"#utility.yul\":14092:14511   */\n    tag_100:\n        /* \"#utility.yul\":14258:14262   */\n      0x00\n        /* \"#utility.yul\":14296:14298   */\n      0x20\n        /* \"#utility.yul\":14285:14294   */\n      dup3\n        /* \"#utility.yul\":14281:14299   */\n      add\n        /* \"#utility.yul\":14273:14299   */\n      swap1\n      pop\n        /* \"#utility.yul\":14345:14354   */\n      dup2\n        /* \"#utility.yul\":14339:14343   */\n      dup2\n        /* \"#utility.yul\":14335:14355   */\n      sub\n        /* \"#utility.yul\":14331:14332   */\n      0x00\n        /* \"#utility.yul\":14320:14329   */\n      dup4\n        /* \"#utility.yul\":14316:14333   */\n      add\n        /* \"#utility.yul\":14309:14356   */\n      mstore\n        /* \"#utility.yul\":14373:14504   */\n      tag_454\n        /* \"#utility.yul\":14499:14503   */\n      dup2\n        /* \"#utility.yul\":14373:14504   */\n      tag_290\n      jump\t// in\n    tag_454:\n        /* \"#utility.yul\":14365:14504   */\n      swap1\n      pop\n        /* \"#utility.yul\":14092:14511   */\n      swap2\n      swap1\n      pop\n      jump\t// out\n        /* \"#utility.yul\":14517:14685   */\n    tag_291:\n        /* \"#utility.yul\":14657:14677   */\n      0x747970652061207265616c20636f757273650000000000000000000000000000\n        /* \"#utility.yul\":14653:14654   */\n      0x00\n        /* \"#utility.yul\":14645:14651   */\n      dup3\n        /* \"#utility.yul\":14641:14655   */\n      add\n        /* \"#utility.yul\":14634:14678   */\n      mstore\n        /* \"#utility.yul\":14517:14685   */\n      pop\n      jump\t// out\n        /* \"#utility.yul\":14691:15057   */\n    tag_292:\n        /* \"#utility.yul\":14833:14836   */\n      0x00\n        /* \"#utility.yul\":14854:14921   */\n      tag_457\n        /* \"#utility.yul\":14918:14920   */\n      0x12\n        /* \"#utility.yul\":14913:14916   */\n      dup4\n        /* \"#utility.yul\":14854:14921   */\n      tag_284\n      jump\t// in\n    tag_457:\n        /* \"#utility.yul\":14847:14921   */\n      swap2\n      pop\n        /* \"#utility.yul\":14930:15023   */\n      tag_458\n        /* \"#utility.yul\":15019:15022   */\n      dup3\n        /* \"#utility.yul\":14930:15023   */\n      tag_291\n      jump\t// in\n    tag_458:\n        /* \"#utility.yul\":15048:15050   */\n      0x20\n        /* \"#utility.yul\":15043:15046   */\n      dup3\n        /* \"#utility.yul\":15039:15051   */\n      add\n        /* \"#utility.yul\":15032:15051   */\n      swap1\n      pop\n        /* \"#utility.yul\":14691:15057   */\n      swap2\n      swap1\n      pop\n      jump\t// out\n        /* \"#utility.yul\":15063:15482   */\n    tag_121:\n        /* \"#utility.yul\":15229:15233   */\n      0x00\n        /* \"#utility.yul\":15267:15269   */\n      0x20\n        /* \"#utility.yul\":15256:15265   */\n      dup3\n        /* \"#utility.yul\":15252:15270   */\n      add\n        /* \"#utility.yul\":15244:15270   */\n      swap1\n      pop\n        /* \"#utility.yul\":15316:15325   */\n      dup2\n        /* \"#utility.yul\":15310:15314   */\n      dup2\n        /* \"#utility.yul\":15306:15326   */\n      sub\n        /* \"#utility.yul\":15302:15303   */\n      0x00\n        /* \"#utility.yul\":15291:15300   */\n      dup4\n        /* \"#utility.yul\":15287:15304   */\n      add\n        /* \"#utility.yul\":15280:15327   */\n      mstore\n        /* \"#utility.yul\":15344:15475   */\n      tag_460\n        /* \"#utility.yul\":15470:15474   */\n      dup2\n        /* \"#utility.yul\":15344:15475   */\n      tag_292\n      jump\t// in\n    tag_460:\n        /* \"#utility.yul\":15336:15475   */\n      swap1\n      pop\n        /* \"#utility.yul\":15063:15482   */\n      swap2\n      swap1\n      pop\n      jump\t// out\n        /* \"#utility.yul\":15488:15718   */\n    tag_293:\n        /* \"#utility.yul\":15628:15662   */\n      0x796f75277265206e6f74207468652074656163686572206f6620746869732063\n        /* \"#utility.yul\":15624:15625   */\n      0x00\n        /* \"#utility.yul\":15616:15622   */\n      dup3\n        /* \"#utility.yul\":15612:15626   */\n      add\n        /* \"#utility.yul\":15605:15663   */\n      mstore\n        /* \"#utility.yul\":15697:15710   */\n      0x6c61737320636f75727365000000000000000000000000000000000000000000\n        /* \"#utility.yul\":15692:15694   */\n      0x20\n        /* \"#utility.yul\":15684:15690   */\n      dup3\n        /* \"#utility.yul\":15680:15695   */\n      add\n        /* \"#utility.yul\":15673:15711   */\n      mstore\n        /* \"#utility.yul\":15488:15718   */\n      pop\n      jump\t// out\n        /* \"#utility.yul\":15724:16090   */\n    tag_294:\n        /* \"#utility.yul\":15866:15869   */\n      0x00\n        /* \"#utility.yul\":15887:15954   */\n      tag_463\n        /* \"#utility.yul\":15951:15953   */\n      0x2b\n        /* \"#utility.yul\":15946:15949   */\n      dup4\n        /* \"#utility.yul\":15887:15954   */\n      tag_284\n      jump\t// in\n    tag_463:\n        /* \"#utility.yul\":15880:15954   */\n      swap2\n      pop\n        /* \"#utility.yul\":15963:16056   */\n      tag_464\n        /* \"#utility.yul\":16052:16055   */\n      dup3\n        /* \"#utility.yul\":15963:16056   */\n      tag_293\n      jump\t// in\n    tag_464:\n        /* \"#utility.yul\":16081:16083   */\n      0x40\n        /* \"#utility.yul\":16076:16079   */\n      dup3\n        /* \"#utility.yul\":16072:16084   */\n      add\n        /* \"#utility.yul\":16065:16084   */\n      swap1\n      pop\n        /* \"#utility.yul\":15724:16090   */\n      swap2\n      swap1\n      pop\n      jump\t// out\n        /* \"#utility.yul\":16096:16515   */\n    tag_141:\n        /* \"#utility.yul\":16262:16266   */\n      0x00\n        /* \"#utility.yul\":16300:16302   */\n      0x20\n        /* \"#utility.yul\":16289:16298   */\n      dup3\n        /* \"#utility.yul\":16285:16303   */\n      add\n        /* \"#utility.yul\":16277:16303   */\n      swap1\n      pop\n        /* \"#utility.yul\":16349:16358   */\n      dup2\n        /* \"#utility.yul\":16343:16347   */\n      dup2\n        /* \"#utility.yul\":16339:16359   */\n      sub\n        /* \"#utility.yul\":16335:16336   */\n      0x00\n        /* \"#utility.yul\":16324:16333   */\n      dup4\n        /* \"#utility.yul\":16320:16337   */\n      add\n        /* \"#utility.yul\":16313:16360   */\n      mstore\n        /* \"#utility.yul\":16377:16508   */\n      tag_466\n        /* \"#utility.yul\":16503:16507   */\n      dup2\n        /* \"#utility.yul\":16377:16508   */\n      tag_294\n      jump\t// in\n    tag_466:\n        /* \"#utility.yul\":16369:16508   */\n      swap1\n      pop\n        /* \"#utility.yul\":16096:16515   */\n      swap2\n      swap1\n      pop\n      jump\t// out\n        /* \"#utility.yul\":16521:16754   */\n    tag_178:\n        /* \"#utility.yul\":16560:16563   */\n      0x00\n        /* \"#utility.yul\":16583:16607   */\n      tag_468\n        /* \"#utility.yul\":16601:16606   */\n      dup3\n        /* \"#utility.yul\":16583:16607   */\n      tag_267\n      jump\t// in\n    tag_468:\n        /* \"#utility.yul\":16574:16607   */\n      swap2\n      pop\n        /* \"#utility.yul\":16629:16695   */\n      0xffffffffffffffffffffffffffffffffffffffffffffffffffffffffffffffff\n        /* \"#utility.yul\":16622:16627   */\n      dup3\n        /* \"#utility.yul\":16619:16696   */\n      sub\n        /* \"#utility.yul\":16616:16719   */\n      tag_469\n      jumpi\n        /* \"#utility.yul\":16699:16717   */\n      tag_470\n      tag_278\n      jump\t// in\n    tag_470:\n        /* \"#utility.yul\":16616:16719   */\n    tag_469:\n        /* \"#utility.yul\":16746:16747   */\n      0x01\n        /* \"#utility.yul\":16739:16744   */\n      dup3\n        /* \"#utility.yul\":16735:16748   */\n      add\n        /* \"#utility.yul\":16728:16748   */\n      swap1\n      pop\n        /* \"#utility.yul\":16521:16754   */\n      swap2\n      swap1\n      pop\n      jump\t// out\n        /* \"#utility.yul\":16760:17108   */\n    tag_180:\n        /* \"#utility.yul\":16800:16807   */\n      0x00\n        /* \"#utility.yul\":16823:16843   */\n      tag_472\n        /* \"#utility.yul\":16841:16842   */\n      dup3\n        /* \"#utility.yul\":16823:16843   */\n      tag_267\n      jump\t// in\n    tag_472:\n        /* \"#utility.yul\":16818:16843   */\n      swap2\n      pop\n        /* \"#utility.yul\":16857:16877   */\n      tag_473\n        /* \"#utility.yul\":16875:16876   */\n      dup4\n        /* \"#utility.yul\":16857:16877   */\n      tag_267\n      jump\t// in\n    tag_473:\n        /* \"#utility.yul\":16852:16877   */\n      swap3\n      pop\n        /* \"#utility.yul\":17045:17046   */\n      dup2\n        /* \"#utility.yul\":16977:17043   */\n      0xffffffffffffffffffffffffffffffffffffffffffffffffffffffffffffffff\n        /* \"#utility.yul\":16973:17047   */\n      div\n        /* \"#utility.yul\":16970:16971   */\n      dup4\n        /* \"#utility.yul\":16967:17048   */\n      gt\n        /* \"#utility.yul\":16962:16963   */\n      dup3\n        /* \"#utility.yul\":16955:16964   */\n      iszero\n        /* \"#utility.yul\":16948:16965   */\n      iszero\n        /* \"#utility.yul\":16944:17049   */\n      and\n        /* \"#utility.yul\":16941:17072   */\n      iszero\n      tag_474\n      jumpi\n        /* \"#utility.yul\":17052:17070   */\n      tag_475\n      tag_278\n      jump\t// in\n    tag_475:\n        /* \"#utility.yul\":16941:17072   */\n    tag_474:\n        /* \"#utility.yul\":17100:17101   */\n      dup3\n        /* \"#utility.yul\":17097:17098   */\n      dup3\n        /* \"#utility.yul\":17093:17102   */\n      mul\n        /* \"#utility.yul\":17082:17102   */\n      swap1\n      pop\n        /* \"#utility.yul\":16760:17108   */\n      swap3\n      swap2\n      pop\n      pop\n      jump\t// out\n        /* \"#utility.yul\":17114:17339   */\n    tag_295:\n        /* \"#utility.yul\":17254:17288   */\n      0x4f776e61626c653a206e6577206f776e657220697320746865207a65726f2061\n        /* \"#utility.yul\":17250:17251   */\n      0x00\n        /* \"#utility.yul\":17242:17248   */\n      dup3\n        /* \"#utility.yul\":17238:17252   */\n      add\n        /* \"#utility.yul\":17231:17289   */\n      mstore\n        /* \"#utility.yul\":17323:17331   */\n      0x6464726573730000000000000000000000000000000000000000000000000000\n        /* \"#utility.yul\":17318:17320   */\n      0x20\n        /* \"#utility.yul\":17310:17316   */\n      dup3\n        /* \"#utility.yul\":17306:17321   */\n      add\n        /* \"#utility.yul\":17299:17332   */\n      mstore\n        /* \"#utility.yul\":17114:17339   */\n      pop\n      jump\t// out\n        /* \"#utility.yul\":17345:17711   */\n    tag_296:\n        /* \"#utility.yul\":17487:17490   */\n      0x00\n        /* \"#utility.yul\":17508:17575   */\n      tag_478\n        /* \"#utility.yul\":17572:17574   */\n      0x26\n        /* \"#utility.yul\":17567:17570   */\n      dup4\n        /* \"#utility.yul\":17508:17575   */\n      tag_284\n      jump\t// in\n    tag_478:\n        /* \"#utility.yul\":17501:17575   */\n      swap2\n      pop\n        /* \"#utility.yul\":17584:17677   */\n      tag_479\n        /* \"#utility.yul\":17673:17676   */\n      dup3\n        /* \"#utility.yul\":17584:17677   */\n      tag_295\n      jump\t// in\n    tag_479:\n        /* \"#utility.yul\":17702:17704   */\n      0x40\n        /* \"#utility.yul\":17697:17700   */\n      dup3\n        /* \"#utility.yul\":17693:17705   */\n      add\n        /* \"#utility.yul\":17686:17705   */\n      swap1\n      pop\n        /* \"#utility.yul\":17345:17711   */\n      swap2\n      swap1\n      pop\n      jump\t// out\n        /* \"#utility.yul\":17717:18136   */\n    tag_218:\n        /* \"#utility.yul\":17883:17887   */\n      0x00\n        /* \"#utility.yul\":17921:17923   */\n      0x20\n        /* \"#utility.yul\":17910:17919   */\n      dup3\n        /* \"#utility.yul\":17906:17924   */\n      add\n        /* \"#utility.yul\":17898:17924   */\n      swap1\n      pop\n        /* \"#utility.yul\":17970:17979   */\n      dup2\n        /* \"#utility.yul\":17964:17968   */\n      dup2\n        /* \"#utility.yul\":17960:17980   */\n      sub\n        /* \"#utility.yul\":17956:17957   */\n      0x00\n        /* \"#utility.yul\":17945:17954   */\n      dup4\n        /* \"#utility.yul\":17941:17958   */\n      add\n        /* \"#utility.yul\":17934:17981   */\n      mstore\n        /* \"#utility.yul\":17998:18129   */\n      tag_481\n        /* \"#utility.yul\":18124:18128   */\n      dup2\n        /* \"#utility.yul\":17998:18129   */\n      tag_296\n      jump\t// in\n    tag_481:\n        /* \"#utility.yul\":17990:18129   */\n      swap1\n      pop\n        /* \"#utility.yul\":17717:18136   */\n      swap2\n      swap1\n      pop\n      jump\t// out\n        /* \"#utility.yul\":18142:18324   */\n    tag_297:\n        /* \"#utility.yul\":18282:18316   */\n      0x4f776e61626c653a2063616c6c6572206973206e6f7420746865206f776e6572\n        /* \"#utility.yul\":18278:18279   */\n      0x00\n        /* \"#utility.yul\":18270:18276   */\n      dup3\n        /* \"#utility.yul\":18266:18280   */\n      add\n        /* \"#utility.yul\":18259:18317   */\n      mstore\n        /* \"#utility.yul\":18142:18324   */\n      pop\n      jump\t// out\n        /* \"#utility.yul\":18330:18696   */\n    tag_298:\n        /* \"#utility.yul\":18472:18475   */\n      0x00\n        /* \"#utility.yul\":18493:18560   */\n      tag_484\n        /* \"#utility.yul\":18557:18559   */\n      0x20\n        /* \"#utility.yul\":18552:18555   */\n      dup4\n        /* \"#utility.yul\":18493:18560   */\n      tag_284\n      jump\t// in\n    tag_484:\n        /* \"#utility.yul\":18486:18560   */\n      swap2\n      pop\n        /* \"#utility.yul\":18569:18662   */\n      tag_485\n        /* \"#utility.yul\":18658:18661   */\n      dup3\n        /* \"#utility.yul\":18569:18662   */\n      tag_297\n      jump\t// in\n    tag_485:\n        /* \"#utility.yul\":18687:18689   */\n      0x20\n        /* \"#utility.yul\":18682:18685   */\n      dup3\n        /* \"#utility.yul\":18678:18690   */\n      add\n        /* \"#utility.yul\":18671:18690   */\n      swap1\n      pop\n        /* \"#utility.yul\":18330:18696   */\n      swap2\n      swap1\n      pop\n      jump\t// out\n        /* \"#utility.yul\":18702:19121   */\n    tag_226:\n        /* \"#utility.yul\":18868:18872   */\n      0x00\n        /* \"#utility.yul\":18906:18908   */\n      0x20\n        /* \"#utility.yul\":18895:18904   */\n      dup3\n        /* \"#utility.yul\":18891:18909   */\n      add\n        /* \"#utility.yul\":18883:18909   */\n      swap1\n      pop\n        /* \"#utility.yul\":18955:18964   */\n      dup2\n        /* \"#utility.yul\":18949:18953   */\n      dup2\n        /* \"#utility.yul\":18945:18965   */\n      sub\n        /* \"#utility.yul\":18941:18942   */\n      0x00\n        /* \"#utility.yul\":18930:18939   */\n      dup4\n        /* \"#utility.yul\":18926:18943   */\n      add\n        /* \"#utility.yul\":18919:18966   */\n      mstore\n        /* \"#utility.yul\":18983:19114   */\n      tag_487\n        /* \"#utility.yul\":19109:19113   */\n      dup2\n        /* \"#utility.yul\":18983:19114   */\n      tag_298\n      jump\t// in\n    tag_487:\n        /* \"#utility.yul\":18975:19114   */\n      swap1\n      pop\n        /* \"#utility.yul\":18702:19121   */\n      swap2\n      swap1\n      pop\n      jump\t// out\n\n    auxdata: 0xa2646970667358221220b8dd43b70d78969cfa992dee987ac7b0afbdc5d1300603842538a6f25290761364736f6c634300080d0033\n}\n",
				"bytecode": {
					"linkReferences": {},
					"object": "608060405234801561001057600080fd5b5061002d61002261003260201b60201c565b61003a60201b60201c565b6100fe565b600033905090565b60008060009054906101000a900473ffffffffffffffffffffffffffffffffffffffff169050816000806101000a81548173ffffffffffffffffffffffffffffffffffffffff021916908373ffffffffffffffffffffffffffffffffffffffff1602179055508173ffffffffffffffffffffffffffffffffffffffff168173ffffffffffffffffffffffffffffffffffffffff167f8be0079c531659141344cd1fd0a4f28419497f9722a3daafe3b4186f6b6457e060405160405180910390a35050565b611b7f8061010d6000396000f3fe608060405234801561001057600080fd5b506004361061009e5760003560e01c8063715018a611610066578063715018a6146101575780638da5cb5b14610161578063c2ef37711461017f578063d304b1ea146101af578063f2fde38b146101df5761009e565b806302a3c89b146100a35780630b90cbc9146100d35780630dc0ffb1146100ef57806327b51db21461011f57806342de06191461013b575b600080fd5b6100bd60048036038101906100b891906111b8565b6101fb565b6040516100ca919061121a565b60405180910390f35b6100ed60048036038101906100e89190611293565b6102ac565b005b610109600480360381019061010491906111b8565b61036d565b6040516101169190611339565b60405180910390f35b61013960048036038101906101349190611380565b61039a565b005b61015560048036038101906101509190611293565b61062f565b005b61015f610789565b005b61016961079d565b604051610176919061141a565b60405180910390f35b61019960048036038101906101949190611435565b6107c6565b6040516101a6919061121a565b60405180910390f35b6101c960048036038101906101c491906111b8565b610b31565b6040516101d6919061121a565b60405180910390f35b6101f960048036038101906101f491906114ad565b610cd6565b005b6000610205610d59565b600061021083610dd7565b9050600360018281548110610228576102276114da565b5b9060005260206000209060060201600501546001838154811061024e5761024d6114da565b5b90600052602060002090600602016004015460018481548110610274576102736114da565b5b9060005260206000209060060201600301546102909190611538565b61029a9190611538565b6102a491906115bd565b915050919050565b6102b4610d59565b806002846040516102c59190611668565b9081526020016040518091039020836040516102e19190611668565b908152602001604051809103902060006101000a81548173ffffffffffffffffffffffffffffffffffffffff021916908373ffffffffffffffffffffffffffffffffffffffff1602179055507f80a01e1d3291c6b3092f33ed56018c7bf68c833d0ea02c22585a85453a95fb05838383604051610360939291906116c9565b60405180910390a1505050565b6000610377610d59565b600a610382836101fb565b106103905760019050610395565b600090505b919050565b60006103a583610dd7565b90506002600182815481106103bd576103bc6114da565b5b90600052602060002090600602016001016040516103db9190611802565b9081526020016040518091039020846040516103f79190611668565b908152602001604051809103902060009054906101000a900473ffffffffffffffffffffffffffffffffffffffff1673ffffffffffffffffffffffffffffffffffffffff163373ffffffffffffffffffffffffffffffffffffffff1614610493576040517f08c379a000000000000000000000000000000000000000000000000000000000815260040161048a9061188b565b60405180910390fd5b6104d2846040518060400160405280600781526020017f62696f6c6f677900000000000000000000000000000000000000000000000000815250610e8a565b156105065781600182815481106104ec576104eb6114da565b5b906000526020600020906006020160030181905550610629565b610545846040518060400160405280600581526020017f6d61746873000000000000000000000000000000000000000000000000000000815250610e8a565b1561057957816001828154811061055f5761055e6114da565b5b906000526020600020906006020160040181905550610628565b6105b8846040518060400160405280600681526020017f6672656e63680000000000000000000000000000000000000000000000000000815250610e8a565b156105ec5781600182815481106105d2576105d16114da565b5b906000526020600020906006020160050181905550610627565b6040517f08c379a000000000000000000000000000000000000000000000000000000000815260040161061e906118f7565b60405180910390fd5b5b5b50505050565b610637610d59565b60016040518060c001604052808581526020018481526020018373ffffffffffffffffffffffffffffffffffffffff16815260200160008152602001600081526020016000815250908060018154018082558091505060019003906000526020600020906006020160009091909190915060008201518160000190805190602001906106c4929190610fbb565b5060208201518160010190805190602001906106e1929190610fbb565b5060408201518160020160006101000a81548173ffffffffffffffffffffffffffffffffffffffff021916908373ffffffffffffffffffffffffffffffffffffffff160217905550606082015181600301556080820151816004015560a0820151816005015550507fc5a733a207b7a059be3101c664dd32331efcaa32bb12d0531ae1b7d4607a741583838360405161077c939291906116c9565b60405180910390a1505050565b610791610d59565b61079b6000610eef565b565b60008060009054906101000a900473ffffffffffffffffffffffffffffffffffffffff16905090565b60006002836040516107d89190611668565b9081526020016040518091039020826040516107f49190611668565b908152602001604051809103902060009054906101000a900473ffffffffffffffffffffffffffffffffffffffff1673ffffffffffffffffffffffffffffffffffffffff163373ffffffffffffffffffffffffffffffffffffffff1614610890576040517f08c379a000000000000000000000000000000000000000000000000000000000815260040161088790611989565b60405180910390fd5b60008060005b600180549050811015610b085761095a86600183815481106108bb576108ba6114da565b5b906000526020600020906006020160010180546108d79061173d565b80601f01602080910402602001604051908101604052809291908181526020018280546109039061173d565b80156109505780601f1061092557610100808354040283529160200191610950565b820191906000526020600020905b81548152906001019060200180831161093357829003601f168201915b5050505050610e8a565b15610af55761099e856040518060400160405280600781526020017f62696f6c6f677900000000000000000000000000000000000000000000000000815250610e8a565b156109e657600181815481106109b7576109b66114da565b5b906000526020600020906006020160030154836109d49190611538565b92506001826109e39190611538565b91505b610a25856040518060400160405280600581526020017f6d61746873000000000000000000000000000000000000000000000000000000815250610e8a565b15610a6d5760018181548110610a3e57610a3d6114da565b5b90600052602060002090600602016004015483610a5b9190611538565b9250600182610a6a9190611538565b91505b610aac856040518060400160405280600681526020017f6672656e63680000000000000000000000000000000000000000000000000000815250610e8a565b15610af45760018181548110610ac557610ac46114da565b5b90600052602060002090600602016005015483610ae29190611538565b9250600182610af19190611538565b91505b5b8080610b00906119a9565b915050610896565b50600081606484610b1991906119f1565b610b2391906115bd565b905080935050505092915050565b6000610b3b610d59565b60008060005b600180549050811015610cc057610c058560018381548110610b6657610b656114da565b5b90600052602060002090600602016001018054610b829061173d565b80601f0160208091040260200160405190810160405280929190818152602001828054610bae9061173d565b8015610bfb5780601f10610bd057610100808354040283529160200191610bfb565b820191906000526020600020905b815481529060010190602001808311610bde57829003601f168201915b5050505050610e8a565b15610cad5760018181548110610c1e57610c1d6114da565b5b90600052602060002090600602016005015460018281548110610c4457610c436114da565b5b90600052602060002090600602016004015460018381548110610c6a57610c696114da565b5b906000526020600020906006020160030154610c869190611538565b610c909190611538565b83610c9b9190611538565b9250600382610caa9190611538565b91505b8080610cb8906119a9565b915050610b41565b508082610ccd91906115bd565b92505050919050565b610cde610d59565b600073ffffffffffffffffffffffffffffffffffffffff168173ffffffffffffffffffffffffffffffffffffffff1603610d4d576040517f08c379a0000000000000000000000000000000000000000000000000000000008152600401610d4490611abd565b60405180910390fd5b610d5681610eef565b50565b610d61610fb3565b73ffffffffffffffffffffffffffffffffffffffff16610d7f61079d565b73ffffffffffffffffffffffffffffffffffffffff1614610dd5576040517f08c379a0000000000000000000000000000000000000000000000000000000008152600401610dcc90611b29565b60405180910390fd5b565b600080600090505b600180549050811015610e7f5782604051602001610dfd9190611668565b6040516020818303038152906040528051906020012060018281548110610e2757610e266114da565b5b9060005260206000209060060201600001604051602001610e489190611802565b6040516020818303038152906040528051906020012003610e6c5780915050610e85565b8080610e77906119a9565b915050610ddf565b50600090505b919050565b60008082604051602001610e9e9190611668565b6040516020818303038152906040528051906020012084604051602001610ec59190611668565b6040516020818303038152906040528051906020012003610ee557600190505b8091505092915050565b60008060009054906101000a900473ffffffffffffffffffffffffffffffffffffffff169050816000806101000a81548173ffffffffffffffffffffffffffffffffffffffff021916908373ffffffffffffffffffffffffffffffffffffffff1602179055508173ffffffffffffffffffffffffffffffffffffffff168173ffffffffffffffffffffffffffffffffffffffff167f8be0079c531659141344cd1fd0a4f28419497f9722a3daafe3b4186f6b6457e060405160405180910390a35050565b600033905090565b828054610fc79061173d565b90600052602060002090601f016020900481019282610fe95760008555611030565b82601f1061100257805160ff1916838001178555611030565b82800160010185558215611030579182015b8281111561102f578251825591602001919060010190611014565b5b50905061103d9190611041565b5090565b5b8082111561105a576000816000905550600101611042565b5090565b6000604051905090565b600080fd5b600080fd5b600080fd5b600080fd5b6000601f19601f8301169050919050565b7f4e487b7100000000000000000000000000000000000000000000000000000000600052604160045260246000fd5b6110c58261107c565b810181811067ffffffffffffffff821117156110e4576110e361108d565b5b80604052505050565b60006110f761105e565b905061110382826110bc565b919050565b600067ffffffffffffffff8211156111235761112261108d565b5b61112c8261107c565b9050602081019050919050565b82818337600083830152505050565b600061115b61115684611108565b6110ed565b90508281526020810184848401111561117757611176611077565b5b611182848285611139565b509392505050565b600082601f83011261119f5761119e611072565b5b81356111af848260208601611148565b91505092915050565b6000602082840312156111ce576111cd611068565b5b600082013567ffffffffffffffff8111156111ec576111eb61106d565b5b6111f88482850161118a565b91505092915050565b6000819050919050565b61121481611201565b82525050565b600060208201905061122f600083018461120b565b92915050565b600073ffffffffffffffffffffffffffffffffffffffff82169050919050565b600061126082611235565b9050919050565b61127081611255565b811461127b57600080fd5b50565b60008135905061128d81611267565b92915050565b6000806000606084860312156112ac576112ab611068565b5b600084013567ffffffffffffffff8111156112ca576112c961106d565b5b6112d68682870161118a565b935050602084013567ffffffffffffffff8111156112f7576112f661106d565b5b6113038682870161118a565b92505060406113148682870161127e565b9150509250925092565b60008115159050919050565b6113338161131e565b82525050565b600060208201905061134e600083018461132a565b92915050565b61135d81611201565b811461136857600080fd5b50565b60008135905061137a81611354565b92915050565b60008060006060848603121561139957611398611068565b5b600084013567ffffffffffffffff8111156113b7576113b661106d565b5b6113c38682870161118a565b935050602084013567ffffffffffffffff8111156113e4576113e361106d565b5b6113f08682870161118a565b92505060406114018682870161136b565b9150509250925092565b61141481611255565b82525050565b600060208201905061142f600083018461140b565b92915050565b6000806040838503121561144c5761144b611068565b5b600083013567ffffffffffffffff81111561146a5761146961106d565b5b6114768582860161118a565b925050602083013567ffffffffffffffff8111156114975761149661106d565b5b6114a38582860161118a565b9150509250929050565b6000602082840312156114c3576114c2611068565b5b60006114d18482850161127e565b91505092915050565b7f4e487b7100000000000000000000000000000000000000000000000000000000600052603260045260246000fd5b7f4e487b7100000000000000000000000000000000000000000000000000000000600052601160045260246000fd5b600061154382611201565b915061154e83611201565b9250827fffffffffffffffffffffffffffffffffffffffffffffffffffffffffffffffff0382111561158357611582611509565b5b828201905092915050565b7f4e487b7100000000000000000000000000000000000000000000000000000000600052601260045260246000fd5b60006115c882611201565b91506115d383611201565b9250826115e3576115e261158e565b5b828204905092915050565b600081519050919050565b600081905092915050565b60005b83811015611622578082015181840152602081019050611607565b83811115611631576000848401525b50505050565b6000611642826115ee565b61164c81856115f9565b935061165c818560208601611604565b80840191505092915050565b60006116748284611637565b915081905092915050565b600082825260208201905092915050565b600061169b826115ee565b6116a5818561167f565b93506116b5818560208601611604565b6116be8161107c565b840191505092915050565b600060608201905081810360008301526116e38186611690565b905081810360208301526116f78185611690565b9050611706604083018461140b565b949350505050565b7f4e487b7100000000000000000000000000000000000000000000000000000000600052602260045260246000fd5b6000600282049050600182168061175557607f821691505b6020821081036117685761176761170e565b5b50919050565b60008190508160005260206000209050919050565b600081546117908161173d565b61179a81866115f9565b945060018216600081146117b557600181146117c6576117f9565b60ff198316865281860193506117f9565b6117cf8561176e565b60005b838110156117f1578154818901526001820191506020810190506117d2565b838801955050505b50505092915050565b600061180e8284611783565b915081905092915050565b7f796f75207265206e6f74207468652074656163686572206f662074686973207360008201527f747564656e7420636f7572736500000000000000000000000000000000000000602082015250565b6000611875602d8361167f565b915061188082611819565b604082019050919050565b600060208201905081810360008301526118a481611868565b9050919050565b7f747970652061207265616c20636f757273650000000000000000000000000000600082015250565b60006118e160128361167f565b91506118ec826118ab565b602082019050919050565b60006020820190508181036000830152611910816118d4565b9050919050565b7f796f75277265206e6f74207468652074656163686572206f662074686973206360008201527f6c61737320636f75727365000000000000000000000000000000000000000000602082015250565b6000611973602b8361167f565b915061197e82611917565b604082019050919050565b600060208201905081810360008301526119a281611966565b9050919050565b60006119b482611201565b91507fffffffffffffffffffffffffffffffffffffffffffffffffffffffffffffffff82036119e6576119e5611509565b5b600182019050919050565b60006119fc82611201565b9150611a0783611201565b9250817fffffffffffffffffffffffffffffffffffffffffffffffffffffffffffffffff0483118215151615611a4057611a3f611509565b5b828202905092915050565b7f4f776e61626c653a206e6577206f776e657220697320746865207a65726f206160008201527f6464726573730000000000000000000000000000000000000000000000000000602082015250565b6000611aa760268361167f565b9150611ab282611a4b565b604082019050919050565b60006020820190508181036000830152611ad681611a9a565b9050919050565b7f4f776e61626c653a2063616c6c6572206973206e6f7420746865206f776e6572600082015250565b6000611b1360208361167f565b9150611b1e82611add565b602082019050919050565b60006020820190508181036000830152611b4281611b06565b905091905056fea2646970667358221220b8dd43b70d78969cfa992dee987ac7b0afbdc5d1300603842538a6f25290761364736f6c634300080d0033",
					"opcodes": "PUSH1 0x80 PUSH1 0x40 MSTORE CALLVALUE DUP1 ISZERO PUSH2 0x10 JUMPI PUSH1 0x0 DUP1 REVERT JUMPDEST POP PUSH2 0x2D PUSH2 0x22 PUSH2 0x32 PUSH1 0x20 SHL PUSH1 0x20 SHR JUMP JUMPDEST PUSH2 0x3A PUSH1 0x20 SHL PUSH1 0x20 SHR JUMP JUMPDEST PUSH2 0xFE JUMP JUMPDEST PUSH1 0x0 CALLER SWAP1 POP SWAP1 JUMP JUMPDEST PUSH1 0x0 DUP1 PUSH1 0x0 SWAP1 SLOAD SWAP1 PUSH2 0x100 EXP SWAP1 DIV PUSH20 0xFFFFFFFFFFFFFFFFFFFFFFFFFFFFFFFFFFFFFFFF AND SWAP1 POP DUP2 PUSH1 0x0 DUP1 PUSH2 0x100 EXP DUP2 SLOAD DUP2 PUSH20 0xFFFFFFFFFFFFFFFFFFFFFFFFFFFFFFFFFFFFFFFF MUL NOT AND SWAP1 DUP4 PUSH20 0xFFFFFFFFFFFFFFFFFFFFFFFFFFFFFFFFFFFFFFFF AND MUL OR SWAP1 SSTORE POP DUP2 PUSH20 0xFFFFFFFFFFFFFFFFFFFFFFFFFFFFFFFFFFFFFFFF AND DUP2 PUSH20 0xFFFFFFFFFFFFFFFFFFFFFFFFFFFFFFFFFFFFFFFF AND PUSH32 0x8BE0079C531659141344CD1FD0A4F28419497F9722A3DAAFE3B4186F6B6457E0 PUSH1 0x40 MLOAD PUSH1 0x40 MLOAD DUP1 SWAP2 SUB SWAP1 LOG3 POP POP JUMP JUMPDEST PUSH2 0x1B7F DUP1 PUSH2 0x10D PUSH1 0x0 CODECOPY PUSH1 0x0 RETURN INVALID PUSH1 0x80 PUSH1 0x40 MSTORE CALLVALUE DUP1 ISZERO PUSH2 0x10 JUMPI PUSH1 0x0 DUP1 REVERT JUMPDEST POP PUSH1 0x4 CALLDATASIZE LT PUSH2 0x9E JUMPI PUSH1 0x0 CALLDATALOAD PUSH1 0xE0 SHR DUP1 PUSH4 0x715018A6 GT PUSH2 0x66 JUMPI DUP1 PUSH4 0x715018A6 EQ PUSH2 0x157 JUMPI DUP1 PUSH4 0x8DA5CB5B EQ PUSH2 0x161 JUMPI DUP1 PUSH4 0xC2EF3771 EQ PUSH2 0x17F JUMPI DUP1 PUSH4 0xD304B1EA EQ PUSH2 0x1AF JUMPI DUP1 PUSH4 0xF2FDE38B EQ PUSH2 0x1DF JUMPI PUSH2 0x9E JUMP JUMPDEST DUP1 PUSH4 0x2A3C89B EQ PUSH2 0xA3 JUMPI DUP1 PUSH4 0xB90CBC9 EQ PUSH2 0xD3 JUMPI DUP1 PUSH4 0xDC0FFB1 EQ PUSH2 0xEF JUMPI DUP1 PUSH4 0x27B51DB2 EQ PUSH2 0x11F JUMPI DUP1 PUSH4 0x42DE0619 EQ PUSH2 0x13B JUMPI JUMPDEST PUSH1 0x0 DUP1 REVERT JUMPDEST PUSH2 0xBD PUSH1 0x4 DUP1 CALLDATASIZE SUB DUP2 ADD SWAP1 PUSH2 0xB8 SWAP2 SWAP1 PUSH2 0x11B8 JUMP JUMPDEST PUSH2 0x1FB JUMP JUMPDEST PUSH1 0x40 MLOAD PUSH2 0xCA SWAP2 SWAP1 PUSH2 0x121A JUMP JUMPDEST PUSH1 0x40 MLOAD DUP1 SWAP2 SUB SWAP1 RETURN JUMPDEST PUSH2 0xED PUSH1 0x4 DUP1 CALLDATASIZE SUB DUP2 ADD SWAP1 PUSH2 0xE8 SWAP2 SWAP1 PUSH2 0x1293 JUMP JUMPDEST PUSH2 0x2AC JUMP JUMPDEST STOP JUMPDEST PUSH2 0x109 PUSH1 0x4 DUP1 CALLDATASIZE SUB DUP2 ADD SWAP1 PUSH2 0x104 SWAP2 SWAP1 PUSH2 0x11B8 JUMP JUMPDEST PUSH2 0x36D JUMP JUMPDEST PUSH1 0x40 MLOAD PUSH2 0x116 SWAP2 SWAP1 PUSH2 0x1339 JUMP JUMPDEST PUSH1 0x40 MLOAD DUP1 SWAP2 SUB SWAP1 RETURN JUMPDEST PUSH2 0x139 PUSH1 0x4 DUP1 CALLDATASIZE SUB DUP2 ADD SWAP1 PUSH2 0x134 SWAP2 SWAP1 PUSH2 0x1380 JUMP JUMPDEST PUSH2 0x39A JUMP JUMPDEST STOP JUMPDEST PUSH2 0x155 PUSH1 0x4 DUP1 CALLDATASIZE SUB DUP2 ADD SWAP1 PUSH2 0x150 SWAP2 SWAP1 PUSH2 0x1293 JUMP JUMPDEST PUSH2 0x62F JUMP JUMPDEST STOP JUMPDEST PUSH2 0x15F PUSH2 0x789 JUMP JUMPDEST STOP JUMPDEST PUSH2 0x169 PUSH2 0x79D JUMP JUMPDEST PUSH1 0x40 MLOAD PUSH2 0x176 SWAP2 SWAP1 PUSH2 0x141A JUMP JUMPDEST PUSH1 0x40 MLOAD DUP1 SWAP2 SUB SWAP1 RETURN JUMPDEST PUSH2 0x199 PUSH1 0x4 DUP1 CALLDATASIZE SUB DUP2 ADD SWAP1 PUSH2 0x194 SWAP2 SWAP1 PUSH2 0x1435 JUMP JUMPDEST PUSH2 0x7C6 JUMP JUMPDEST PUSH1 0x40 MLOAD PUSH2 0x1A6 SWAP2 SWAP1 PUSH2 0x121A JUMP JUMPDEST PUSH1 0x40 MLOAD DUP1 SWAP2 SUB SWAP1 RETURN JUMPDEST PUSH2 0x1C9 PUSH1 0x4 DUP1 CALLDATASIZE SUB DUP2 ADD SWAP1 PUSH2 0x1C4 SWAP2 SWAP1 PUSH2 0x11B8 JUMP JUMPDEST PUSH2 0xB31 JUMP JUMPDEST PUSH1 0x40 MLOAD PUSH2 0x1D6 SWAP2 SWAP1 PUSH2 0x121A JUMP JUMPDEST PUSH1 0x40 MLOAD DUP1 SWAP2 SUB SWAP1 RETURN JUMPDEST PUSH2 0x1F9 PUSH1 0x4 DUP1 CALLDATASIZE SUB DUP2 ADD SWAP1 PUSH2 0x1F4 SWAP2 SWAP1 PUSH2 0x14AD JUMP JUMPDEST PUSH2 0xCD6 JUMP JUMPDEST STOP JUMPDEST PUSH1 0x0 PUSH2 0x205 PUSH2 0xD59 JUMP JUMPDEST PUSH1 0x0 PUSH2 0x210 DUP4 PUSH2 0xDD7 JUMP JUMPDEST SWAP1 POP PUSH1 0x3 PUSH1 0x1 DUP3 DUP2 SLOAD DUP2 LT PUSH2 0x228 JUMPI PUSH2 0x227 PUSH2 0x14DA JUMP JUMPDEST JUMPDEST SWAP1 PUSH1 0x0 MSTORE PUSH1 0x20 PUSH1 0x0 KECCAK256 SWAP1 PUSH1 0x6 MUL ADD PUSH1 0x5 ADD SLOAD PUSH1 0x1 DUP4 DUP2 SLOAD DUP2 LT PUSH2 0x24E JUMPI PUSH2 0x24D PUSH2 0x14DA JUMP JUMPDEST JUMPDEST SWAP1 PUSH1 0x0 MSTORE PUSH1 0x20 PUSH1 0x0 KECCAK256 SWAP1 PUSH1 0x6 MUL ADD PUSH1 0x4 ADD SLOAD PUSH1 0x1 DUP5 DUP2 SLOAD DUP2 LT PUSH2 0x274 JUMPI PUSH2 0x273 PUSH2 0x14DA JUMP JUMPDEST JUMPDEST SWAP1 PUSH1 0x0 MSTORE PUSH1 0x20 PUSH1 0x0 KECCAK256 SWAP1 PUSH1 0x6 MUL ADD PUSH1 0x3 ADD SLOAD PUSH2 0x290 SWAP2 SWAP1 PUSH2 0x1538 JUMP JUMPDEST PUSH2 0x29A SWAP2 SWAP1 PUSH2 0x1538 JUMP JUMPDEST PUSH2 0x2A4 SWAP2 SWAP1 PUSH2 0x15BD JUMP JUMPDEST SWAP2 POP POP SWAP2 SWAP1 POP JUMP JUMPDEST PUSH2 0x2B4 PUSH2 0xD59 JUMP JUMPDEST DUP1 PUSH1 0x2 DUP5 PUSH1 0x40 MLOAD PUSH2 0x2C5 SWAP2 SWAP1 PUSH2 0x1668 JUMP JUMPDEST SWAP1 DUP2 MSTORE PUSH1 0x20 ADD PUSH1 0x40 MLOAD DUP1 SWAP2 SUB SWAP1 KECCAK256 DUP4 PUSH1 0x40 MLOAD PUSH2 0x2E1 SWAP2 SWAP1 PUSH2 0x1668 JUMP JUMPDEST SWAP1 DUP2 MSTORE PUSH1 0x20 ADD PUSH1 0x40 MLOAD DUP1 SWAP2 SUB SWAP1 KECCAK256 PUSH1 0x0 PUSH2 0x100 EXP DUP2 SLOAD DUP2 PUSH20 0xFFFFFFFFFFFFFFFFFFFFFFFFFFFFFFFFFFFFFFFF MUL NOT AND SWAP1 DUP4 PUSH20 0xFFFFFFFFFFFFFFFFFFFFFFFFFFFFFFFFFFFFFFFF AND MUL OR SWAP1 SSTORE POP PUSH32 0x80A01E1D3291C6B3092F33ED56018C7BF68C833D0EA02C22585A85453A95FB05 DUP4 DUP4 DUP4 PUSH1 0x40 MLOAD PUSH2 0x360 SWAP4 SWAP3 SWAP2 SWAP1 PUSH2 0x16C9 JUMP JUMPDEST PUSH1 0x40 MLOAD DUP1 SWAP2 SUB SWAP1 LOG1 POP POP POP JUMP JUMPDEST PUSH1 0x0 PUSH2 0x377 PUSH2 0xD59 JUMP JUMPDEST PUSH1 0xA PUSH2 0x382 DUP4 PUSH2 0x1FB JUMP JUMPDEST LT PUSH2 0x390 JUMPI PUSH1 0x1 SWAP1 POP PUSH2 0x395 JUMP JUMPDEST PUSH1 0x0 SWAP1 POP JUMPDEST SWAP2 SWAP1 POP JUMP JUMPDEST PUSH1 0x0 PUSH2 0x3A5 DUP4 PUSH2 0xDD7 JUMP JUMPDEST SWAP1 POP PUSH1 0x2 PUSH1 0x1 DUP3 DUP2 SLOAD DUP2 LT PUSH2 0x3BD JUMPI PUSH2 0x3BC PUSH2 0x14DA JUMP JUMPDEST JUMPDEST SWAP1 PUSH1 0x0 MSTORE PUSH1 0x20 PUSH1 0x0 KECCAK256 SWAP1 PUSH1 0x6 MUL ADD PUSH1 0x1 ADD PUSH1 0x40 MLOAD PUSH2 0x3DB SWAP2 SWAP1 PUSH2 0x1802 JUMP JUMPDEST SWAP1 DUP2 MSTORE PUSH1 0x20 ADD PUSH1 0x40 MLOAD DUP1 SWAP2 SUB SWAP1 KECCAK256 DUP5 PUSH1 0x40 MLOAD PUSH2 0x3F7 SWAP2 SWAP1 PUSH2 0x1668 JUMP JUMPDEST SWAP1 DUP2 MSTORE PUSH1 0x20 ADD PUSH1 0x40 MLOAD DUP1 SWAP2 SUB SWAP1 KECCAK256 PUSH1 0x0 SWAP1 SLOAD SWAP1 PUSH2 0x100 EXP SWAP1 DIV PUSH20 0xFFFFFFFFFFFFFFFFFFFFFFFFFFFFFFFFFFFFFFFF AND PUSH20 0xFFFFFFFFFFFFFFFFFFFFFFFFFFFFFFFFFFFFFFFF AND CALLER PUSH20 0xFFFFFFFFFFFFFFFFFFFFFFFFFFFFFFFFFFFFFFFF AND EQ PUSH2 0x493 JUMPI PUSH1 0x40 MLOAD PUSH32 0x8C379A000000000000000000000000000000000000000000000000000000000 DUP2 MSTORE PUSH1 0x4 ADD PUSH2 0x48A SWAP1 PUSH2 0x188B JUMP JUMPDEST PUSH1 0x40 MLOAD DUP1 SWAP2 SUB SWAP1 REVERT JUMPDEST PUSH2 0x4D2 DUP5 PUSH1 0x40 MLOAD DUP1 PUSH1 0x40 ADD PUSH1 0x40 MSTORE DUP1 PUSH1 0x7 DUP2 MSTORE PUSH1 0x20 ADD PUSH32 0x62696F6C6F677900000000000000000000000000000000000000000000000000 DUP2 MSTORE POP PUSH2 0xE8A JUMP JUMPDEST ISZERO PUSH2 0x506 JUMPI DUP2 PUSH1 0x1 DUP3 DUP2 SLOAD DUP2 LT PUSH2 0x4EC JUMPI PUSH2 0x4EB PUSH2 0x14DA JUMP JUMPDEST JUMPDEST SWAP1 PUSH1 0x0 MSTORE PUSH1 0x20 PUSH1 0x0 KECCAK256 SWAP1 PUSH1 0x6 MUL ADD PUSH1 0x3 ADD DUP2 SWAP1 SSTORE POP PUSH2 0x629 JUMP JUMPDEST PUSH2 0x545 DUP5 PUSH1 0x40 MLOAD DUP1 PUSH1 0x40 ADD PUSH1 0x40 MSTORE DUP1 PUSH1 0x5 DUP2 MSTORE PUSH1 0x20 ADD PUSH32 0x6D61746873000000000000000000000000000000000000000000000000000000 DUP2 MSTORE POP PUSH2 0xE8A JUMP JUMPDEST ISZERO PUSH2 0x579 JUMPI DUP2 PUSH1 0x1 DUP3 DUP2 SLOAD DUP2 LT PUSH2 0x55F JUMPI PUSH2 0x55E PUSH2 0x14DA JUMP JUMPDEST JUMPDEST SWAP1 PUSH1 0x0 MSTORE PUSH1 0x20 PUSH1 0x0 KECCAK256 SWAP1 PUSH1 0x6 MUL ADD PUSH1 0x4 ADD DUP2 SWAP1 SSTORE POP PUSH2 0x628 JUMP JUMPDEST PUSH2 0x5B8 DUP5 PUSH1 0x40 MLOAD DUP1 PUSH1 0x40 ADD PUSH1 0x40 MSTORE DUP1 PUSH1 0x6 DUP2 MSTORE PUSH1 0x20 ADD PUSH32 0x6672656E63680000000000000000000000000000000000000000000000000000 DUP2 MSTORE POP PUSH2 0xE8A JUMP JUMPDEST ISZERO PUSH2 0x5EC JUMPI DUP2 PUSH1 0x1 DUP3 DUP2 SLOAD DUP2 LT PUSH2 0x5D2 JUMPI PUSH2 0x5D1 PUSH2 0x14DA JUMP JUMPDEST JUMPDEST SWAP1 PUSH1 0x0 MSTORE PUSH1 0x20 PUSH1 0x0 KECCAK256 SWAP1 PUSH1 0x6 MUL ADD PUSH1 0x5 ADD DUP2 SWAP1 SSTORE POP PUSH2 0x627 JUMP JUMPDEST PUSH1 0x40 MLOAD PUSH32 0x8C379A000000000000000000000000000000000000000000000000000000000 DUP2 MSTORE PUSH1 0x4 ADD PUSH2 0x61E SWAP1 PUSH2 0x18F7 JUMP JUMPDEST PUSH1 0x40 MLOAD DUP1 SWAP2 SUB SWAP1 REVERT JUMPDEST JUMPDEST JUMPDEST POP POP POP POP JUMP JUMPDEST PUSH2 0x637 PUSH2 0xD59 JUMP JUMPDEST PUSH1 0x1 PUSH1 0x40 MLOAD DUP1 PUSH1 0xC0 ADD PUSH1 0x40 MSTORE DUP1 DUP6 DUP2 MSTORE PUSH1 0x20 ADD DUP5 DUP2 MSTORE PUSH1 0x20 ADD DUP4 PUSH20 0xFFFFFFFFFFFFFFFFFFFFFFFFFFFFFFFFFFFFFFFF AND DUP2 MSTORE PUSH1 0x20 ADD PUSH1 0x0 DUP2 MSTORE PUSH1 0x20 ADD PUSH1 0x0 DUP2 MSTORE PUSH1 0x20 ADD PUSH1 0x0 DUP2 MSTORE POP SWAP1 DUP1 PUSH1 0x1 DUP2 SLOAD ADD DUP1 DUP3 SSTORE DUP1 SWAP2 POP POP PUSH1 0x1 SWAP1 SUB SWAP1 PUSH1 0x0 MSTORE PUSH1 0x20 PUSH1 0x0 KECCAK256 SWAP1 PUSH1 0x6 MUL ADD PUSH1 0x0 SWAP1 SWAP2 SWAP1 SWAP2 SWAP1 SWAP2 POP PUSH1 0x0 DUP3 ADD MLOAD DUP2 PUSH1 0x0 ADD SWAP1 DUP1 MLOAD SWAP1 PUSH1 0x20 ADD SWAP1 PUSH2 0x6C4 SWAP3 SWAP2 SWAP1 PUSH2 0xFBB JUMP JUMPDEST POP PUSH1 0x20 DUP3 ADD MLOAD DUP2 PUSH1 0x1 ADD SWAP1 DUP1 MLOAD SWAP1 PUSH1 0x20 ADD SWAP1 PUSH2 0x6E1 SWAP3 SWAP2 SWAP1 PUSH2 0xFBB JUMP JUMPDEST POP PUSH1 0x40 DUP3 ADD MLOAD DUP2 PUSH1 0x2 ADD PUSH1 0x0 PUSH2 0x100 EXP DUP2 SLOAD DUP2 PUSH20 0xFFFFFFFFFFFFFFFFFFFFFFFFFFFFFFFFFFFFFFFF MUL NOT AND SWAP1 DUP4 PUSH20 0xFFFFFFFFFFFFFFFFFFFFFFFFFFFFFFFFFFFFFFFF AND MUL OR SWAP1 SSTORE POP PUSH1 0x60 DUP3 ADD MLOAD DUP2 PUSH1 0x3 ADD SSTORE PUSH1 0x80 DUP3 ADD MLOAD DUP2 PUSH1 0x4 ADD SSTORE PUSH1 0xA0 DUP3 ADD MLOAD DUP2 PUSH1 0x5 ADD SSTORE POP POP PUSH32 0xC5A733A207B7A059BE3101C664DD32331EFCAA32BB12D0531AE1B7D4607A7415 DUP4 DUP4 DUP4 PUSH1 0x40 MLOAD PUSH2 0x77C SWAP4 SWAP3 SWAP2 SWAP1 PUSH2 0x16C9 JUMP JUMPDEST PUSH1 0x40 MLOAD DUP1 SWAP2 SUB SWAP1 LOG1 POP POP POP JUMP JUMPDEST PUSH2 0x791 PUSH2 0xD59 JUMP JUMPDEST PUSH2 0x79B PUSH1 0x0 PUSH2 0xEEF JUMP JUMPDEST JUMP JUMPDEST PUSH1 0x0 DUP1 PUSH1 0x0 SWAP1 SLOAD SWAP1 PUSH2 0x100 EXP SWAP1 DIV PUSH20 0xFFFFFFFFFFFFFFFFFFFFFFFFFFFFFFFFFFFFFFFF AND SWAP1 POP SWAP1 JUMP JUMPDEST PUSH1 0x0 PUSH1 0x2 DUP4 PUSH1 0x40 MLOAD PUSH2 0x7D8 SWAP2 SWAP1 PUSH2 0x1668 JUMP JUMPDEST SWAP1 DUP2 MSTORE PUSH1 0x20 ADD PUSH1 0x40 MLOAD DUP1 SWAP2 SUB SWAP1 KECCAK256 DUP3 PUSH1 0x40 MLOAD PUSH2 0x7F4 SWAP2 SWAP1 PUSH2 0x1668 JUMP JUMPDEST SWAP1 DUP2 MSTORE PUSH1 0x20 ADD PUSH1 0x40 MLOAD DUP1 SWAP2 SUB SWAP1 KECCAK256 PUSH1 0x0 SWAP1 SLOAD SWAP1 PUSH2 0x100 EXP SWAP1 DIV PUSH20 0xFFFFFFFFFFFFFFFFFFFFFFFFFFFFFFFFFFFFFFFF AND PUSH20 0xFFFFFFFFFFFFFFFFFFFFFFFFFFFFFFFFFFFFFFFF AND CALLER PUSH20 0xFFFFFFFFFFFFFFFFFFFFFFFFFFFFFFFFFFFFFFFF AND EQ PUSH2 0x890 JUMPI PUSH1 0x40 MLOAD PUSH32 0x8C379A000000000000000000000000000000000000000000000000000000000 DUP2 MSTORE PUSH1 0x4 ADD PUSH2 0x887 SWAP1 PUSH2 0x1989 JUMP JUMPDEST PUSH1 0x40 MLOAD DUP1 SWAP2 SUB SWAP1 REVERT JUMPDEST PUSH1 0x0 DUP1 PUSH1 0x0 JUMPDEST PUSH1 0x1 DUP1 SLOAD SWAP1 POP DUP2 LT ISZERO PUSH2 0xB08 JUMPI PUSH2 0x95A DUP7 PUSH1 0x1 DUP4 DUP2 SLOAD DUP2 LT PUSH2 0x8BB JUMPI PUSH2 0x8BA PUSH2 0x14DA JUMP JUMPDEST JUMPDEST SWAP1 PUSH1 0x0 MSTORE PUSH1 0x20 PUSH1 0x0 KECCAK256 SWAP1 PUSH1 0x6 MUL ADD PUSH1 0x1 ADD DUP1 SLOAD PUSH2 0x8D7 SWAP1 PUSH2 0x173D JUMP JUMPDEST DUP1 PUSH1 0x1F ADD PUSH1 0x20 DUP1 SWAP2 DIV MUL PUSH1 0x20 ADD PUSH1 0x40 MLOAD SWAP1 DUP2 ADD PUSH1 0x40 MSTORE DUP1 SWAP3 SWAP2 SWAP1 DUP2 DUP2 MSTORE PUSH1 0x20 ADD DUP3 DUP1 SLOAD PUSH2 0x903 SWAP1 PUSH2 0x173D JUMP JUMPDEST DUP1 ISZERO PUSH2 0x950 JUMPI DUP1 PUSH1 0x1F LT PUSH2 0x925 JUMPI PUSH2 0x100 DUP1 DUP4 SLOAD DIV MUL DUP4 MSTORE SWAP2 PUSH1 0x20 ADD SWAP2 PUSH2 0x950 JUMP JUMPDEST DUP3 ADD SWAP2 SWAP1 PUSH1 0x0 MSTORE PUSH1 0x20 PUSH1 0x0 KECCAK256 SWAP1 JUMPDEST DUP2 SLOAD DUP2 MSTORE SWAP1 PUSH1 0x1 ADD SWAP1 PUSH1 0x20 ADD DUP1 DUP4 GT PUSH2 0x933 JUMPI DUP3 SWAP1 SUB PUSH1 0x1F AND DUP3 ADD SWAP2 JUMPDEST POP POP POP POP POP PUSH2 0xE8A JUMP JUMPDEST ISZERO PUSH2 0xAF5 JUMPI PUSH2 0x99E DUP6 PUSH1 0x40 MLOAD DUP1 PUSH1 0x40 ADD PUSH1 0x40 MSTORE DUP1 PUSH1 0x7 DUP2 MSTORE PUSH1 0x20 ADD PUSH32 0x62696F6C6F677900000000000000000000000000000000000000000000000000 DUP2 MSTORE POP PUSH2 0xE8A JUMP JUMPDEST ISZERO PUSH2 0x9E6 JUMPI PUSH1 0x1 DUP2 DUP2 SLOAD DUP2 LT PUSH2 0x9B7 JUMPI PUSH2 0x9B6 PUSH2 0x14DA JUMP JUMPDEST JUMPDEST SWAP1 PUSH1 0x0 MSTORE PUSH1 0x20 PUSH1 0x0 KECCAK256 SWAP1 PUSH1 0x6 MUL ADD PUSH1 0x3 ADD SLOAD DUP4 PUSH2 0x9D4 SWAP2 SWAP1 PUSH2 0x1538 JUMP JUMPDEST SWAP3 POP PUSH1 0x1 DUP3 PUSH2 0x9E3 SWAP2 SWAP1 PUSH2 0x1538 JUMP JUMPDEST SWAP2 POP JUMPDEST PUSH2 0xA25 DUP6 PUSH1 0x40 MLOAD DUP1 PUSH1 0x40 ADD PUSH1 0x40 MSTORE DUP1 PUSH1 0x5 DUP2 MSTORE PUSH1 0x20 ADD PUSH32 0x6D61746873000000000000000000000000000000000000000000000000000000 DUP2 MSTORE POP PUSH2 0xE8A JUMP JUMPDEST ISZERO PUSH2 0xA6D JUMPI PUSH1 0x1 DUP2 DUP2 SLOAD DUP2 LT PUSH2 0xA3E JUMPI PUSH2 0xA3D PUSH2 0x14DA JUMP JUMPDEST JUMPDEST SWAP1 PUSH1 0x0 MSTORE PUSH1 0x20 PUSH1 0x0 KECCAK256 SWAP1 PUSH1 0x6 MUL ADD PUSH1 0x4 ADD SLOAD DUP4 PUSH2 0xA5B SWAP2 SWAP1 PUSH2 0x1538 JUMP JUMPDEST SWAP3 POP PUSH1 0x1 DUP3 PUSH2 0xA6A SWAP2 SWAP1 PUSH2 0x1538 JUMP JUMPDEST SWAP2 POP JUMPDEST PUSH2 0xAAC DUP6 PUSH1 0x40 MLOAD DUP1 PUSH1 0x40 ADD PUSH1 0x40 MSTORE DUP1 PUSH1 0x6 DUP2 MSTORE PUSH1 0x20 ADD PUSH32 0x6672656E63680000000000000000000000000000000000000000000000000000 DUP2 MSTORE POP PUSH2 0xE8A JUMP JUMPDEST ISZERO PUSH2 0xAF4 JUMPI PUSH1 0x1 DUP2 DUP2 SLOAD DUP2 LT PUSH2 0xAC5 JUMPI PUSH2 0xAC4 PUSH2 0x14DA JUMP JUMPDEST JUMPDEST SWAP1 PUSH1 0x0 MSTORE PUSH1 0x20 PUSH1 0x0 KECCAK256 SWAP1 PUSH1 0x6 MUL ADD PUSH1 0x5 ADD SLOAD DUP4 PUSH2 0xAE2 SWAP2 SWAP1 PUSH2 0x1538 JUMP JUMPDEST SWAP3 POP PUSH1 0x1 DUP3 PUSH2 0xAF1 SWAP2 SWAP1 PUSH2 0x1538 JUMP JUMPDEST SWAP2 POP JUMPDEST JUMPDEST DUP1 DUP1 PUSH2 0xB00 SWAP1 PUSH2 0x19A9 JUMP JUMPDEST SWAP2 POP POP PUSH2 0x896 JUMP JUMPDEST POP PUSH1 0x0 DUP2 PUSH1 0x64 DUP5 PUSH2 0xB19 SWAP2 SWAP1 PUSH2 0x19F1 JUMP JUMPDEST PUSH2 0xB23 SWAP2 SWAP1 PUSH2 0x15BD JUMP JUMPDEST SWAP1 POP DUP1 SWAP4 POP POP POP POP SWAP3 SWAP2 POP POP JUMP JUMPDEST PUSH1 0x0 PUSH2 0xB3B PUSH2 0xD59 JUMP JUMPDEST PUSH1 0x0 DUP1 PUSH1 0x0 JUMPDEST PUSH1 0x1 DUP1 SLOAD SWAP1 POP DUP2 LT ISZERO PUSH2 0xCC0 JUMPI PUSH2 0xC05 DUP6 PUSH1 0x1 DUP4 DUP2 SLOAD DUP2 LT PUSH2 0xB66 JUMPI PUSH2 0xB65 PUSH2 0x14DA JUMP JUMPDEST JUMPDEST SWAP1 PUSH1 0x0 MSTORE PUSH1 0x20 PUSH1 0x0 KECCAK256 SWAP1 PUSH1 0x6 MUL ADD PUSH1 0x1 ADD DUP1 SLOAD PUSH2 0xB82 SWAP1 PUSH2 0x173D JUMP JUMPDEST DUP1 PUSH1 0x1F ADD PUSH1 0x20 DUP1 SWAP2 DIV MUL PUSH1 0x20 ADD PUSH1 0x40 MLOAD SWAP1 DUP2 ADD PUSH1 0x40 MSTORE DUP1 SWAP3 SWAP2 SWAP1 DUP2 DUP2 MSTORE PUSH1 0x20 ADD DUP3 DUP1 SLOAD PUSH2 0xBAE SWAP1 PUSH2 0x173D JUMP JUMPDEST DUP1 ISZERO PUSH2 0xBFB JUMPI DUP1 PUSH1 0x1F LT PUSH2 0xBD0 JUMPI PUSH2 0x100 DUP1 DUP4 SLOAD DIV MUL DUP4 MSTORE SWAP2 PUSH1 0x20 ADD SWAP2 PUSH2 0xBFB JUMP JUMPDEST DUP3 ADD SWAP2 SWAP1 PUSH1 0x0 MSTORE PUSH1 0x20 PUSH1 0x0 KECCAK256 SWAP1 JUMPDEST DUP2 SLOAD DUP2 MSTORE SWAP1 PUSH1 0x1 ADD SWAP1 PUSH1 0x20 ADD DUP1 DUP4 GT PUSH2 0xBDE JUMPI DUP3 SWAP1 SUB PUSH1 0x1F AND DUP3 ADD SWAP2 JUMPDEST POP POP POP POP POP PUSH2 0xE8A JUMP JUMPDEST ISZERO PUSH2 0xCAD JUMPI PUSH1 0x1 DUP2 DUP2 SLOAD DUP2 LT PUSH2 0xC1E JUMPI PUSH2 0xC1D PUSH2 0x14DA JUMP JUMPDEST JUMPDEST SWAP1 PUSH1 0x0 MSTORE PUSH1 0x20 PUSH1 0x0 KECCAK256 SWAP1 PUSH1 0x6 MUL ADD PUSH1 0x5 ADD SLOAD PUSH1 0x1 DUP3 DUP2 SLOAD DUP2 LT PUSH2 0xC44 JUMPI PUSH2 0xC43 PUSH2 0x14DA JUMP JUMPDEST JUMPDEST SWAP1 PUSH1 0x0 MSTORE PUSH1 0x20 PUSH1 0x0 KECCAK256 SWAP1 PUSH1 0x6 MUL ADD PUSH1 0x4 ADD SLOAD PUSH1 0x1 DUP4 DUP2 SLOAD DUP2 LT PUSH2 0xC6A JUMPI PUSH2 0xC69 PUSH2 0x14DA JUMP JUMPDEST JUMPDEST SWAP1 PUSH1 0x0 MSTORE PUSH1 0x20 PUSH1 0x0 KECCAK256 SWAP1 PUSH1 0x6 MUL ADD PUSH1 0x3 ADD SLOAD PUSH2 0xC86 SWAP2 SWAP1 PUSH2 0x1538 JUMP JUMPDEST PUSH2 0xC90 SWAP2 SWAP1 PUSH2 0x1538 JUMP JUMPDEST DUP4 PUSH2 0xC9B SWAP2 SWAP1 PUSH2 0x1538 JUMP JUMPDEST SWAP3 POP PUSH1 0x3 DUP3 PUSH2 0xCAA SWAP2 SWAP1 PUSH2 0x1538 JUMP JUMPDEST SWAP2 POP JUMPDEST DUP1 DUP1 PUSH2 0xCB8 SWAP1 PUSH2 0x19A9 JUMP JUMPDEST SWAP2 POP POP PUSH2 0xB41 JUMP JUMPDEST POP DUP1 DUP3 PUSH2 0xCCD SWAP2 SWAP1 PUSH2 0x15BD JUMP JUMPDEST SWAP3 POP POP POP SWAP2 SWAP1 POP JUMP JUMPDEST PUSH2 0xCDE PUSH2 0xD59 JUMP JUMPDEST PUSH1 0x0 PUSH20 0xFFFFFFFFFFFFFFFFFFFFFFFFFFFFFFFFFFFFFFFF AND DUP2 PUSH20 0xFFFFFFFFFFFFFFFFFFFFFFFFFFFFFFFFFFFFFFFF AND SUB PUSH2 0xD4D JUMPI PUSH1 0x40 MLOAD PUSH32 0x8C379A000000000000000000000000000000000000000000000000000000000 DUP2 MSTORE PUSH1 0x4 ADD PUSH2 0xD44 SWAP1 PUSH2 0x1ABD JUMP JUMPDEST PUSH1 0x40 MLOAD DUP1 SWAP2 SUB SWAP1 REVERT JUMPDEST PUSH2 0xD56 DUP2 PUSH2 0xEEF JUMP JUMPDEST POP JUMP JUMPDEST PUSH2 0xD61 PUSH2 0xFB3 JUMP JUMPDEST PUSH20 0xFFFFFFFFFFFFFFFFFFFFFFFFFFFFFFFFFFFFFFFF AND PUSH2 0xD7F PUSH2 0x79D JUMP JUMPDEST PUSH20 0xFFFFFFFFFFFFFFFFFFFFFFFFFFFFFFFFFFFFFFFF AND EQ PUSH2 0xDD5 JUMPI PUSH1 0x40 MLOAD PUSH32 0x8C379A000000000000000000000000000000000000000000000000000000000 DUP2 MSTORE PUSH1 0x4 ADD PUSH2 0xDCC SWAP1 PUSH2 0x1B29 JUMP JUMPDEST PUSH1 0x40 MLOAD DUP1 SWAP2 SUB SWAP1 REVERT JUMPDEST JUMP JUMPDEST PUSH1 0x0 DUP1 PUSH1 0x0 SWAP1 POP JUMPDEST PUSH1 0x1 DUP1 SLOAD SWAP1 POP DUP2 LT ISZERO PUSH2 0xE7F JUMPI DUP3 PUSH1 0x40 MLOAD PUSH1 0x20 ADD PUSH2 0xDFD SWAP2 SWAP1 PUSH2 0x1668 JUMP JUMPDEST PUSH1 0x40 MLOAD PUSH1 0x20 DUP2 DUP4 SUB SUB DUP2 MSTORE SWAP1 PUSH1 0x40 MSTORE DUP1 MLOAD SWAP1 PUSH1 0x20 ADD KECCAK256 PUSH1 0x1 DUP3 DUP2 SLOAD DUP2 LT PUSH2 0xE27 JUMPI PUSH2 0xE26 PUSH2 0x14DA JUMP JUMPDEST JUMPDEST SWAP1 PUSH1 0x0 MSTORE PUSH1 0x20 PUSH1 0x0 KECCAK256 SWAP1 PUSH1 0x6 MUL ADD PUSH1 0x0 ADD PUSH1 0x40 MLOAD PUSH1 0x20 ADD PUSH2 0xE48 SWAP2 SWAP1 PUSH2 0x1802 JUMP JUMPDEST PUSH1 0x40 MLOAD PUSH1 0x20 DUP2 DUP4 SUB SUB DUP2 MSTORE SWAP1 PUSH1 0x40 MSTORE DUP1 MLOAD SWAP1 PUSH1 0x20 ADD KECCAK256 SUB PUSH2 0xE6C JUMPI DUP1 SWAP2 POP POP PUSH2 0xE85 JUMP JUMPDEST DUP1 DUP1 PUSH2 0xE77 SWAP1 PUSH2 0x19A9 JUMP JUMPDEST SWAP2 POP POP PUSH2 0xDDF JUMP JUMPDEST POP PUSH1 0x0 SWAP1 POP JUMPDEST SWAP2 SWAP1 POP JUMP JUMPDEST PUSH1 0x0 DUP1 DUP3 PUSH1 0x40 MLOAD PUSH1 0x20 ADD PUSH2 0xE9E SWAP2 SWAP1 PUSH2 0x1668 JUMP JUMPDEST PUSH1 0x40 MLOAD PUSH1 0x20 DUP2 DUP4 SUB SUB DUP2 MSTORE SWAP1 PUSH1 0x40 MSTORE DUP1 MLOAD SWAP1 PUSH1 0x20 ADD KECCAK256 DUP5 PUSH1 0x40 MLOAD PUSH1 0x20 ADD PUSH2 0xEC5 SWAP2 SWAP1 PUSH2 0x1668 JUMP JUMPDEST PUSH1 0x40 MLOAD PUSH1 0x20 DUP2 DUP4 SUB SUB DUP2 MSTORE SWAP1 PUSH1 0x40 MSTORE DUP1 MLOAD SWAP1 PUSH1 0x20 ADD KECCAK256 SUB PUSH2 0xEE5 JUMPI PUSH1 0x1 SWAP1 POP JUMPDEST DUP1 SWAP2 POP POP SWAP3 SWAP2 POP POP JUMP JUMPDEST PUSH1 0x0 DUP1 PUSH1 0x0 SWAP1 SLOAD SWAP1 PUSH2 0x100 EXP SWAP1 DIV PUSH20 0xFFFFFFFFFFFFFFFFFFFFFFFFFFFFFFFFFFFFFFFF AND SWAP1 POP DUP2 PUSH1 0x0 DUP1 PUSH2 0x100 EXP DUP2 SLOAD DUP2 PUSH20 0xFFFFFFFFFFFFFFFFFFFFFFFFFFFFFFFFFFFFFFFF MUL NOT AND SWAP1 DUP4 PUSH20 0xFFFFFFFFFFFFFFFFFFFFFFFFFFFFFFFFFFFFFFFF AND MUL OR SWAP1 SSTORE POP DUP2 PUSH20 0xFFFFFFFFFFFFFFFFFFFFFFFFFFFFFFFFFFFFFFFF AND DUP2 PUSH20 0xFFFFFFFFFFFFFFFFFFFFFFFFFFFFFFFFFFFFFFFF AND PUSH32 0x8BE0079C531659141344CD1FD0A4F28419497F9722A3DAAFE3B4186F6B6457E0 PUSH1 0x40 MLOAD PUSH1 0x40 MLOAD DUP1 SWAP2 SUB SWAP1 LOG3 POP POP JUMP JUMPDEST PUSH1 0x0 CALLER SWAP1 POP SWAP1 JUMP JUMPDEST DUP3 DUP1 SLOAD PUSH2 0xFC7 SWAP1 PUSH2 0x173D JUMP JUMPDEST SWAP1 PUSH1 0x0 MSTORE PUSH1 0x20 PUSH1 0x0 KECCAK256 SWAP1 PUSH1 0x1F ADD PUSH1 0x20 SWAP1 DIV DUP2 ADD SWAP3 DUP3 PUSH2 0xFE9 JUMPI PUSH1 0x0 DUP6 SSTORE PUSH2 0x1030 JUMP JUMPDEST DUP3 PUSH1 0x1F LT PUSH2 0x1002 JUMPI DUP1 MLOAD PUSH1 0xFF NOT AND DUP4 DUP1 ADD OR DUP6 SSTORE PUSH2 0x1030 JUMP JUMPDEST DUP3 DUP1 ADD PUSH1 0x1 ADD DUP6 SSTORE DUP3 ISZERO PUSH2 0x1030 JUMPI SWAP2 DUP3 ADD JUMPDEST DUP3 DUP2 GT ISZERO PUSH2 0x102F JUMPI DUP3 MLOAD DUP3 SSTORE SWAP2 PUSH1 0x20 ADD SWAP2 SWAP1 PUSH1 0x1 ADD SWAP1 PUSH2 0x1014 JUMP JUMPDEST JUMPDEST POP SWAP1 POP PUSH2 0x103D SWAP2 SWAP1 PUSH2 0x1041 JUMP JUMPDEST POP SWAP1 JUMP JUMPDEST JUMPDEST DUP1 DUP3 GT ISZERO PUSH2 0x105A JUMPI PUSH1 0x0 DUP2 PUSH1 0x0 SWAP1 SSTORE POP PUSH1 0x1 ADD PUSH2 0x1042 JUMP JUMPDEST POP SWAP1 JUMP JUMPDEST PUSH1 0x0 PUSH1 0x40 MLOAD SWAP1 POP SWAP1 JUMP JUMPDEST PUSH1 0x0 DUP1 REVERT JUMPDEST PUSH1 0x0 DUP1 REVERT JUMPDEST PUSH1 0x0 DUP1 REVERT JUMPDEST PUSH1 0x0 DUP1 REVERT JUMPDEST PUSH1 0x0 PUSH1 0x1F NOT PUSH1 0x1F DUP4 ADD AND SWAP1 POP SWAP2 SWAP1 POP JUMP JUMPDEST PUSH32 0x4E487B7100000000000000000000000000000000000000000000000000000000 PUSH1 0x0 MSTORE PUSH1 0x41 PUSH1 0x4 MSTORE PUSH1 0x24 PUSH1 0x0 REVERT JUMPDEST PUSH2 0x10C5 DUP3 PUSH2 0x107C JUMP JUMPDEST DUP2 ADD DUP2 DUP2 LT PUSH8 0xFFFFFFFFFFFFFFFF DUP3 GT OR ISZERO PUSH2 0x10E4 JUMPI PUSH2 0x10E3 PUSH2 0x108D JUMP JUMPDEST JUMPDEST DUP1 PUSH1 0x40 MSTORE POP POP POP JUMP JUMPDEST PUSH1 0x0 PUSH2 0x10F7 PUSH2 0x105E JUMP JUMPDEST SWAP1 POP PUSH2 0x1103 DUP3 DUP3 PUSH2 0x10BC JUMP JUMPDEST SWAP2 SWAP1 POP JUMP JUMPDEST PUSH1 0x0 PUSH8 0xFFFFFFFFFFFFFFFF DUP3 GT ISZERO PUSH2 0x1123 JUMPI PUSH2 0x1122 PUSH2 0x108D JUMP JUMPDEST JUMPDEST PUSH2 0x112C DUP3 PUSH2 0x107C JUMP JUMPDEST SWAP1 POP PUSH1 0x20 DUP2 ADD SWAP1 POP SWAP2 SWAP1 POP JUMP JUMPDEST DUP3 DUP2 DUP4 CALLDATACOPY PUSH1 0x0 DUP4 DUP4 ADD MSTORE POP POP POP JUMP JUMPDEST PUSH1 0x0 PUSH2 0x115B PUSH2 0x1156 DUP5 PUSH2 0x1108 JUMP JUMPDEST PUSH2 0x10ED JUMP JUMPDEST SWAP1 POP DUP3 DUP2 MSTORE PUSH1 0x20 DUP2 ADD DUP5 DUP5 DUP5 ADD GT ISZERO PUSH2 0x1177 JUMPI PUSH2 0x1176 PUSH2 0x1077 JUMP JUMPDEST JUMPDEST PUSH2 0x1182 DUP5 DUP3 DUP6 PUSH2 0x1139 JUMP JUMPDEST POP SWAP4 SWAP3 POP POP POP JUMP JUMPDEST PUSH1 0x0 DUP3 PUSH1 0x1F DUP4 ADD SLT PUSH2 0x119F JUMPI PUSH2 0x119E PUSH2 0x1072 JUMP JUMPDEST JUMPDEST DUP2 CALLDATALOAD PUSH2 0x11AF DUP5 DUP3 PUSH1 0x20 DUP7 ADD PUSH2 0x1148 JUMP JUMPDEST SWAP2 POP POP SWAP3 SWAP2 POP POP JUMP JUMPDEST PUSH1 0x0 PUSH1 0x20 DUP3 DUP5 SUB SLT ISZERO PUSH2 0x11CE JUMPI PUSH2 0x11CD PUSH2 0x1068 JUMP JUMPDEST JUMPDEST PUSH1 0x0 DUP3 ADD CALLDATALOAD PUSH8 0xFFFFFFFFFFFFFFFF DUP2 GT ISZERO PUSH2 0x11EC JUMPI PUSH2 0x11EB PUSH2 0x106D JUMP JUMPDEST JUMPDEST PUSH2 0x11F8 DUP5 DUP3 DUP6 ADD PUSH2 0x118A JUMP JUMPDEST SWAP2 POP POP SWAP3 SWAP2 POP POP JUMP JUMPDEST PUSH1 0x0 DUP2 SWAP1 POP SWAP2 SWAP1 POP JUMP JUMPDEST PUSH2 0x1214 DUP2 PUSH2 0x1201 JUMP JUMPDEST DUP3 MSTORE POP POP JUMP JUMPDEST PUSH1 0x0 PUSH1 0x20 DUP3 ADD SWAP1 POP PUSH2 0x122F PUSH1 0x0 DUP4 ADD DUP5 PUSH2 0x120B JUMP JUMPDEST SWAP3 SWAP2 POP POP JUMP JUMPDEST PUSH1 0x0 PUSH20 0xFFFFFFFFFFFFFFFFFFFFFFFFFFFFFFFFFFFFFFFF DUP3 AND SWAP1 POP SWAP2 SWAP1 POP JUMP JUMPDEST PUSH1 0x0 PUSH2 0x1260 DUP3 PUSH2 0x1235 JUMP JUMPDEST SWAP1 POP SWAP2 SWAP1 POP JUMP JUMPDEST PUSH2 0x1270 DUP2 PUSH2 0x1255 JUMP JUMPDEST DUP2 EQ PUSH2 0x127B JUMPI PUSH1 0x0 DUP1 REVERT JUMPDEST POP JUMP JUMPDEST PUSH1 0x0 DUP2 CALLDATALOAD SWAP1 POP PUSH2 0x128D DUP2 PUSH2 0x1267 JUMP JUMPDEST SWAP3 SWAP2 POP POP JUMP JUMPDEST PUSH1 0x0 DUP1 PUSH1 0x0 PUSH1 0x60 DUP5 DUP7 SUB SLT ISZERO PUSH2 0x12AC JUMPI PUSH2 0x12AB PUSH2 0x1068 JUMP JUMPDEST JUMPDEST PUSH1 0x0 DUP5 ADD CALLDATALOAD PUSH8 0xFFFFFFFFFFFFFFFF DUP2 GT ISZERO PUSH2 0x12CA JUMPI PUSH2 0x12C9 PUSH2 0x106D JUMP JUMPDEST JUMPDEST PUSH2 0x12D6 DUP7 DUP3 DUP8 ADD PUSH2 0x118A JUMP JUMPDEST SWAP4 POP POP PUSH1 0x20 DUP5 ADD CALLDATALOAD PUSH8 0xFFFFFFFFFFFFFFFF DUP2 GT ISZERO PUSH2 0x12F7 JUMPI PUSH2 0x12F6 PUSH2 0x106D JUMP JUMPDEST JUMPDEST PUSH2 0x1303 DUP7 DUP3 DUP8 ADD PUSH2 0x118A JUMP JUMPDEST SWAP3 POP POP PUSH1 0x40 PUSH2 0x1314 DUP7 DUP3 DUP8 ADD PUSH2 0x127E JUMP JUMPDEST SWAP2 POP POP SWAP3 POP SWAP3 POP SWAP3 JUMP JUMPDEST PUSH1 0x0 DUP2 ISZERO ISZERO SWAP1 POP SWAP2 SWAP1 POP JUMP JUMPDEST PUSH2 0x1333 DUP2 PUSH2 0x131E JUMP JUMPDEST DUP3 MSTORE POP POP JUMP JUMPDEST PUSH1 0x0 PUSH1 0x20 DUP3 ADD SWAP1 POP PUSH2 0x134E PUSH1 0x0 DUP4 ADD DUP5 PUSH2 0x132A JUMP JUMPDEST SWAP3 SWAP2 POP POP JUMP JUMPDEST PUSH2 0x135D DUP2 PUSH2 0x1201 JUMP JUMPDEST DUP2 EQ PUSH2 0x1368 JUMPI PUSH1 0x0 DUP1 REVERT JUMPDEST POP JUMP JUMPDEST PUSH1 0x0 DUP2 CALLDATALOAD SWAP1 POP PUSH2 0x137A DUP2 PUSH2 0x1354 JUMP JUMPDEST SWAP3 SWAP2 POP POP JUMP JUMPDEST PUSH1 0x0 DUP1 PUSH1 0x0 PUSH1 0x60 DUP5 DUP7 SUB SLT ISZERO PUSH2 0x1399 JUMPI PUSH2 0x1398 PUSH2 0x1068 JUMP JUMPDEST JUMPDEST PUSH1 0x0 DUP5 ADD CALLDATALOAD PUSH8 0xFFFFFFFFFFFFFFFF DUP2 GT ISZERO PUSH2 0x13B7 JUMPI PUSH2 0x13B6 PUSH2 0x106D JUMP JUMPDEST JUMPDEST PUSH2 0x13C3 DUP7 DUP3 DUP8 ADD PUSH2 0x118A JUMP JUMPDEST SWAP4 POP POP PUSH1 0x20 DUP5 ADD CALLDATALOAD PUSH8 0xFFFFFFFFFFFFFFFF DUP2 GT ISZERO PUSH2 0x13E4 JUMPI PUSH2 0x13E3 PUSH2 0x106D JUMP JUMPDEST JUMPDEST PUSH2 0x13F0 DUP7 DUP3 DUP8 ADD PUSH2 0x118A JUMP JUMPDEST SWAP3 POP POP PUSH1 0x40 PUSH2 0x1401 DUP7 DUP3 DUP8 ADD PUSH2 0x136B JUMP JUMPDEST SWAP2 POP POP SWAP3 POP SWAP3 POP SWAP3 JUMP JUMPDEST PUSH2 0x1414 DUP2 PUSH2 0x1255 JUMP JUMPDEST DUP3 MSTORE POP POP JUMP JUMPDEST PUSH1 0x0 PUSH1 0x20 DUP3 ADD SWAP1 POP PUSH2 0x142F PUSH1 0x0 DUP4 ADD DUP5 PUSH2 0x140B JUMP JUMPDEST SWAP3 SWAP2 POP POP JUMP JUMPDEST PUSH1 0x0 DUP1 PUSH1 0x40 DUP4 DUP6 SUB SLT ISZERO PUSH2 0x144C JUMPI PUSH2 0x144B PUSH2 0x1068 JUMP JUMPDEST JUMPDEST PUSH1 0x0 DUP4 ADD CALLDATALOAD PUSH8 0xFFFFFFFFFFFFFFFF DUP2 GT ISZERO PUSH2 0x146A JUMPI PUSH2 0x1469 PUSH2 0x106D JUMP JUMPDEST JUMPDEST PUSH2 0x1476 DUP6 DUP3 DUP7 ADD PUSH2 0x118A JUMP JUMPDEST SWAP3 POP POP PUSH1 0x20 DUP4 ADD CALLDATALOAD PUSH8 0xFFFFFFFFFFFFFFFF DUP2 GT ISZERO PUSH2 0x1497 JUMPI PUSH2 0x1496 PUSH2 0x106D JUMP JUMPDEST JUMPDEST PUSH2 0x14A3 DUP6 DUP3 DUP7 ADD PUSH2 0x118A JUMP JUMPDEST SWAP2 POP POP SWAP3 POP SWAP3 SWAP1 POP JUMP JUMPDEST PUSH1 0x0 PUSH1 0x20 DUP3 DUP5 SUB SLT ISZERO PUSH2 0x14C3 JUMPI PUSH2 0x14C2 PUSH2 0x1068 JUMP JUMPDEST JUMPDEST PUSH1 0x0 PUSH2 0x14D1 DUP5 DUP3 DUP6 ADD PUSH2 0x127E JUMP JUMPDEST SWAP2 POP POP SWAP3 SWAP2 POP POP JUMP JUMPDEST PUSH32 0x4E487B7100000000000000000000000000000000000000000000000000000000 PUSH1 0x0 MSTORE PUSH1 0x32 PUSH1 0x4 MSTORE PUSH1 0x24 PUSH1 0x0 REVERT JUMPDEST PUSH32 0x4E487B7100000000000000000000000000000000000000000000000000000000 PUSH1 0x0 MSTORE PUSH1 0x11 PUSH1 0x4 MSTORE PUSH1 0x24 PUSH1 0x0 REVERT JUMPDEST PUSH1 0x0 PUSH2 0x1543 DUP3 PUSH2 0x1201 JUMP JUMPDEST SWAP2 POP PUSH2 0x154E DUP4 PUSH2 0x1201 JUMP JUMPDEST SWAP3 POP DUP3 PUSH32 0xFFFFFFFFFFFFFFFFFFFFFFFFFFFFFFFFFFFFFFFFFFFFFFFFFFFFFFFFFFFFFFFF SUB DUP3 GT ISZERO PUSH2 0x1583 JUMPI PUSH2 0x1582 PUSH2 0x1509 JUMP JUMPDEST JUMPDEST DUP3 DUP3 ADD SWAP1 POP SWAP3 SWAP2 POP POP JUMP JUMPDEST PUSH32 0x4E487B7100000000000000000000000000000000000000000000000000000000 PUSH1 0x0 MSTORE PUSH1 0x12 PUSH1 0x4 MSTORE PUSH1 0x24 PUSH1 0x0 REVERT JUMPDEST PUSH1 0x0 PUSH2 0x15C8 DUP3 PUSH2 0x1201 JUMP JUMPDEST SWAP2 POP PUSH2 0x15D3 DUP4 PUSH2 0x1201 JUMP JUMPDEST SWAP3 POP DUP3 PUSH2 0x15E3 JUMPI PUSH2 0x15E2 PUSH2 0x158E JUMP JUMPDEST JUMPDEST DUP3 DUP3 DIV SWAP1 POP SWAP3 SWAP2 POP POP JUMP JUMPDEST PUSH1 0x0 DUP2 MLOAD SWAP1 POP SWAP2 SWAP1 POP JUMP JUMPDEST PUSH1 0x0 DUP2 SWAP1 POP SWAP3 SWAP2 POP POP JUMP JUMPDEST PUSH1 0x0 JUMPDEST DUP4 DUP2 LT ISZERO PUSH2 0x1622 JUMPI DUP1 DUP3 ADD MLOAD DUP2 DUP5 ADD MSTORE PUSH1 0x20 DUP2 ADD SWAP1 POP PUSH2 0x1607 JUMP JUMPDEST DUP4 DUP2 GT ISZERO PUSH2 0x1631 JUMPI PUSH1 0x0 DUP5 DUP5 ADD MSTORE JUMPDEST POP POP POP POP JUMP JUMPDEST PUSH1 0x0 PUSH2 0x1642 DUP3 PUSH2 0x15EE JUMP JUMPDEST PUSH2 0x164C DUP2 DUP6 PUSH2 0x15F9 JUMP JUMPDEST SWAP4 POP PUSH2 0x165C DUP2 DUP6 PUSH1 0x20 DUP7 ADD PUSH2 0x1604 JUMP JUMPDEST DUP1 DUP5 ADD SWAP2 POP POP SWAP3 SWAP2 POP POP JUMP JUMPDEST PUSH1 0x0 PUSH2 0x1674 DUP3 DUP5 PUSH2 0x1637 JUMP JUMPDEST SWAP2 POP DUP2 SWAP1 POP SWAP3 SWAP2 POP POP JUMP JUMPDEST PUSH1 0x0 DUP3 DUP3 MSTORE PUSH1 0x20 DUP3 ADD SWAP1 POP SWAP3 SWAP2 POP POP JUMP JUMPDEST PUSH1 0x0 PUSH2 0x169B DUP3 PUSH2 0x15EE JUMP JUMPDEST PUSH2 0x16A5 DUP2 DUP6 PUSH2 0x167F JUMP JUMPDEST SWAP4 POP PUSH2 0x16B5 DUP2 DUP6 PUSH1 0x20 DUP7 ADD PUSH2 0x1604 JUMP JUMPDEST PUSH2 0x16BE DUP2 PUSH2 0x107C JUMP JUMPDEST DUP5 ADD SWAP2 POP POP SWAP3 SWAP2 POP POP JUMP JUMPDEST PUSH1 0x0 PUSH1 0x60 DUP3 ADD SWAP1 POP DUP2 DUP2 SUB PUSH1 0x0 DUP4 ADD MSTORE PUSH2 0x16E3 DUP2 DUP7 PUSH2 0x1690 JUMP JUMPDEST SWAP1 POP DUP2 DUP2 SUB PUSH1 0x20 DUP4 ADD MSTORE PUSH2 0x16F7 DUP2 DUP6 PUSH2 0x1690 JUMP JUMPDEST SWAP1 POP PUSH2 0x1706 PUSH1 0x40 DUP4 ADD DUP5 PUSH2 0x140B JUMP JUMPDEST SWAP5 SWAP4 POP POP POP POP JUMP JUMPDEST PUSH32 0x4E487B7100000000000000000000000000000000000000000000000000000000 PUSH1 0x0 MSTORE PUSH1 0x22 PUSH1 0x4 MSTORE PUSH1 0x24 PUSH1 0x0 REVERT JUMPDEST PUSH1 0x0 PUSH1 0x2 DUP3 DIV SWAP1 POP PUSH1 0x1 DUP3 AND DUP1 PUSH2 0x1755 JUMPI PUSH1 0x7F DUP3 AND SWAP2 POP JUMPDEST PUSH1 0x20 DUP3 LT DUP2 SUB PUSH2 0x1768 JUMPI PUSH2 0x1767 PUSH2 0x170E JUMP JUMPDEST JUMPDEST POP SWAP2 SWAP1 POP JUMP JUMPDEST PUSH1 0x0 DUP2 SWAP1 POP DUP2 PUSH1 0x0 MSTORE PUSH1 0x20 PUSH1 0x0 KECCAK256 SWAP1 POP SWAP2 SWAP1 POP JUMP JUMPDEST PUSH1 0x0 DUP2 SLOAD PUSH2 0x1790 DUP2 PUSH2 0x173D JUMP JUMPDEST PUSH2 0x179A DUP2 DUP7 PUSH2 0x15F9 JUMP JUMPDEST SWAP5 POP PUSH1 0x1 DUP3 AND PUSH1 0x0 DUP2 EQ PUSH2 0x17B5 JUMPI PUSH1 0x1 DUP2 EQ PUSH2 0x17C6 JUMPI PUSH2 0x17F9 JUMP JUMPDEST PUSH1 0xFF NOT DUP4 AND DUP7 MSTORE DUP2 DUP7 ADD SWAP4 POP PUSH2 0x17F9 JUMP JUMPDEST PUSH2 0x17CF DUP6 PUSH2 0x176E JUMP JUMPDEST PUSH1 0x0 JUMPDEST DUP4 DUP2 LT ISZERO PUSH2 0x17F1 JUMPI DUP2 SLOAD DUP2 DUP10 ADD MSTORE PUSH1 0x1 DUP3 ADD SWAP2 POP PUSH1 0x20 DUP2 ADD SWAP1 POP PUSH2 0x17D2 JUMP JUMPDEST DUP4 DUP9 ADD SWAP6 POP POP POP JUMPDEST POP POP POP SWAP3 SWAP2 POP POP JUMP JUMPDEST PUSH1 0x0 PUSH2 0x180E DUP3 DUP5 PUSH2 0x1783 JUMP JUMPDEST SWAP2 POP DUP2 SWAP1 POP SWAP3 SWAP2 POP POP JUMP JUMPDEST PUSH32 0x796F75207265206E6F74207468652074656163686572206F6620746869732073 PUSH1 0x0 DUP3 ADD MSTORE PUSH32 0x747564656E7420636F7572736500000000000000000000000000000000000000 PUSH1 0x20 DUP3 ADD MSTORE POP JUMP JUMPDEST PUSH1 0x0 PUSH2 0x1875 PUSH1 0x2D DUP4 PUSH2 0x167F JUMP JUMPDEST SWAP2 POP PUSH2 0x1880 DUP3 PUSH2 0x1819 JUMP JUMPDEST PUSH1 0x40 DUP3 ADD SWAP1 POP SWAP2 SWAP1 POP JUMP JUMPDEST PUSH1 0x0 PUSH1 0x20 DUP3 ADD SWAP1 POP DUP2 DUP2 SUB PUSH1 0x0 DUP4 ADD MSTORE PUSH2 0x18A4 DUP2 PUSH2 0x1868 JUMP JUMPDEST SWAP1 POP SWAP2 SWAP1 POP JUMP JUMPDEST PUSH32 0x747970652061207265616C20636F757273650000000000000000000000000000 PUSH1 0x0 DUP3 ADD MSTORE POP JUMP JUMPDEST PUSH1 0x0 PUSH2 0x18E1 PUSH1 0x12 DUP4 PUSH2 0x167F JUMP JUMPDEST SWAP2 POP PUSH2 0x18EC DUP3 PUSH2 0x18AB JUMP JUMPDEST PUSH1 0x20 DUP3 ADD SWAP1 POP SWAP2 SWAP1 POP JUMP JUMPDEST PUSH1 0x0 PUSH1 0x20 DUP3 ADD SWAP1 POP DUP2 DUP2 SUB PUSH1 0x0 DUP4 ADD MSTORE PUSH2 0x1910 DUP2 PUSH2 0x18D4 JUMP JUMPDEST SWAP1 POP SWAP2 SWAP1 POP JUMP JUMPDEST PUSH32 0x796F75277265206E6F74207468652074656163686572206F6620746869732063 PUSH1 0x0 DUP3 ADD MSTORE PUSH32 0x6C61737320636F75727365000000000000000000000000000000000000000000 PUSH1 0x20 DUP3 ADD MSTORE POP JUMP JUMPDEST PUSH1 0x0 PUSH2 0x1973 PUSH1 0x2B DUP4 PUSH2 0x167F JUMP JUMPDEST SWAP2 POP PUSH2 0x197E DUP3 PUSH2 0x1917 JUMP JUMPDEST PUSH1 0x40 DUP3 ADD SWAP1 POP SWAP2 SWAP1 POP JUMP JUMPDEST PUSH1 0x0 PUSH1 0x20 DUP3 ADD SWAP1 POP DUP2 DUP2 SUB PUSH1 0x0 DUP4 ADD MSTORE PUSH2 0x19A2 DUP2 PUSH2 0x1966 JUMP JUMPDEST SWAP1 POP SWAP2 SWAP1 POP JUMP JUMPDEST PUSH1 0x0 PUSH2 0x19B4 DUP3 PUSH2 0x1201 JUMP JUMPDEST SWAP2 POP PUSH32 0xFFFFFFFFFFFFFFFFFFFFFFFFFFFFFFFFFFFFFFFFFFFFFFFFFFFFFFFFFFFFFFFF DUP3 SUB PUSH2 0x19E6 JUMPI PUSH2 0x19E5 PUSH2 0x1509 JUMP JUMPDEST JUMPDEST PUSH1 0x1 DUP3 ADD SWAP1 POP SWAP2 SWAP1 POP JUMP JUMPDEST PUSH1 0x0 PUSH2 0x19FC DUP3 PUSH2 0x1201 JUMP JUMPDEST SWAP2 POP PUSH2 0x1A07 DUP4 PUSH2 0x1201 JUMP JUMPDEST SWAP3 POP DUP2 PUSH32 0xFFFFFFFFFFFFFFFFFFFFFFFFFFFFFFFFFFFFFFFFFFFFFFFFFFFFFFFFFFFFFFFF DIV DUP4 GT DUP3 ISZERO ISZERO AND ISZERO PUSH2 0x1A40 JUMPI PUSH2 0x1A3F PUSH2 0x1509 JUMP JUMPDEST JUMPDEST DUP3 DUP3 MUL SWAP1 POP SWAP3 SWAP2 POP POP JUMP JUMPDEST PUSH32 0x4F776E61626C653A206E6577206F776E657220697320746865207A65726F2061 PUSH1 0x0 DUP3 ADD MSTORE PUSH32 0x6464726573730000000000000000000000000000000000000000000000000000 PUSH1 0x20 DUP3 ADD MSTORE POP JUMP JUMPDEST PUSH1 0x0 PUSH2 0x1AA7 PUSH1 0x26 DUP4 PUSH2 0x167F JUMP JUMPDEST SWAP2 POP PUSH2 0x1AB2 DUP3 PUSH2 0x1A4B JUMP JUMPDEST PUSH1 0x40 DUP3 ADD SWAP1 POP SWAP2 SWAP1 POP JUMP JUMPDEST PUSH1 0x0 PUSH1 0x20 DUP3 ADD SWAP1 POP DUP2 DUP2 SUB PUSH1 0x0 DUP4 ADD MSTORE PUSH2 0x1AD6 DUP2 PUSH2 0x1A9A JUMP JUMPDEST SWAP1 POP SWAP2 SWAP1 POP JUMP JUMPDEST PUSH32 0x4F776E61626C653A2063616C6C6572206973206E6F7420746865206F776E6572 PUSH1 0x0 DUP3 ADD MSTORE POP JUMP JUMPDEST PUSH1 0x0 PUSH2 0x1B13 PUSH1 0x20 DUP4 PUSH2 0x167F JUMP JUMPDEST SWAP2 POP PUSH2 0x1B1E DUP3 PUSH2 0x1ADD JUMP JUMPDEST PUSH1 0x20 DUP3 ADD SWAP1 POP SWAP2 SWAP1 POP JUMP JUMPDEST PUSH1 0x0 PUSH1 0x20 DUP3 ADD SWAP1 POP DUP2 DUP2 SUB PUSH1 0x0 DUP4 ADD MSTORE PUSH2 0x1B42 DUP2 PUSH2 0x1B06 JUMP JUMPDEST SWAP1 POP SWAP2 SWAP1 POP JUMP INVALID LOG2 PUSH5 0x6970667358 0x22 SLT KECCAK256 0xB8 0xDD NUMBER 0xB7 0xD PUSH25 0x969CFA992DEE987AC7B0AFBDC5D1300603842538A6F2529076 SGT PUSH5 0x736F6C6343 STOP ADDMOD 0xD STOP CALLER "
				},
				"gasEstimates": {
					"creation": {
						"codeDepositCost": "1407800",
						"executionCost": "infinite",
						"totalCost": "infinite"
					},
					"external": {
						"addStudent(string,string,address)": "infinite",
						"calculateMoyenneGenerale(string)": "infinite",
						"calculateMoyennePerCourse(string,string)": "infinite",
						"calculateMoyenneStudent(string)": "infinite",
						"isPassing(string)": "infinite",
						"owner()": "2544",
						"renounceOwnership()": "30398",
						"setNote(string,string,uint256)": "infinite",
						"setTeacher(string,string,address)": "infinite",
						"transferOwnership(address)": "30832"
					},
					"internal": {
						"getStudentFromName(string memory)": "infinite",
						"stringsEquals(string memory,string memory)": "infinite"
					}
				},
				"methodIdentifiers": {
					"addStudent(string,string,address)": "42de0619",
					"calculateMoyenneGenerale(string)": "d304b1ea",
					"calculateMoyennePerCourse(string,string)": "c2ef3771",
					"calculateMoyenneStudent(string)": "02a3c89b",
					"isPassing(string)": "0dc0ffb1",
					"owner()": "8da5cb5b",
					"renounceOwnership()": "715018a6",
					"setNote(string,string,uint256)": "27b51db2",
					"setTeacher(string,string,address)": "0b90cbc9",
					"transferOwnership(address)": "f2fde38b"
				}
			},
			"storageLayout": {
				"storage": [
					{
						"astId": 7,
						"contract": "contracts/exoCours/exoNotationV2/exoNotationV2.sol:exoNotationV2",
						"label": "_owner",
						"offset": 0,
						"slot": "0",
						"type": "t_address"
					},
					{
						"astId": 156,
						"contract": "contracts/exoCours/exoNotationV2/exoNotationV2.sol:exoNotationV2",
						"label": "students",
						"offset": 0,
						"slot": "1",
						"type": "t_array(t_struct(Student)152_storage)dyn_storage"
					},
					{
						"astId": 162,
						"contract": "contracts/exoCours/exoNotationV2/exoNotationV2.sol:exoNotationV2",
						"label": "teachers",
						"offset": 0,
						"slot": "2",
						"type": "t_mapping(t_string_memory_ptr,t_mapping(t_string_memory_ptr,t_address))"
					}
				],
				"types": {
					"t_address": {
						"encoding": "inplace",
						"label": "address",
						"numberOfBytes": "20"
					},
					"t_array(t_struct(Student)152_storage)dyn_storage": {
						"base": "t_struct(Student)152_storage",
						"encoding": "dynamic_array",
						"label": "struct exoNotationV2.Student[]",
						"numberOfBytes": "32"
					},
					"t_mapping(t_string_memory_ptr,t_address)": {
						"encoding": "mapping",
						"key": "t_string_memory_ptr",
						"label": "mapping(string => address)",
						"numberOfBytes": "32",
						"value": "t_address"
					},
					"t_mapping(t_string_memory_ptr,t_mapping(t_string_memory_ptr,t_address))": {
						"encoding": "mapping",
						"key": "t_string_memory_ptr",
						"label": "mapping(string => mapping(string => address))",
						"numberOfBytes": "32",
						"value": "t_mapping(t_string_memory_ptr,t_address)"
					},
					"t_string_memory_ptr": {
						"encoding": "bytes",
						"label": "string",
						"numberOfBytes": "32"
					},
					"t_string_storage": {
						"encoding": "bytes",
						"label": "string",
						"numberOfBytes": "32"
					},
					"t_struct(Student)152_storage": {
						"encoding": "inplace",
						"label": "struct exoNotationV2.Student",
						"members": [
							{
								"astId": 141,
								"contract": "contracts/exoCours/exoNotationV2/exoNotationV2.sol:exoNotationV2",
								"label": "name",
								"offset": 0,
								"slot": "0",
								"type": "t_string_storage"
							},
							{
								"astId": 143,
								"contract": "contracts/exoCours/exoNotationV2/exoNotationV2.sol:exoNotationV2",
								"label": "class",
								"offset": 0,
								"slot": "1",
								"type": "t_string_storage"
							},
							{
								"astId": 145,
								"contract": "contracts/exoCours/exoNotationV2/exoNotationV2.sol:exoNotationV2",
								"label": "addr",
								"offset": 0,
								"slot": "2",
								"type": "t_address"
							},
							{
								"astId": 147,
								"contract": "contracts/exoCours/exoNotationV2/exoNotationV2.sol:exoNotationV2",
								"label": "noteBiology",
								"offset": 0,
								"slot": "3",
								"type": "t_uint256"
							},
							{
								"astId": 149,
								"contract": "contracts/exoCours/exoNotationV2/exoNotationV2.sol:exoNotationV2",
								"label": "noteMaths",
								"offset": 0,
								"slot": "4",
								"type": "t_uint256"
							},
							{
								"astId": 151,
								"contract": "contracts/exoCours/exoNotationV2/exoNotationV2.sol:exoNotationV2",
								"label": "noteFr",
								"offset": 0,
								"slot": "5",
								"type": "t_uint256"
							}
						],
						"numberOfBytes": "192"
					},
					"t_uint256": {
						"encoding": "inplace",
						"label": "uint256",
						"numberOfBytes": "32"
					}
				}
			},
			"userdoc": {
				"kind": "user",
				"methods": {},
				"version": 1
			}
		}
	}
}