{
  "_format": "hh-sol-artifact-1",
  "contractName": "VaultNotSecured",
  "sourceName": "contracts/VaultNotSecured.sol",
  "abi": [
    {
      "inputs": [
        {
          "internalType": "address",
          "name": "",
          "type": "address"
        }
      ],
      "name": "balances",
      "outputs": [
        {
          "internalType": "uint256",
          "name": "",
          "type": "uint256"
        }
      ],
      "stateMutability": "view",
      "type": "function"
    },
    {
      "inputs": [],
      "name": "redeem",
      "outputs": [],
      "stateMutability": "nonpayable",
      "type": "function"
    },
    {
      "inputs": [],
      "name": "store",
      "outputs": [],
      "stateMutability": "payable",
      "type": "function"
    }
  ],
  "bytecode": "0x608060405234801561001057600080fd5b50610396806100206000396000f3fe6080604052600436106100345760003560e01c806327e235e314610039578063975057e714610076578063be040fb014610080575b600080fd5b34801561004557600080fd5b50610060600480360381019061005b9190610256565b610097565b60405161006d919061029c565b60405180910390f35b61007e6100af565b005b34801561008c57600080fd5b50610095610106565b005b60006020528060005260406000206000915090505481565b346000803373ffffffffffffffffffffffffffffffffffffffff1673ffffffffffffffffffffffffffffffffffffffff16815260200190815260200160002060008282546100fd91906102e6565b92505081905550565b3373ffffffffffffffffffffffffffffffffffffffff166000803373ffffffffffffffffffffffffffffffffffffffff1673ffffffffffffffffffffffffffffffffffffffff168152602001908152602001600020546040516101689061034b565b60006040518083038185875af1925050503d80600081146101a5576040519150601f19603f3d011682016040523d82523d6000602084013e6101aa565b606091505b50505060008060003373ffffffffffffffffffffffffffffffffffffffff1673ffffffffffffffffffffffffffffffffffffffff16815260200190815260200160002081905550565b600080fd5b600073ffffffffffffffffffffffffffffffffffffffff82169050919050565b6000610223826101f8565b9050919050565b61023381610218565b811461023e57600080fd5b50565b6000813590506102508161022a565b92915050565b60006020828403121561026c5761026b6101f3565b5b600061027a84828501610241565b91505092915050565b6000819050919050565b61029681610283565b82525050565b60006020820190506102b1600083018461028d565b92915050565b7f4e487b7100000000000000000000000000000000000000000000000000000000600052601160045260246000fd5b60006102f182610283565b91506102fc83610283565b9250828201905080821115610314576103136102b7565b5b92915050565b600081905092915050565b50565b600061033560008361031a565b915061034082610325565b600082019050919050565b600061035682610328565b915081905091905056fea2646970667358221220cdba715cbb0d14bfcb6c2f13cf3fed6af2c5a4f95e8af30fb8ded18865b8961e64736f6c63430008120033",
  "linkReferences": {},
  "deployedLinkReferences": {}
}